{
	"compilerInput": "{\"language\":\"Solidity\",\"sources\":{\"contracts/walkwalk.sol\":{\"content\":\"// SPDX-License-Identifier: MIT\\r\\npragma solidity >=0.8.19 <0.9.0;\\r\\n\\r\\ncontract WalkWalk {\\r\\n    struct ExerciseData {\\r\\n        uint timestamp;\\r\\n        uint steps;\\r\\n        uint duration;\\r\\n        uint distance;\\r\\n    }\\r\\n\\r\\n    struct Receipt {\\r\\n        string walletType;\\r\\n        bool operator;\\r\\n        uint price;\\r\\n        string description;\\r\\n        string createdAt;\\r\\n        uint memberId;\\r\\n    }\\r\\n\\r\\n    // 유저 ID와 타임스탬프별로 운동 정보 배열을 저장하는 매핑\\r\\n    mapping(uint => mapping(uint => ExerciseData[])) public exerciseRecordsByTimestamp;\\r\\n\\r\\n    // 운동 데이터가 추가될 때 발생하는 이벤트\\r\\n    event ExerciseDataAdded(uint memberId, uint timestamp, uint steps, uint duration, uint distance);\\r\\n\\r\\n    // Receipt 데이터를 저장하는 배열\\r\\n    Receipt[] public receipts;\\r\\n\\r\\n    // Receipt 데이터가 추가될 때마다 발생하는 이벤트\\r\\n    event ReceiptAdded(uint indexed receiptId, string walletType, bool operator, uint price, string description, string createdAt, uint memberId);\\r\\n\\r\\n    // 운동 데이터를 추가하는 함수\\r\\n    function addExerciseData(uint _memberId, uint _timestamp, uint _steps, uint _duration, uint _distance) public {\\r\\n        // 지정된 타임스탬프의 운동 정보 배열에 새로운 데이터를 추가\\r\\n        exerciseRecordsByTimestamp[_memberId][_timestamp].push(ExerciseData(_timestamp, _steps, _duration, _distance));\\r\\n        \\r\\n        // 이벤트 발생\\r\\n        emit ExerciseDataAdded(_memberId, _timestamp, _steps, _duration, _distance);\\r\\n    }\\r\\n\\r\\n    // 특정 유저 ID와 타임스탬프로 운동 정보 배열을 조회하는 함수\\r\\n    function getExerciseDataByTimestamp(uint _memberId, uint _timestamp) public view returns (ExerciseData[] memory) {\\r\\n        return exerciseRecordsByTimestamp[_memberId][_timestamp];\\r\\n    }\\r\\n\\r\\n    // Receipt 데이터를 추가하는 함수\\r\\n    function addReceipt(string memory _walletType, bool _operator, uint _price, string memory _description, string memory _createdAt, uint _memberId) public returns (uint) {\\r\\n        receipts.push(Receipt(_walletType, _operator, _price, _description, _createdAt, _memberId));\\r\\n        uint receiptId = receipts.length - 1;\\r\\n        \\r\\n        emit ReceiptAdded(receiptId, _walletType, _operator, _price, _description, _createdAt, _memberId);\\r\\n        \\r\\n        return receiptId;\\r\\n    }\\r\\n\\r\\n    // 특정 ID를 가진 Receipt 데이터를 조회하는 함수\\r\\n    function getReceipt(uint _receiptId) public view returns (Receipt memory) {\\r\\n        require(_receiptId < receipts.length, \\\"Receipt does not exist.\\\");\\r\\n        return receipts[_receiptId];\\r\\n    }\\r\\n}\\r\\n\"}},\"settings\":{\"optimizer\":{\"enabled\":false,\"runs\":200},\"outputSelection\":{\"*\":{\"\":[\"ast\"],\"*\":[\"abi\",\"metadata\",\"devdoc\",\"userdoc\",\"storageLayout\",\"evm.legacyAssembly\",\"evm.bytecode\",\"evm.deployedBytecode\",\"evm.methodIdentifiers\",\"evm.gasEstimates\",\"evm.assembly\"]}},\"remappings\":[]}}",
	"name": "WalkWalk",
	"bytecode": {
		"linkReferences": {},
		"object": "6080604052348015600e575f80fd5b506114728061001c5f395ff3fe608060405234801561000f575f80fd5b5060043610610060575f3560e01c8063069efa7c146100645780630f7ee1ec1461009757806332e7847b146100cc5780638cc5ed93146100fc578063b63e6ac31461012c578063d3e377451461015c575b5f80fd5b61007e6004803603810190610079919061092c565b610178565b60405161008e949392919061098b565b60405180910390f35b6100b160048036038101906100ac91906109ce565b6101c8565b6040516100c396959493929190610a83565b60405180910390f35b6100e660048036038101906100e19190610c4d565b6103ad565b6040516100f39190610d2a565b60405180910390f35b61011660048036038101906101119190610d43565b6104de565b6040516101239190610e8b565b60405180910390f35b610146600480360381019061014191906109ce565b610581565b6040516101539190610f96565b60405180910390f35b61017660048036038101906101719190610fb6565b6107df565b005b5f602052825f5260405f20602052815f5260405f20818154811061019a575f80fd5b905f5260205f2090600402015f925092505050805f0154908060010154908060020154908060030154905084565b600181815481106101d7575f80fd5b905f5260205f2090600602015f91509050805f0180546101f69061105a565b80601f01602080910402602001604051908101604052809291908181526020018280546102229061105a565b801561026d5780601f106102445761010080835404028352916020019161026d565b820191905f5260205f20905b81548152906001019060200180831161025057829003601f168201915b505050505090806001015f9054906101000a900460ff169080600201549080600301805461029a9061105a565b80601f01602080910402602001604051908101604052809291908181526020018280546102c69061105a565b80156103115780601f106102e857610100808354040283529160200191610311565b820191905f5260205f20905b8154815290600101906020018083116102f457829003601f168201915b5050505050908060040180546103269061105a565b80601f01602080910402602001604051908101604052809291908181526020018280546103529061105a565b801561039d5780601f106103745761010080835404028352916020019161039d565b820191905f5260205f20905b81548152906001019060200180831161038057829003601f168201915b5050505050908060050154905086565b5f60016040518060c00160405280898152602001881515815260200187815260200186815260200185815260200184815250908060018154018082558091505060019003905f5260205f2090600602015f909190919091505f820151815f0190816104189190611227565b506020820151816001015f6101000a81548160ff0219169083151502179055506040820151816002015560608201518160030190816104579190611227565b50608082015181600401908161046d9190611227565b5060a0820151816005015550505f6001808054905061048c9190611323565b9050807f8b9f4d9e9c07fe50f790c2348976c935ad40e3e76ff7bb74ef1c6ae9eaebd3fe8989898989896040516104c896959493929190610a83565b60405180910390a2809150509695505050505050565b60605f808481526020019081526020015f205f8381526020019081526020015f20805480602002602001604051908101604052809291908181526020015f905b82821015610575578382905f5260205f2090600402016040518060800160405290815f820154815260200160018201548152602001600282015481526020016003820154815250508152602001906001019061051e565b50505050905092915050565b6105896108b3565b60018054905082106105d0576040517f08c379a00000000000000000000000000000000000000000000000000000000081526004016105c7906113a0565b60405180910390fd5b600182815481106105e4576105e36113be565b5b905f5260205f2090600602016040518060c00160405290815f8201805461060a9061105a565b80601f01602080910402602001604051908101604052809291908181526020018280546106369061105a565b80156106815780601f1061065857610100808354040283529160200191610681565b820191905f5260205f20905b81548152906001019060200180831161066457829003601f168201915b50505050508152602001600182015f9054906101000a900460ff16151515158152602001600282015481526020016003820180546106be9061105a565b80601f01602080910402602001604051908101604052809291908181526020018280546106ea9061105a565b80156107355780601f1061070c57610100808354040283529160200191610735565b820191905f5260205f20905b81548152906001019060200180831161071857829003601f168201915b5050505050815260200160048201805461074e9061105a565b80601f016020809104026020016040519081016040528092919081815260200182805461077a9061105a565b80156107c55780601f1061079c576101008083540402835291602001916107c5565b820191905f5260205f20905b8154815290600101906020018083116107a857829003601f168201915b505050505081526020016005820154815250509050919050565b5f808681526020019081526020015f205f8581526020019081526020015f20604051806080016040528086815260200185815260200184815260200183815250908060018154018082558091505060019003905f5260205f2090600402015f909190919091505f820151815f015560208201518160010155604082015181600201556060820151816003015550507fe920c436c1f1b04eec68b8cdeb48d96c4d5d95f3cc10d4fd0a21978585c23e0985858585856040516108a49594939291906113eb565b60405180910390a15050505050565b6040518060c00160405280606081526020015f151581526020015f815260200160608152602001606081526020015f81525090565b5f604051905090565b5f80fd5b5f80fd5b5f819050919050565b61090b816108f9565b8114610915575f80fd5b50565b5f8135905061092681610902565b92915050565b5f805f60608486031215610943576109426108f1565b5b5f61095086828701610918565b935050602061096186828701610918565b925050604061097286828701610918565b9150509250925092565b610985816108f9565b82525050565b5f60808201905061099e5f83018761097c565b6109ab602083018661097c565b6109b8604083018561097c565b6109c5606083018461097c565b95945050505050565b5f602082840312156109e3576109e26108f1565b5b5f6109f084828501610918565b91505092915050565b5f81519050919050565b5f82825260208201905092915050565b8281835e5f83830152505050565b5f601f19601f8301169050919050565b5f610a3b826109f9565b610a458185610a03565b9350610a55818560208601610a13565b610a5e81610a21565b840191505092915050565b5f8115159050919050565b610a7d81610a69565b82525050565b5f60c0820190508181035f830152610a9b8189610a31565b9050610aaa6020830188610a74565b610ab7604083018761097c565b8181036060830152610ac98186610a31565b90508181036080830152610add8185610a31565b9050610aec60a083018461097c565b979650505050505050565b5f80fd5b5f80fd5b7f4e487b71000000000000000000000000000000000000000000000000000000005f52604160045260245ffd5b610b3582610a21565b810181811067ffffffffffffffff82111715610b5457610b53610aff565b5b80604052505050565b5f610b666108e8565b9050610b728282610b2c565b919050565b5f67ffffffffffffffff821115610b9157610b90610aff565b5b610b9a82610a21565b9050602081019050919050565b828183375f83830152505050565b5f610bc7610bc284610b77565b610b5d565b905082815260208101848484011115610be357610be2610afb565b5b610bee848285610ba7565b509392505050565b5f82601f830112610c0a57610c09610af7565b5b8135610c1a848260208601610bb5565b91505092915050565b610c2c81610a69565b8114610c36575f80fd5b50565b5f81359050610c4781610c23565b92915050565b5f805f805f8060c08789031215610c6757610c666108f1565b5b5f87013567ffffffffffffffff811115610c8457610c836108f5565b5b610c9089828a01610bf6565b9650506020610ca189828a01610c39565b9550506040610cb289828a01610918565b945050606087013567ffffffffffffffff811115610cd357610cd26108f5565b5b610cdf89828a01610bf6565b935050608087013567ffffffffffffffff811115610d0057610cff6108f5565b5b610d0c89828a01610bf6565b92505060a0610d1d89828a01610918565b9150509295509295509295565b5f602082019050610d3d5f83018461097c565b92915050565b5f8060408385031215610d5957610d586108f1565b5b5f610d6685828601610918565b9250506020610d7785828601610918565b9150509250929050565b5f81519050919050565b5f82825260208201905092915050565b5f819050602082019050919050565b610db3816108f9565b82525050565b608082015f820151610dcd5f850182610daa565b506020820151610de06020850182610daa565b506040820151610df36040850182610daa565b506060820151610e066060850182610daa565b50505050565b5f610e178383610db9565b60808301905092915050565b5f602082019050919050565b5f610e3982610d81565b610e438185610d8b565b9350610e4e83610d9b565b805f5b83811015610e7e578151610e658882610e0c565b9750610e7083610e23565b925050600181019050610e51565b5085935050505092915050565b5f6020820190508181035f830152610ea38184610e2f565b905092915050565b5f82825260208201905092915050565b5f610ec5826109f9565b610ecf8185610eab565b9350610edf818560208601610a13565b610ee881610a21565b840191505092915050565b610efc81610a69565b82525050565b5f60c083015f8301518482035f860152610f1c8282610ebb565b9150506020830151610f316020860182610ef3565b506040830151610f446040860182610daa565b5060608301518482036060860152610f5c8282610ebb565b91505060808301518482036080860152610f768282610ebb565b91505060a0830151610f8b60a0860182610daa565b508091505092915050565b5f6020820190508181035f830152610fae8184610f02565b905092915050565b5f805f805f60a08688031215610fcf57610fce6108f1565b5b5f610fdc88828901610918565b9550506020610fed88828901610918565b9450506040610ffe88828901610918565b935050606061100f88828901610918565b925050608061102088828901610918565b9150509295509295909350565b7f4e487b71000000000000000000000000000000000000000000000000000000005f52602260045260245ffd5b5f600282049050600182168061107157607f821691505b6020821081036110845761108361102d565b5b50919050565b5f819050815f5260205f209050919050565b5f6020601f8301049050919050565b5f82821b905092915050565b5f600883026110e67fffffffffffffffffffffffffffffffffffffffffffffffffffffffffffffffff826110ab565b6110f086836110ab565b95508019841693508086168417925050509392505050565b5f819050919050565b5f61112b611126611121846108f9565b611108565b6108f9565b9050919050565b5f819050919050565b61114483611111565b61115861115082611132565b8484546110b7565b825550505050565b5f90565b61116c611160565b61117781848461113b565b505050565b5b8181101561119a5761118f5f82611164565b60018101905061117d565b5050565b601f8211156111df576111b08161108a565b6111b98461109c565b810160208510156111c8578190505b6111dc6111d48561109c565b83018261117c565b50505b505050565b5f82821c905092915050565b5f6111ff5f19846008026111e4565b1980831691505092915050565b5f61121783836111f0565b9150826002028217905092915050565b611230826109f9565b67ffffffffffffffff81111561124957611248610aff565b5b611253825461105a565b61125e82828561119e565b5f60209050601f83116001811461128f575f841561127d578287015190505b611287858261120c565b8655506112ee565b601f19841661129d8661108a565b5f5b828110156112c45784890151825560018201915060208501945060208101905061129f565b868310156112e157848901516112dd601f8916826111f0565b8355505b6001600288020188555050505b505050505050565b7f4e487b71000000000000000000000000000000000000000000000000000000005f52601160045260245ffd5b5f61132d826108f9565b9150611338836108f9565b92508282039050818111156113505761134f6112f6565b5b92915050565b7f5265636569707420646f6573206e6f742065786973742e0000000000000000005f82015250565b5f61138a601783610a03565b915061139582611356565b602082019050919050565b5f6020820190508181035f8301526113b78161137e565b9050919050565b7f4e487b71000000000000000000000000000000000000000000000000000000005f52603260045260245ffd5b5f60a0820190506113fe5f83018861097c565b61140b602083018761097c565b611418604083018661097c565b611425606083018561097c565b611432608083018461097c565b969550505050505056fea26469706673582212206637b7f7712eb1a9b4bf7121c2d69e53b90f0fc36e75e7c111081a60405adcec64736f6c63430008190033",
		"opcodes": "PUSH1 0x80 PUSH1 0x40 MSTORE CALLVALUE DUP1 ISZERO PUSH1 0xE JUMPI PUSH0 DUP1 REVERT JUMPDEST POP PUSH2 0x1472 DUP1 PUSH2 0x1C PUSH0 CODECOPY PUSH0 RETURN INVALID PUSH1 0x80 PUSH1 0x40 MSTORE CALLVALUE DUP1 ISZERO PUSH2 0xF JUMPI PUSH0 DUP1 REVERT JUMPDEST POP PUSH1 0x4 CALLDATASIZE LT PUSH2 0x60 JUMPI PUSH0 CALLDATALOAD PUSH1 0xE0 SHR DUP1 PUSH4 0x69EFA7C EQ PUSH2 0x64 JUMPI DUP1 PUSH4 0xF7EE1EC EQ PUSH2 0x97 JUMPI DUP1 PUSH4 0x32E7847B EQ PUSH2 0xCC JUMPI DUP1 PUSH4 0x8CC5ED93 EQ PUSH2 0xFC JUMPI DUP1 PUSH4 0xB63E6AC3 EQ PUSH2 0x12C JUMPI DUP1 PUSH4 0xD3E37745 EQ PUSH2 0x15C JUMPI JUMPDEST PUSH0 DUP1 REVERT JUMPDEST PUSH2 0x7E PUSH1 0x4 DUP1 CALLDATASIZE SUB DUP2 ADD SWAP1 PUSH2 0x79 SWAP2 SWAP1 PUSH2 0x92C JUMP JUMPDEST PUSH2 0x178 JUMP JUMPDEST PUSH1 0x40 MLOAD PUSH2 0x8E SWAP5 SWAP4 SWAP3 SWAP2 SWAP1 PUSH2 0x98B JUMP JUMPDEST PUSH1 0x40 MLOAD DUP1 SWAP2 SUB SWAP1 RETURN JUMPDEST PUSH2 0xB1 PUSH1 0x4 DUP1 CALLDATASIZE SUB DUP2 ADD SWAP1 PUSH2 0xAC SWAP2 SWAP1 PUSH2 0x9CE JUMP JUMPDEST PUSH2 0x1C8 JUMP JUMPDEST PUSH1 0x40 MLOAD PUSH2 0xC3 SWAP7 SWAP6 SWAP5 SWAP4 SWAP3 SWAP2 SWAP1 PUSH2 0xA83 JUMP JUMPDEST PUSH1 0x40 MLOAD DUP1 SWAP2 SUB SWAP1 RETURN JUMPDEST PUSH2 0xE6 PUSH1 0x4 DUP1 CALLDATASIZE SUB DUP2 ADD SWAP1 PUSH2 0xE1 SWAP2 SWAP1 PUSH2 0xC4D JUMP JUMPDEST PUSH2 0x3AD JUMP JUMPDEST PUSH1 0x40 MLOAD PUSH2 0xF3 SWAP2 SWAP1 PUSH2 0xD2A JUMP JUMPDEST PUSH1 0x40 MLOAD DUP1 SWAP2 SUB SWAP1 RETURN JUMPDEST PUSH2 0x116 PUSH1 0x4 DUP1 CALLDATASIZE SUB DUP2 ADD SWAP1 PUSH2 0x111 SWAP2 SWAP1 PUSH2 0xD43 JUMP JUMPDEST PUSH2 0x4DE JUMP JUMPDEST PUSH1 0x40 MLOAD PUSH2 0x123 SWAP2 SWAP1 PUSH2 0xE8B JUMP JUMPDEST PUSH1 0x40 MLOAD DUP1 SWAP2 SUB SWAP1 RETURN JUMPDEST PUSH2 0x146 PUSH1 0x4 DUP1 CALLDATASIZE SUB DUP2 ADD SWAP1 PUSH2 0x141 SWAP2 SWAP1 PUSH2 0x9CE JUMP JUMPDEST PUSH2 0x581 JUMP JUMPDEST PUSH1 0x40 MLOAD PUSH2 0x153 SWAP2 SWAP1 PUSH2 0xF96 JUMP JUMPDEST PUSH1 0x40 MLOAD DUP1 SWAP2 SUB SWAP1 RETURN JUMPDEST PUSH2 0x176 PUSH1 0x4 DUP1 CALLDATASIZE SUB DUP2 ADD SWAP1 PUSH2 0x171 SWAP2 SWAP1 PUSH2 0xFB6 JUMP JUMPDEST PUSH2 0x7DF JUMP JUMPDEST STOP JUMPDEST PUSH0 PUSH1 0x20 MSTORE DUP3 PUSH0 MSTORE PUSH1 0x40 PUSH0 KECCAK256 PUSH1 0x20 MSTORE DUP2 PUSH0 MSTORE PUSH1 0x40 PUSH0 KECCAK256 DUP2 DUP2 SLOAD DUP2 LT PUSH2 0x19A JUMPI PUSH0 DUP1 REVERT JUMPDEST SWAP1 PUSH0 MSTORE PUSH1 0x20 PUSH0 KECCAK256 SWAP1 PUSH1 0x4 MUL ADD PUSH0 SWAP3 POP SWAP3 POP POP POP DUP1 PUSH0 ADD SLOAD SWAP1 DUP1 PUSH1 0x1 ADD SLOAD SWAP1 DUP1 PUSH1 0x2 ADD SLOAD SWAP1 DUP1 PUSH1 0x3 ADD SLOAD SWAP1 POP DUP5 JUMP JUMPDEST PUSH1 0x1 DUP2 DUP2 SLOAD DUP2 LT PUSH2 0x1D7 JUMPI PUSH0 DUP1 REVERT JUMPDEST SWAP1 PUSH0 MSTORE PUSH1 0x20 PUSH0 KECCAK256 SWAP1 PUSH1 0x6 MUL ADD PUSH0 SWAP2 POP SWAP1 POP DUP1 PUSH0 ADD DUP1 SLOAD PUSH2 0x1F6 SWAP1 PUSH2 0x105A JUMP JUMPDEST DUP1 PUSH1 0x1F ADD PUSH1 0x20 DUP1 SWAP2 DIV MUL PUSH1 0x20 ADD PUSH1 0x40 MLOAD SWAP1 DUP2 ADD PUSH1 0x40 MSTORE DUP1 SWAP3 SWAP2 SWAP1 DUP2 DUP2 MSTORE PUSH1 0x20 ADD DUP3 DUP1 SLOAD PUSH2 0x222 SWAP1 PUSH2 0x105A JUMP JUMPDEST DUP1 ISZERO PUSH2 0x26D JUMPI DUP1 PUSH1 0x1F LT PUSH2 0x244 JUMPI PUSH2 0x100 DUP1 DUP4 SLOAD DIV MUL DUP4 MSTORE SWAP2 PUSH1 0x20 ADD SWAP2 PUSH2 0x26D JUMP JUMPDEST DUP3 ADD SWAP2 SWAP1 PUSH0 MSTORE PUSH1 0x20 PUSH0 KECCAK256 SWAP1 JUMPDEST DUP2 SLOAD DUP2 MSTORE SWAP1 PUSH1 0x1 ADD SWAP1 PUSH1 0x20 ADD DUP1 DUP4 GT PUSH2 0x250 JUMPI DUP3 SWAP1 SUB PUSH1 0x1F AND DUP3 ADD SWAP2 JUMPDEST POP POP POP POP POP SWAP1 DUP1 PUSH1 0x1 ADD PUSH0 SWAP1 SLOAD SWAP1 PUSH2 0x100 EXP SWAP1 DIV PUSH1 0xFF AND SWAP1 DUP1 PUSH1 0x2 ADD SLOAD SWAP1 DUP1 PUSH1 0x3 ADD DUP1 SLOAD PUSH2 0x29A SWAP1 PUSH2 0x105A JUMP JUMPDEST DUP1 PUSH1 0x1F ADD PUSH1 0x20 DUP1 SWAP2 DIV MUL PUSH1 0x20 ADD PUSH1 0x40 MLOAD SWAP1 DUP2 ADD PUSH1 0x40 MSTORE DUP1 SWAP3 SWAP2 SWAP1 DUP2 DUP2 MSTORE PUSH1 0x20 ADD DUP3 DUP1 SLOAD PUSH2 0x2C6 SWAP1 PUSH2 0x105A JUMP JUMPDEST DUP1 ISZERO PUSH2 0x311 JUMPI DUP1 PUSH1 0x1F LT PUSH2 0x2E8 JUMPI PUSH2 0x100 DUP1 DUP4 SLOAD DIV MUL DUP4 MSTORE SWAP2 PUSH1 0x20 ADD SWAP2 PUSH2 0x311 JUMP JUMPDEST DUP3 ADD SWAP2 SWAP1 PUSH0 MSTORE PUSH1 0x20 PUSH0 KECCAK256 SWAP1 JUMPDEST DUP2 SLOAD DUP2 MSTORE SWAP1 PUSH1 0x1 ADD SWAP1 PUSH1 0x20 ADD DUP1 DUP4 GT PUSH2 0x2F4 JUMPI DUP3 SWAP1 SUB PUSH1 0x1F AND DUP3 ADD SWAP2 JUMPDEST POP POP POP POP POP SWAP1 DUP1 PUSH1 0x4 ADD DUP1 SLOAD PUSH2 0x326 SWAP1 PUSH2 0x105A JUMP JUMPDEST DUP1 PUSH1 0x1F ADD PUSH1 0x20 DUP1 SWAP2 DIV MUL PUSH1 0x20 ADD PUSH1 0x40 MLOAD SWAP1 DUP2 ADD PUSH1 0x40 MSTORE DUP1 SWAP3 SWAP2 SWAP1 DUP2 DUP2 MSTORE PUSH1 0x20 ADD DUP3 DUP1 SLOAD PUSH2 0x352 SWAP1 PUSH2 0x105A JUMP JUMPDEST DUP1 ISZERO PUSH2 0x39D JUMPI DUP1 PUSH1 0x1F LT PUSH2 0x374 JUMPI PUSH2 0x100 DUP1 DUP4 SLOAD DIV MUL DUP4 MSTORE SWAP2 PUSH1 0x20 ADD SWAP2 PUSH2 0x39D JUMP JUMPDEST DUP3 ADD SWAP2 SWAP1 PUSH0 MSTORE PUSH1 0x20 PUSH0 KECCAK256 SWAP1 JUMPDEST DUP2 SLOAD DUP2 MSTORE SWAP1 PUSH1 0x1 ADD SWAP1 PUSH1 0x20 ADD DUP1 DUP4 GT PUSH2 0x380 JUMPI DUP3 SWAP1 SUB PUSH1 0x1F AND DUP3 ADD SWAP2 JUMPDEST POP POP POP POP POP SWAP1 DUP1 PUSH1 0x5 ADD SLOAD SWAP1 POP DUP7 JUMP JUMPDEST PUSH0 PUSH1 0x1 PUSH1 0x40 MLOAD DUP1 PUSH1 0xC0 ADD PUSH1 0x40 MSTORE DUP1 DUP10 DUP2 MSTORE PUSH1 0x20 ADD DUP9 ISZERO ISZERO DUP2 MSTORE PUSH1 0x20 ADD DUP8 DUP2 MSTORE PUSH1 0x20 ADD DUP7 DUP2 MSTORE PUSH1 0x20 ADD DUP6 DUP2 MSTORE PUSH1 0x20 ADD DUP5 DUP2 MSTORE POP SWAP1 DUP1 PUSH1 0x1 DUP2 SLOAD ADD DUP1 DUP3 SSTORE DUP1 SWAP2 POP POP PUSH1 0x1 SWAP1 SUB SWAP1 PUSH0 MSTORE PUSH1 0x20 PUSH0 KECCAK256 SWAP1 PUSH1 0x6 MUL ADD PUSH0 SWAP1 SWAP2 SWAP1 SWAP2 SWAP1 SWAP2 POP PUSH0 DUP3 ADD MLOAD DUP2 PUSH0 ADD SWAP1 DUP2 PUSH2 0x418 SWAP2 SWAP1 PUSH2 0x1227 JUMP JUMPDEST POP PUSH1 0x20 DUP3 ADD MLOAD DUP2 PUSH1 0x1 ADD PUSH0 PUSH2 0x100 EXP DUP2 SLOAD DUP2 PUSH1 0xFF MUL NOT AND SWAP1 DUP4 ISZERO ISZERO MUL OR SWAP1 SSTORE POP PUSH1 0x40 DUP3 ADD MLOAD DUP2 PUSH1 0x2 ADD SSTORE PUSH1 0x60 DUP3 ADD MLOAD DUP2 PUSH1 0x3 ADD SWAP1 DUP2 PUSH2 0x457 SWAP2 SWAP1 PUSH2 0x1227 JUMP JUMPDEST POP PUSH1 0x80 DUP3 ADD MLOAD DUP2 PUSH1 0x4 ADD SWAP1 DUP2 PUSH2 0x46D SWAP2 SWAP1 PUSH2 0x1227 JUMP JUMPDEST POP PUSH1 0xA0 DUP3 ADD MLOAD DUP2 PUSH1 0x5 ADD SSTORE POP POP PUSH0 PUSH1 0x1 DUP1 DUP1 SLOAD SWAP1 POP PUSH2 0x48C SWAP2 SWAP1 PUSH2 0x1323 JUMP JUMPDEST SWAP1 POP DUP1 PUSH32 0x8B9F4D9E9C07FE50F790C2348976C935AD40E3E76FF7BB74EF1C6AE9EAEBD3FE DUP10 DUP10 DUP10 DUP10 DUP10 DUP10 PUSH1 0x40 MLOAD PUSH2 0x4C8 SWAP7 SWAP6 SWAP5 SWAP4 SWAP3 SWAP2 SWAP1 PUSH2 0xA83 JUMP JUMPDEST PUSH1 0x40 MLOAD DUP1 SWAP2 SUB SWAP1 LOG2 DUP1 SWAP2 POP POP SWAP7 SWAP6 POP POP POP POP POP POP JUMP JUMPDEST PUSH1 0x60 PUSH0 DUP1 DUP5 DUP2 MSTORE PUSH1 0x20 ADD SWAP1 DUP2 MSTORE PUSH1 0x20 ADD PUSH0 KECCAK256 PUSH0 DUP4 DUP2 MSTORE PUSH1 0x20 ADD SWAP1 DUP2 MSTORE PUSH1 0x20 ADD PUSH0 KECCAK256 DUP1 SLOAD DUP1 PUSH1 0x20 MUL PUSH1 0x20 ADD PUSH1 0x40 MLOAD SWAP1 DUP2 ADD PUSH1 0x40 MSTORE DUP1 SWAP3 SWAP2 SWAP1 DUP2 DUP2 MSTORE PUSH1 0x20 ADD PUSH0 SWAP1 JUMPDEST DUP3 DUP3 LT ISZERO PUSH2 0x575 JUMPI DUP4 DUP3 SWAP1 PUSH0 MSTORE PUSH1 0x20 PUSH0 KECCAK256 SWAP1 PUSH1 0x4 MUL ADD PUSH1 0x40 MLOAD DUP1 PUSH1 0x80 ADD PUSH1 0x40 MSTORE SWAP1 DUP2 PUSH0 DUP3 ADD SLOAD DUP2 MSTORE PUSH1 0x20 ADD PUSH1 0x1 DUP3 ADD SLOAD DUP2 MSTORE PUSH1 0x20 ADD PUSH1 0x2 DUP3 ADD SLOAD DUP2 MSTORE PUSH1 0x20 ADD PUSH1 0x3 DUP3 ADD SLOAD DUP2 MSTORE POP POP DUP2 MSTORE PUSH1 0x20 ADD SWAP1 PUSH1 0x1 ADD SWAP1 PUSH2 0x51E JUMP JUMPDEST POP POP POP POP SWAP1 POP SWAP3 SWAP2 POP POP JUMP JUMPDEST PUSH2 0x589 PUSH2 0x8B3 JUMP JUMPDEST PUSH1 0x1 DUP1 SLOAD SWAP1 POP DUP3 LT PUSH2 0x5D0 JUMPI PUSH1 0x40 MLOAD PUSH32 0x8C379A000000000000000000000000000000000000000000000000000000000 DUP2 MSTORE PUSH1 0x4 ADD PUSH2 0x5C7 SWAP1 PUSH2 0x13A0 JUMP JUMPDEST PUSH1 0x40 MLOAD DUP1 SWAP2 SUB SWAP1 REVERT JUMPDEST PUSH1 0x1 DUP3 DUP2 SLOAD DUP2 LT PUSH2 0x5E4 JUMPI PUSH2 0x5E3 PUSH2 0x13BE JUMP JUMPDEST JUMPDEST SWAP1 PUSH0 MSTORE PUSH1 0x20 PUSH0 KECCAK256 SWAP1 PUSH1 0x6 MUL ADD PUSH1 0x40 MLOAD DUP1 PUSH1 0xC0 ADD PUSH1 0x40 MSTORE SWAP1 DUP2 PUSH0 DUP3 ADD DUP1 SLOAD PUSH2 0x60A SWAP1 PUSH2 0x105A JUMP JUMPDEST DUP1 PUSH1 0x1F ADD PUSH1 0x20 DUP1 SWAP2 DIV MUL PUSH1 0x20 ADD PUSH1 0x40 MLOAD SWAP1 DUP2 ADD PUSH1 0x40 MSTORE DUP1 SWAP3 SWAP2 SWAP1 DUP2 DUP2 MSTORE PUSH1 0x20 ADD DUP3 DUP1 SLOAD PUSH2 0x636 SWAP1 PUSH2 0x105A JUMP JUMPDEST DUP1 ISZERO PUSH2 0x681 JUMPI DUP1 PUSH1 0x1F LT PUSH2 0x658 JUMPI PUSH2 0x100 DUP1 DUP4 SLOAD DIV MUL DUP4 MSTORE SWAP2 PUSH1 0x20 ADD SWAP2 PUSH2 0x681 JUMP JUMPDEST DUP3 ADD SWAP2 SWAP1 PUSH0 MSTORE PUSH1 0x20 PUSH0 KECCAK256 SWAP1 JUMPDEST DUP2 SLOAD DUP2 MSTORE SWAP1 PUSH1 0x1 ADD SWAP1 PUSH1 0x20 ADD DUP1 DUP4 GT PUSH2 0x664 JUMPI DUP3 SWAP1 SUB PUSH1 0x1F AND DUP3 ADD SWAP2 JUMPDEST POP POP POP POP POP DUP2 MSTORE PUSH1 0x20 ADD PUSH1 0x1 DUP3 ADD PUSH0 SWAP1 SLOAD SWAP1 PUSH2 0x100 EXP SWAP1 DIV PUSH1 0xFF AND ISZERO ISZERO ISZERO ISZERO DUP2 MSTORE PUSH1 0x20 ADD PUSH1 0x2 DUP3 ADD SLOAD DUP2 MSTORE PUSH1 0x20 ADD PUSH1 0x3 DUP3 ADD DUP1 SLOAD PUSH2 0x6BE SWAP1 PUSH2 0x105A JUMP JUMPDEST DUP1 PUSH1 0x1F ADD PUSH1 0x20 DUP1 SWAP2 DIV MUL PUSH1 0x20 ADD PUSH1 0x40 MLOAD SWAP1 DUP2 ADD PUSH1 0x40 MSTORE DUP1 SWAP3 SWAP2 SWAP1 DUP2 DUP2 MSTORE PUSH1 0x20 ADD DUP3 DUP1 SLOAD PUSH2 0x6EA SWAP1 PUSH2 0x105A JUMP JUMPDEST DUP1 ISZERO PUSH2 0x735 JUMPI DUP1 PUSH1 0x1F LT PUSH2 0x70C JUMPI PUSH2 0x100 DUP1 DUP4 SLOAD DIV MUL DUP4 MSTORE SWAP2 PUSH1 0x20 ADD SWAP2 PUSH2 0x735 JUMP JUMPDEST DUP3 ADD SWAP2 SWAP1 PUSH0 MSTORE PUSH1 0x20 PUSH0 KECCAK256 SWAP1 JUMPDEST DUP2 SLOAD DUP2 MSTORE SWAP1 PUSH1 0x1 ADD SWAP1 PUSH1 0x20 ADD DUP1 DUP4 GT PUSH2 0x718 JUMPI DUP3 SWAP1 SUB PUSH1 0x1F AND DUP3 ADD SWAP2 JUMPDEST POP POP POP POP POP DUP2 MSTORE PUSH1 0x20 ADD PUSH1 0x4 DUP3 ADD DUP1 SLOAD PUSH2 0x74E SWAP1 PUSH2 0x105A JUMP JUMPDEST DUP1 PUSH1 0x1F ADD PUSH1 0x20 DUP1 SWAP2 DIV MUL PUSH1 0x20 ADD PUSH1 0x40 MLOAD SWAP1 DUP2 ADD PUSH1 0x40 MSTORE DUP1 SWAP3 SWAP2 SWAP1 DUP2 DUP2 MSTORE PUSH1 0x20 ADD DUP3 DUP1 SLOAD PUSH2 0x77A SWAP1 PUSH2 0x105A JUMP JUMPDEST DUP1 ISZERO PUSH2 0x7C5 JUMPI DUP1 PUSH1 0x1F LT PUSH2 0x79C JUMPI PUSH2 0x100 DUP1 DUP4 SLOAD DIV MUL DUP4 MSTORE SWAP2 PUSH1 0x20 ADD SWAP2 PUSH2 0x7C5 JUMP JUMPDEST DUP3 ADD SWAP2 SWAP1 PUSH0 MSTORE PUSH1 0x20 PUSH0 KECCAK256 SWAP1 JUMPDEST DUP2 SLOAD DUP2 MSTORE SWAP1 PUSH1 0x1 ADD SWAP1 PUSH1 0x20 ADD DUP1 DUP4 GT PUSH2 0x7A8 JUMPI DUP3 SWAP1 SUB PUSH1 0x1F AND DUP3 ADD SWAP2 JUMPDEST POP POP POP POP POP DUP2 MSTORE PUSH1 0x20 ADD PUSH1 0x5 DUP3 ADD SLOAD DUP2 MSTORE POP POP SWAP1 POP SWAP2 SWAP1 POP JUMP JUMPDEST PUSH0 DUP1 DUP7 DUP2 MSTORE PUSH1 0x20 ADD SWAP1 DUP2 MSTORE PUSH1 0x20 ADD PUSH0 KECCAK256 PUSH0 DUP6 DUP2 MSTORE PUSH1 0x20 ADD SWAP1 DUP2 MSTORE PUSH1 0x20 ADD PUSH0 KECCAK256 PUSH1 0x40 MLOAD DUP1 PUSH1 0x80 ADD PUSH1 0x40 MSTORE DUP1 DUP7 DUP2 MSTORE PUSH1 0x20 ADD DUP6 DUP2 MSTORE PUSH1 0x20 ADD DUP5 DUP2 MSTORE PUSH1 0x20 ADD DUP4 DUP2 MSTORE POP SWAP1 DUP1 PUSH1 0x1 DUP2 SLOAD ADD DUP1 DUP3 SSTORE DUP1 SWAP2 POP POP PUSH1 0x1 SWAP1 SUB SWAP1 PUSH0 MSTORE PUSH1 0x20 PUSH0 KECCAK256 SWAP1 PUSH1 0x4 MUL ADD PUSH0 SWAP1 SWAP2 SWAP1 SWAP2 SWAP1 SWAP2 POP PUSH0 DUP3 ADD MLOAD DUP2 PUSH0 ADD SSTORE PUSH1 0x20 DUP3 ADD MLOAD DUP2 PUSH1 0x1 ADD SSTORE PUSH1 0x40 DUP3 ADD MLOAD DUP2 PUSH1 0x2 ADD SSTORE PUSH1 0x60 DUP3 ADD MLOAD DUP2 PUSH1 0x3 ADD SSTORE POP POP PUSH32 0xE920C436C1F1B04EEC68B8CDEB48D96C4D5D95F3CC10D4FD0A21978585C23E09 DUP6 DUP6 DUP6 DUP6 DUP6 PUSH1 0x40 MLOAD PUSH2 0x8A4 SWAP6 SWAP5 SWAP4 SWAP3 SWAP2 SWAP1 PUSH2 0x13EB JUMP JUMPDEST PUSH1 0x40 MLOAD DUP1 SWAP2 SUB SWAP1 LOG1 POP POP POP POP POP JUMP JUMPDEST PUSH1 0x40 MLOAD DUP1 PUSH1 0xC0 ADD PUSH1 0x40 MSTORE DUP1 PUSH1 0x60 DUP2 MSTORE PUSH1 0x20 ADD PUSH0 ISZERO ISZERO DUP2 MSTORE PUSH1 0x20 ADD PUSH0 DUP2 MSTORE PUSH1 0x20 ADD PUSH1 0x60 DUP2 MSTORE PUSH1 0x20 ADD PUSH1 0x60 DUP2 MSTORE PUSH1 0x20 ADD PUSH0 DUP2 MSTORE POP SWAP1 JUMP JUMPDEST PUSH0 PUSH1 0x40 MLOAD SWAP1 POP SWAP1 JUMP JUMPDEST PUSH0 DUP1 REVERT JUMPDEST PUSH0 DUP1 REVERT JUMPDEST PUSH0 DUP2 SWAP1 POP SWAP2 SWAP1 POP JUMP JUMPDEST PUSH2 0x90B DUP2 PUSH2 0x8F9 JUMP JUMPDEST DUP2 EQ PUSH2 0x915 JUMPI PUSH0 DUP1 REVERT JUMPDEST POP JUMP JUMPDEST PUSH0 DUP2 CALLDATALOAD SWAP1 POP PUSH2 0x926 DUP2 PUSH2 0x902 JUMP JUMPDEST SWAP3 SWAP2 POP POP JUMP JUMPDEST PUSH0 DUP1 PUSH0 PUSH1 0x60 DUP5 DUP7 SUB SLT ISZERO PUSH2 0x943 JUMPI PUSH2 0x942 PUSH2 0x8F1 JUMP JUMPDEST JUMPDEST PUSH0 PUSH2 0x950 DUP7 DUP3 DUP8 ADD PUSH2 0x918 JUMP JUMPDEST SWAP4 POP POP PUSH1 0x20 PUSH2 0x961 DUP7 DUP3 DUP8 ADD PUSH2 0x918 JUMP JUMPDEST SWAP3 POP POP PUSH1 0x40 PUSH2 0x972 DUP7 DUP3 DUP8 ADD PUSH2 0x918 JUMP JUMPDEST SWAP2 POP POP SWAP3 POP SWAP3 POP SWAP3 JUMP JUMPDEST PUSH2 0x985 DUP2 PUSH2 0x8F9 JUMP JUMPDEST DUP3 MSTORE POP POP JUMP JUMPDEST PUSH0 PUSH1 0x80 DUP3 ADD SWAP1 POP PUSH2 0x99E PUSH0 DUP4 ADD DUP8 PUSH2 0x97C JUMP JUMPDEST PUSH2 0x9AB PUSH1 0x20 DUP4 ADD DUP7 PUSH2 0x97C JUMP JUMPDEST PUSH2 0x9B8 PUSH1 0x40 DUP4 ADD DUP6 PUSH2 0x97C JUMP JUMPDEST PUSH2 0x9C5 PUSH1 0x60 DUP4 ADD DUP5 PUSH2 0x97C JUMP JUMPDEST SWAP6 SWAP5 POP POP POP POP POP JUMP JUMPDEST PUSH0 PUSH1 0x20 DUP3 DUP5 SUB SLT ISZERO PUSH2 0x9E3 JUMPI PUSH2 0x9E2 PUSH2 0x8F1 JUMP JUMPDEST JUMPDEST PUSH0 PUSH2 0x9F0 DUP5 DUP3 DUP6 ADD PUSH2 0x918 JUMP JUMPDEST SWAP2 POP POP SWAP3 SWAP2 POP POP JUMP JUMPDEST PUSH0 DUP2 MLOAD SWAP1 POP SWAP2 SWAP1 POP JUMP JUMPDEST PUSH0 DUP3 DUP3 MSTORE PUSH1 0x20 DUP3 ADD SWAP1 POP SWAP3 SWAP2 POP POP JUMP JUMPDEST DUP3 DUP2 DUP4 MCOPY PUSH0 DUP4 DUP4 ADD MSTORE POP POP POP JUMP JUMPDEST PUSH0 PUSH1 0x1F NOT PUSH1 0x1F DUP4 ADD AND SWAP1 POP SWAP2 SWAP1 POP JUMP JUMPDEST PUSH0 PUSH2 0xA3B DUP3 PUSH2 0x9F9 JUMP JUMPDEST PUSH2 0xA45 DUP2 DUP6 PUSH2 0xA03 JUMP JUMPDEST SWAP4 POP PUSH2 0xA55 DUP2 DUP6 PUSH1 0x20 DUP7 ADD PUSH2 0xA13 JUMP JUMPDEST PUSH2 0xA5E DUP2 PUSH2 0xA21 JUMP JUMPDEST DUP5 ADD SWAP2 POP POP SWAP3 SWAP2 POP POP JUMP JUMPDEST PUSH0 DUP2 ISZERO ISZERO SWAP1 POP SWAP2 SWAP1 POP JUMP JUMPDEST PUSH2 0xA7D DUP2 PUSH2 0xA69 JUMP JUMPDEST DUP3 MSTORE POP POP JUMP JUMPDEST PUSH0 PUSH1 0xC0 DUP3 ADD SWAP1 POP DUP2 DUP2 SUB PUSH0 DUP4 ADD MSTORE PUSH2 0xA9B DUP2 DUP10 PUSH2 0xA31 JUMP JUMPDEST SWAP1 POP PUSH2 0xAAA PUSH1 0x20 DUP4 ADD DUP9 PUSH2 0xA74 JUMP JUMPDEST PUSH2 0xAB7 PUSH1 0x40 DUP4 ADD DUP8 PUSH2 0x97C JUMP JUMPDEST DUP2 DUP2 SUB PUSH1 0x60 DUP4 ADD MSTORE PUSH2 0xAC9 DUP2 DUP7 PUSH2 0xA31 JUMP JUMPDEST SWAP1 POP DUP2 DUP2 SUB PUSH1 0x80 DUP4 ADD MSTORE PUSH2 0xADD DUP2 DUP6 PUSH2 0xA31 JUMP JUMPDEST SWAP1 POP PUSH2 0xAEC PUSH1 0xA0 DUP4 ADD DUP5 PUSH2 0x97C JUMP JUMPDEST SWAP8 SWAP7 POP POP POP POP POP POP POP JUMP JUMPDEST PUSH0 DUP1 REVERT JUMPDEST PUSH0 DUP1 REVERT JUMPDEST PUSH32 0x4E487B7100000000000000000000000000000000000000000000000000000000 PUSH0 MSTORE PUSH1 0x41 PUSH1 0x4 MSTORE PUSH1 0x24 PUSH0 REVERT JUMPDEST PUSH2 0xB35 DUP3 PUSH2 0xA21 JUMP JUMPDEST DUP2 ADD DUP2 DUP2 LT PUSH8 0xFFFFFFFFFFFFFFFF DUP3 GT OR ISZERO PUSH2 0xB54 JUMPI PUSH2 0xB53 PUSH2 0xAFF JUMP JUMPDEST JUMPDEST DUP1 PUSH1 0x40 MSTORE POP POP POP JUMP JUMPDEST PUSH0 PUSH2 0xB66 PUSH2 0x8E8 JUMP JUMPDEST SWAP1 POP PUSH2 0xB72 DUP3 DUP3 PUSH2 0xB2C JUMP JUMPDEST SWAP2 SWAP1 POP JUMP JUMPDEST PUSH0 PUSH8 0xFFFFFFFFFFFFFFFF DUP3 GT ISZERO PUSH2 0xB91 JUMPI PUSH2 0xB90 PUSH2 0xAFF JUMP JUMPDEST JUMPDEST PUSH2 0xB9A DUP3 PUSH2 0xA21 JUMP JUMPDEST SWAP1 POP PUSH1 0x20 DUP2 ADD SWAP1 POP SWAP2 SWAP1 POP JUMP JUMPDEST DUP3 DUP2 DUP4 CALLDATACOPY PUSH0 DUP4 DUP4 ADD MSTORE POP POP POP JUMP JUMPDEST PUSH0 PUSH2 0xBC7 PUSH2 0xBC2 DUP5 PUSH2 0xB77 JUMP JUMPDEST PUSH2 0xB5D JUMP JUMPDEST SWAP1 POP DUP3 DUP2 MSTORE PUSH1 0x20 DUP2 ADD DUP5 DUP5 DUP5 ADD GT ISZERO PUSH2 0xBE3 JUMPI PUSH2 0xBE2 PUSH2 0xAFB JUMP JUMPDEST JUMPDEST PUSH2 0xBEE DUP5 DUP3 DUP6 PUSH2 0xBA7 JUMP JUMPDEST POP SWAP4 SWAP3 POP POP POP JUMP JUMPDEST PUSH0 DUP3 PUSH1 0x1F DUP4 ADD SLT PUSH2 0xC0A JUMPI PUSH2 0xC09 PUSH2 0xAF7 JUMP JUMPDEST JUMPDEST DUP2 CALLDATALOAD PUSH2 0xC1A DUP5 DUP3 PUSH1 0x20 DUP7 ADD PUSH2 0xBB5 JUMP JUMPDEST SWAP2 POP POP SWAP3 SWAP2 POP POP JUMP JUMPDEST PUSH2 0xC2C DUP2 PUSH2 0xA69 JUMP JUMPDEST DUP2 EQ PUSH2 0xC36 JUMPI PUSH0 DUP1 REVERT JUMPDEST POP JUMP JUMPDEST PUSH0 DUP2 CALLDATALOAD SWAP1 POP PUSH2 0xC47 DUP2 PUSH2 0xC23 JUMP JUMPDEST SWAP3 SWAP2 POP POP JUMP JUMPDEST PUSH0 DUP1 PUSH0 DUP1 PUSH0 DUP1 PUSH1 0xC0 DUP8 DUP10 SUB SLT ISZERO PUSH2 0xC67 JUMPI PUSH2 0xC66 PUSH2 0x8F1 JUMP JUMPDEST JUMPDEST PUSH0 DUP8 ADD CALLDATALOAD PUSH8 0xFFFFFFFFFFFFFFFF DUP2 GT ISZERO PUSH2 0xC84 JUMPI PUSH2 0xC83 PUSH2 0x8F5 JUMP JUMPDEST JUMPDEST PUSH2 0xC90 DUP10 DUP3 DUP11 ADD PUSH2 0xBF6 JUMP JUMPDEST SWAP7 POP POP PUSH1 0x20 PUSH2 0xCA1 DUP10 DUP3 DUP11 ADD PUSH2 0xC39 JUMP JUMPDEST SWAP6 POP POP PUSH1 0x40 PUSH2 0xCB2 DUP10 DUP3 DUP11 ADD PUSH2 0x918 JUMP JUMPDEST SWAP5 POP POP PUSH1 0x60 DUP8 ADD CALLDATALOAD PUSH8 0xFFFFFFFFFFFFFFFF DUP2 GT ISZERO PUSH2 0xCD3 JUMPI PUSH2 0xCD2 PUSH2 0x8F5 JUMP JUMPDEST JUMPDEST PUSH2 0xCDF DUP10 DUP3 DUP11 ADD PUSH2 0xBF6 JUMP JUMPDEST SWAP4 POP POP PUSH1 0x80 DUP8 ADD CALLDATALOAD PUSH8 0xFFFFFFFFFFFFFFFF DUP2 GT ISZERO PUSH2 0xD00 JUMPI PUSH2 0xCFF PUSH2 0x8F5 JUMP JUMPDEST JUMPDEST PUSH2 0xD0C DUP10 DUP3 DUP11 ADD PUSH2 0xBF6 JUMP JUMPDEST SWAP3 POP POP PUSH1 0xA0 PUSH2 0xD1D DUP10 DUP3 DUP11 ADD PUSH2 0x918 JUMP JUMPDEST SWAP2 POP POP SWAP3 SWAP6 POP SWAP3 SWAP6 POP SWAP3 SWAP6 JUMP JUMPDEST PUSH0 PUSH1 0x20 DUP3 ADD SWAP1 POP PUSH2 0xD3D PUSH0 DUP4 ADD DUP5 PUSH2 0x97C JUMP JUMPDEST SWAP3 SWAP2 POP POP JUMP JUMPDEST PUSH0 DUP1 PUSH1 0x40 DUP4 DUP6 SUB SLT ISZERO PUSH2 0xD59 JUMPI PUSH2 0xD58 PUSH2 0x8F1 JUMP JUMPDEST JUMPDEST PUSH0 PUSH2 0xD66 DUP6 DUP3 DUP7 ADD PUSH2 0x918 JUMP JUMPDEST SWAP3 POP POP PUSH1 0x20 PUSH2 0xD77 DUP6 DUP3 DUP7 ADD PUSH2 0x918 JUMP JUMPDEST SWAP2 POP POP SWAP3 POP SWAP3 SWAP1 POP JUMP JUMPDEST PUSH0 DUP2 MLOAD SWAP1 POP SWAP2 SWAP1 POP JUMP JUMPDEST PUSH0 DUP3 DUP3 MSTORE PUSH1 0x20 DUP3 ADD SWAP1 POP SWAP3 SWAP2 POP POP JUMP JUMPDEST PUSH0 DUP2 SWAP1 POP PUSH1 0x20 DUP3 ADD SWAP1 POP SWAP2 SWAP1 POP JUMP JUMPDEST PUSH2 0xDB3 DUP2 PUSH2 0x8F9 JUMP JUMPDEST DUP3 MSTORE POP POP JUMP JUMPDEST PUSH1 0x80 DUP3 ADD PUSH0 DUP3 ADD MLOAD PUSH2 0xDCD PUSH0 DUP6 ADD DUP3 PUSH2 0xDAA JUMP JUMPDEST POP PUSH1 0x20 DUP3 ADD MLOAD PUSH2 0xDE0 PUSH1 0x20 DUP6 ADD DUP3 PUSH2 0xDAA JUMP JUMPDEST POP PUSH1 0x40 DUP3 ADD MLOAD PUSH2 0xDF3 PUSH1 0x40 DUP6 ADD DUP3 PUSH2 0xDAA JUMP JUMPDEST POP PUSH1 0x60 DUP3 ADD MLOAD PUSH2 0xE06 PUSH1 0x60 DUP6 ADD DUP3 PUSH2 0xDAA JUMP JUMPDEST POP POP POP POP JUMP JUMPDEST PUSH0 PUSH2 0xE17 DUP4 DUP4 PUSH2 0xDB9 JUMP JUMPDEST PUSH1 0x80 DUP4 ADD SWAP1 POP SWAP3 SWAP2 POP POP JUMP JUMPDEST PUSH0 PUSH1 0x20 DUP3 ADD SWAP1 POP SWAP2 SWAP1 POP JUMP JUMPDEST PUSH0 PUSH2 0xE39 DUP3 PUSH2 0xD81 JUMP JUMPDEST PUSH2 0xE43 DUP2 DUP6 PUSH2 0xD8B JUMP JUMPDEST SWAP4 POP PUSH2 0xE4E DUP4 PUSH2 0xD9B JUMP JUMPDEST DUP1 PUSH0 JUMPDEST DUP4 DUP2 LT ISZERO PUSH2 0xE7E JUMPI DUP2 MLOAD PUSH2 0xE65 DUP9 DUP3 PUSH2 0xE0C JUMP JUMPDEST SWAP8 POP PUSH2 0xE70 DUP4 PUSH2 0xE23 JUMP JUMPDEST SWAP3 POP POP PUSH1 0x1 DUP2 ADD SWAP1 POP PUSH2 0xE51 JUMP JUMPDEST POP DUP6 SWAP4 POP POP POP POP SWAP3 SWAP2 POP POP JUMP JUMPDEST PUSH0 PUSH1 0x20 DUP3 ADD SWAP1 POP DUP2 DUP2 SUB PUSH0 DUP4 ADD MSTORE PUSH2 0xEA3 DUP2 DUP5 PUSH2 0xE2F JUMP JUMPDEST SWAP1 POP SWAP3 SWAP2 POP POP JUMP JUMPDEST PUSH0 DUP3 DUP3 MSTORE PUSH1 0x20 DUP3 ADD SWAP1 POP SWAP3 SWAP2 POP POP JUMP JUMPDEST PUSH0 PUSH2 0xEC5 DUP3 PUSH2 0x9F9 JUMP JUMPDEST PUSH2 0xECF DUP2 DUP6 PUSH2 0xEAB JUMP JUMPDEST SWAP4 POP PUSH2 0xEDF DUP2 DUP6 PUSH1 0x20 DUP7 ADD PUSH2 0xA13 JUMP JUMPDEST PUSH2 0xEE8 DUP2 PUSH2 0xA21 JUMP JUMPDEST DUP5 ADD SWAP2 POP POP SWAP3 SWAP2 POP POP JUMP JUMPDEST PUSH2 0xEFC DUP2 PUSH2 0xA69 JUMP JUMPDEST DUP3 MSTORE POP POP JUMP JUMPDEST PUSH0 PUSH1 0xC0 DUP4 ADD PUSH0 DUP4 ADD MLOAD DUP5 DUP3 SUB PUSH0 DUP7 ADD MSTORE PUSH2 0xF1C DUP3 DUP3 PUSH2 0xEBB JUMP JUMPDEST SWAP2 POP POP PUSH1 0x20 DUP4 ADD MLOAD PUSH2 0xF31 PUSH1 0x20 DUP7 ADD DUP3 PUSH2 0xEF3 JUMP JUMPDEST POP PUSH1 0x40 DUP4 ADD MLOAD PUSH2 0xF44 PUSH1 0x40 DUP7 ADD DUP3 PUSH2 0xDAA JUMP JUMPDEST POP PUSH1 0x60 DUP4 ADD MLOAD DUP5 DUP3 SUB PUSH1 0x60 DUP7 ADD MSTORE PUSH2 0xF5C DUP3 DUP3 PUSH2 0xEBB JUMP JUMPDEST SWAP2 POP POP PUSH1 0x80 DUP4 ADD MLOAD DUP5 DUP3 SUB PUSH1 0x80 DUP7 ADD MSTORE PUSH2 0xF76 DUP3 DUP3 PUSH2 0xEBB JUMP JUMPDEST SWAP2 POP POP PUSH1 0xA0 DUP4 ADD MLOAD PUSH2 0xF8B PUSH1 0xA0 DUP7 ADD DUP3 PUSH2 0xDAA JUMP JUMPDEST POP DUP1 SWAP2 POP POP SWAP3 SWAP2 POP POP JUMP JUMPDEST PUSH0 PUSH1 0x20 DUP3 ADD SWAP1 POP DUP2 DUP2 SUB PUSH0 DUP4 ADD MSTORE PUSH2 0xFAE DUP2 DUP5 PUSH2 0xF02 JUMP JUMPDEST SWAP1 POP SWAP3 SWAP2 POP POP JUMP JUMPDEST PUSH0 DUP1 PUSH0 DUP1 PUSH0 PUSH1 0xA0 DUP7 DUP9 SUB SLT ISZERO PUSH2 0xFCF JUMPI PUSH2 0xFCE PUSH2 0x8F1 JUMP JUMPDEST JUMPDEST PUSH0 PUSH2 0xFDC DUP9 DUP3 DUP10 ADD PUSH2 0x918 JUMP JUMPDEST SWAP6 POP POP PUSH1 0x20 PUSH2 0xFED DUP9 DUP3 DUP10 ADD PUSH2 0x918 JUMP JUMPDEST SWAP5 POP POP PUSH1 0x40 PUSH2 0xFFE DUP9 DUP3 DUP10 ADD PUSH2 0x918 JUMP JUMPDEST SWAP4 POP POP PUSH1 0x60 PUSH2 0x100F DUP9 DUP3 DUP10 ADD PUSH2 0x918 JUMP JUMPDEST SWAP3 POP POP PUSH1 0x80 PUSH2 0x1020 DUP9 DUP3 DUP10 ADD PUSH2 0x918 JUMP JUMPDEST SWAP2 POP POP SWAP3 SWAP6 POP SWAP3 SWAP6 SWAP1 SWAP4 POP JUMP JUMPDEST PUSH32 0x4E487B7100000000000000000000000000000000000000000000000000000000 PUSH0 MSTORE PUSH1 0x22 PUSH1 0x4 MSTORE PUSH1 0x24 PUSH0 REVERT JUMPDEST PUSH0 PUSH1 0x2 DUP3 DIV SWAP1 POP PUSH1 0x1 DUP3 AND DUP1 PUSH2 0x1071 JUMPI PUSH1 0x7F DUP3 AND SWAP2 POP JUMPDEST PUSH1 0x20 DUP3 LT DUP2 SUB PUSH2 0x1084 JUMPI PUSH2 0x1083 PUSH2 0x102D JUMP JUMPDEST JUMPDEST POP SWAP2 SWAP1 POP JUMP JUMPDEST PUSH0 DUP2 SWAP1 POP DUP2 PUSH0 MSTORE PUSH1 0x20 PUSH0 KECCAK256 SWAP1 POP SWAP2 SWAP1 POP JUMP JUMPDEST PUSH0 PUSH1 0x20 PUSH1 0x1F DUP4 ADD DIV SWAP1 POP SWAP2 SWAP1 POP JUMP JUMPDEST PUSH0 DUP3 DUP3 SHL SWAP1 POP SWAP3 SWAP2 POP POP JUMP JUMPDEST PUSH0 PUSH1 0x8 DUP4 MUL PUSH2 0x10E6 PUSH32 0xFFFFFFFFFFFFFFFFFFFFFFFFFFFFFFFFFFFFFFFFFFFFFFFFFFFFFFFFFFFFFFFF DUP3 PUSH2 0x10AB JUMP JUMPDEST PUSH2 0x10F0 DUP7 DUP4 PUSH2 0x10AB JUMP JUMPDEST SWAP6 POP DUP1 NOT DUP5 AND SWAP4 POP DUP1 DUP7 AND DUP5 OR SWAP3 POP POP POP SWAP4 SWAP3 POP POP POP JUMP JUMPDEST PUSH0 DUP2 SWAP1 POP SWAP2 SWAP1 POP JUMP JUMPDEST PUSH0 PUSH2 0x112B PUSH2 0x1126 PUSH2 0x1121 DUP5 PUSH2 0x8F9 JUMP JUMPDEST PUSH2 0x1108 JUMP JUMPDEST PUSH2 0x8F9 JUMP JUMPDEST SWAP1 POP SWAP2 SWAP1 POP JUMP JUMPDEST PUSH0 DUP2 SWAP1 POP SWAP2 SWAP1 POP JUMP JUMPDEST PUSH2 0x1144 DUP4 PUSH2 0x1111 JUMP JUMPDEST PUSH2 0x1158 PUSH2 0x1150 DUP3 PUSH2 0x1132 JUMP JUMPDEST DUP5 DUP5 SLOAD PUSH2 0x10B7 JUMP JUMPDEST DUP3 SSTORE POP POP POP POP JUMP JUMPDEST PUSH0 SWAP1 JUMP JUMPDEST PUSH2 0x116C PUSH2 0x1160 JUMP JUMPDEST PUSH2 0x1177 DUP2 DUP5 DUP5 PUSH2 0x113B JUMP JUMPDEST POP POP POP JUMP JUMPDEST JUMPDEST DUP2 DUP2 LT ISZERO PUSH2 0x119A JUMPI PUSH2 0x118F PUSH0 DUP3 PUSH2 0x1164 JUMP JUMPDEST PUSH1 0x1 DUP2 ADD SWAP1 POP PUSH2 0x117D JUMP JUMPDEST POP POP JUMP JUMPDEST PUSH1 0x1F DUP3 GT ISZERO PUSH2 0x11DF JUMPI PUSH2 0x11B0 DUP2 PUSH2 0x108A JUMP JUMPDEST PUSH2 0x11B9 DUP5 PUSH2 0x109C JUMP JUMPDEST DUP2 ADD PUSH1 0x20 DUP6 LT ISZERO PUSH2 0x11C8 JUMPI DUP2 SWAP1 POP JUMPDEST PUSH2 0x11DC PUSH2 0x11D4 DUP6 PUSH2 0x109C JUMP JUMPDEST DUP4 ADD DUP3 PUSH2 0x117C JUMP JUMPDEST POP POP JUMPDEST POP POP POP JUMP JUMPDEST PUSH0 DUP3 DUP3 SHR SWAP1 POP SWAP3 SWAP2 POP POP JUMP JUMPDEST PUSH0 PUSH2 0x11FF PUSH0 NOT DUP5 PUSH1 0x8 MUL PUSH2 0x11E4 JUMP JUMPDEST NOT DUP1 DUP4 AND SWAP2 POP POP SWAP3 SWAP2 POP POP JUMP JUMPDEST PUSH0 PUSH2 0x1217 DUP4 DUP4 PUSH2 0x11F0 JUMP JUMPDEST SWAP2 POP DUP3 PUSH1 0x2 MUL DUP3 OR SWAP1 POP SWAP3 SWAP2 POP POP JUMP JUMPDEST PUSH2 0x1230 DUP3 PUSH2 0x9F9 JUMP JUMPDEST PUSH8 0xFFFFFFFFFFFFFFFF DUP2 GT ISZERO PUSH2 0x1249 JUMPI PUSH2 0x1248 PUSH2 0xAFF JUMP JUMPDEST JUMPDEST PUSH2 0x1253 DUP3 SLOAD PUSH2 0x105A JUMP JUMPDEST PUSH2 0x125E DUP3 DUP3 DUP6 PUSH2 0x119E JUMP JUMPDEST PUSH0 PUSH1 0x20 SWAP1 POP PUSH1 0x1F DUP4 GT PUSH1 0x1 DUP2 EQ PUSH2 0x128F JUMPI PUSH0 DUP5 ISZERO PUSH2 0x127D JUMPI DUP3 DUP8 ADD MLOAD SWAP1 POP JUMPDEST PUSH2 0x1287 DUP6 DUP3 PUSH2 0x120C JUMP JUMPDEST DUP7 SSTORE POP PUSH2 0x12EE JUMP JUMPDEST PUSH1 0x1F NOT DUP5 AND PUSH2 0x129D DUP7 PUSH2 0x108A JUMP JUMPDEST PUSH0 JUMPDEST DUP3 DUP2 LT ISZERO PUSH2 0x12C4 JUMPI DUP5 DUP10 ADD MLOAD DUP3 SSTORE PUSH1 0x1 DUP3 ADD SWAP2 POP PUSH1 0x20 DUP6 ADD SWAP5 POP PUSH1 0x20 DUP2 ADD SWAP1 POP PUSH2 0x129F JUMP JUMPDEST DUP7 DUP4 LT ISZERO PUSH2 0x12E1 JUMPI DUP5 DUP10 ADD MLOAD PUSH2 0x12DD PUSH1 0x1F DUP10 AND DUP3 PUSH2 0x11F0 JUMP JUMPDEST DUP4 SSTORE POP JUMPDEST PUSH1 0x1 PUSH1 0x2 DUP9 MUL ADD DUP9 SSTORE POP POP POP JUMPDEST POP POP POP POP POP POP JUMP JUMPDEST PUSH32 0x4E487B7100000000000000000000000000000000000000000000000000000000 PUSH0 MSTORE PUSH1 0x11 PUSH1 0x4 MSTORE PUSH1 0x24 PUSH0 REVERT JUMPDEST PUSH0 PUSH2 0x132D DUP3 PUSH2 0x8F9 JUMP JUMPDEST SWAP2 POP PUSH2 0x1338 DUP4 PUSH2 0x8F9 JUMP JUMPDEST SWAP3 POP DUP3 DUP3 SUB SWAP1 POP DUP2 DUP2 GT ISZERO PUSH2 0x1350 JUMPI PUSH2 0x134F PUSH2 0x12F6 JUMP JUMPDEST JUMPDEST SWAP3 SWAP2 POP POP JUMP JUMPDEST PUSH32 0x5265636569707420646F6573206E6F742065786973742E000000000000000000 PUSH0 DUP3 ADD MSTORE POP JUMP JUMPDEST PUSH0 PUSH2 0x138A PUSH1 0x17 DUP4 PUSH2 0xA03 JUMP JUMPDEST SWAP2 POP PUSH2 0x1395 DUP3 PUSH2 0x1356 JUMP JUMPDEST PUSH1 0x20 DUP3 ADD SWAP1 POP SWAP2 SWAP1 POP JUMP JUMPDEST PUSH0 PUSH1 0x20 DUP3 ADD SWAP1 POP DUP2 DUP2 SUB PUSH0 DUP4 ADD MSTORE PUSH2 0x13B7 DUP2 PUSH2 0x137E JUMP JUMPDEST SWAP1 POP SWAP2 SWAP1 POP JUMP JUMPDEST PUSH32 0x4E487B7100000000000000000000000000000000000000000000000000000000 PUSH0 MSTORE PUSH1 0x32 PUSH1 0x4 MSTORE PUSH1 0x24 PUSH0 REVERT JUMPDEST PUSH0 PUSH1 0xA0 DUP3 ADD SWAP1 POP PUSH2 0x13FE PUSH0 DUP4 ADD DUP9 PUSH2 0x97C JUMP JUMPDEST PUSH2 0x140B PUSH1 0x20 DUP4 ADD DUP8 PUSH2 0x97C JUMP JUMPDEST PUSH2 0x1418 PUSH1 0x40 DUP4 ADD DUP7 PUSH2 0x97C JUMP JUMPDEST PUSH2 0x1425 PUSH1 0x60 DUP4 ADD DUP6 PUSH2 0x97C JUMP JUMPDEST PUSH2 0x1432 PUSH1 0x80 DUP4 ADD DUP5 PUSH2 0x97C JUMP JUMPDEST SWAP7 SWAP6 POP POP POP POP POP POP JUMP INVALID LOG2 PUSH5 0x6970667358 0x22 SLT KECCAK256 PUSH7 0x37B7F7712EB1A9 0xB4 0xBF PUSH18 0x21C2D69E53B90F0FC36E75E7C111081A6040 GAS 0xDC 0xEC PUSH5 0x736F6C6343 STOP ADDMOD NOT STOP CALLER "
	},
	"abi": [
		{
			"anonymous": false,
			"inputs": [
				{
					"indexed": false,
					"internalType": "uint256",
					"name": "memberId",
					"type": "uint256"
				},
				{
					"indexed": false,
					"internalType": "uint256",
					"name": "timestamp",
					"type": "uint256"
				},
				{
					"indexed": false,
					"internalType": "uint256",
					"name": "steps",
					"type": "uint256"
				},
				{
					"indexed": false,
					"internalType": "uint256",
					"name": "duration",
					"type": "uint256"
				},
				{
					"indexed": false,
					"internalType": "uint256",
					"name": "distance",
					"type": "uint256"
				}
			],
			"name": "ExerciseDataAdded",
			"type": "event"
		},
		{
			"anonymous": false,
			"inputs": [
				{
					"indexed": true,
					"internalType": "uint256",
					"name": "receiptId",
					"type": "uint256"
				},
				{
					"indexed": false,
					"internalType": "string",
					"name": "walletType",
					"type": "string"
				},
				{
					"indexed": false,
					"internalType": "bool",
					"name": "operator",
					"type": "bool"
				},
				{
					"indexed": false,
					"internalType": "uint256",
					"name": "price",
					"type": "uint256"
				},
				{
					"indexed": false,
					"internalType": "string",
					"name": "description",
					"type": "string"
				},
				{
					"indexed": false,
					"internalType": "string",
					"name": "createdAt",
					"type": "string"
				},
				{
					"indexed": false,
					"internalType": "uint256",
					"name": "memberId",
					"type": "uint256"
				}
			],
			"name": "ReceiptAdded",
			"type": "event"
		},
		{
			"inputs": [
				{
					"internalType": "uint256",
					"name": "_memberId",
					"type": "uint256"
				},
				{
					"internalType": "uint256",
					"name": "_timestamp",
					"type": "uint256"
				},
				{
					"internalType": "uint256",
					"name": "_steps",
					"type": "uint256"
				},
				{
					"internalType": "uint256",
					"name": "_duration",
					"type": "uint256"
				},
				{
					"internalType": "uint256",
					"name": "_distance",
					"type": "uint256"
				}
			],
			"name": "addExerciseData",
			"outputs": [],
			"stateMutability": "nonpayable",
			"type": "function"
		},
		{
			"inputs": [
				{
					"internalType": "string",
					"name": "_walletType",
					"type": "string"
				},
				{
					"internalType": "bool",
					"name": "_operator",
					"type": "bool"
				},
				{
					"internalType": "uint256",
					"name": "_price",
					"type": "uint256"
				},
				{
					"internalType": "string",
					"name": "_description",
					"type": "string"
				},
				{
					"internalType": "string",
					"name": "_createdAt",
					"type": "string"
				},
				{
					"internalType": "uint256",
					"name": "_memberId",
					"type": "uint256"
				}
			],
			"name": "addReceipt",
			"outputs": [
				{
					"internalType": "uint256",
					"name": "",
					"type": "uint256"
				}
			],
			"stateMutability": "nonpayable",
			"type": "function"
		},
		{
			"inputs": [
				{
					"internalType": "uint256",
					"name": "",
					"type": "uint256"
				},
				{
					"internalType": "uint256",
					"name": "",
					"type": "uint256"
				},
				{
					"internalType": "uint256",
					"name": "",
					"type": "uint256"
				}
			],
			"name": "exerciseRecordsByTimestamp",
			"outputs": [
				{
					"internalType": "uint256",
					"name": "timestamp",
					"type": "uint256"
				},
				{
					"internalType": "uint256",
					"name": "steps",
					"type": "uint256"
				},
				{
					"internalType": "uint256",
					"name": "duration",
					"type": "uint256"
				},
				{
					"internalType": "uint256",
					"name": "distance",
					"type": "uint256"
				}
			],
			"stateMutability": "view",
			"type": "function"
		},
		{
			"inputs": [
				{
					"internalType": "uint256",
					"name": "_memberId",
					"type": "uint256"
				},
				{
					"internalType": "uint256",
					"name": "_timestamp",
					"type": "uint256"
				}
			],
			"name": "getExerciseDataByTimestamp",
			"outputs": [
				{
					"components": [
						{
							"internalType": "uint256",
							"name": "timestamp",
							"type": "uint256"
						},
						{
							"internalType": "uint256",
							"name": "steps",
							"type": "uint256"
						},
						{
							"internalType": "uint256",
							"name": "duration",
							"type": "uint256"
						},
						{
							"internalType": "uint256",
							"name": "distance",
							"type": "uint256"
						}
					],
					"internalType": "struct WalkWalk.ExerciseData[]",
					"name": "",
					"type": "tuple[]"
				}
			],
			"stateMutability": "view",
			"type": "function"
		},
		{
			"inputs": [
				{
					"internalType": "uint256",
					"name": "_receiptId",
					"type": "uint256"
				}
			],
			"name": "getReceipt",
			"outputs": [
				{
					"components": [
						{
							"internalType": "string",
							"name": "walletType",
							"type": "string"
						},
						{
							"internalType": "bool",
							"name": "operator",
							"type": "bool"
						},
						{
							"internalType": "uint256",
							"name": "price",
							"type": "uint256"
						},
						{
							"internalType": "string",
							"name": "description",
							"type": "string"
						},
						{
							"internalType": "string",
							"name": "createdAt",
							"type": "string"
						},
						{
							"internalType": "uint256",
							"name": "memberId",
							"type": "uint256"
						}
					],
					"internalType": "struct WalkWalk.Receipt",
					"name": "",
					"type": "tuple"
				}
			],
			"stateMutability": "view",
			"type": "function"
		},
		{
			"inputs": [
				{
					"internalType": "uint256",
					"name": "",
					"type": "uint256"
				}
			],
			"name": "receipts",
			"outputs": [
				{
					"internalType": "string",
					"name": "walletType",
					"type": "string"
				},
				{
					"internalType": "bool",
					"name": "operator",
					"type": "bool"
				},
				{
					"internalType": "uint256",
					"name": "price",
					"type": "uint256"
				},
				{
					"internalType": "string",
					"name": "description",
					"type": "string"
				},
				{
					"internalType": "string",
					"name": "createdAt",
					"type": "string"
				},
				{
					"internalType": "uint256",
					"name": "memberId",
					"type": "uint256"
				}
			],
			"stateMutability": "view",
			"type": "function"
		}
	],
	"storageLayout": {
		"storage": [
			{
				"astId": 31,
				"contract": "contracts/walkwalk.sol:WalkWalk",
				"label": "exerciseRecordsByTimestamp",
				"offset": 0,
				"slot": "0",
				"type": "t_mapping(t_uint256,t_mapping(t_uint256,t_array(t_struct(ExerciseData)10_storage)dyn_storage))"
			},
			{
				"astId": 47,
				"contract": "contracts/walkwalk.sol:WalkWalk",
				"label": "receipts",
				"offset": 0,
				"slot": "1",
				"type": "t_array(t_struct(Receipt)23_storage)dyn_storage"
			}
		],
		"types": {
			"t_array(t_struct(ExerciseData)10_storage)dyn_storage": {
				"base": "t_struct(ExerciseData)10_storage",
				"encoding": "dynamic_array",
				"label": "struct WalkWalk.ExerciseData[]",
				"numberOfBytes": "32"
			},
			"t_array(t_struct(Receipt)23_storage)dyn_storage": {
				"base": "t_struct(Receipt)23_storage",
				"encoding": "dynamic_array",
				"label": "struct WalkWalk.Receipt[]",
				"numberOfBytes": "32"
			},
			"t_bool": {
				"encoding": "inplace",
				"label": "bool",
				"numberOfBytes": "1"
			},
			"t_mapping(t_uint256,t_array(t_struct(ExerciseData)10_storage)dyn_storage)": {
				"encoding": "mapping",
				"key": "t_uint256",
				"label": "mapping(uint256 => struct WalkWalk.ExerciseData[])",
				"numberOfBytes": "32",
				"value": "t_array(t_struct(ExerciseData)10_storage)dyn_storage"
			},
			"t_mapping(t_uint256,t_mapping(t_uint256,t_array(t_struct(ExerciseData)10_storage)dyn_storage))": {
				"encoding": "mapping",
				"key": "t_uint256",
				"label": "mapping(uint256 => mapping(uint256 => struct WalkWalk.ExerciseData[]))",
				"numberOfBytes": "32",
				"value": "t_mapping(t_uint256,t_array(t_struct(ExerciseData)10_storage)dyn_storage)"
			},
			"t_string_storage": {
				"encoding": "bytes",
				"label": "string",
				"numberOfBytes": "32"
			},
			"t_struct(ExerciseData)10_storage": {
				"encoding": "inplace",
				"label": "struct WalkWalk.ExerciseData",
				"members": [
					{
						"astId": 3,
						"contract": "contracts/walkwalk.sol:WalkWalk",
						"label": "timestamp",
						"offset": 0,
						"slot": "0",
						"type": "t_uint256"
					},
					{
						"astId": 5,
						"contract": "contracts/walkwalk.sol:WalkWalk",
						"label": "steps",
						"offset": 0,
						"slot": "1",
						"type": "t_uint256"
					},
					{
						"astId": 7,
						"contract": "contracts/walkwalk.sol:WalkWalk",
						"label": "duration",
						"offset": 0,
						"slot": "2",
						"type": "t_uint256"
					},
					{
						"astId": 9,
						"contract": "contracts/walkwalk.sol:WalkWalk",
						"label": "distance",
						"offset": 0,
						"slot": "3",
						"type": "t_uint256"
					}
				],
				"numberOfBytes": "128"
			},
			"t_struct(Receipt)23_storage": {
				"encoding": "inplace",
				"label": "struct WalkWalk.Receipt",
				"members": [
					{
						"astId": 12,
						"contract": "contracts/walkwalk.sol:WalkWalk",
						"label": "walletType",
						"offset": 0,
						"slot": "0",
						"type": "t_string_storage"
					},
					{
						"astId": 14,
						"contract": "contracts/walkwalk.sol:WalkWalk",
						"label": "operator",
						"offset": 0,
						"slot": "1",
						"type": "t_bool"
					},
					{
						"astId": 16,
						"contract": "contracts/walkwalk.sol:WalkWalk",
						"label": "price",
						"offset": 0,
						"slot": "2",
						"type": "t_uint256"
					},
					{
						"astId": 18,
						"contract": "contracts/walkwalk.sol:WalkWalk",
						"label": "description",
						"offset": 0,
						"slot": "3",
						"type": "t_string_storage"
					},
					{
						"astId": 20,
						"contract": "contracts/walkwalk.sol:WalkWalk",
						"label": "createdAt",
						"offset": 0,
						"slot": "4",
						"type": "t_string_storage"
					},
					{
						"astId": 22,
						"contract": "contracts/walkwalk.sol:WalkWalk",
						"label": "memberId",
						"offset": 0,
						"slot": "5",
						"type": "t_uint256"
					}
				],
				"numberOfBytes": "192"
			},
			"t_uint256": {
				"encoding": "inplace",
				"label": "uint256",
				"numberOfBytes": "32"
			}
		}
	},
	"web3Deploy": "var walkwalkContract = new web3.eth.Contract([{\"anonymous\":false,\"inputs\":[{\"indexed\":false,\"internalType\":\"uint256\",\"name\":\"memberId\",\"type\":\"uint256\"},{\"indexed\":false,\"internalType\":\"uint256\",\"name\":\"timestamp\",\"type\":\"uint256\"},{\"indexed\":false,\"internalType\":\"uint256\",\"name\":\"steps\",\"type\":\"uint256\"},{\"indexed\":false,\"internalType\":\"uint256\",\"name\":\"duration\",\"type\":\"uint256\"},{\"indexed\":false,\"internalType\":\"uint256\",\"name\":\"distance\",\"type\":\"uint256\"}],\"name\":\"ExerciseDataAdded\",\"type\":\"event\"},{\"anonymous\":false,\"inputs\":[{\"indexed\":true,\"internalType\":\"uint256\",\"name\":\"receiptId\",\"type\":\"uint256\"},{\"indexed\":false,\"internalType\":\"string\",\"name\":\"walletType\",\"type\":\"string\"},{\"indexed\":false,\"internalType\":\"bool\",\"name\":\"operator\",\"type\":\"bool\"},{\"indexed\":false,\"internalType\":\"uint256\",\"name\":\"price\",\"type\":\"uint256\"},{\"indexed\":false,\"internalType\":\"string\",\"name\":\"description\",\"type\":\"string\"},{\"indexed\":false,\"internalType\":\"string\",\"name\":\"createdAt\",\"type\":\"string\"},{\"indexed\":false,\"internalType\":\"uint256\",\"name\":\"memberId\",\"type\":\"uint256\"}],\"name\":\"ReceiptAdded\",\"type\":\"event\"},{\"inputs\":[{\"internalType\":\"uint256\",\"name\":\"_memberId\",\"type\":\"uint256\"},{\"internalType\":\"uint256\",\"name\":\"_timestamp\",\"type\":\"uint256\"},{\"internalType\":\"uint256\",\"name\":\"_steps\",\"type\":\"uint256\"},{\"internalType\":\"uint256\",\"name\":\"_duration\",\"type\":\"uint256\"},{\"internalType\":\"uint256\",\"name\":\"_distance\",\"type\":\"uint256\"}],\"name\":\"addExerciseData\",\"outputs\":[],\"stateMutability\":\"nonpayable\",\"type\":\"function\"},{\"inputs\":[{\"internalType\":\"string\",\"name\":\"_walletType\",\"type\":\"string\"},{\"internalType\":\"bool\",\"name\":\"_operator\",\"type\":\"bool\"},{\"internalType\":\"uint256\",\"name\":\"_price\",\"type\":\"uint256\"},{\"internalType\":\"string\",\"name\":\"_description\",\"type\":\"string\"},{\"internalType\":\"string\",\"name\":\"_createdAt\",\"type\":\"string\"},{\"internalType\":\"uint256\",\"name\":\"_memberId\",\"type\":\"uint256\"}],\"name\":\"addReceipt\",\"outputs\":[{\"internalType\":\"uint256\",\"name\":\"\",\"type\":\"uint256\"}],\"stateMutability\":\"nonpayable\",\"type\":\"function\"},{\"inputs\":[{\"internalType\":\"uint256\",\"name\":\"\",\"type\":\"uint256\"},{\"internalType\":\"uint256\",\"name\":\"\",\"type\":\"uint256\"},{\"internalType\":\"uint256\",\"name\":\"\",\"type\":\"uint256\"}],\"name\":\"exerciseRecordsByTimestamp\",\"outputs\":[{\"internalType\":\"uint256\",\"name\":\"timestamp\",\"type\":\"uint256\"},{\"internalType\":\"uint256\",\"name\":\"steps\",\"type\":\"uint256\"},{\"internalType\":\"uint256\",\"name\":\"duration\",\"type\":\"uint256\"},{\"internalType\":\"uint256\",\"name\":\"distance\",\"type\":\"uint256\"}],\"stateMutability\":\"view\",\"type\":\"function\"},{\"inputs\":[{\"internalType\":\"uint256\",\"name\":\"_memberId\",\"type\":\"uint256\"},{\"internalType\":\"uint256\",\"name\":\"_timestamp\",\"type\":\"uint256\"}],\"name\":\"getExerciseDataByTimestamp\",\"outputs\":[{\"components\":[{\"internalType\":\"uint256\",\"name\":\"timestamp\",\"type\":\"uint256\"},{\"internalType\":\"uint256\",\"name\":\"steps\",\"type\":\"uint256\"},{\"internalType\":\"uint256\",\"name\":\"duration\",\"type\":\"uint256\"},{\"internalType\":\"uint256\",\"name\":\"distance\",\"type\":\"uint256\"}],\"internalType\":\"struct WalkWalk.ExerciseData[]\",\"name\":\"\",\"type\":\"tuple[]\"}],\"stateMutability\":\"view\",\"type\":\"function\"},{\"inputs\":[{\"internalType\":\"uint256\",\"name\":\"_receiptId\",\"type\":\"uint256\"}],\"name\":\"getReceipt\",\"outputs\":[{\"components\":[{\"internalType\":\"string\",\"name\":\"walletType\",\"type\":\"string\"},{\"internalType\":\"bool\",\"name\":\"operator\",\"type\":\"bool\"},{\"internalType\":\"uint256\",\"name\":\"price\",\"type\":\"uint256\"},{\"internalType\":\"string\",\"name\":\"description\",\"type\":\"string\"},{\"internalType\":\"string\",\"name\":\"createdAt\",\"type\":\"string\"},{\"internalType\":\"uint256\",\"name\":\"memberId\",\"type\":\"uint256\"}],\"internalType\":\"struct WalkWalk.Receipt\",\"name\":\"\",\"type\":\"tuple\"}],\"stateMutability\":\"view\",\"type\":\"function\"},{\"inputs\":[{\"internalType\":\"uint256\",\"name\":\"\",\"type\":\"uint256\"}],\"name\":\"receipts\",\"outputs\":[{\"internalType\":\"string\",\"name\":\"walletType\",\"type\":\"string\"},{\"internalType\":\"bool\",\"name\":\"operator\",\"type\":\"bool\"},{\"internalType\":\"uint256\",\"name\":\"price\",\"type\":\"uint256\"},{\"internalType\":\"string\",\"name\":\"description\",\"type\":\"string\"},{\"internalType\":\"string\",\"name\":\"createdAt\",\"type\":\"string\"},{\"internalType\":\"uint256\",\"name\":\"memberId\",\"type\":\"uint256\"}],\"stateMutability\":\"view\",\"type\":\"function\"}]);\nvar walkwalk = walkwalkContract.deploy({\n     data: '0x6080604052348015600e575f80fd5b506114728061001c5f395ff3fe608060405234801561000f575f80fd5b5060043610610060575f3560e01c8063069efa7c146100645780630f7ee1ec1461009757806332e7847b146100cc5780638cc5ed93146100fc578063b63e6ac31461012c578063d3e377451461015c575b5f80fd5b61007e6004803603810190610079919061092c565b610178565b60405161008e949392919061098b565b60405180910390f35b6100b160048036038101906100ac91906109ce565b6101c8565b6040516100c396959493929190610a83565b60405180910390f35b6100e660048036038101906100e19190610c4d565b6103ad565b6040516100f39190610d2a565b60405180910390f35b61011660048036038101906101119190610d43565b6104de565b6040516101239190610e8b565b60405180910390f35b610146600480360381019061014191906109ce565b610581565b6040516101539190610f96565b60405180910390f35b61017660048036038101906101719190610fb6565b6107df565b005b5f602052825f5260405f20602052815f5260405f20818154811061019a575f80fd5b905f5260205f2090600402015f925092505050805f0154908060010154908060020154908060030154905084565b600181815481106101d7575f80fd5b905f5260205f2090600602015f91509050805f0180546101f69061105a565b80601f01602080910402602001604051908101604052809291908181526020018280546102229061105a565b801561026d5780601f106102445761010080835404028352916020019161026d565b820191905f5260205f20905b81548152906001019060200180831161025057829003601f168201915b505050505090806001015f9054906101000a900460ff169080600201549080600301805461029a9061105a565b80601f01602080910402602001604051908101604052809291908181526020018280546102c69061105a565b80156103115780601f106102e857610100808354040283529160200191610311565b820191905f5260205f20905b8154815290600101906020018083116102f457829003601f168201915b5050505050908060040180546103269061105a565b80601f01602080910402602001604051908101604052809291908181526020018280546103529061105a565b801561039d5780601f106103745761010080835404028352916020019161039d565b820191905f5260205f20905b81548152906001019060200180831161038057829003601f168201915b5050505050908060050154905086565b5f60016040518060c00160405280898152602001881515815260200187815260200186815260200185815260200184815250908060018154018082558091505060019003905f5260205f2090600602015f909190919091505f820151815f0190816104189190611227565b506020820151816001015f6101000a81548160ff0219169083151502179055506040820151816002015560608201518160030190816104579190611227565b50608082015181600401908161046d9190611227565b5060a0820151816005015550505f6001808054905061048c9190611323565b9050807f8b9f4d9e9c07fe50f790c2348976c935ad40e3e76ff7bb74ef1c6ae9eaebd3fe8989898989896040516104c896959493929190610a83565b60405180910390a2809150509695505050505050565b60605f808481526020019081526020015f205f8381526020019081526020015f20805480602002602001604051908101604052809291908181526020015f905b82821015610575578382905f5260205f2090600402016040518060800160405290815f820154815260200160018201548152602001600282015481526020016003820154815250508152602001906001019061051e565b50505050905092915050565b6105896108b3565b60018054905082106105d0576040517f08c379a00000000000000000000000000000000000000000000000000000000081526004016105c7906113a0565b60405180910390fd5b600182815481106105e4576105e36113be565b5b905f5260205f2090600602016040518060c00160405290815f8201805461060a9061105a565b80601f01602080910402602001604051908101604052809291908181526020018280546106369061105a565b80156106815780601f1061065857610100808354040283529160200191610681565b820191905f5260205f20905b81548152906001019060200180831161066457829003601f168201915b50505050508152602001600182015f9054906101000a900460ff16151515158152602001600282015481526020016003820180546106be9061105a565b80601f01602080910402602001604051908101604052809291908181526020018280546106ea9061105a565b80156107355780601f1061070c57610100808354040283529160200191610735565b820191905f5260205f20905b81548152906001019060200180831161071857829003601f168201915b5050505050815260200160048201805461074e9061105a565b80601f016020809104026020016040519081016040528092919081815260200182805461077a9061105a565b80156107c55780601f1061079c576101008083540402835291602001916107c5565b820191905f5260205f20905b8154815290600101906020018083116107a857829003601f168201915b505050505081526020016005820154815250509050919050565b5f808681526020019081526020015f205f8581526020019081526020015f20604051806080016040528086815260200185815260200184815260200183815250908060018154018082558091505060019003905f5260205f2090600402015f909190919091505f820151815f015560208201518160010155604082015181600201556060820151816003015550507fe920c436c1f1b04eec68b8cdeb48d96c4d5d95f3cc10d4fd0a21978585c23e0985858585856040516108a49594939291906113eb565b60405180910390a15050505050565b6040518060c00160405280606081526020015f151581526020015f815260200160608152602001606081526020015f81525090565b5f604051905090565b5f80fd5b5f80fd5b5f819050919050565b61090b816108f9565b8114610915575f80fd5b50565b5f8135905061092681610902565b92915050565b5f805f60608486031215610943576109426108f1565b5b5f61095086828701610918565b935050602061096186828701610918565b925050604061097286828701610918565b9150509250925092565b610985816108f9565b82525050565b5f60808201905061099e5f83018761097c565b6109ab602083018661097c565b6109b8604083018561097c565b6109c5606083018461097c565b95945050505050565b5f602082840312156109e3576109e26108f1565b5b5f6109f084828501610918565b91505092915050565b5f81519050919050565b5f82825260208201905092915050565b8281835e5f83830152505050565b5f601f19601f8301169050919050565b5f610a3b826109f9565b610a458185610a03565b9350610a55818560208601610a13565b610a5e81610a21565b840191505092915050565b5f8115159050919050565b610a7d81610a69565b82525050565b5f60c0820190508181035f830152610a9b8189610a31565b9050610aaa6020830188610a74565b610ab7604083018761097c565b8181036060830152610ac98186610a31565b90508181036080830152610add8185610a31565b9050610aec60a083018461097c565b979650505050505050565b5f80fd5b5f80fd5b7f4e487b71000000000000000000000000000000000000000000000000000000005f52604160045260245ffd5b610b3582610a21565b810181811067ffffffffffffffff82111715610b5457610b53610aff565b5b80604052505050565b5f610b666108e8565b9050610b728282610b2c565b919050565b5f67ffffffffffffffff821115610b9157610b90610aff565b5b610b9a82610a21565b9050602081019050919050565b828183375f83830152505050565b5f610bc7610bc284610b77565b610b5d565b905082815260208101848484011115610be357610be2610afb565b5b610bee848285610ba7565b509392505050565b5f82601f830112610c0a57610c09610af7565b5b8135610c1a848260208601610bb5565b91505092915050565b610c2c81610a69565b8114610c36575f80fd5b50565b5f81359050610c4781610c23565b92915050565b5f805f805f8060c08789031215610c6757610c666108f1565b5b5f87013567ffffffffffffffff811115610c8457610c836108f5565b5b610c9089828a01610bf6565b9650506020610ca189828a01610c39565b9550506040610cb289828a01610918565b945050606087013567ffffffffffffffff811115610cd357610cd26108f5565b5b610cdf89828a01610bf6565b935050608087013567ffffffffffffffff811115610d0057610cff6108f5565b5b610d0c89828a01610bf6565b92505060a0610d1d89828a01610918565b9150509295509295509295565b5f602082019050610d3d5f83018461097c565b92915050565b5f8060408385031215610d5957610d586108f1565b5b5f610d6685828601610918565b9250506020610d7785828601610918565b9150509250929050565b5f81519050919050565b5f82825260208201905092915050565b5f819050602082019050919050565b610db3816108f9565b82525050565b608082015f820151610dcd5f850182610daa565b506020820151610de06020850182610daa565b506040820151610df36040850182610daa565b506060820151610e066060850182610daa565b50505050565b5f610e178383610db9565b60808301905092915050565b5f602082019050919050565b5f610e3982610d81565b610e438185610d8b565b9350610e4e83610d9b565b805f5b83811015610e7e578151610e658882610e0c565b9750610e7083610e23565b925050600181019050610e51565b5085935050505092915050565b5f6020820190508181035f830152610ea38184610e2f565b905092915050565b5f82825260208201905092915050565b5f610ec5826109f9565b610ecf8185610eab565b9350610edf818560208601610a13565b610ee881610a21565b840191505092915050565b610efc81610a69565b82525050565b5f60c083015f8301518482035f860152610f1c8282610ebb565b9150506020830151610f316020860182610ef3565b506040830151610f446040860182610daa565b5060608301518482036060860152610f5c8282610ebb565b91505060808301518482036080860152610f768282610ebb565b91505060a0830151610f8b60a0860182610daa565b508091505092915050565b5f6020820190508181035f830152610fae8184610f02565b905092915050565b5f805f805f60a08688031215610fcf57610fce6108f1565b5b5f610fdc88828901610918565b9550506020610fed88828901610918565b9450506040610ffe88828901610918565b935050606061100f88828901610918565b925050608061102088828901610918565b9150509295509295909350565b7f4e487b71000000000000000000000000000000000000000000000000000000005f52602260045260245ffd5b5f600282049050600182168061107157607f821691505b6020821081036110845761108361102d565b5b50919050565b5f819050815f5260205f209050919050565b5f6020601f8301049050919050565b5f82821b905092915050565b5f600883026110e67fffffffffffffffffffffffffffffffffffffffffffffffffffffffffffffffff826110ab565b6110f086836110ab565b95508019841693508086168417925050509392505050565b5f819050919050565b5f61112b611126611121846108f9565b611108565b6108f9565b9050919050565b5f819050919050565b61114483611111565b61115861115082611132565b8484546110b7565b825550505050565b5f90565b61116c611160565b61117781848461113b565b505050565b5b8181101561119a5761118f5f82611164565b60018101905061117d565b5050565b601f8211156111df576111b08161108a565b6111b98461109c565b810160208510156111c8578190505b6111dc6111d48561109c565b83018261117c565b50505b505050565b5f82821c905092915050565b5f6111ff5f19846008026111e4565b1980831691505092915050565b5f61121783836111f0565b9150826002028217905092915050565b611230826109f9565b67ffffffffffffffff81111561124957611248610aff565b5b611253825461105a565b61125e82828561119e565b5f60209050601f83116001811461128f575f841561127d578287015190505b611287858261120c565b8655506112ee565b601f19841661129d8661108a565b5f5b828110156112c45784890151825560018201915060208501945060208101905061129f565b868310156112e157848901516112dd601f8916826111f0565b8355505b6001600288020188555050505b505050505050565b7f4e487b71000000000000000000000000000000000000000000000000000000005f52601160045260245ffd5b5f61132d826108f9565b9150611338836108f9565b92508282039050818111156113505761134f6112f6565b5b92915050565b7f5265636569707420646f6573206e6f742065786973742e0000000000000000005f82015250565b5f61138a601783610a03565b915061139582611356565b602082019050919050565b5f6020820190508181035f8301526113b78161137e565b9050919050565b7f4e487b71000000000000000000000000000000000000000000000000000000005f52603260045260245ffd5b5f60a0820190506113fe5f83018861097c565b61140b602083018761097c565b611418604083018661097c565b611425606083018561097c565b611432608083018461097c565b969550505050505056fea26469706673582212206637b7f7712eb1a9b4bf7121c2d69e53b90f0fc36e75e7c111081a60405adcec64736f6c63430008190033', \n     arguments: [\n     ]\n}).send({\n     from: web3.eth.accounts[0], \n     gas: '4700000'\n   }, function (e, contract){\n    console.log(e, contract);\n    if (typeof contract.address !== 'undefined') {\n         console.log('Contract mined! address: ' + contract.address + ' transactionHash: ' + contract.transactionHash);\n    }\n })",
	"functionHashes": {
		"d3e37745": "addExerciseData(uint256,uint256,uint256,uint256,uint256)",
		"32e7847b": "addReceipt(string,bool,uint256,string,string,uint256)",
		"069efa7c": "exerciseRecordsByTimestamp(uint256,uint256,uint256)",
		"8cc5ed93": "getExerciseDataByTimestamp(uint256,uint256)",
		"b63e6ac3": "getReceipt(uint256)",
		"0f7ee1ec": "receipts(uint256)"
	},
	"gasEstimates": {
		"Creation": {
			"codeDepositCost": "1046800",
			"executionCost": "1085",
			"totalCost": "1047885"
		},
		"External": {
			"addExerciseData(uint256,uint256,uint256,uint256,uint256)": "infinite",
			"addReceipt(string,bool,uint256,string,string,uint256)": "infinite",
			"exerciseRecordsByTimestamp(uint256,uint256,uint256)": "infinite",
			"getExerciseDataByTimestamp(uint256,uint256)": "infinite",
			"getReceipt(uint256)": "infinite",
			"receipts(uint256)": "infinite"
		}
	},
	"devdoc": {
		"kind": "dev",
		"methods": {},
		"version": 1
	},
	"userdoc": {
		"kind": "user",
		"methods": {},
		"version": 1
	},
	"Runtime Bytecode": {
		"immutableReferences": {},
		"linkReferences": {},
		"object": "608060405234801561000f575f80fd5b5060043610610060575f3560e01c8063069efa7c146100645780630f7ee1ec1461009757806332e7847b146100cc5780638cc5ed93146100fc578063b63e6ac31461012c578063d3e377451461015c575b5f80fd5b61007e6004803603810190610079919061092c565b610178565b60405161008e949392919061098b565b60405180910390f35b6100b160048036038101906100ac91906109ce565b6101c8565b6040516100c396959493929190610a83565b60405180910390f35b6100e660048036038101906100e19190610c4d565b6103ad565b6040516100f39190610d2a565b60405180910390f35b61011660048036038101906101119190610d43565b6104de565b6040516101239190610e8b565b60405180910390f35b610146600480360381019061014191906109ce565b610581565b6040516101539190610f96565b60405180910390f35b61017660048036038101906101719190610fb6565b6107df565b005b5f602052825f5260405f20602052815f5260405f20818154811061019a575f80fd5b905f5260205f2090600402015f925092505050805f0154908060010154908060020154908060030154905084565b600181815481106101d7575f80fd5b905f5260205f2090600602015f91509050805f0180546101f69061105a565b80601f01602080910402602001604051908101604052809291908181526020018280546102229061105a565b801561026d5780601f106102445761010080835404028352916020019161026d565b820191905f5260205f20905b81548152906001019060200180831161025057829003601f168201915b505050505090806001015f9054906101000a900460ff169080600201549080600301805461029a9061105a565b80601f01602080910402602001604051908101604052809291908181526020018280546102c69061105a565b80156103115780601f106102e857610100808354040283529160200191610311565b820191905f5260205f20905b8154815290600101906020018083116102f457829003601f168201915b5050505050908060040180546103269061105a565b80601f01602080910402602001604051908101604052809291908181526020018280546103529061105a565b801561039d5780601f106103745761010080835404028352916020019161039d565b820191905f5260205f20905b81548152906001019060200180831161038057829003601f168201915b5050505050908060050154905086565b5f60016040518060c00160405280898152602001881515815260200187815260200186815260200185815260200184815250908060018154018082558091505060019003905f5260205f2090600602015f909190919091505f820151815f0190816104189190611227565b506020820151816001015f6101000a81548160ff0219169083151502179055506040820151816002015560608201518160030190816104579190611227565b50608082015181600401908161046d9190611227565b5060a0820151816005015550505f6001808054905061048c9190611323565b9050807f8b9f4d9e9c07fe50f790c2348976c935ad40e3e76ff7bb74ef1c6ae9eaebd3fe8989898989896040516104c896959493929190610a83565b60405180910390a2809150509695505050505050565b60605f808481526020019081526020015f205f8381526020019081526020015f20805480602002602001604051908101604052809291908181526020015f905b82821015610575578382905f5260205f2090600402016040518060800160405290815f820154815260200160018201548152602001600282015481526020016003820154815250508152602001906001019061051e565b50505050905092915050565b6105896108b3565b60018054905082106105d0576040517f08c379a00000000000000000000000000000000000000000000000000000000081526004016105c7906113a0565b60405180910390fd5b600182815481106105e4576105e36113be565b5b905f5260205f2090600602016040518060c00160405290815f8201805461060a9061105a565b80601f01602080910402602001604051908101604052809291908181526020018280546106369061105a565b80156106815780601f1061065857610100808354040283529160200191610681565b820191905f5260205f20905b81548152906001019060200180831161066457829003601f168201915b50505050508152602001600182015f9054906101000a900460ff16151515158152602001600282015481526020016003820180546106be9061105a565b80601f01602080910402602001604051908101604052809291908181526020018280546106ea9061105a565b80156107355780601f1061070c57610100808354040283529160200191610735565b820191905f5260205f20905b81548152906001019060200180831161071857829003601f168201915b5050505050815260200160048201805461074e9061105a565b80601f016020809104026020016040519081016040528092919081815260200182805461077a9061105a565b80156107c55780601f1061079c576101008083540402835291602001916107c5565b820191905f5260205f20905b8154815290600101906020018083116107a857829003601f168201915b505050505081526020016005820154815250509050919050565b5f808681526020019081526020015f205f8581526020019081526020015f20604051806080016040528086815260200185815260200184815260200183815250908060018154018082558091505060019003905f5260205f2090600402015f909190919091505f820151815f015560208201518160010155604082015181600201556060820151816003015550507fe920c436c1f1b04eec68b8cdeb48d96c4d5d95f3cc10d4fd0a21978585c23e0985858585856040516108a49594939291906113eb565b60405180910390a15050505050565b6040518060c00160405280606081526020015f151581526020015f815260200160608152602001606081526020015f81525090565b5f604051905090565b5f80fd5b5f80fd5b5f819050919050565b61090b816108f9565b8114610915575f80fd5b50565b5f8135905061092681610902565b92915050565b5f805f60608486031215610943576109426108f1565b5b5f61095086828701610918565b935050602061096186828701610918565b925050604061097286828701610918565b9150509250925092565b610985816108f9565b82525050565b5f60808201905061099e5f83018761097c565b6109ab602083018661097c565b6109b8604083018561097c565b6109c5606083018461097c565b95945050505050565b5f602082840312156109e3576109e26108f1565b5b5f6109f084828501610918565b91505092915050565b5f81519050919050565b5f82825260208201905092915050565b8281835e5f83830152505050565b5f601f19601f8301169050919050565b5f610a3b826109f9565b610a458185610a03565b9350610a55818560208601610a13565b610a5e81610a21565b840191505092915050565b5f8115159050919050565b610a7d81610a69565b82525050565b5f60c0820190508181035f830152610a9b8189610a31565b9050610aaa6020830188610a74565b610ab7604083018761097c565b8181036060830152610ac98186610a31565b90508181036080830152610add8185610a31565b9050610aec60a083018461097c565b979650505050505050565b5f80fd5b5f80fd5b7f4e487b71000000000000000000000000000000000000000000000000000000005f52604160045260245ffd5b610b3582610a21565b810181811067ffffffffffffffff82111715610b5457610b53610aff565b5b80604052505050565b5f610b666108e8565b9050610b728282610b2c565b919050565b5f67ffffffffffffffff821115610b9157610b90610aff565b5b610b9a82610a21565b9050602081019050919050565b828183375f83830152505050565b5f610bc7610bc284610b77565b610b5d565b905082815260208101848484011115610be357610be2610afb565b5b610bee848285610ba7565b509392505050565b5f82601f830112610c0a57610c09610af7565b5b8135610c1a848260208601610bb5565b91505092915050565b610c2c81610a69565b8114610c36575f80fd5b50565b5f81359050610c4781610c23565b92915050565b5f805f805f8060c08789031215610c6757610c666108f1565b5b5f87013567ffffffffffffffff811115610c8457610c836108f5565b5b610c9089828a01610bf6565b9650506020610ca189828a01610c39565b9550506040610cb289828a01610918565b945050606087013567ffffffffffffffff811115610cd357610cd26108f5565b5b610cdf89828a01610bf6565b935050608087013567ffffffffffffffff811115610d0057610cff6108f5565b5b610d0c89828a01610bf6565b92505060a0610d1d89828a01610918565b9150509295509295509295565b5f602082019050610d3d5f83018461097c565b92915050565b5f8060408385031215610d5957610d586108f1565b5b5f610d6685828601610918565b9250506020610d7785828601610918565b9150509250929050565b5f81519050919050565b5f82825260208201905092915050565b5f819050602082019050919050565b610db3816108f9565b82525050565b608082015f820151610dcd5f850182610daa565b506020820151610de06020850182610daa565b506040820151610df36040850182610daa565b506060820151610e066060850182610daa565b50505050565b5f610e178383610db9565b60808301905092915050565b5f602082019050919050565b5f610e3982610d81565b610e438185610d8b565b9350610e4e83610d9b565b805f5b83811015610e7e578151610e658882610e0c565b9750610e7083610e23565b925050600181019050610e51565b5085935050505092915050565b5f6020820190508181035f830152610ea38184610e2f565b905092915050565b5f82825260208201905092915050565b5f610ec5826109f9565b610ecf8185610eab565b9350610edf818560208601610a13565b610ee881610a21565b840191505092915050565b610efc81610a69565b82525050565b5f60c083015f8301518482035f860152610f1c8282610ebb565b9150506020830151610f316020860182610ef3565b506040830151610f446040860182610daa565b5060608301518482036060860152610f5c8282610ebb565b91505060808301518482036080860152610f768282610ebb565b91505060a0830151610f8b60a0860182610daa565b508091505092915050565b5f6020820190508181035f830152610fae8184610f02565b905092915050565b5f805f805f60a08688031215610fcf57610fce6108f1565b5b5f610fdc88828901610918565b9550506020610fed88828901610918565b9450506040610ffe88828901610918565b935050606061100f88828901610918565b925050608061102088828901610918565b9150509295509295909350565b7f4e487b71000000000000000000000000000000000000000000000000000000005f52602260045260245ffd5b5f600282049050600182168061107157607f821691505b6020821081036110845761108361102d565b5b50919050565b5f819050815f5260205f209050919050565b5f6020601f8301049050919050565b5f82821b905092915050565b5f600883026110e67fffffffffffffffffffffffffffffffffffffffffffffffffffffffffffffffff826110ab565b6110f086836110ab565b95508019841693508086168417925050509392505050565b5f819050919050565b5f61112b611126611121846108f9565b611108565b6108f9565b9050919050565b5f819050919050565b61114483611111565b61115861115082611132565b8484546110b7565b825550505050565b5f90565b61116c611160565b61117781848461113b565b505050565b5b8181101561119a5761118f5f82611164565b60018101905061117d565b5050565b601f8211156111df576111b08161108a565b6111b98461109c565b810160208510156111c8578190505b6111dc6111d48561109c565b83018261117c565b50505b505050565b5f82821c905092915050565b5f6111ff5f19846008026111e4565b1980831691505092915050565b5f61121783836111f0565b9150826002028217905092915050565b611230826109f9565b67ffffffffffffffff81111561124957611248610aff565b5b611253825461105a565b61125e82828561119e565b5f60209050601f83116001811461128f575f841561127d578287015190505b611287858261120c565b8655506112ee565b601f19841661129d8661108a565b5f5b828110156112c45784890151825560018201915060208501945060208101905061129f565b868310156112e157848901516112dd601f8916826111f0565b8355505b6001600288020188555050505b505050505050565b7f4e487b71000000000000000000000000000000000000000000000000000000005f52601160045260245ffd5b5f61132d826108f9565b9150611338836108f9565b92508282039050818111156113505761134f6112f6565b5b92915050565b7f5265636569707420646f6573206e6f742065786973742e0000000000000000005f82015250565b5f61138a601783610a03565b915061139582611356565b602082019050919050565b5f6020820190508181035f8301526113b78161137e565b9050919050565b7f4e487b71000000000000000000000000000000000000000000000000000000005f52603260045260245ffd5b5f60a0820190506113fe5f83018861097c565b61140b602083018761097c565b611418604083018661097c565b611425606083018561097c565b611432608083018461097c565b969550505050505056fea26469706673582212206637b7f7712eb1a9b4bf7121c2d69e53b90f0fc36e75e7c111081a60405adcec64736f6c63430008190033",
		"opcodes": "PUSH1 0x80 PUSH1 0x40 MSTORE CALLVALUE DUP1 ISZERO PUSH2 0xF JUMPI PUSH0 DUP1 REVERT JUMPDEST POP PUSH1 0x4 CALLDATASIZE LT PUSH2 0x60 JUMPI PUSH0 CALLDATALOAD PUSH1 0xE0 SHR DUP1 PUSH4 0x69EFA7C EQ PUSH2 0x64 JUMPI DUP1 PUSH4 0xF7EE1EC EQ PUSH2 0x97 JUMPI DUP1 PUSH4 0x32E7847B EQ PUSH2 0xCC JUMPI DUP1 PUSH4 0x8CC5ED93 EQ PUSH2 0xFC JUMPI DUP1 PUSH4 0xB63E6AC3 EQ PUSH2 0x12C JUMPI DUP1 PUSH4 0xD3E37745 EQ PUSH2 0x15C JUMPI JUMPDEST PUSH0 DUP1 REVERT JUMPDEST PUSH2 0x7E PUSH1 0x4 DUP1 CALLDATASIZE SUB DUP2 ADD SWAP1 PUSH2 0x79 SWAP2 SWAP1 PUSH2 0x92C JUMP JUMPDEST PUSH2 0x178 JUMP JUMPDEST PUSH1 0x40 MLOAD PUSH2 0x8E SWAP5 SWAP4 SWAP3 SWAP2 SWAP1 PUSH2 0x98B JUMP JUMPDEST PUSH1 0x40 MLOAD DUP1 SWAP2 SUB SWAP1 RETURN JUMPDEST PUSH2 0xB1 PUSH1 0x4 DUP1 CALLDATASIZE SUB DUP2 ADD SWAP1 PUSH2 0xAC SWAP2 SWAP1 PUSH2 0x9CE JUMP JUMPDEST PUSH2 0x1C8 JUMP JUMPDEST PUSH1 0x40 MLOAD PUSH2 0xC3 SWAP7 SWAP6 SWAP5 SWAP4 SWAP3 SWAP2 SWAP1 PUSH2 0xA83 JUMP JUMPDEST PUSH1 0x40 MLOAD DUP1 SWAP2 SUB SWAP1 RETURN JUMPDEST PUSH2 0xE6 PUSH1 0x4 DUP1 CALLDATASIZE SUB DUP2 ADD SWAP1 PUSH2 0xE1 SWAP2 SWAP1 PUSH2 0xC4D JUMP JUMPDEST PUSH2 0x3AD JUMP JUMPDEST PUSH1 0x40 MLOAD PUSH2 0xF3 SWAP2 SWAP1 PUSH2 0xD2A JUMP JUMPDEST PUSH1 0x40 MLOAD DUP1 SWAP2 SUB SWAP1 RETURN JUMPDEST PUSH2 0x116 PUSH1 0x4 DUP1 CALLDATASIZE SUB DUP2 ADD SWAP1 PUSH2 0x111 SWAP2 SWAP1 PUSH2 0xD43 JUMP JUMPDEST PUSH2 0x4DE JUMP JUMPDEST PUSH1 0x40 MLOAD PUSH2 0x123 SWAP2 SWAP1 PUSH2 0xE8B JUMP JUMPDEST PUSH1 0x40 MLOAD DUP1 SWAP2 SUB SWAP1 RETURN JUMPDEST PUSH2 0x146 PUSH1 0x4 DUP1 CALLDATASIZE SUB DUP2 ADD SWAP1 PUSH2 0x141 SWAP2 SWAP1 PUSH2 0x9CE JUMP JUMPDEST PUSH2 0x581 JUMP JUMPDEST PUSH1 0x40 MLOAD PUSH2 0x153 SWAP2 SWAP1 PUSH2 0xF96 JUMP JUMPDEST PUSH1 0x40 MLOAD DUP1 SWAP2 SUB SWAP1 RETURN JUMPDEST PUSH2 0x176 PUSH1 0x4 DUP1 CALLDATASIZE SUB DUP2 ADD SWAP1 PUSH2 0x171 SWAP2 SWAP1 PUSH2 0xFB6 JUMP JUMPDEST PUSH2 0x7DF JUMP JUMPDEST STOP JUMPDEST PUSH0 PUSH1 0x20 MSTORE DUP3 PUSH0 MSTORE PUSH1 0x40 PUSH0 KECCAK256 PUSH1 0x20 MSTORE DUP2 PUSH0 MSTORE PUSH1 0x40 PUSH0 KECCAK256 DUP2 DUP2 SLOAD DUP2 LT PUSH2 0x19A JUMPI PUSH0 DUP1 REVERT JUMPDEST SWAP1 PUSH0 MSTORE PUSH1 0x20 PUSH0 KECCAK256 SWAP1 PUSH1 0x4 MUL ADD PUSH0 SWAP3 POP SWAP3 POP POP POP DUP1 PUSH0 ADD SLOAD SWAP1 DUP1 PUSH1 0x1 ADD SLOAD SWAP1 DUP1 PUSH1 0x2 ADD SLOAD SWAP1 DUP1 PUSH1 0x3 ADD SLOAD SWAP1 POP DUP5 JUMP JUMPDEST PUSH1 0x1 DUP2 DUP2 SLOAD DUP2 LT PUSH2 0x1D7 JUMPI PUSH0 DUP1 REVERT JUMPDEST SWAP1 PUSH0 MSTORE PUSH1 0x20 PUSH0 KECCAK256 SWAP1 PUSH1 0x6 MUL ADD PUSH0 SWAP2 POP SWAP1 POP DUP1 PUSH0 ADD DUP1 SLOAD PUSH2 0x1F6 SWAP1 PUSH2 0x105A JUMP JUMPDEST DUP1 PUSH1 0x1F ADD PUSH1 0x20 DUP1 SWAP2 DIV MUL PUSH1 0x20 ADD PUSH1 0x40 MLOAD SWAP1 DUP2 ADD PUSH1 0x40 MSTORE DUP1 SWAP3 SWAP2 SWAP1 DUP2 DUP2 MSTORE PUSH1 0x20 ADD DUP3 DUP1 SLOAD PUSH2 0x222 SWAP1 PUSH2 0x105A JUMP JUMPDEST DUP1 ISZERO PUSH2 0x26D JUMPI DUP1 PUSH1 0x1F LT PUSH2 0x244 JUMPI PUSH2 0x100 DUP1 DUP4 SLOAD DIV MUL DUP4 MSTORE SWAP2 PUSH1 0x20 ADD SWAP2 PUSH2 0x26D JUMP JUMPDEST DUP3 ADD SWAP2 SWAP1 PUSH0 MSTORE PUSH1 0x20 PUSH0 KECCAK256 SWAP1 JUMPDEST DUP2 SLOAD DUP2 MSTORE SWAP1 PUSH1 0x1 ADD SWAP1 PUSH1 0x20 ADD DUP1 DUP4 GT PUSH2 0x250 JUMPI DUP3 SWAP1 SUB PUSH1 0x1F AND DUP3 ADD SWAP2 JUMPDEST POP POP POP POP POP SWAP1 DUP1 PUSH1 0x1 ADD PUSH0 SWAP1 SLOAD SWAP1 PUSH2 0x100 EXP SWAP1 DIV PUSH1 0xFF AND SWAP1 DUP1 PUSH1 0x2 ADD SLOAD SWAP1 DUP1 PUSH1 0x3 ADD DUP1 SLOAD PUSH2 0x29A SWAP1 PUSH2 0x105A JUMP JUMPDEST DUP1 PUSH1 0x1F ADD PUSH1 0x20 DUP1 SWAP2 DIV MUL PUSH1 0x20 ADD PUSH1 0x40 MLOAD SWAP1 DUP2 ADD PUSH1 0x40 MSTORE DUP1 SWAP3 SWAP2 SWAP1 DUP2 DUP2 MSTORE PUSH1 0x20 ADD DUP3 DUP1 SLOAD PUSH2 0x2C6 SWAP1 PUSH2 0x105A JUMP JUMPDEST DUP1 ISZERO PUSH2 0x311 JUMPI DUP1 PUSH1 0x1F LT PUSH2 0x2E8 JUMPI PUSH2 0x100 DUP1 DUP4 SLOAD DIV MUL DUP4 MSTORE SWAP2 PUSH1 0x20 ADD SWAP2 PUSH2 0x311 JUMP JUMPDEST DUP3 ADD SWAP2 SWAP1 PUSH0 MSTORE PUSH1 0x20 PUSH0 KECCAK256 SWAP1 JUMPDEST DUP2 SLOAD DUP2 MSTORE SWAP1 PUSH1 0x1 ADD SWAP1 PUSH1 0x20 ADD DUP1 DUP4 GT PUSH2 0x2F4 JUMPI DUP3 SWAP1 SUB PUSH1 0x1F AND DUP3 ADD SWAP2 JUMPDEST POP POP POP POP POP SWAP1 DUP1 PUSH1 0x4 ADD DUP1 SLOAD PUSH2 0x326 SWAP1 PUSH2 0x105A JUMP JUMPDEST DUP1 PUSH1 0x1F ADD PUSH1 0x20 DUP1 SWAP2 DIV MUL PUSH1 0x20 ADD PUSH1 0x40 MLOAD SWAP1 DUP2 ADD PUSH1 0x40 MSTORE DUP1 SWAP3 SWAP2 SWAP1 DUP2 DUP2 MSTORE PUSH1 0x20 ADD DUP3 DUP1 SLOAD PUSH2 0x352 SWAP1 PUSH2 0x105A JUMP JUMPDEST DUP1 ISZERO PUSH2 0x39D JUMPI DUP1 PUSH1 0x1F LT PUSH2 0x374 JUMPI PUSH2 0x100 DUP1 DUP4 SLOAD DIV MUL DUP4 MSTORE SWAP2 PUSH1 0x20 ADD SWAP2 PUSH2 0x39D JUMP JUMPDEST DUP3 ADD SWAP2 SWAP1 PUSH0 MSTORE PUSH1 0x20 PUSH0 KECCAK256 SWAP1 JUMPDEST DUP2 SLOAD DUP2 MSTORE SWAP1 PUSH1 0x1 ADD SWAP1 PUSH1 0x20 ADD DUP1 DUP4 GT PUSH2 0x380 JUMPI DUP3 SWAP1 SUB PUSH1 0x1F AND DUP3 ADD SWAP2 JUMPDEST POP POP POP POP POP SWAP1 DUP1 PUSH1 0x5 ADD SLOAD SWAP1 POP DUP7 JUMP JUMPDEST PUSH0 PUSH1 0x1 PUSH1 0x40 MLOAD DUP1 PUSH1 0xC0 ADD PUSH1 0x40 MSTORE DUP1 DUP10 DUP2 MSTORE PUSH1 0x20 ADD DUP9 ISZERO ISZERO DUP2 MSTORE PUSH1 0x20 ADD DUP8 DUP2 MSTORE PUSH1 0x20 ADD DUP7 DUP2 MSTORE PUSH1 0x20 ADD DUP6 DUP2 MSTORE PUSH1 0x20 ADD DUP5 DUP2 MSTORE POP SWAP1 DUP1 PUSH1 0x1 DUP2 SLOAD ADD DUP1 DUP3 SSTORE DUP1 SWAP2 POP POP PUSH1 0x1 SWAP1 SUB SWAP1 PUSH0 MSTORE PUSH1 0x20 PUSH0 KECCAK256 SWAP1 PUSH1 0x6 MUL ADD PUSH0 SWAP1 SWAP2 SWAP1 SWAP2 SWAP1 SWAP2 POP PUSH0 DUP3 ADD MLOAD DUP2 PUSH0 ADD SWAP1 DUP2 PUSH2 0x418 SWAP2 SWAP1 PUSH2 0x1227 JUMP JUMPDEST POP PUSH1 0x20 DUP3 ADD MLOAD DUP2 PUSH1 0x1 ADD PUSH0 PUSH2 0x100 EXP DUP2 SLOAD DUP2 PUSH1 0xFF MUL NOT AND SWAP1 DUP4 ISZERO ISZERO MUL OR SWAP1 SSTORE POP PUSH1 0x40 DUP3 ADD MLOAD DUP2 PUSH1 0x2 ADD SSTORE PUSH1 0x60 DUP3 ADD MLOAD DUP2 PUSH1 0x3 ADD SWAP1 DUP2 PUSH2 0x457 SWAP2 SWAP1 PUSH2 0x1227 JUMP JUMPDEST POP PUSH1 0x80 DUP3 ADD MLOAD DUP2 PUSH1 0x4 ADD SWAP1 DUP2 PUSH2 0x46D SWAP2 SWAP1 PUSH2 0x1227 JUMP JUMPDEST POP PUSH1 0xA0 DUP3 ADD MLOAD DUP2 PUSH1 0x5 ADD SSTORE POP POP PUSH0 PUSH1 0x1 DUP1 DUP1 SLOAD SWAP1 POP PUSH2 0x48C SWAP2 SWAP1 PUSH2 0x1323 JUMP JUMPDEST SWAP1 POP DUP1 PUSH32 0x8B9F4D9E9C07FE50F790C2348976C935AD40E3E76FF7BB74EF1C6AE9EAEBD3FE DUP10 DUP10 DUP10 DUP10 DUP10 DUP10 PUSH1 0x40 MLOAD PUSH2 0x4C8 SWAP7 SWAP6 SWAP5 SWAP4 SWAP3 SWAP2 SWAP1 PUSH2 0xA83 JUMP JUMPDEST PUSH1 0x40 MLOAD DUP1 SWAP2 SUB SWAP1 LOG2 DUP1 SWAP2 POP POP SWAP7 SWAP6 POP POP POP POP POP POP JUMP JUMPDEST PUSH1 0x60 PUSH0 DUP1 DUP5 DUP2 MSTORE PUSH1 0x20 ADD SWAP1 DUP2 MSTORE PUSH1 0x20 ADD PUSH0 KECCAK256 PUSH0 DUP4 DUP2 MSTORE PUSH1 0x20 ADD SWAP1 DUP2 MSTORE PUSH1 0x20 ADD PUSH0 KECCAK256 DUP1 SLOAD DUP1 PUSH1 0x20 MUL PUSH1 0x20 ADD PUSH1 0x40 MLOAD SWAP1 DUP2 ADD PUSH1 0x40 MSTORE DUP1 SWAP3 SWAP2 SWAP1 DUP2 DUP2 MSTORE PUSH1 0x20 ADD PUSH0 SWAP1 JUMPDEST DUP3 DUP3 LT ISZERO PUSH2 0x575 JUMPI DUP4 DUP3 SWAP1 PUSH0 MSTORE PUSH1 0x20 PUSH0 KECCAK256 SWAP1 PUSH1 0x4 MUL ADD PUSH1 0x40 MLOAD DUP1 PUSH1 0x80 ADD PUSH1 0x40 MSTORE SWAP1 DUP2 PUSH0 DUP3 ADD SLOAD DUP2 MSTORE PUSH1 0x20 ADD PUSH1 0x1 DUP3 ADD SLOAD DUP2 MSTORE PUSH1 0x20 ADD PUSH1 0x2 DUP3 ADD SLOAD DUP2 MSTORE PUSH1 0x20 ADD PUSH1 0x3 DUP3 ADD SLOAD DUP2 MSTORE POP POP DUP2 MSTORE PUSH1 0x20 ADD SWAP1 PUSH1 0x1 ADD SWAP1 PUSH2 0x51E JUMP JUMPDEST POP POP POP POP SWAP1 POP SWAP3 SWAP2 POP POP JUMP JUMPDEST PUSH2 0x589 PUSH2 0x8B3 JUMP JUMPDEST PUSH1 0x1 DUP1 SLOAD SWAP1 POP DUP3 LT PUSH2 0x5D0 JUMPI PUSH1 0x40 MLOAD PUSH32 0x8C379A000000000000000000000000000000000000000000000000000000000 DUP2 MSTORE PUSH1 0x4 ADD PUSH2 0x5C7 SWAP1 PUSH2 0x13A0 JUMP JUMPDEST PUSH1 0x40 MLOAD DUP1 SWAP2 SUB SWAP1 REVERT JUMPDEST PUSH1 0x1 DUP3 DUP2 SLOAD DUP2 LT PUSH2 0x5E4 JUMPI PUSH2 0x5E3 PUSH2 0x13BE JUMP JUMPDEST JUMPDEST SWAP1 PUSH0 MSTORE PUSH1 0x20 PUSH0 KECCAK256 SWAP1 PUSH1 0x6 MUL ADD PUSH1 0x40 MLOAD DUP1 PUSH1 0xC0 ADD PUSH1 0x40 MSTORE SWAP1 DUP2 PUSH0 DUP3 ADD DUP1 SLOAD PUSH2 0x60A SWAP1 PUSH2 0x105A JUMP JUMPDEST DUP1 PUSH1 0x1F ADD PUSH1 0x20 DUP1 SWAP2 DIV MUL PUSH1 0x20 ADD PUSH1 0x40 MLOAD SWAP1 DUP2 ADD PUSH1 0x40 MSTORE DUP1 SWAP3 SWAP2 SWAP1 DUP2 DUP2 MSTORE PUSH1 0x20 ADD DUP3 DUP1 SLOAD PUSH2 0x636 SWAP1 PUSH2 0x105A JUMP JUMPDEST DUP1 ISZERO PUSH2 0x681 JUMPI DUP1 PUSH1 0x1F LT PUSH2 0x658 JUMPI PUSH2 0x100 DUP1 DUP4 SLOAD DIV MUL DUP4 MSTORE SWAP2 PUSH1 0x20 ADD SWAP2 PUSH2 0x681 JUMP JUMPDEST DUP3 ADD SWAP2 SWAP1 PUSH0 MSTORE PUSH1 0x20 PUSH0 KECCAK256 SWAP1 JUMPDEST DUP2 SLOAD DUP2 MSTORE SWAP1 PUSH1 0x1 ADD SWAP1 PUSH1 0x20 ADD DUP1 DUP4 GT PUSH2 0x664 JUMPI DUP3 SWAP1 SUB PUSH1 0x1F AND DUP3 ADD SWAP2 JUMPDEST POP POP POP POP POP DUP2 MSTORE PUSH1 0x20 ADD PUSH1 0x1 DUP3 ADD PUSH0 SWAP1 SLOAD SWAP1 PUSH2 0x100 EXP SWAP1 DIV PUSH1 0xFF AND ISZERO ISZERO ISZERO ISZERO DUP2 MSTORE PUSH1 0x20 ADD PUSH1 0x2 DUP3 ADD SLOAD DUP2 MSTORE PUSH1 0x20 ADD PUSH1 0x3 DUP3 ADD DUP1 SLOAD PUSH2 0x6BE SWAP1 PUSH2 0x105A JUMP JUMPDEST DUP1 PUSH1 0x1F ADD PUSH1 0x20 DUP1 SWAP2 DIV MUL PUSH1 0x20 ADD PUSH1 0x40 MLOAD SWAP1 DUP2 ADD PUSH1 0x40 MSTORE DUP1 SWAP3 SWAP2 SWAP1 DUP2 DUP2 MSTORE PUSH1 0x20 ADD DUP3 DUP1 SLOAD PUSH2 0x6EA SWAP1 PUSH2 0x105A JUMP JUMPDEST DUP1 ISZERO PUSH2 0x735 JUMPI DUP1 PUSH1 0x1F LT PUSH2 0x70C JUMPI PUSH2 0x100 DUP1 DUP4 SLOAD DIV MUL DUP4 MSTORE SWAP2 PUSH1 0x20 ADD SWAP2 PUSH2 0x735 JUMP JUMPDEST DUP3 ADD SWAP2 SWAP1 PUSH0 MSTORE PUSH1 0x20 PUSH0 KECCAK256 SWAP1 JUMPDEST DUP2 SLOAD DUP2 MSTORE SWAP1 PUSH1 0x1 ADD SWAP1 PUSH1 0x20 ADD DUP1 DUP4 GT PUSH2 0x718 JUMPI DUP3 SWAP1 SUB PUSH1 0x1F AND DUP3 ADD SWAP2 JUMPDEST POP POP POP POP POP DUP2 MSTORE PUSH1 0x20 ADD PUSH1 0x4 DUP3 ADD DUP1 SLOAD PUSH2 0x74E SWAP1 PUSH2 0x105A JUMP JUMPDEST DUP1 PUSH1 0x1F ADD PUSH1 0x20 DUP1 SWAP2 DIV MUL PUSH1 0x20 ADD PUSH1 0x40 MLOAD SWAP1 DUP2 ADD PUSH1 0x40 MSTORE DUP1 SWAP3 SWAP2 SWAP1 DUP2 DUP2 MSTORE PUSH1 0x20 ADD DUP3 DUP1 SLOAD PUSH2 0x77A SWAP1 PUSH2 0x105A JUMP JUMPDEST DUP1 ISZERO PUSH2 0x7C5 JUMPI DUP1 PUSH1 0x1F LT PUSH2 0x79C JUMPI PUSH2 0x100 DUP1 DUP4 SLOAD DIV MUL DUP4 MSTORE SWAP2 PUSH1 0x20 ADD SWAP2 PUSH2 0x7C5 JUMP JUMPDEST DUP3 ADD SWAP2 SWAP1 PUSH0 MSTORE PUSH1 0x20 PUSH0 KECCAK256 SWAP1 JUMPDEST DUP2 SLOAD DUP2 MSTORE SWAP1 PUSH1 0x1 ADD SWAP1 PUSH1 0x20 ADD DUP1 DUP4 GT PUSH2 0x7A8 JUMPI DUP3 SWAP1 SUB PUSH1 0x1F AND DUP3 ADD SWAP2 JUMPDEST POP POP POP POP POP DUP2 MSTORE PUSH1 0x20 ADD PUSH1 0x5 DUP3 ADD SLOAD DUP2 MSTORE POP POP SWAP1 POP SWAP2 SWAP1 POP JUMP JUMPDEST PUSH0 DUP1 DUP7 DUP2 MSTORE PUSH1 0x20 ADD SWAP1 DUP2 MSTORE PUSH1 0x20 ADD PUSH0 KECCAK256 PUSH0 DUP6 DUP2 MSTORE PUSH1 0x20 ADD SWAP1 DUP2 MSTORE PUSH1 0x20 ADD PUSH0 KECCAK256 PUSH1 0x40 MLOAD DUP1 PUSH1 0x80 ADD PUSH1 0x40 MSTORE DUP1 DUP7 DUP2 MSTORE PUSH1 0x20 ADD DUP6 DUP2 MSTORE PUSH1 0x20 ADD DUP5 DUP2 MSTORE PUSH1 0x20 ADD DUP4 DUP2 MSTORE POP SWAP1 DUP1 PUSH1 0x1 DUP2 SLOAD ADD DUP1 DUP3 SSTORE DUP1 SWAP2 POP POP PUSH1 0x1 SWAP1 SUB SWAP1 PUSH0 MSTORE PUSH1 0x20 PUSH0 KECCAK256 SWAP1 PUSH1 0x4 MUL ADD PUSH0 SWAP1 SWAP2 SWAP1 SWAP2 SWAP1 SWAP2 POP PUSH0 DUP3 ADD MLOAD DUP2 PUSH0 ADD SSTORE PUSH1 0x20 DUP3 ADD MLOAD DUP2 PUSH1 0x1 ADD SSTORE PUSH1 0x40 DUP3 ADD MLOAD DUP2 PUSH1 0x2 ADD SSTORE PUSH1 0x60 DUP3 ADD MLOAD DUP2 PUSH1 0x3 ADD SSTORE POP POP PUSH32 0xE920C436C1F1B04EEC68B8CDEB48D96C4D5D95F3CC10D4FD0A21978585C23E09 DUP6 DUP6 DUP6 DUP6 DUP6 PUSH1 0x40 MLOAD PUSH2 0x8A4 SWAP6 SWAP5 SWAP4 SWAP3 SWAP2 SWAP1 PUSH2 0x13EB JUMP JUMPDEST PUSH1 0x40 MLOAD DUP1 SWAP2 SUB SWAP1 LOG1 POP POP POP POP POP JUMP JUMPDEST PUSH1 0x40 MLOAD DUP1 PUSH1 0xC0 ADD PUSH1 0x40 MSTORE DUP1 PUSH1 0x60 DUP2 MSTORE PUSH1 0x20 ADD PUSH0 ISZERO ISZERO DUP2 MSTORE PUSH1 0x20 ADD PUSH0 DUP2 MSTORE PUSH1 0x20 ADD PUSH1 0x60 DUP2 MSTORE PUSH1 0x20 ADD PUSH1 0x60 DUP2 MSTORE PUSH1 0x20 ADD PUSH0 DUP2 MSTORE POP SWAP1 JUMP JUMPDEST PUSH0 PUSH1 0x40 MLOAD SWAP1 POP SWAP1 JUMP JUMPDEST PUSH0 DUP1 REVERT JUMPDEST PUSH0 DUP1 REVERT JUMPDEST PUSH0 DUP2 SWAP1 POP SWAP2 SWAP1 POP JUMP JUMPDEST PUSH2 0x90B DUP2 PUSH2 0x8F9 JUMP JUMPDEST DUP2 EQ PUSH2 0x915 JUMPI PUSH0 DUP1 REVERT JUMPDEST POP JUMP JUMPDEST PUSH0 DUP2 CALLDATALOAD SWAP1 POP PUSH2 0x926 DUP2 PUSH2 0x902 JUMP JUMPDEST SWAP3 SWAP2 POP POP JUMP JUMPDEST PUSH0 DUP1 PUSH0 PUSH1 0x60 DUP5 DUP7 SUB SLT ISZERO PUSH2 0x943 JUMPI PUSH2 0x942 PUSH2 0x8F1 JUMP JUMPDEST JUMPDEST PUSH0 PUSH2 0x950 DUP7 DUP3 DUP8 ADD PUSH2 0x918 JUMP JUMPDEST SWAP4 POP POP PUSH1 0x20 PUSH2 0x961 DUP7 DUP3 DUP8 ADD PUSH2 0x918 JUMP JUMPDEST SWAP3 POP POP PUSH1 0x40 PUSH2 0x972 DUP7 DUP3 DUP8 ADD PUSH2 0x918 JUMP JUMPDEST SWAP2 POP POP SWAP3 POP SWAP3 POP SWAP3 JUMP JUMPDEST PUSH2 0x985 DUP2 PUSH2 0x8F9 JUMP JUMPDEST DUP3 MSTORE POP POP JUMP JUMPDEST PUSH0 PUSH1 0x80 DUP3 ADD SWAP1 POP PUSH2 0x99E PUSH0 DUP4 ADD DUP8 PUSH2 0x97C JUMP JUMPDEST PUSH2 0x9AB PUSH1 0x20 DUP4 ADD DUP7 PUSH2 0x97C JUMP JUMPDEST PUSH2 0x9B8 PUSH1 0x40 DUP4 ADD DUP6 PUSH2 0x97C JUMP JUMPDEST PUSH2 0x9C5 PUSH1 0x60 DUP4 ADD DUP5 PUSH2 0x97C JUMP JUMPDEST SWAP6 SWAP5 POP POP POP POP POP JUMP JUMPDEST PUSH0 PUSH1 0x20 DUP3 DUP5 SUB SLT ISZERO PUSH2 0x9E3 JUMPI PUSH2 0x9E2 PUSH2 0x8F1 JUMP JUMPDEST JUMPDEST PUSH0 PUSH2 0x9F0 DUP5 DUP3 DUP6 ADD PUSH2 0x918 JUMP JUMPDEST SWAP2 POP POP SWAP3 SWAP2 POP POP JUMP JUMPDEST PUSH0 DUP2 MLOAD SWAP1 POP SWAP2 SWAP1 POP JUMP JUMPDEST PUSH0 DUP3 DUP3 MSTORE PUSH1 0x20 DUP3 ADD SWAP1 POP SWAP3 SWAP2 POP POP JUMP JUMPDEST DUP3 DUP2 DUP4 MCOPY PUSH0 DUP4 DUP4 ADD MSTORE POP POP POP JUMP JUMPDEST PUSH0 PUSH1 0x1F NOT PUSH1 0x1F DUP4 ADD AND SWAP1 POP SWAP2 SWAP1 POP JUMP JUMPDEST PUSH0 PUSH2 0xA3B DUP3 PUSH2 0x9F9 JUMP JUMPDEST PUSH2 0xA45 DUP2 DUP6 PUSH2 0xA03 JUMP JUMPDEST SWAP4 POP PUSH2 0xA55 DUP2 DUP6 PUSH1 0x20 DUP7 ADD PUSH2 0xA13 JUMP JUMPDEST PUSH2 0xA5E DUP2 PUSH2 0xA21 JUMP JUMPDEST DUP5 ADD SWAP2 POP POP SWAP3 SWAP2 POP POP JUMP JUMPDEST PUSH0 DUP2 ISZERO ISZERO SWAP1 POP SWAP2 SWAP1 POP JUMP JUMPDEST PUSH2 0xA7D DUP2 PUSH2 0xA69 JUMP JUMPDEST DUP3 MSTORE POP POP JUMP JUMPDEST PUSH0 PUSH1 0xC0 DUP3 ADD SWAP1 POP DUP2 DUP2 SUB PUSH0 DUP4 ADD MSTORE PUSH2 0xA9B DUP2 DUP10 PUSH2 0xA31 JUMP JUMPDEST SWAP1 POP PUSH2 0xAAA PUSH1 0x20 DUP4 ADD DUP9 PUSH2 0xA74 JUMP JUMPDEST PUSH2 0xAB7 PUSH1 0x40 DUP4 ADD DUP8 PUSH2 0x97C JUMP JUMPDEST DUP2 DUP2 SUB PUSH1 0x60 DUP4 ADD MSTORE PUSH2 0xAC9 DUP2 DUP7 PUSH2 0xA31 JUMP JUMPDEST SWAP1 POP DUP2 DUP2 SUB PUSH1 0x80 DUP4 ADD MSTORE PUSH2 0xADD DUP2 DUP6 PUSH2 0xA31 JUMP JUMPDEST SWAP1 POP PUSH2 0xAEC PUSH1 0xA0 DUP4 ADD DUP5 PUSH2 0x97C JUMP JUMPDEST SWAP8 SWAP7 POP POP POP POP POP POP POP JUMP JUMPDEST PUSH0 DUP1 REVERT JUMPDEST PUSH0 DUP1 REVERT JUMPDEST PUSH32 0x4E487B7100000000000000000000000000000000000000000000000000000000 PUSH0 MSTORE PUSH1 0x41 PUSH1 0x4 MSTORE PUSH1 0x24 PUSH0 REVERT JUMPDEST PUSH2 0xB35 DUP3 PUSH2 0xA21 JUMP JUMPDEST DUP2 ADD DUP2 DUP2 LT PUSH8 0xFFFFFFFFFFFFFFFF DUP3 GT OR ISZERO PUSH2 0xB54 JUMPI PUSH2 0xB53 PUSH2 0xAFF JUMP JUMPDEST JUMPDEST DUP1 PUSH1 0x40 MSTORE POP POP POP JUMP JUMPDEST PUSH0 PUSH2 0xB66 PUSH2 0x8E8 JUMP JUMPDEST SWAP1 POP PUSH2 0xB72 DUP3 DUP3 PUSH2 0xB2C JUMP JUMPDEST SWAP2 SWAP1 POP JUMP JUMPDEST PUSH0 PUSH8 0xFFFFFFFFFFFFFFFF DUP3 GT ISZERO PUSH2 0xB91 JUMPI PUSH2 0xB90 PUSH2 0xAFF JUMP JUMPDEST JUMPDEST PUSH2 0xB9A DUP3 PUSH2 0xA21 JUMP JUMPDEST SWAP1 POP PUSH1 0x20 DUP2 ADD SWAP1 POP SWAP2 SWAP1 POP JUMP JUMPDEST DUP3 DUP2 DUP4 CALLDATACOPY PUSH0 DUP4 DUP4 ADD MSTORE POP POP POP JUMP JUMPDEST PUSH0 PUSH2 0xBC7 PUSH2 0xBC2 DUP5 PUSH2 0xB77 JUMP JUMPDEST PUSH2 0xB5D JUMP JUMPDEST SWAP1 POP DUP3 DUP2 MSTORE PUSH1 0x20 DUP2 ADD DUP5 DUP5 DUP5 ADD GT ISZERO PUSH2 0xBE3 JUMPI PUSH2 0xBE2 PUSH2 0xAFB JUMP JUMPDEST JUMPDEST PUSH2 0xBEE DUP5 DUP3 DUP6 PUSH2 0xBA7 JUMP JUMPDEST POP SWAP4 SWAP3 POP POP POP JUMP JUMPDEST PUSH0 DUP3 PUSH1 0x1F DUP4 ADD SLT PUSH2 0xC0A JUMPI PUSH2 0xC09 PUSH2 0xAF7 JUMP JUMPDEST JUMPDEST DUP2 CALLDATALOAD PUSH2 0xC1A DUP5 DUP3 PUSH1 0x20 DUP7 ADD PUSH2 0xBB5 JUMP JUMPDEST SWAP2 POP POP SWAP3 SWAP2 POP POP JUMP JUMPDEST PUSH2 0xC2C DUP2 PUSH2 0xA69 JUMP JUMPDEST DUP2 EQ PUSH2 0xC36 JUMPI PUSH0 DUP1 REVERT JUMPDEST POP JUMP JUMPDEST PUSH0 DUP2 CALLDATALOAD SWAP1 POP PUSH2 0xC47 DUP2 PUSH2 0xC23 JUMP JUMPDEST SWAP3 SWAP2 POP POP JUMP JUMPDEST PUSH0 DUP1 PUSH0 DUP1 PUSH0 DUP1 PUSH1 0xC0 DUP8 DUP10 SUB SLT ISZERO PUSH2 0xC67 JUMPI PUSH2 0xC66 PUSH2 0x8F1 JUMP JUMPDEST JUMPDEST PUSH0 DUP8 ADD CALLDATALOAD PUSH8 0xFFFFFFFFFFFFFFFF DUP2 GT ISZERO PUSH2 0xC84 JUMPI PUSH2 0xC83 PUSH2 0x8F5 JUMP JUMPDEST JUMPDEST PUSH2 0xC90 DUP10 DUP3 DUP11 ADD PUSH2 0xBF6 JUMP JUMPDEST SWAP7 POP POP PUSH1 0x20 PUSH2 0xCA1 DUP10 DUP3 DUP11 ADD PUSH2 0xC39 JUMP JUMPDEST SWAP6 POP POP PUSH1 0x40 PUSH2 0xCB2 DUP10 DUP3 DUP11 ADD PUSH2 0x918 JUMP JUMPDEST SWAP5 POP POP PUSH1 0x60 DUP8 ADD CALLDATALOAD PUSH8 0xFFFFFFFFFFFFFFFF DUP2 GT ISZERO PUSH2 0xCD3 JUMPI PUSH2 0xCD2 PUSH2 0x8F5 JUMP JUMPDEST JUMPDEST PUSH2 0xCDF DUP10 DUP3 DUP11 ADD PUSH2 0xBF6 JUMP JUMPDEST SWAP4 POP POP PUSH1 0x80 DUP8 ADD CALLDATALOAD PUSH8 0xFFFFFFFFFFFFFFFF DUP2 GT ISZERO PUSH2 0xD00 JUMPI PUSH2 0xCFF PUSH2 0x8F5 JUMP JUMPDEST JUMPDEST PUSH2 0xD0C DUP10 DUP3 DUP11 ADD PUSH2 0xBF6 JUMP JUMPDEST SWAP3 POP POP PUSH1 0xA0 PUSH2 0xD1D DUP10 DUP3 DUP11 ADD PUSH2 0x918 JUMP JUMPDEST SWAP2 POP POP SWAP3 SWAP6 POP SWAP3 SWAP6 POP SWAP3 SWAP6 JUMP JUMPDEST PUSH0 PUSH1 0x20 DUP3 ADD SWAP1 POP PUSH2 0xD3D PUSH0 DUP4 ADD DUP5 PUSH2 0x97C JUMP JUMPDEST SWAP3 SWAP2 POP POP JUMP JUMPDEST PUSH0 DUP1 PUSH1 0x40 DUP4 DUP6 SUB SLT ISZERO PUSH2 0xD59 JUMPI PUSH2 0xD58 PUSH2 0x8F1 JUMP JUMPDEST JUMPDEST PUSH0 PUSH2 0xD66 DUP6 DUP3 DUP7 ADD PUSH2 0x918 JUMP JUMPDEST SWAP3 POP POP PUSH1 0x20 PUSH2 0xD77 DUP6 DUP3 DUP7 ADD PUSH2 0x918 JUMP JUMPDEST SWAP2 POP POP SWAP3 POP SWAP3 SWAP1 POP JUMP JUMPDEST PUSH0 DUP2 MLOAD SWAP1 POP SWAP2 SWAP1 POP JUMP JUMPDEST PUSH0 DUP3 DUP3 MSTORE PUSH1 0x20 DUP3 ADD SWAP1 POP SWAP3 SWAP2 POP POP JUMP JUMPDEST PUSH0 DUP2 SWAP1 POP PUSH1 0x20 DUP3 ADD SWAP1 POP SWAP2 SWAP1 POP JUMP JUMPDEST PUSH2 0xDB3 DUP2 PUSH2 0x8F9 JUMP JUMPDEST DUP3 MSTORE POP POP JUMP JUMPDEST PUSH1 0x80 DUP3 ADD PUSH0 DUP3 ADD MLOAD PUSH2 0xDCD PUSH0 DUP6 ADD DUP3 PUSH2 0xDAA JUMP JUMPDEST POP PUSH1 0x20 DUP3 ADD MLOAD PUSH2 0xDE0 PUSH1 0x20 DUP6 ADD DUP3 PUSH2 0xDAA JUMP JUMPDEST POP PUSH1 0x40 DUP3 ADD MLOAD PUSH2 0xDF3 PUSH1 0x40 DUP6 ADD DUP3 PUSH2 0xDAA JUMP JUMPDEST POP PUSH1 0x60 DUP3 ADD MLOAD PUSH2 0xE06 PUSH1 0x60 DUP6 ADD DUP3 PUSH2 0xDAA JUMP JUMPDEST POP POP POP POP JUMP JUMPDEST PUSH0 PUSH2 0xE17 DUP4 DUP4 PUSH2 0xDB9 JUMP JUMPDEST PUSH1 0x80 DUP4 ADD SWAP1 POP SWAP3 SWAP2 POP POP JUMP JUMPDEST PUSH0 PUSH1 0x20 DUP3 ADD SWAP1 POP SWAP2 SWAP1 POP JUMP JUMPDEST PUSH0 PUSH2 0xE39 DUP3 PUSH2 0xD81 JUMP JUMPDEST PUSH2 0xE43 DUP2 DUP6 PUSH2 0xD8B JUMP JUMPDEST SWAP4 POP PUSH2 0xE4E DUP4 PUSH2 0xD9B JUMP JUMPDEST DUP1 PUSH0 JUMPDEST DUP4 DUP2 LT ISZERO PUSH2 0xE7E JUMPI DUP2 MLOAD PUSH2 0xE65 DUP9 DUP3 PUSH2 0xE0C JUMP JUMPDEST SWAP8 POP PUSH2 0xE70 DUP4 PUSH2 0xE23 JUMP JUMPDEST SWAP3 POP POP PUSH1 0x1 DUP2 ADD SWAP1 POP PUSH2 0xE51 JUMP JUMPDEST POP DUP6 SWAP4 POP POP POP POP SWAP3 SWAP2 POP POP JUMP JUMPDEST PUSH0 PUSH1 0x20 DUP3 ADD SWAP1 POP DUP2 DUP2 SUB PUSH0 DUP4 ADD MSTORE PUSH2 0xEA3 DUP2 DUP5 PUSH2 0xE2F JUMP JUMPDEST SWAP1 POP SWAP3 SWAP2 POP POP JUMP JUMPDEST PUSH0 DUP3 DUP3 MSTORE PUSH1 0x20 DUP3 ADD SWAP1 POP SWAP3 SWAP2 POP POP JUMP JUMPDEST PUSH0 PUSH2 0xEC5 DUP3 PUSH2 0x9F9 JUMP JUMPDEST PUSH2 0xECF DUP2 DUP6 PUSH2 0xEAB JUMP JUMPDEST SWAP4 POP PUSH2 0xEDF DUP2 DUP6 PUSH1 0x20 DUP7 ADD PUSH2 0xA13 JUMP JUMPDEST PUSH2 0xEE8 DUP2 PUSH2 0xA21 JUMP JUMPDEST DUP5 ADD SWAP2 POP POP SWAP3 SWAP2 POP POP JUMP JUMPDEST PUSH2 0xEFC DUP2 PUSH2 0xA69 JUMP JUMPDEST DUP3 MSTORE POP POP JUMP JUMPDEST PUSH0 PUSH1 0xC0 DUP4 ADD PUSH0 DUP4 ADD MLOAD DUP5 DUP3 SUB PUSH0 DUP7 ADD MSTORE PUSH2 0xF1C DUP3 DUP3 PUSH2 0xEBB JUMP JUMPDEST SWAP2 POP POP PUSH1 0x20 DUP4 ADD MLOAD PUSH2 0xF31 PUSH1 0x20 DUP7 ADD DUP3 PUSH2 0xEF3 JUMP JUMPDEST POP PUSH1 0x40 DUP4 ADD MLOAD PUSH2 0xF44 PUSH1 0x40 DUP7 ADD DUP3 PUSH2 0xDAA JUMP JUMPDEST POP PUSH1 0x60 DUP4 ADD MLOAD DUP5 DUP3 SUB PUSH1 0x60 DUP7 ADD MSTORE PUSH2 0xF5C DUP3 DUP3 PUSH2 0xEBB JUMP JUMPDEST SWAP2 POP POP PUSH1 0x80 DUP4 ADD MLOAD DUP5 DUP3 SUB PUSH1 0x80 DUP7 ADD MSTORE PUSH2 0xF76 DUP3 DUP3 PUSH2 0xEBB JUMP JUMPDEST SWAP2 POP POP PUSH1 0xA0 DUP4 ADD MLOAD PUSH2 0xF8B PUSH1 0xA0 DUP7 ADD DUP3 PUSH2 0xDAA JUMP JUMPDEST POP DUP1 SWAP2 POP POP SWAP3 SWAP2 POP POP JUMP JUMPDEST PUSH0 PUSH1 0x20 DUP3 ADD SWAP1 POP DUP2 DUP2 SUB PUSH0 DUP4 ADD MSTORE PUSH2 0xFAE DUP2 DUP5 PUSH2 0xF02 JUMP JUMPDEST SWAP1 POP SWAP3 SWAP2 POP POP JUMP JUMPDEST PUSH0 DUP1 PUSH0 DUP1 PUSH0 PUSH1 0xA0 DUP7 DUP9 SUB SLT ISZERO PUSH2 0xFCF JUMPI PUSH2 0xFCE PUSH2 0x8F1 JUMP JUMPDEST JUMPDEST PUSH0 PUSH2 0xFDC DUP9 DUP3 DUP10 ADD PUSH2 0x918 JUMP JUMPDEST SWAP6 POP POP PUSH1 0x20 PUSH2 0xFED DUP9 DUP3 DUP10 ADD PUSH2 0x918 JUMP JUMPDEST SWAP5 POP POP PUSH1 0x40 PUSH2 0xFFE DUP9 DUP3 DUP10 ADD PUSH2 0x918 JUMP JUMPDEST SWAP4 POP POP PUSH1 0x60 PUSH2 0x100F DUP9 DUP3 DUP10 ADD PUSH2 0x918 JUMP JUMPDEST SWAP3 POP POP PUSH1 0x80 PUSH2 0x1020 DUP9 DUP3 DUP10 ADD PUSH2 0x918 JUMP JUMPDEST SWAP2 POP POP SWAP3 SWAP6 POP SWAP3 SWAP6 SWAP1 SWAP4 POP JUMP JUMPDEST PUSH32 0x4E487B7100000000000000000000000000000000000000000000000000000000 PUSH0 MSTORE PUSH1 0x22 PUSH1 0x4 MSTORE PUSH1 0x24 PUSH0 REVERT JUMPDEST PUSH0 PUSH1 0x2 DUP3 DIV SWAP1 POP PUSH1 0x1 DUP3 AND DUP1 PUSH2 0x1071 JUMPI PUSH1 0x7F DUP3 AND SWAP2 POP JUMPDEST PUSH1 0x20 DUP3 LT DUP2 SUB PUSH2 0x1084 JUMPI PUSH2 0x1083 PUSH2 0x102D JUMP JUMPDEST JUMPDEST POP SWAP2 SWAP1 POP JUMP JUMPDEST PUSH0 DUP2 SWAP1 POP DUP2 PUSH0 MSTORE PUSH1 0x20 PUSH0 KECCAK256 SWAP1 POP SWAP2 SWAP1 POP JUMP JUMPDEST PUSH0 PUSH1 0x20 PUSH1 0x1F DUP4 ADD DIV SWAP1 POP SWAP2 SWAP1 POP JUMP JUMPDEST PUSH0 DUP3 DUP3 SHL SWAP1 POP SWAP3 SWAP2 POP POP JUMP JUMPDEST PUSH0 PUSH1 0x8 DUP4 MUL PUSH2 0x10E6 PUSH32 0xFFFFFFFFFFFFFFFFFFFFFFFFFFFFFFFFFFFFFFFFFFFFFFFFFFFFFFFFFFFFFFFF DUP3 PUSH2 0x10AB JUMP JUMPDEST PUSH2 0x10F0 DUP7 DUP4 PUSH2 0x10AB JUMP JUMPDEST SWAP6 POP DUP1 NOT DUP5 AND SWAP4 POP DUP1 DUP7 AND DUP5 OR SWAP3 POP POP POP SWAP4 SWAP3 POP POP POP JUMP JUMPDEST PUSH0 DUP2 SWAP1 POP SWAP2 SWAP1 POP JUMP JUMPDEST PUSH0 PUSH2 0x112B PUSH2 0x1126 PUSH2 0x1121 DUP5 PUSH2 0x8F9 JUMP JUMPDEST PUSH2 0x1108 JUMP JUMPDEST PUSH2 0x8F9 JUMP JUMPDEST SWAP1 POP SWAP2 SWAP1 POP JUMP JUMPDEST PUSH0 DUP2 SWAP1 POP SWAP2 SWAP1 POP JUMP JUMPDEST PUSH2 0x1144 DUP4 PUSH2 0x1111 JUMP JUMPDEST PUSH2 0x1158 PUSH2 0x1150 DUP3 PUSH2 0x1132 JUMP JUMPDEST DUP5 DUP5 SLOAD PUSH2 0x10B7 JUMP JUMPDEST DUP3 SSTORE POP POP POP POP JUMP JUMPDEST PUSH0 SWAP1 JUMP JUMPDEST PUSH2 0x116C PUSH2 0x1160 JUMP JUMPDEST PUSH2 0x1177 DUP2 DUP5 DUP5 PUSH2 0x113B JUMP JUMPDEST POP POP POP JUMP JUMPDEST JUMPDEST DUP2 DUP2 LT ISZERO PUSH2 0x119A JUMPI PUSH2 0x118F PUSH0 DUP3 PUSH2 0x1164 JUMP JUMPDEST PUSH1 0x1 DUP2 ADD SWAP1 POP PUSH2 0x117D JUMP JUMPDEST POP POP JUMP JUMPDEST PUSH1 0x1F DUP3 GT ISZERO PUSH2 0x11DF JUMPI PUSH2 0x11B0 DUP2 PUSH2 0x108A JUMP JUMPDEST PUSH2 0x11B9 DUP5 PUSH2 0x109C JUMP JUMPDEST DUP2 ADD PUSH1 0x20 DUP6 LT ISZERO PUSH2 0x11C8 JUMPI DUP2 SWAP1 POP JUMPDEST PUSH2 0x11DC PUSH2 0x11D4 DUP6 PUSH2 0x109C JUMP JUMPDEST DUP4 ADD DUP3 PUSH2 0x117C JUMP JUMPDEST POP POP JUMPDEST POP POP POP JUMP JUMPDEST PUSH0 DUP3 DUP3 SHR SWAP1 POP SWAP3 SWAP2 POP POP JUMP JUMPDEST PUSH0 PUSH2 0x11FF PUSH0 NOT DUP5 PUSH1 0x8 MUL PUSH2 0x11E4 JUMP JUMPDEST NOT DUP1 DUP4 AND SWAP2 POP POP SWAP3 SWAP2 POP POP JUMP JUMPDEST PUSH0 PUSH2 0x1217 DUP4 DUP4 PUSH2 0x11F0 JUMP JUMPDEST SWAP2 POP DUP3 PUSH1 0x2 MUL DUP3 OR SWAP1 POP SWAP3 SWAP2 POP POP JUMP JUMPDEST PUSH2 0x1230 DUP3 PUSH2 0x9F9 JUMP JUMPDEST PUSH8 0xFFFFFFFFFFFFFFFF DUP2 GT ISZERO PUSH2 0x1249 JUMPI PUSH2 0x1248 PUSH2 0xAFF JUMP JUMPDEST JUMPDEST PUSH2 0x1253 DUP3 SLOAD PUSH2 0x105A JUMP JUMPDEST PUSH2 0x125E DUP3 DUP3 DUP6 PUSH2 0x119E JUMP JUMPDEST PUSH0 PUSH1 0x20 SWAP1 POP PUSH1 0x1F DUP4 GT PUSH1 0x1 DUP2 EQ PUSH2 0x128F JUMPI PUSH0 DUP5 ISZERO PUSH2 0x127D JUMPI DUP3 DUP8 ADD MLOAD SWAP1 POP JUMPDEST PUSH2 0x1287 DUP6 DUP3 PUSH2 0x120C JUMP JUMPDEST DUP7 SSTORE POP PUSH2 0x12EE JUMP JUMPDEST PUSH1 0x1F NOT DUP5 AND PUSH2 0x129D DUP7 PUSH2 0x108A JUMP JUMPDEST PUSH0 JUMPDEST DUP3 DUP2 LT ISZERO PUSH2 0x12C4 JUMPI DUP5 DUP10 ADD MLOAD DUP3 SSTORE PUSH1 0x1 DUP3 ADD SWAP2 POP PUSH1 0x20 DUP6 ADD SWAP5 POP PUSH1 0x20 DUP2 ADD SWAP1 POP PUSH2 0x129F JUMP JUMPDEST DUP7 DUP4 LT ISZERO PUSH2 0x12E1 JUMPI DUP5 DUP10 ADD MLOAD PUSH2 0x12DD PUSH1 0x1F DUP10 AND DUP3 PUSH2 0x11F0 JUMP JUMPDEST DUP4 SSTORE POP JUMPDEST PUSH1 0x1 PUSH1 0x2 DUP9 MUL ADD DUP9 SSTORE POP POP POP JUMPDEST POP POP POP POP POP POP JUMP JUMPDEST PUSH32 0x4E487B7100000000000000000000000000000000000000000000000000000000 PUSH0 MSTORE PUSH1 0x11 PUSH1 0x4 MSTORE PUSH1 0x24 PUSH0 REVERT JUMPDEST PUSH0 PUSH2 0x132D DUP3 PUSH2 0x8F9 JUMP JUMPDEST SWAP2 POP PUSH2 0x1338 DUP4 PUSH2 0x8F9 JUMP JUMPDEST SWAP3 POP DUP3 DUP3 SUB SWAP1 POP DUP2 DUP2 GT ISZERO PUSH2 0x1350 JUMPI PUSH2 0x134F PUSH2 0x12F6 JUMP JUMPDEST JUMPDEST SWAP3 SWAP2 POP POP JUMP JUMPDEST PUSH32 0x5265636569707420646F6573206E6F742065786973742E000000000000000000 PUSH0 DUP3 ADD MSTORE POP JUMP JUMPDEST PUSH0 PUSH2 0x138A PUSH1 0x17 DUP4 PUSH2 0xA03 JUMP JUMPDEST SWAP2 POP PUSH2 0x1395 DUP3 PUSH2 0x1356 JUMP JUMPDEST PUSH1 0x20 DUP3 ADD SWAP1 POP SWAP2 SWAP1 POP JUMP JUMPDEST PUSH0 PUSH1 0x20 DUP3 ADD SWAP1 POP DUP2 DUP2 SUB PUSH0 DUP4 ADD MSTORE PUSH2 0x13B7 DUP2 PUSH2 0x137E JUMP JUMPDEST SWAP1 POP SWAP2 SWAP1 POP JUMP JUMPDEST PUSH32 0x4E487B7100000000000000000000000000000000000000000000000000000000 PUSH0 MSTORE PUSH1 0x32 PUSH1 0x4 MSTORE PUSH1 0x24 PUSH0 REVERT JUMPDEST PUSH0 PUSH1 0xA0 DUP3 ADD SWAP1 POP PUSH2 0x13FE PUSH0 DUP4 ADD DUP9 PUSH2 0x97C JUMP JUMPDEST PUSH2 0x140B PUSH1 0x20 DUP4 ADD DUP8 PUSH2 0x97C JUMP JUMPDEST PUSH2 0x1418 PUSH1 0x40 DUP4 ADD DUP7 PUSH2 0x97C JUMP JUMPDEST PUSH2 0x1425 PUSH1 0x60 DUP4 ADD DUP6 PUSH2 0x97C JUMP JUMPDEST PUSH2 0x1432 PUSH1 0x80 DUP4 ADD DUP5 PUSH2 0x97C JUMP JUMPDEST SWAP7 SWAP6 POP POP POP POP POP POP JUMP INVALID LOG2 PUSH5 0x6970667358 0x22 SLT KECCAK256 PUSH7 0x37B7F7712EB1A9 0xB4 0xBF PUSH18 0x21C2D69E53B90F0FC36E75E7C111081A6040 GAS 0xDC 0xEC PUSH5 0x736F6C6343 STOP ADDMOD NOT STOP CALLER "
	},
	"Assembly": ".code\n  PUSH 80\t\t\tcontract WalkWalk {\\r\\n    str...\n  PUSH 40\t\t\tcontract WalkWalk {\\r\\n    str...\n  MSTORE \t\t\tcontract WalkWalk {\\r\\n    str...\n  CALLVALUE \t\t\tcontract WalkWalk {\\r\\n    str...\n  DUP1 \t\t\tcontract WalkWalk {\\r\\n    str...\n  ISZERO \t\t\tcontract WalkWalk {\\r\\n    str...\n  PUSH [tag] 1\t\t\tcontract WalkWalk {\\r\\n    str...\n  JUMPI \t\t\tcontract WalkWalk {\\r\\n    str...\n  PUSH 0\t\t\tcontract WalkWalk {\\r\\n    str...\n  DUP1 \t\t\tcontract WalkWalk {\\r\\n    str...\n  REVERT \t\t\tcontract WalkWalk {\\r\\n    str...\ntag 1\t\t\tcontract WalkWalk {\\r\\n    str...\n  JUMPDEST \t\t\tcontract WalkWalk {\\r\\n    str...\n  POP \t\t\tcontract WalkWalk {\\r\\n    str...\n  PUSH #[$] 0000000000000000000000000000000000000000000000000000000000000000\t\t\tcontract WalkWalk {\\r\\n    str...\n  DUP1 \t\t\tcontract WalkWalk {\\r\\n    str...\n  PUSH [$] 0000000000000000000000000000000000000000000000000000000000000000\t\t\tcontract WalkWalk {\\r\\n    str...\n  PUSH 0\t\t\tcontract WalkWalk {\\r\\n    str...\n  CODECOPY \t\t\tcontract WalkWalk {\\r\\n    str...\n  PUSH 0\t\t\tcontract WalkWalk {\\r\\n    str...\n  RETURN \t\t\tcontract WalkWalk {\\r\\n    str...\n.data\n  0:\n    .code\n      PUSH 80\t\t\tcontract WalkWalk {\\r\\n    str...\n      PUSH 40\t\t\tcontract WalkWalk {\\r\\n    str...\n      MSTORE \t\t\tcontract WalkWalk {\\r\\n    str...\n      CALLVALUE \t\t\tcontract WalkWalk {\\r\\n    str...\n      DUP1 \t\t\tcontract WalkWalk {\\r\\n    str...\n      ISZERO \t\t\tcontract WalkWalk {\\r\\n    str...\n      PUSH [tag] 1\t\t\tcontract WalkWalk {\\r\\n    str...\n      JUMPI \t\t\tcontract WalkWalk {\\r\\n    str...\n      PUSH 0\t\t\tcontract WalkWalk {\\r\\n    str...\n      DUP1 \t\t\tcontract WalkWalk {\\r\\n    str...\n      REVERT \t\t\tcontract WalkWalk {\\r\\n    str...\n    tag 1\t\t\tcontract WalkWalk {\\r\\n    str...\n      JUMPDEST \t\t\tcontract WalkWalk {\\r\\n    str...\n      POP \t\t\tcontract WalkWalk {\\r\\n    str...\n      PUSH 4\t\t\tcontract WalkWalk {\\r\\n    str...\n      CALLDATASIZE \t\t\tcontract WalkWalk {\\r\\n    str...\n      LT \t\t\tcontract WalkWalk {\\r\\n    str...\n      PUSH [tag] 2\t\t\tcontract WalkWalk {\\r\\n    str...\n      JUMPI \t\t\tcontract WalkWalk {\\r\\n    str...\n      PUSH 0\t\t\tcontract WalkWalk {\\r\\n    str...\n      CALLDATALOAD \t\t\tcontract WalkWalk {\\r\\n    str...\n      PUSH E0\t\t\tcontract WalkWalk {\\r\\n    str...\n      SHR \t\t\tcontract WalkWalk {\\r\\n    str...\n      DUP1 \t\t\tcontract WalkWalk {\\r\\n    str...\n      PUSH 69EFA7C\t\t\tcontract WalkWalk {\\r\\n    str...\n      EQ \t\t\tcontract WalkWalk {\\r\\n    str...\n      PUSH [tag] 3\t\t\tcontract WalkWalk {\\r\\n    str...\n      JUMPI \t\t\tcontract WalkWalk {\\r\\n    str...\n      DUP1 \t\t\tcontract WalkWalk {\\r\\n    str...\n      PUSH F7EE1EC\t\t\tcontract WalkWalk {\\r\\n    str...\n      EQ \t\t\tcontract WalkWalk {\\r\\n    str...\n      PUSH [tag] 4\t\t\tcontract WalkWalk {\\r\\n    str...\n      JUMPI \t\t\tcontract WalkWalk {\\r\\n    str...\n      DUP1 \t\t\tcontract WalkWalk {\\r\\n    str...\n      PUSH 32E7847B\t\t\tcontract WalkWalk {\\r\\n    str...\n      EQ \t\t\tcontract WalkWalk {\\r\\n    str...\n      PUSH [tag] 5\t\t\tcontract WalkWalk {\\r\\n    str...\n      JUMPI \t\t\tcontract WalkWalk {\\r\\n    str...\n      DUP1 \t\t\tcontract WalkWalk {\\r\\n    str...\n      PUSH 8CC5ED93\t\t\tcontract WalkWalk {\\r\\n    str...\n      EQ \t\t\tcontract WalkWalk {\\r\\n    str...\n      PUSH [tag] 6\t\t\tcontract WalkWalk {\\r\\n    str...\n      JUMPI \t\t\tcontract WalkWalk {\\r\\n    str...\n      DUP1 \t\t\tcontract WalkWalk {\\r\\n    str...\n      PUSH B63E6AC3\t\t\tcontract WalkWalk {\\r\\n    str...\n      EQ \t\t\tcontract WalkWalk {\\r\\n    str...\n      PUSH [tag] 7\t\t\tcontract WalkWalk {\\r\\n    str...\n      JUMPI \t\t\tcontract WalkWalk {\\r\\n    str...\n      DUP1 \t\t\tcontract WalkWalk {\\r\\n    str...\n      PUSH D3E37745\t\t\tcontract WalkWalk {\\r\\n    str...\n      EQ \t\t\tcontract WalkWalk {\\r\\n    str...\n      PUSH [tag] 8\t\t\tcontract WalkWalk {\\r\\n    str...\n      JUMPI \t\t\tcontract WalkWalk {\\r\\n    str...\n    tag 2\t\t\tcontract WalkWalk {\\r\\n    str...\n      JUMPDEST \t\t\tcontract WalkWalk {\\r\\n    str...\n      PUSH 0\t\t\tcontract WalkWalk {\\r\\n    str...\n      DUP1 \t\t\tcontract WalkWalk {\\r\\n    str...\n      REVERT \t\t\tcontract WalkWalk {\\r\\n    str...\n    tag 3\t\t\t)) public exerciseRecordsByTim...\n      JUMPDEST \t\t\t)) public exerciseRecordsByTim...\n      PUSH [tag] 9\t\t\t)) public exerciseRecordsByTim...\n      PUSH 4\t\t\t)) public exerciseRecordsByTim...\n      DUP1 \t\t\t)) public exerciseRecordsByTim...\n      CALLDATASIZE \t\t\t)) public exerciseRecordsByTim...\n      SUB \t\t\t)) public exerciseRecordsByTim...\n      DUP2 \t\t\t)) public exerciseRecordsByTim...\n      ADD \t\t\t)) public exerciseRecordsByTim...\n      SWAP1 \t\t\t)) public exerciseRecordsByTim...\n      PUSH [tag] 10\t\t\t)) public exerciseRecordsByTim...\n      SWAP2 \t\t\t)) public exerciseRecordsByTim...\n      SWAP1 \t\t\t)) public exerciseRecordsByTim...\n      PUSH [tag] 11\t\t\t)) public exerciseRecordsByTim...\n      JUMP \t\t\t)) public exerciseRecordsByTim...\n    tag 10\t\t\t)) public exerciseRecordsByTim...\n      JUMPDEST \t\t\t)) public exerciseRecordsByTim...\n      PUSH [tag] 12\t\t\t)) public exerciseRecordsByTim...\n      JUMP \t\t\t)) public exerciseRecordsByTim...\n    tag 9\t\t\t)) public exerciseRecordsByTim...\n      JUMPDEST \t\t\t)) public exerciseRecordsByTim...\n      PUSH 40\t\t\t)) public exerciseRecordsByTim...\n      MLOAD \t\t\t)) public exerciseRecordsByTim...\n      PUSH [tag] 13\t\t\t)) public exerciseRecordsByTim...\n      SWAP5 \t\t\t)) public exerciseRecordsByTim...\n      SWAP4 \t\t\t)) public exerciseRecordsByTim...\n      SWAP3 \t\t\t)) public exerciseRecordsByTim...\n      SWAP2 \t\t\t)) public exerciseRecordsByTim...\n      SWAP1 \t\t\t)) public exerciseRecordsByTim...\n      PUSH [tag] 14\t\t\t)) public exerciseRecordsByTim...\n      JUMP \t\t\t)) public exerciseRecordsByTim...\n    tag 13\t\t\t)) public exerciseRecordsByTim...\n      JUMPDEST \t\t\t)) public exerciseRecordsByTim...\n      PUSH 40\t\t\t)) public exerciseRecordsByTim...\n      MLOAD \t\t\t)) public exerciseRecordsByTim...\n      DUP1 \t\t\t)) public exerciseRecordsByTim...\n      SWAP2 \t\t\t)) public exerciseRecordsByTim...\n      SUB \t\t\t)) public exerciseRecordsByTim...\n      SWAP1 \t\t\t)) public exerciseRecordsByTim...\n      RETURN \t\t\t)) public exerciseRecordsByTim...\n    tag 4\t\t\txed receiptId, string wal\n      JUMPDEST \t\t\txed receiptId, string wal\n      PUSH [tag] 15\t\t\txed receiptId, string wal\n      PUSH 4\t\t\txed receiptId, string wal\n      DUP1 \t\t\txed receiptId, string wal\n      CALLDATASIZE \t\t\txed receiptId, string wal\n      SUB \t\t\txed receiptId, string wal\n      DUP2 \t\t\txed receiptId, string wal\n      ADD \t\t\txed receiptId, string wal\n      SWAP1 \t\t\txed receiptId, string wal\n      PUSH [tag] 16\t\t\txed receiptId, string wal\n      SWAP2 \t\t\txed receiptId, string wal\n      SWAP1 \t\t\txed receiptId, string wal\n      PUSH [tag] 17\t\t\txed receiptId, string wal\n      JUMP \t\t\txed receiptId, string wal\n    tag 16\t\t\txed receiptId, string wal\n      JUMPDEST \t\t\txed receiptId, string wal\n      PUSH [tag] 18\t\t\txed receiptId, string wal\n      JUMP \t\t\txed receiptId, string wal\n    tag 15\t\t\txed receiptId, string wal\n      JUMPDEST \t\t\txed receiptId, string wal\n      PUSH 40\t\t\txed receiptId, string wal\n      MLOAD \t\t\txed receiptId, string wal\n      PUSH [tag] 19\t\t\txed receiptId, string wal\n      SWAP7 \t\t\txed receiptId, string wal\n      SWAP6 \t\t\txed receiptId, string wal\n      SWAP5 \t\t\txed receiptId, string wal\n      SWAP4 \t\t\txed receiptId, string wal\n      SWAP3 \t\t\txed receiptId, string wal\n      SWAP2 \t\t\txed receiptId, string wal\n      SWAP1 \t\t\txed receiptId, string wal\n      PUSH [tag] 20\t\t\txed receiptId, string wal\n      JUMP \t\t\txed receiptId, string wal\n    tag 19\t\t\txed receiptId, string wal\n      JUMPDEST \t\t\txed receiptId, string wal\n      PUSH 40\t\t\txed receiptId, string wal\n      MLOAD \t\t\txed receiptId, string wal\n      DUP1 \t\t\txed receiptId, string wal\n      SWAP2 \t\t\txed receiptId, string wal\n      SUB \t\t\txed receiptId, string wal\n      SWAP1 \t\t\txed receiptId, string wal\n      RETURN \t\t\txed receiptId, string wal\n    tag 5\t\t\treceiptId = receipts.length - ...\n      JUMPDEST \t\t\treceiptId = receipts.length - ...\n      PUSH [tag] 21\t\t\treceiptId = receipts.length - ...\n      PUSH 4\t\t\treceiptId = receipts.length - ...\n      DUP1 \t\t\treceiptId = receipts.length - ...\n      CALLDATASIZE \t\t\treceiptId = receipts.length - ...\n      SUB \t\t\treceiptId = receipts.length - ...\n      DUP2 \t\t\treceiptId = receipts.length - ...\n      ADD \t\t\treceiptId = receipts.length - ...\n      SWAP1 \t\t\treceiptId = receipts.length - ...\n      PUSH [tag] 22\t\t\treceiptId = receipts.length - ...\n      SWAP2 \t\t\treceiptId = receipts.length - ...\n      SWAP1 \t\t\treceiptId = receipts.length - ...\n      PUSH [tag] 23\t\t\treceiptId = receipts.length - ...\n      JUMP \t\t\treceiptId = receipts.length - ...\n    tag 22\t\t\treceiptId = receipts.length - ...\n      JUMPDEST \t\t\treceiptId = receipts.length - ...\n      PUSH [tag] 24\t\t\treceiptId = receipts.length - ...\n      JUMP \t\t\treceiptId = receipts.length - ...\n    tag 21\t\t\treceiptId = receipts.length - ...\n      JUMPDEST \t\t\treceiptId = receipts.length - ...\n      PUSH 40\t\t\treceiptId = receipts.length - ...\n      MLOAD \t\t\treceiptId = receipts.length - ...\n      PUSH [tag] 25\t\t\treceiptId = receipts.length - ...\n      SWAP2 \t\t\treceiptId = receipts.length - ...\n      SWAP1 \t\t\treceiptId = receipts.length - ...\n      PUSH [tag] 26\t\t\treceiptId = receipts.length - ...\n      JUMP \t\t\treceiptId = receipts.length - ...\n    tag 25\t\t\treceiptId = receipts.length - ...\n      JUMPDEST \t\t\treceiptId = receipts.length - ...\n      PUSH 40\t\t\treceiptId = receipts.length - ...\n      MLOAD \t\t\treceiptId = receipts.length - ...\n      DUP1 \t\t\treceiptId = receipts.length - ...\n      SWAP2 \t\t\treceiptId = receipts.length - ...\n      SUB \t\t\treceiptId = receipts.length - ...\n      SWAP1 \t\t\treceiptId = receipts.length - ...\n      RETURN \t\t\treceiptId = receipts.length - ...\n    tag 6\t\t\tType, bool _operator, uint _pr...\n      JUMPDEST \t\t\tType, bool _operator, uint _pr...\n      PUSH [tag] 27\t\t\tType, bool _operator, uint _pr...\n      PUSH 4\t\t\tType, bool _operator, uint _pr...\n      DUP1 \t\t\tType, bool _operator, uint _pr...\n      CALLDATASIZE \t\t\tType, bool _operator, uint _pr...\n      SUB \t\t\tType, bool _operator, uint _pr...\n      DUP2 \t\t\tType, bool _operator, uint _pr...\n      ADD \t\t\tType, bool _operator, uint _pr...\n      SWAP1 \t\t\tType, bool _operator, uint _pr...\n      PUSH [tag] 28\t\t\tType, bool _operator, uint _pr...\n      SWAP2 \t\t\tType, bool _operator, uint _pr...\n      SWAP1 \t\t\tType, bool _operator, uint _pr...\n      PUSH [tag] 29\t\t\tType, bool _operator, uint _pr...\n      JUMP \t\t\tType, bool _operator, uint _pr...\n    tag 28\t\t\tType, bool _operator, uint _pr...\n      JUMPDEST \t\t\tType, bool _operator, uint _pr...\n      PUSH [tag] 30\t\t\tType, bool _operator, uint _pr...\n      JUMP \t\t\tType, bool _operator, uint _pr...\n    tag 27\t\t\tType, bool _operator, uint _pr...\n      JUMPDEST \t\t\tType, bool _operator, uint _pr...\n      PUSH 40\t\t\tType, bool _operator, uint _pr...\n      MLOAD \t\t\tType, bool _operator, uint _pr...\n      PUSH [tag] 31\t\t\tType, bool _operator, uint _pr...\n      SWAP2 \t\t\tType, bool _operator, uint _pr...\n      SWAP1 \t\t\tType, bool _operator, uint _pr...\n      PUSH [tag] 32\t\t\tType, bool _operator, uint _pr...\n      JUMP \t\t\tType, bool _operator, uint _pr...\n    tag 31\t\t\tType, bool _operator, uint _pr...\n      JUMPDEST \t\t\tType, bool _operator, uint _pr...\n      PUSH 40\t\t\tType, bool _operator, uint _pr...\n      MLOAD \t\t\tType, bool _operator, uint _pr...\n      DUP1 \t\t\tType, bool _operator, uint _pr...\n      SWAP2 \t\t\tType, bool _operator, uint _pr...\n      SUB \t\t\tType, bool _operator, uint _pr...\n      SWAP1 \t\t\tType, bool _operator, uint _pr...\n      RETURN \t\t\tType, bool _operator, uint _pr...\n    tag 7\t\t\t\n      JUMPDEST \t\t\t\n      PUSH [tag] 33\t\t\t\n      PUSH 4\t\t\t\n      DUP1 \t\t\t\n      CALLDATASIZE \t\t\t\n      SUB \t\t\t\n      DUP2 \t\t\t\n      ADD \t\t\t\n      SWAP1 \t\t\t\n      PUSH [tag] 34\t\t\t\n      SWAP2 \t\t\t\n      SWAP1 \t\t\t\n      PUSH [tag] 17\t\t\t\n      JUMP \t\t\t\n    tag 34\t\t\t\n      JUMPDEST \t\t\t\n      PUSH [tag] 35\t\t\t\n      JUMP \t\t\t\n    tag 33\t\t\t\n      JUMPDEST \t\t\t\n      PUSH 40\t\t\t\n      MLOAD \t\t\t\n      PUSH [tag] 36\t\t\t\n      SWAP2 \t\t\t\n      SWAP1 \t\t\t\n      PUSH [tag] 37\t\t\t\n      JUMP \t\t\t\n    tag 36\t\t\t\n      JUMPDEST \t\t\t\n      PUSH 40\t\t\t\n      MLOAD \t\t\t\n      DUP1 \t\t\t\n      SWAP2 \t\t\t\n      SUB \t\t\t\n      SWAP1 \t\t\t\n      RETURN \t\t\t\n    tag 8\t\t\t        exerciseRecordsByTimes...\n      JUMPDEST \t\t\t        exerciseRecordsByTimes...\n      PUSH [tag] 38\t\t\t        exerciseRecordsByTimes...\n      PUSH 4\t\t\t        exerciseRecordsByTimes...\n      DUP1 \t\t\t        exerciseRecordsByTimes...\n      CALLDATASIZE \t\t\t        exerciseRecordsByTimes...\n      SUB \t\t\t        exerciseRecordsByTimes...\n      DUP2 \t\t\t        exerciseRecordsByTimes...\n      ADD \t\t\t        exerciseRecordsByTimes...\n      SWAP1 \t\t\t        exerciseRecordsByTimes...\n      PUSH [tag] 39\t\t\t        exerciseRecordsByTimes...\n      SWAP2 \t\t\t        exerciseRecordsByTimes...\n      SWAP1 \t\t\t        exerciseRecordsByTimes...\n      PUSH [tag] 40\t\t\t        exerciseRecordsByTimes...\n      JUMP \t\t\t        exerciseRecordsByTimes...\n    tag 39\t\t\t        exerciseRecordsByTimes...\n      JUMPDEST \t\t\t        exerciseRecordsByTimes...\n      PUSH [tag] 41\t\t\t        exerciseRecordsByTimes...\n      JUMP \t\t\t        exerciseRecordsByTimes...\n    tag 38\t\t\t        exerciseRecordsByTimes...\n      JUMPDEST \t\t\t        exerciseRecordsByTimes...\n      STOP \t\t\t        exerciseRecordsByTimes...\n    tag 12\t\t\t)) public exerciseRecordsByTim...\n      JUMPDEST \t\t\t)) public exerciseRecordsByTim...\n      PUSH 0\t\t\t)) public exerciseRecordsByTim...\n      PUSH 20\t\t\t)) public exerciseRecordsByTim...\n      MSTORE \t\t\t)) public exerciseRecordsByTim...\n      DUP3 \t\t\t)) public exerciseRecordsByTim...\n      PUSH 0\t\t\t)) public exerciseRecordsByTim...\n      MSTORE \t\t\t)) public exerciseRecordsByTim...\n      PUSH 40\t\t\t)) public exerciseRecordsByTim...\n      PUSH 0\t\t\t)) public exerciseRecordsByTim...\n      KECCAK256 \t\t\t)) public exerciseRecordsByTim...\n      PUSH 20\t\t\t)) public exerciseRecordsByTim...\n      MSTORE \t\t\t)) public exerciseRecordsByTim...\n      DUP2 \t\t\t)) public exerciseRecordsByTim...\n      PUSH 0\t\t\t)) public exerciseRecordsByTim...\n      MSTORE \t\t\t)) public exerciseRecordsByTim...\n      PUSH 40\t\t\t)) public exerciseRecordsByTim...\n      PUSH 0\t\t\t)) public exerciseRecordsByTim...\n      KECCAK256 \t\t\t)) public exerciseRecordsByTim...\n      DUP2 \t\t\t)) public exerciseRecordsByTim...\n      DUP2 \t\t\t)) public exerciseRecordsByTim...\n      SLOAD \t\t\t)) public exerciseRecordsByTim...\n      DUP2 \t\t\t)) public exerciseRecordsByTim...\n      LT \t\t\t)) public exerciseRecordsByTim...\n      PUSH [tag] 42\t\t\t)) public exerciseRecordsByTim...\n      JUMPI \t\t\t)) public exerciseRecordsByTim...\n      PUSH 0\t\t\t)) public exerciseRecordsByTim...\n      DUP1 \t\t\t)) public exerciseRecordsByTim...\n      REVERT \t\t\t)) public exerciseRecordsByTim...\n    tag 42\t\t\t)) public exerciseRecordsByTim...\n      JUMPDEST \t\t\t)) public exerciseRecordsByTim...\n      SWAP1 \t\t\t)) public exerciseRecordsByTim...\n      PUSH 0\t\t\t)) public exerciseRecordsByTim...\n      MSTORE \t\t\t)) public exerciseRecordsByTim...\n      PUSH 20\t\t\t)) public exerciseRecordsByTim...\n      PUSH 0\t\t\t)) public exerciseRecordsByTim...\n      KECCAK256 \t\t\t)) public exerciseRecordsByTim...\n      SWAP1 \t\t\t)) public exerciseRecordsByTim...\n      PUSH 4\t\t\t)) public exerciseRecordsByTim...\n      MUL \t\t\t)) public exerciseRecordsByTim...\n      ADD \t\t\t)) public exerciseRecordsByTim...\n      PUSH 0\t\t\t)) public exerciseRecordsByTim...\n      SWAP3 \t\t\t)) public exerciseRecordsByTim...\n      POP \t\t\t)) public exerciseRecordsByTim...\n      SWAP3 \t\t\t)) public exerciseRecordsByTim...\n      POP \t\t\t)) public exerciseRecordsByTim...\n      POP \t\t\t)) public exerciseRecordsByTim...\n      POP \t\t\t)) public exerciseRecordsByTim...\n      DUP1 \t\t\t)) public exerciseRecordsByTim...\n      PUSH 0\t\t\t)) public exerciseRecordsByTim...\n      ADD \t\t\t)) public exerciseRecordsByTim...\n      SLOAD \t\t\t)) public exerciseRecordsByTim...\n      SWAP1 \t\t\t)) public exerciseRecordsByTim...\n      DUP1 \t\t\t)) public exerciseRecordsByTim...\n      PUSH 1\t\t\t)) public exerciseRecordsByTim...\n      ADD \t\t\t)) public exerciseRecordsByTim...\n      SLOAD \t\t\t)) public exerciseRecordsByTim...\n      SWAP1 \t\t\t)) public exerciseRecordsByTim...\n      DUP1 \t\t\t)) public exerciseRecordsByTim...\n      PUSH 2\t\t\t)) public exerciseRecordsByTim...\n      ADD \t\t\t)) public exerciseRecordsByTim...\n      SLOAD \t\t\t)) public exerciseRecordsByTim...\n      SWAP1 \t\t\t)) public exerciseRecordsByTim...\n      DUP1 \t\t\t)) public exerciseRecordsByTim...\n      PUSH 3\t\t\t)) public exerciseRecordsByTim...\n      ADD \t\t\t)) public exerciseRecordsByTim...\n      SLOAD \t\t\t)) public exerciseRecordsByTim...\n      SWAP1 \t\t\t)) public exerciseRecordsByTim...\n      POP \t\t\t)) public exerciseRecordsByTim...\n      DUP5 \t\t\t)) public exerciseRecordsByTim...\n      JUMP \t\t\t)) public exerciseRecordsByTim...\n    tag 18\t\t\txed receiptId, string wal\n      JUMPDEST \t\t\txed receiptId, string wal\n      PUSH 1\t\t\txed receiptId, string wal\n      DUP2 \t\t\txed receiptId, string wal\n      DUP2 \t\t\txed receiptId, string wal\n      SLOAD \t\t\txed receiptId, string wal\n      DUP2 \t\t\txed receiptId, string wal\n      LT \t\t\txed receiptId, string wal\n      PUSH [tag] 44\t\t\txed receiptId, string wal\n      JUMPI \t\t\txed receiptId, string wal\n      PUSH 0\t\t\txed receiptId, string wal\n      DUP1 \t\t\txed receiptId, string wal\n      REVERT \t\t\txed receiptId, string wal\n    tag 44\t\t\txed receiptId, string wal\n      JUMPDEST \t\t\txed receiptId, string wal\n      SWAP1 \t\t\txed receiptId, string wal\n      PUSH 0\t\t\txed receiptId, string wal\n      MSTORE \t\t\txed receiptId, string wal\n      PUSH 20\t\t\txed receiptId, string wal\n      PUSH 0\t\t\txed receiptId, string wal\n      KECCAK256 \t\t\txed receiptId, string wal\n      SWAP1 \t\t\txed receiptId, string wal\n      PUSH 6\t\t\txed receiptId, string wal\n      MUL \t\t\txed receiptId, string wal\n      ADD \t\t\txed receiptId, string wal\n      PUSH 0\t\t\txed receiptId, string wal\n      SWAP2 \t\t\txed receiptId, string wal\n      POP \t\t\txed receiptId, string wal\n      SWAP1 \t\t\txed receiptId, string wal\n      POP \t\t\txed receiptId, string wal\n      DUP1 \t\t\txed receiptId, string wal\n      PUSH 0\t\t\txed receiptId, string wal\n      ADD \t\t\txed receiptId, string wal\n      DUP1 \t\t\txed receiptId, string wal\n      SLOAD \t\t\txed receiptId, string wal\n      PUSH [tag] 46\t\t\txed receiptId, string wal\n      SWAP1 \t\t\txed receiptId, string wal\n      PUSH [tag] 47\t\t\txed receiptId, string wal\n      JUMP \t\t\txed receiptId, string wal\n    tag 46\t\t\txed receiptId, string wal\n      JUMPDEST \t\t\txed receiptId, string wal\n      DUP1 \t\t\txed receiptId, string wal\n      PUSH 1F\t\t\txed receiptId, string wal\n      ADD \t\t\txed receiptId, string wal\n      PUSH 20\t\t\txed receiptId, string wal\n      DUP1 \t\t\txed receiptId, string wal\n      SWAP2 \t\t\txed receiptId, string wal\n      DIV \t\t\txed receiptId, string wal\n      MUL \t\t\txed receiptId, string wal\n      PUSH 20\t\t\txed receiptId, string wal\n      ADD \t\t\txed receiptId, string wal\n      PUSH 40\t\t\txed receiptId, string wal\n      MLOAD \t\t\txed receiptId, string wal\n      SWAP1 \t\t\txed receiptId, string wal\n      DUP2 \t\t\txed receiptId, string wal\n      ADD \t\t\txed receiptId, string wal\n      PUSH 40\t\t\txed receiptId, string wal\n      MSTORE \t\t\txed receiptId, string wal\n      DUP1 \t\t\txed receiptId, string wal\n      SWAP3 \t\t\txed receiptId, string wal\n      SWAP2 \t\t\txed receiptId, string wal\n      SWAP1 \t\t\txed receiptId, string wal\n      DUP2 \t\t\txed receiptId, string wal\n      DUP2 \t\t\txed receiptId, string wal\n      MSTORE \t\t\txed receiptId, string wal\n      PUSH 20\t\t\txed receiptId, string wal\n      ADD \t\t\txed receiptId, string wal\n      DUP3 \t\t\txed receiptId, string wal\n      DUP1 \t\t\txed receiptId, string wal\n      SLOAD \t\t\txed receiptId, string wal\n      PUSH [tag] 48\t\t\txed receiptId, string wal\n      SWAP1 \t\t\txed receiptId, string wal\n      PUSH [tag] 47\t\t\txed receiptId, string wal\n      JUMP \t\t\txed receiptId, string wal\n    tag 48\t\t\txed receiptId, string wal\n      JUMPDEST \t\t\txed receiptId, string wal\n      DUP1 \t\t\txed receiptId, string wal\n      ISZERO \t\t\txed receiptId, string wal\n      PUSH [tag] 49\t\t\txed receiptId, string wal\n      JUMPI \t\t\txed receiptId, string wal\n      DUP1 \t\t\txed receiptId, string wal\n      PUSH 1F\t\t\txed receiptId, string wal\n      LT \t\t\txed receiptId, string wal\n      PUSH [tag] 50\t\t\txed receiptId, string wal\n      JUMPI \t\t\txed receiptId, string wal\n      PUSH 100\t\t\txed receiptId, string wal\n      DUP1 \t\t\txed receiptId, string wal\n      DUP4 \t\t\txed receiptId, string wal\n      SLOAD \t\t\txed receiptId, string wal\n      DIV \t\t\txed receiptId, string wal\n      MUL \t\t\txed receiptId, string wal\n      DUP4 \t\t\txed receiptId, string wal\n      MSTORE \t\t\txed receiptId, string wal\n      SWAP2 \t\t\txed receiptId, string wal\n      PUSH 20\t\t\txed receiptId, string wal\n      ADD \t\t\txed receiptId, string wal\n      SWAP2 \t\t\txed receiptId, string wal\n      PUSH [tag] 49\t\t\txed receiptId, string wal\n      JUMP \t\t\txed receiptId, string wal\n    tag 50\t\t\txed receiptId, string wal\n      JUMPDEST \t\t\txed receiptId, string wal\n      DUP3 \t\t\txed receiptId, string wal\n      ADD \t\t\txed receiptId, string wal\n      SWAP2 \t\t\txed receiptId, string wal\n      SWAP1 \t\t\txed receiptId, string wal\n      PUSH 0\t\t\txed receiptId, string wal\n      MSTORE \t\t\txed receiptId, string wal\n      PUSH 20\t\t\txed receiptId, string wal\n      PUSH 0\t\t\txed receiptId, string wal\n      KECCAK256 \t\t\txed receiptId, string wal\n      SWAP1 \t\t\txed receiptId, string wal\n    tag 51\t\t\txed receiptId, string wal\n      JUMPDEST \t\t\txed receiptId, string wal\n      DUP2 \t\t\txed receiptId, string wal\n      SLOAD \t\t\txed receiptId, string wal\n      DUP2 \t\t\txed receiptId, string wal\n      MSTORE \t\t\txed receiptId, string wal\n      SWAP1 \t\t\txed receiptId, string wal\n      PUSH 1\t\t\txed receiptId, string wal\n      ADD \t\t\txed receiptId, string wal\n      SWAP1 \t\t\txed receiptId, string wal\n      PUSH 20\t\t\txed receiptId, string wal\n      ADD \t\t\txed receiptId, string wal\n      DUP1 \t\t\txed receiptId, string wal\n      DUP4 \t\t\txed receiptId, string wal\n      GT \t\t\txed receiptId, string wal\n      PUSH [tag] 51\t\t\txed receiptId, string wal\n      JUMPI \t\t\txed receiptId, string wal\n      DUP3 \t\t\txed receiptId, string wal\n      SWAP1 \t\t\txed receiptId, string wal\n      SUB \t\t\txed receiptId, string wal\n      PUSH 1F\t\t\txed receiptId, string wal\n      AND \t\t\txed receiptId, string wal\n      DUP3 \t\t\txed receiptId, string wal\n      ADD \t\t\txed receiptId, string wal\n      SWAP2 \t\t\txed receiptId, string wal\n    tag 49\t\t\txed receiptId, string wal\n      JUMPDEST \t\t\txed receiptId, string wal\n      POP \t\t\txed receiptId, string wal\n      POP \t\t\txed receiptId, string wal\n      POP \t\t\txed receiptId, string wal\n      POP \t\t\txed receiptId, string wal\n      POP \t\t\txed receiptId, string wal\n      SWAP1 \t\t\txed receiptId, string wal\n      DUP1 \t\t\txed receiptId, string wal\n      PUSH 1\t\t\txed receiptId, string wal\n      ADD \t\t\txed receiptId, string wal\n      PUSH 0\t\t\txed receiptId, string wal\n      SWAP1 \t\t\txed receiptId, string wal\n      SLOAD \t\t\txed receiptId, string wal\n      SWAP1 \t\t\txed receiptId, string wal\n      PUSH 100\t\t\txed receiptId, string wal\n      EXP \t\t\txed receiptId, string wal\n      SWAP1 \t\t\txed receiptId, string wal\n      DIV \t\t\txed receiptId, string wal\n      PUSH FF\t\t\txed receiptId, string wal\n      AND \t\t\txed receiptId, string wal\n      SWAP1 \t\t\txed receiptId, string wal\n      DUP1 \t\t\txed receiptId, string wal\n      PUSH 2\t\t\txed receiptId, string wal\n      ADD \t\t\txed receiptId, string wal\n      SLOAD \t\t\txed receiptId, string wal\n      SWAP1 \t\t\txed receiptId, string wal\n      DUP1 \t\t\txed receiptId, string wal\n      PUSH 3\t\t\txed receiptId, string wal\n      ADD \t\t\txed receiptId, string wal\n      DUP1 \t\t\txed receiptId, string wal\n      SLOAD \t\t\txed receiptId, string wal\n      PUSH [tag] 52\t\t\txed receiptId, string wal\n      SWAP1 \t\t\txed receiptId, string wal\n      PUSH [tag] 47\t\t\txed receiptId, string wal\n      JUMP \t\t\txed receiptId, string wal\n    tag 52\t\t\txed receiptId, string wal\n      JUMPDEST \t\t\txed receiptId, string wal\n      DUP1 \t\t\txed receiptId, string wal\n      PUSH 1F\t\t\txed receiptId, string wal\n      ADD \t\t\txed receiptId, string wal\n      PUSH 20\t\t\txed receiptId, string wal\n      DUP1 \t\t\txed receiptId, string wal\n      SWAP2 \t\t\txed receiptId, string wal\n      DIV \t\t\txed receiptId, string wal\n      MUL \t\t\txed receiptId, string wal\n      PUSH 20\t\t\txed receiptId, string wal\n      ADD \t\t\txed receiptId, string wal\n      PUSH 40\t\t\txed receiptId, string wal\n      MLOAD \t\t\txed receiptId, string wal\n      SWAP1 \t\t\txed receiptId, string wal\n      DUP2 \t\t\txed receiptId, string wal\n      ADD \t\t\txed receiptId, string wal\n      PUSH 40\t\t\txed receiptId, string wal\n      MSTORE \t\t\txed receiptId, string wal\n      DUP1 \t\t\txed receiptId, string wal\n      SWAP3 \t\t\txed receiptId, string wal\n      SWAP2 \t\t\txed receiptId, string wal\n      SWAP1 \t\t\txed receiptId, string wal\n      DUP2 \t\t\txed receiptId, string wal\n      DUP2 \t\t\txed receiptId, string wal\n      MSTORE \t\t\txed receiptId, string wal\n      PUSH 20\t\t\txed receiptId, string wal\n      ADD \t\t\txed receiptId, string wal\n      DUP3 \t\t\txed receiptId, string wal\n      DUP1 \t\t\txed receiptId, string wal\n      SLOAD \t\t\txed receiptId, string wal\n      PUSH [tag] 53\t\t\txed receiptId, string wal\n      SWAP1 \t\t\txed receiptId, string wal\n      PUSH [tag] 47\t\t\txed receiptId, string wal\n      JUMP \t\t\txed receiptId, string wal\n    tag 53\t\t\txed receiptId, string wal\n      JUMPDEST \t\t\txed receiptId, string wal\n      DUP1 \t\t\txed receiptId, string wal\n      ISZERO \t\t\txed receiptId, string wal\n      PUSH [tag] 54\t\t\txed receiptId, string wal\n      JUMPI \t\t\txed receiptId, string wal\n      DUP1 \t\t\txed receiptId, string wal\n      PUSH 1F\t\t\txed receiptId, string wal\n      LT \t\t\txed receiptId, string wal\n      PUSH [tag] 55\t\t\txed receiptId, string wal\n      JUMPI \t\t\txed receiptId, string wal\n      PUSH 100\t\t\txed receiptId, string wal\n      DUP1 \t\t\txed receiptId, string wal\n      DUP4 \t\t\txed receiptId, string wal\n      SLOAD \t\t\txed receiptId, string wal\n      DIV \t\t\txed receiptId, string wal\n      MUL \t\t\txed receiptId, string wal\n      DUP4 \t\t\txed receiptId, string wal\n      MSTORE \t\t\txed receiptId, string wal\n      SWAP2 \t\t\txed receiptId, string wal\n      PUSH 20\t\t\txed receiptId, string wal\n      ADD \t\t\txed receiptId, string wal\n      SWAP2 \t\t\txed receiptId, string wal\n      PUSH [tag] 54\t\t\txed receiptId, string wal\n      JUMP \t\t\txed receiptId, string wal\n    tag 55\t\t\txed receiptId, string wal\n      JUMPDEST \t\t\txed receiptId, string wal\n      DUP3 \t\t\txed receiptId, string wal\n      ADD \t\t\txed receiptId, string wal\n      SWAP2 \t\t\txed receiptId, string wal\n      SWAP1 \t\t\txed receiptId, string wal\n      PUSH 0\t\t\txed receiptId, string wal\n      MSTORE \t\t\txed receiptId, string wal\n      PUSH 20\t\t\txed receiptId, string wal\n      PUSH 0\t\t\txed receiptId, string wal\n      KECCAK256 \t\t\txed receiptId, string wal\n      SWAP1 \t\t\txed receiptId, string wal\n    tag 56\t\t\txed receiptId, string wal\n      JUMPDEST \t\t\txed receiptId, string wal\n      DUP2 \t\t\txed receiptId, string wal\n      SLOAD \t\t\txed receiptId, string wal\n      DUP2 \t\t\txed receiptId, string wal\n      MSTORE \t\t\txed receiptId, string wal\n      SWAP1 \t\t\txed receiptId, string wal\n      PUSH 1\t\t\txed receiptId, string wal\n      ADD \t\t\txed receiptId, string wal\n      SWAP1 \t\t\txed receiptId, string wal\n      PUSH 20\t\t\txed receiptId, string wal\n      ADD \t\t\txed receiptId, string wal\n      DUP1 \t\t\txed receiptId, string wal\n      DUP4 \t\t\txed receiptId, string wal\n      GT \t\t\txed receiptId, string wal\n      PUSH [tag] 56\t\t\txed receiptId, string wal\n      JUMPI \t\t\txed receiptId, string wal\n      DUP3 \t\t\txed receiptId, string wal\n      SWAP1 \t\t\txed receiptId, string wal\n      SUB \t\t\txed receiptId, string wal\n      PUSH 1F\t\t\txed receiptId, string wal\n      AND \t\t\txed receiptId, string wal\n      DUP3 \t\t\txed receiptId, string wal\n      ADD \t\t\txed receiptId, string wal\n      SWAP2 \t\t\txed receiptId, string wal\n    tag 54\t\t\txed receiptId, string wal\n      JUMPDEST \t\t\txed receiptId, string wal\n      POP \t\t\txed receiptId, string wal\n      POP \t\t\txed receiptId, string wal\n      POP \t\t\txed receiptId, string wal\n      POP \t\t\txed receiptId, string wal\n      POP \t\t\txed receiptId, string wal\n      SWAP1 \t\t\txed receiptId, string wal\n      DUP1 \t\t\txed receiptId, string wal\n      PUSH 4\t\t\txed receiptId, string wal\n      ADD \t\t\txed receiptId, string wal\n      DUP1 \t\t\txed receiptId, string wal\n      SLOAD \t\t\txed receiptId, string wal\n      PUSH [tag] 57\t\t\txed receiptId, string wal\n      SWAP1 \t\t\txed receiptId, string wal\n      PUSH [tag] 47\t\t\txed receiptId, string wal\n      JUMP \t\t\txed receiptId, string wal\n    tag 57\t\t\txed receiptId, string wal\n      JUMPDEST \t\t\txed receiptId, string wal\n      DUP1 \t\t\txed receiptId, string wal\n      PUSH 1F\t\t\txed receiptId, string wal\n      ADD \t\t\txed receiptId, string wal\n      PUSH 20\t\t\txed receiptId, string wal\n      DUP1 \t\t\txed receiptId, string wal\n      SWAP2 \t\t\txed receiptId, string wal\n      DIV \t\t\txed receiptId, string wal\n      MUL \t\t\txed receiptId, string wal\n      PUSH 20\t\t\txed receiptId, string wal\n      ADD \t\t\txed receiptId, string wal\n      PUSH 40\t\t\txed receiptId, string wal\n      MLOAD \t\t\txed receiptId, string wal\n      SWAP1 \t\t\txed receiptId, string wal\n      DUP2 \t\t\txed receiptId, string wal\n      ADD \t\t\txed receiptId, string wal\n      PUSH 40\t\t\txed receiptId, string wal\n      MSTORE \t\t\txed receiptId, string wal\n      DUP1 \t\t\txed receiptId, string wal\n      SWAP3 \t\t\txed receiptId, string wal\n      SWAP2 \t\t\txed receiptId, string wal\n      SWAP1 \t\t\txed receiptId, string wal\n      DUP2 \t\t\txed receiptId, string wal\n      DUP2 \t\t\txed receiptId, string wal\n      MSTORE \t\t\txed receiptId, string wal\n      PUSH 20\t\t\txed receiptId, string wal\n      ADD \t\t\txed receiptId, string wal\n      DUP3 \t\t\txed receiptId, string wal\n      DUP1 \t\t\txed receiptId, string wal\n      SLOAD \t\t\txed receiptId, string wal\n      PUSH [tag] 58\t\t\txed receiptId, string wal\n      SWAP1 \t\t\txed receiptId, string wal\n      PUSH [tag] 47\t\t\txed receiptId, string wal\n      JUMP \t\t\txed receiptId, string wal\n    tag 58\t\t\txed receiptId, string wal\n      JUMPDEST \t\t\txed receiptId, string wal\n      DUP1 \t\t\txed receiptId, string wal\n      ISZERO \t\t\txed receiptId, string wal\n      PUSH [tag] 59\t\t\txed receiptId, string wal\n      JUMPI \t\t\txed receiptId, string wal\n      DUP1 \t\t\txed receiptId, string wal\n      PUSH 1F\t\t\txed receiptId, string wal\n      LT \t\t\txed receiptId, string wal\n      PUSH [tag] 60\t\t\txed receiptId, string wal\n      JUMPI \t\t\txed receiptId, string wal\n      PUSH 100\t\t\txed receiptId, string wal\n      DUP1 \t\t\txed receiptId, string wal\n      DUP4 \t\t\txed receiptId, string wal\n      SLOAD \t\t\txed receiptId, string wal\n      DIV \t\t\txed receiptId, string wal\n      MUL \t\t\txed receiptId, string wal\n      DUP4 \t\t\txed receiptId, string wal\n      MSTORE \t\t\txed receiptId, string wal\n      SWAP2 \t\t\txed receiptId, string wal\n      PUSH 20\t\t\txed receiptId, string wal\n      ADD \t\t\txed receiptId, string wal\n      SWAP2 \t\t\txed receiptId, string wal\n      PUSH [tag] 59\t\t\txed receiptId, string wal\n      JUMP \t\t\txed receiptId, string wal\n    tag 60\t\t\txed receiptId, string wal\n      JUMPDEST \t\t\txed receiptId, string wal\n      DUP3 \t\t\txed receiptId, string wal\n      ADD \t\t\txed receiptId, string wal\n      SWAP2 \t\t\txed receiptId, string wal\n      SWAP1 \t\t\txed receiptId, string wal\n      PUSH 0\t\t\txed receiptId, string wal\n      MSTORE \t\t\txed receiptId, string wal\n      PUSH 20\t\t\txed receiptId, string wal\n      PUSH 0\t\t\txed receiptId, string wal\n      KECCAK256 \t\t\txed receiptId, string wal\n      SWAP1 \t\t\txed receiptId, string wal\n    tag 61\t\t\txed receiptId, string wal\n      JUMPDEST \t\t\txed receiptId, string wal\n      DUP2 \t\t\txed receiptId, string wal\n      SLOAD \t\t\txed receiptId, string wal\n      DUP2 \t\t\txed receiptId, string wal\n      MSTORE \t\t\txed receiptId, string wal\n      SWAP1 \t\t\txed receiptId, string wal\n      PUSH 1\t\t\txed receiptId, string wal\n      ADD \t\t\txed receiptId, string wal\n      SWAP1 \t\t\txed receiptId, string wal\n      PUSH 20\t\t\txed receiptId, string wal\n      ADD \t\t\txed receiptId, string wal\n      DUP1 \t\t\txed receiptId, string wal\n      DUP4 \t\t\txed receiptId, string wal\n      GT \t\t\txed receiptId, string wal\n      PUSH [tag] 61\t\t\txed receiptId, string wal\n      JUMPI \t\t\txed receiptId, string wal\n      DUP3 \t\t\txed receiptId, string wal\n      SWAP1 \t\t\txed receiptId, string wal\n      SUB \t\t\txed receiptId, string wal\n      PUSH 1F\t\t\txed receiptId, string wal\n      AND \t\t\txed receiptId, string wal\n      DUP3 \t\t\txed receiptId, string wal\n      ADD \t\t\txed receiptId, string wal\n      SWAP2 \t\t\txed receiptId, string wal\n    tag 59\t\t\txed receiptId, string wal\n      JUMPDEST \t\t\txed receiptId, string wal\n      POP \t\t\txed receiptId, string wal\n      POP \t\t\txed receiptId, string wal\n      POP \t\t\txed receiptId, string wal\n      POP \t\t\txed receiptId, string wal\n      POP \t\t\txed receiptId, string wal\n      SWAP1 \t\t\txed receiptId, string wal\n      DUP1 \t\t\txed receiptId, string wal\n      PUSH 5\t\t\txed receiptId, string wal\n      ADD \t\t\txed receiptId, string wal\n      SLOAD \t\t\txed receiptId, string wal\n      SWAP1 \t\t\txed receiptId, string wal\n      POP \t\t\txed receiptId, string wal\n      DUP7 \t\t\txed receiptId, string wal\n      JUMP \t\t\txed receiptId, string wal\n    tag 24\t\t\treceiptId = receipts.length - ...\n      JUMPDEST \t\t\treceiptId = receipts.length - ...\n      PUSH 0\t\t\t    \n      PUSH 1\t\t\tceiptId;\n      PUSH 40\t\t\t}\\r\\n\\r\\n    // 특정 ID를 가진 Rece...\n      MLOAD \t\t\t}\\r\\n\\r\\n    // 특정 ID를 가진 Rece...\n      DUP1 \t\t\t}\\r\\n\\r\\n    // 특정 ID를 가진 Rece...\n      PUSH C0\t\t\t}\\r\\n\\r\\n    // 특정 ID를 가진 Rece...\n      ADD \t\t\t}\\r\\n\\r\\n    // 특정 ID를 가진 Rece...\n      PUSH 40\t\t\t}\\r\\n\\r\\n    // 특정 ID를 가진 Rece...\n      MSTORE \t\t\t}\\r\\n\\r\\n    // 특정 ID를 가진 Rece...\n      DUP1 \t\t\t}\\r\\n\\r\\n    // 특정 ID를 가진 Rece...\n      DUP10 \t\t\t // 특정 ID를 \n      DUP2 \t\t\t}\\r\\n\\r\\n    // 특정 ID를 가진 Rece...\n      MSTORE \t\t\t}\\r\\n\\r\\n    // 특정 ID를 가진 Rece...\n      PUSH 20\t\t\t}\\r\\n\\r\\n    // 특정 ID를 가진 Rece...\n      ADD \t\t\t}\\r\\n\\r\\n    // 특정 ID를 가진 Rece...\n      DUP9 \t\t\t Receipt \n      ISZERO \t\t\t}\\r\\n\\r\\n    // 특정 ID를 가진 Rece...\n      ISZERO \t\t\t}\\r\\n\\r\\n    // 특정 ID를 가진 Rece...\n      DUP2 \t\t\t}\\r\\n\\r\\n    // 특정 ID를 가진 Rece...\n      MSTORE \t\t\t}\\r\\n\\r\\n    // 특정 ID를 가진 Rece...\n      PUSH 20\t\t\t}\\r\\n\\r\\n    // 특정 ID를 가진 Rece...\n      ADD \t\t\t}\\r\\n\\r\\n    // 특정 ID를 가진 Rece...\n      DUP8 \t\t\t터를 조회하\n      DUP2 \t\t\t}\\r\\n\\r\\n    // 특정 ID를 가진 Rece...\n      MSTORE \t\t\t}\\r\\n\\r\\n    // 특정 ID를 가진 Rece...\n      PUSH 20\t\t\t}\\r\\n\\r\\n    // 특정 ID를 가진 Rece...\n      ADD \t\t\t}\\r\\n\\r\\n    // 특정 ID를 가진 Rece...\n      DUP7 \t\t\t함수\\r\\n    func\n      DUP2 \t\t\t}\\r\\n\\r\\n    // 특정 ID를 가진 Rece...\n      MSTORE \t\t\t}\\r\\n\\r\\n    // 특정 ID를 가진 Rece...\n      PUSH 20\t\t\t}\\r\\n\\r\\n    // 특정 ID를 가진 Rece...\n      ADD \t\t\t}\\r\\n\\r\\n    // 특정 ID를 가진 Rece...\n      DUP6 \t\t\ton getRece\n      DUP2 \t\t\t}\\r\\n\\r\\n    // 특정 ID를 가진 Rece...\n      MSTORE \t\t\t}\\r\\n\\r\\n    // 특정 ID를 가진 Rece...\n      PUSH 20\t\t\t}\\r\\n\\r\\n    // 특정 ID를 가진 Rece...\n      ADD \t\t\t}\\r\\n\\r\\n    // 특정 ID를 가진 Rece...\n      DUP5 \t\t\tt(uint _r\n      DUP2 \t\t\t}\\r\\n\\r\\n    // 특정 ID를 가진 Rece...\n      MSTORE \t\t\t}\\r\\n\\r\\n    // 특정 ID를 가진 Rece...\n      POP \t\t\t}\\r\\n\\r\\n    // 특정 ID를 가진 Rece...\n      SWAP1 \t\t\tceiptId;\\r\\n    }\\r\\n\\r\\n    /...\n      DUP1 \t\t\tceiptId;\\r\\n    }\\r\\n\\r\\n    /...\n      PUSH 1\t\t\tceiptId;\\r\\n    }\\r\\n\\r\\n    /...\n      DUP2 \t\t\tceiptId;\\r\\n    }\\r\\n\\r\\n    /...\n      SLOAD \t\t\tceiptId;\\r\\n    }\\r\\n\\r\\n    /...\n      ADD \t\t\tceiptId;\\r\\n    }\\r\\n\\r\\n    /...\n      DUP1 \t\t\tceiptId;\\r\\n    }\\r\\n\\r\\n    /...\n      DUP3 \t\t\tceiptId;\\r\\n    }\\r\\n\\r\\n    /...\n      SSTORE \t\t\tceiptId;\\r\\n    }\\r\\n\\r\\n    /...\n      DUP1 \t\t\tceiptId;\\r\\n    }\\r\\n\\r\\n    /...\n      SWAP2 \t\t\tceiptId;\\r\\n    }\\r\\n\\r\\n    /...\n      POP \t\t\tceiptId;\\r\\n    }\\r\\n\\r\\n    /...\n      POP \t\t\tceiptId;\\r\\n    }\\r\\n\\r\\n    /...\n      PUSH 1\t\t\tceiptId;\\r\\n    }\\r\\n\\r\\n    /...\n      SWAP1 \t\t\tceiptId;\\r\\n    }\\r\\n\\r\\n    /...\n      SUB \t\t\tceiptId;\\r\\n    }\\r\\n\\r\\n    /...\n      SWAP1 \t\t\tceiptId;\\r\\n    }\\r\\n\\r\\n    /...\n      PUSH 0\t\t\tceiptId;\\r\\n    }\\r\\n\\r\\n    /...\n      MSTORE \t\t\tceiptId;\\r\\n    }\\r\\n\\r\\n    /...\n      PUSH 20\t\t\tceiptId;\\r\\n    }\\r\\n\\r\\n    /...\n      PUSH 0\t\t\tceiptId;\\r\\n    }\\r\\n\\r\\n    /...\n      KECCAK256 \t\t\tceiptId;\\r\\n    }\\r\\n\\r\\n    /...\n      SWAP1 \t\t\tceiptId;\\r\\n    }\\r\\n\\r\\n    /...\n      PUSH 6\t\t\tceiptId;\\r\\n    }\\r\\n\\r\\n    /...\n      MUL \t\t\tceiptId;\\r\\n    }\\r\\n\\r\\n    /...\n      ADD \t\t\tceiptId;\\r\\n    }\\r\\n\\r\\n    /...\n      PUSH 0\t\t\tceiptId;\\r\\n    }\\r\\n\\r\\n    /...\n      SWAP1 \t\t\tceiptId;\\r\\n    }\\r\\n\\r\\n    /...\n      SWAP2 \t\t\tceiptId;\\r\\n    }\\r\\n\\r\\n    /...\n      SWAP1 \t\t\tceiptId;\\r\\n    }\\r\\n\\r\\n    /...\n      SWAP2 \t\t\tceiptId;\\r\\n    }\\r\\n\\r\\n    /...\n      SWAP1 \t\t\tceiptId;\\r\\n    }\\r\\n\\r\\n    /...\n      SWAP2 \t\t\tceiptId;\\r\\n    }\\r\\n\\r\\n    /...\n      POP \t\t\tceiptId;\\r\\n    }\\r\\n\\r\\n    /...\n      PUSH 0\t\t\tceiptId;\\r\\n    }\\r\\n\\r\\n    /...\n      DUP3 \t\t\tceiptId;\\r\\n    }\\r\\n\\r\\n    /...\n      ADD \t\t\tceiptId;\\r\\n    }\\r\\n\\r\\n    /...\n      MLOAD \t\t\tceiptId;\\r\\n    }\\r\\n\\r\\n    /...\n      DUP2 \t\t\tceiptId;\\r\\n    }\\r\\n\\r\\n    /...\n      PUSH 0\t\t\tceiptId;\\r\\n    }\\r\\n\\r\\n    /...\n      ADD \t\t\tceiptId;\\r\\n    }\\r\\n\\r\\n    /...\n      SWAP1 \t\t\tceiptId;\\r\\n    }\\r\\n\\r\\n    /...\n      DUP2 \t\t\tceiptId;\\r\\n    }\\r\\n\\r\\n    /...\n      PUSH [tag] 64\t\t\tceiptId;\\r\\n    }\\r\\n\\r\\n    /...\n      SWAP2 \t\t\tceiptId;\\r\\n    }\\r\\n\\r\\n    /...\n      SWAP1 \t\t\tceiptId;\\r\\n    }\\r\\n\\r\\n    /...\n      PUSH [tag] 65\t\t\tceiptId;\\r\\n    }\\r\\n\\r\\n    /...\n      JUMP \t\t\tceiptId;\\r\\n    }\\r\\n\\r\\n    /...\n    tag 64\t\t\tceiptId;\\r\\n    }\\r\\n\\r\\n    /...\n      JUMPDEST \t\t\tceiptId;\\r\\n    }\\r\\n\\r\\n    /...\n      POP \t\t\tceiptId;\\r\\n    }\\r\\n\\r\\n    /...\n      PUSH 20\t\t\tceiptId;\\r\\n    }\\r\\n\\r\\n    /...\n      DUP3 \t\t\tceiptId;\\r\\n    }\\r\\n\\r\\n    /...\n      ADD \t\t\tceiptId;\\r\\n    }\\r\\n\\r\\n    /...\n      MLOAD \t\t\tceiptId;\\r\\n    }\\r\\n\\r\\n    /...\n      DUP2 \t\t\tceiptId;\\r\\n    }\\r\\n\\r\\n    /...\n      PUSH 1\t\t\tceiptId;\\r\\n    }\\r\\n\\r\\n    /...\n      ADD \t\t\tceiptId;\\r\\n    }\\r\\n\\r\\n    /...\n      PUSH 0\t\t\tceiptId;\\r\\n    }\\r\\n\\r\\n    /...\n      PUSH 100\t\t\tceiptId;\\r\\n    }\\r\\n\\r\\n    /...\n      EXP \t\t\tceiptId;\\r\\n    }\\r\\n\\r\\n    /...\n      DUP2 \t\t\tceiptId;\\r\\n    }\\r\\n\\r\\n    /...\n      SLOAD \t\t\tceiptId;\\r\\n    }\\r\\n\\r\\n    /...\n      DUP2 \t\t\tceiptId;\\r\\n    }\\r\\n\\r\\n    /...\n      PUSH FF\t\t\tceiptId;\\r\\n    }\\r\\n\\r\\n    /...\n      MUL \t\t\tceiptId;\\r\\n    }\\r\\n\\r\\n    /...\n      NOT \t\t\tceiptId;\\r\\n    }\\r\\n\\r\\n    /...\n      AND \t\t\tceiptId;\\r\\n    }\\r\\n\\r\\n    /...\n      SWAP1 \t\t\tceiptId;\\r\\n    }\\r\\n\\r\\n    /...\n      DUP4 \t\t\tceiptId;\\r\\n    }\\r\\n\\r\\n    /...\n      ISZERO \t\t\tceiptId;\\r\\n    }\\r\\n\\r\\n    /...\n      ISZERO \t\t\tceiptId;\\r\\n    }\\r\\n\\r\\n    /...\n      MUL \t\t\tceiptId;\\r\\n    }\\r\\n\\r\\n    /...\n      OR \t\t\tceiptId;\\r\\n    }\\r\\n\\r\\n    /...\n      SWAP1 \t\t\tceiptId;\\r\\n    }\\r\\n\\r\\n    /...\n      SSTORE \t\t\tceiptId;\\r\\n    }\\r\\n\\r\\n    /...\n      POP \t\t\tceiptId;\\r\\n    }\\r\\n\\r\\n    /...\n      PUSH 40\t\t\tceiptId;\\r\\n    }\\r\\n\\r\\n    /...\n      DUP3 \t\t\tceiptId;\\r\\n    }\\r\\n\\r\\n    /...\n      ADD \t\t\tceiptId;\\r\\n    }\\r\\n\\r\\n    /...\n      MLOAD \t\t\tceiptId;\\r\\n    }\\r\\n\\r\\n    /...\n      DUP2 \t\t\tceiptId;\\r\\n    }\\r\\n\\r\\n    /...\n      PUSH 2\t\t\tceiptId;\\r\\n    }\\r\\n\\r\\n    /...\n      ADD \t\t\tceiptId;\\r\\n    }\\r\\n\\r\\n    /...\n      SSTORE \t\t\tceiptId;\\r\\n    }\\r\\n\\r\\n    /...\n      PUSH 60\t\t\tceiptId;\\r\\n    }\\r\\n\\r\\n    /...\n      DUP3 \t\t\tceiptId;\\r\\n    }\\r\\n\\r\\n    /...\n      ADD \t\t\tceiptId;\\r\\n    }\\r\\n\\r\\n    /...\n      MLOAD \t\t\tceiptId;\\r\\n    }\\r\\n\\r\\n    /...\n      DUP2 \t\t\tceiptId;\\r\\n    }\\r\\n\\r\\n    /...\n      PUSH 3\t\t\tceiptId;\\r\\n    }\\r\\n\\r\\n    /...\n      ADD \t\t\tceiptId;\\r\\n    }\\r\\n\\r\\n    /...\n      SWAP1 \t\t\tceiptId;\\r\\n    }\\r\\n\\r\\n    /...\n      DUP2 \t\t\tceiptId;\\r\\n    }\\r\\n\\r\\n    /...\n      PUSH [tag] 66\t\t\tceiptId;\\r\\n    }\\r\\n\\r\\n    /...\n      SWAP2 \t\t\tceiptId;\\r\\n    }\\r\\n\\r\\n    /...\n      SWAP1 \t\t\tceiptId;\\r\\n    }\\r\\n\\r\\n    /...\n      PUSH [tag] 65\t\t\tceiptId;\\r\\n    }\\r\\n\\r\\n    /...\n      JUMP \t\t\tceiptId;\\r\\n    }\\r\\n\\r\\n    /...\n    tag 66\t\t\tceiptId;\\r\\n    }\\r\\n\\r\\n    /...\n      JUMPDEST \t\t\tceiptId;\\r\\n    }\\r\\n\\r\\n    /...\n      POP \t\t\tceiptId;\\r\\n    }\\r\\n\\r\\n    /...\n      PUSH 80\t\t\tceiptId;\\r\\n    }\\r\\n\\r\\n    /...\n      DUP3 \t\t\tceiptId;\\r\\n    }\\r\\n\\r\\n    /...\n      ADD \t\t\tceiptId;\\r\\n    }\\r\\n\\r\\n    /...\n      MLOAD \t\t\tceiptId;\\r\\n    }\\r\\n\\r\\n    /...\n      DUP2 \t\t\tceiptId;\\r\\n    }\\r\\n\\r\\n    /...\n      PUSH 4\t\t\tceiptId;\\r\\n    }\\r\\n\\r\\n    /...\n      ADD \t\t\tceiptId;\\r\\n    }\\r\\n\\r\\n    /...\n      SWAP1 \t\t\tceiptId;\\r\\n    }\\r\\n\\r\\n    /...\n      DUP2 \t\t\tceiptId;\\r\\n    }\\r\\n\\r\\n    /...\n      PUSH [tag] 67\t\t\tceiptId;\\r\\n    }\\r\\n\\r\\n    /...\n      SWAP2 \t\t\tceiptId;\\r\\n    }\\r\\n\\r\\n    /...\n      SWAP1 \t\t\tceiptId;\\r\\n    }\\r\\n\\r\\n    /...\n      PUSH [tag] 65\t\t\tceiptId;\\r\\n    }\\r\\n\\r\\n    /...\n      JUMP \t\t\tceiptId;\\r\\n    }\\r\\n\\r\\n    /...\n    tag 67\t\t\tceiptId;\\r\\n    }\\r\\n\\r\\n    /...\n      JUMPDEST \t\t\tceiptId;\\r\\n    }\\r\\n\\r\\n    /...\n      POP \t\t\tceiptId;\\r\\n    }\\r\\n\\r\\n    /...\n      PUSH A0\t\t\tceiptId;\\r\\n    }\\r\\n\\r\\n    /...\n      DUP3 \t\t\tceiptId;\\r\\n    }\\r\\n\\r\\n    /...\n      ADD \t\t\tceiptId;\\r\\n    }\\r\\n\\r\\n    /...\n      MLOAD \t\t\tceiptId;\\r\\n    }\\r\\n\\r\\n    /...\n      DUP2 \t\t\tceiptId;\\r\\n    }\\r\\n\\r\\n    /...\n      PUSH 5\t\t\tceiptId;\\r\\n    }\\r\\n\\r\\n    /...\n      ADD \t\t\tceiptId;\\r\\n    }\\r\\n\\r\\n    /...\n      SSTORE \t\t\tceiptId;\\r\\n    }\\r\\n\\r\\n    /...\n      POP \t\t\tceiptId;\\r\\n    }\\r\\n\\r\\n    /...\n      POP \t\t\tceiptId;\\r\\n    }\\r\\n\\r\\n    /...\n      PUSH 0\t\t\tlic view retur\n      PUSH 1\t\t\t\\r\n      DUP1 \t\t\t(Receipt\n      DUP1 \t\t\t(Receipt memory\n      SLOAD \t\t\t(Receipt memory\n      SWAP1 \t\t\t(Receipt memory\n      POP \t\t\t(Receipt memory\n      PUSH [tag] 68\t\t\t(Receipt memory) {\\r\n      SWAP2 \t\t\t(Receipt memory) {\\r\n      SWAP1 \t\t\t(Receipt memory) {\\r\n      PUSH [tag] 69\t\t\t(Receipt memory) {\\r\n      JUMP \t\t\t(Receipt memory) {\\r\n    tag 68\t\t\t(Receipt memory) {\\r\n      JUMPDEST \t\t\t(Receipt memory) {\\r\n      SWAP1 \t\t\tlic view returns (Receipt memo...\n      POP \t\t\tlic view returns (Receipt memo...\n      DUP1 \t\t\tlength, \"\n      PUSH 8B9F4D9E9C07FE50F790C2348976C935AD40E3E76FF7BB74EF1C6AE9EAEBD3FE\t\t\td < receipts.length, \"Receipt ...\n      DUP10 \t\t\tceipt does \n      DUP10 \t\t\tt exist.\"\n      DUP10 \t\t\t\\r\\n    \n      DUP10 \t\t\t  return rec\n      DUP10 \t\t\tpts[_recei\n      DUP10 \t\t\tId];\\r\\n   \n      PUSH 40\t\t\td < receipts.length, \"Receipt ...\n      MLOAD \t\t\td < receipts.length, \"Receipt ...\n      PUSH [tag] 70\t\t\td < receipts.length, \"Receipt ...\n      SWAP7 \t\t\td < receipts.length, \"Receipt ...\n      SWAP6 \t\t\td < receipts.length, \"Receipt ...\n      SWAP5 \t\t\td < receipts.length, \"Receipt ...\n      SWAP4 \t\t\td < receipts.length, \"Receipt ...\n      SWAP3 \t\t\td < receipts.length, \"Receipt ...\n      SWAP2 \t\t\td < receipts.length, \"Receipt ...\n      SWAP1 \t\t\td < receipts.length, \"Receipt ...\n      PUSH [tag] 20\t\t\td < receipts.length, \"Receipt ...\n      JUMP \t\t\td < receipts.length, \"Receipt ...\n    tag 70\t\t\td < receipts.length, \"Receipt ...\n      JUMPDEST \t\t\td < receipts.length, \"Receipt ...\n      PUSH 40\t\t\td < receipts.length, \"Receipt ...\n      MLOAD \t\t\td < receipts.length, \"Receipt ...\n      DUP1 \t\t\td < receipts.length, \"Receipt ...\n      SWAP2 \t\t\td < receipts.length, \"Receipt ...\n      SUB \t\t\td < receipts.length, \"Receipt ...\n      SWAP1 \t\t\td < receipts.length, \"Receipt ...\n      LOG2 \t\t\td < receipts.length, \"Receipt ...\n      DUP1 \t\t\t\n      SWAP2 \t\t\t\n      POP \t\t\t\n      POP \t\t\t\n      SWAP7 \t\t\treceiptId = receipts.length - ...\n      SWAP6 \t\t\treceiptId = receipts.length - ...\n      POP \t\t\treceiptId = receipts.length - ...\n      POP \t\t\treceiptId = receipts.length - ...\n      POP \t\t\treceiptId = receipts.length - ...\n      POP \t\t\treceiptId = receipts.length - ...\n      POP \t\t\treceiptId = receipts.length - ...\n      POP \t\t\treceiptId = receipts.length - ...\n      JUMP \t\t\treceiptId = receipts.length - ...\n    tag 30\t\t\tType, bool _operator, uint _pr...\n      JUMPDEST \t\t\tType, bool _operator, uint _pr...\n      PUSH 60\t\t\tint _memberId) public\n      PUSH 0\t\t\t       receipts.push(Recei\n      DUP1 \t\t\t       receipts.push(Receipt(_...\n      DUP5 \t\t\tt(_wallet\n      DUP2 \t\t\t       receipts.push(Receipt(_...\n      MSTORE \t\t\t       receipts.push(Receipt(_...\n      PUSH 20\t\t\t       receipts.push(Receipt(_...\n      ADD \t\t\t       receipts.push(Receipt(_...\n      SWAP1 \t\t\t       receipts.push(Receipt(_...\n      DUP2 \t\t\t       receipts.push(Receipt(_...\n      MSTORE \t\t\t       receipts.push(Receipt(_...\n      PUSH 20\t\t\t       receipts.push(Receipt(_...\n      ADD \t\t\t       receipts.push(Receipt(_...\n      PUSH 0\t\t\t       receipts.push(Receipt(_...\n      KECCAK256 \t\t\t       receipts.push(Receipt(_...\n      PUSH 0\t\t\t       receipts.push(Receipt(_...\n      DUP4 \t\t\tpe, _opera\n      DUP2 \t\t\t       receipts.push(Receipt(_...\n      MSTORE \t\t\t       receipts.push(Receipt(_...\n      PUSH 20\t\t\t       receipts.push(Receipt(_...\n      ADD \t\t\t       receipts.push(Receipt(_...\n      SWAP1 \t\t\t       receipts.push(Receipt(_...\n      DUP2 \t\t\t       receipts.push(Receipt(_...\n      MSTORE \t\t\t       receipts.push(Receipt(_...\n      PUSH 20\t\t\t       receipts.push(Receipt(_...\n      ADD \t\t\t       receipts.push(Receipt(_...\n      PUSH 0\t\t\t       receipts.push(Receipt(_...\n      KECCAK256 \t\t\t       receipts.push(Receipt(_...\n      DUP1 \t\t\tt) {\\r\\n        receipts.push(...\n      SLOAD \t\t\tt) {\\r\\n        receipts.push(...\n      DUP1 \t\t\tt) {\\r\\n        receipts.push(...\n      PUSH 20\t\t\tt) {\\r\\n        receipts.push(...\n      MUL \t\t\tt) {\\r\\n        receipts.push(...\n      PUSH 20\t\t\tt) {\\r\\n        receipts.push(...\n      ADD \t\t\tt) {\\r\\n        receipts.push(...\n      PUSH 40\t\t\tt) {\\r\\n        receipts.push(...\n      MLOAD \t\t\tt) {\\r\\n        receipts.push(...\n      SWAP1 \t\t\tt) {\\r\\n        receipts.push(...\n      DUP2 \t\t\tt) {\\r\\n        receipts.push(...\n      ADD \t\t\tt) {\\r\\n        receipts.push(...\n      PUSH 40\t\t\tt) {\\r\\n        receipts.push(...\n      MSTORE \t\t\tt) {\\r\\n        receipts.push(...\n      DUP1 \t\t\tt) {\\r\\n        receipts.push(...\n      SWAP3 \t\t\tt) {\\r\\n        receipts.push(...\n      SWAP2 \t\t\tt) {\\r\\n        receipts.push(...\n      SWAP1 \t\t\tt) {\\r\\n        receipts.push(...\n      DUP2 \t\t\tt) {\\r\\n        receipts.push(...\n      DUP2 \t\t\tt) {\\r\\n        receipts.push(...\n      MSTORE \t\t\tt) {\\r\\n        receipts.push(...\n      PUSH 20\t\t\tt) {\\r\\n        receipts.push(...\n      ADD \t\t\tt) {\\r\\n        receipts.push(...\n      PUSH 0\t\t\tt) {\\r\\n        receipts.push(...\n      SWAP1 \t\t\tt) {\\r\\n        receipts.push(...\n    tag 72\t\t\tt) {\\r\\n        receipts.push(...\n      JUMPDEST \t\t\tt) {\\r\\n        receipts.push(...\n      DUP3 \t\t\tt) {\\r\\n        receipts.push(...\n      DUP3 \t\t\tt) {\\r\\n        receipts.push(...\n      LT \t\t\tt) {\\r\\n        receipts.push(...\n      ISZERO \t\t\tt) {\\r\\n        receipts.push(...\n      PUSH [tag] 73\t\t\tt) {\\r\\n        receipts.push(...\n      JUMPI \t\t\tt) {\\r\\n        receipts.push(...\n      DUP4 \t\t\tt) {\\r\\n        receipts.push(...\n      DUP3 \t\t\tt) {\\r\\n        receipts.push(...\n      SWAP1 \t\t\tt) {\\r\\n        receipts.push(...\n      PUSH 0\t\t\tt) {\\r\\n        receipts.push(...\n      MSTORE \t\t\tt) {\\r\\n        receipts.push(...\n      PUSH 20\t\t\tt) {\\r\\n        receipts.push(...\n      PUSH 0\t\t\tt) {\\r\\n        receipts.push(...\n      KECCAK256 \t\t\tt) {\\r\\n        receipts.push(...\n      SWAP1 \t\t\tt) {\\r\\n        receipts.push(...\n      PUSH 4\t\t\tt) {\\r\\n        receipts.push(...\n      MUL \t\t\tt) {\\r\\n        receipts.push(...\n      ADD \t\t\tt) {\\r\\n        receipts.push(...\n      PUSH 40\t\t\tt) {\\r\\n        receipts.push(...\n      MLOAD \t\t\tt) {\\r\\n        receipts.push(...\n      DUP1 \t\t\tt) {\\r\\n        receipts.push(...\n      PUSH 80\t\t\tt) {\\r\\n        receipts.push(...\n      ADD \t\t\tt) {\\r\\n        receipts.push(...\n      PUSH 40\t\t\tt) {\\r\\n        receipts.push(...\n      MSTORE \t\t\tt) {\\r\\n        receipts.push(...\n      SWAP1 \t\t\tt) {\\r\\n        receipts.push(...\n      DUP2 \t\t\tt) {\\r\\n        receipts.push(...\n      PUSH 0\t\t\tt) {\\r\\n        receipts.push(...\n      DUP3 \t\t\tt) {\\r\\n        receipts.push(...\n      ADD \t\t\tt) {\\r\\n        receipts.push(...\n      SLOAD \t\t\tt) {\\r\\n        receipts.push(...\n      DUP2 \t\t\tt) {\\r\\n        receipts.push(...\n      MSTORE \t\t\tt) {\\r\\n        receipts.push(...\n      PUSH 20\t\t\tt) {\\r\\n        receipts.push(...\n      ADD \t\t\tt) {\\r\\n        receipts.push(...\n      PUSH 1\t\t\tt) {\\r\\n        receipts.push(...\n      DUP3 \t\t\tt) {\\r\\n        receipts.push(...\n      ADD \t\t\tt) {\\r\\n        receipts.push(...\n      SLOAD \t\t\tt) {\\r\\n        receipts.push(...\n      DUP2 \t\t\tt) {\\r\\n        receipts.push(...\n      MSTORE \t\t\tt) {\\r\\n        receipts.push(...\n      PUSH 20\t\t\tt) {\\r\\n        receipts.push(...\n      ADD \t\t\tt) {\\r\\n        receipts.push(...\n      PUSH 2\t\t\tt) {\\r\\n        receipts.push(...\n      DUP3 \t\t\tt) {\\r\\n        receipts.push(...\n      ADD \t\t\tt) {\\r\\n        receipts.push(...\n      SLOAD \t\t\tt) {\\r\\n        receipts.push(...\n      DUP2 \t\t\tt) {\\r\\n        receipts.push(...\n      MSTORE \t\t\tt) {\\r\\n        receipts.push(...\n      PUSH 20\t\t\tt) {\\r\\n        receipts.push(...\n      ADD \t\t\tt) {\\r\\n        receipts.push(...\n      PUSH 3\t\t\tt) {\\r\\n        receipts.push(...\n      DUP3 \t\t\tt) {\\r\\n        receipts.push(...\n      ADD \t\t\tt) {\\r\\n        receipts.push(...\n      SLOAD \t\t\tt) {\\r\\n        receipts.push(...\n      DUP2 \t\t\tt) {\\r\\n        receipts.push(...\n      MSTORE \t\t\tt) {\\r\\n        receipts.push(...\n      POP \t\t\tt) {\\r\\n        receipts.push(...\n      POP \t\t\tt) {\\r\\n        receipts.push(...\n      DUP2 \t\t\tt) {\\r\\n        receipts.push(...\n      MSTORE \t\t\tt) {\\r\\n        receipts.push(...\n      PUSH 20\t\t\tt) {\\r\\n        receipts.push(...\n      ADD \t\t\tt) {\\r\\n        receipts.push(...\n      SWAP1 \t\t\tt) {\\r\\n        receipts.push(...\n      PUSH 1\t\t\tt) {\\r\\n        receipts.push(...\n      ADD \t\t\tt) {\\r\\n        receipts.push(...\n      SWAP1 \t\t\tt) {\\r\\n        receipts.push(...\n      PUSH [tag] 72\t\t\tt) {\\r\\n        receipts.push(...\n      JUMP \t\t\tt) {\\r\\n        receipts.push(...\n    tag 73\t\t\tt) {\\r\\n        receipts.push(...\n      JUMPDEST \t\t\tt) {\\r\\n        receipts.push(...\n      POP \t\t\tt) {\\r\\n        receipts.push(...\n      POP \t\t\tt) {\\r\\n        receipts.push(...\n      POP \t\t\tt) {\\r\\n        receipts.push(...\n      POP \t\t\tt) {\\r\\n        receipts.push(...\n      SWAP1 \t\t\tt) {\\r\\n        receipts.push(...\n      POP \t\t\tt) {\\r\\n        receipts.push(...\n      SWAP3 \t\t\tType, bool _operator, uint _pr...\n      SWAP2 \t\t\tType, bool _operator, uint _pr...\n      POP \t\t\tType, bool _operator, uint _pr...\n      POP \t\t\tType, bool _operator, uint _pr...\n      JUMP \t\t\tType, bool _operator, uint _pr...\n    tag 35\t\t\t\n      JUMPDEST \t\t\t\n      PUSH [tag] 75\t\t\t\n      PUSH [tag] 76\t\t\t\n      JUMP \t\t\t\n    tag 75\t\t\t\n      JUMPDEST \t\t\t\n      PUSH 1\t\t\t\n      DUP1 \t\t\t\n      SLOAD \t\t\t\n      SWAP1 \t\t\t\n      POP \t\t\t\n      DUP3 \t\t\t\n      LT \t\t\t\n      PUSH [tag] 78\t\t\t\n      JUMPI \t\t\t\n      PUSH 40\t\t\t\n      MLOAD \t\t\t\n      PUSH 8C379A000000000000000000000000000000000000000000000000000000000\t\t\t\n      DUP2 \t\t\t\n      MSTORE \t\t\t\n      PUSH 4\t\t\t\n      ADD \t\t\t\n      PUSH [tag] 79\t\t\t\n      SWAP1 \t\t\t\n      PUSH [tag] 80\t\t\t\n      JUMP \t\t\t\n    tag 79\t\t\t\n      JUMPDEST \t\t\t\n      PUSH 40\t\t\t\n      MLOAD \t\t\t\n      DUP1 \t\t\t\n      SWAP2 \t\t\t\n      SUB \t\t\t\n      SWAP1 \t\t\t\n      REVERT \t\t\t\n    tag 78\t\t\t\n      JUMPDEST \t\t\t\n      PUSH 1\t\t\t\n      DUP3 \t\t\t\n      DUP2 \t\t\t\n      SLOAD \t\t\t\n      DUP2 \t\t\t\n      LT \t\t\t\n      PUSH [tag] 81\t\t\t\n      JUMPI \t\t\t\n      PUSH [tag] 82\t\t\t\n      PUSH [tag] 83\t\t\t\n      JUMP \t\t\t\n    tag 82\t\t\t\n      JUMPDEST \t\t\t\n    tag 81\t\t\t\n      JUMPDEST \t\t\t\n      SWAP1 \t\t\t\n      PUSH 0\t\t\t\n      MSTORE \t\t\t\n      PUSH 20\t\t\t\n      PUSH 0\t\t\t\n      KECCAK256 \t\t\t\n      SWAP1 \t\t\t\n      PUSH 6\t\t\t\n      MUL \t\t\t\n      ADD \t\t\t\n      PUSH 40\t\t\t\n      MLOAD \t\t\t\n      DUP1 \t\t\t\n      PUSH C0\t\t\t\n      ADD \t\t\t\n      PUSH 40\t\t\t\n      MSTORE \t\t\t\n      SWAP1 \t\t\t\n      DUP2 \t\t\t\n      PUSH 0\t\t\t\n      DUP3 \t\t\t\n      ADD \t\t\t\n      DUP1 \t\t\t\n      SLOAD \t\t\t\n      PUSH [tag] 85\t\t\t\n      SWAP1 \t\t\t\n      PUSH [tag] 47\t\t\t\n      JUMP \t\t\t\n    tag 85\t\t\t\n      JUMPDEST \t\t\t\n      DUP1 \t\t\t\n      PUSH 1F\t\t\t\n      ADD \t\t\t\n      PUSH 20\t\t\t\n      DUP1 \t\t\t\n      SWAP2 \t\t\t\n      DIV \t\t\t\n      MUL \t\t\t\n      PUSH 20\t\t\t\n      ADD \t\t\t\n      PUSH 40\t\t\t\n      MLOAD \t\t\t\n      SWAP1 \t\t\t\n      DUP2 \t\t\t\n      ADD \t\t\t\n      PUSH 40\t\t\t\n      MSTORE \t\t\t\n      DUP1 \t\t\t\n      SWAP3 \t\t\t\n      SWAP2 \t\t\t\n      SWAP1 \t\t\t\n      DUP2 \t\t\t\n      DUP2 \t\t\t\n      MSTORE \t\t\t\n      PUSH 20\t\t\t\n      ADD \t\t\t\n      DUP3 \t\t\t\n      DUP1 \t\t\t\n      SLOAD \t\t\t\n      PUSH [tag] 86\t\t\t\n      SWAP1 \t\t\t\n      PUSH [tag] 47\t\t\t\n      JUMP \t\t\t\n    tag 86\t\t\t\n      JUMPDEST \t\t\t\n      DUP1 \t\t\t\n      ISZERO \t\t\t\n      PUSH [tag] 87\t\t\t\n      JUMPI \t\t\t\n      DUP1 \t\t\t\n      PUSH 1F\t\t\t\n      LT \t\t\t\n      PUSH [tag] 88\t\t\t\n      JUMPI \t\t\t\n      PUSH 100\t\t\t\n      DUP1 \t\t\t\n      DUP4 \t\t\t\n      SLOAD \t\t\t\n      DIV \t\t\t\n      MUL \t\t\t\n      DUP4 \t\t\t\n      MSTORE \t\t\t\n      SWAP2 \t\t\t\n      PUSH 20\t\t\t\n      ADD \t\t\t\n      SWAP2 \t\t\t\n      PUSH [tag] 87\t\t\t\n      JUMP \t\t\t\n    tag 88\t\t\t\n      JUMPDEST \t\t\t\n      DUP3 \t\t\t\n      ADD \t\t\t\n      SWAP2 \t\t\t\n      SWAP1 \t\t\t\n      PUSH 0\t\t\t\n      MSTORE \t\t\t\n      PUSH 20\t\t\t\n      PUSH 0\t\t\t\n      KECCAK256 \t\t\t\n      SWAP1 \t\t\t\n    tag 89\t\t\t\n      JUMPDEST \t\t\t\n      DUP2 \t\t\t\n      SLOAD \t\t\t\n      DUP2 \t\t\t\n      MSTORE \t\t\t\n      SWAP1 \t\t\t\n      PUSH 1\t\t\t\n      ADD \t\t\t\n      SWAP1 \t\t\t\n      PUSH 20\t\t\t\n      ADD \t\t\t\n      DUP1 \t\t\t\n      DUP4 \t\t\t\n      GT \t\t\t\n      PUSH [tag] 89\t\t\t\n      JUMPI \t\t\t\n      DUP3 \t\t\t\n      SWAP1 \t\t\t\n      SUB \t\t\t\n      PUSH 1F\t\t\t\n      AND \t\t\t\n      DUP3 \t\t\t\n      ADD \t\t\t\n      SWAP2 \t\t\t\n    tag 87\t\t\t\n      JUMPDEST \t\t\t\n      POP \t\t\t\n      POP \t\t\t\n      POP \t\t\t\n      POP \t\t\t\n      POP \t\t\t\n      DUP2 \t\t\t\n      MSTORE \t\t\t\n      PUSH 20\t\t\t\n      ADD \t\t\t\n      PUSH 1\t\t\t\n      DUP3 \t\t\t\n      ADD \t\t\t\n      PUSH 0\t\t\t\n      SWAP1 \t\t\t\n      SLOAD \t\t\t\n      SWAP1 \t\t\t\n      PUSH 100\t\t\t\n      EXP \t\t\t\n      SWAP1 \t\t\t\n      DIV \t\t\t\n      PUSH FF\t\t\t\n      AND \t\t\t\n      ISZERO \t\t\t\n      ISZERO \t\t\t\n      ISZERO \t\t\t\n      ISZERO \t\t\t\n      DUP2 \t\t\t\n      MSTORE \t\t\t\n      PUSH 20\t\t\t\n      ADD \t\t\t\n      PUSH 2\t\t\t\n      DUP3 \t\t\t\n      ADD \t\t\t\n      SLOAD \t\t\t\n      DUP2 \t\t\t\n      MSTORE \t\t\t\n      PUSH 20\t\t\t\n      ADD \t\t\t\n      PUSH 3\t\t\t\n      DUP3 \t\t\t\n      ADD \t\t\t\n      DUP1 \t\t\t\n      SLOAD \t\t\t\n      PUSH [tag] 90\t\t\t\n      SWAP1 \t\t\t\n      PUSH [tag] 47\t\t\t\n      JUMP \t\t\t\n    tag 90\t\t\t\n      JUMPDEST \t\t\t\n      DUP1 \t\t\t\n      PUSH 1F\t\t\t\n      ADD \t\t\t\n      PUSH 20\t\t\t\n      DUP1 \t\t\t\n      SWAP2 \t\t\t\n      DIV \t\t\t\n      MUL \t\t\t\n      PUSH 20\t\t\t\n      ADD \t\t\t\n      PUSH 40\t\t\t\n      MLOAD \t\t\t\n      SWAP1 \t\t\t\n      DUP2 \t\t\t\n      ADD \t\t\t\n      PUSH 40\t\t\t\n      MSTORE \t\t\t\n      DUP1 \t\t\t\n      SWAP3 \t\t\t\n      SWAP2 \t\t\t\n      SWAP1 \t\t\t\n      DUP2 \t\t\t\n      DUP2 \t\t\t\n      MSTORE \t\t\t\n      PUSH 20\t\t\t\n      ADD \t\t\t\n      DUP3 \t\t\t\n      DUP1 \t\t\t\n      SLOAD \t\t\t\n      PUSH [tag] 91\t\t\t\n      SWAP1 \t\t\t\n      PUSH [tag] 47\t\t\t\n      JUMP \t\t\t\n    tag 91\t\t\t\n      JUMPDEST \t\t\t\n      DUP1 \t\t\t\n      ISZERO \t\t\t\n      PUSH [tag] 92\t\t\t\n      JUMPI \t\t\t\n      DUP1 \t\t\t\n      PUSH 1F\t\t\t\n      LT \t\t\t\n      PUSH [tag] 93\t\t\t\n      JUMPI \t\t\t\n      PUSH 100\t\t\t\n      DUP1 \t\t\t\n      DUP4 \t\t\t\n      SLOAD \t\t\t\n      DIV \t\t\t\n      MUL \t\t\t\n      DUP4 \t\t\t\n      MSTORE \t\t\t\n      SWAP2 \t\t\t\n      PUSH 20\t\t\t\n      ADD \t\t\t\n      SWAP2 \t\t\t\n      PUSH [tag] 92\t\t\t\n      JUMP \t\t\t\n    tag 93\t\t\t\n      JUMPDEST \t\t\t\n      DUP3 \t\t\t\n      ADD \t\t\t\n      SWAP2 \t\t\t\n      SWAP1 \t\t\t\n      PUSH 0\t\t\t\n      MSTORE \t\t\t\n      PUSH 20\t\t\t\n      PUSH 0\t\t\t\n      KECCAK256 \t\t\t\n      SWAP1 \t\t\t\n    tag 94\t\t\t\n      JUMPDEST \t\t\t\n      DUP2 \t\t\t\n      SLOAD \t\t\t\n      DUP2 \t\t\t\n      MSTORE \t\t\t\n      SWAP1 \t\t\t\n      PUSH 1\t\t\t\n      ADD \t\t\t\n      SWAP1 \t\t\t\n      PUSH 20\t\t\t\n      ADD \t\t\t\n      DUP1 \t\t\t\n      DUP4 \t\t\t\n      GT \t\t\t\n      PUSH [tag] 94\t\t\t\n      JUMPI \t\t\t\n      DUP3 \t\t\t\n      SWAP1 \t\t\t\n      SUB \t\t\t\n      PUSH 1F\t\t\t\n      AND \t\t\t\n      DUP3 \t\t\t\n      ADD \t\t\t\n      SWAP2 \t\t\t\n    tag 92\t\t\t\n      JUMPDEST \t\t\t\n      POP \t\t\t\n      POP \t\t\t\n      POP \t\t\t\n      POP \t\t\t\n      POP \t\t\t\n      DUP2 \t\t\t\n      MSTORE \t\t\t\n      PUSH 20\t\t\t\n      ADD \t\t\t\n      PUSH 4\t\t\t\n      DUP3 \t\t\t\n      ADD \t\t\t\n      DUP1 \t\t\t\n      SLOAD \t\t\t\n      PUSH [tag] 95\t\t\t\n      SWAP1 \t\t\t\n      PUSH [tag] 47\t\t\t\n      JUMP \t\t\t\n    tag 95\t\t\t\n      JUMPDEST \t\t\t\n      DUP1 \t\t\t\n      PUSH 1F\t\t\t\n      ADD \t\t\t\n      PUSH 20\t\t\t\n      DUP1 \t\t\t\n      SWAP2 \t\t\t\n      DIV \t\t\t\n      MUL \t\t\t\n      PUSH 20\t\t\t\n      ADD \t\t\t\n      PUSH 40\t\t\t\n      MLOAD \t\t\t\n      SWAP1 \t\t\t\n      DUP2 \t\t\t\n      ADD \t\t\t\n      PUSH 40\t\t\t\n      MSTORE \t\t\t\n      DUP1 \t\t\t\n      SWAP3 \t\t\t\n      SWAP2 \t\t\t\n      SWAP1 \t\t\t\n      DUP2 \t\t\t\n      DUP2 \t\t\t\n      MSTORE \t\t\t\n      PUSH 20\t\t\t\n      ADD \t\t\t\n      DUP3 \t\t\t\n      DUP1 \t\t\t\n      SLOAD \t\t\t\n      PUSH [tag] 96\t\t\t\n      SWAP1 \t\t\t\n      PUSH [tag] 47\t\t\t\n      JUMP \t\t\t\n    tag 96\t\t\t\n      JUMPDEST \t\t\t\n      DUP1 \t\t\t\n      ISZERO \t\t\t\n      PUSH [tag] 97\t\t\t\n      JUMPI \t\t\t\n      DUP1 \t\t\t\n      PUSH 1F\t\t\t\n      LT \t\t\t\n      PUSH [tag] 98\t\t\t\n      JUMPI \t\t\t\n      PUSH 100\t\t\t\n      DUP1 \t\t\t\n      DUP4 \t\t\t\n      SLOAD \t\t\t\n      DIV \t\t\t\n      MUL \t\t\t\n      DUP4 \t\t\t\n      MSTORE \t\t\t\n      SWAP2 \t\t\t\n      PUSH 20\t\t\t\n      ADD \t\t\t\n      SWAP2 \t\t\t\n      PUSH [tag] 97\t\t\t\n      JUMP \t\t\t\n    tag 98\t\t\t\n      JUMPDEST \t\t\t\n      DUP3 \t\t\t\n      ADD \t\t\t\n      SWAP2 \t\t\t\n      SWAP1 \t\t\t\n      PUSH 0\t\t\t\n      MSTORE \t\t\t\n      PUSH 20\t\t\t\n      PUSH 0\t\t\t\n      KECCAK256 \t\t\t\n      SWAP1 \t\t\t\n    tag 99\t\t\t\n      JUMPDEST \t\t\t\n      DUP2 \t\t\t\n      SLOAD \t\t\t\n      DUP2 \t\t\t\n      MSTORE \t\t\t\n      SWAP1 \t\t\t\n      PUSH 1\t\t\t\n      ADD \t\t\t\n      SWAP1 \t\t\t\n      PUSH 20\t\t\t\n      ADD \t\t\t\n      DUP1 \t\t\t\n      DUP4 \t\t\t\n      GT \t\t\t\n      PUSH [tag] 99\t\t\t\n      JUMPI \t\t\t\n      DUP3 \t\t\t\n      SWAP1 \t\t\t\n      SUB \t\t\t\n      PUSH 1F\t\t\t\n      AND \t\t\t\n      DUP3 \t\t\t\n      ADD \t\t\t\n      SWAP2 \t\t\t\n    tag 97\t\t\t\n      JUMPDEST \t\t\t\n      POP \t\t\t\n      POP \t\t\t\n      POP \t\t\t\n      POP \t\t\t\n      POP \t\t\t\n      DUP2 \t\t\t\n      MSTORE \t\t\t\n      PUSH 20\t\t\t\n      ADD \t\t\t\n      PUSH 5\t\t\t\n      DUP3 \t\t\t\n      ADD \t\t\t\n      SLOAD \t\t\t\n      DUP2 \t\t\t\n      MSTORE \t\t\t\n      POP \t\t\t\n      POP \t\t\t\n      SWAP1 \t\t\t\n      POP \t\t\t\n      SWAP2 \t\t\t\n      SWAP1 \t\t\t\n      POP \t\t\t\n      JUMP \t\t\t\n    tag 41\t\t\t        exerciseRecordsByTimes...\n      JUMPDEST \t\t\t        exerciseRecordsByTimes...\n      PUSH 0\t\t\tation, _distance);\\r\\n    }\\r\n      DUP1 \t\t\tation, _distance);\\r\\n    }\\r\\...\n      DUP7 \t\t\t\\r\\n    // \n      DUP2 \t\t\tation, _distance);\\r\\n    }\\r\\...\n      MSTORE \t\t\tation, _distance);\\r\\n    }\\r\\...\n      PUSH 20\t\t\tation, _distance);\\r\\n    }\\r\\...\n      ADD \t\t\tation, _distance);\\r\\n    }\\r\\...\n      SWAP1 \t\t\tation, _distance);\\r\\n    }\\r\\...\n      DUP2 \t\t\tation, _distance);\\r\\n    }\\r\\...\n      MSTORE \t\t\tation, _distance);\\r\\n    }\\r\\...\n      PUSH 20\t\t\tation, _distance);\\r\\n    }\\r\\...\n      ADD \t\t\tation, _distance);\\r\\n    }\\r\\...\n      PUSH 0\t\t\tation, _distance);\\r\\n    }\\r\\...\n      KECCAK256 \t\t\tation, _distance);\\r\\n    }\\r\\...\n      PUSH 0\t\t\tation, _distance);\\r\\n    }\\r\\...\n      DUP6 \t\t\t 유저 ID와 타임\n      DUP2 \t\t\tation, _distance);\\r\\n    }\\r\\...\n      MSTORE \t\t\tation, _distance);\\r\\n    }\\r\\...\n      PUSH 20\t\t\tation, _distance);\\r\\n    }\\r\\...\n      ADD \t\t\tation, _distance);\\r\\n    }\\r\\...\n      SWAP1 \t\t\tation, _distance);\\r\\n    }\\r\\...\n      DUP2 \t\t\tation, _distance);\\r\\n    }\\r\\...\n      MSTORE \t\t\tation, _distance);\\r\\n    }\\r\\...\n      PUSH 20\t\t\tation, _distance);\\r\\n    }\\r\\...\n      ADD \t\t\tation, _distance);\\r\\n    }\\r\\...\n      PUSH 0\t\t\tation, _distance);\\r\\n    }\\r\\...\n      KECCAK256 \t\t\tation, _distance);\\r\\n    }\\r\\...\n      PUSH 40\t\t\t 정보 배열을 조회하는 함수\\r\\n    functio...\n      MLOAD \t\t\t 정보 배열을 조회하는 함수\\r\\n    functio...\n      DUP1 \t\t\t 정보 배열을 조회하는 함수\\r\\n    functio...\n      PUSH 80\t\t\t 정보 배열을 조회하는 함수\\r\\n    functio...\n      ADD \t\t\t 정보 배열을 조회하는 함수\\r\\n    functio...\n      PUSH 40\t\t\t 정보 배열을 조회하는 함수\\r\\n    functio...\n      MSTORE \t\t\t 정보 배열을 조회하는 함수\\r\\n    functio...\n      DUP1 \t\t\t 정보 배열을 조회하는 함수\\r\\n    functio...\n      DUP7 \t\t\t함수\\r\\n    fu\n      DUP2 \t\t\t 정보 배열을 조회하는 함수\\r\\n    functio...\n      MSTORE \t\t\t 정보 배열을 조회하는 함수\\r\\n    functio...\n      PUSH 20\t\t\t 정보 배열을 조회하는 함수\\r\\n    functio...\n      ADD \t\t\t 정보 배열을 조회하는 함수\\r\\n    functio...\n      DUP6 \t\t\ttion g\n      DUP2 \t\t\t 정보 배열을 조회하는 함수\\r\\n    functio...\n      MSTORE \t\t\t 정보 배열을 조회하는 함수\\r\\n    functio...\n      PUSH 20\t\t\t 정보 배열을 조회하는 함수\\r\\n    functio...\n      ADD \t\t\t 정보 배열을 조회하는 함수\\r\\n    functio...\n      DUP5 \t\t\tExerciseD\n      DUP2 \t\t\t 정보 배열을 조회하는 함수\\r\\n    functio...\n      MSTORE \t\t\t 정보 배열을 조회하는 함수\\r\\n    functio...\n      PUSH 20\t\t\t 정보 배열을 조회하는 함수\\r\\n    functio...\n      ADD \t\t\t 정보 배열을 조회하는 함수\\r\\n    functio...\n      DUP4 \t\t\taByTimest\n      DUP2 \t\t\t 정보 배열을 조회하는 함수\\r\\n    functio...\n      MSTORE \t\t\t 정보 배열을 조회하는 함수\\r\\n    functio...\n      POP \t\t\t 정보 배열을 조회하는 함수\\r\\n    functio...\n      SWAP1 \t\t\tation, _distance);\\r\\n    }\\r\\...\n      DUP1 \t\t\tation, _distance);\\r\\n    }\\r\\...\n      PUSH 1\t\t\tation, _distance);\\r\\n    }\\r\\...\n      DUP2 \t\t\tation, _distance);\\r\\n    }\\r\\...\n      SLOAD \t\t\tation, _distance);\\r\\n    }\\r\\...\n      ADD \t\t\tation, _distance);\\r\\n    }\\r\\...\n      DUP1 \t\t\tation, _distance);\\r\\n    }\\r\\...\n      DUP3 \t\t\tation, _distance);\\r\\n    }\\r\\...\n      SSTORE \t\t\tation, _distance);\\r\\n    }\\r\\...\n      DUP1 \t\t\tation, _distance);\\r\\n    }\\r\\...\n      SWAP2 \t\t\tation, _distance);\\r\\n    }\\r\\...\n      POP \t\t\tation, _distance);\\r\\n    }\\r\\...\n      POP \t\t\tation, _distance);\\r\\n    }\\r\\...\n      PUSH 1\t\t\tation, _distance);\\r\\n    }\\r\\...\n      SWAP1 \t\t\tation, _distance);\\r\\n    }\\r\\...\n      SUB \t\t\tation, _distance);\\r\\n    }\\r\\...\n      SWAP1 \t\t\tation, _distance);\\r\\n    }\\r\\...\n      PUSH 0\t\t\tation, _distance);\\r\\n    }\\r\\...\n      MSTORE \t\t\tation, _distance);\\r\\n    }\\r\\...\n      PUSH 20\t\t\tation, _distance);\\r\\n    }\\r\\...\n      PUSH 0\t\t\tation, _distance);\\r\\n    }\\r\\...\n      KECCAK256 \t\t\tation, _distance);\\r\\n    }\\r\\...\n      SWAP1 \t\t\tation, _distance);\\r\\n    }\\r\\...\n      PUSH 4\t\t\tation, _distance);\\r\\n    }\\r\\...\n      MUL \t\t\tation, _distance);\\r\\n    }\\r\\...\n      ADD \t\t\tation, _distance);\\r\\n    }\\r\\...\n      PUSH 0\t\t\tation, _distance);\\r\\n    }\\r\\...\n      SWAP1 \t\t\tation, _distance);\\r\\n    }\\r\\...\n      SWAP2 \t\t\tation, _distance);\\r\\n    }\\r\\...\n      SWAP1 \t\t\tation, _distance);\\r\\n    }\\r\\...\n      SWAP2 \t\t\tation, _distance);\\r\\n    }\\r\\...\n      SWAP1 \t\t\tation, _distance);\\r\\n    }\\r\\...\n      SWAP2 \t\t\tation, _distance);\\r\\n    }\\r\\...\n      POP \t\t\tation, _distance);\\r\\n    }\\r\\...\n      PUSH 0\t\t\tation, _distance);\\r\\n    }\\r\\...\n      DUP3 \t\t\tation, _distance);\\r\\n    }\\r\\...\n      ADD \t\t\tation, _distance);\\r\\n    }\\r\\...\n      MLOAD \t\t\tation, _distance);\\r\\n    }\\r\\...\n      DUP2 \t\t\tation, _distance);\\r\\n    }\\r\\...\n      PUSH 0\t\t\tation, _distance);\\r\\n    }\\r\\...\n      ADD \t\t\tation, _distance);\\r\\n    }\\r\\...\n      SSTORE \t\t\tation, _distance);\\r\\n    }\\r\\...\n      PUSH 20\t\t\tation, _distance);\\r\\n    }\\r\\...\n      DUP3 \t\t\tation, _distance);\\r\\n    }\\r\\...\n      ADD \t\t\tation, _distance);\\r\\n    }\\r\\...\n      MLOAD \t\t\tation, _distance);\\r\\n    }\\r\\...\n      DUP2 \t\t\tation, _distance);\\r\\n    }\\r\\...\n      PUSH 1\t\t\tation, _distance);\\r\\n    }\\r\\...\n      ADD \t\t\tation, _distance);\\r\\n    }\\r\\...\n      SSTORE \t\t\tation, _distance);\\r\\n    }\\r\\...\n      PUSH 40\t\t\tation, _distance);\\r\\n    }\\r\\...\n      DUP3 \t\t\tation, _distance);\\r\\n    }\\r\\...\n      ADD \t\t\tation, _distance);\\r\\n    }\\r\\...\n      MLOAD \t\t\tation, _distance);\\r\\n    }\\r\\...\n      DUP2 \t\t\tation, _distance);\\r\\n    }\\r\\...\n      PUSH 2\t\t\tation, _distance);\\r\\n    }\\r\\...\n      ADD \t\t\tation, _distance);\\r\\n    }\\r\\...\n      SSTORE \t\t\tation, _distance);\\r\\n    }\\r\\...\n      PUSH 60\t\t\tation, _distance);\\r\\n    }\\r\\...\n      DUP3 \t\t\tation, _distance);\\r\\n    }\\r\\...\n      ADD \t\t\tation, _distance);\\r\\n    }\\r\\...\n      MLOAD \t\t\tation, _distance);\\r\\n    }\\r\\...\n      DUP2 \t\t\tation, _distance);\\r\\n    }\\r\\...\n      PUSH 3\t\t\tation, _distance);\\r\\n    }\\r\\...\n      ADD \t\t\tation, _distance);\\r\\n    }\\r\\...\n      SSTORE \t\t\tation, _distance);\\r\\n    }\\r\\...\n      POP \t\t\tation, _distance);\\r\\n    }\\r\\...\n      POP \t\t\tation, _distance);\\r\\n    }\\r\\...\n      PUSH E920C436C1F1B04EEC68B8CDEB48D96C4D5D95F3CC10D4FD0A21978585C23E09\t\t\t(ExerciseData[] memory) {\\r\\n ...\n      DUP6 \t\t\tmory) {\\r\\n\n      DUP6 \t\t\t      retu\n      DUP6 \t\t\t exerc\n      DUP6 \t\t\teRecordsB\n      DUP6 \t\t\timestamp[\n      PUSH 40\t\t\t(ExerciseData[] memory) {\\r\\n ...\n      MLOAD \t\t\t(ExerciseData[] memory) {\\r\\n ...\n      PUSH [tag] 102\t\t\t(ExerciseData[] memory) {\\r\\n ...\n      SWAP6 \t\t\t(ExerciseData[] memory) {\\r\\n ...\n      SWAP5 \t\t\t(ExerciseData[] memory) {\\r\\n ...\n      SWAP4 \t\t\t(ExerciseData[] memory) {\\r\\n ...\n      SWAP3 \t\t\t(ExerciseData[] memory) {\\r\\n ...\n      SWAP2 \t\t\t(ExerciseData[] memory) {\\r\\n ...\n      SWAP1 \t\t\t(ExerciseData[] memory) {\\r\\n ...\n      PUSH [tag] 103\t\t\t(ExerciseData[] memory) {\\r\\n ...\n      JUMP \t\t\t(ExerciseData[] memory) {\\r\\n ...\n    tag 102\t\t\t(ExerciseData[] memory) {\\r\\n ...\n      JUMPDEST \t\t\t(ExerciseData[] memory) {\\r\\n ...\n      PUSH 40\t\t\t(ExerciseData[] memory) {\\r\\n ...\n      MLOAD \t\t\t(ExerciseData[] memory) {\\r\\n ...\n      DUP1 \t\t\t(ExerciseData[] memory) {\\r\\n ...\n      SWAP2 \t\t\t(ExerciseData[] memory) {\\r\\n ...\n      SUB \t\t\t(ExerciseData[] memory) {\\r\\n ...\n      SWAP1 \t\t\t(ExerciseData[] memory) {\\r\\n ...\n      LOG1 \t\t\t(ExerciseData[] memory) {\\r\\n ...\n      POP \t\t\t        exerciseRecordsByTimes...\n      POP \t\t\t        exerciseRecordsByTimes...\n      POP \t\t\t        exerciseRecordsByTimes...\n      POP \t\t\t        exerciseRecordsByTimes...\n      POP \t\t\t        exerciseRecordsByTimes...\n      JUMP \t\t\t        exerciseRecordsByTimes...\n    tag 76\t\t\t\n      JUMPDEST \t\t\t\n      PUSH 40\t\t\t\n      MLOAD \t\t\t\n      DUP1 \t\t\t\n      PUSH C0\t\t\t\n      ADD \t\t\t\n      PUSH 40\t\t\t\n      MSTORE \t\t\t\n      DUP1 \t\t\t\n      PUSH 60\t\t\t\n      DUP2 \t\t\t\n      MSTORE \t\t\t\n      PUSH 20\t\t\t\n      ADD \t\t\t\n      PUSH 0\t\t\t\n      ISZERO \t\t\t\n      ISZERO \t\t\t\n      DUP2 \t\t\t\n      MSTORE \t\t\t\n      PUSH 20\t\t\t\n      ADD \t\t\t\n      PUSH 0\t\t\t\n      DUP2 \t\t\t\n      MSTORE \t\t\t\n      PUSH 20\t\t\t\n      ADD \t\t\t\n      PUSH 60\t\t\t\n      DUP2 \t\t\t\n      MSTORE \t\t\t\n      PUSH 20\t\t\t\n      ADD \t\t\t\n      PUSH 60\t\t\t\n      DUP2 \t\t\t\n      MSTORE \t\t\t\n      PUSH 20\t\t\t\n      ADD \t\t\t\n      PUSH 0\t\t\t\n      DUP2 \t\t\t\n      MSTORE \t\t\t\n      POP \t\t\t\n      SWAP1 \t\t\t\n      JUMP \t\t\t\n    tag 104\t\t\t-License-Identifier: MIT\\r\\npr...\n      JUMPDEST \t\t\t-License-Identifier: MIT\\r\\npr...\n      PUSH 0\t\t\tsolidi\n      PUSH 40\t\t\tra\n      MLOAD \t\t\t\\r\\ncontrac\n      SWAP1 \t\t\t <0.9.0;\\r\\n\\r\\ncontrac\n      POP \t\t\t <0.9.0;\\r\\n\\r\\ncontrac\n      SWAP1 \t\t\t-License-Identifier: MIT\\r\\npr...\n      JUMP \t\t\t-License-Identifier: MIT\\r\\npr...\n    tag 105\t\t\t\\r\\n    struct ExerciseData {\\...\n      JUMPDEST \t\t\t\\r\\n    struct ExerciseData {\\...\n      PUSH 0\t\t\tn\n      DUP1 \t\t\t \n      REVERT \t\t\t        uint\n    tag 106\t\t\t    }\\r\\n\\r\\n    struct Receip...\n      JUMPDEST \t\t\t    }\\r\\n\\r\\n    struct Receip...\n      PUSH 0\t\t\t \n      DUP1 \t\t\t \n      REVERT \t\t\tce;\\r\\n       \n    tag 107\t\t\tription;\\r\\n        string cre...\n      JUMPDEST \t\t\tription;\\r\\n        string cre...\n      PUSH 0\t\t\t       \n      DUP2 \t\t\t\\r\\n\\r\\n \n      SWAP1 \t\t\trId;\\r\\n    }\\r\\n\\r\\n \n      POP \t\t\trId;\\r\\n    }\\r\\n\\r\\n \n      SWAP2 \t\t\tription;\\r\\n        string cre...\n      SWAP1 \t\t\tription;\\r\\n        string cre...\n      POP \t\t\tription;\\r\\n        string cre...\n      JUMP \t\t\tription;\\r\\n        string cre...\n    tag 108\t\t\t 타임스탬프별로 운동 정보 배열을 저장하는 매핑\\r\\n...\n      JUMPDEST \t\t\t 타임스탬프별로 운동 정보 배열을 저장하는 매핑\\r\\n...\n      PUSH [tag] 166\t\t\tata[])) public exerciseR\n      DUP2 \t\t\trcise\n      PUSH [tag] 107\t\t\tata[])) public exerciseR\n      JUMP \t\t\tata[])) public exerciseR\n    tag 166\t\t\tata[])) public exerciseR\n      JUMPDEST \t\t\tata[])) public exerciseR\n      DUP2 \t\t\tercis\n      EQ \t\t\t ExerciseData[])) public exerc...\n      PUSH [tag] 167\t\t\tng(uint => ExerciseData[])) pu...\n      JUMPI \t\t\tng(uint => ExerciseData[])) pu...\n      PUSH 0\t\t\tm\n      DUP1 \t\t\ts\n      REVERT \t\t\tsByTimestamp\n    tag 167\t\t\tng(uint => ExerciseData[])) pu...\n      JUMPDEST \t\t\tng(uint => ExerciseData[])) pu...\n      POP \t\t\t 타임스탬프별로 운동 정보 배열을 저장하는 매핑\\r\\n...\n      JUMP \t\t\t 타임스탬프별로 운동 정보 배열을 저장하는 매핑\\r\\n...\n    tag 109\t\t\t 데이터가 추가될 때 발생하는 이벤트\\r\\n    ev...\n      JUMPDEST \t\t\t 데이터가 추가될 때 발생하는 이벤트\\r\\n    ev...\n      PUSH 0\t\t\tded(u\n      DUP2 \t\t\tt step\n      CALLDATALOAD \t\t\timestamp, uint steps\n      SWAP1 \t\t\td, uint timestamp, uint steps\n      POP \t\t\td, uint timestamp, uint steps\n      PUSH [tag] 169\t\t\tration, uint distance);\\r\\n\\r\\...\n      DUP2 \t\t\t    /\n      PUSH [tag] 108\t\t\tration, uint distance);\\r\\n\\r\\...\n      JUMP \t\t\tration, uint distance);\\r\\n\\r\\...\n    tag 169\t\t\tration, uint distance);\\r\\n\\r\\...\n      JUMPDEST \t\t\tration, uint distance);\\r\\n\\r\\...\n      SWAP3 \t\t\t 데이터가 추가될 때 발생하는 이벤트\\r\\n    ev...\n      SWAP2 \t\t\t 데이터가 추가될 때 발생하는 이벤트\\r\\n    ev...\n      POP \t\t\t 데이터가 추가될 때 발생하는 이벤트\\r\\n    ev...\n      POP \t\t\t 데이터가 추가될 때 발생하는 이벤트\\r\\n    ev...\n      JUMP \t\t\t 데이터가 추가될 때 발생하는 이벤트\\r\\n    ev...\n    tag 11\t\t\t를 저장하는 배열\\r\\n    Receipt[] pub...\n      JUMPDEST \t\t\t를 저장하는 배열\\r\\n    Receipt[] pub...\n      PUSH 0\t\t\t 이벤트\\r\\n\n      DUP1 \t\t\t  even\n      PUSH 0\t\t\tReceip\n      PUSH 60\t\t\ttT\n      DUP5 \t\t\tstring wa\n      DUP7 \t\t\tceiptId\n      SUB \t\t\td receiptId, string wal\n      SLT \t\t\tdexed receiptId, string wallet...\n      ISZERO \t\t\t indexed receiptId, string wal...\n      PUSH [tag] 171\t\t\t indexed receiptId, string wal...\n      JUMPI \t\t\t indexed receiptId, string wal...\n      PUSH [tag] 172\t\t\t bool operator, uint price, st...\n      PUSH [tag] 105\t\t\t bool operator, uint price, st...\n      JUMP \t\t\t bool operator, uint price, st...\n    tag 172\t\t\t bool operator, uint price, st...\n      JUMPDEST \t\t\t bool operator, uint price, st...\n    tag 171\t\t\t indexed receiptId, string wal...\n      JUMPDEST \t\t\t indexed receiptId, string wal...\n      PUSH 0\t\t\tn\n      PUSH [tag] 173\t\t\temberId, uint _timestamp, uint...\n      DUP7 \t\t\tduratio\n      DUP3 \t\t\ts, uin\n      DUP8 \t\t\t uint _st\n      ADD \t\t\tamp, uint _steps, uint\n      PUSH [tag] 109\t\t\temberId, uint _timestamp, uint...\n      JUMP \t\t\temberId, uint _timestamp, uint...\n    tag 173\t\t\temberId, uint _timestamp, uint...\n      JUMPDEST \t\t\temberId, uint _timestamp, uint...\n      SWAP4 \t\t\tta(uint _memberId, uint _times...\n      POP \t\t\tta(uint _memberId, uint _times...\n      POP \t\t\t 운동 데이터를 추가하는 함수\\r\\n    functi...\n      PUSH 20\t\t\t 운\n      PUSH [tag] 174\t\t\t      exerciseRecordsByTimesta...\n      DUP7 \t\t\ttimesta\n      DUP3 \t\t\tmberId\n      DUP8 \t\t\tmestamp[_\n      ADD \t\t\tByTimestamp[_memberId]\n      PUSH [tag] 109\t\t\t      exerciseRecordsByTimesta...\n      JUMP \t\t\t      exerciseRecordsByTimesta...\n    tag 174\t\t\t      exerciseRecordsByTimesta...\n      JUMPDEST \t\t\t      exerciseRecordsByTimesta...\n      SWAP3 \t\t\t이터를 추가\\r\\n        exerciseReco...\n      POP \t\t\t이터를 추가\\r\\n        exerciseReco...\n      POP \t\t\tblic {\\r\\n        // 지정된 타임스탬프...\n      PUSH 40\t\t\tn,\n      PUSH [tag] 175\t\t\t\\n        // 이벤트 발생\\r\\n       ...\n      DUP7 \t\t\tAdded(_\n      DUP3 \t\t\trciseD\n      DUP8 \t\t\t   emit E\n      ADD \t\t\t       emit ExerciseDa\n      PUSH [tag] 109\t\t\t\\n        // 이벤트 발생\\r\\n       ...\n      JUMP \t\t\t\\n        // 이벤트 발생\\r\\n       ...\n    tag 175\t\t\t\\n        // 이벤트 발생\\r\\n       ...\n      JUMPDEST \t\t\t\\n        // 이벤트 발생\\r\\n       ...\n      SWAP2 \t\t\t\\n        \\r\\n        // 이벤트 발...\n      POP \t\t\t\\n        \\r\\n        // 이벤트 발...\n      POP \t\t\t(_timestamp, _steps, _duration...\n      SWAP3 \t\t\t를 저장하는 배열\\r\\n    Receipt[] pub...\n      POP \t\t\t를 저장하는 배열\\r\\n    Receipt[] pub...\n      SWAP3 \t\t\t를 저장하는 배열\\r\\n    Receipt[] pub...\n      POP \t\t\t를 저장하는 배열\\r\\n    Receipt[] pub...\n      SWAP3 \t\t\t를 저장하는 배열\\r\\n    Receipt[] pub...\n      JUMP \t\t\t를 저장하는 배열\\r\\n    Receipt[] pub...\n    tag 110\t\t\tteps, _duration, _distance);\\r...\n      JUMPDEST \t\t\tteps, _duration, _distance);\\r...\n      PUSH [tag] 177\t\t\tunction getExerciseDataB\n      DUP2 \t\t\teData\n      PUSH [tag] 107\t\t\tunction getExerciseDataB\n      JUMP \t\t\tunction getExerciseDataB\n    tag 177\t\t\tunction getExerciseDataB\n      JUMPDEST \t\t\tunction getExerciseDataB\n      DUP3 \t\t\t   \n      MSTORE \t\t\t하는 함수\\r\\n    function getExerc...\n      POP \t\t\tteps, _duration, _distance);\\r...\n      POP \t\t\tteps, _duration, _distance);\\r...\n      JUMP \t\t\tteps, _duration, _distance);\\r...\n    tag 14\t\t\tnt _memberId, uint _timestamp)...\n      JUMPDEST \t\t\tnt _memberId, uint _timestamp)...\n      PUSH 0\t\t\t는 함수\n      PUSH 80\t\t\temo\n      DUP3 \t\t\tpt(string\n      ADD \t\t\teceipt(string memor\n      SWAP1 \t\t\tion addReceipt(string memor\n      POP \t\t\tion addReceipt(string memor\n      PUSH [tag] 179\t\t\type, bool _operator, uint _pri...\n      PUSH 0\t\t\t \n      DUP4 \t\t\tion, stri\n      ADD \t\t\tription, string m\n      DUP8 \t\t\tory _d\n      PUSH [tag] 110\t\t\type, bool _operator, uint _pri...\n      JUMP \t\t\type, bool _operator, uint _pri...\n    tag 179\t\t\type, bool _operator, uint _pri...\n      JUMPDEST \t\t\type, bool _operator, uint _pri...\n      PUSH [tag] 180\t\t\ttedAt, uint _memberId) public ...\n      PUSH 20\t\t\th(\n      DUP4 \t\t\teceipts.p\n      ADD \t\t\t   receipts.push(R\n      DUP7 \t\t\t {\\r\\n  \n      PUSH [tag] 110\t\t\ttedAt, uint _memberId) public ...\n      JUMP \t\t\ttedAt, uint _memberId) public ...\n    tag 180\t\t\ttedAt, uint _memberId) public ...\n      JUMPDEST \t\t\ttedAt, uint _memberId) public ...\n      PUSH [tag] 181\t\t\tletType, _operator, _price, _d...\n      PUSH 40\t\t\t  \n      DUP4 \t\t\tmberId));\n      ADD \t\t\t _memberId));\\r\\n   \n      DUP6 \t\t\treated\n      PUSH [tag] 110\t\t\tletType, _operator, _price, _d...\n      JUMP \t\t\tletType, _operator, _price, _d...\n    tag 181\t\t\tletType, _operator, _price, _d...\n      JUMPDEST \t\t\tletType, _operator, _price, _d...\n      PUSH [tag] 182\t\t\teceiptId = receipts.length - 1...\n      PUSH 60\t\t\t(r\n      DUP4 \t\t\teceiptAdd\n      ADD \t\t\tit ReceiptAdded(re\n      DUP5 \t\t\t      \n      PUSH [tag] 110\t\t\teceiptId = receipts.length - 1...\n      JUMP \t\t\teceiptId = receipts.length - 1...\n    tag 182\t\t\teceiptId = receipts.length - 1...\n      JUMPDEST \t\t\teceiptId = receipts.length - 1...\n      SWAP6 \t\t\tnt _memberId, uint _timestamp)...\n      SWAP5 \t\t\tnt _memberId, uint _timestamp)...\n      POP \t\t\tnt _memberId, uint _timestamp)...\n      POP \t\t\tnt _memberId, uint _timestamp)...\n      POP \t\t\tnt _memberId, uint _timestamp)...\n      POP \t\t\tnt _memberId, uint _timestamp)...\n      POP \t\t\tnt _memberId, uint _timestamp)...\n      JUMP \t\t\tnt _memberId, uint _timestamp)...\n    tag 17\t\t\tetType, _operator, _price, _de...\n      JUMPDEST \t\t\tetType, _operator, _price, _de...\n      PUSH 0\t\t\trId);\\r\n      PUSH 20\t\t\t\\r\\n\n      DUP3 \t\t\tptId;\\r\\n  \n      DUP5 \t\t\turn rec\n      SUB \t\t\t return receiptId;\\r\\n   \n      SLT \t\t\t     return receiptId;\\r\\n    ...\n      ISZERO \t\t\t        return receiptId;\\r\\n ...\n      PUSH [tag] 184\t\t\t        return receiptId;\\r\\n ...\n      JUMPI \t\t\t        return receiptId;\\r\\n ...\n      PUSH [tag] 185\t\t\t  // 특정 ID를 가진 Receipt 데이터를 조회...\n      PUSH [tag] 105\t\t\t  // 특정 ID를 가진 Receipt 데이터를 조회...\n      JUMP \t\t\t  // 특정 ID를 가진 Receipt 데이터를 조회...\n    tag 185\t\t\t  // 특정 ID를 가진 Receipt 데이터를 조회...\n      JUMPDEST \t\t\t  // 특정 ID를 가진 Receipt 데이터를 조회...\n    tag 184\t\t\t        return receiptId;\\r\\n ...\n      JUMPDEST \t\t\t        return receiptId;\\r\\n ...\n      PUSH 0\t\t\t \n      PUSH [tag] 186\t\t\t< receipts.length, \"Receipt do...\n      DUP5 \t\t\t;\\r\\n    \n      DUP3 \t\t\t exist\n      DUP6 \t\t\tpt does n\n      ADD \t\t\teceipt does not exist.\n      PUSH [tag] 109\t\t\t< receipts.length, \"Receipt do...\n      JUMP \t\t\t< receipts.length, \"Receipt do...\n    tag 186\t\t\t< receipts.length, \"Receipt do...\n      JUMPDEST \t\t\t< receipts.length, \"Receipt do...\n      SWAP2 \t\t\treceiptId < receipts.length, \"...\n      POP \t\t\treceiptId < receipts.length, \"...\n      POP \t\t\teturns (Receipt memory) {\\r\\n ...\n      SWAP3 \t\t\tetType, _operator, _price, _de...\n      SWAP2 \t\t\tetType, _operator, _price, _de...\n      POP \t\t\tetType, _operator, _price, _de...\n      POP \t\t\tetType, _operator, _price, _de...\n      JUMP \t\t\tetType, _operator, _price, _de...\n    tag 111\t\t\teiptId];\\r\\n    }\\r\\n}\\r\\n\n      JUMPDEST \t\t\teiptId];\\r\\n    }\\r\\n}\\r\\n\n      PUSH 0\t\t\t\n      DUP2 \t\t\t\n      MLOAD \t\t\t\n      SWAP1 \t\t\t\n      POP \t\t\t\n      SWAP2 \t\t\teiptId];\\r\\n    }\\r\\n}\\r\\n\n      SWAP1 \t\t\teiptId];\\r\\n    }\\r\\n}\\r\\n\n      POP \t\t\teiptId];\\r\\n    }\\r\\n}\\r\\n\n      JUMP \t\t\teiptId];\\r\\n    }\\r\\n}\\r\\n\n    tag 112\t\t\t\n      JUMPDEST \t\t\t\n      PUSH 0\t\t\t\n      DUP3 \t\t\t\n      DUP3 \t\t\t\n      MSTORE \t\t\t\n      PUSH 20\t\t\t\n      DUP3 \t\t\t\n      ADD \t\t\t\n      SWAP1 \t\t\t\n      POP \t\t\t\n      SWAP3 \t\t\t\n      SWAP2 \t\t\t\n      POP \t\t\t\n      POP \t\t\t\n      JUMP \t\t\t\n    tag 113\t\t\t\n      JUMPDEST \t\t\t\n      DUP3 \t\t\t\n      DUP2 \t\t\t\n      DUP4 \t\t\t\n      MCOPY \t\t\t\n      PUSH 0\t\t\t\n      DUP4 \t\t\t\n      DUP4 \t\t\t\n      ADD \t\t\t\n      MSTORE \t\t\t\n      POP \t\t\t\n      POP \t\t\t\n      POP \t\t\t\n      JUMP \t\t\t\n    tag 114\t\t\t\n      JUMPDEST \t\t\t\n      PUSH 0\t\t\t\n      PUSH 1F\t\t\t\n      NOT \t\t\t\n      PUSH 1F\t\t\t\n      DUP4 \t\t\t\n      ADD \t\t\t\n      AND \t\t\t\n      SWAP1 \t\t\t\n      POP \t\t\t\n      SWAP2 \t\t\t\n      SWAP1 \t\t\t\n      POP \t\t\t\n      JUMP \t\t\t\n    tag 115\t\t\t\n      JUMPDEST \t\t\t\n      PUSH 0\t\t\t\n      PUSH [tag] 192\t\t\t\n      DUP3 \t\t\t\n      PUSH [tag] 111\t\t\t\n      JUMP \t\t\t\n    tag 192\t\t\t\n      JUMPDEST \t\t\t\n      PUSH [tag] 193\t\t\t\n      DUP2 \t\t\t\n      DUP6 \t\t\t\n      PUSH [tag] 112\t\t\t\n      JUMP \t\t\t\n    tag 193\t\t\t\n      JUMPDEST \t\t\t\n      SWAP4 \t\t\t\n      POP \t\t\t\n      PUSH [tag] 194\t\t\t\n      DUP2 \t\t\t\n      DUP6 \t\t\t\n      PUSH 20\t\t\t\n      DUP7 \t\t\t\n      ADD \t\t\t\n      PUSH [tag] 113\t\t\t\n      JUMP \t\t\t\n    tag 194\t\t\t\n      JUMPDEST \t\t\t\n      PUSH [tag] 195\t\t\t\n      DUP2 \t\t\t\n      PUSH [tag] 114\t\t\t\n      JUMP \t\t\t\n    tag 195\t\t\t\n      JUMPDEST \t\t\t\n      DUP5 \t\t\t\n      ADD \t\t\t\n      SWAP2 \t\t\t\n      POP \t\t\t\n      POP \t\t\t\n      SWAP3 \t\t\t\n      SWAP2 \t\t\t\n      POP \t\t\t\n      POP \t\t\t\n      JUMP \t\t\t\n    tag 116\t\t\t\n      JUMPDEST \t\t\t\n      PUSH 0\t\t\t\n      DUP2 \t\t\t\n      ISZERO \t\t\t\n      ISZERO \t\t\t\n      SWAP1 \t\t\t\n      POP \t\t\t\n      SWAP2 \t\t\t\n      SWAP1 \t\t\t\n      POP \t\t\t\n      JUMP \t\t\t\n    tag 117\t\t\t\n      JUMPDEST \t\t\t\n      PUSH [tag] 198\t\t\t\n      DUP2 \t\t\t\n      PUSH [tag] 116\t\t\t\n      JUMP \t\t\t\n    tag 198\t\t\t\n      JUMPDEST \t\t\t\n      DUP3 \t\t\t\n      MSTORE \t\t\t\n      POP \t\t\t\n      POP \t\t\t\n      JUMP \t\t\t\n    tag 20\t\t\t\n      JUMPDEST \t\t\t\n      PUSH 0\t\t\t\n      PUSH C0\t\t\t\n      DUP3 \t\t\t\n      ADD \t\t\t\n      SWAP1 \t\t\t\n      POP \t\t\t\n      DUP2 \t\t\t\n      DUP2 \t\t\t\n      SUB \t\t\t\n      PUSH 0\t\t\t\n      DUP4 \t\t\t\n      ADD \t\t\t\n      MSTORE \t\t\t\n      PUSH [tag] 200\t\t\t\n      DUP2 \t\t\t\n      DUP10 \t\t\t\n      PUSH [tag] 115\t\t\t\n      JUMP \t\t\t\n    tag 200\t\t\t\n      JUMPDEST \t\t\t\n      SWAP1 \t\t\t\n      POP \t\t\t\n      PUSH [tag] 201\t\t\t\n      PUSH 20\t\t\t\n      DUP4 \t\t\t\n      ADD \t\t\t\n      DUP9 \t\t\t\n      PUSH [tag] 117\t\t\t\n      JUMP \t\t\t\n    tag 201\t\t\t\n      JUMPDEST \t\t\t\n      PUSH [tag] 202\t\t\t\n      PUSH 40\t\t\t\n      DUP4 \t\t\t\n      ADD \t\t\t\n      DUP8 \t\t\t\n      PUSH [tag] 110\t\t\t\n      JUMP \t\t\t\n    tag 202\t\t\t\n      JUMPDEST \t\t\t\n      DUP2 \t\t\t\n      DUP2 \t\t\t\n      SUB \t\t\t\n      PUSH 60\t\t\t\n      DUP4 \t\t\t\n      ADD \t\t\t\n      MSTORE \t\t\t\n      PUSH [tag] 203\t\t\t\n      DUP2 \t\t\t\n      DUP7 \t\t\t\n      PUSH [tag] 115\t\t\t\n      JUMP \t\t\t\n    tag 203\t\t\t\n      JUMPDEST \t\t\t\n      SWAP1 \t\t\t\n      POP \t\t\t\n      DUP2 \t\t\t\n      DUP2 \t\t\t\n      SUB \t\t\t\n      PUSH 80\t\t\t\n      DUP4 \t\t\t\n      ADD \t\t\t\n      MSTORE \t\t\t\n      PUSH [tag] 204\t\t\t\n      DUP2 \t\t\t\n      DUP6 \t\t\t\n      PUSH [tag] 115\t\t\t\n      JUMP \t\t\t\n    tag 204\t\t\t\n      JUMPDEST \t\t\t\n      SWAP1 \t\t\t\n      POP \t\t\t\n      PUSH [tag] 205\t\t\t\n      PUSH A0\t\t\t\n      DUP4 \t\t\t\n      ADD \t\t\t\n      DUP5 \t\t\t\n      PUSH [tag] 110\t\t\t\n      JUMP \t\t\t\n    tag 205\t\t\t\n      JUMPDEST \t\t\t\n      SWAP8 \t\t\t\n      SWAP7 \t\t\t\n      POP \t\t\t\n      POP \t\t\t\n      POP \t\t\t\n      POP \t\t\t\n      POP \t\t\t\n      POP \t\t\t\n      POP \t\t\t\n      JUMP \t\t\t\n    tag 118\t\t\t\n      JUMPDEST \t\t\t\n      PUSH 0\t\t\t\n      DUP1 \t\t\t\n      REVERT \t\t\t\n    tag 119\t\t\t\n      JUMPDEST \t\t\t\n      PUSH 0\t\t\t\n      DUP1 \t\t\t\n      REVERT \t\t\t\n    tag 120\t\t\t\n      JUMPDEST \t\t\t\n      PUSH 4E487B7100000000000000000000000000000000000000000000000000000000\t\t\t\n      PUSH 0\t\t\t\n      MSTORE \t\t\t\n      PUSH 41\t\t\t\n      PUSH 4\t\t\t\n      MSTORE \t\t\t\n      PUSH 24\t\t\t\n      PUSH 0\t\t\t\n      REVERT \t\t\t\n    tag 121\t\t\t\n      JUMPDEST \t\t\t\n      PUSH [tag] 210\t\t\t\n      DUP3 \t\t\t\n      PUSH [tag] 114\t\t\t\n      JUMP \t\t\t\n    tag 210\t\t\t\n      JUMPDEST \t\t\t\n      DUP2 \t\t\t\n      ADD \t\t\t\n      DUP2 \t\t\t\n      DUP2 \t\t\t\n      LT \t\t\t\n      PUSH FFFFFFFFFFFFFFFF\t\t\t\n      DUP3 \t\t\t\n      GT \t\t\t\n      OR \t\t\t\n      ISZERO \t\t\t\n      PUSH [tag] 211\t\t\t\n      JUMPI \t\t\t\n      PUSH [tag] 212\t\t\t\n      PUSH [tag] 120\t\t\t\n      JUMP \t\t\t\n    tag 212\t\t\t\n      JUMPDEST \t\t\t\n    tag 211\t\t\t\n      JUMPDEST \t\t\t\n      DUP1 \t\t\t\n      PUSH 40\t\t\t\n      MSTORE \t\t\t\n      POP \t\t\t\n      POP \t\t\t\n      POP \t\t\t\n      JUMP \t\t\t\n    tag 122\t\t\t\n      JUMPDEST \t\t\t\n      PUSH 0\t\t\t\n      PUSH [tag] 214\t\t\t\n      PUSH [tag] 104\t\t\t\n      JUMP \t\t\t\n    tag 214\t\t\t\n      JUMPDEST \t\t\t\n      SWAP1 \t\t\t\n      POP \t\t\t\n      PUSH [tag] 215\t\t\t\n      DUP3 \t\t\t\n      DUP3 \t\t\t\n      PUSH [tag] 121\t\t\t\n      JUMP \t\t\t\n    tag 215\t\t\t\n      JUMPDEST \t\t\t\n      SWAP2 \t\t\t\n      SWAP1 \t\t\t\n      POP \t\t\t\n      JUMP \t\t\t\n    tag 123\t\t\t\n      JUMPDEST \t\t\t\n      PUSH 0\t\t\t\n      PUSH FFFFFFFFFFFFFFFF\t\t\t\n      DUP3 \t\t\t\n      GT \t\t\t\n      ISZERO \t\t\t\n      PUSH [tag] 217\t\t\t\n      JUMPI \t\t\t\n      PUSH [tag] 218\t\t\t\n      PUSH [tag] 120\t\t\t\n      JUMP \t\t\t\n    tag 218\t\t\t\n      JUMPDEST \t\t\t\n    tag 217\t\t\t\n      JUMPDEST \t\t\t\n      PUSH [tag] 219\t\t\t\n      DUP3 \t\t\t\n      PUSH [tag] 114\t\t\t\n      JUMP \t\t\t\n    tag 219\t\t\t\n      JUMPDEST \t\t\t\n      SWAP1 \t\t\t\n      POP \t\t\t\n      PUSH 20\t\t\t\n      DUP2 \t\t\t\n      ADD \t\t\t\n      SWAP1 \t\t\t\n      POP \t\t\t\n      SWAP2 \t\t\t\n      SWAP1 \t\t\t\n      POP \t\t\t\n      JUMP \t\t\t\n    tag 124\t\t\t\n      JUMPDEST \t\t\t\n      DUP3 \t\t\t\n      DUP2 \t\t\t\n      DUP4 \t\t\t\n      CALLDATACOPY \t\t\t\n      PUSH 0\t\t\t\n      DUP4 \t\t\t\n      DUP4 \t\t\t\n      ADD \t\t\t\n      MSTORE \t\t\t\n      POP \t\t\t\n      POP \t\t\t\n      POP \t\t\t\n      JUMP \t\t\t\n    tag 125\t\t\t\n      JUMPDEST \t\t\t\n      PUSH 0\t\t\t\n      PUSH [tag] 222\t\t\t\n      PUSH [tag] 223\t\t\t\n      DUP5 \t\t\t\n      PUSH [tag] 123\t\t\t\n      JUMP \t\t\t\n    tag 223\t\t\t\n      JUMPDEST \t\t\t\n      PUSH [tag] 122\t\t\t\n      JUMP \t\t\t\n    tag 222\t\t\t\n      JUMPDEST \t\t\t\n      SWAP1 \t\t\t\n      POP \t\t\t\n      DUP3 \t\t\t\n      DUP2 \t\t\t\n      MSTORE \t\t\t\n      PUSH 20\t\t\t\n      DUP2 \t\t\t\n      ADD \t\t\t\n      DUP5 \t\t\t\n      DUP5 \t\t\t\n      DUP5 \t\t\t\n      ADD \t\t\t\n      GT \t\t\t\n      ISZERO \t\t\t\n      PUSH [tag] 224\t\t\t\n      JUMPI \t\t\t\n      PUSH [tag] 225\t\t\t\n      PUSH [tag] 119\t\t\t\n      JUMP \t\t\t\n    tag 225\t\t\t\n      JUMPDEST \t\t\t\n    tag 224\t\t\t\n      JUMPDEST \t\t\t\n      PUSH [tag] 226\t\t\t\n      DUP5 \t\t\t\n      DUP3 \t\t\t\n      DUP6 \t\t\t\n      PUSH [tag] 124\t\t\t\n      JUMP \t\t\t\n    tag 226\t\t\t\n      JUMPDEST \t\t\t\n      POP \t\t\t\n      SWAP4 \t\t\t\n      SWAP3 \t\t\t\n      POP \t\t\t\n      POP \t\t\t\n      POP \t\t\t\n      JUMP \t\t\t\n    tag 126\t\t\t\n      JUMPDEST \t\t\t\n      PUSH 0\t\t\t\n      DUP3 \t\t\t\n      PUSH 1F\t\t\t\n      DUP4 \t\t\t\n      ADD \t\t\t\n      SLT \t\t\t\n      PUSH [tag] 228\t\t\t\n      JUMPI \t\t\t\n      PUSH [tag] 229\t\t\t\n      PUSH [tag] 118\t\t\t\n      JUMP \t\t\t\n    tag 229\t\t\t\n      JUMPDEST \t\t\t\n    tag 228\t\t\t\n      JUMPDEST \t\t\t\n      DUP2 \t\t\t\n      CALLDATALOAD \t\t\t\n      PUSH [tag] 230\t\t\t\n      DUP5 \t\t\t\n      DUP3 \t\t\t\n      PUSH 20\t\t\t\n      DUP7 \t\t\t\n      ADD \t\t\t\n      PUSH [tag] 125\t\t\t\n      JUMP \t\t\t\n    tag 230\t\t\t\n      JUMPDEST \t\t\t\n      SWAP2 \t\t\t\n      POP \t\t\t\n      POP \t\t\t\n      SWAP3 \t\t\t\n      SWAP2 \t\t\t\n      POP \t\t\t\n      POP \t\t\t\n      JUMP \t\t\t\n    tag 127\t\t\t\n      JUMPDEST \t\t\t\n      PUSH [tag] 232\t\t\t\n      DUP2 \t\t\t\n      PUSH [tag] 116\t\t\t\n      JUMP \t\t\t\n    tag 232\t\t\t\n      JUMPDEST \t\t\t\n      DUP2 \t\t\t\n      EQ \t\t\t\n      PUSH [tag] 233\t\t\t\n      JUMPI \t\t\t\n      PUSH 0\t\t\t\n      DUP1 \t\t\t\n      REVERT \t\t\t\n    tag 233\t\t\t\n      JUMPDEST \t\t\t\n      POP \t\t\t\n      JUMP \t\t\t\n    tag 128\t\t\t\n      JUMPDEST \t\t\t\n      PUSH 0\t\t\t\n      DUP2 \t\t\t\n      CALLDATALOAD \t\t\t\n      SWAP1 \t\t\t\n      POP \t\t\t\n      PUSH [tag] 235\t\t\t\n      DUP2 \t\t\t\n      PUSH [tag] 127\t\t\t\n      JUMP \t\t\t\n    tag 235\t\t\t\n      JUMPDEST \t\t\t\n      SWAP3 \t\t\t\n      SWAP2 \t\t\t\n      POP \t\t\t\n      POP \t\t\t\n      JUMP \t\t\t\n    tag 23\t\t\t\n      JUMPDEST \t\t\t\n      PUSH 0\t\t\t\n      DUP1 \t\t\t\n      PUSH 0\t\t\t\n      DUP1 \t\t\t\n      PUSH 0\t\t\t\n      DUP1 \t\t\t\n      PUSH C0\t\t\t\n      DUP8 \t\t\t\n      DUP10 \t\t\t\n      SUB \t\t\t\n      SLT \t\t\t\n      ISZERO \t\t\t\n      PUSH [tag] 237\t\t\t\n      JUMPI \t\t\t\n      PUSH [tag] 238\t\t\t\n      PUSH [tag] 105\t\t\t\n      JUMP \t\t\t\n    tag 238\t\t\t\n      JUMPDEST \t\t\t\n    tag 237\t\t\t\n      JUMPDEST \t\t\t\n      PUSH 0\t\t\t\n      DUP8 \t\t\t\n      ADD \t\t\t\n      CALLDATALOAD \t\t\t\n      PUSH FFFFFFFFFFFFFFFF\t\t\t\n      DUP2 \t\t\t\n      GT \t\t\t\n      ISZERO \t\t\t\n      PUSH [tag] 239\t\t\t\n      JUMPI \t\t\t\n      PUSH [tag] 240\t\t\t\n      PUSH [tag] 106\t\t\t\n      JUMP \t\t\t\n    tag 240\t\t\t\n      JUMPDEST \t\t\t\n    tag 239\t\t\t\n      JUMPDEST \t\t\t\n      PUSH [tag] 241\t\t\t\n      DUP10 \t\t\t\n      DUP3 \t\t\t\n      DUP11 \t\t\t\n      ADD \t\t\t\n      PUSH [tag] 126\t\t\t\n      JUMP \t\t\t\n    tag 241\t\t\t\n      JUMPDEST \t\t\t\n      SWAP7 \t\t\t\n      POP \t\t\t\n      POP \t\t\t\n      PUSH 20\t\t\t\n      PUSH [tag] 242\t\t\t\n      DUP10 \t\t\t\n      DUP3 \t\t\t\n      DUP11 \t\t\t\n      ADD \t\t\t\n      PUSH [tag] 128\t\t\t\n      JUMP \t\t\t\n    tag 242\t\t\t\n      JUMPDEST \t\t\t\n      SWAP6 \t\t\t\n      POP \t\t\t\n      POP \t\t\t\n      PUSH 40\t\t\t\n      PUSH [tag] 243\t\t\t\n      DUP10 \t\t\t\n      DUP3 \t\t\t\n      DUP11 \t\t\t\n      ADD \t\t\t\n      PUSH [tag] 109\t\t\t\n      JUMP \t\t\t\n    tag 243\t\t\t\n      JUMPDEST \t\t\t\n      SWAP5 \t\t\t\n      POP \t\t\t\n      POP \t\t\t\n      PUSH 60\t\t\t\n      DUP8 \t\t\t\n      ADD \t\t\t\n      CALLDATALOAD \t\t\t\n      PUSH FFFFFFFFFFFFFFFF\t\t\t\n      DUP2 \t\t\t\n      GT \t\t\t\n      ISZERO \t\t\t\n      PUSH [tag] 244\t\t\t\n      JUMPI \t\t\t\n      PUSH [tag] 245\t\t\t\n      PUSH [tag] 106\t\t\t\n      JUMP \t\t\t\n    tag 245\t\t\t\n      JUMPDEST \t\t\t\n    tag 244\t\t\t\n      JUMPDEST \t\t\t\n      PUSH [tag] 246\t\t\t\n      DUP10 \t\t\t\n      DUP3 \t\t\t\n      DUP11 \t\t\t\n      ADD \t\t\t\n      PUSH [tag] 126\t\t\t\n      JUMP \t\t\t\n    tag 246\t\t\t\n      JUMPDEST \t\t\t\n      SWAP4 \t\t\t\n      POP \t\t\t\n      POP \t\t\t\n      PUSH 80\t\t\t\n      DUP8 \t\t\t\n      ADD \t\t\t\n      CALLDATALOAD \t\t\t\n      PUSH FFFFFFFFFFFFFFFF\t\t\t\n      DUP2 \t\t\t\n      GT \t\t\t\n      ISZERO \t\t\t\n      PUSH [tag] 247\t\t\t\n      JUMPI \t\t\t\n      PUSH [tag] 248\t\t\t\n      PUSH [tag] 106\t\t\t\n      JUMP \t\t\t\n    tag 248\t\t\t\n      JUMPDEST \t\t\t\n    tag 247\t\t\t\n      JUMPDEST \t\t\t\n      PUSH [tag] 249\t\t\t\n      DUP10 \t\t\t\n      DUP3 \t\t\t\n      DUP11 \t\t\t\n      ADD \t\t\t\n      PUSH [tag] 126\t\t\t\n      JUMP \t\t\t\n    tag 249\t\t\t\n      JUMPDEST \t\t\t\n      SWAP3 \t\t\t\n      POP \t\t\t\n      POP \t\t\t\n      PUSH A0\t\t\t\n      PUSH [tag] 250\t\t\t\n      DUP10 \t\t\t\n      DUP3 \t\t\t\n      DUP11 \t\t\t\n      ADD \t\t\t\n      PUSH [tag] 109\t\t\t\n      JUMP \t\t\t\n    tag 250\t\t\t\n      JUMPDEST \t\t\t\n      SWAP2 \t\t\t\n      POP \t\t\t\n      POP \t\t\t\n      SWAP3 \t\t\t\n      SWAP6 \t\t\t\n      POP \t\t\t\n      SWAP3 \t\t\t\n      SWAP6 \t\t\t\n      POP \t\t\t\n      SWAP3 \t\t\t\n      SWAP6 \t\t\t\n      JUMP \t\t\t\n    tag 26\t\t\t\n      JUMPDEST \t\t\t\n      PUSH 0\t\t\t\n      PUSH 20\t\t\t\n      DUP3 \t\t\t\n      ADD \t\t\t\n      SWAP1 \t\t\t\n      POP \t\t\t\n      PUSH [tag] 252\t\t\t\n      PUSH 0\t\t\t\n      DUP4 \t\t\t\n      ADD \t\t\t\n      DUP5 \t\t\t\n      PUSH [tag] 110\t\t\t\n      JUMP \t\t\t\n    tag 252\t\t\t\n      JUMPDEST \t\t\t\n      SWAP3 \t\t\t\n      SWAP2 \t\t\t\n      POP \t\t\t\n      POP \t\t\t\n      JUMP \t\t\t\n    tag 29\t\t\t\n      JUMPDEST \t\t\t\n      PUSH 0\t\t\t\n      DUP1 \t\t\t\n      PUSH 40\t\t\t\n      DUP4 \t\t\t\n      DUP6 \t\t\t\n      SUB \t\t\t\n      SLT \t\t\t\n      ISZERO \t\t\t\n      PUSH [tag] 254\t\t\t\n      JUMPI \t\t\t\n      PUSH [tag] 255\t\t\t\n      PUSH [tag] 105\t\t\t\n      JUMP \t\t\t\n    tag 255\t\t\t\n      JUMPDEST \t\t\t\n    tag 254\t\t\t\n      JUMPDEST \t\t\t\n      PUSH 0\t\t\t\n      PUSH [tag] 256\t\t\t\n      DUP6 \t\t\t\n      DUP3 \t\t\t\n      DUP7 \t\t\t\n      ADD \t\t\t\n      PUSH [tag] 109\t\t\t\n      JUMP \t\t\t\n    tag 256\t\t\t\n      JUMPDEST \t\t\t\n      SWAP3 \t\t\t\n      POP \t\t\t\n      POP \t\t\t\n      PUSH 20\t\t\t\n      PUSH [tag] 257\t\t\t\n      DUP6 \t\t\t\n      DUP3 \t\t\t\n      DUP7 \t\t\t\n      ADD \t\t\t\n      PUSH [tag] 109\t\t\t\n      JUMP \t\t\t\n    tag 257\t\t\t\n      JUMPDEST \t\t\t\n      SWAP2 \t\t\t\n      POP \t\t\t\n      POP \t\t\t\n      SWAP3 \t\t\t\n      POP \t\t\t\n      SWAP3 \t\t\t\n      SWAP1 \t\t\t\n      POP \t\t\t\n      JUMP \t\t\t\n    tag 129\t\t\t\n      JUMPDEST \t\t\t\n      PUSH 0\t\t\t\n      DUP2 \t\t\t\n      MLOAD \t\t\t\n      SWAP1 \t\t\t\n      POP \t\t\t\n      SWAP2 \t\t\t\n      SWAP1 \t\t\t\n      POP \t\t\t\n      JUMP \t\t\t\n    tag 130\t\t\t\n      JUMPDEST \t\t\t\n      PUSH 0\t\t\t\n      DUP3 \t\t\t\n      DUP3 \t\t\t\n      MSTORE \t\t\t\n      PUSH 20\t\t\t\n      DUP3 \t\t\t\n      ADD \t\t\t\n      SWAP1 \t\t\t\n      POP \t\t\t\n      SWAP3 \t\t\t\n      SWAP2 \t\t\t\n      POP \t\t\t\n      POP \t\t\t\n      JUMP \t\t\t\n    tag 131\t\t\t\n      JUMPDEST \t\t\t\n      PUSH 0\t\t\t\n      DUP2 \t\t\t\n      SWAP1 \t\t\t\n      POP \t\t\t\n      PUSH 20\t\t\t\n      DUP3 \t\t\t\n      ADD \t\t\t\n      SWAP1 \t\t\t\n      POP \t\t\t\n      SWAP2 \t\t\t\n      SWAP1 \t\t\t\n      POP \t\t\t\n      JUMP \t\t\t\n    tag 132\t\t\t\n      JUMPDEST \t\t\t\n      PUSH [tag] 262\t\t\t\n      DUP2 \t\t\t\n      PUSH [tag] 107\t\t\t\n      JUMP \t\t\t\n    tag 262\t\t\t\n      JUMPDEST \t\t\t\n      DUP3 \t\t\t\n      MSTORE \t\t\t\n      POP \t\t\t\n      POP \t\t\t\n      JUMP \t\t\t\n    tag 133\t\t\t\n      JUMPDEST \t\t\t\n      PUSH 80\t\t\t\n      DUP3 \t\t\t\n      ADD \t\t\t\n      PUSH 0\t\t\t\n      DUP3 \t\t\t\n      ADD \t\t\t\n      MLOAD \t\t\t\n      PUSH [tag] 264\t\t\t\n      PUSH 0\t\t\t\n      DUP6 \t\t\t\n      ADD \t\t\t\n      DUP3 \t\t\t\n      PUSH [tag] 132\t\t\t\n      JUMP \t\t\t\n    tag 264\t\t\t\n      JUMPDEST \t\t\t\n      POP \t\t\t\n      PUSH 20\t\t\t\n      DUP3 \t\t\t\n      ADD \t\t\t\n      MLOAD \t\t\t\n      PUSH [tag] 265\t\t\t\n      PUSH 20\t\t\t\n      DUP6 \t\t\t\n      ADD \t\t\t\n      DUP3 \t\t\t\n      PUSH [tag] 132\t\t\t\n      JUMP \t\t\t\n    tag 265\t\t\t\n      JUMPDEST \t\t\t\n      POP \t\t\t\n      PUSH 40\t\t\t\n      DUP3 \t\t\t\n      ADD \t\t\t\n      MLOAD \t\t\t\n      PUSH [tag] 266\t\t\t\n      PUSH 40\t\t\t\n      DUP6 \t\t\t\n      ADD \t\t\t\n      DUP3 \t\t\t\n      PUSH [tag] 132\t\t\t\n      JUMP \t\t\t\n    tag 266\t\t\t\n      JUMPDEST \t\t\t\n      POP \t\t\t\n      PUSH 60\t\t\t\n      DUP3 \t\t\t\n      ADD \t\t\t\n      MLOAD \t\t\t\n      PUSH [tag] 267\t\t\t\n      PUSH 60\t\t\t\n      DUP6 \t\t\t\n      ADD \t\t\t\n      DUP3 \t\t\t\n      PUSH [tag] 132\t\t\t\n      JUMP \t\t\t\n    tag 267\t\t\t\n      JUMPDEST \t\t\t\n      POP \t\t\t\n      POP \t\t\t\n      POP \t\t\t\n      POP \t\t\t\n      JUMP \t\t\t\n    tag 134\t\t\t\n      JUMPDEST \t\t\t\n      PUSH 0\t\t\t\n      PUSH [tag] 269\t\t\t\n      DUP4 \t\t\t\n      DUP4 \t\t\t\n      PUSH [tag] 133\t\t\t\n      JUMP \t\t\t\n    tag 269\t\t\t\n      JUMPDEST \t\t\t\n      PUSH 80\t\t\t\n      DUP4 \t\t\t\n      ADD \t\t\t\n      SWAP1 \t\t\t\n      POP \t\t\t\n      SWAP3 \t\t\t\n      SWAP2 \t\t\t\n      POP \t\t\t\n      POP \t\t\t\n      JUMP \t\t\t\n    tag 135\t\t\t\n      JUMPDEST \t\t\t\n      PUSH 0\t\t\t\n      PUSH 20\t\t\t\n      DUP3 \t\t\t\n      ADD \t\t\t\n      SWAP1 \t\t\t\n      POP \t\t\t\n      SWAP2 \t\t\t\n      SWAP1 \t\t\t\n      POP \t\t\t\n      JUMP \t\t\t\n    tag 136\t\t\t\n      JUMPDEST \t\t\t\n      PUSH 0\t\t\t\n      PUSH [tag] 272\t\t\t\n      DUP3 \t\t\t\n      PUSH [tag] 129\t\t\t\n      JUMP \t\t\t\n    tag 272\t\t\t\n      JUMPDEST \t\t\t\n      PUSH [tag] 273\t\t\t\n      DUP2 \t\t\t\n      DUP6 \t\t\t\n      PUSH [tag] 130\t\t\t\n      JUMP \t\t\t\n    tag 273\t\t\t\n      JUMPDEST \t\t\t\n      SWAP4 \t\t\t\n      POP \t\t\t\n      PUSH [tag] 274\t\t\t\n      DUP4 \t\t\t\n      PUSH [tag] 131\t\t\t\n      JUMP \t\t\t\n    tag 274\t\t\t\n      JUMPDEST \t\t\t\n      DUP1 \t\t\t\n      PUSH 0\t\t\t\n    tag 275\t\t\t\n      JUMPDEST \t\t\t\n      DUP4 \t\t\t\n      DUP2 \t\t\t\n      LT \t\t\t\n      ISZERO \t\t\t\n      PUSH [tag] 277\t\t\t\n      JUMPI \t\t\t\n      DUP2 \t\t\t\n      MLOAD \t\t\t\n      PUSH [tag] 278\t\t\t\n      DUP9 \t\t\t\n      DUP3 \t\t\t\n      PUSH [tag] 134\t\t\t\n      JUMP \t\t\t\n    tag 278\t\t\t\n      JUMPDEST \t\t\t\n      SWAP8 \t\t\t\n      POP \t\t\t\n      PUSH [tag] 279\t\t\t\n      DUP4 \t\t\t\n      PUSH [tag] 135\t\t\t\n      JUMP \t\t\t\n    tag 279\t\t\t\n      JUMPDEST \t\t\t\n      SWAP3 \t\t\t\n      POP \t\t\t\n      POP \t\t\t\n      PUSH 1\t\t\t\n      DUP2 \t\t\t\n      ADD \t\t\t\n      SWAP1 \t\t\t\n      POP \t\t\t\n      PUSH [tag] 275\t\t\t\n      JUMP \t\t\t\n    tag 277\t\t\t\n      JUMPDEST \t\t\t\n      POP \t\t\t\n      DUP6 \t\t\t\n      SWAP4 \t\t\t\n      POP \t\t\t\n      POP \t\t\t\n      POP \t\t\t\n      POP \t\t\t\n      SWAP3 \t\t\t\n      SWAP2 \t\t\t\n      POP \t\t\t\n      POP \t\t\t\n      JUMP \t\t\t\n    tag 32\t\t\t\n      JUMPDEST \t\t\t\n      PUSH 0\t\t\t\n      PUSH 20\t\t\t\n      DUP3 \t\t\t\n      ADD \t\t\t\n      SWAP1 \t\t\t\n      POP \t\t\t\n      DUP2 \t\t\t\n      DUP2 \t\t\t\n      SUB \t\t\t\n      PUSH 0\t\t\t\n      DUP4 \t\t\t\n      ADD \t\t\t\n      MSTORE \t\t\t\n      PUSH [tag] 281\t\t\t\n      DUP2 \t\t\t\n      DUP5 \t\t\t\n      PUSH [tag] 136\t\t\t\n      JUMP \t\t\t\n    tag 281\t\t\t\n      JUMPDEST \t\t\t\n      SWAP1 \t\t\t\n      POP \t\t\t\n      SWAP3 \t\t\t\n      SWAP2 \t\t\t\n      POP \t\t\t\n      POP \t\t\t\n      JUMP \t\t\t\n    tag 137\t\t\t\n      JUMPDEST \t\t\t\n      PUSH 0\t\t\t\n      DUP3 \t\t\t\n      DUP3 \t\t\t\n      MSTORE \t\t\t\n      PUSH 20\t\t\t\n      DUP3 \t\t\t\n      ADD \t\t\t\n      SWAP1 \t\t\t\n      POP \t\t\t\n      SWAP3 \t\t\t\n      SWAP2 \t\t\t\n      POP \t\t\t\n      POP \t\t\t\n      JUMP \t\t\t\n    tag 138\t\t\t\n      JUMPDEST \t\t\t\n      PUSH 0\t\t\t\n      PUSH [tag] 284\t\t\t\n      DUP3 \t\t\t\n      PUSH [tag] 111\t\t\t\n      JUMP \t\t\t\n    tag 284\t\t\t\n      JUMPDEST \t\t\t\n      PUSH [tag] 285\t\t\t\n      DUP2 \t\t\t\n      DUP6 \t\t\t\n      PUSH [tag] 137\t\t\t\n      JUMP \t\t\t\n    tag 285\t\t\t\n      JUMPDEST \t\t\t\n      SWAP4 \t\t\t\n      POP \t\t\t\n      PUSH [tag] 286\t\t\t\n      DUP2 \t\t\t\n      DUP6 \t\t\t\n      PUSH 20\t\t\t\n      DUP7 \t\t\t\n      ADD \t\t\t\n      PUSH [tag] 113\t\t\t\n      JUMP \t\t\t\n    tag 286\t\t\t\n      JUMPDEST \t\t\t\n      PUSH [tag] 287\t\t\t\n      DUP2 \t\t\t\n      PUSH [tag] 114\t\t\t\n      JUMP \t\t\t\n    tag 287\t\t\t\n      JUMPDEST \t\t\t\n      DUP5 \t\t\t\n      ADD \t\t\t\n      SWAP2 \t\t\t\n      POP \t\t\t\n      POP \t\t\t\n      SWAP3 \t\t\t\n      SWAP2 \t\t\t\n      POP \t\t\t\n      POP \t\t\t\n      JUMP \t\t\t\n    tag 139\t\t\t\n      JUMPDEST \t\t\t\n      PUSH [tag] 289\t\t\t\n      DUP2 \t\t\t\n      PUSH [tag] 116\t\t\t\n      JUMP \t\t\t\n    tag 289\t\t\t\n      JUMPDEST \t\t\t\n      DUP3 \t\t\t\n      MSTORE \t\t\t\n      POP \t\t\t\n      POP \t\t\t\n      JUMP \t\t\t\n    tag 140\t\t\t\n      JUMPDEST \t\t\t\n      PUSH 0\t\t\t\n      PUSH C0\t\t\t\n      DUP4 \t\t\t\n      ADD \t\t\t\n      PUSH 0\t\t\t\n      DUP4 \t\t\t\n      ADD \t\t\t\n      MLOAD \t\t\t\n      DUP5 \t\t\t\n      DUP3 \t\t\t\n      SUB \t\t\t\n      PUSH 0\t\t\t\n      DUP7 \t\t\t\n      ADD \t\t\t\n      MSTORE \t\t\t\n      PUSH [tag] 291\t\t\t\n      DUP3 \t\t\t\n      DUP3 \t\t\t\n      PUSH [tag] 138\t\t\t\n      JUMP \t\t\t\n    tag 291\t\t\t\n      JUMPDEST \t\t\t\n      SWAP2 \t\t\t\n      POP \t\t\t\n      POP \t\t\t\n      PUSH 20\t\t\t\n      DUP4 \t\t\t\n      ADD \t\t\t\n      MLOAD \t\t\t\n      PUSH [tag] 292\t\t\t\n      PUSH 20\t\t\t\n      DUP7 \t\t\t\n      ADD \t\t\t\n      DUP3 \t\t\t\n      PUSH [tag] 139\t\t\t\n      JUMP \t\t\t\n    tag 292\t\t\t\n      JUMPDEST \t\t\t\n      POP \t\t\t\n      PUSH 40\t\t\t\n      DUP4 \t\t\t\n      ADD \t\t\t\n      MLOAD \t\t\t\n      PUSH [tag] 293\t\t\t\n      PUSH 40\t\t\t\n      DUP7 \t\t\t\n      ADD \t\t\t\n      DUP3 \t\t\t\n      PUSH [tag] 132\t\t\t\n      JUMP \t\t\t\n    tag 293\t\t\t\n      JUMPDEST \t\t\t\n      POP \t\t\t\n      PUSH 60\t\t\t\n      DUP4 \t\t\t\n      ADD \t\t\t\n      MLOAD \t\t\t\n      DUP5 \t\t\t\n      DUP3 \t\t\t\n      SUB \t\t\t\n      PUSH 60\t\t\t\n      DUP7 \t\t\t\n      ADD \t\t\t\n      MSTORE \t\t\t\n      PUSH [tag] 294\t\t\t\n      DUP3 \t\t\t\n      DUP3 \t\t\t\n      PUSH [tag] 138\t\t\t\n      JUMP \t\t\t\n    tag 294\t\t\t\n      JUMPDEST \t\t\t\n      SWAP2 \t\t\t\n      POP \t\t\t\n      POP \t\t\t\n      PUSH 80\t\t\t\n      DUP4 \t\t\t\n      ADD \t\t\t\n      MLOAD \t\t\t\n      DUP5 \t\t\t\n      DUP3 \t\t\t\n      SUB \t\t\t\n      PUSH 80\t\t\t\n      DUP7 \t\t\t\n      ADD \t\t\t\n      MSTORE \t\t\t\n      PUSH [tag] 295\t\t\t\n      DUP3 \t\t\t\n      DUP3 \t\t\t\n      PUSH [tag] 138\t\t\t\n      JUMP \t\t\t\n    tag 295\t\t\t\n      JUMPDEST \t\t\t\n      SWAP2 \t\t\t\n      POP \t\t\t\n      POP \t\t\t\n      PUSH A0\t\t\t\n      DUP4 \t\t\t\n      ADD \t\t\t\n      MLOAD \t\t\t\n      PUSH [tag] 296\t\t\t\n      PUSH A0\t\t\t\n      DUP7 \t\t\t\n      ADD \t\t\t\n      DUP3 \t\t\t\n      PUSH [tag] 132\t\t\t\n      JUMP \t\t\t\n    tag 296\t\t\t\n      JUMPDEST \t\t\t\n      POP \t\t\t\n      DUP1 \t\t\t\n      SWAP2 \t\t\t\n      POP \t\t\t\n      POP \t\t\t\n      SWAP3 \t\t\t\n      SWAP2 \t\t\t\n      POP \t\t\t\n      POP \t\t\t\n      JUMP \t\t\t\n    tag 37\t\t\t\n      JUMPDEST \t\t\t\n      PUSH 0\t\t\t\n      PUSH 20\t\t\t\n      DUP3 \t\t\t\n      ADD \t\t\t\n      SWAP1 \t\t\t\n      POP \t\t\t\n      DUP2 \t\t\t\n      DUP2 \t\t\t\n      SUB \t\t\t\n      PUSH 0\t\t\t\n      DUP4 \t\t\t\n      ADD \t\t\t\n      MSTORE \t\t\t\n      PUSH [tag] 298\t\t\t\n      DUP2 \t\t\t\n      DUP5 \t\t\t\n      PUSH [tag] 140\t\t\t\n      JUMP \t\t\t\n    tag 298\t\t\t\n      JUMPDEST \t\t\t\n      SWAP1 \t\t\t\n      POP \t\t\t\n      SWAP3 \t\t\t\n      SWAP2 \t\t\t\n      POP \t\t\t\n      POP \t\t\t\n      JUMP \t\t\t\n    tag 40\t\t\t\n      JUMPDEST \t\t\t\n      PUSH 0\t\t\t\n      DUP1 \t\t\t\n      PUSH 0\t\t\t\n      DUP1 \t\t\t\n      PUSH 0\t\t\t\n      PUSH A0\t\t\t\n      DUP7 \t\t\t\n      DUP9 \t\t\t\n      SUB \t\t\t\n      SLT \t\t\t\n      ISZERO \t\t\t\n      PUSH [tag] 300\t\t\t\n      JUMPI \t\t\t\n      PUSH [tag] 301\t\t\t\n      PUSH [tag] 105\t\t\t\n      JUMP \t\t\t\n    tag 301\t\t\t\n      JUMPDEST \t\t\t\n    tag 300\t\t\t\n      JUMPDEST \t\t\t\n      PUSH 0\t\t\t\n      PUSH [tag] 302\t\t\t\n      DUP9 \t\t\t\n      DUP3 \t\t\t\n      DUP10 \t\t\t\n      ADD \t\t\t\n      PUSH [tag] 109\t\t\t\n      JUMP \t\t\t\n    tag 302\t\t\t\n      JUMPDEST \t\t\t\n      SWAP6 \t\t\t\n      POP \t\t\t\n      POP \t\t\t\n      PUSH 20\t\t\t\n      PUSH [tag] 303\t\t\t\n      DUP9 \t\t\t\n      DUP3 \t\t\t\n      DUP10 \t\t\t\n      ADD \t\t\t\n      PUSH [tag] 109\t\t\t\n      JUMP \t\t\t\n    tag 303\t\t\t\n      JUMPDEST \t\t\t\n      SWAP5 \t\t\t\n      POP \t\t\t\n      POP \t\t\t\n      PUSH 40\t\t\t\n      PUSH [tag] 304\t\t\t\n      DUP9 \t\t\t\n      DUP3 \t\t\t\n      DUP10 \t\t\t\n      ADD \t\t\t\n      PUSH [tag] 109\t\t\t\n      JUMP \t\t\t\n    tag 304\t\t\t\n      JUMPDEST \t\t\t\n      SWAP4 \t\t\t\n      POP \t\t\t\n      POP \t\t\t\n      PUSH 60\t\t\t\n      PUSH [tag] 305\t\t\t\n      DUP9 \t\t\t\n      DUP3 \t\t\t\n      DUP10 \t\t\t\n      ADD \t\t\t\n      PUSH [tag] 109\t\t\t\n      JUMP \t\t\t\n    tag 305\t\t\t\n      JUMPDEST \t\t\t\n      SWAP3 \t\t\t\n      POP \t\t\t\n      POP \t\t\t\n      PUSH 80\t\t\t\n      PUSH [tag] 306\t\t\t\n      DUP9 \t\t\t\n      DUP3 \t\t\t\n      DUP10 \t\t\t\n      ADD \t\t\t\n      PUSH [tag] 109\t\t\t\n      JUMP \t\t\t\n    tag 306\t\t\t\n      JUMPDEST \t\t\t\n      SWAP2 \t\t\t\n      POP \t\t\t\n      POP \t\t\t\n      SWAP3 \t\t\t\n      SWAP6 \t\t\t\n      POP \t\t\t\n      SWAP3 \t\t\t\n      SWAP6 \t\t\t\n      SWAP1 \t\t\t\n      SWAP4 \t\t\t\n      POP \t\t\t\n      JUMP \t\t\t\n    tag 141\t\t\t\n      JUMPDEST \t\t\t\n      PUSH 4E487B7100000000000000000000000000000000000000000000000000000000\t\t\t\n      PUSH 0\t\t\t\n      MSTORE \t\t\t\n      PUSH 22\t\t\t\n      PUSH 4\t\t\t\n      MSTORE \t\t\t\n      PUSH 24\t\t\t\n      PUSH 0\t\t\t\n      REVERT \t\t\t\n    tag 47\t\t\t\n      JUMPDEST \t\t\t\n      PUSH 0\t\t\t\n      PUSH 2\t\t\t\n      DUP3 \t\t\t\n      DIV \t\t\t\n      SWAP1 \t\t\t\n      POP \t\t\t\n      PUSH 1\t\t\t\n      DUP3 \t\t\t\n      AND \t\t\t\n      DUP1 \t\t\t\n      PUSH [tag] 309\t\t\t\n      JUMPI \t\t\t\n      PUSH 7F\t\t\t\n      DUP3 \t\t\t\n      AND \t\t\t\n      SWAP2 \t\t\t\n      POP \t\t\t\n    tag 309\t\t\t\n      JUMPDEST \t\t\t\n      PUSH 20\t\t\t\n      DUP3 \t\t\t\n      LT \t\t\t\n      DUP2 \t\t\t\n      SUB \t\t\t\n      PUSH [tag] 310\t\t\t\n      JUMPI \t\t\t\n      PUSH [tag] 311\t\t\t\n      PUSH [tag] 141\t\t\t\n      JUMP \t\t\t\n    tag 311\t\t\t\n      JUMPDEST \t\t\t\n    tag 310\t\t\t\n      JUMPDEST \t\t\t\n      POP \t\t\t\n      SWAP2 \t\t\t\n      SWAP1 \t\t\t\n      POP \t\t\t\n      JUMP \t\t\t\n    tag 142\t\t\t\n      JUMPDEST \t\t\t\n      PUSH 0\t\t\t\n      DUP2 \t\t\t\n      SWAP1 \t\t\t\n      POP \t\t\t\n      DUP2 \t\t\t\n      PUSH 0\t\t\t\n      MSTORE \t\t\t\n      PUSH 20\t\t\t\n      PUSH 0\t\t\t\n      KECCAK256 \t\t\t\n      SWAP1 \t\t\t\n      POP \t\t\t\n      SWAP2 \t\t\t\n      SWAP1 \t\t\t\n      POP \t\t\t\n      JUMP \t\t\t\n    tag 143\t\t\t\n      JUMPDEST \t\t\t\n      PUSH 0\t\t\t\n      PUSH 20\t\t\t\n      PUSH 1F\t\t\t\n      DUP4 \t\t\t\n      ADD \t\t\t\n      DIV \t\t\t\n      SWAP1 \t\t\t\n      POP \t\t\t\n      SWAP2 \t\t\t\n      SWAP1 \t\t\t\n      POP \t\t\t\n      JUMP \t\t\t\n    tag 144\t\t\t\n      JUMPDEST \t\t\t\n      PUSH 0\t\t\t\n      DUP3 \t\t\t\n      DUP3 \t\t\t\n      SHL \t\t\t\n      SWAP1 \t\t\t\n      POP \t\t\t\n      SWAP3 \t\t\t\n      SWAP2 \t\t\t\n      POP \t\t\t\n      POP \t\t\t\n      JUMP \t\t\t\n    tag 145\t\t\t\n      JUMPDEST \t\t\t\n      PUSH 0\t\t\t\n      PUSH 8\t\t\t\n      DUP4 \t\t\t\n      MUL \t\t\t\n      PUSH [tag] 316\t\t\t\n      PUSH FFFFFFFFFFFFFFFFFFFFFFFFFFFFFFFFFFFFFFFFFFFFFFFFFFFFFFFFFFFFFFFF\t\t\t\n      DUP3 \t\t\t\n      PUSH [tag] 144\t\t\t\n      JUMP \t\t\t\n    tag 316\t\t\t\n      JUMPDEST \t\t\t\n      PUSH [tag] 317\t\t\t\n      DUP7 \t\t\t\n      DUP4 \t\t\t\n      PUSH [tag] 144\t\t\t\n      JUMP \t\t\t\n    tag 317\t\t\t\n      JUMPDEST \t\t\t\n      SWAP6 \t\t\t\n      POP \t\t\t\n      DUP1 \t\t\t\n      NOT \t\t\t\n      DUP5 \t\t\t\n      AND \t\t\t\n      SWAP4 \t\t\t\n      POP \t\t\t\n      DUP1 \t\t\t\n      DUP7 \t\t\t\n      AND \t\t\t\n      DUP5 \t\t\t\n      OR \t\t\t\n      SWAP3 \t\t\t\n      POP \t\t\t\n      POP \t\t\t\n      POP \t\t\t\n      SWAP4 \t\t\t\n      SWAP3 \t\t\t\n      POP \t\t\t\n      POP \t\t\t\n      POP \t\t\t\n      JUMP \t\t\t\n    tag 146\t\t\t\n      JUMPDEST \t\t\t\n      PUSH 0\t\t\t\n      DUP2 \t\t\t\n      SWAP1 \t\t\t\n      POP \t\t\t\n      SWAP2 \t\t\t\n      SWAP1 \t\t\t\n      POP \t\t\t\n      JUMP \t\t\t\n    tag 147\t\t\t\n      JUMPDEST \t\t\t\n      PUSH 0\t\t\t\n      PUSH [tag] 320\t\t\t\n      PUSH [tag] 321\t\t\t\n      PUSH [tag] 322\t\t\t\n      DUP5 \t\t\t\n      PUSH [tag] 107\t\t\t\n      JUMP \t\t\t\n    tag 322\t\t\t\n      JUMPDEST \t\t\t\n      PUSH [tag] 146\t\t\t\n      JUMP \t\t\t\n    tag 321\t\t\t\n      JUMPDEST \t\t\t\n      PUSH [tag] 107\t\t\t\n      JUMP \t\t\t\n    tag 320\t\t\t\n      JUMPDEST \t\t\t\n      SWAP1 \t\t\t\n      POP \t\t\t\n      SWAP2 \t\t\t\n      SWAP1 \t\t\t\n      POP \t\t\t\n      JUMP \t\t\t\n    tag 148\t\t\t\n      JUMPDEST \t\t\t\n      PUSH 0\t\t\t\n      DUP2 \t\t\t\n      SWAP1 \t\t\t\n      POP \t\t\t\n      SWAP2 \t\t\t\n      SWAP1 \t\t\t\n      POP \t\t\t\n      JUMP \t\t\t\n    tag 149\t\t\t\n      JUMPDEST \t\t\t\n      PUSH [tag] 325\t\t\t\n      DUP4 \t\t\t\n      PUSH [tag] 147\t\t\t\n      JUMP \t\t\t\n    tag 325\t\t\t\n      JUMPDEST \t\t\t\n      PUSH [tag] 326\t\t\t\n      PUSH [tag] 327\t\t\t\n      DUP3 \t\t\t\n      PUSH [tag] 148\t\t\t\n      JUMP \t\t\t\n    tag 327\t\t\t\n      JUMPDEST \t\t\t\n      DUP5 \t\t\t\n      DUP5 \t\t\t\n      SLOAD \t\t\t\n      PUSH [tag] 145\t\t\t\n      JUMP \t\t\t\n    tag 326\t\t\t\n      JUMPDEST \t\t\t\n      DUP3 \t\t\t\n      SSTORE \t\t\t\n      POP \t\t\t\n      POP \t\t\t\n      POP \t\t\t\n      POP \t\t\t\n      JUMP \t\t\t\n    tag 150\t\t\t\n      JUMPDEST \t\t\t\n      PUSH 0\t\t\t\n      SWAP1 \t\t\t\n      JUMP \t\t\t\n    tag 151\t\t\t\n      JUMPDEST \t\t\t\n      PUSH [tag] 330\t\t\t\n      PUSH [tag] 150\t\t\t\n      JUMP \t\t\t\n    tag 330\t\t\t\n      JUMPDEST \t\t\t\n      PUSH [tag] 331\t\t\t\n      DUP2 \t\t\t\n      DUP5 \t\t\t\n      DUP5 \t\t\t\n      PUSH [tag] 149\t\t\t\n      JUMP \t\t\t\n    tag 331\t\t\t\n      JUMPDEST \t\t\t\n      POP \t\t\t\n      POP \t\t\t\n      POP \t\t\t\n      JUMP \t\t\t\n    tag 152\t\t\t\n      JUMPDEST \t\t\t\n    tag 333\t\t\t\n      JUMPDEST \t\t\t\n      DUP2 \t\t\t\n      DUP2 \t\t\t\n      LT \t\t\t\n      ISZERO \t\t\t\n      PUSH [tag] 335\t\t\t\n      JUMPI \t\t\t\n      PUSH [tag] 336\t\t\t\n      PUSH 0\t\t\t\n      DUP3 \t\t\t\n      PUSH [tag] 151\t\t\t\n      JUMP \t\t\t\n    tag 336\t\t\t\n      JUMPDEST \t\t\t\n      PUSH 1\t\t\t\n      DUP2 \t\t\t\n      ADD \t\t\t\n      SWAP1 \t\t\t\n      POP \t\t\t\n      PUSH [tag] 333\t\t\t\n      JUMP \t\t\t\n    tag 335\t\t\t\n      JUMPDEST \t\t\t\n      POP \t\t\t\n      POP \t\t\t\n      JUMP \t\t\t\n    tag 153\t\t\t\n      JUMPDEST \t\t\t\n      PUSH 1F\t\t\t\n      DUP3 \t\t\t\n      GT \t\t\t\n      ISZERO \t\t\t\n      PUSH [tag] 338\t\t\t\n      JUMPI \t\t\t\n      PUSH [tag] 339\t\t\t\n      DUP2 \t\t\t\n      PUSH [tag] 142\t\t\t\n      JUMP \t\t\t\n    tag 339\t\t\t\n      JUMPDEST \t\t\t\n      PUSH [tag] 340\t\t\t\n      DUP5 \t\t\t\n      PUSH [tag] 143\t\t\t\n      JUMP \t\t\t\n    tag 340\t\t\t\n      JUMPDEST \t\t\t\n      DUP2 \t\t\t\n      ADD \t\t\t\n      PUSH 20\t\t\t\n      DUP6 \t\t\t\n      LT \t\t\t\n      ISZERO \t\t\t\n      PUSH [tag] 341\t\t\t\n      JUMPI \t\t\t\n      DUP2 \t\t\t\n      SWAP1 \t\t\t\n      POP \t\t\t\n    tag 341\t\t\t\n      JUMPDEST \t\t\t\n      PUSH [tag] 342\t\t\t\n      PUSH [tag] 343\t\t\t\n      DUP6 \t\t\t\n      PUSH [tag] 143\t\t\t\n      JUMP \t\t\t\n    tag 343\t\t\t\n      JUMPDEST \t\t\t\n      DUP4 \t\t\t\n      ADD \t\t\t\n      DUP3 \t\t\t\n      PUSH [tag] 152\t\t\t\n      JUMP \t\t\t\n    tag 342\t\t\t\n      JUMPDEST \t\t\t\n      POP \t\t\t\n      POP \t\t\t\n    tag 338\t\t\t\n      JUMPDEST \t\t\t\n      POP \t\t\t\n      POP \t\t\t\n      POP \t\t\t\n      JUMP \t\t\t\n    tag 154\t\t\t\n      JUMPDEST \t\t\t\n      PUSH 0\t\t\t\n      DUP3 \t\t\t\n      DUP3 \t\t\t\n      SHR \t\t\t\n      SWAP1 \t\t\t\n      POP \t\t\t\n      SWAP3 \t\t\t\n      SWAP2 \t\t\t\n      POP \t\t\t\n      POP \t\t\t\n      JUMP \t\t\t\n    tag 155\t\t\t\n      JUMPDEST \t\t\t\n      PUSH 0\t\t\t\n      PUSH [tag] 346\t\t\t\n      PUSH 0\t\t\t\n      NOT \t\t\t\n      DUP5 \t\t\t\n      PUSH 8\t\t\t\n      MUL \t\t\t\n      PUSH [tag] 154\t\t\t\n      JUMP \t\t\t\n    tag 346\t\t\t\n      JUMPDEST \t\t\t\n      NOT \t\t\t\n      DUP1 \t\t\t\n      DUP4 \t\t\t\n      AND \t\t\t\n      SWAP2 \t\t\t\n      POP \t\t\t\n      POP \t\t\t\n      SWAP3 \t\t\t\n      SWAP2 \t\t\t\n      POP \t\t\t\n      POP \t\t\t\n      JUMP \t\t\t\n    tag 156\t\t\t\n      JUMPDEST \t\t\t\n      PUSH 0\t\t\t\n      PUSH [tag] 348\t\t\t\n      DUP4 \t\t\t\n      DUP4 \t\t\t\n      PUSH [tag] 155\t\t\t\n      JUMP \t\t\t\n    tag 348\t\t\t\n      JUMPDEST \t\t\t\n      SWAP2 \t\t\t\n      POP \t\t\t\n      DUP3 \t\t\t\n      PUSH 2\t\t\t\n      MUL \t\t\t\n      DUP3 \t\t\t\n      OR \t\t\t\n      SWAP1 \t\t\t\n      POP \t\t\t\n      SWAP3 \t\t\t\n      SWAP2 \t\t\t\n      POP \t\t\t\n      POP \t\t\t\n      JUMP \t\t\t\n    tag 65\t\t\t\n      JUMPDEST \t\t\t\n      PUSH [tag] 350\t\t\t\n      DUP3 \t\t\t\n      PUSH [tag] 111\t\t\t\n      JUMP \t\t\t\n    tag 350\t\t\t\n      JUMPDEST \t\t\t\n      PUSH FFFFFFFFFFFFFFFF\t\t\t\n      DUP2 \t\t\t\n      GT \t\t\t\n      ISZERO \t\t\t\n      PUSH [tag] 351\t\t\t\n      JUMPI \t\t\t\n      PUSH [tag] 352\t\t\t\n      PUSH [tag] 120\t\t\t\n      JUMP \t\t\t\n    tag 352\t\t\t\n      JUMPDEST \t\t\t\n    tag 351\t\t\t\n      JUMPDEST \t\t\t\n      PUSH [tag] 353\t\t\t\n      DUP3 \t\t\t\n      SLOAD \t\t\t\n      PUSH [tag] 47\t\t\t\n      JUMP \t\t\t\n    tag 353\t\t\t\n      JUMPDEST \t\t\t\n      PUSH [tag] 354\t\t\t\n      DUP3 \t\t\t\n      DUP3 \t\t\t\n      DUP6 \t\t\t\n      PUSH [tag] 153\t\t\t\n      JUMP \t\t\t\n    tag 354\t\t\t\n      JUMPDEST \t\t\t\n      PUSH 0\t\t\t\n      PUSH 20\t\t\t\n      SWAP1 \t\t\t\n      POP \t\t\t\n      PUSH 1F\t\t\t\n      DUP4 \t\t\t\n      GT \t\t\t\n      PUSH 1\t\t\t\n      DUP2 \t\t\t\n      EQ \t\t\t\n      PUSH [tag] 356\t\t\t\n      JUMPI \t\t\t\n      PUSH 0\t\t\t\n      DUP5 \t\t\t\n      ISZERO \t\t\t\n      PUSH [tag] 357\t\t\t\n      JUMPI \t\t\t\n      DUP3 \t\t\t\n      DUP8 \t\t\t\n      ADD \t\t\t\n      MLOAD \t\t\t\n      SWAP1 \t\t\t\n      POP \t\t\t\n    tag 357\t\t\t\n      JUMPDEST \t\t\t\n      PUSH [tag] 358\t\t\t\n      DUP6 \t\t\t\n      DUP3 \t\t\t\n      PUSH [tag] 156\t\t\t\n      JUMP \t\t\t\n    tag 358\t\t\t\n      JUMPDEST \t\t\t\n      DUP7 \t\t\t\n      SSTORE \t\t\t\n      POP \t\t\t\n      PUSH [tag] 355\t\t\t\n      JUMP \t\t\t\n    tag 356\t\t\t\n      JUMPDEST \t\t\t\n      PUSH 1F\t\t\t\n      NOT \t\t\t\n      DUP5 \t\t\t\n      AND \t\t\t\n      PUSH [tag] 359\t\t\t\n      DUP7 \t\t\t\n      PUSH [tag] 142\t\t\t\n      JUMP \t\t\t\n    tag 359\t\t\t\n      JUMPDEST \t\t\t\n      PUSH 0\t\t\t\n    tag 360\t\t\t\n      JUMPDEST \t\t\t\n      DUP3 \t\t\t\n      DUP2 \t\t\t\n      LT \t\t\t\n      ISZERO \t\t\t\n      PUSH [tag] 362\t\t\t\n      JUMPI \t\t\t\n      DUP5 \t\t\t\n      DUP10 \t\t\t\n      ADD \t\t\t\n      MLOAD \t\t\t\n      DUP3 \t\t\t\n      SSTORE \t\t\t\n      PUSH 1\t\t\t\n      DUP3 \t\t\t\n      ADD \t\t\t\n      SWAP2 \t\t\t\n      POP \t\t\t\n      PUSH 20\t\t\t\n      DUP6 \t\t\t\n      ADD \t\t\t\n      SWAP5 \t\t\t\n      POP \t\t\t\n      PUSH 20\t\t\t\n      DUP2 \t\t\t\n      ADD \t\t\t\n      SWAP1 \t\t\t\n      POP \t\t\t\n      PUSH [tag] 360\t\t\t\n      JUMP \t\t\t\n    tag 362\t\t\t\n      JUMPDEST \t\t\t\n      DUP7 \t\t\t\n      DUP4 \t\t\t\n      LT \t\t\t\n      ISZERO \t\t\t\n      PUSH [tag] 363\t\t\t\n      JUMPI \t\t\t\n      DUP5 \t\t\t\n      DUP10 \t\t\t\n      ADD \t\t\t\n      MLOAD \t\t\t\n      PUSH [tag] 364\t\t\t\n      PUSH 1F\t\t\t\n      DUP10 \t\t\t\n      AND \t\t\t\n      DUP3 \t\t\t\n      PUSH [tag] 155\t\t\t\n      JUMP \t\t\t\n    tag 364\t\t\t\n      JUMPDEST \t\t\t\n      DUP4 \t\t\t\n      SSTORE \t\t\t\n      POP \t\t\t\n    tag 363\t\t\t\n      JUMPDEST \t\t\t\n      PUSH 1\t\t\t\n      PUSH 2\t\t\t\n      DUP9 \t\t\t\n      MUL \t\t\t\n      ADD \t\t\t\n      DUP9 \t\t\t\n      SSTORE \t\t\t\n      POP \t\t\t\n      POP \t\t\t\n      POP \t\t\t\n    tag 355\t\t\t\n      JUMPDEST \t\t\t\n      POP \t\t\t\n      POP \t\t\t\n      POP \t\t\t\n      POP \t\t\t\n      POP \t\t\t\n      POP \t\t\t\n      JUMP \t\t\t\n    tag 157\t\t\t\n      JUMPDEST \t\t\t\n      PUSH 4E487B7100000000000000000000000000000000000000000000000000000000\t\t\t\n      PUSH 0\t\t\t\n      MSTORE \t\t\t\n      PUSH 11\t\t\t\n      PUSH 4\t\t\t\n      MSTORE \t\t\t\n      PUSH 24\t\t\t\n      PUSH 0\t\t\t\n      REVERT \t\t\t\n    tag 69\t\t\t\n      JUMPDEST \t\t\t\n      PUSH 0\t\t\t\n      PUSH [tag] 367\t\t\t\n      DUP3 \t\t\t\n      PUSH [tag] 107\t\t\t\n      JUMP \t\t\t\n    tag 367\t\t\t\n      JUMPDEST \t\t\t\n      SWAP2 \t\t\t\n      POP \t\t\t\n      PUSH [tag] 368\t\t\t\n      DUP4 \t\t\t\n      PUSH [tag] 107\t\t\t\n      JUMP \t\t\t\n    tag 368\t\t\t\n      JUMPDEST \t\t\t\n      SWAP3 \t\t\t\n      POP \t\t\t\n      DUP3 \t\t\t\n      DUP3 \t\t\t\n      SUB \t\t\t\n      SWAP1 \t\t\t\n      POP \t\t\t\n      DUP2 \t\t\t\n      DUP2 \t\t\t\n      GT \t\t\t\n      ISZERO \t\t\t\n      PUSH [tag] 369\t\t\t\n      JUMPI \t\t\t\n      PUSH [tag] 370\t\t\t\n      PUSH [tag] 157\t\t\t\n      JUMP \t\t\t\n    tag 370\t\t\t\n      JUMPDEST \t\t\t\n    tag 369\t\t\t\n      JUMPDEST \t\t\t\n      SWAP3 \t\t\t\n      SWAP2 \t\t\t\n      POP \t\t\t\n      POP \t\t\t\n      JUMP \t\t\t\n    tag 158\t\t\t\n      JUMPDEST \t\t\t\n      PUSH 5265636569707420646F6573206E6F742065786973742E000000000000000000\t\t\t\n      PUSH 0\t\t\t\n      DUP3 \t\t\t\n      ADD \t\t\t\n      MSTORE \t\t\t\n      POP \t\t\t\n      JUMP \t\t\t\n    tag 159\t\t\t\n      JUMPDEST \t\t\t\n      PUSH 0\t\t\t\n      PUSH [tag] 373\t\t\t\n      PUSH 17\t\t\t\n      DUP4 \t\t\t\n      PUSH [tag] 112\t\t\t\n      JUMP \t\t\t\n    tag 373\t\t\t\n      JUMPDEST \t\t\t\n      SWAP2 \t\t\t\n      POP \t\t\t\n      PUSH [tag] 374\t\t\t\n      DUP3 \t\t\t\n      PUSH [tag] 158\t\t\t\n      JUMP \t\t\t\n    tag 374\t\t\t\n      JUMPDEST \t\t\t\n      PUSH 20\t\t\t\n      DUP3 \t\t\t\n      ADD \t\t\t\n      SWAP1 \t\t\t\n      POP \t\t\t\n      SWAP2 \t\t\t\n      SWAP1 \t\t\t\n      POP \t\t\t\n      JUMP \t\t\t\n    tag 80\t\t\t\n      JUMPDEST \t\t\t\n      PUSH 0\t\t\t\n      PUSH 20\t\t\t\n      DUP3 \t\t\t\n      ADD \t\t\t\n      SWAP1 \t\t\t\n      POP \t\t\t\n      DUP2 \t\t\t\n      DUP2 \t\t\t\n      SUB \t\t\t\n      PUSH 0\t\t\t\n      DUP4 \t\t\t\n      ADD \t\t\t\n      MSTORE \t\t\t\n      PUSH [tag] 376\t\t\t\n      DUP2 \t\t\t\n      PUSH [tag] 159\t\t\t\n      JUMP \t\t\t\n    tag 376\t\t\t\n      JUMPDEST \t\t\t\n      SWAP1 \t\t\t\n      POP \t\t\t\n      SWAP2 \t\t\t\n      SWAP1 \t\t\t\n      POP \t\t\t\n      JUMP \t\t\t\n    tag 83\t\t\t\n      JUMPDEST \t\t\t\n      PUSH 4E487B7100000000000000000000000000000000000000000000000000000000\t\t\t\n      PUSH 0\t\t\t\n      MSTORE \t\t\t\n      PUSH 32\t\t\t\n      PUSH 4\t\t\t\n      MSTORE \t\t\t\n      PUSH 24\t\t\t\n      PUSH 0\t\t\t\n      REVERT \t\t\t\n    tag 103\t\t\t\n      JUMPDEST \t\t\t\n      PUSH 0\t\t\t\n      PUSH A0\t\t\t\n      DUP3 \t\t\t\n      ADD \t\t\t\n      SWAP1 \t\t\t\n      POP \t\t\t\n      PUSH [tag] 379\t\t\t\n      PUSH 0\t\t\t\n      DUP4 \t\t\t\n      ADD \t\t\t\n      DUP9 \t\t\t\n      PUSH [tag] 110\t\t\t\n      JUMP \t\t\t\n    tag 379\t\t\t\n      JUMPDEST \t\t\t\n      PUSH [tag] 380\t\t\t\n      PUSH 20\t\t\t\n      DUP4 \t\t\t\n      ADD \t\t\t\n      DUP8 \t\t\t\n      PUSH [tag] 110\t\t\t\n      JUMP \t\t\t\n    tag 380\t\t\t\n      JUMPDEST \t\t\t\n      PUSH [tag] 381\t\t\t\n      PUSH 40\t\t\t\n      DUP4 \t\t\t\n      ADD \t\t\t\n      DUP7 \t\t\t\n      PUSH [tag] 110\t\t\t\n      JUMP \t\t\t\n    tag 381\t\t\t\n      JUMPDEST \t\t\t\n      PUSH [tag] 382\t\t\t\n      PUSH 60\t\t\t\n      DUP4 \t\t\t\n      ADD \t\t\t\n      DUP6 \t\t\t\n      PUSH [tag] 110\t\t\t\n      JUMP \t\t\t\n    tag 382\t\t\t\n      JUMPDEST \t\t\t\n      PUSH [tag] 383\t\t\t\n      PUSH 80\t\t\t\n      DUP4 \t\t\t\n      ADD \t\t\t\n      DUP5 \t\t\t\n      PUSH [tag] 110\t\t\t\n      JUMP \t\t\t\n    tag 383\t\t\t\n      JUMPDEST \t\t\t\n      SWAP7 \t\t\t\n      SWAP6 \t\t\t\n      POP \t\t\t\n      POP \t\t\t\n      POP \t\t\t\n      POP \t\t\t\n      POP \t\t\t\n      POP \t\t\t\n      JUMP \t\t\t\n    .data\n"
}