{
	"compilerInput": "{\"language\":\"Solidity\",\"sources\":{\"contracts/walkwalk.sol\":{\"content\":\"// SPDX-License-Identifier: MIT\\r\\npragma solidity >=0.8.19 <0.9.0;\\r\\n\\r\\ncontract WalkWalk {\\r\\n    struct ExerciseData {\\r\\n        uint id;\\r\\n        uint memberId;\\r\\n        uint steps;\\r\\n        uint exerciseMinute;\\r\\n        string exerciseDistance;\\r\\n        string exerciseDay;\\r\\n        string exerciseStart;\\r\\n        string exerciseEnd;\\r\\n        string calorie;\\r\\n    }\\r\\n\\r\\n    struct Receipt {\\r\\n        string walletType;\\r\\n        bool operator;\\r\\n        uint price;\\r\\n        string description;\\r\\n        string createdAt;\\r\\n        uint memberId;\\r\\n    }\\r\\n\\r\\n    // ID를 기반으로 한 ExerciseData 저장\\r\\n    mapping(uint => ExerciseData) public exerciseDatas;\\r\\n    // Receipt 데이터를 저장하는 배열\\r\\n    Receipt[] public receipts;\\r\\n\\r\\n    // 이벤트 선언\\r\\n    event ExerciseDataAdded(uint id, uint memberId, uint steps, uint exerciseMinute, string exerciseDistance, string exerciseDay, string exerciseStart, string exerciseEnd, string calorie);\\r\\n    event ReceiptAdded(uint receiptId, string walletType, bool operator, uint price, string description, string createdAt, uint memberId);\\r\\n\\r\\n    // 운동 데이터 추가 함수\\r\\n    function addExerciseData(uint id, uint memberId, uint steps, uint exerciseMinute, string memory exerciseDistance, string memory exerciseDay, string memory exerciseStart, string memory exerciseEnd, string memory calorie) public {\\r\\n        require(exerciseDatas[id].id == 0, \\\"ID already exists.\\\");\\r\\n        exerciseDatas[id] = ExerciseData(id, memberId, steps, exerciseMinute, exerciseDistance, exerciseDay, exerciseStart, exerciseEnd, calorie);\\r\\n        emit ExerciseDataAdded(id, memberId, steps, exerciseMinute, exerciseDistance, exerciseDay, exerciseStart, exerciseEnd, calorie);\\r\\n    }\\r\\n\\r\\n    // 운동 데이터 조회 함수\\r\\n    function getExerciseData(uint id) public view returns (ExerciseData memory) {\\r\\n        require(exerciseDatas[id].id != 0, \\\"ExerciseData does not exist.\\\");\\r\\n        return exerciseDatas[id];\\r\\n    }\\r\\n\\r\\n    // Receipt 데이터 추가 함수\\r\\n    function addReceipt(string memory walletType, bool operator, uint price, string memory description, string memory createdAt, uint memberId) public returns (uint) {\\r\\n        receipts.push(Receipt(walletType, operator, price, description, createdAt, memberId));\\r\\n        uint receiptId = receipts.length - 1;\\r\\n        emit ReceiptAdded(receiptId, walletType, operator, price, description, createdAt, memberId);\\r\\n        return receiptId;\\r\\n    }\\r\\n\\r\\n    // 특정 ID를 가진 Receipt 데이터 조회 함수\\r\\n    function getReceipt(uint receiptId) public view returns (Receipt memory) {\\r\\n        require(receiptId < receipts.length, \\\"Receipt does not exist.\\\");\\r\\n        return receipts[receiptId];\\r\\n    }\\r\\n}\\r\\n\"}},\"settings\":{\"optimizer\":{\"enabled\":false,\"runs\":200},\"outputSelection\":{\"*\":{\"\":[\"ast\"],\"*\":[\"abi\",\"metadata\",\"devdoc\",\"userdoc\",\"storageLayout\",\"evm.legacyAssembly\",\"evm.bytecode\",\"evm.deployedBytecode\",\"evm.methodIdentifiers\",\"evm.gasEstimates\",\"evm.assembly\"]}},\"remappings\":[]}}",
	"name": "WalkWalk",
	"bytecode": {
		"linkReferences": {},
		"object": "6080604052348015600e575f80fd5b50611c7e8061001c5f395ff3fe608060405234801561000f575f80fd5b5060043610610060575f3560e01c80630f7ee1ec14610064578063197d23b01461009957806332e7847b146100b5578063420acff3146100e5578063b63e6ac314610115578063c1800e8114610145575b5f80fd5b61007e60048036038101906100799190610f9e565b61017d565b60405161009096959493929190611062565b60405180910390f35b6100b360048036038101906100ae9190611202565b610362565b005b6100cf60048036038101906100ca919061137c565b6104f0565b6040516100dc9190611459565b60405180910390f35b6100ff60048036038101906100fa9190610f9e565b610622565b60405161010c91906115a7565b60405180910390f35b61012f600480360381019061012a9190610f9e565b610998565b60405161013c919061166a565b60405180910390f35b61015f600480360381019061015a9190610f9e565b610bf6565b6040516101749998979695949392919061168a565b60405180910390f35b6001818154811061018c575f80fd5b905f5260205f2090600602015f91509050805f0180546101ab90611765565b80601f01602080910402602001604051908101604052809291908181526020018280546101d790611765565b80156102225780601f106101f957610100808354040283529160200191610222565b820191905f5260205f20905b81548152906001019060200180831161020557829003601f168201915b505050505090806001015f9054906101000a900460ff169080600201549080600301805461024f90611765565b80601f016020809104026020016040519081016040528092919081815260200182805461027b90611765565b80156102c65780601f1061029d576101008083540402835291602001916102c6565b820191905f5260205f20905b8154815290600101906020018083116102a957829003601f168201915b5050505050908060040180546102db90611765565b80601f016020809104026020016040519081016040528092919081815260200182805461030790611765565b80156103525780601f1061032957610100808354040283529160200191610352565b820191905f5260205f20905b81548152906001019060200180831161033557829003601f168201915b5050505050908060050154905086565b5f805f8b81526020019081526020015f205f0154146103b6576040517f08c379a00000000000000000000000000000000000000000000000000000000081526004016103ad906117df565b60405180910390fd5b6040518061012001604052808a8152602001898152602001888152602001878152602001868152602001858152602001848152602001838152602001828152505f808b81526020019081526020015f205f820151815f01556020820151816001015560408201518160020155606082015181600301556080820151816004019081610441919061199a565b5060a0820151816005019081610457919061199a565b5060c082015181600601908161046d919061199a565b5060e0820151816007019081610483919061199a565b5061010082015181600801908161049a919061199a565b509050507f07ad54d69f4d007d56f6e74010350562e46f5cf4ee19e65482acb78e4c2195508989898989898989896040516104dd9998979695949392919061168a565b60405180910390a1505050505050505050565b5f60016040518060c00160405280898152602001881515815260200187815260200186815260200185815260200184815250908060018154018082558091505060019003905f5260205f2090600602015f909190919091505f820151815f01908161055b919061199a565b506020820151816001015f6101000a81548160ff02191690831515021790555060408201518160020155606082015181600301908161059a919061199a565b5060808201518160040190816105b0919061199a565b5060a0820151816005015550505f600180805490506105cf9190611a96565b90507f8b9f4d9e9c07fe50f790c2348976c935ad40e3e76ff7bb74ef1c6ae9eaebd3fe8189898989898960405161060c9796959493929190611ac9565b60405180910390a1809150509695505050505050565b61062a610edd565b5f805f8481526020019081526020015f205f01540361067e576040517f08c379a000000000000000000000000000000000000000000000000000000000815260040161067590611b95565b60405180910390fd5b5f808381526020019081526020015f20604051806101200160405290815f82015481526020016001820154815260200160028201548152602001600382015481526020016004820180546106d190611765565b80601f01602080910402602001604051908101604052809291908181526020018280546106fd90611765565b80156107485780601f1061071f57610100808354040283529160200191610748565b820191905f5260205f20905b81548152906001019060200180831161072b57829003601f168201915b5050505050815260200160058201805461076190611765565b80601f016020809104026020016040519081016040528092919081815260200182805461078d90611765565b80156107d85780601f106107af576101008083540402835291602001916107d8565b820191905f5260205f20905b8154815290600101906020018083116107bb57829003601f168201915b505050505081526020016006820180546107f190611765565b80601f016020809104026020016040519081016040528092919081815260200182805461081d90611765565b80156108685780601f1061083f57610100808354040283529160200191610868565b820191905f5260205f20905b81548152906001019060200180831161084b57829003601f168201915b5050505050815260200160078201805461088190611765565b80601f01602080910402602001604051908101604052809291908181526020018280546108ad90611765565b80156108f85780601f106108cf576101008083540402835291602001916108f8565b820191905f5260205f20905b8154815290600101906020018083116108db57829003601f168201915b5050505050815260200160088201805461091190611765565b80601f016020809104026020016040519081016040528092919081815260200182805461093d90611765565b80156109885780601f1061095f57610100808354040283529160200191610988565b820191905f5260205f20905b81548152906001019060200180831161096b57829003601f168201915b5050505050815250509050919050565b6109a0610f25565b60018054905082106109e7576040517f08c379a00000000000000000000000000000000000000000000000000000000081526004016109de90611bfd565b60405180910390fd5b600182815481106109fb576109fa611c1b565b5b905f5260205f2090600602016040518060c00160405290815f82018054610a2190611765565b80601f0160208091040260200160405190810160405280929190818152602001828054610a4d90611765565b8015610a985780601f10610a6f57610100808354040283529160200191610a98565b820191905f5260205f20905b815481529060010190602001808311610a7b57829003601f168201915b50505050508152602001600182015f9054906101000a900460ff1615151515815260200160028201548152602001600382018054610ad590611765565b80601f0160208091040260200160405190810160405280929190818152602001828054610b0190611765565b8015610b4c5780601f10610b2357610100808354040283529160200191610b4c565b820191905f5260205f20905b815481529060010190602001808311610b2f57829003601f168201915b50505050508152602001600482018054610b6590611765565b80601f0160208091040260200160405190810160405280929190818152602001828054610b9190611765565b8015610bdc5780601f10610bb357610100808354040283529160200191610bdc565b820191905f5260205f20905b815481529060010190602001808311610bbf57829003601f168201915b505050505081526020016005820154815250509050919050565b5f602052805f5260405f205f91509050805f015490806001015490806002015490806003015490806004018054610c2c90611765565b80601f0160208091040260200160405190810160405280929190818152602001828054610c5890611765565b8015610ca35780601f10610c7a57610100808354040283529160200191610ca3565b820191905f5260205f20905b815481529060010190602001808311610c8657829003601f168201915b505050505090806005018054610cb890611765565b80601f0160208091040260200160405190810160405280929190818152602001828054610ce490611765565b8015610d2f5780601f10610d0657610100808354040283529160200191610d2f565b820191905f5260205f20905b815481529060010190602001808311610d1257829003601f168201915b505050505090806006018054610d4490611765565b80601f0160208091040260200160405190810160405280929190818152602001828054610d7090611765565b8015610dbb5780601f10610d9257610100808354040283529160200191610dbb565b820191905f5260205f20905b815481529060010190602001808311610d9e57829003601f168201915b505050505090806007018054610dd090611765565b80601f0160208091040260200160405190810160405280929190818152602001828054610dfc90611765565b8015610e475780601f10610e1e57610100808354040283529160200191610e47565b820191905f5260205f20905b815481529060010190602001808311610e2a57829003601f168201915b505050505090806008018054610e5c90611765565b80601f0160208091040260200160405190810160405280929190818152602001828054610e8890611765565b8015610ed35780601f10610eaa57610100808354040283529160200191610ed3565b820191905f5260205f20905b815481529060010190602001808311610eb657829003601f168201915b5050505050905089565b6040518061012001604052805f81526020015f81526020015f81526020015f815260200160608152602001606081526020016060815260200160608152602001606081525090565b6040518060c00160405280606081526020015f151581526020015f815260200160608152602001606081526020015f81525090565b5f604051905090565b5f80fd5b5f80fd5b5f819050919050565b610f7d81610f6b565b8114610f87575f80fd5b50565b5f81359050610f9881610f74565b92915050565b5f60208284031215610fb357610fb2610f63565b5b5f610fc084828501610f8a565b91505092915050565b5f81519050919050565b5f82825260208201905092915050565b8281835e5f83830152505050565b5f601f19601f8301169050919050565b5f61100b82610fc9565b6110158185610fd3565b9350611025818560208601610fe3565b61102e81610ff1565b840191505092915050565b5f8115159050919050565b61104d81611039565b82525050565b61105c81610f6b565b82525050565b5f60c0820190508181035f83015261107a8189611001565b90506110896020830188611044565b6110966040830187611053565b81810360608301526110a88186611001565b905081810360808301526110bc8185611001565b90506110cb60a0830184611053565b979650505050505050565b5f80fd5b5f80fd5b7f4e487b71000000000000000000000000000000000000000000000000000000005f52604160045260245ffd5b61111482610ff1565b810181811067ffffffffffffffff82111715611133576111326110de565b5b80604052505050565b5f611145610f5a565b9050611151828261110b565b919050565b5f67ffffffffffffffff8211156111705761116f6110de565b5b61117982610ff1565b9050602081019050919050565b828183375f83830152505050565b5f6111a66111a184611156565b61113c565b9050828152602081018484840111156111c2576111c16110da565b5b6111cd848285611186565b509392505050565b5f82601f8301126111e9576111e86110d6565b5b81356111f9848260208601611194565b91505092915050565b5f805f805f805f805f6101208a8c0312156112205761121f610f63565b5b5f61122d8c828d01610f8a565b995050602061123e8c828d01610f8a565b985050604061124f8c828d01610f8a565b97505060606112608c828d01610f8a565b96505060808a013567ffffffffffffffff81111561128157611280610f67565b5b61128d8c828d016111d5565b95505060a08a013567ffffffffffffffff8111156112ae576112ad610f67565b5b6112ba8c828d016111d5565b94505060c08a013567ffffffffffffffff8111156112db576112da610f67565b5b6112e78c828d016111d5565b93505060e08a013567ffffffffffffffff81111561130857611307610f67565b5b6113148c828d016111d5565b9250506101008a013567ffffffffffffffff81111561133657611335610f67565b5b6113428c828d016111d5565b9150509295985092959850929598565b61135b81611039565b8114611365575f80fd5b50565b5f8135905061137681611352565b92915050565b5f805f805f8060c0878903121561139657611395610f63565b5b5f87013567ffffffffffffffff8111156113b3576113b2610f67565b5b6113bf89828a016111d5565b96505060206113d089828a01611368565b95505060406113e189828a01610f8a565b945050606087013567ffffffffffffffff81111561140257611401610f67565b5b61140e89828a016111d5565b935050608087013567ffffffffffffffff81111561142f5761142e610f67565b5b61143b89828a016111d5565b92505060a061144c89828a01610f8a565b9150509295509295509295565b5f60208201905061146c5f830184611053565b92915050565b61147b81610f6b565b82525050565b5f82825260208201905092915050565b5f61149b82610fc9565b6114a58185611481565b93506114b5818560208601610fe3565b6114be81610ff1565b840191505092915050565b5f61012083015f8301516114df5f860182611472565b5060208301516114f26020860182611472565b5060408301516115056040860182611472565b5060608301516115186060860182611472565b50608083015184820360808601526115308282611491565b91505060a083015184820360a086015261154a8282611491565b91505060c083015184820360c08601526115648282611491565b91505060e083015184820360e086015261157e8282611491565b91505061010083015184820361010086015261159a8282611491565b9150508091505092915050565b5f6020820190508181035f8301526115bf81846114c9565b905092915050565b6115d081611039565b82525050565b5f60c083015f8301518482035f8601526115f08282611491565b915050602083015161160560208601826115c7565b5060408301516116186040860182611472565b50606083015184820360608601526116308282611491565b9150506080830151848203608086015261164a8282611491565b91505060a083015161165f60a0860182611472565b508091505092915050565b5f6020820190508181035f83015261168281846115d6565b905092915050565b5f6101208201905061169e5f83018c611053565b6116ab602083018b611053565b6116b8604083018a611053565b6116c56060830189611053565b81810360808301526116d78188611001565b905081810360a08301526116eb8187611001565b905081810360c08301526116ff8186611001565b905081810360e08301526117138185611001565b90508181036101008301526117288184611001565b90509a9950505050505050505050565b7f4e487b71000000000000000000000000000000000000000000000000000000005f52602260045260245ffd5b5f600282049050600182168061177c57607f821691505b60208210810361178f5761178e611738565b5b50919050565b7f494420616c7265616479206578697374732e00000000000000000000000000005f82015250565b5f6117c9601283610fd3565b91506117d482611795565b602082019050919050565b5f6020820190508181035f8301526117f6816117bd565b9050919050565b5f819050815f5260205f209050919050565b5f6020601f8301049050919050565b5f82821b905092915050565b5f600883026118597fffffffffffffffffffffffffffffffffffffffffffffffffffffffffffffffff8261181e565b611863868361181e565b95508019841693508086168417925050509392505050565b5f819050919050565b5f61189e61189961189484610f6b565b61187b565b610f6b565b9050919050565b5f819050919050565b6118b783611884565b6118cb6118c3826118a5565b84845461182a565b825550505050565b5f90565b6118df6118d3565b6118ea8184846118ae565b505050565b5b8181101561190d576119025f826118d7565b6001810190506118f0565b5050565b601f82111561195257611923816117fd565b61192c8461180f565b8101602085101561193b578190505b61194f6119478561180f565b8301826118ef565b50505b505050565b5f82821c905092915050565b5f6119725f1984600802611957565b1980831691505092915050565b5f61198a8383611963565b9150826002028217905092915050565b6119a382610fc9565b67ffffffffffffffff8111156119bc576119bb6110de565b5b6119c68254611765565b6119d1828285611911565b5f60209050601f831160018114611a02575f84156119f0578287015190505b6119fa858261197f565b865550611a61565b601f198416611a10866117fd565b5f5b82811015611a3757848901518255600182019150602085019450602081019050611a12565b86831015611a545784890151611a50601f891682611963565b8355505b6001600288020188555050505b505050505050565b7f4e487b71000000000000000000000000000000000000000000000000000000005f52601160045260245ffd5b5f611aa082610f6b565b9150611aab83610f6b565b9250828203905081811115611ac357611ac2611a69565b5b92915050565b5f60e082019050611adc5f83018a611053565b8181036020830152611aee8189611001565b9050611afd6040830188611044565b611b0a6060830187611053565b8181036080830152611b1c8186611001565b905081810360a0830152611b308185611001565b9050611b3f60c0830184611053565b98975050505050505050565b7f45786572636973654461746120646f6573206e6f742065786973742e000000005f82015250565b5f611b7f601c83610fd3565b9150611b8a82611b4b565b602082019050919050565b5f6020820190508181035f830152611bac81611b73565b9050919050565b7f5265636569707420646f6573206e6f742065786973742e0000000000000000005f82015250565b5f611be7601783610fd3565b9150611bf282611bb3565b602082019050919050565b5f6020820190508181035f830152611c1481611bdb565b9050919050565b7f4e487b71000000000000000000000000000000000000000000000000000000005f52603260045260245ffdfea2646970667358221220b01691f44007d5063b41528b08a43b502c2c34249799497cf4f556e930cd043364736f6c63430008190033",
		"opcodes": "PUSH1 0x80 PUSH1 0x40 MSTORE CALLVALUE DUP1 ISZERO PUSH1 0xE JUMPI PUSH0 DUP1 REVERT JUMPDEST POP PUSH2 0x1C7E DUP1 PUSH2 0x1C PUSH0 CODECOPY PUSH0 RETURN INVALID PUSH1 0x80 PUSH1 0x40 MSTORE CALLVALUE DUP1 ISZERO PUSH2 0xF JUMPI PUSH0 DUP1 REVERT JUMPDEST POP PUSH1 0x4 CALLDATASIZE LT PUSH2 0x60 JUMPI PUSH0 CALLDATALOAD PUSH1 0xE0 SHR DUP1 PUSH4 0xF7EE1EC EQ PUSH2 0x64 JUMPI DUP1 PUSH4 0x197D23B0 EQ PUSH2 0x99 JUMPI DUP1 PUSH4 0x32E7847B EQ PUSH2 0xB5 JUMPI DUP1 PUSH4 0x420ACFF3 EQ PUSH2 0xE5 JUMPI DUP1 PUSH4 0xB63E6AC3 EQ PUSH2 0x115 JUMPI DUP1 PUSH4 0xC1800E81 EQ PUSH2 0x145 JUMPI JUMPDEST PUSH0 DUP1 REVERT JUMPDEST PUSH2 0x7E PUSH1 0x4 DUP1 CALLDATASIZE SUB DUP2 ADD SWAP1 PUSH2 0x79 SWAP2 SWAP1 PUSH2 0xF9E JUMP JUMPDEST PUSH2 0x17D JUMP JUMPDEST PUSH1 0x40 MLOAD PUSH2 0x90 SWAP7 SWAP6 SWAP5 SWAP4 SWAP3 SWAP2 SWAP1 PUSH2 0x1062 JUMP JUMPDEST PUSH1 0x40 MLOAD DUP1 SWAP2 SUB SWAP1 RETURN JUMPDEST PUSH2 0xB3 PUSH1 0x4 DUP1 CALLDATASIZE SUB DUP2 ADD SWAP1 PUSH2 0xAE SWAP2 SWAP1 PUSH2 0x1202 JUMP JUMPDEST PUSH2 0x362 JUMP JUMPDEST STOP JUMPDEST PUSH2 0xCF PUSH1 0x4 DUP1 CALLDATASIZE SUB DUP2 ADD SWAP1 PUSH2 0xCA SWAP2 SWAP1 PUSH2 0x137C JUMP JUMPDEST PUSH2 0x4F0 JUMP JUMPDEST PUSH1 0x40 MLOAD PUSH2 0xDC SWAP2 SWAP1 PUSH2 0x1459 JUMP JUMPDEST PUSH1 0x40 MLOAD DUP1 SWAP2 SUB SWAP1 RETURN JUMPDEST PUSH2 0xFF PUSH1 0x4 DUP1 CALLDATASIZE SUB DUP2 ADD SWAP1 PUSH2 0xFA SWAP2 SWAP1 PUSH2 0xF9E JUMP JUMPDEST PUSH2 0x622 JUMP JUMPDEST PUSH1 0x40 MLOAD PUSH2 0x10C SWAP2 SWAP1 PUSH2 0x15A7 JUMP JUMPDEST PUSH1 0x40 MLOAD DUP1 SWAP2 SUB SWAP1 RETURN JUMPDEST PUSH2 0x12F PUSH1 0x4 DUP1 CALLDATASIZE SUB DUP2 ADD SWAP1 PUSH2 0x12A SWAP2 SWAP1 PUSH2 0xF9E JUMP JUMPDEST PUSH2 0x998 JUMP JUMPDEST PUSH1 0x40 MLOAD PUSH2 0x13C SWAP2 SWAP1 PUSH2 0x166A JUMP JUMPDEST PUSH1 0x40 MLOAD DUP1 SWAP2 SUB SWAP1 RETURN JUMPDEST PUSH2 0x15F PUSH1 0x4 DUP1 CALLDATASIZE SUB DUP2 ADD SWAP1 PUSH2 0x15A SWAP2 SWAP1 PUSH2 0xF9E JUMP JUMPDEST PUSH2 0xBF6 JUMP JUMPDEST PUSH1 0x40 MLOAD PUSH2 0x174 SWAP10 SWAP9 SWAP8 SWAP7 SWAP6 SWAP5 SWAP4 SWAP3 SWAP2 SWAP1 PUSH2 0x168A JUMP JUMPDEST PUSH1 0x40 MLOAD DUP1 SWAP2 SUB SWAP1 RETURN JUMPDEST PUSH1 0x1 DUP2 DUP2 SLOAD DUP2 LT PUSH2 0x18C JUMPI PUSH0 DUP1 REVERT JUMPDEST SWAP1 PUSH0 MSTORE PUSH1 0x20 PUSH0 KECCAK256 SWAP1 PUSH1 0x6 MUL ADD PUSH0 SWAP2 POP SWAP1 POP DUP1 PUSH0 ADD DUP1 SLOAD PUSH2 0x1AB SWAP1 PUSH2 0x1765 JUMP JUMPDEST DUP1 PUSH1 0x1F ADD PUSH1 0x20 DUP1 SWAP2 DIV MUL PUSH1 0x20 ADD PUSH1 0x40 MLOAD SWAP1 DUP2 ADD PUSH1 0x40 MSTORE DUP1 SWAP3 SWAP2 SWAP1 DUP2 DUP2 MSTORE PUSH1 0x20 ADD DUP3 DUP1 SLOAD PUSH2 0x1D7 SWAP1 PUSH2 0x1765 JUMP JUMPDEST DUP1 ISZERO PUSH2 0x222 JUMPI DUP1 PUSH1 0x1F LT PUSH2 0x1F9 JUMPI PUSH2 0x100 DUP1 DUP4 SLOAD DIV MUL DUP4 MSTORE SWAP2 PUSH1 0x20 ADD SWAP2 PUSH2 0x222 JUMP JUMPDEST DUP3 ADD SWAP2 SWAP1 PUSH0 MSTORE PUSH1 0x20 PUSH0 KECCAK256 SWAP1 JUMPDEST DUP2 SLOAD DUP2 MSTORE SWAP1 PUSH1 0x1 ADD SWAP1 PUSH1 0x20 ADD DUP1 DUP4 GT PUSH2 0x205 JUMPI DUP3 SWAP1 SUB PUSH1 0x1F AND DUP3 ADD SWAP2 JUMPDEST POP POP POP POP POP SWAP1 DUP1 PUSH1 0x1 ADD PUSH0 SWAP1 SLOAD SWAP1 PUSH2 0x100 EXP SWAP1 DIV PUSH1 0xFF AND SWAP1 DUP1 PUSH1 0x2 ADD SLOAD SWAP1 DUP1 PUSH1 0x3 ADD DUP1 SLOAD PUSH2 0x24F SWAP1 PUSH2 0x1765 JUMP JUMPDEST DUP1 PUSH1 0x1F ADD PUSH1 0x20 DUP1 SWAP2 DIV MUL PUSH1 0x20 ADD PUSH1 0x40 MLOAD SWAP1 DUP2 ADD PUSH1 0x40 MSTORE DUP1 SWAP3 SWAP2 SWAP1 DUP2 DUP2 MSTORE PUSH1 0x20 ADD DUP3 DUP1 SLOAD PUSH2 0x27B SWAP1 PUSH2 0x1765 JUMP JUMPDEST DUP1 ISZERO PUSH2 0x2C6 JUMPI DUP1 PUSH1 0x1F LT PUSH2 0x29D JUMPI PUSH2 0x100 DUP1 DUP4 SLOAD DIV MUL DUP4 MSTORE SWAP2 PUSH1 0x20 ADD SWAP2 PUSH2 0x2C6 JUMP JUMPDEST DUP3 ADD SWAP2 SWAP1 PUSH0 MSTORE PUSH1 0x20 PUSH0 KECCAK256 SWAP1 JUMPDEST DUP2 SLOAD DUP2 MSTORE SWAP1 PUSH1 0x1 ADD SWAP1 PUSH1 0x20 ADD DUP1 DUP4 GT PUSH2 0x2A9 JUMPI DUP3 SWAP1 SUB PUSH1 0x1F AND DUP3 ADD SWAP2 JUMPDEST POP POP POP POP POP SWAP1 DUP1 PUSH1 0x4 ADD DUP1 SLOAD PUSH2 0x2DB SWAP1 PUSH2 0x1765 JUMP JUMPDEST DUP1 PUSH1 0x1F ADD PUSH1 0x20 DUP1 SWAP2 DIV MUL PUSH1 0x20 ADD PUSH1 0x40 MLOAD SWAP1 DUP2 ADD PUSH1 0x40 MSTORE DUP1 SWAP3 SWAP2 SWAP1 DUP2 DUP2 MSTORE PUSH1 0x20 ADD DUP3 DUP1 SLOAD PUSH2 0x307 SWAP1 PUSH2 0x1765 JUMP JUMPDEST DUP1 ISZERO PUSH2 0x352 JUMPI DUP1 PUSH1 0x1F LT PUSH2 0x329 JUMPI PUSH2 0x100 DUP1 DUP4 SLOAD DIV MUL DUP4 MSTORE SWAP2 PUSH1 0x20 ADD SWAP2 PUSH2 0x352 JUMP JUMPDEST DUP3 ADD SWAP2 SWAP1 PUSH0 MSTORE PUSH1 0x20 PUSH0 KECCAK256 SWAP1 JUMPDEST DUP2 SLOAD DUP2 MSTORE SWAP1 PUSH1 0x1 ADD SWAP1 PUSH1 0x20 ADD DUP1 DUP4 GT PUSH2 0x335 JUMPI DUP3 SWAP1 SUB PUSH1 0x1F AND DUP3 ADD SWAP2 JUMPDEST POP POP POP POP POP SWAP1 DUP1 PUSH1 0x5 ADD SLOAD SWAP1 POP DUP7 JUMP JUMPDEST PUSH0 DUP1 PUSH0 DUP12 DUP2 MSTORE PUSH1 0x20 ADD SWAP1 DUP2 MSTORE PUSH1 0x20 ADD PUSH0 KECCAK256 PUSH0 ADD SLOAD EQ PUSH2 0x3B6 JUMPI PUSH1 0x40 MLOAD PUSH32 0x8C379A000000000000000000000000000000000000000000000000000000000 DUP2 MSTORE PUSH1 0x4 ADD PUSH2 0x3AD SWAP1 PUSH2 0x17DF JUMP JUMPDEST PUSH1 0x40 MLOAD DUP1 SWAP2 SUB SWAP1 REVERT JUMPDEST PUSH1 0x40 MLOAD DUP1 PUSH2 0x120 ADD PUSH1 0x40 MSTORE DUP1 DUP11 DUP2 MSTORE PUSH1 0x20 ADD DUP10 DUP2 MSTORE PUSH1 0x20 ADD DUP9 DUP2 MSTORE PUSH1 0x20 ADD DUP8 DUP2 MSTORE PUSH1 0x20 ADD DUP7 DUP2 MSTORE PUSH1 0x20 ADD DUP6 DUP2 MSTORE PUSH1 0x20 ADD DUP5 DUP2 MSTORE PUSH1 0x20 ADD DUP4 DUP2 MSTORE PUSH1 0x20 ADD DUP3 DUP2 MSTORE POP PUSH0 DUP1 DUP12 DUP2 MSTORE PUSH1 0x20 ADD SWAP1 DUP2 MSTORE PUSH1 0x20 ADD PUSH0 KECCAK256 PUSH0 DUP3 ADD MLOAD DUP2 PUSH0 ADD SSTORE PUSH1 0x20 DUP3 ADD MLOAD DUP2 PUSH1 0x1 ADD SSTORE PUSH1 0x40 DUP3 ADD MLOAD DUP2 PUSH1 0x2 ADD SSTORE PUSH1 0x60 DUP3 ADD MLOAD DUP2 PUSH1 0x3 ADD SSTORE PUSH1 0x80 DUP3 ADD MLOAD DUP2 PUSH1 0x4 ADD SWAP1 DUP2 PUSH2 0x441 SWAP2 SWAP1 PUSH2 0x199A JUMP JUMPDEST POP PUSH1 0xA0 DUP3 ADD MLOAD DUP2 PUSH1 0x5 ADD SWAP1 DUP2 PUSH2 0x457 SWAP2 SWAP1 PUSH2 0x199A JUMP JUMPDEST POP PUSH1 0xC0 DUP3 ADD MLOAD DUP2 PUSH1 0x6 ADD SWAP1 DUP2 PUSH2 0x46D SWAP2 SWAP1 PUSH2 0x199A JUMP JUMPDEST POP PUSH1 0xE0 DUP3 ADD MLOAD DUP2 PUSH1 0x7 ADD SWAP1 DUP2 PUSH2 0x483 SWAP2 SWAP1 PUSH2 0x199A JUMP JUMPDEST POP PUSH2 0x100 DUP3 ADD MLOAD DUP2 PUSH1 0x8 ADD SWAP1 DUP2 PUSH2 0x49A SWAP2 SWAP1 PUSH2 0x199A JUMP JUMPDEST POP SWAP1 POP POP PUSH32 0x7AD54D69F4D007D56F6E74010350562E46F5CF4EE19E65482ACB78E4C219550 DUP10 DUP10 DUP10 DUP10 DUP10 DUP10 DUP10 DUP10 DUP10 PUSH1 0x40 MLOAD PUSH2 0x4DD SWAP10 SWAP9 SWAP8 SWAP7 SWAP6 SWAP5 SWAP4 SWAP3 SWAP2 SWAP1 PUSH2 0x168A JUMP JUMPDEST PUSH1 0x40 MLOAD DUP1 SWAP2 SUB SWAP1 LOG1 POP POP POP POP POP POP POP POP POP JUMP JUMPDEST PUSH0 PUSH1 0x1 PUSH1 0x40 MLOAD DUP1 PUSH1 0xC0 ADD PUSH1 0x40 MSTORE DUP1 DUP10 DUP2 MSTORE PUSH1 0x20 ADD DUP9 ISZERO ISZERO DUP2 MSTORE PUSH1 0x20 ADD DUP8 DUP2 MSTORE PUSH1 0x20 ADD DUP7 DUP2 MSTORE PUSH1 0x20 ADD DUP6 DUP2 MSTORE PUSH1 0x20 ADD DUP5 DUP2 MSTORE POP SWAP1 DUP1 PUSH1 0x1 DUP2 SLOAD ADD DUP1 DUP3 SSTORE DUP1 SWAP2 POP POP PUSH1 0x1 SWAP1 SUB SWAP1 PUSH0 MSTORE PUSH1 0x20 PUSH0 KECCAK256 SWAP1 PUSH1 0x6 MUL ADD PUSH0 SWAP1 SWAP2 SWAP1 SWAP2 SWAP1 SWAP2 POP PUSH0 DUP3 ADD MLOAD DUP2 PUSH0 ADD SWAP1 DUP2 PUSH2 0x55B SWAP2 SWAP1 PUSH2 0x199A JUMP JUMPDEST POP PUSH1 0x20 DUP3 ADD MLOAD DUP2 PUSH1 0x1 ADD PUSH0 PUSH2 0x100 EXP DUP2 SLOAD DUP2 PUSH1 0xFF MUL NOT AND SWAP1 DUP4 ISZERO ISZERO MUL OR SWAP1 SSTORE POP PUSH1 0x40 DUP3 ADD MLOAD DUP2 PUSH1 0x2 ADD SSTORE PUSH1 0x60 DUP3 ADD MLOAD DUP2 PUSH1 0x3 ADD SWAP1 DUP2 PUSH2 0x59A SWAP2 SWAP1 PUSH2 0x199A JUMP JUMPDEST POP PUSH1 0x80 DUP3 ADD MLOAD DUP2 PUSH1 0x4 ADD SWAP1 DUP2 PUSH2 0x5B0 SWAP2 SWAP1 PUSH2 0x199A JUMP JUMPDEST POP PUSH1 0xA0 DUP3 ADD MLOAD DUP2 PUSH1 0x5 ADD SSTORE POP POP PUSH0 PUSH1 0x1 DUP1 DUP1 SLOAD SWAP1 POP PUSH2 0x5CF SWAP2 SWAP1 PUSH2 0x1A96 JUMP JUMPDEST SWAP1 POP PUSH32 0x8B9F4D9E9C07FE50F790C2348976C935AD40E3E76FF7BB74EF1C6AE9EAEBD3FE DUP2 DUP10 DUP10 DUP10 DUP10 DUP10 DUP10 PUSH1 0x40 MLOAD PUSH2 0x60C SWAP8 SWAP7 SWAP6 SWAP5 SWAP4 SWAP3 SWAP2 SWAP1 PUSH2 0x1AC9 JUMP JUMPDEST PUSH1 0x40 MLOAD DUP1 SWAP2 SUB SWAP1 LOG1 DUP1 SWAP2 POP POP SWAP7 SWAP6 POP POP POP POP POP POP JUMP JUMPDEST PUSH2 0x62A PUSH2 0xEDD JUMP JUMPDEST PUSH0 DUP1 PUSH0 DUP5 DUP2 MSTORE PUSH1 0x20 ADD SWAP1 DUP2 MSTORE PUSH1 0x20 ADD PUSH0 KECCAK256 PUSH0 ADD SLOAD SUB PUSH2 0x67E JUMPI PUSH1 0x40 MLOAD PUSH32 0x8C379A000000000000000000000000000000000000000000000000000000000 DUP2 MSTORE PUSH1 0x4 ADD PUSH2 0x675 SWAP1 PUSH2 0x1B95 JUMP JUMPDEST PUSH1 0x40 MLOAD DUP1 SWAP2 SUB SWAP1 REVERT JUMPDEST PUSH0 DUP1 DUP4 DUP2 MSTORE PUSH1 0x20 ADD SWAP1 DUP2 MSTORE PUSH1 0x20 ADD PUSH0 KECCAK256 PUSH1 0x40 MLOAD DUP1 PUSH2 0x120 ADD PUSH1 0x40 MSTORE SWAP1 DUP2 PUSH0 DUP3 ADD SLOAD DUP2 MSTORE PUSH1 0x20 ADD PUSH1 0x1 DUP3 ADD SLOAD DUP2 MSTORE PUSH1 0x20 ADD PUSH1 0x2 DUP3 ADD SLOAD DUP2 MSTORE PUSH1 0x20 ADD PUSH1 0x3 DUP3 ADD SLOAD DUP2 MSTORE PUSH1 0x20 ADD PUSH1 0x4 DUP3 ADD DUP1 SLOAD PUSH2 0x6D1 SWAP1 PUSH2 0x1765 JUMP JUMPDEST DUP1 PUSH1 0x1F ADD PUSH1 0x20 DUP1 SWAP2 DIV MUL PUSH1 0x20 ADD PUSH1 0x40 MLOAD SWAP1 DUP2 ADD PUSH1 0x40 MSTORE DUP1 SWAP3 SWAP2 SWAP1 DUP2 DUP2 MSTORE PUSH1 0x20 ADD DUP3 DUP1 SLOAD PUSH2 0x6FD SWAP1 PUSH2 0x1765 JUMP JUMPDEST DUP1 ISZERO PUSH2 0x748 JUMPI DUP1 PUSH1 0x1F LT PUSH2 0x71F JUMPI PUSH2 0x100 DUP1 DUP4 SLOAD DIV MUL DUP4 MSTORE SWAP2 PUSH1 0x20 ADD SWAP2 PUSH2 0x748 JUMP JUMPDEST DUP3 ADD SWAP2 SWAP1 PUSH0 MSTORE PUSH1 0x20 PUSH0 KECCAK256 SWAP1 JUMPDEST DUP2 SLOAD DUP2 MSTORE SWAP1 PUSH1 0x1 ADD SWAP1 PUSH1 0x20 ADD DUP1 DUP4 GT PUSH2 0x72B JUMPI DUP3 SWAP1 SUB PUSH1 0x1F AND DUP3 ADD SWAP2 JUMPDEST POP POP POP POP POP DUP2 MSTORE PUSH1 0x20 ADD PUSH1 0x5 DUP3 ADD DUP1 SLOAD PUSH2 0x761 SWAP1 PUSH2 0x1765 JUMP JUMPDEST DUP1 PUSH1 0x1F ADD PUSH1 0x20 DUP1 SWAP2 DIV MUL PUSH1 0x20 ADD PUSH1 0x40 MLOAD SWAP1 DUP2 ADD PUSH1 0x40 MSTORE DUP1 SWAP3 SWAP2 SWAP1 DUP2 DUP2 MSTORE PUSH1 0x20 ADD DUP3 DUP1 SLOAD PUSH2 0x78D SWAP1 PUSH2 0x1765 JUMP JUMPDEST DUP1 ISZERO PUSH2 0x7D8 JUMPI DUP1 PUSH1 0x1F LT PUSH2 0x7AF JUMPI PUSH2 0x100 DUP1 DUP4 SLOAD DIV MUL DUP4 MSTORE SWAP2 PUSH1 0x20 ADD SWAP2 PUSH2 0x7D8 JUMP JUMPDEST DUP3 ADD SWAP2 SWAP1 PUSH0 MSTORE PUSH1 0x20 PUSH0 KECCAK256 SWAP1 JUMPDEST DUP2 SLOAD DUP2 MSTORE SWAP1 PUSH1 0x1 ADD SWAP1 PUSH1 0x20 ADD DUP1 DUP4 GT PUSH2 0x7BB JUMPI DUP3 SWAP1 SUB PUSH1 0x1F AND DUP3 ADD SWAP2 JUMPDEST POP POP POP POP POP DUP2 MSTORE PUSH1 0x20 ADD PUSH1 0x6 DUP3 ADD DUP1 SLOAD PUSH2 0x7F1 SWAP1 PUSH2 0x1765 JUMP JUMPDEST DUP1 PUSH1 0x1F ADD PUSH1 0x20 DUP1 SWAP2 DIV MUL PUSH1 0x20 ADD PUSH1 0x40 MLOAD SWAP1 DUP2 ADD PUSH1 0x40 MSTORE DUP1 SWAP3 SWAP2 SWAP1 DUP2 DUP2 MSTORE PUSH1 0x20 ADD DUP3 DUP1 SLOAD PUSH2 0x81D SWAP1 PUSH2 0x1765 JUMP JUMPDEST DUP1 ISZERO PUSH2 0x868 JUMPI DUP1 PUSH1 0x1F LT PUSH2 0x83F JUMPI PUSH2 0x100 DUP1 DUP4 SLOAD DIV MUL DUP4 MSTORE SWAP2 PUSH1 0x20 ADD SWAP2 PUSH2 0x868 JUMP JUMPDEST DUP3 ADD SWAP2 SWAP1 PUSH0 MSTORE PUSH1 0x20 PUSH0 KECCAK256 SWAP1 JUMPDEST DUP2 SLOAD DUP2 MSTORE SWAP1 PUSH1 0x1 ADD SWAP1 PUSH1 0x20 ADD DUP1 DUP4 GT PUSH2 0x84B JUMPI DUP3 SWAP1 SUB PUSH1 0x1F AND DUP3 ADD SWAP2 JUMPDEST POP POP POP POP POP DUP2 MSTORE PUSH1 0x20 ADD PUSH1 0x7 DUP3 ADD DUP1 SLOAD PUSH2 0x881 SWAP1 PUSH2 0x1765 JUMP JUMPDEST DUP1 PUSH1 0x1F ADD PUSH1 0x20 DUP1 SWAP2 DIV MUL PUSH1 0x20 ADD PUSH1 0x40 MLOAD SWAP1 DUP2 ADD PUSH1 0x40 MSTORE DUP1 SWAP3 SWAP2 SWAP1 DUP2 DUP2 MSTORE PUSH1 0x20 ADD DUP3 DUP1 SLOAD PUSH2 0x8AD SWAP1 PUSH2 0x1765 JUMP JUMPDEST DUP1 ISZERO PUSH2 0x8F8 JUMPI DUP1 PUSH1 0x1F LT PUSH2 0x8CF JUMPI PUSH2 0x100 DUP1 DUP4 SLOAD DIV MUL DUP4 MSTORE SWAP2 PUSH1 0x20 ADD SWAP2 PUSH2 0x8F8 JUMP JUMPDEST DUP3 ADD SWAP2 SWAP1 PUSH0 MSTORE PUSH1 0x20 PUSH0 KECCAK256 SWAP1 JUMPDEST DUP2 SLOAD DUP2 MSTORE SWAP1 PUSH1 0x1 ADD SWAP1 PUSH1 0x20 ADD DUP1 DUP4 GT PUSH2 0x8DB JUMPI DUP3 SWAP1 SUB PUSH1 0x1F AND DUP3 ADD SWAP2 JUMPDEST POP POP POP POP POP DUP2 MSTORE PUSH1 0x20 ADD PUSH1 0x8 DUP3 ADD DUP1 SLOAD PUSH2 0x911 SWAP1 PUSH2 0x1765 JUMP JUMPDEST DUP1 PUSH1 0x1F ADD PUSH1 0x20 DUP1 SWAP2 DIV MUL PUSH1 0x20 ADD PUSH1 0x40 MLOAD SWAP1 DUP2 ADD PUSH1 0x40 MSTORE DUP1 SWAP3 SWAP2 SWAP1 DUP2 DUP2 MSTORE PUSH1 0x20 ADD DUP3 DUP1 SLOAD PUSH2 0x93D SWAP1 PUSH2 0x1765 JUMP JUMPDEST DUP1 ISZERO PUSH2 0x988 JUMPI DUP1 PUSH1 0x1F LT PUSH2 0x95F JUMPI PUSH2 0x100 DUP1 DUP4 SLOAD DIV MUL DUP4 MSTORE SWAP2 PUSH1 0x20 ADD SWAP2 PUSH2 0x988 JUMP JUMPDEST DUP3 ADD SWAP2 SWAP1 PUSH0 MSTORE PUSH1 0x20 PUSH0 KECCAK256 SWAP1 JUMPDEST DUP2 SLOAD DUP2 MSTORE SWAP1 PUSH1 0x1 ADD SWAP1 PUSH1 0x20 ADD DUP1 DUP4 GT PUSH2 0x96B JUMPI DUP3 SWAP1 SUB PUSH1 0x1F AND DUP3 ADD SWAP2 JUMPDEST POP POP POP POP POP DUP2 MSTORE POP POP SWAP1 POP SWAP2 SWAP1 POP JUMP JUMPDEST PUSH2 0x9A0 PUSH2 0xF25 JUMP JUMPDEST PUSH1 0x1 DUP1 SLOAD SWAP1 POP DUP3 LT PUSH2 0x9E7 JUMPI PUSH1 0x40 MLOAD PUSH32 0x8C379A000000000000000000000000000000000000000000000000000000000 DUP2 MSTORE PUSH1 0x4 ADD PUSH2 0x9DE SWAP1 PUSH2 0x1BFD JUMP JUMPDEST PUSH1 0x40 MLOAD DUP1 SWAP2 SUB SWAP1 REVERT JUMPDEST PUSH1 0x1 DUP3 DUP2 SLOAD DUP2 LT PUSH2 0x9FB JUMPI PUSH2 0x9FA PUSH2 0x1C1B JUMP JUMPDEST JUMPDEST SWAP1 PUSH0 MSTORE PUSH1 0x20 PUSH0 KECCAK256 SWAP1 PUSH1 0x6 MUL ADD PUSH1 0x40 MLOAD DUP1 PUSH1 0xC0 ADD PUSH1 0x40 MSTORE SWAP1 DUP2 PUSH0 DUP3 ADD DUP1 SLOAD PUSH2 0xA21 SWAP1 PUSH2 0x1765 JUMP JUMPDEST DUP1 PUSH1 0x1F ADD PUSH1 0x20 DUP1 SWAP2 DIV MUL PUSH1 0x20 ADD PUSH1 0x40 MLOAD SWAP1 DUP2 ADD PUSH1 0x40 MSTORE DUP1 SWAP3 SWAP2 SWAP1 DUP2 DUP2 MSTORE PUSH1 0x20 ADD DUP3 DUP1 SLOAD PUSH2 0xA4D SWAP1 PUSH2 0x1765 JUMP JUMPDEST DUP1 ISZERO PUSH2 0xA98 JUMPI DUP1 PUSH1 0x1F LT PUSH2 0xA6F JUMPI PUSH2 0x100 DUP1 DUP4 SLOAD DIV MUL DUP4 MSTORE SWAP2 PUSH1 0x20 ADD SWAP2 PUSH2 0xA98 JUMP JUMPDEST DUP3 ADD SWAP2 SWAP1 PUSH0 MSTORE PUSH1 0x20 PUSH0 KECCAK256 SWAP1 JUMPDEST DUP2 SLOAD DUP2 MSTORE SWAP1 PUSH1 0x1 ADD SWAP1 PUSH1 0x20 ADD DUP1 DUP4 GT PUSH2 0xA7B JUMPI DUP3 SWAP1 SUB PUSH1 0x1F AND DUP3 ADD SWAP2 JUMPDEST POP POP POP POP POP DUP2 MSTORE PUSH1 0x20 ADD PUSH1 0x1 DUP3 ADD PUSH0 SWAP1 SLOAD SWAP1 PUSH2 0x100 EXP SWAP1 DIV PUSH1 0xFF AND ISZERO ISZERO ISZERO ISZERO DUP2 MSTORE PUSH1 0x20 ADD PUSH1 0x2 DUP3 ADD SLOAD DUP2 MSTORE PUSH1 0x20 ADD PUSH1 0x3 DUP3 ADD DUP1 SLOAD PUSH2 0xAD5 SWAP1 PUSH2 0x1765 JUMP JUMPDEST DUP1 PUSH1 0x1F ADD PUSH1 0x20 DUP1 SWAP2 DIV MUL PUSH1 0x20 ADD PUSH1 0x40 MLOAD SWAP1 DUP2 ADD PUSH1 0x40 MSTORE DUP1 SWAP3 SWAP2 SWAP1 DUP2 DUP2 MSTORE PUSH1 0x20 ADD DUP3 DUP1 SLOAD PUSH2 0xB01 SWAP1 PUSH2 0x1765 JUMP JUMPDEST DUP1 ISZERO PUSH2 0xB4C JUMPI DUP1 PUSH1 0x1F LT PUSH2 0xB23 JUMPI PUSH2 0x100 DUP1 DUP4 SLOAD DIV MUL DUP4 MSTORE SWAP2 PUSH1 0x20 ADD SWAP2 PUSH2 0xB4C JUMP JUMPDEST DUP3 ADD SWAP2 SWAP1 PUSH0 MSTORE PUSH1 0x20 PUSH0 KECCAK256 SWAP1 JUMPDEST DUP2 SLOAD DUP2 MSTORE SWAP1 PUSH1 0x1 ADD SWAP1 PUSH1 0x20 ADD DUP1 DUP4 GT PUSH2 0xB2F JUMPI DUP3 SWAP1 SUB PUSH1 0x1F AND DUP3 ADD SWAP2 JUMPDEST POP POP POP POP POP DUP2 MSTORE PUSH1 0x20 ADD PUSH1 0x4 DUP3 ADD DUP1 SLOAD PUSH2 0xB65 SWAP1 PUSH2 0x1765 JUMP JUMPDEST DUP1 PUSH1 0x1F ADD PUSH1 0x20 DUP1 SWAP2 DIV MUL PUSH1 0x20 ADD PUSH1 0x40 MLOAD SWAP1 DUP2 ADD PUSH1 0x40 MSTORE DUP1 SWAP3 SWAP2 SWAP1 DUP2 DUP2 MSTORE PUSH1 0x20 ADD DUP3 DUP1 SLOAD PUSH2 0xB91 SWAP1 PUSH2 0x1765 JUMP JUMPDEST DUP1 ISZERO PUSH2 0xBDC JUMPI DUP1 PUSH1 0x1F LT PUSH2 0xBB3 JUMPI PUSH2 0x100 DUP1 DUP4 SLOAD DIV MUL DUP4 MSTORE SWAP2 PUSH1 0x20 ADD SWAP2 PUSH2 0xBDC JUMP JUMPDEST DUP3 ADD SWAP2 SWAP1 PUSH0 MSTORE PUSH1 0x20 PUSH0 KECCAK256 SWAP1 JUMPDEST DUP2 SLOAD DUP2 MSTORE SWAP1 PUSH1 0x1 ADD SWAP1 PUSH1 0x20 ADD DUP1 DUP4 GT PUSH2 0xBBF JUMPI DUP3 SWAP1 SUB PUSH1 0x1F AND DUP3 ADD SWAP2 JUMPDEST POP POP POP POP POP DUP2 MSTORE PUSH1 0x20 ADD PUSH1 0x5 DUP3 ADD SLOAD DUP2 MSTORE POP POP SWAP1 POP SWAP2 SWAP1 POP JUMP JUMPDEST PUSH0 PUSH1 0x20 MSTORE DUP1 PUSH0 MSTORE PUSH1 0x40 PUSH0 KECCAK256 PUSH0 SWAP2 POP SWAP1 POP DUP1 PUSH0 ADD SLOAD SWAP1 DUP1 PUSH1 0x1 ADD SLOAD SWAP1 DUP1 PUSH1 0x2 ADD SLOAD SWAP1 DUP1 PUSH1 0x3 ADD SLOAD SWAP1 DUP1 PUSH1 0x4 ADD DUP1 SLOAD PUSH2 0xC2C SWAP1 PUSH2 0x1765 JUMP JUMPDEST DUP1 PUSH1 0x1F ADD PUSH1 0x20 DUP1 SWAP2 DIV MUL PUSH1 0x20 ADD PUSH1 0x40 MLOAD SWAP1 DUP2 ADD PUSH1 0x40 MSTORE DUP1 SWAP3 SWAP2 SWAP1 DUP2 DUP2 MSTORE PUSH1 0x20 ADD DUP3 DUP1 SLOAD PUSH2 0xC58 SWAP1 PUSH2 0x1765 JUMP JUMPDEST DUP1 ISZERO PUSH2 0xCA3 JUMPI DUP1 PUSH1 0x1F LT PUSH2 0xC7A JUMPI PUSH2 0x100 DUP1 DUP4 SLOAD DIV MUL DUP4 MSTORE SWAP2 PUSH1 0x20 ADD SWAP2 PUSH2 0xCA3 JUMP JUMPDEST DUP3 ADD SWAP2 SWAP1 PUSH0 MSTORE PUSH1 0x20 PUSH0 KECCAK256 SWAP1 JUMPDEST DUP2 SLOAD DUP2 MSTORE SWAP1 PUSH1 0x1 ADD SWAP1 PUSH1 0x20 ADD DUP1 DUP4 GT PUSH2 0xC86 JUMPI DUP3 SWAP1 SUB PUSH1 0x1F AND DUP3 ADD SWAP2 JUMPDEST POP POP POP POP POP SWAP1 DUP1 PUSH1 0x5 ADD DUP1 SLOAD PUSH2 0xCB8 SWAP1 PUSH2 0x1765 JUMP JUMPDEST DUP1 PUSH1 0x1F ADD PUSH1 0x20 DUP1 SWAP2 DIV MUL PUSH1 0x20 ADD PUSH1 0x40 MLOAD SWAP1 DUP2 ADD PUSH1 0x40 MSTORE DUP1 SWAP3 SWAP2 SWAP1 DUP2 DUP2 MSTORE PUSH1 0x20 ADD DUP3 DUP1 SLOAD PUSH2 0xCE4 SWAP1 PUSH2 0x1765 JUMP JUMPDEST DUP1 ISZERO PUSH2 0xD2F JUMPI DUP1 PUSH1 0x1F LT PUSH2 0xD06 JUMPI PUSH2 0x100 DUP1 DUP4 SLOAD DIV MUL DUP4 MSTORE SWAP2 PUSH1 0x20 ADD SWAP2 PUSH2 0xD2F JUMP JUMPDEST DUP3 ADD SWAP2 SWAP1 PUSH0 MSTORE PUSH1 0x20 PUSH0 KECCAK256 SWAP1 JUMPDEST DUP2 SLOAD DUP2 MSTORE SWAP1 PUSH1 0x1 ADD SWAP1 PUSH1 0x20 ADD DUP1 DUP4 GT PUSH2 0xD12 JUMPI DUP3 SWAP1 SUB PUSH1 0x1F AND DUP3 ADD SWAP2 JUMPDEST POP POP POP POP POP SWAP1 DUP1 PUSH1 0x6 ADD DUP1 SLOAD PUSH2 0xD44 SWAP1 PUSH2 0x1765 JUMP JUMPDEST DUP1 PUSH1 0x1F ADD PUSH1 0x20 DUP1 SWAP2 DIV MUL PUSH1 0x20 ADD PUSH1 0x40 MLOAD SWAP1 DUP2 ADD PUSH1 0x40 MSTORE DUP1 SWAP3 SWAP2 SWAP1 DUP2 DUP2 MSTORE PUSH1 0x20 ADD DUP3 DUP1 SLOAD PUSH2 0xD70 SWAP1 PUSH2 0x1765 JUMP JUMPDEST DUP1 ISZERO PUSH2 0xDBB JUMPI DUP1 PUSH1 0x1F LT PUSH2 0xD92 JUMPI PUSH2 0x100 DUP1 DUP4 SLOAD DIV MUL DUP4 MSTORE SWAP2 PUSH1 0x20 ADD SWAP2 PUSH2 0xDBB JUMP JUMPDEST DUP3 ADD SWAP2 SWAP1 PUSH0 MSTORE PUSH1 0x20 PUSH0 KECCAK256 SWAP1 JUMPDEST DUP2 SLOAD DUP2 MSTORE SWAP1 PUSH1 0x1 ADD SWAP1 PUSH1 0x20 ADD DUP1 DUP4 GT PUSH2 0xD9E JUMPI DUP3 SWAP1 SUB PUSH1 0x1F AND DUP3 ADD SWAP2 JUMPDEST POP POP POP POP POP SWAP1 DUP1 PUSH1 0x7 ADD DUP1 SLOAD PUSH2 0xDD0 SWAP1 PUSH2 0x1765 JUMP JUMPDEST DUP1 PUSH1 0x1F ADD PUSH1 0x20 DUP1 SWAP2 DIV MUL PUSH1 0x20 ADD PUSH1 0x40 MLOAD SWAP1 DUP2 ADD PUSH1 0x40 MSTORE DUP1 SWAP3 SWAP2 SWAP1 DUP2 DUP2 MSTORE PUSH1 0x20 ADD DUP3 DUP1 SLOAD PUSH2 0xDFC SWAP1 PUSH2 0x1765 JUMP JUMPDEST DUP1 ISZERO PUSH2 0xE47 JUMPI DUP1 PUSH1 0x1F LT PUSH2 0xE1E JUMPI PUSH2 0x100 DUP1 DUP4 SLOAD DIV MUL DUP4 MSTORE SWAP2 PUSH1 0x20 ADD SWAP2 PUSH2 0xE47 JUMP JUMPDEST DUP3 ADD SWAP2 SWAP1 PUSH0 MSTORE PUSH1 0x20 PUSH0 KECCAK256 SWAP1 JUMPDEST DUP2 SLOAD DUP2 MSTORE SWAP1 PUSH1 0x1 ADD SWAP1 PUSH1 0x20 ADD DUP1 DUP4 GT PUSH2 0xE2A JUMPI DUP3 SWAP1 SUB PUSH1 0x1F AND DUP3 ADD SWAP2 JUMPDEST POP POP POP POP POP SWAP1 DUP1 PUSH1 0x8 ADD DUP1 SLOAD PUSH2 0xE5C SWAP1 PUSH2 0x1765 JUMP JUMPDEST DUP1 PUSH1 0x1F ADD PUSH1 0x20 DUP1 SWAP2 DIV MUL PUSH1 0x20 ADD PUSH1 0x40 MLOAD SWAP1 DUP2 ADD PUSH1 0x40 MSTORE DUP1 SWAP3 SWAP2 SWAP1 DUP2 DUP2 MSTORE PUSH1 0x20 ADD DUP3 DUP1 SLOAD PUSH2 0xE88 SWAP1 PUSH2 0x1765 JUMP JUMPDEST DUP1 ISZERO PUSH2 0xED3 JUMPI DUP1 PUSH1 0x1F LT PUSH2 0xEAA JUMPI PUSH2 0x100 DUP1 DUP4 SLOAD DIV MUL DUP4 MSTORE SWAP2 PUSH1 0x20 ADD SWAP2 PUSH2 0xED3 JUMP JUMPDEST DUP3 ADD SWAP2 SWAP1 PUSH0 MSTORE PUSH1 0x20 PUSH0 KECCAK256 SWAP1 JUMPDEST DUP2 SLOAD DUP2 MSTORE SWAP1 PUSH1 0x1 ADD SWAP1 PUSH1 0x20 ADD DUP1 DUP4 GT PUSH2 0xEB6 JUMPI DUP3 SWAP1 SUB PUSH1 0x1F AND DUP3 ADD SWAP2 JUMPDEST POP POP POP POP POP SWAP1 POP DUP10 JUMP JUMPDEST PUSH1 0x40 MLOAD DUP1 PUSH2 0x120 ADD PUSH1 0x40 MSTORE DUP1 PUSH0 DUP2 MSTORE PUSH1 0x20 ADD PUSH0 DUP2 MSTORE PUSH1 0x20 ADD PUSH0 DUP2 MSTORE PUSH1 0x20 ADD PUSH0 DUP2 MSTORE PUSH1 0x20 ADD PUSH1 0x60 DUP2 MSTORE PUSH1 0x20 ADD PUSH1 0x60 DUP2 MSTORE PUSH1 0x20 ADD PUSH1 0x60 DUP2 MSTORE PUSH1 0x20 ADD PUSH1 0x60 DUP2 MSTORE PUSH1 0x20 ADD PUSH1 0x60 DUP2 MSTORE POP SWAP1 JUMP JUMPDEST PUSH1 0x40 MLOAD DUP1 PUSH1 0xC0 ADD PUSH1 0x40 MSTORE DUP1 PUSH1 0x60 DUP2 MSTORE PUSH1 0x20 ADD PUSH0 ISZERO ISZERO DUP2 MSTORE PUSH1 0x20 ADD PUSH0 DUP2 MSTORE PUSH1 0x20 ADD PUSH1 0x60 DUP2 MSTORE PUSH1 0x20 ADD PUSH1 0x60 DUP2 MSTORE PUSH1 0x20 ADD PUSH0 DUP2 MSTORE POP SWAP1 JUMP JUMPDEST PUSH0 PUSH1 0x40 MLOAD SWAP1 POP SWAP1 JUMP JUMPDEST PUSH0 DUP1 REVERT JUMPDEST PUSH0 DUP1 REVERT JUMPDEST PUSH0 DUP2 SWAP1 POP SWAP2 SWAP1 POP JUMP JUMPDEST PUSH2 0xF7D DUP2 PUSH2 0xF6B JUMP JUMPDEST DUP2 EQ PUSH2 0xF87 JUMPI PUSH0 DUP1 REVERT JUMPDEST POP JUMP JUMPDEST PUSH0 DUP2 CALLDATALOAD SWAP1 POP PUSH2 0xF98 DUP2 PUSH2 0xF74 JUMP JUMPDEST SWAP3 SWAP2 POP POP JUMP JUMPDEST PUSH0 PUSH1 0x20 DUP3 DUP5 SUB SLT ISZERO PUSH2 0xFB3 JUMPI PUSH2 0xFB2 PUSH2 0xF63 JUMP JUMPDEST JUMPDEST PUSH0 PUSH2 0xFC0 DUP5 DUP3 DUP6 ADD PUSH2 0xF8A JUMP JUMPDEST SWAP2 POP POP SWAP3 SWAP2 POP POP JUMP JUMPDEST PUSH0 DUP2 MLOAD SWAP1 POP SWAP2 SWAP1 POP JUMP JUMPDEST PUSH0 DUP3 DUP3 MSTORE PUSH1 0x20 DUP3 ADD SWAP1 POP SWAP3 SWAP2 POP POP JUMP JUMPDEST DUP3 DUP2 DUP4 MCOPY PUSH0 DUP4 DUP4 ADD MSTORE POP POP POP JUMP JUMPDEST PUSH0 PUSH1 0x1F NOT PUSH1 0x1F DUP4 ADD AND SWAP1 POP SWAP2 SWAP1 POP JUMP JUMPDEST PUSH0 PUSH2 0x100B DUP3 PUSH2 0xFC9 JUMP JUMPDEST PUSH2 0x1015 DUP2 DUP6 PUSH2 0xFD3 JUMP JUMPDEST SWAP4 POP PUSH2 0x1025 DUP2 DUP6 PUSH1 0x20 DUP7 ADD PUSH2 0xFE3 JUMP JUMPDEST PUSH2 0x102E DUP2 PUSH2 0xFF1 JUMP JUMPDEST DUP5 ADD SWAP2 POP POP SWAP3 SWAP2 POP POP JUMP JUMPDEST PUSH0 DUP2 ISZERO ISZERO SWAP1 POP SWAP2 SWAP1 POP JUMP JUMPDEST PUSH2 0x104D DUP2 PUSH2 0x1039 JUMP JUMPDEST DUP3 MSTORE POP POP JUMP JUMPDEST PUSH2 0x105C DUP2 PUSH2 0xF6B JUMP JUMPDEST DUP3 MSTORE POP POP JUMP JUMPDEST PUSH0 PUSH1 0xC0 DUP3 ADD SWAP1 POP DUP2 DUP2 SUB PUSH0 DUP4 ADD MSTORE PUSH2 0x107A DUP2 DUP10 PUSH2 0x1001 JUMP JUMPDEST SWAP1 POP PUSH2 0x1089 PUSH1 0x20 DUP4 ADD DUP9 PUSH2 0x1044 JUMP JUMPDEST PUSH2 0x1096 PUSH1 0x40 DUP4 ADD DUP8 PUSH2 0x1053 JUMP JUMPDEST DUP2 DUP2 SUB PUSH1 0x60 DUP4 ADD MSTORE PUSH2 0x10A8 DUP2 DUP7 PUSH2 0x1001 JUMP JUMPDEST SWAP1 POP DUP2 DUP2 SUB PUSH1 0x80 DUP4 ADD MSTORE PUSH2 0x10BC DUP2 DUP6 PUSH2 0x1001 JUMP JUMPDEST SWAP1 POP PUSH2 0x10CB PUSH1 0xA0 DUP4 ADD DUP5 PUSH2 0x1053 JUMP JUMPDEST SWAP8 SWAP7 POP POP POP POP POP POP POP JUMP JUMPDEST PUSH0 DUP1 REVERT JUMPDEST PUSH0 DUP1 REVERT JUMPDEST PUSH32 0x4E487B7100000000000000000000000000000000000000000000000000000000 PUSH0 MSTORE PUSH1 0x41 PUSH1 0x4 MSTORE PUSH1 0x24 PUSH0 REVERT JUMPDEST PUSH2 0x1114 DUP3 PUSH2 0xFF1 JUMP JUMPDEST DUP2 ADD DUP2 DUP2 LT PUSH8 0xFFFFFFFFFFFFFFFF DUP3 GT OR ISZERO PUSH2 0x1133 JUMPI PUSH2 0x1132 PUSH2 0x10DE JUMP JUMPDEST JUMPDEST DUP1 PUSH1 0x40 MSTORE POP POP POP JUMP JUMPDEST PUSH0 PUSH2 0x1145 PUSH2 0xF5A JUMP JUMPDEST SWAP1 POP PUSH2 0x1151 DUP3 DUP3 PUSH2 0x110B JUMP JUMPDEST SWAP2 SWAP1 POP JUMP JUMPDEST PUSH0 PUSH8 0xFFFFFFFFFFFFFFFF DUP3 GT ISZERO PUSH2 0x1170 JUMPI PUSH2 0x116F PUSH2 0x10DE JUMP JUMPDEST JUMPDEST PUSH2 0x1179 DUP3 PUSH2 0xFF1 JUMP JUMPDEST SWAP1 POP PUSH1 0x20 DUP2 ADD SWAP1 POP SWAP2 SWAP1 POP JUMP JUMPDEST DUP3 DUP2 DUP4 CALLDATACOPY PUSH0 DUP4 DUP4 ADD MSTORE POP POP POP JUMP JUMPDEST PUSH0 PUSH2 0x11A6 PUSH2 0x11A1 DUP5 PUSH2 0x1156 JUMP JUMPDEST PUSH2 0x113C JUMP JUMPDEST SWAP1 POP DUP3 DUP2 MSTORE PUSH1 0x20 DUP2 ADD DUP5 DUP5 DUP5 ADD GT ISZERO PUSH2 0x11C2 JUMPI PUSH2 0x11C1 PUSH2 0x10DA JUMP JUMPDEST JUMPDEST PUSH2 0x11CD DUP5 DUP3 DUP6 PUSH2 0x1186 JUMP JUMPDEST POP SWAP4 SWAP3 POP POP POP JUMP JUMPDEST PUSH0 DUP3 PUSH1 0x1F DUP4 ADD SLT PUSH2 0x11E9 JUMPI PUSH2 0x11E8 PUSH2 0x10D6 JUMP JUMPDEST JUMPDEST DUP2 CALLDATALOAD PUSH2 0x11F9 DUP5 DUP3 PUSH1 0x20 DUP7 ADD PUSH2 0x1194 JUMP JUMPDEST SWAP2 POP POP SWAP3 SWAP2 POP POP JUMP JUMPDEST PUSH0 DUP1 PUSH0 DUP1 PUSH0 DUP1 PUSH0 DUP1 PUSH0 PUSH2 0x120 DUP11 DUP13 SUB SLT ISZERO PUSH2 0x1220 JUMPI PUSH2 0x121F PUSH2 0xF63 JUMP JUMPDEST JUMPDEST PUSH0 PUSH2 0x122D DUP13 DUP3 DUP14 ADD PUSH2 0xF8A JUMP JUMPDEST SWAP10 POP POP PUSH1 0x20 PUSH2 0x123E DUP13 DUP3 DUP14 ADD PUSH2 0xF8A JUMP JUMPDEST SWAP9 POP POP PUSH1 0x40 PUSH2 0x124F DUP13 DUP3 DUP14 ADD PUSH2 0xF8A JUMP JUMPDEST SWAP8 POP POP PUSH1 0x60 PUSH2 0x1260 DUP13 DUP3 DUP14 ADD PUSH2 0xF8A JUMP JUMPDEST SWAP7 POP POP PUSH1 0x80 DUP11 ADD CALLDATALOAD PUSH8 0xFFFFFFFFFFFFFFFF DUP2 GT ISZERO PUSH2 0x1281 JUMPI PUSH2 0x1280 PUSH2 0xF67 JUMP JUMPDEST JUMPDEST PUSH2 0x128D DUP13 DUP3 DUP14 ADD PUSH2 0x11D5 JUMP JUMPDEST SWAP6 POP POP PUSH1 0xA0 DUP11 ADD CALLDATALOAD PUSH8 0xFFFFFFFFFFFFFFFF DUP2 GT ISZERO PUSH2 0x12AE JUMPI PUSH2 0x12AD PUSH2 0xF67 JUMP JUMPDEST JUMPDEST PUSH2 0x12BA DUP13 DUP3 DUP14 ADD PUSH2 0x11D5 JUMP JUMPDEST SWAP5 POP POP PUSH1 0xC0 DUP11 ADD CALLDATALOAD PUSH8 0xFFFFFFFFFFFFFFFF DUP2 GT ISZERO PUSH2 0x12DB JUMPI PUSH2 0x12DA PUSH2 0xF67 JUMP JUMPDEST JUMPDEST PUSH2 0x12E7 DUP13 DUP3 DUP14 ADD PUSH2 0x11D5 JUMP JUMPDEST SWAP4 POP POP PUSH1 0xE0 DUP11 ADD CALLDATALOAD PUSH8 0xFFFFFFFFFFFFFFFF DUP2 GT ISZERO PUSH2 0x1308 JUMPI PUSH2 0x1307 PUSH2 0xF67 JUMP JUMPDEST JUMPDEST PUSH2 0x1314 DUP13 DUP3 DUP14 ADD PUSH2 0x11D5 JUMP JUMPDEST SWAP3 POP POP PUSH2 0x100 DUP11 ADD CALLDATALOAD PUSH8 0xFFFFFFFFFFFFFFFF DUP2 GT ISZERO PUSH2 0x1336 JUMPI PUSH2 0x1335 PUSH2 0xF67 JUMP JUMPDEST JUMPDEST PUSH2 0x1342 DUP13 DUP3 DUP14 ADD PUSH2 0x11D5 JUMP JUMPDEST SWAP2 POP POP SWAP3 SWAP6 SWAP9 POP SWAP3 SWAP6 SWAP9 POP SWAP3 SWAP6 SWAP9 JUMP JUMPDEST PUSH2 0x135B DUP2 PUSH2 0x1039 JUMP JUMPDEST DUP2 EQ PUSH2 0x1365 JUMPI PUSH0 DUP1 REVERT JUMPDEST POP JUMP JUMPDEST PUSH0 DUP2 CALLDATALOAD SWAP1 POP PUSH2 0x1376 DUP2 PUSH2 0x1352 JUMP JUMPDEST SWAP3 SWAP2 POP POP JUMP JUMPDEST PUSH0 DUP1 PUSH0 DUP1 PUSH0 DUP1 PUSH1 0xC0 DUP8 DUP10 SUB SLT ISZERO PUSH2 0x1396 JUMPI PUSH2 0x1395 PUSH2 0xF63 JUMP JUMPDEST JUMPDEST PUSH0 DUP8 ADD CALLDATALOAD PUSH8 0xFFFFFFFFFFFFFFFF DUP2 GT ISZERO PUSH2 0x13B3 JUMPI PUSH2 0x13B2 PUSH2 0xF67 JUMP JUMPDEST JUMPDEST PUSH2 0x13BF DUP10 DUP3 DUP11 ADD PUSH2 0x11D5 JUMP JUMPDEST SWAP7 POP POP PUSH1 0x20 PUSH2 0x13D0 DUP10 DUP3 DUP11 ADD PUSH2 0x1368 JUMP JUMPDEST SWAP6 POP POP PUSH1 0x40 PUSH2 0x13E1 DUP10 DUP3 DUP11 ADD PUSH2 0xF8A JUMP JUMPDEST SWAP5 POP POP PUSH1 0x60 DUP8 ADD CALLDATALOAD PUSH8 0xFFFFFFFFFFFFFFFF DUP2 GT ISZERO PUSH2 0x1402 JUMPI PUSH2 0x1401 PUSH2 0xF67 JUMP JUMPDEST JUMPDEST PUSH2 0x140E DUP10 DUP3 DUP11 ADD PUSH2 0x11D5 JUMP JUMPDEST SWAP4 POP POP PUSH1 0x80 DUP8 ADD CALLDATALOAD PUSH8 0xFFFFFFFFFFFFFFFF DUP2 GT ISZERO PUSH2 0x142F JUMPI PUSH2 0x142E PUSH2 0xF67 JUMP JUMPDEST JUMPDEST PUSH2 0x143B DUP10 DUP3 DUP11 ADD PUSH2 0x11D5 JUMP JUMPDEST SWAP3 POP POP PUSH1 0xA0 PUSH2 0x144C DUP10 DUP3 DUP11 ADD PUSH2 0xF8A JUMP JUMPDEST SWAP2 POP POP SWAP3 SWAP6 POP SWAP3 SWAP6 POP SWAP3 SWAP6 JUMP JUMPDEST PUSH0 PUSH1 0x20 DUP3 ADD SWAP1 POP PUSH2 0x146C PUSH0 DUP4 ADD DUP5 PUSH2 0x1053 JUMP JUMPDEST SWAP3 SWAP2 POP POP JUMP JUMPDEST PUSH2 0x147B DUP2 PUSH2 0xF6B JUMP JUMPDEST DUP3 MSTORE POP POP JUMP JUMPDEST PUSH0 DUP3 DUP3 MSTORE PUSH1 0x20 DUP3 ADD SWAP1 POP SWAP3 SWAP2 POP POP JUMP JUMPDEST PUSH0 PUSH2 0x149B DUP3 PUSH2 0xFC9 JUMP JUMPDEST PUSH2 0x14A5 DUP2 DUP6 PUSH2 0x1481 JUMP JUMPDEST SWAP4 POP PUSH2 0x14B5 DUP2 DUP6 PUSH1 0x20 DUP7 ADD PUSH2 0xFE3 JUMP JUMPDEST PUSH2 0x14BE DUP2 PUSH2 0xFF1 JUMP JUMPDEST DUP5 ADD SWAP2 POP POP SWAP3 SWAP2 POP POP JUMP JUMPDEST PUSH0 PUSH2 0x120 DUP4 ADD PUSH0 DUP4 ADD MLOAD PUSH2 0x14DF PUSH0 DUP7 ADD DUP3 PUSH2 0x1472 JUMP JUMPDEST POP PUSH1 0x20 DUP4 ADD MLOAD PUSH2 0x14F2 PUSH1 0x20 DUP7 ADD DUP3 PUSH2 0x1472 JUMP JUMPDEST POP PUSH1 0x40 DUP4 ADD MLOAD PUSH2 0x1505 PUSH1 0x40 DUP7 ADD DUP3 PUSH2 0x1472 JUMP JUMPDEST POP PUSH1 0x60 DUP4 ADD MLOAD PUSH2 0x1518 PUSH1 0x60 DUP7 ADD DUP3 PUSH2 0x1472 JUMP JUMPDEST POP PUSH1 0x80 DUP4 ADD MLOAD DUP5 DUP3 SUB PUSH1 0x80 DUP7 ADD MSTORE PUSH2 0x1530 DUP3 DUP3 PUSH2 0x1491 JUMP JUMPDEST SWAP2 POP POP PUSH1 0xA0 DUP4 ADD MLOAD DUP5 DUP3 SUB PUSH1 0xA0 DUP7 ADD MSTORE PUSH2 0x154A DUP3 DUP3 PUSH2 0x1491 JUMP JUMPDEST SWAP2 POP POP PUSH1 0xC0 DUP4 ADD MLOAD DUP5 DUP3 SUB PUSH1 0xC0 DUP7 ADD MSTORE PUSH2 0x1564 DUP3 DUP3 PUSH2 0x1491 JUMP JUMPDEST SWAP2 POP POP PUSH1 0xE0 DUP4 ADD MLOAD DUP5 DUP3 SUB PUSH1 0xE0 DUP7 ADD MSTORE PUSH2 0x157E DUP3 DUP3 PUSH2 0x1491 JUMP JUMPDEST SWAP2 POP POP PUSH2 0x100 DUP4 ADD MLOAD DUP5 DUP3 SUB PUSH2 0x100 DUP7 ADD MSTORE PUSH2 0x159A DUP3 DUP3 PUSH2 0x1491 JUMP JUMPDEST SWAP2 POP POP DUP1 SWAP2 POP POP SWAP3 SWAP2 POP POP JUMP JUMPDEST PUSH0 PUSH1 0x20 DUP3 ADD SWAP1 POP DUP2 DUP2 SUB PUSH0 DUP4 ADD MSTORE PUSH2 0x15BF DUP2 DUP5 PUSH2 0x14C9 JUMP JUMPDEST SWAP1 POP SWAP3 SWAP2 POP POP JUMP JUMPDEST PUSH2 0x15D0 DUP2 PUSH2 0x1039 JUMP JUMPDEST DUP3 MSTORE POP POP JUMP JUMPDEST PUSH0 PUSH1 0xC0 DUP4 ADD PUSH0 DUP4 ADD MLOAD DUP5 DUP3 SUB PUSH0 DUP7 ADD MSTORE PUSH2 0x15F0 DUP3 DUP3 PUSH2 0x1491 JUMP JUMPDEST SWAP2 POP POP PUSH1 0x20 DUP4 ADD MLOAD PUSH2 0x1605 PUSH1 0x20 DUP7 ADD DUP3 PUSH2 0x15C7 JUMP JUMPDEST POP PUSH1 0x40 DUP4 ADD MLOAD PUSH2 0x1618 PUSH1 0x40 DUP7 ADD DUP3 PUSH2 0x1472 JUMP JUMPDEST POP PUSH1 0x60 DUP4 ADD MLOAD DUP5 DUP3 SUB PUSH1 0x60 DUP7 ADD MSTORE PUSH2 0x1630 DUP3 DUP3 PUSH2 0x1491 JUMP JUMPDEST SWAP2 POP POP PUSH1 0x80 DUP4 ADD MLOAD DUP5 DUP3 SUB PUSH1 0x80 DUP7 ADD MSTORE PUSH2 0x164A DUP3 DUP3 PUSH2 0x1491 JUMP JUMPDEST SWAP2 POP POP PUSH1 0xA0 DUP4 ADD MLOAD PUSH2 0x165F PUSH1 0xA0 DUP7 ADD DUP3 PUSH2 0x1472 JUMP JUMPDEST POP DUP1 SWAP2 POP POP SWAP3 SWAP2 POP POP JUMP JUMPDEST PUSH0 PUSH1 0x20 DUP3 ADD SWAP1 POP DUP2 DUP2 SUB PUSH0 DUP4 ADD MSTORE PUSH2 0x1682 DUP2 DUP5 PUSH2 0x15D6 JUMP JUMPDEST SWAP1 POP SWAP3 SWAP2 POP POP JUMP JUMPDEST PUSH0 PUSH2 0x120 DUP3 ADD SWAP1 POP PUSH2 0x169E PUSH0 DUP4 ADD DUP13 PUSH2 0x1053 JUMP JUMPDEST PUSH2 0x16AB PUSH1 0x20 DUP4 ADD DUP12 PUSH2 0x1053 JUMP JUMPDEST PUSH2 0x16B8 PUSH1 0x40 DUP4 ADD DUP11 PUSH2 0x1053 JUMP JUMPDEST PUSH2 0x16C5 PUSH1 0x60 DUP4 ADD DUP10 PUSH2 0x1053 JUMP JUMPDEST DUP2 DUP2 SUB PUSH1 0x80 DUP4 ADD MSTORE PUSH2 0x16D7 DUP2 DUP9 PUSH2 0x1001 JUMP JUMPDEST SWAP1 POP DUP2 DUP2 SUB PUSH1 0xA0 DUP4 ADD MSTORE PUSH2 0x16EB DUP2 DUP8 PUSH2 0x1001 JUMP JUMPDEST SWAP1 POP DUP2 DUP2 SUB PUSH1 0xC0 DUP4 ADD MSTORE PUSH2 0x16FF DUP2 DUP7 PUSH2 0x1001 JUMP JUMPDEST SWAP1 POP DUP2 DUP2 SUB PUSH1 0xE0 DUP4 ADD MSTORE PUSH2 0x1713 DUP2 DUP6 PUSH2 0x1001 JUMP JUMPDEST SWAP1 POP DUP2 DUP2 SUB PUSH2 0x100 DUP4 ADD MSTORE PUSH2 0x1728 DUP2 DUP5 PUSH2 0x1001 JUMP JUMPDEST SWAP1 POP SWAP11 SWAP10 POP POP POP POP POP POP POP POP POP POP JUMP JUMPDEST PUSH32 0x4E487B7100000000000000000000000000000000000000000000000000000000 PUSH0 MSTORE PUSH1 0x22 PUSH1 0x4 MSTORE PUSH1 0x24 PUSH0 REVERT JUMPDEST PUSH0 PUSH1 0x2 DUP3 DIV SWAP1 POP PUSH1 0x1 DUP3 AND DUP1 PUSH2 0x177C JUMPI PUSH1 0x7F DUP3 AND SWAP2 POP JUMPDEST PUSH1 0x20 DUP3 LT DUP2 SUB PUSH2 0x178F JUMPI PUSH2 0x178E PUSH2 0x1738 JUMP JUMPDEST JUMPDEST POP SWAP2 SWAP1 POP JUMP JUMPDEST PUSH32 0x494420616C7265616479206578697374732E0000000000000000000000000000 PUSH0 DUP3 ADD MSTORE POP JUMP JUMPDEST PUSH0 PUSH2 0x17C9 PUSH1 0x12 DUP4 PUSH2 0xFD3 JUMP JUMPDEST SWAP2 POP PUSH2 0x17D4 DUP3 PUSH2 0x1795 JUMP JUMPDEST PUSH1 0x20 DUP3 ADD SWAP1 POP SWAP2 SWAP1 POP JUMP JUMPDEST PUSH0 PUSH1 0x20 DUP3 ADD SWAP1 POP DUP2 DUP2 SUB PUSH0 DUP4 ADD MSTORE PUSH2 0x17F6 DUP2 PUSH2 0x17BD JUMP JUMPDEST SWAP1 POP SWAP2 SWAP1 POP JUMP JUMPDEST PUSH0 DUP2 SWAP1 POP DUP2 PUSH0 MSTORE PUSH1 0x20 PUSH0 KECCAK256 SWAP1 POP SWAP2 SWAP1 POP JUMP JUMPDEST PUSH0 PUSH1 0x20 PUSH1 0x1F DUP4 ADD DIV SWAP1 POP SWAP2 SWAP1 POP JUMP JUMPDEST PUSH0 DUP3 DUP3 SHL SWAP1 POP SWAP3 SWAP2 POP POP JUMP JUMPDEST PUSH0 PUSH1 0x8 DUP4 MUL PUSH2 0x1859 PUSH32 0xFFFFFFFFFFFFFFFFFFFFFFFFFFFFFFFFFFFFFFFFFFFFFFFFFFFFFFFFFFFFFFFF DUP3 PUSH2 0x181E JUMP JUMPDEST PUSH2 0x1863 DUP7 DUP4 PUSH2 0x181E JUMP JUMPDEST SWAP6 POP DUP1 NOT DUP5 AND SWAP4 POP DUP1 DUP7 AND DUP5 OR SWAP3 POP POP POP SWAP4 SWAP3 POP POP POP JUMP JUMPDEST PUSH0 DUP2 SWAP1 POP SWAP2 SWAP1 POP JUMP JUMPDEST PUSH0 PUSH2 0x189E PUSH2 0x1899 PUSH2 0x1894 DUP5 PUSH2 0xF6B JUMP JUMPDEST PUSH2 0x187B JUMP JUMPDEST PUSH2 0xF6B JUMP JUMPDEST SWAP1 POP SWAP2 SWAP1 POP JUMP JUMPDEST PUSH0 DUP2 SWAP1 POP SWAP2 SWAP1 POP JUMP JUMPDEST PUSH2 0x18B7 DUP4 PUSH2 0x1884 JUMP JUMPDEST PUSH2 0x18CB PUSH2 0x18C3 DUP3 PUSH2 0x18A5 JUMP JUMPDEST DUP5 DUP5 SLOAD PUSH2 0x182A JUMP JUMPDEST DUP3 SSTORE POP POP POP POP JUMP JUMPDEST PUSH0 SWAP1 JUMP JUMPDEST PUSH2 0x18DF PUSH2 0x18D3 JUMP JUMPDEST PUSH2 0x18EA DUP2 DUP5 DUP5 PUSH2 0x18AE JUMP JUMPDEST POP POP POP JUMP JUMPDEST JUMPDEST DUP2 DUP2 LT ISZERO PUSH2 0x190D JUMPI PUSH2 0x1902 PUSH0 DUP3 PUSH2 0x18D7 JUMP JUMPDEST PUSH1 0x1 DUP2 ADD SWAP1 POP PUSH2 0x18F0 JUMP JUMPDEST POP POP JUMP JUMPDEST PUSH1 0x1F DUP3 GT ISZERO PUSH2 0x1952 JUMPI PUSH2 0x1923 DUP2 PUSH2 0x17FD JUMP JUMPDEST PUSH2 0x192C DUP5 PUSH2 0x180F JUMP JUMPDEST DUP2 ADD PUSH1 0x20 DUP6 LT ISZERO PUSH2 0x193B JUMPI DUP2 SWAP1 POP JUMPDEST PUSH2 0x194F PUSH2 0x1947 DUP6 PUSH2 0x180F JUMP JUMPDEST DUP4 ADD DUP3 PUSH2 0x18EF JUMP JUMPDEST POP POP JUMPDEST POP POP POP JUMP JUMPDEST PUSH0 DUP3 DUP3 SHR SWAP1 POP SWAP3 SWAP2 POP POP JUMP JUMPDEST PUSH0 PUSH2 0x1972 PUSH0 NOT DUP5 PUSH1 0x8 MUL PUSH2 0x1957 JUMP JUMPDEST NOT DUP1 DUP4 AND SWAP2 POP POP SWAP3 SWAP2 POP POP JUMP JUMPDEST PUSH0 PUSH2 0x198A DUP4 DUP4 PUSH2 0x1963 JUMP JUMPDEST SWAP2 POP DUP3 PUSH1 0x2 MUL DUP3 OR SWAP1 POP SWAP3 SWAP2 POP POP JUMP JUMPDEST PUSH2 0x19A3 DUP3 PUSH2 0xFC9 JUMP JUMPDEST PUSH8 0xFFFFFFFFFFFFFFFF DUP2 GT ISZERO PUSH2 0x19BC JUMPI PUSH2 0x19BB PUSH2 0x10DE JUMP JUMPDEST JUMPDEST PUSH2 0x19C6 DUP3 SLOAD PUSH2 0x1765 JUMP JUMPDEST PUSH2 0x19D1 DUP3 DUP3 DUP6 PUSH2 0x1911 JUMP JUMPDEST PUSH0 PUSH1 0x20 SWAP1 POP PUSH1 0x1F DUP4 GT PUSH1 0x1 DUP2 EQ PUSH2 0x1A02 JUMPI PUSH0 DUP5 ISZERO PUSH2 0x19F0 JUMPI DUP3 DUP8 ADD MLOAD SWAP1 POP JUMPDEST PUSH2 0x19FA DUP6 DUP3 PUSH2 0x197F JUMP JUMPDEST DUP7 SSTORE POP PUSH2 0x1A61 JUMP JUMPDEST PUSH1 0x1F NOT DUP5 AND PUSH2 0x1A10 DUP7 PUSH2 0x17FD JUMP JUMPDEST PUSH0 JUMPDEST DUP3 DUP2 LT ISZERO PUSH2 0x1A37 JUMPI DUP5 DUP10 ADD MLOAD DUP3 SSTORE PUSH1 0x1 DUP3 ADD SWAP2 POP PUSH1 0x20 DUP6 ADD SWAP5 POP PUSH1 0x20 DUP2 ADD SWAP1 POP PUSH2 0x1A12 JUMP JUMPDEST DUP7 DUP4 LT ISZERO PUSH2 0x1A54 JUMPI DUP5 DUP10 ADD MLOAD PUSH2 0x1A50 PUSH1 0x1F DUP10 AND DUP3 PUSH2 0x1963 JUMP JUMPDEST DUP4 SSTORE POP JUMPDEST PUSH1 0x1 PUSH1 0x2 DUP9 MUL ADD DUP9 SSTORE POP POP POP JUMPDEST POP POP POP POP POP POP JUMP JUMPDEST PUSH32 0x4E487B7100000000000000000000000000000000000000000000000000000000 PUSH0 MSTORE PUSH1 0x11 PUSH1 0x4 MSTORE PUSH1 0x24 PUSH0 REVERT JUMPDEST PUSH0 PUSH2 0x1AA0 DUP3 PUSH2 0xF6B JUMP JUMPDEST SWAP2 POP PUSH2 0x1AAB DUP4 PUSH2 0xF6B JUMP JUMPDEST SWAP3 POP DUP3 DUP3 SUB SWAP1 POP DUP2 DUP2 GT ISZERO PUSH2 0x1AC3 JUMPI PUSH2 0x1AC2 PUSH2 0x1A69 JUMP JUMPDEST JUMPDEST SWAP3 SWAP2 POP POP JUMP JUMPDEST PUSH0 PUSH1 0xE0 DUP3 ADD SWAP1 POP PUSH2 0x1ADC PUSH0 DUP4 ADD DUP11 PUSH2 0x1053 JUMP JUMPDEST DUP2 DUP2 SUB PUSH1 0x20 DUP4 ADD MSTORE PUSH2 0x1AEE DUP2 DUP10 PUSH2 0x1001 JUMP JUMPDEST SWAP1 POP PUSH2 0x1AFD PUSH1 0x40 DUP4 ADD DUP9 PUSH2 0x1044 JUMP JUMPDEST PUSH2 0x1B0A PUSH1 0x60 DUP4 ADD DUP8 PUSH2 0x1053 JUMP JUMPDEST DUP2 DUP2 SUB PUSH1 0x80 DUP4 ADD MSTORE PUSH2 0x1B1C DUP2 DUP7 PUSH2 0x1001 JUMP JUMPDEST SWAP1 POP DUP2 DUP2 SUB PUSH1 0xA0 DUP4 ADD MSTORE PUSH2 0x1B30 DUP2 DUP6 PUSH2 0x1001 JUMP JUMPDEST SWAP1 POP PUSH2 0x1B3F PUSH1 0xC0 DUP4 ADD DUP5 PUSH2 0x1053 JUMP JUMPDEST SWAP9 SWAP8 POP POP POP POP POP POP POP POP JUMP JUMPDEST PUSH32 0x45786572636973654461746120646F6573206E6F742065786973742E00000000 PUSH0 DUP3 ADD MSTORE POP JUMP JUMPDEST PUSH0 PUSH2 0x1B7F PUSH1 0x1C DUP4 PUSH2 0xFD3 JUMP JUMPDEST SWAP2 POP PUSH2 0x1B8A DUP3 PUSH2 0x1B4B JUMP JUMPDEST PUSH1 0x20 DUP3 ADD SWAP1 POP SWAP2 SWAP1 POP JUMP JUMPDEST PUSH0 PUSH1 0x20 DUP3 ADD SWAP1 POP DUP2 DUP2 SUB PUSH0 DUP4 ADD MSTORE PUSH2 0x1BAC DUP2 PUSH2 0x1B73 JUMP JUMPDEST SWAP1 POP SWAP2 SWAP1 POP JUMP JUMPDEST PUSH32 0x5265636569707420646F6573206E6F742065786973742E000000000000000000 PUSH0 DUP3 ADD MSTORE POP JUMP JUMPDEST PUSH0 PUSH2 0x1BE7 PUSH1 0x17 DUP4 PUSH2 0xFD3 JUMP JUMPDEST SWAP2 POP PUSH2 0x1BF2 DUP3 PUSH2 0x1BB3 JUMP JUMPDEST PUSH1 0x20 DUP3 ADD SWAP1 POP SWAP2 SWAP1 POP JUMP JUMPDEST PUSH0 PUSH1 0x20 DUP3 ADD SWAP1 POP DUP2 DUP2 SUB PUSH0 DUP4 ADD MSTORE PUSH2 0x1C14 DUP2 PUSH2 0x1BDB JUMP JUMPDEST SWAP1 POP SWAP2 SWAP1 POP JUMP JUMPDEST PUSH32 0x4E487B7100000000000000000000000000000000000000000000000000000000 PUSH0 MSTORE PUSH1 0x32 PUSH1 0x4 MSTORE PUSH1 0x24 PUSH0 REVERT INVALID LOG2 PUSH5 0x6970667358 0x22 SLT KECCAK256 0xB0 AND SWAP2 DELEGATECALL BLOCKHASH SMOD 0xD5 MOD EXTCODESIZE COINBASE MSTORE DUP12 ADDMOD LOG4 EXTCODESIZE POP 0x2C 0x2C CALLVALUE 0x24 SWAP8 SWAP10 BLOBHASH PUSH29 0xF4F556E930CD043364736F6C6343000819003300000000000000000000 "
	},
	"abi": [
		{
			"inputs": [
				{
					"internalType": "uint256",
					"name": "id",
					"type": "uint256"
				},
				{
					"internalType": "uint256",
					"name": "memberId",
					"type": "uint256"
				},
				{
					"internalType": "uint256",
					"name": "steps",
					"type": "uint256"
				},
				{
					"internalType": "uint256",
					"name": "exerciseMinute",
					"type": "uint256"
				},
				{
					"internalType": "string",
					"name": "exerciseDistance",
					"type": "string"
				},
				{
					"internalType": "string",
					"name": "exerciseDay",
					"type": "string"
				},
				{
					"internalType": "string",
					"name": "exerciseStart",
					"type": "string"
				},
				{
					"internalType": "string",
					"name": "exerciseEnd",
					"type": "string"
				},
				{
					"internalType": "string",
					"name": "calorie",
					"type": "string"
				}
			],
			"name": "addExerciseData",
			"outputs": [],
			"stateMutability": "nonpayable",
			"type": "function"
		},
		{
			"inputs": [
				{
					"internalType": "string",
					"name": "walletType",
					"type": "string"
				},
				{
					"internalType": "bool",
					"name": "operator",
					"type": "bool"
				},
				{
					"internalType": "uint256",
					"name": "price",
					"type": "uint256"
				},
				{
					"internalType": "string",
					"name": "description",
					"type": "string"
				},
				{
					"internalType": "string",
					"name": "createdAt",
					"type": "string"
				},
				{
					"internalType": "uint256",
					"name": "memberId",
					"type": "uint256"
				}
			],
			"name": "addReceipt",
			"outputs": [
				{
					"internalType": "uint256",
					"name": "",
					"type": "uint256"
				}
			],
			"stateMutability": "nonpayable",
			"type": "function"
		},
		{
			"anonymous": false,
			"inputs": [
				{
					"indexed": false,
					"internalType": "uint256",
					"name": "id",
					"type": "uint256"
				},
				{
					"indexed": false,
					"internalType": "uint256",
					"name": "memberId",
					"type": "uint256"
				},
				{
					"indexed": false,
					"internalType": "uint256",
					"name": "steps",
					"type": "uint256"
				},
				{
					"indexed": false,
					"internalType": "uint256",
					"name": "exerciseMinute",
					"type": "uint256"
				},
				{
					"indexed": false,
					"internalType": "string",
					"name": "exerciseDistance",
					"type": "string"
				},
				{
					"indexed": false,
					"internalType": "string",
					"name": "exerciseDay",
					"type": "string"
				},
				{
					"indexed": false,
					"internalType": "string",
					"name": "exerciseStart",
					"type": "string"
				},
				{
					"indexed": false,
					"internalType": "string",
					"name": "exerciseEnd",
					"type": "string"
				},
				{
					"indexed": false,
					"internalType": "string",
					"name": "calorie",
					"type": "string"
				}
			],
			"name": "ExerciseDataAdded",
			"type": "event"
		},
		{
			"anonymous": false,
			"inputs": [
				{
					"indexed": false,
					"internalType": "uint256",
					"name": "receiptId",
					"type": "uint256"
				},
				{
					"indexed": false,
					"internalType": "string",
					"name": "walletType",
					"type": "string"
				},
				{
					"indexed": false,
					"internalType": "bool",
					"name": "operator",
					"type": "bool"
				},
				{
					"indexed": false,
					"internalType": "uint256",
					"name": "price",
					"type": "uint256"
				},
				{
					"indexed": false,
					"internalType": "string",
					"name": "description",
					"type": "string"
				},
				{
					"indexed": false,
					"internalType": "string",
					"name": "createdAt",
					"type": "string"
				},
				{
					"indexed": false,
					"internalType": "uint256",
					"name": "memberId",
					"type": "uint256"
				}
			],
			"name": "ReceiptAdded",
			"type": "event"
		},
		{
			"inputs": [
				{
					"internalType": "uint256",
					"name": "",
					"type": "uint256"
				}
			],
			"name": "exerciseDatas",
			"outputs": [
				{
					"internalType": "uint256",
					"name": "id",
					"type": "uint256"
				},
				{
					"internalType": "uint256",
					"name": "memberId",
					"type": "uint256"
				},
				{
					"internalType": "uint256",
					"name": "steps",
					"type": "uint256"
				},
				{
					"internalType": "uint256",
					"name": "exerciseMinute",
					"type": "uint256"
				},
				{
					"internalType": "string",
					"name": "exerciseDistance",
					"type": "string"
				},
				{
					"internalType": "string",
					"name": "exerciseDay",
					"type": "string"
				},
				{
					"internalType": "string",
					"name": "exerciseStart",
					"type": "string"
				},
				{
					"internalType": "string",
					"name": "exerciseEnd",
					"type": "string"
				},
				{
					"internalType": "string",
					"name": "calorie",
					"type": "string"
				}
			],
			"stateMutability": "view",
			"type": "function"
		},
		{
			"inputs": [
				{
					"internalType": "uint256",
					"name": "id",
					"type": "uint256"
				}
			],
			"name": "getExerciseData",
			"outputs": [
				{
					"components": [
						{
							"internalType": "uint256",
							"name": "id",
							"type": "uint256"
						},
						{
							"internalType": "uint256",
							"name": "memberId",
							"type": "uint256"
						},
						{
							"internalType": "uint256",
							"name": "steps",
							"type": "uint256"
						},
						{
							"internalType": "uint256",
							"name": "exerciseMinute",
							"type": "uint256"
						},
						{
							"internalType": "string",
							"name": "exerciseDistance",
							"type": "string"
						},
						{
							"internalType": "string",
							"name": "exerciseDay",
							"type": "string"
						},
						{
							"internalType": "string",
							"name": "exerciseStart",
							"type": "string"
						},
						{
							"internalType": "string",
							"name": "exerciseEnd",
							"type": "string"
						},
						{
							"internalType": "string",
							"name": "calorie",
							"type": "string"
						}
					],
					"internalType": "struct WalkWalk.ExerciseData",
					"name": "",
					"type": "tuple"
				}
			],
			"stateMutability": "view",
			"type": "function"
		},
		{
			"inputs": [
				{
					"internalType": "uint256",
					"name": "receiptId",
					"type": "uint256"
				}
			],
			"name": "getReceipt",
			"outputs": [
				{
					"components": [
						{
							"internalType": "string",
							"name": "walletType",
							"type": "string"
						},
						{
							"internalType": "bool",
							"name": "operator",
							"type": "bool"
						},
						{
							"internalType": "uint256",
							"name": "price",
							"type": "uint256"
						},
						{
							"internalType": "string",
							"name": "description",
							"type": "string"
						},
						{
							"internalType": "string",
							"name": "createdAt",
							"type": "string"
						},
						{
							"internalType": "uint256",
							"name": "memberId",
							"type": "uint256"
						}
					],
					"internalType": "struct WalkWalk.Receipt",
					"name": "",
					"type": "tuple"
				}
			],
			"stateMutability": "view",
			"type": "function"
		},
		{
			"inputs": [
				{
					"internalType": "uint256",
					"name": "",
					"type": "uint256"
				}
			],
			"name": "receipts",
			"outputs": [
				{
					"internalType": "string",
					"name": "walletType",
					"type": "string"
				},
				{
					"internalType": "bool",
					"name": "operator",
					"type": "bool"
				},
				{
					"internalType": "uint256",
					"name": "price",
					"type": "uint256"
				},
				{
					"internalType": "string",
					"name": "description",
					"type": "string"
				},
				{
					"internalType": "string",
					"name": "createdAt",
					"type": "string"
				},
				{
					"internalType": "uint256",
					"name": "memberId",
					"type": "uint256"
				}
			],
			"stateMutability": "view",
			"type": "function"
		}
	],
	"storageLayout": {
		"storage": [
			{
				"astId": 38,
				"contract": "contracts/walkwalk.sol:WalkWalk",
				"label": "exerciseDatas",
				"offset": 0,
				"slot": "0",
				"type": "t_mapping(t_uint256,t_struct(ExerciseData)20_storage)"
			},
			{
				"astId": 42,
				"contract": "contracts/walkwalk.sol:WalkWalk",
				"label": "receipts",
				"offset": 0,
				"slot": "1",
				"type": "t_array(t_struct(Receipt)33_storage)dyn_storage"
			}
		],
		"types": {
			"t_array(t_struct(Receipt)33_storage)dyn_storage": {
				"base": "t_struct(Receipt)33_storage",
				"encoding": "dynamic_array",
				"label": "struct WalkWalk.Receipt[]",
				"numberOfBytes": "32"
			},
			"t_bool": {
				"encoding": "inplace",
				"label": "bool",
				"numberOfBytes": "1"
			},
			"t_mapping(t_uint256,t_struct(ExerciseData)20_storage)": {
				"encoding": "mapping",
				"key": "t_uint256",
				"label": "mapping(uint256 => struct WalkWalk.ExerciseData)",
				"numberOfBytes": "32",
				"value": "t_struct(ExerciseData)20_storage"
			},
			"t_string_storage": {
				"encoding": "bytes",
				"label": "string",
				"numberOfBytes": "32"
			},
			"t_struct(ExerciseData)20_storage": {
				"encoding": "inplace",
				"label": "struct WalkWalk.ExerciseData",
				"members": [
					{
						"astId": 3,
						"contract": "contracts/walkwalk.sol:WalkWalk",
						"label": "id",
						"offset": 0,
						"slot": "0",
						"type": "t_uint256"
					},
					{
						"astId": 5,
						"contract": "contracts/walkwalk.sol:WalkWalk",
						"label": "memberId",
						"offset": 0,
						"slot": "1",
						"type": "t_uint256"
					},
					{
						"astId": 7,
						"contract": "contracts/walkwalk.sol:WalkWalk",
						"label": "steps",
						"offset": 0,
						"slot": "2",
						"type": "t_uint256"
					},
					{
						"astId": 9,
						"contract": "contracts/walkwalk.sol:WalkWalk",
						"label": "exerciseMinute",
						"offset": 0,
						"slot": "3",
						"type": "t_uint256"
					},
					{
						"astId": 11,
						"contract": "contracts/walkwalk.sol:WalkWalk",
						"label": "exerciseDistance",
						"offset": 0,
						"slot": "4",
						"type": "t_string_storage"
					},
					{
						"astId": 13,
						"contract": "contracts/walkwalk.sol:WalkWalk",
						"label": "exerciseDay",
						"offset": 0,
						"slot": "5",
						"type": "t_string_storage"
					},
					{
						"astId": 15,
						"contract": "contracts/walkwalk.sol:WalkWalk",
						"label": "exerciseStart",
						"offset": 0,
						"slot": "6",
						"type": "t_string_storage"
					},
					{
						"astId": 17,
						"contract": "contracts/walkwalk.sol:WalkWalk",
						"label": "exerciseEnd",
						"offset": 0,
						"slot": "7",
						"type": "t_string_storage"
					},
					{
						"astId": 19,
						"contract": "contracts/walkwalk.sol:WalkWalk",
						"label": "calorie",
						"offset": 0,
						"slot": "8",
						"type": "t_string_storage"
					}
				],
				"numberOfBytes": "288"
			},
			"t_struct(Receipt)33_storage": {
				"encoding": "inplace",
				"label": "struct WalkWalk.Receipt",
				"members": [
					{
						"astId": 22,
						"contract": "contracts/walkwalk.sol:WalkWalk",
						"label": "walletType",
						"offset": 0,
						"slot": "0",
						"type": "t_string_storage"
					},
					{
						"astId": 24,
						"contract": "contracts/walkwalk.sol:WalkWalk",
						"label": "operator",
						"offset": 0,
						"slot": "1",
						"type": "t_bool"
					},
					{
						"astId": 26,
						"contract": "contracts/walkwalk.sol:WalkWalk",
						"label": "price",
						"offset": 0,
						"slot": "2",
						"type": "t_uint256"
					},
					{
						"astId": 28,
						"contract": "contracts/walkwalk.sol:WalkWalk",
						"label": "description",
						"offset": 0,
						"slot": "3",
						"type": "t_string_storage"
					},
					{
						"astId": 30,
						"contract": "contracts/walkwalk.sol:WalkWalk",
						"label": "createdAt",
						"offset": 0,
						"slot": "4",
						"type": "t_string_storage"
					},
					{
						"astId": 32,
						"contract": "contracts/walkwalk.sol:WalkWalk",
						"label": "memberId",
						"offset": 0,
						"slot": "5",
						"type": "t_uint256"
					}
				],
				"numberOfBytes": "192"
			},
			"t_uint256": {
				"encoding": "inplace",
				"label": "uint256",
				"numberOfBytes": "32"
			}
		}
	},
	"web3Deploy": "var walkwalkContract = new web3.eth.Contract([{\"anonymous\":false,\"inputs\":[{\"indexed\":false,\"internalType\":\"uint256\",\"name\":\"id\",\"type\":\"uint256\"},{\"indexed\":false,\"internalType\":\"uint256\",\"name\":\"memberId\",\"type\":\"uint256\"},{\"indexed\":false,\"internalType\":\"uint256\",\"name\":\"steps\",\"type\":\"uint256\"},{\"indexed\":false,\"internalType\":\"uint256\",\"name\":\"exerciseMinute\",\"type\":\"uint256\"},{\"indexed\":false,\"internalType\":\"string\",\"name\":\"exerciseDistance\",\"type\":\"string\"},{\"indexed\":false,\"internalType\":\"string\",\"name\":\"exerciseDay\",\"type\":\"string\"},{\"indexed\":false,\"internalType\":\"string\",\"name\":\"exerciseStart\",\"type\":\"string\"},{\"indexed\":false,\"internalType\":\"string\",\"name\":\"exerciseEnd\",\"type\":\"string\"},{\"indexed\":false,\"internalType\":\"string\",\"name\":\"calorie\",\"type\":\"string\"}],\"name\":\"ExerciseDataAdded\",\"type\":\"event\"},{\"anonymous\":false,\"inputs\":[{\"indexed\":false,\"internalType\":\"uint256\",\"name\":\"receiptId\",\"type\":\"uint256\"},{\"indexed\":false,\"internalType\":\"string\",\"name\":\"walletType\",\"type\":\"string\"},{\"indexed\":false,\"internalType\":\"bool\",\"name\":\"operator\",\"type\":\"bool\"},{\"indexed\":false,\"internalType\":\"uint256\",\"name\":\"price\",\"type\":\"uint256\"},{\"indexed\":false,\"internalType\":\"string\",\"name\":\"description\",\"type\":\"string\"},{\"indexed\":false,\"internalType\":\"string\",\"name\":\"createdAt\",\"type\":\"string\"},{\"indexed\":false,\"internalType\":\"uint256\",\"name\":\"memberId\",\"type\":\"uint256\"}],\"name\":\"ReceiptAdded\",\"type\":\"event\"},{\"inputs\":[{\"internalType\":\"uint256\",\"name\":\"id\",\"type\":\"uint256\"},{\"internalType\":\"uint256\",\"name\":\"memberId\",\"type\":\"uint256\"},{\"internalType\":\"uint256\",\"name\":\"steps\",\"type\":\"uint256\"},{\"internalType\":\"uint256\",\"name\":\"exerciseMinute\",\"type\":\"uint256\"},{\"internalType\":\"string\",\"name\":\"exerciseDistance\",\"type\":\"string\"},{\"internalType\":\"string\",\"name\":\"exerciseDay\",\"type\":\"string\"},{\"internalType\":\"string\",\"name\":\"exerciseStart\",\"type\":\"string\"},{\"internalType\":\"string\",\"name\":\"exerciseEnd\",\"type\":\"string\"},{\"internalType\":\"string\",\"name\":\"calorie\",\"type\":\"string\"}],\"name\":\"addExerciseData\",\"outputs\":[],\"stateMutability\":\"nonpayable\",\"type\":\"function\"},{\"inputs\":[{\"internalType\":\"string\",\"name\":\"walletType\",\"type\":\"string\"},{\"internalType\":\"bool\",\"name\":\"operator\",\"type\":\"bool\"},{\"internalType\":\"uint256\",\"name\":\"price\",\"type\":\"uint256\"},{\"internalType\":\"string\",\"name\":\"description\",\"type\":\"string\"},{\"internalType\":\"string\",\"name\":\"createdAt\",\"type\":\"string\"},{\"internalType\":\"uint256\",\"name\":\"memberId\",\"type\":\"uint256\"}],\"name\":\"addReceipt\",\"outputs\":[{\"internalType\":\"uint256\",\"name\":\"\",\"type\":\"uint256\"}],\"stateMutability\":\"nonpayable\",\"type\":\"function\"},{\"inputs\":[{\"internalType\":\"uint256\",\"name\":\"\",\"type\":\"uint256\"}],\"name\":\"exerciseDatas\",\"outputs\":[{\"internalType\":\"uint256\",\"name\":\"id\",\"type\":\"uint256\"},{\"internalType\":\"uint256\",\"name\":\"memberId\",\"type\":\"uint256\"},{\"internalType\":\"uint256\",\"name\":\"steps\",\"type\":\"uint256\"},{\"internalType\":\"uint256\",\"name\":\"exerciseMinute\",\"type\":\"uint256\"},{\"internalType\":\"string\",\"name\":\"exerciseDistance\",\"type\":\"string\"},{\"internalType\":\"string\",\"name\":\"exerciseDay\",\"type\":\"string\"},{\"internalType\":\"string\",\"name\":\"exerciseStart\",\"type\":\"string\"},{\"internalType\":\"string\",\"name\":\"exerciseEnd\",\"type\":\"string\"},{\"internalType\":\"string\",\"name\":\"calorie\",\"type\":\"string\"}],\"stateMutability\":\"view\",\"type\":\"function\"},{\"inputs\":[{\"internalType\":\"uint256\",\"name\":\"id\",\"type\":\"uint256\"}],\"name\":\"getExerciseData\",\"outputs\":[{\"components\":[{\"internalType\":\"uint256\",\"name\":\"id\",\"type\":\"uint256\"},{\"internalType\":\"uint256\",\"name\":\"memberId\",\"type\":\"uint256\"},{\"internalType\":\"uint256\",\"name\":\"steps\",\"type\":\"uint256\"},{\"internalType\":\"uint256\",\"name\":\"exerciseMinute\",\"type\":\"uint256\"},{\"internalType\":\"string\",\"name\":\"exerciseDistance\",\"type\":\"string\"},{\"internalType\":\"string\",\"name\":\"exerciseDay\",\"type\":\"string\"},{\"internalType\":\"string\",\"name\":\"exerciseStart\",\"type\":\"string\"},{\"internalType\":\"string\",\"name\":\"exerciseEnd\",\"type\":\"string\"},{\"internalType\":\"string\",\"name\":\"calorie\",\"type\":\"string\"}],\"internalType\":\"struct WalkWalk.ExerciseData\",\"name\":\"\",\"type\":\"tuple\"}],\"stateMutability\":\"view\",\"type\":\"function\"},{\"inputs\":[{\"internalType\":\"uint256\",\"name\":\"receiptId\",\"type\":\"uint256\"}],\"name\":\"getReceipt\",\"outputs\":[{\"components\":[{\"internalType\":\"string\",\"name\":\"walletType\",\"type\":\"string\"},{\"internalType\":\"bool\",\"name\":\"operator\",\"type\":\"bool\"},{\"internalType\":\"uint256\",\"name\":\"price\",\"type\":\"uint256\"},{\"internalType\":\"string\",\"name\":\"description\",\"type\":\"string\"},{\"internalType\":\"string\",\"name\":\"createdAt\",\"type\":\"string\"},{\"internalType\":\"uint256\",\"name\":\"memberId\",\"type\":\"uint256\"}],\"internalType\":\"struct WalkWalk.Receipt\",\"name\":\"\",\"type\":\"tuple\"}],\"stateMutability\":\"view\",\"type\":\"function\"},{\"inputs\":[{\"internalType\":\"uint256\",\"name\":\"\",\"type\":\"uint256\"}],\"name\":\"receipts\",\"outputs\":[{\"internalType\":\"string\",\"name\":\"walletType\",\"type\":\"string\"},{\"internalType\":\"bool\",\"name\":\"operator\",\"type\":\"bool\"},{\"internalType\":\"uint256\",\"name\":\"price\",\"type\":\"uint256\"},{\"internalType\":\"string\",\"name\":\"description\",\"type\":\"string\"},{\"internalType\":\"string\",\"name\":\"createdAt\",\"type\":\"string\"},{\"internalType\":\"uint256\",\"name\":\"memberId\",\"type\":\"uint256\"}],\"stateMutability\":\"view\",\"type\":\"function\"}]);\nvar walkwalk = walkwalkContract.deploy({\n     data: '0x6080604052348015600e575f80fd5b50611c7e8061001c5f395ff3fe608060405234801561000f575f80fd5b5060043610610060575f3560e01c80630f7ee1ec14610064578063197d23b01461009957806332e7847b146100b5578063420acff3146100e5578063b63e6ac314610115578063c1800e8114610145575b5f80fd5b61007e60048036038101906100799190610f9e565b61017d565b60405161009096959493929190611062565b60405180910390f35b6100b360048036038101906100ae9190611202565b610362565b005b6100cf60048036038101906100ca919061137c565b6104f0565b6040516100dc9190611459565b60405180910390f35b6100ff60048036038101906100fa9190610f9e565b610622565b60405161010c91906115a7565b60405180910390f35b61012f600480360381019061012a9190610f9e565b610998565b60405161013c919061166a565b60405180910390f35b61015f600480360381019061015a9190610f9e565b610bf6565b6040516101749998979695949392919061168a565b60405180910390f35b6001818154811061018c575f80fd5b905f5260205f2090600602015f91509050805f0180546101ab90611765565b80601f01602080910402602001604051908101604052809291908181526020018280546101d790611765565b80156102225780601f106101f957610100808354040283529160200191610222565b820191905f5260205f20905b81548152906001019060200180831161020557829003601f168201915b505050505090806001015f9054906101000a900460ff169080600201549080600301805461024f90611765565b80601f016020809104026020016040519081016040528092919081815260200182805461027b90611765565b80156102c65780601f1061029d576101008083540402835291602001916102c6565b820191905f5260205f20905b8154815290600101906020018083116102a957829003601f168201915b5050505050908060040180546102db90611765565b80601f016020809104026020016040519081016040528092919081815260200182805461030790611765565b80156103525780601f1061032957610100808354040283529160200191610352565b820191905f5260205f20905b81548152906001019060200180831161033557829003601f168201915b5050505050908060050154905086565b5f805f8b81526020019081526020015f205f0154146103b6576040517f08c379a00000000000000000000000000000000000000000000000000000000081526004016103ad906117df565b60405180910390fd5b6040518061012001604052808a8152602001898152602001888152602001878152602001868152602001858152602001848152602001838152602001828152505f808b81526020019081526020015f205f820151815f01556020820151816001015560408201518160020155606082015181600301556080820151816004019081610441919061199a565b5060a0820151816005019081610457919061199a565b5060c082015181600601908161046d919061199a565b5060e0820151816007019081610483919061199a565b5061010082015181600801908161049a919061199a565b509050507f07ad54d69f4d007d56f6e74010350562e46f5cf4ee19e65482acb78e4c2195508989898989898989896040516104dd9998979695949392919061168a565b60405180910390a1505050505050505050565b5f60016040518060c00160405280898152602001881515815260200187815260200186815260200185815260200184815250908060018154018082558091505060019003905f5260205f2090600602015f909190919091505f820151815f01908161055b919061199a565b506020820151816001015f6101000a81548160ff02191690831515021790555060408201518160020155606082015181600301908161059a919061199a565b5060808201518160040190816105b0919061199a565b5060a0820151816005015550505f600180805490506105cf9190611a96565b90507f8b9f4d9e9c07fe50f790c2348976c935ad40e3e76ff7bb74ef1c6ae9eaebd3fe8189898989898960405161060c9796959493929190611ac9565b60405180910390a1809150509695505050505050565b61062a610edd565b5f805f8481526020019081526020015f205f01540361067e576040517f08c379a000000000000000000000000000000000000000000000000000000000815260040161067590611b95565b60405180910390fd5b5f808381526020019081526020015f20604051806101200160405290815f82015481526020016001820154815260200160028201548152602001600382015481526020016004820180546106d190611765565b80601f01602080910402602001604051908101604052809291908181526020018280546106fd90611765565b80156107485780601f1061071f57610100808354040283529160200191610748565b820191905f5260205f20905b81548152906001019060200180831161072b57829003601f168201915b5050505050815260200160058201805461076190611765565b80601f016020809104026020016040519081016040528092919081815260200182805461078d90611765565b80156107d85780601f106107af576101008083540402835291602001916107d8565b820191905f5260205f20905b8154815290600101906020018083116107bb57829003601f168201915b505050505081526020016006820180546107f190611765565b80601f016020809104026020016040519081016040528092919081815260200182805461081d90611765565b80156108685780601f1061083f57610100808354040283529160200191610868565b820191905f5260205f20905b81548152906001019060200180831161084b57829003601f168201915b5050505050815260200160078201805461088190611765565b80601f01602080910402602001604051908101604052809291908181526020018280546108ad90611765565b80156108f85780601f106108cf576101008083540402835291602001916108f8565b820191905f5260205f20905b8154815290600101906020018083116108db57829003601f168201915b5050505050815260200160088201805461091190611765565b80601f016020809104026020016040519081016040528092919081815260200182805461093d90611765565b80156109885780601f1061095f57610100808354040283529160200191610988565b820191905f5260205f20905b81548152906001019060200180831161096b57829003601f168201915b5050505050815250509050919050565b6109a0610f25565b60018054905082106109e7576040517f08c379a00000000000000000000000000000000000000000000000000000000081526004016109de90611bfd565b60405180910390fd5b600182815481106109fb576109fa611c1b565b5b905f5260205f2090600602016040518060c00160405290815f82018054610a2190611765565b80601f0160208091040260200160405190810160405280929190818152602001828054610a4d90611765565b8015610a985780601f10610a6f57610100808354040283529160200191610a98565b820191905f5260205f20905b815481529060010190602001808311610a7b57829003601f168201915b50505050508152602001600182015f9054906101000a900460ff1615151515815260200160028201548152602001600382018054610ad590611765565b80601f0160208091040260200160405190810160405280929190818152602001828054610b0190611765565b8015610b4c5780601f10610b2357610100808354040283529160200191610b4c565b820191905f5260205f20905b815481529060010190602001808311610b2f57829003601f168201915b50505050508152602001600482018054610b6590611765565b80601f0160208091040260200160405190810160405280929190818152602001828054610b9190611765565b8015610bdc5780601f10610bb357610100808354040283529160200191610bdc565b820191905f5260205f20905b815481529060010190602001808311610bbf57829003601f168201915b505050505081526020016005820154815250509050919050565b5f602052805f5260405f205f91509050805f015490806001015490806002015490806003015490806004018054610c2c90611765565b80601f0160208091040260200160405190810160405280929190818152602001828054610c5890611765565b8015610ca35780601f10610c7a57610100808354040283529160200191610ca3565b820191905f5260205f20905b815481529060010190602001808311610c8657829003601f168201915b505050505090806005018054610cb890611765565b80601f0160208091040260200160405190810160405280929190818152602001828054610ce490611765565b8015610d2f5780601f10610d0657610100808354040283529160200191610d2f565b820191905f5260205f20905b815481529060010190602001808311610d1257829003601f168201915b505050505090806006018054610d4490611765565b80601f0160208091040260200160405190810160405280929190818152602001828054610d7090611765565b8015610dbb5780601f10610d9257610100808354040283529160200191610dbb565b820191905f5260205f20905b815481529060010190602001808311610d9e57829003601f168201915b505050505090806007018054610dd090611765565b80601f0160208091040260200160405190810160405280929190818152602001828054610dfc90611765565b8015610e475780601f10610e1e57610100808354040283529160200191610e47565b820191905f5260205f20905b815481529060010190602001808311610e2a57829003601f168201915b505050505090806008018054610e5c90611765565b80601f0160208091040260200160405190810160405280929190818152602001828054610e8890611765565b8015610ed35780601f10610eaa57610100808354040283529160200191610ed3565b820191905f5260205f20905b815481529060010190602001808311610eb657829003601f168201915b5050505050905089565b6040518061012001604052805f81526020015f81526020015f81526020015f815260200160608152602001606081526020016060815260200160608152602001606081525090565b6040518060c00160405280606081526020015f151581526020015f815260200160608152602001606081526020015f81525090565b5f604051905090565b5f80fd5b5f80fd5b5f819050919050565b610f7d81610f6b565b8114610f87575f80fd5b50565b5f81359050610f9881610f74565b92915050565b5f60208284031215610fb357610fb2610f63565b5b5f610fc084828501610f8a565b91505092915050565b5f81519050919050565b5f82825260208201905092915050565b8281835e5f83830152505050565b5f601f19601f8301169050919050565b5f61100b82610fc9565b6110158185610fd3565b9350611025818560208601610fe3565b61102e81610ff1565b840191505092915050565b5f8115159050919050565b61104d81611039565b82525050565b61105c81610f6b565b82525050565b5f60c0820190508181035f83015261107a8189611001565b90506110896020830188611044565b6110966040830187611053565b81810360608301526110a88186611001565b905081810360808301526110bc8185611001565b90506110cb60a0830184611053565b979650505050505050565b5f80fd5b5f80fd5b7f4e487b71000000000000000000000000000000000000000000000000000000005f52604160045260245ffd5b61111482610ff1565b810181811067ffffffffffffffff82111715611133576111326110de565b5b80604052505050565b5f611145610f5a565b9050611151828261110b565b919050565b5f67ffffffffffffffff8211156111705761116f6110de565b5b61117982610ff1565b9050602081019050919050565b828183375f83830152505050565b5f6111a66111a184611156565b61113c565b9050828152602081018484840111156111c2576111c16110da565b5b6111cd848285611186565b509392505050565b5f82601f8301126111e9576111e86110d6565b5b81356111f9848260208601611194565b91505092915050565b5f805f805f805f805f6101208a8c0312156112205761121f610f63565b5b5f61122d8c828d01610f8a565b995050602061123e8c828d01610f8a565b985050604061124f8c828d01610f8a565b97505060606112608c828d01610f8a565b96505060808a013567ffffffffffffffff81111561128157611280610f67565b5b61128d8c828d016111d5565b95505060a08a013567ffffffffffffffff8111156112ae576112ad610f67565b5b6112ba8c828d016111d5565b94505060c08a013567ffffffffffffffff8111156112db576112da610f67565b5b6112e78c828d016111d5565b93505060e08a013567ffffffffffffffff81111561130857611307610f67565b5b6113148c828d016111d5565b9250506101008a013567ffffffffffffffff81111561133657611335610f67565b5b6113428c828d016111d5565b9150509295985092959850929598565b61135b81611039565b8114611365575f80fd5b50565b5f8135905061137681611352565b92915050565b5f805f805f8060c0878903121561139657611395610f63565b5b5f87013567ffffffffffffffff8111156113b3576113b2610f67565b5b6113bf89828a016111d5565b96505060206113d089828a01611368565b95505060406113e189828a01610f8a565b945050606087013567ffffffffffffffff81111561140257611401610f67565b5b61140e89828a016111d5565b935050608087013567ffffffffffffffff81111561142f5761142e610f67565b5b61143b89828a016111d5565b92505060a061144c89828a01610f8a565b9150509295509295509295565b5f60208201905061146c5f830184611053565b92915050565b61147b81610f6b565b82525050565b5f82825260208201905092915050565b5f61149b82610fc9565b6114a58185611481565b93506114b5818560208601610fe3565b6114be81610ff1565b840191505092915050565b5f61012083015f8301516114df5f860182611472565b5060208301516114f26020860182611472565b5060408301516115056040860182611472565b5060608301516115186060860182611472565b50608083015184820360808601526115308282611491565b91505060a083015184820360a086015261154a8282611491565b91505060c083015184820360c08601526115648282611491565b91505060e083015184820360e086015261157e8282611491565b91505061010083015184820361010086015261159a8282611491565b9150508091505092915050565b5f6020820190508181035f8301526115bf81846114c9565b905092915050565b6115d081611039565b82525050565b5f60c083015f8301518482035f8601526115f08282611491565b915050602083015161160560208601826115c7565b5060408301516116186040860182611472565b50606083015184820360608601526116308282611491565b9150506080830151848203608086015261164a8282611491565b91505060a083015161165f60a0860182611472565b508091505092915050565b5f6020820190508181035f83015261168281846115d6565b905092915050565b5f6101208201905061169e5f83018c611053565b6116ab602083018b611053565b6116b8604083018a611053565b6116c56060830189611053565b81810360808301526116d78188611001565b905081810360a08301526116eb8187611001565b905081810360c08301526116ff8186611001565b905081810360e08301526117138185611001565b90508181036101008301526117288184611001565b90509a9950505050505050505050565b7f4e487b71000000000000000000000000000000000000000000000000000000005f52602260045260245ffd5b5f600282049050600182168061177c57607f821691505b60208210810361178f5761178e611738565b5b50919050565b7f494420616c7265616479206578697374732e00000000000000000000000000005f82015250565b5f6117c9601283610fd3565b91506117d482611795565b602082019050919050565b5f6020820190508181035f8301526117f6816117bd565b9050919050565b5f819050815f5260205f209050919050565b5f6020601f8301049050919050565b5f82821b905092915050565b5f600883026118597fffffffffffffffffffffffffffffffffffffffffffffffffffffffffffffffff8261181e565b611863868361181e565b95508019841693508086168417925050509392505050565b5f819050919050565b5f61189e61189961189484610f6b565b61187b565b610f6b565b9050919050565b5f819050919050565b6118b783611884565b6118cb6118c3826118a5565b84845461182a565b825550505050565b5f90565b6118df6118d3565b6118ea8184846118ae565b505050565b5b8181101561190d576119025f826118d7565b6001810190506118f0565b5050565b601f82111561195257611923816117fd565b61192c8461180f565b8101602085101561193b578190505b61194f6119478561180f565b8301826118ef565b50505b505050565b5f82821c905092915050565b5f6119725f1984600802611957565b1980831691505092915050565b5f61198a8383611963565b9150826002028217905092915050565b6119a382610fc9565b67ffffffffffffffff8111156119bc576119bb6110de565b5b6119c68254611765565b6119d1828285611911565b5f60209050601f831160018114611a02575f84156119f0578287015190505b6119fa858261197f565b865550611a61565b601f198416611a10866117fd565b5f5b82811015611a3757848901518255600182019150602085019450602081019050611a12565b86831015611a545784890151611a50601f891682611963565b8355505b6001600288020188555050505b505050505050565b7f4e487b71000000000000000000000000000000000000000000000000000000005f52601160045260245ffd5b5f611aa082610f6b565b9150611aab83610f6b565b9250828203905081811115611ac357611ac2611a69565b5b92915050565b5f60e082019050611adc5f83018a611053565b8181036020830152611aee8189611001565b9050611afd6040830188611044565b611b0a6060830187611053565b8181036080830152611b1c8186611001565b905081810360a0830152611b308185611001565b9050611b3f60c0830184611053565b98975050505050505050565b7f45786572636973654461746120646f6573206e6f742065786973742e000000005f82015250565b5f611b7f601c83610fd3565b9150611b8a82611b4b565b602082019050919050565b5f6020820190508181035f830152611bac81611b73565b9050919050565b7f5265636569707420646f6573206e6f742065786973742e0000000000000000005f82015250565b5f611be7601783610fd3565b9150611bf282611bb3565b602082019050919050565b5f6020820190508181035f830152611c1481611bdb565b9050919050565b7f4e487b71000000000000000000000000000000000000000000000000000000005f52603260045260245ffdfea2646970667358221220b01691f44007d5063b41528b08a43b502c2c34249799497cf4f556e930cd043364736f6c63430008190033', \n     arguments: [\n     ]\n}).send({\n     from: web3.eth.accounts[0], \n     gas: '4700000'\n   }, function (e, contract){\n    console.log(e, contract);\n    if (typeof contract.address !== 'undefined') {\n         console.log('Contract mined! address: ' + contract.address + ' transactionHash: ' + contract.transactionHash);\n    }\n })",
	"functionHashes": {
		"197d23b0": "addExerciseData(uint256,uint256,uint256,uint256,string,string,string,string,string)",
		"32e7847b": "addReceipt(string,bool,uint256,string,string,uint256)",
		"c1800e81": "exerciseDatas(uint256)",
		"420acff3": "getExerciseData(uint256)",
		"b63e6ac3": "getReceipt(uint256)",
		"0f7ee1ec": "receipts(uint256)"
	},
	"gasEstimates": {
		"Creation": {
			"codeDepositCost": "1458800",
			"executionCost": "1518",
			"totalCost": "1460318"
		},
		"External": {
			"addExerciseData(uint256,uint256,uint256,uint256,string,string,string,string,string)": "infinite",
			"addReceipt(string,bool,uint256,string,string,uint256)": "infinite",
			"exerciseDatas(uint256)": "infinite",
			"getExerciseData(uint256)": "infinite",
			"getReceipt(uint256)": "infinite",
			"receipts(uint256)": "infinite"
		}
	},
	"devdoc": {
		"kind": "dev",
		"methods": {},
		"version": 1
	},
	"userdoc": {
		"kind": "user",
		"methods": {},
		"version": 1
	},
	"Runtime Bytecode": {
		"immutableReferences": {},
		"linkReferences": {},
		"object": "608060405234801561000f575f80fd5b5060043610610060575f3560e01c80630f7ee1ec14610064578063197d23b01461009957806332e7847b146100b5578063420acff3146100e5578063b63e6ac314610115578063c1800e8114610145575b5f80fd5b61007e60048036038101906100799190610f9e565b61017d565b60405161009096959493929190611062565b60405180910390f35b6100b360048036038101906100ae9190611202565b610362565b005b6100cf60048036038101906100ca919061137c565b6104f0565b6040516100dc9190611459565b60405180910390f35b6100ff60048036038101906100fa9190610f9e565b610622565b60405161010c91906115a7565b60405180910390f35b61012f600480360381019061012a9190610f9e565b610998565b60405161013c919061166a565b60405180910390f35b61015f600480360381019061015a9190610f9e565b610bf6565b6040516101749998979695949392919061168a565b60405180910390f35b6001818154811061018c575f80fd5b905f5260205f2090600602015f91509050805f0180546101ab90611765565b80601f01602080910402602001604051908101604052809291908181526020018280546101d790611765565b80156102225780601f106101f957610100808354040283529160200191610222565b820191905f5260205f20905b81548152906001019060200180831161020557829003601f168201915b505050505090806001015f9054906101000a900460ff169080600201549080600301805461024f90611765565b80601f016020809104026020016040519081016040528092919081815260200182805461027b90611765565b80156102c65780601f1061029d576101008083540402835291602001916102c6565b820191905f5260205f20905b8154815290600101906020018083116102a957829003601f168201915b5050505050908060040180546102db90611765565b80601f016020809104026020016040519081016040528092919081815260200182805461030790611765565b80156103525780601f1061032957610100808354040283529160200191610352565b820191905f5260205f20905b81548152906001019060200180831161033557829003601f168201915b5050505050908060050154905086565b5f805f8b81526020019081526020015f205f0154146103b6576040517f08c379a00000000000000000000000000000000000000000000000000000000081526004016103ad906117df565b60405180910390fd5b6040518061012001604052808a8152602001898152602001888152602001878152602001868152602001858152602001848152602001838152602001828152505f808b81526020019081526020015f205f820151815f01556020820151816001015560408201518160020155606082015181600301556080820151816004019081610441919061199a565b5060a0820151816005019081610457919061199a565b5060c082015181600601908161046d919061199a565b5060e0820151816007019081610483919061199a565b5061010082015181600801908161049a919061199a565b509050507f07ad54d69f4d007d56f6e74010350562e46f5cf4ee19e65482acb78e4c2195508989898989898989896040516104dd9998979695949392919061168a565b60405180910390a1505050505050505050565b5f60016040518060c00160405280898152602001881515815260200187815260200186815260200185815260200184815250908060018154018082558091505060019003905f5260205f2090600602015f909190919091505f820151815f01908161055b919061199a565b506020820151816001015f6101000a81548160ff02191690831515021790555060408201518160020155606082015181600301908161059a919061199a565b5060808201518160040190816105b0919061199a565b5060a0820151816005015550505f600180805490506105cf9190611a96565b90507f8b9f4d9e9c07fe50f790c2348976c935ad40e3e76ff7bb74ef1c6ae9eaebd3fe8189898989898960405161060c9796959493929190611ac9565b60405180910390a1809150509695505050505050565b61062a610edd565b5f805f8481526020019081526020015f205f01540361067e576040517f08c379a000000000000000000000000000000000000000000000000000000000815260040161067590611b95565b60405180910390fd5b5f808381526020019081526020015f20604051806101200160405290815f82015481526020016001820154815260200160028201548152602001600382015481526020016004820180546106d190611765565b80601f01602080910402602001604051908101604052809291908181526020018280546106fd90611765565b80156107485780601f1061071f57610100808354040283529160200191610748565b820191905f5260205f20905b81548152906001019060200180831161072b57829003601f168201915b5050505050815260200160058201805461076190611765565b80601f016020809104026020016040519081016040528092919081815260200182805461078d90611765565b80156107d85780601f106107af576101008083540402835291602001916107d8565b820191905f5260205f20905b8154815290600101906020018083116107bb57829003601f168201915b505050505081526020016006820180546107f190611765565b80601f016020809104026020016040519081016040528092919081815260200182805461081d90611765565b80156108685780601f1061083f57610100808354040283529160200191610868565b820191905f5260205f20905b81548152906001019060200180831161084b57829003601f168201915b5050505050815260200160078201805461088190611765565b80601f01602080910402602001604051908101604052809291908181526020018280546108ad90611765565b80156108f85780601f106108cf576101008083540402835291602001916108f8565b820191905f5260205f20905b8154815290600101906020018083116108db57829003601f168201915b5050505050815260200160088201805461091190611765565b80601f016020809104026020016040519081016040528092919081815260200182805461093d90611765565b80156109885780601f1061095f57610100808354040283529160200191610988565b820191905f5260205f20905b81548152906001019060200180831161096b57829003601f168201915b5050505050815250509050919050565b6109a0610f25565b60018054905082106109e7576040517f08c379a00000000000000000000000000000000000000000000000000000000081526004016109de90611bfd565b60405180910390fd5b600182815481106109fb576109fa611c1b565b5b905f5260205f2090600602016040518060c00160405290815f82018054610a2190611765565b80601f0160208091040260200160405190810160405280929190818152602001828054610a4d90611765565b8015610a985780601f10610a6f57610100808354040283529160200191610a98565b820191905f5260205f20905b815481529060010190602001808311610a7b57829003601f168201915b50505050508152602001600182015f9054906101000a900460ff1615151515815260200160028201548152602001600382018054610ad590611765565b80601f0160208091040260200160405190810160405280929190818152602001828054610b0190611765565b8015610b4c5780601f10610b2357610100808354040283529160200191610b4c565b820191905f5260205f20905b815481529060010190602001808311610b2f57829003601f168201915b50505050508152602001600482018054610b6590611765565b80601f0160208091040260200160405190810160405280929190818152602001828054610b9190611765565b8015610bdc5780601f10610bb357610100808354040283529160200191610bdc565b820191905f5260205f20905b815481529060010190602001808311610bbf57829003601f168201915b505050505081526020016005820154815250509050919050565b5f602052805f5260405f205f91509050805f015490806001015490806002015490806003015490806004018054610c2c90611765565b80601f0160208091040260200160405190810160405280929190818152602001828054610c5890611765565b8015610ca35780601f10610c7a57610100808354040283529160200191610ca3565b820191905f5260205f20905b815481529060010190602001808311610c8657829003601f168201915b505050505090806005018054610cb890611765565b80601f0160208091040260200160405190810160405280929190818152602001828054610ce490611765565b8015610d2f5780601f10610d0657610100808354040283529160200191610d2f565b820191905f5260205f20905b815481529060010190602001808311610d1257829003601f168201915b505050505090806006018054610d4490611765565b80601f0160208091040260200160405190810160405280929190818152602001828054610d7090611765565b8015610dbb5780601f10610d9257610100808354040283529160200191610dbb565b820191905f5260205f20905b815481529060010190602001808311610d9e57829003601f168201915b505050505090806007018054610dd090611765565b80601f0160208091040260200160405190810160405280929190818152602001828054610dfc90611765565b8015610e475780601f10610e1e57610100808354040283529160200191610e47565b820191905f5260205f20905b815481529060010190602001808311610e2a57829003601f168201915b505050505090806008018054610e5c90611765565b80601f0160208091040260200160405190810160405280929190818152602001828054610e8890611765565b8015610ed35780601f10610eaa57610100808354040283529160200191610ed3565b820191905f5260205f20905b815481529060010190602001808311610eb657829003601f168201915b5050505050905089565b6040518061012001604052805f81526020015f81526020015f81526020015f815260200160608152602001606081526020016060815260200160608152602001606081525090565b6040518060c00160405280606081526020015f151581526020015f815260200160608152602001606081526020015f81525090565b5f604051905090565b5f80fd5b5f80fd5b5f819050919050565b610f7d81610f6b565b8114610f87575f80fd5b50565b5f81359050610f9881610f74565b92915050565b5f60208284031215610fb357610fb2610f63565b5b5f610fc084828501610f8a565b91505092915050565b5f81519050919050565b5f82825260208201905092915050565b8281835e5f83830152505050565b5f601f19601f8301169050919050565b5f61100b82610fc9565b6110158185610fd3565b9350611025818560208601610fe3565b61102e81610ff1565b840191505092915050565b5f8115159050919050565b61104d81611039565b82525050565b61105c81610f6b565b82525050565b5f60c0820190508181035f83015261107a8189611001565b90506110896020830188611044565b6110966040830187611053565b81810360608301526110a88186611001565b905081810360808301526110bc8185611001565b90506110cb60a0830184611053565b979650505050505050565b5f80fd5b5f80fd5b7f4e487b71000000000000000000000000000000000000000000000000000000005f52604160045260245ffd5b61111482610ff1565b810181811067ffffffffffffffff82111715611133576111326110de565b5b80604052505050565b5f611145610f5a565b9050611151828261110b565b919050565b5f67ffffffffffffffff8211156111705761116f6110de565b5b61117982610ff1565b9050602081019050919050565b828183375f83830152505050565b5f6111a66111a184611156565b61113c565b9050828152602081018484840111156111c2576111c16110da565b5b6111cd848285611186565b509392505050565b5f82601f8301126111e9576111e86110d6565b5b81356111f9848260208601611194565b91505092915050565b5f805f805f805f805f6101208a8c0312156112205761121f610f63565b5b5f61122d8c828d01610f8a565b995050602061123e8c828d01610f8a565b985050604061124f8c828d01610f8a565b97505060606112608c828d01610f8a565b96505060808a013567ffffffffffffffff81111561128157611280610f67565b5b61128d8c828d016111d5565b95505060a08a013567ffffffffffffffff8111156112ae576112ad610f67565b5b6112ba8c828d016111d5565b94505060c08a013567ffffffffffffffff8111156112db576112da610f67565b5b6112e78c828d016111d5565b93505060e08a013567ffffffffffffffff81111561130857611307610f67565b5b6113148c828d016111d5565b9250506101008a013567ffffffffffffffff81111561133657611335610f67565b5b6113428c828d016111d5565b9150509295985092959850929598565b61135b81611039565b8114611365575f80fd5b50565b5f8135905061137681611352565b92915050565b5f805f805f8060c0878903121561139657611395610f63565b5b5f87013567ffffffffffffffff8111156113b3576113b2610f67565b5b6113bf89828a016111d5565b96505060206113d089828a01611368565b95505060406113e189828a01610f8a565b945050606087013567ffffffffffffffff81111561140257611401610f67565b5b61140e89828a016111d5565b935050608087013567ffffffffffffffff81111561142f5761142e610f67565b5b61143b89828a016111d5565b92505060a061144c89828a01610f8a565b9150509295509295509295565b5f60208201905061146c5f830184611053565b92915050565b61147b81610f6b565b82525050565b5f82825260208201905092915050565b5f61149b82610fc9565b6114a58185611481565b93506114b5818560208601610fe3565b6114be81610ff1565b840191505092915050565b5f61012083015f8301516114df5f860182611472565b5060208301516114f26020860182611472565b5060408301516115056040860182611472565b5060608301516115186060860182611472565b50608083015184820360808601526115308282611491565b91505060a083015184820360a086015261154a8282611491565b91505060c083015184820360c08601526115648282611491565b91505060e083015184820360e086015261157e8282611491565b91505061010083015184820361010086015261159a8282611491565b9150508091505092915050565b5f6020820190508181035f8301526115bf81846114c9565b905092915050565b6115d081611039565b82525050565b5f60c083015f8301518482035f8601526115f08282611491565b915050602083015161160560208601826115c7565b5060408301516116186040860182611472565b50606083015184820360608601526116308282611491565b9150506080830151848203608086015261164a8282611491565b91505060a083015161165f60a0860182611472565b508091505092915050565b5f6020820190508181035f83015261168281846115d6565b905092915050565b5f6101208201905061169e5f83018c611053565b6116ab602083018b611053565b6116b8604083018a611053565b6116c56060830189611053565b81810360808301526116d78188611001565b905081810360a08301526116eb8187611001565b905081810360c08301526116ff8186611001565b905081810360e08301526117138185611001565b90508181036101008301526117288184611001565b90509a9950505050505050505050565b7f4e487b71000000000000000000000000000000000000000000000000000000005f52602260045260245ffd5b5f600282049050600182168061177c57607f821691505b60208210810361178f5761178e611738565b5b50919050565b7f494420616c7265616479206578697374732e00000000000000000000000000005f82015250565b5f6117c9601283610fd3565b91506117d482611795565b602082019050919050565b5f6020820190508181035f8301526117f6816117bd565b9050919050565b5f819050815f5260205f209050919050565b5f6020601f8301049050919050565b5f82821b905092915050565b5f600883026118597fffffffffffffffffffffffffffffffffffffffffffffffffffffffffffffffff8261181e565b611863868361181e565b95508019841693508086168417925050509392505050565b5f819050919050565b5f61189e61189961189484610f6b565b61187b565b610f6b565b9050919050565b5f819050919050565b6118b783611884565b6118cb6118c3826118a5565b84845461182a565b825550505050565b5f90565b6118df6118d3565b6118ea8184846118ae565b505050565b5b8181101561190d576119025f826118d7565b6001810190506118f0565b5050565b601f82111561195257611923816117fd565b61192c8461180f565b8101602085101561193b578190505b61194f6119478561180f565b8301826118ef565b50505b505050565b5f82821c905092915050565b5f6119725f1984600802611957565b1980831691505092915050565b5f61198a8383611963565b9150826002028217905092915050565b6119a382610fc9565b67ffffffffffffffff8111156119bc576119bb6110de565b5b6119c68254611765565b6119d1828285611911565b5f60209050601f831160018114611a02575f84156119f0578287015190505b6119fa858261197f565b865550611a61565b601f198416611a10866117fd565b5f5b82811015611a3757848901518255600182019150602085019450602081019050611a12565b86831015611a545784890151611a50601f891682611963565b8355505b6001600288020188555050505b505050505050565b7f4e487b71000000000000000000000000000000000000000000000000000000005f52601160045260245ffd5b5f611aa082610f6b565b9150611aab83610f6b565b9250828203905081811115611ac357611ac2611a69565b5b92915050565b5f60e082019050611adc5f83018a611053565b8181036020830152611aee8189611001565b9050611afd6040830188611044565b611b0a6060830187611053565b8181036080830152611b1c8186611001565b905081810360a0830152611b308185611001565b9050611b3f60c0830184611053565b98975050505050505050565b7f45786572636973654461746120646f6573206e6f742065786973742e000000005f82015250565b5f611b7f601c83610fd3565b9150611b8a82611b4b565b602082019050919050565b5f6020820190508181035f830152611bac81611b73565b9050919050565b7f5265636569707420646f6573206e6f742065786973742e0000000000000000005f82015250565b5f611be7601783610fd3565b9150611bf282611bb3565b602082019050919050565b5f6020820190508181035f830152611c1481611bdb565b9050919050565b7f4e487b71000000000000000000000000000000000000000000000000000000005f52603260045260245ffdfea2646970667358221220b01691f44007d5063b41528b08a43b502c2c34249799497cf4f556e930cd043364736f6c63430008190033",
		"opcodes": "PUSH1 0x80 PUSH1 0x40 MSTORE CALLVALUE DUP1 ISZERO PUSH2 0xF JUMPI PUSH0 DUP1 REVERT JUMPDEST POP PUSH1 0x4 CALLDATASIZE LT PUSH2 0x60 JUMPI PUSH0 CALLDATALOAD PUSH1 0xE0 SHR DUP1 PUSH4 0xF7EE1EC EQ PUSH2 0x64 JUMPI DUP1 PUSH4 0x197D23B0 EQ PUSH2 0x99 JUMPI DUP1 PUSH4 0x32E7847B EQ PUSH2 0xB5 JUMPI DUP1 PUSH4 0x420ACFF3 EQ PUSH2 0xE5 JUMPI DUP1 PUSH4 0xB63E6AC3 EQ PUSH2 0x115 JUMPI DUP1 PUSH4 0xC1800E81 EQ PUSH2 0x145 JUMPI JUMPDEST PUSH0 DUP1 REVERT JUMPDEST PUSH2 0x7E PUSH1 0x4 DUP1 CALLDATASIZE SUB DUP2 ADD SWAP1 PUSH2 0x79 SWAP2 SWAP1 PUSH2 0xF9E JUMP JUMPDEST PUSH2 0x17D JUMP JUMPDEST PUSH1 0x40 MLOAD PUSH2 0x90 SWAP7 SWAP6 SWAP5 SWAP4 SWAP3 SWAP2 SWAP1 PUSH2 0x1062 JUMP JUMPDEST PUSH1 0x40 MLOAD DUP1 SWAP2 SUB SWAP1 RETURN JUMPDEST PUSH2 0xB3 PUSH1 0x4 DUP1 CALLDATASIZE SUB DUP2 ADD SWAP1 PUSH2 0xAE SWAP2 SWAP1 PUSH2 0x1202 JUMP JUMPDEST PUSH2 0x362 JUMP JUMPDEST STOP JUMPDEST PUSH2 0xCF PUSH1 0x4 DUP1 CALLDATASIZE SUB DUP2 ADD SWAP1 PUSH2 0xCA SWAP2 SWAP1 PUSH2 0x137C JUMP JUMPDEST PUSH2 0x4F0 JUMP JUMPDEST PUSH1 0x40 MLOAD PUSH2 0xDC SWAP2 SWAP1 PUSH2 0x1459 JUMP JUMPDEST PUSH1 0x40 MLOAD DUP1 SWAP2 SUB SWAP1 RETURN JUMPDEST PUSH2 0xFF PUSH1 0x4 DUP1 CALLDATASIZE SUB DUP2 ADD SWAP1 PUSH2 0xFA SWAP2 SWAP1 PUSH2 0xF9E JUMP JUMPDEST PUSH2 0x622 JUMP JUMPDEST PUSH1 0x40 MLOAD PUSH2 0x10C SWAP2 SWAP1 PUSH2 0x15A7 JUMP JUMPDEST PUSH1 0x40 MLOAD DUP1 SWAP2 SUB SWAP1 RETURN JUMPDEST PUSH2 0x12F PUSH1 0x4 DUP1 CALLDATASIZE SUB DUP2 ADD SWAP1 PUSH2 0x12A SWAP2 SWAP1 PUSH2 0xF9E JUMP JUMPDEST PUSH2 0x998 JUMP JUMPDEST PUSH1 0x40 MLOAD PUSH2 0x13C SWAP2 SWAP1 PUSH2 0x166A JUMP JUMPDEST PUSH1 0x40 MLOAD DUP1 SWAP2 SUB SWAP1 RETURN JUMPDEST PUSH2 0x15F PUSH1 0x4 DUP1 CALLDATASIZE SUB DUP2 ADD SWAP1 PUSH2 0x15A SWAP2 SWAP1 PUSH2 0xF9E JUMP JUMPDEST PUSH2 0xBF6 JUMP JUMPDEST PUSH1 0x40 MLOAD PUSH2 0x174 SWAP10 SWAP9 SWAP8 SWAP7 SWAP6 SWAP5 SWAP4 SWAP3 SWAP2 SWAP1 PUSH2 0x168A JUMP JUMPDEST PUSH1 0x40 MLOAD DUP1 SWAP2 SUB SWAP1 RETURN JUMPDEST PUSH1 0x1 DUP2 DUP2 SLOAD DUP2 LT PUSH2 0x18C JUMPI PUSH0 DUP1 REVERT JUMPDEST SWAP1 PUSH0 MSTORE PUSH1 0x20 PUSH0 KECCAK256 SWAP1 PUSH1 0x6 MUL ADD PUSH0 SWAP2 POP SWAP1 POP DUP1 PUSH0 ADD DUP1 SLOAD PUSH2 0x1AB SWAP1 PUSH2 0x1765 JUMP JUMPDEST DUP1 PUSH1 0x1F ADD PUSH1 0x20 DUP1 SWAP2 DIV MUL PUSH1 0x20 ADD PUSH1 0x40 MLOAD SWAP1 DUP2 ADD PUSH1 0x40 MSTORE DUP1 SWAP3 SWAP2 SWAP1 DUP2 DUP2 MSTORE PUSH1 0x20 ADD DUP3 DUP1 SLOAD PUSH2 0x1D7 SWAP1 PUSH2 0x1765 JUMP JUMPDEST DUP1 ISZERO PUSH2 0x222 JUMPI DUP1 PUSH1 0x1F LT PUSH2 0x1F9 JUMPI PUSH2 0x100 DUP1 DUP4 SLOAD DIV MUL DUP4 MSTORE SWAP2 PUSH1 0x20 ADD SWAP2 PUSH2 0x222 JUMP JUMPDEST DUP3 ADD SWAP2 SWAP1 PUSH0 MSTORE PUSH1 0x20 PUSH0 KECCAK256 SWAP1 JUMPDEST DUP2 SLOAD DUP2 MSTORE SWAP1 PUSH1 0x1 ADD SWAP1 PUSH1 0x20 ADD DUP1 DUP4 GT PUSH2 0x205 JUMPI DUP3 SWAP1 SUB PUSH1 0x1F AND DUP3 ADD SWAP2 JUMPDEST POP POP POP POP POP SWAP1 DUP1 PUSH1 0x1 ADD PUSH0 SWAP1 SLOAD SWAP1 PUSH2 0x100 EXP SWAP1 DIV PUSH1 0xFF AND SWAP1 DUP1 PUSH1 0x2 ADD SLOAD SWAP1 DUP1 PUSH1 0x3 ADD DUP1 SLOAD PUSH2 0x24F SWAP1 PUSH2 0x1765 JUMP JUMPDEST DUP1 PUSH1 0x1F ADD PUSH1 0x20 DUP1 SWAP2 DIV MUL PUSH1 0x20 ADD PUSH1 0x40 MLOAD SWAP1 DUP2 ADD PUSH1 0x40 MSTORE DUP1 SWAP3 SWAP2 SWAP1 DUP2 DUP2 MSTORE PUSH1 0x20 ADD DUP3 DUP1 SLOAD PUSH2 0x27B SWAP1 PUSH2 0x1765 JUMP JUMPDEST DUP1 ISZERO PUSH2 0x2C6 JUMPI DUP1 PUSH1 0x1F LT PUSH2 0x29D JUMPI PUSH2 0x100 DUP1 DUP4 SLOAD DIV MUL DUP4 MSTORE SWAP2 PUSH1 0x20 ADD SWAP2 PUSH2 0x2C6 JUMP JUMPDEST DUP3 ADD SWAP2 SWAP1 PUSH0 MSTORE PUSH1 0x20 PUSH0 KECCAK256 SWAP1 JUMPDEST DUP2 SLOAD DUP2 MSTORE SWAP1 PUSH1 0x1 ADD SWAP1 PUSH1 0x20 ADD DUP1 DUP4 GT PUSH2 0x2A9 JUMPI DUP3 SWAP1 SUB PUSH1 0x1F AND DUP3 ADD SWAP2 JUMPDEST POP POP POP POP POP SWAP1 DUP1 PUSH1 0x4 ADD DUP1 SLOAD PUSH2 0x2DB SWAP1 PUSH2 0x1765 JUMP JUMPDEST DUP1 PUSH1 0x1F ADD PUSH1 0x20 DUP1 SWAP2 DIV MUL PUSH1 0x20 ADD PUSH1 0x40 MLOAD SWAP1 DUP2 ADD PUSH1 0x40 MSTORE DUP1 SWAP3 SWAP2 SWAP1 DUP2 DUP2 MSTORE PUSH1 0x20 ADD DUP3 DUP1 SLOAD PUSH2 0x307 SWAP1 PUSH2 0x1765 JUMP JUMPDEST DUP1 ISZERO PUSH2 0x352 JUMPI DUP1 PUSH1 0x1F LT PUSH2 0x329 JUMPI PUSH2 0x100 DUP1 DUP4 SLOAD DIV MUL DUP4 MSTORE SWAP2 PUSH1 0x20 ADD SWAP2 PUSH2 0x352 JUMP JUMPDEST DUP3 ADD SWAP2 SWAP1 PUSH0 MSTORE PUSH1 0x20 PUSH0 KECCAK256 SWAP1 JUMPDEST DUP2 SLOAD DUP2 MSTORE SWAP1 PUSH1 0x1 ADD SWAP1 PUSH1 0x20 ADD DUP1 DUP4 GT PUSH2 0x335 JUMPI DUP3 SWAP1 SUB PUSH1 0x1F AND DUP3 ADD SWAP2 JUMPDEST POP POP POP POP POP SWAP1 DUP1 PUSH1 0x5 ADD SLOAD SWAP1 POP DUP7 JUMP JUMPDEST PUSH0 DUP1 PUSH0 DUP12 DUP2 MSTORE PUSH1 0x20 ADD SWAP1 DUP2 MSTORE PUSH1 0x20 ADD PUSH0 KECCAK256 PUSH0 ADD SLOAD EQ PUSH2 0x3B6 JUMPI PUSH1 0x40 MLOAD PUSH32 0x8C379A000000000000000000000000000000000000000000000000000000000 DUP2 MSTORE PUSH1 0x4 ADD PUSH2 0x3AD SWAP1 PUSH2 0x17DF JUMP JUMPDEST PUSH1 0x40 MLOAD DUP1 SWAP2 SUB SWAP1 REVERT JUMPDEST PUSH1 0x40 MLOAD DUP1 PUSH2 0x120 ADD PUSH1 0x40 MSTORE DUP1 DUP11 DUP2 MSTORE PUSH1 0x20 ADD DUP10 DUP2 MSTORE PUSH1 0x20 ADD DUP9 DUP2 MSTORE PUSH1 0x20 ADD DUP8 DUP2 MSTORE PUSH1 0x20 ADD DUP7 DUP2 MSTORE PUSH1 0x20 ADD DUP6 DUP2 MSTORE PUSH1 0x20 ADD DUP5 DUP2 MSTORE PUSH1 0x20 ADD DUP4 DUP2 MSTORE PUSH1 0x20 ADD DUP3 DUP2 MSTORE POP PUSH0 DUP1 DUP12 DUP2 MSTORE PUSH1 0x20 ADD SWAP1 DUP2 MSTORE PUSH1 0x20 ADD PUSH0 KECCAK256 PUSH0 DUP3 ADD MLOAD DUP2 PUSH0 ADD SSTORE PUSH1 0x20 DUP3 ADD MLOAD DUP2 PUSH1 0x1 ADD SSTORE PUSH1 0x40 DUP3 ADD MLOAD DUP2 PUSH1 0x2 ADD SSTORE PUSH1 0x60 DUP3 ADD MLOAD DUP2 PUSH1 0x3 ADD SSTORE PUSH1 0x80 DUP3 ADD MLOAD DUP2 PUSH1 0x4 ADD SWAP1 DUP2 PUSH2 0x441 SWAP2 SWAP1 PUSH2 0x199A JUMP JUMPDEST POP PUSH1 0xA0 DUP3 ADD MLOAD DUP2 PUSH1 0x5 ADD SWAP1 DUP2 PUSH2 0x457 SWAP2 SWAP1 PUSH2 0x199A JUMP JUMPDEST POP PUSH1 0xC0 DUP3 ADD MLOAD DUP2 PUSH1 0x6 ADD SWAP1 DUP2 PUSH2 0x46D SWAP2 SWAP1 PUSH2 0x199A JUMP JUMPDEST POP PUSH1 0xE0 DUP3 ADD MLOAD DUP2 PUSH1 0x7 ADD SWAP1 DUP2 PUSH2 0x483 SWAP2 SWAP1 PUSH2 0x199A JUMP JUMPDEST POP PUSH2 0x100 DUP3 ADD MLOAD DUP2 PUSH1 0x8 ADD SWAP1 DUP2 PUSH2 0x49A SWAP2 SWAP1 PUSH2 0x199A JUMP JUMPDEST POP SWAP1 POP POP PUSH32 0x7AD54D69F4D007D56F6E74010350562E46F5CF4EE19E65482ACB78E4C219550 DUP10 DUP10 DUP10 DUP10 DUP10 DUP10 DUP10 DUP10 DUP10 PUSH1 0x40 MLOAD PUSH2 0x4DD SWAP10 SWAP9 SWAP8 SWAP7 SWAP6 SWAP5 SWAP4 SWAP3 SWAP2 SWAP1 PUSH2 0x168A JUMP JUMPDEST PUSH1 0x40 MLOAD DUP1 SWAP2 SUB SWAP1 LOG1 POP POP POP POP POP POP POP POP POP JUMP JUMPDEST PUSH0 PUSH1 0x1 PUSH1 0x40 MLOAD DUP1 PUSH1 0xC0 ADD PUSH1 0x40 MSTORE DUP1 DUP10 DUP2 MSTORE PUSH1 0x20 ADD DUP9 ISZERO ISZERO DUP2 MSTORE PUSH1 0x20 ADD DUP8 DUP2 MSTORE PUSH1 0x20 ADD DUP7 DUP2 MSTORE PUSH1 0x20 ADD DUP6 DUP2 MSTORE PUSH1 0x20 ADD DUP5 DUP2 MSTORE POP SWAP1 DUP1 PUSH1 0x1 DUP2 SLOAD ADD DUP1 DUP3 SSTORE DUP1 SWAP2 POP POP PUSH1 0x1 SWAP1 SUB SWAP1 PUSH0 MSTORE PUSH1 0x20 PUSH0 KECCAK256 SWAP1 PUSH1 0x6 MUL ADD PUSH0 SWAP1 SWAP2 SWAP1 SWAP2 SWAP1 SWAP2 POP PUSH0 DUP3 ADD MLOAD DUP2 PUSH0 ADD SWAP1 DUP2 PUSH2 0x55B SWAP2 SWAP1 PUSH2 0x199A JUMP JUMPDEST POP PUSH1 0x20 DUP3 ADD MLOAD DUP2 PUSH1 0x1 ADD PUSH0 PUSH2 0x100 EXP DUP2 SLOAD DUP2 PUSH1 0xFF MUL NOT AND SWAP1 DUP4 ISZERO ISZERO MUL OR SWAP1 SSTORE POP PUSH1 0x40 DUP3 ADD MLOAD DUP2 PUSH1 0x2 ADD SSTORE PUSH1 0x60 DUP3 ADD MLOAD DUP2 PUSH1 0x3 ADD SWAP1 DUP2 PUSH2 0x59A SWAP2 SWAP1 PUSH2 0x199A JUMP JUMPDEST POP PUSH1 0x80 DUP3 ADD MLOAD DUP2 PUSH1 0x4 ADD SWAP1 DUP2 PUSH2 0x5B0 SWAP2 SWAP1 PUSH2 0x199A JUMP JUMPDEST POP PUSH1 0xA0 DUP3 ADD MLOAD DUP2 PUSH1 0x5 ADD SSTORE POP POP PUSH0 PUSH1 0x1 DUP1 DUP1 SLOAD SWAP1 POP PUSH2 0x5CF SWAP2 SWAP1 PUSH2 0x1A96 JUMP JUMPDEST SWAP1 POP PUSH32 0x8B9F4D9E9C07FE50F790C2348976C935AD40E3E76FF7BB74EF1C6AE9EAEBD3FE DUP2 DUP10 DUP10 DUP10 DUP10 DUP10 DUP10 PUSH1 0x40 MLOAD PUSH2 0x60C SWAP8 SWAP7 SWAP6 SWAP5 SWAP4 SWAP3 SWAP2 SWAP1 PUSH2 0x1AC9 JUMP JUMPDEST PUSH1 0x40 MLOAD DUP1 SWAP2 SUB SWAP1 LOG1 DUP1 SWAP2 POP POP SWAP7 SWAP6 POP POP POP POP POP POP JUMP JUMPDEST PUSH2 0x62A PUSH2 0xEDD JUMP JUMPDEST PUSH0 DUP1 PUSH0 DUP5 DUP2 MSTORE PUSH1 0x20 ADD SWAP1 DUP2 MSTORE PUSH1 0x20 ADD PUSH0 KECCAK256 PUSH0 ADD SLOAD SUB PUSH2 0x67E JUMPI PUSH1 0x40 MLOAD PUSH32 0x8C379A000000000000000000000000000000000000000000000000000000000 DUP2 MSTORE PUSH1 0x4 ADD PUSH2 0x675 SWAP1 PUSH2 0x1B95 JUMP JUMPDEST PUSH1 0x40 MLOAD DUP1 SWAP2 SUB SWAP1 REVERT JUMPDEST PUSH0 DUP1 DUP4 DUP2 MSTORE PUSH1 0x20 ADD SWAP1 DUP2 MSTORE PUSH1 0x20 ADD PUSH0 KECCAK256 PUSH1 0x40 MLOAD DUP1 PUSH2 0x120 ADD PUSH1 0x40 MSTORE SWAP1 DUP2 PUSH0 DUP3 ADD SLOAD DUP2 MSTORE PUSH1 0x20 ADD PUSH1 0x1 DUP3 ADD SLOAD DUP2 MSTORE PUSH1 0x20 ADD PUSH1 0x2 DUP3 ADD SLOAD DUP2 MSTORE PUSH1 0x20 ADD PUSH1 0x3 DUP3 ADD SLOAD DUP2 MSTORE PUSH1 0x20 ADD PUSH1 0x4 DUP3 ADD DUP1 SLOAD PUSH2 0x6D1 SWAP1 PUSH2 0x1765 JUMP JUMPDEST DUP1 PUSH1 0x1F ADD PUSH1 0x20 DUP1 SWAP2 DIV MUL PUSH1 0x20 ADD PUSH1 0x40 MLOAD SWAP1 DUP2 ADD PUSH1 0x40 MSTORE DUP1 SWAP3 SWAP2 SWAP1 DUP2 DUP2 MSTORE PUSH1 0x20 ADD DUP3 DUP1 SLOAD PUSH2 0x6FD SWAP1 PUSH2 0x1765 JUMP JUMPDEST DUP1 ISZERO PUSH2 0x748 JUMPI DUP1 PUSH1 0x1F LT PUSH2 0x71F JUMPI PUSH2 0x100 DUP1 DUP4 SLOAD DIV MUL DUP4 MSTORE SWAP2 PUSH1 0x20 ADD SWAP2 PUSH2 0x748 JUMP JUMPDEST DUP3 ADD SWAP2 SWAP1 PUSH0 MSTORE PUSH1 0x20 PUSH0 KECCAK256 SWAP1 JUMPDEST DUP2 SLOAD DUP2 MSTORE SWAP1 PUSH1 0x1 ADD SWAP1 PUSH1 0x20 ADD DUP1 DUP4 GT PUSH2 0x72B JUMPI DUP3 SWAP1 SUB PUSH1 0x1F AND DUP3 ADD SWAP2 JUMPDEST POP POP POP POP POP DUP2 MSTORE PUSH1 0x20 ADD PUSH1 0x5 DUP3 ADD DUP1 SLOAD PUSH2 0x761 SWAP1 PUSH2 0x1765 JUMP JUMPDEST DUP1 PUSH1 0x1F ADD PUSH1 0x20 DUP1 SWAP2 DIV MUL PUSH1 0x20 ADD PUSH1 0x40 MLOAD SWAP1 DUP2 ADD PUSH1 0x40 MSTORE DUP1 SWAP3 SWAP2 SWAP1 DUP2 DUP2 MSTORE PUSH1 0x20 ADD DUP3 DUP1 SLOAD PUSH2 0x78D SWAP1 PUSH2 0x1765 JUMP JUMPDEST DUP1 ISZERO PUSH2 0x7D8 JUMPI DUP1 PUSH1 0x1F LT PUSH2 0x7AF JUMPI PUSH2 0x100 DUP1 DUP4 SLOAD DIV MUL DUP4 MSTORE SWAP2 PUSH1 0x20 ADD SWAP2 PUSH2 0x7D8 JUMP JUMPDEST DUP3 ADD SWAP2 SWAP1 PUSH0 MSTORE PUSH1 0x20 PUSH0 KECCAK256 SWAP1 JUMPDEST DUP2 SLOAD DUP2 MSTORE SWAP1 PUSH1 0x1 ADD SWAP1 PUSH1 0x20 ADD DUP1 DUP4 GT PUSH2 0x7BB JUMPI DUP3 SWAP1 SUB PUSH1 0x1F AND DUP3 ADD SWAP2 JUMPDEST POP POP POP POP POP DUP2 MSTORE PUSH1 0x20 ADD PUSH1 0x6 DUP3 ADD DUP1 SLOAD PUSH2 0x7F1 SWAP1 PUSH2 0x1765 JUMP JUMPDEST DUP1 PUSH1 0x1F ADD PUSH1 0x20 DUP1 SWAP2 DIV MUL PUSH1 0x20 ADD PUSH1 0x40 MLOAD SWAP1 DUP2 ADD PUSH1 0x40 MSTORE DUP1 SWAP3 SWAP2 SWAP1 DUP2 DUP2 MSTORE PUSH1 0x20 ADD DUP3 DUP1 SLOAD PUSH2 0x81D SWAP1 PUSH2 0x1765 JUMP JUMPDEST DUP1 ISZERO PUSH2 0x868 JUMPI DUP1 PUSH1 0x1F LT PUSH2 0x83F JUMPI PUSH2 0x100 DUP1 DUP4 SLOAD DIV MUL DUP4 MSTORE SWAP2 PUSH1 0x20 ADD SWAP2 PUSH2 0x868 JUMP JUMPDEST DUP3 ADD SWAP2 SWAP1 PUSH0 MSTORE PUSH1 0x20 PUSH0 KECCAK256 SWAP1 JUMPDEST DUP2 SLOAD DUP2 MSTORE SWAP1 PUSH1 0x1 ADD SWAP1 PUSH1 0x20 ADD DUP1 DUP4 GT PUSH2 0x84B JUMPI DUP3 SWAP1 SUB PUSH1 0x1F AND DUP3 ADD SWAP2 JUMPDEST POP POP POP POP POP DUP2 MSTORE PUSH1 0x20 ADD PUSH1 0x7 DUP3 ADD DUP1 SLOAD PUSH2 0x881 SWAP1 PUSH2 0x1765 JUMP JUMPDEST DUP1 PUSH1 0x1F ADD PUSH1 0x20 DUP1 SWAP2 DIV MUL PUSH1 0x20 ADD PUSH1 0x40 MLOAD SWAP1 DUP2 ADD PUSH1 0x40 MSTORE DUP1 SWAP3 SWAP2 SWAP1 DUP2 DUP2 MSTORE PUSH1 0x20 ADD DUP3 DUP1 SLOAD PUSH2 0x8AD SWAP1 PUSH2 0x1765 JUMP JUMPDEST DUP1 ISZERO PUSH2 0x8F8 JUMPI DUP1 PUSH1 0x1F LT PUSH2 0x8CF JUMPI PUSH2 0x100 DUP1 DUP4 SLOAD DIV MUL DUP4 MSTORE SWAP2 PUSH1 0x20 ADD SWAP2 PUSH2 0x8F8 JUMP JUMPDEST DUP3 ADD SWAP2 SWAP1 PUSH0 MSTORE PUSH1 0x20 PUSH0 KECCAK256 SWAP1 JUMPDEST DUP2 SLOAD DUP2 MSTORE SWAP1 PUSH1 0x1 ADD SWAP1 PUSH1 0x20 ADD DUP1 DUP4 GT PUSH2 0x8DB JUMPI DUP3 SWAP1 SUB PUSH1 0x1F AND DUP3 ADD SWAP2 JUMPDEST POP POP POP POP POP DUP2 MSTORE PUSH1 0x20 ADD PUSH1 0x8 DUP3 ADD DUP1 SLOAD PUSH2 0x911 SWAP1 PUSH2 0x1765 JUMP JUMPDEST DUP1 PUSH1 0x1F ADD PUSH1 0x20 DUP1 SWAP2 DIV MUL PUSH1 0x20 ADD PUSH1 0x40 MLOAD SWAP1 DUP2 ADD PUSH1 0x40 MSTORE DUP1 SWAP3 SWAP2 SWAP1 DUP2 DUP2 MSTORE PUSH1 0x20 ADD DUP3 DUP1 SLOAD PUSH2 0x93D SWAP1 PUSH2 0x1765 JUMP JUMPDEST DUP1 ISZERO PUSH2 0x988 JUMPI DUP1 PUSH1 0x1F LT PUSH2 0x95F JUMPI PUSH2 0x100 DUP1 DUP4 SLOAD DIV MUL DUP4 MSTORE SWAP2 PUSH1 0x20 ADD SWAP2 PUSH2 0x988 JUMP JUMPDEST DUP3 ADD SWAP2 SWAP1 PUSH0 MSTORE PUSH1 0x20 PUSH0 KECCAK256 SWAP1 JUMPDEST DUP2 SLOAD DUP2 MSTORE SWAP1 PUSH1 0x1 ADD SWAP1 PUSH1 0x20 ADD DUP1 DUP4 GT PUSH2 0x96B JUMPI DUP3 SWAP1 SUB PUSH1 0x1F AND DUP3 ADD SWAP2 JUMPDEST POP POP POP POP POP DUP2 MSTORE POP POP SWAP1 POP SWAP2 SWAP1 POP JUMP JUMPDEST PUSH2 0x9A0 PUSH2 0xF25 JUMP JUMPDEST PUSH1 0x1 DUP1 SLOAD SWAP1 POP DUP3 LT PUSH2 0x9E7 JUMPI PUSH1 0x40 MLOAD PUSH32 0x8C379A000000000000000000000000000000000000000000000000000000000 DUP2 MSTORE PUSH1 0x4 ADD PUSH2 0x9DE SWAP1 PUSH2 0x1BFD JUMP JUMPDEST PUSH1 0x40 MLOAD DUP1 SWAP2 SUB SWAP1 REVERT JUMPDEST PUSH1 0x1 DUP3 DUP2 SLOAD DUP2 LT PUSH2 0x9FB JUMPI PUSH2 0x9FA PUSH2 0x1C1B JUMP JUMPDEST JUMPDEST SWAP1 PUSH0 MSTORE PUSH1 0x20 PUSH0 KECCAK256 SWAP1 PUSH1 0x6 MUL ADD PUSH1 0x40 MLOAD DUP1 PUSH1 0xC0 ADD PUSH1 0x40 MSTORE SWAP1 DUP2 PUSH0 DUP3 ADD DUP1 SLOAD PUSH2 0xA21 SWAP1 PUSH2 0x1765 JUMP JUMPDEST DUP1 PUSH1 0x1F ADD PUSH1 0x20 DUP1 SWAP2 DIV MUL PUSH1 0x20 ADD PUSH1 0x40 MLOAD SWAP1 DUP2 ADD PUSH1 0x40 MSTORE DUP1 SWAP3 SWAP2 SWAP1 DUP2 DUP2 MSTORE PUSH1 0x20 ADD DUP3 DUP1 SLOAD PUSH2 0xA4D SWAP1 PUSH2 0x1765 JUMP JUMPDEST DUP1 ISZERO PUSH2 0xA98 JUMPI DUP1 PUSH1 0x1F LT PUSH2 0xA6F JUMPI PUSH2 0x100 DUP1 DUP4 SLOAD DIV MUL DUP4 MSTORE SWAP2 PUSH1 0x20 ADD SWAP2 PUSH2 0xA98 JUMP JUMPDEST DUP3 ADD SWAP2 SWAP1 PUSH0 MSTORE PUSH1 0x20 PUSH0 KECCAK256 SWAP1 JUMPDEST DUP2 SLOAD DUP2 MSTORE SWAP1 PUSH1 0x1 ADD SWAP1 PUSH1 0x20 ADD DUP1 DUP4 GT PUSH2 0xA7B JUMPI DUP3 SWAP1 SUB PUSH1 0x1F AND DUP3 ADD SWAP2 JUMPDEST POP POP POP POP POP DUP2 MSTORE PUSH1 0x20 ADD PUSH1 0x1 DUP3 ADD PUSH0 SWAP1 SLOAD SWAP1 PUSH2 0x100 EXP SWAP1 DIV PUSH1 0xFF AND ISZERO ISZERO ISZERO ISZERO DUP2 MSTORE PUSH1 0x20 ADD PUSH1 0x2 DUP3 ADD SLOAD DUP2 MSTORE PUSH1 0x20 ADD PUSH1 0x3 DUP3 ADD DUP1 SLOAD PUSH2 0xAD5 SWAP1 PUSH2 0x1765 JUMP JUMPDEST DUP1 PUSH1 0x1F ADD PUSH1 0x20 DUP1 SWAP2 DIV MUL PUSH1 0x20 ADD PUSH1 0x40 MLOAD SWAP1 DUP2 ADD PUSH1 0x40 MSTORE DUP1 SWAP3 SWAP2 SWAP1 DUP2 DUP2 MSTORE PUSH1 0x20 ADD DUP3 DUP1 SLOAD PUSH2 0xB01 SWAP1 PUSH2 0x1765 JUMP JUMPDEST DUP1 ISZERO PUSH2 0xB4C JUMPI DUP1 PUSH1 0x1F LT PUSH2 0xB23 JUMPI PUSH2 0x100 DUP1 DUP4 SLOAD DIV MUL DUP4 MSTORE SWAP2 PUSH1 0x20 ADD SWAP2 PUSH2 0xB4C JUMP JUMPDEST DUP3 ADD SWAP2 SWAP1 PUSH0 MSTORE PUSH1 0x20 PUSH0 KECCAK256 SWAP1 JUMPDEST DUP2 SLOAD DUP2 MSTORE SWAP1 PUSH1 0x1 ADD SWAP1 PUSH1 0x20 ADD DUP1 DUP4 GT PUSH2 0xB2F JUMPI DUP3 SWAP1 SUB PUSH1 0x1F AND DUP3 ADD SWAP2 JUMPDEST POP POP POP POP POP DUP2 MSTORE PUSH1 0x20 ADD PUSH1 0x4 DUP3 ADD DUP1 SLOAD PUSH2 0xB65 SWAP1 PUSH2 0x1765 JUMP JUMPDEST DUP1 PUSH1 0x1F ADD PUSH1 0x20 DUP1 SWAP2 DIV MUL PUSH1 0x20 ADD PUSH1 0x40 MLOAD SWAP1 DUP2 ADD PUSH1 0x40 MSTORE DUP1 SWAP3 SWAP2 SWAP1 DUP2 DUP2 MSTORE PUSH1 0x20 ADD DUP3 DUP1 SLOAD PUSH2 0xB91 SWAP1 PUSH2 0x1765 JUMP JUMPDEST DUP1 ISZERO PUSH2 0xBDC JUMPI DUP1 PUSH1 0x1F LT PUSH2 0xBB3 JUMPI PUSH2 0x100 DUP1 DUP4 SLOAD DIV MUL DUP4 MSTORE SWAP2 PUSH1 0x20 ADD SWAP2 PUSH2 0xBDC JUMP JUMPDEST DUP3 ADD SWAP2 SWAP1 PUSH0 MSTORE PUSH1 0x20 PUSH0 KECCAK256 SWAP1 JUMPDEST DUP2 SLOAD DUP2 MSTORE SWAP1 PUSH1 0x1 ADD SWAP1 PUSH1 0x20 ADD DUP1 DUP4 GT PUSH2 0xBBF JUMPI DUP3 SWAP1 SUB PUSH1 0x1F AND DUP3 ADD SWAP2 JUMPDEST POP POP POP POP POP DUP2 MSTORE PUSH1 0x20 ADD PUSH1 0x5 DUP3 ADD SLOAD DUP2 MSTORE POP POP SWAP1 POP SWAP2 SWAP1 POP JUMP JUMPDEST PUSH0 PUSH1 0x20 MSTORE DUP1 PUSH0 MSTORE PUSH1 0x40 PUSH0 KECCAK256 PUSH0 SWAP2 POP SWAP1 POP DUP1 PUSH0 ADD SLOAD SWAP1 DUP1 PUSH1 0x1 ADD SLOAD SWAP1 DUP1 PUSH1 0x2 ADD SLOAD SWAP1 DUP1 PUSH1 0x3 ADD SLOAD SWAP1 DUP1 PUSH1 0x4 ADD DUP1 SLOAD PUSH2 0xC2C SWAP1 PUSH2 0x1765 JUMP JUMPDEST DUP1 PUSH1 0x1F ADD PUSH1 0x20 DUP1 SWAP2 DIV MUL PUSH1 0x20 ADD PUSH1 0x40 MLOAD SWAP1 DUP2 ADD PUSH1 0x40 MSTORE DUP1 SWAP3 SWAP2 SWAP1 DUP2 DUP2 MSTORE PUSH1 0x20 ADD DUP3 DUP1 SLOAD PUSH2 0xC58 SWAP1 PUSH2 0x1765 JUMP JUMPDEST DUP1 ISZERO PUSH2 0xCA3 JUMPI DUP1 PUSH1 0x1F LT PUSH2 0xC7A JUMPI PUSH2 0x100 DUP1 DUP4 SLOAD DIV MUL DUP4 MSTORE SWAP2 PUSH1 0x20 ADD SWAP2 PUSH2 0xCA3 JUMP JUMPDEST DUP3 ADD SWAP2 SWAP1 PUSH0 MSTORE PUSH1 0x20 PUSH0 KECCAK256 SWAP1 JUMPDEST DUP2 SLOAD DUP2 MSTORE SWAP1 PUSH1 0x1 ADD SWAP1 PUSH1 0x20 ADD DUP1 DUP4 GT PUSH2 0xC86 JUMPI DUP3 SWAP1 SUB PUSH1 0x1F AND DUP3 ADD SWAP2 JUMPDEST POP POP POP POP POP SWAP1 DUP1 PUSH1 0x5 ADD DUP1 SLOAD PUSH2 0xCB8 SWAP1 PUSH2 0x1765 JUMP JUMPDEST DUP1 PUSH1 0x1F ADD PUSH1 0x20 DUP1 SWAP2 DIV MUL PUSH1 0x20 ADD PUSH1 0x40 MLOAD SWAP1 DUP2 ADD PUSH1 0x40 MSTORE DUP1 SWAP3 SWAP2 SWAP1 DUP2 DUP2 MSTORE PUSH1 0x20 ADD DUP3 DUP1 SLOAD PUSH2 0xCE4 SWAP1 PUSH2 0x1765 JUMP JUMPDEST DUP1 ISZERO PUSH2 0xD2F JUMPI DUP1 PUSH1 0x1F LT PUSH2 0xD06 JUMPI PUSH2 0x100 DUP1 DUP4 SLOAD DIV MUL DUP4 MSTORE SWAP2 PUSH1 0x20 ADD SWAP2 PUSH2 0xD2F JUMP JUMPDEST DUP3 ADD SWAP2 SWAP1 PUSH0 MSTORE PUSH1 0x20 PUSH0 KECCAK256 SWAP1 JUMPDEST DUP2 SLOAD DUP2 MSTORE SWAP1 PUSH1 0x1 ADD SWAP1 PUSH1 0x20 ADD DUP1 DUP4 GT PUSH2 0xD12 JUMPI DUP3 SWAP1 SUB PUSH1 0x1F AND DUP3 ADD SWAP2 JUMPDEST POP POP POP POP POP SWAP1 DUP1 PUSH1 0x6 ADD DUP1 SLOAD PUSH2 0xD44 SWAP1 PUSH2 0x1765 JUMP JUMPDEST DUP1 PUSH1 0x1F ADD PUSH1 0x20 DUP1 SWAP2 DIV MUL PUSH1 0x20 ADD PUSH1 0x40 MLOAD SWAP1 DUP2 ADD PUSH1 0x40 MSTORE DUP1 SWAP3 SWAP2 SWAP1 DUP2 DUP2 MSTORE PUSH1 0x20 ADD DUP3 DUP1 SLOAD PUSH2 0xD70 SWAP1 PUSH2 0x1765 JUMP JUMPDEST DUP1 ISZERO PUSH2 0xDBB JUMPI DUP1 PUSH1 0x1F LT PUSH2 0xD92 JUMPI PUSH2 0x100 DUP1 DUP4 SLOAD DIV MUL DUP4 MSTORE SWAP2 PUSH1 0x20 ADD SWAP2 PUSH2 0xDBB JUMP JUMPDEST DUP3 ADD SWAP2 SWAP1 PUSH0 MSTORE PUSH1 0x20 PUSH0 KECCAK256 SWAP1 JUMPDEST DUP2 SLOAD DUP2 MSTORE SWAP1 PUSH1 0x1 ADD SWAP1 PUSH1 0x20 ADD DUP1 DUP4 GT PUSH2 0xD9E JUMPI DUP3 SWAP1 SUB PUSH1 0x1F AND DUP3 ADD SWAP2 JUMPDEST POP POP POP POP POP SWAP1 DUP1 PUSH1 0x7 ADD DUP1 SLOAD PUSH2 0xDD0 SWAP1 PUSH2 0x1765 JUMP JUMPDEST DUP1 PUSH1 0x1F ADD PUSH1 0x20 DUP1 SWAP2 DIV MUL PUSH1 0x20 ADD PUSH1 0x40 MLOAD SWAP1 DUP2 ADD PUSH1 0x40 MSTORE DUP1 SWAP3 SWAP2 SWAP1 DUP2 DUP2 MSTORE PUSH1 0x20 ADD DUP3 DUP1 SLOAD PUSH2 0xDFC SWAP1 PUSH2 0x1765 JUMP JUMPDEST DUP1 ISZERO PUSH2 0xE47 JUMPI DUP1 PUSH1 0x1F LT PUSH2 0xE1E JUMPI PUSH2 0x100 DUP1 DUP4 SLOAD DIV MUL DUP4 MSTORE SWAP2 PUSH1 0x20 ADD SWAP2 PUSH2 0xE47 JUMP JUMPDEST DUP3 ADD SWAP2 SWAP1 PUSH0 MSTORE PUSH1 0x20 PUSH0 KECCAK256 SWAP1 JUMPDEST DUP2 SLOAD DUP2 MSTORE SWAP1 PUSH1 0x1 ADD SWAP1 PUSH1 0x20 ADD DUP1 DUP4 GT PUSH2 0xE2A JUMPI DUP3 SWAP1 SUB PUSH1 0x1F AND DUP3 ADD SWAP2 JUMPDEST POP POP POP POP POP SWAP1 DUP1 PUSH1 0x8 ADD DUP1 SLOAD PUSH2 0xE5C SWAP1 PUSH2 0x1765 JUMP JUMPDEST DUP1 PUSH1 0x1F ADD PUSH1 0x20 DUP1 SWAP2 DIV MUL PUSH1 0x20 ADD PUSH1 0x40 MLOAD SWAP1 DUP2 ADD PUSH1 0x40 MSTORE DUP1 SWAP3 SWAP2 SWAP1 DUP2 DUP2 MSTORE PUSH1 0x20 ADD DUP3 DUP1 SLOAD PUSH2 0xE88 SWAP1 PUSH2 0x1765 JUMP JUMPDEST DUP1 ISZERO PUSH2 0xED3 JUMPI DUP1 PUSH1 0x1F LT PUSH2 0xEAA JUMPI PUSH2 0x100 DUP1 DUP4 SLOAD DIV MUL DUP4 MSTORE SWAP2 PUSH1 0x20 ADD SWAP2 PUSH2 0xED3 JUMP JUMPDEST DUP3 ADD SWAP2 SWAP1 PUSH0 MSTORE PUSH1 0x20 PUSH0 KECCAK256 SWAP1 JUMPDEST DUP2 SLOAD DUP2 MSTORE SWAP1 PUSH1 0x1 ADD SWAP1 PUSH1 0x20 ADD DUP1 DUP4 GT PUSH2 0xEB6 JUMPI DUP3 SWAP1 SUB PUSH1 0x1F AND DUP3 ADD SWAP2 JUMPDEST POP POP POP POP POP SWAP1 POP DUP10 JUMP JUMPDEST PUSH1 0x40 MLOAD DUP1 PUSH2 0x120 ADD PUSH1 0x40 MSTORE DUP1 PUSH0 DUP2 MSTORE PUSH1 0x20 ADD PUSH0 DUP2 MSTORE PUSH1 0x20 ADD PUSH0 DUP2 MSTORE PUSH1 0x20 ADD PUSH0 DUP2 MSTORE PUSH1 0x20 ADD PUSH1 0x60 DUP2 MSTORE PUSH1 0x20 ADD PUSH1 0x60 DUP2 MSTORE PUSH1 0x20 ADD PUSH1 0x60 DUP2 MSTORE PUSH1 0x20 ADD PUSH1 0x60 DUP2 MSTORE PUSH1 0x20 ADD PUSH1 0x60 DUP2 MSTORE POP SWAP1 JUMP JUMPDEST PUSH1 0x40 MLOAD DUP1 PUSH1 0xC0 ADD PUSH1 0x40 MSTORE DUP1 PUSH1 0x60 DUP2 MSTORE PUSH1 0x20 ADD PUSH0 ISZERO ISZERO DUP2 MSTORE PUSH1 0x20 ADD PUSH0 DUP2 MSTORE PUSH1 0x20 ADD PUSH1 0x60 DUP2 MSTORE PUSH1 0x20 ADD PUSH1 0x60 DUP2 MSTORE PUSH1 0x20 ADD PUSH0 DUP2 MSTORE POP SWAP1 JUMP JUMPDEST PUSH0 PUSH1 0x40 MLOAD SWAP1 POP SWAP1 JUMP JUMPDEST PUSH0 DUP1 REVERT JUMPDEST PUSH0 DUP1 REVERT JUMPDEST PUSH0 DUP2 SWAP1 POP SWAP2 SWAP1 POP JUMP JUMPDEST PUSH2 0xF7D DUP2 PUSH2 0xF6B JUMP JUMPDEST DUP2 EQ PUSH2 0xF87 JUMPI PUSH0 DUP1 REVERT JUMPDEST POP JUMP JUMPDEST PUSH0 DUP2 CALLDATALOAD SWAP1 POP PUSH2 0xF98 DUP2 PUSH2 0xF74 JUMP JUMPDEST SWAP3 SWAP2 POP POP JUMP JUMPDEST PUSH0 PUSH1 0x20 DUP3 DUP5 SUB SLT ISZERO PUSH2 0xFB3 JUMPI PUSH2 0xFB2 PUSH2 0xF63 JUMP JUMPDEST JUMPDEST PUSH0 PUSH2 0xFC0 DUP5 DUP3 DUP6 ADD PUSH2 0xF8A JUMP JUMPDEST SWAP2 POP POP SWAP3 SWAP2 POP POP JUMP JUMPDEST PUSH0 DUP2 MLOAD SWAP1 POP SWAP2 SWAP1 POP JUMP JUMPDEST PUSH0 DUP3 DUP3 MSTORE PUSH1 0x20 DUP3 ADD SWAP1 POP SWAP3 SWAP2 POP POP JUMP JUMPDEST DUP3 DUP2 DUP4 MCOPY PUSH0 DUP4 DUP4 ADD MSTORE POP POP POP JUMP JUMPDEST PUSH0 PUSH1 0x1F NOT PUSH1 0x1F DUP4 ADD AND SWAP1 POP SWAP2 SWAP1 POP JUMP JUMPDEST PUSH0 PUSH2 0x100B DUP3 PUSH2 0xFC9 JUMP JUMPDEST PUSH2 0x1015 DUP2 DUP6 PUSH2 0xFD3 JUMP JUMPDEST SWAP4 POP PUSH2 0x1025 DUP2 DUP6 PUSH1 0x20 DUP7 ADD PUSH2 0xFE3 JUMP JUMPDEST PUSH2 0x102E DUP2 PUSH2 0xFF1 JUMP JUMPDEST DUP5 ADD SWAP2 POP POP SWAP3 SWAP2 POP POP JUMP JUMPDEST PUSH0 DUP2 ISZERO ISZERO SWAP1 POP SWAP2 SWAP1 POP JUMP JUMPDEST PUSH2 0x104D DUP2 PUSH2 0x1039 JUMP JUMPDEST DUP3 MSTORE POP POP JUMP JUMPDEST PUSH2 0x105C DUP2 PUSH2 0xF6B JUMP JUMPDEST DUP3 MSTORE POP POP JUMP JUMPDEST PUSH0 PUSH1 0xC0 DUP3 ADD SWAP1 POP DUP2 DUP2 SUB PUSH0 DUP4 ADD MSTORE PUSH2 0x107A DUP2 DUP10 PUSH2 0x1001 JUMP JUMPDEST SWAP1 POP PUSH2 0x1089 PUSH1 0x20 DUP4 ADD DUP9 PUSH2 0x1044 JUMP JUMPDEST PUSH2 0x1096 PUSH1 0x40 DUP4 ADD DUP8 PUSH2 0x1053 JUMP JUMPDEST DUP2 DUP2 SUB PUSH1 0x60 DUP4 ADD MSTORE PUSH2 0x10A8 DUP2 DUP7 PUSH2 0x1001 JUMP JUMPDEST SWAP1 POP DUP2 DUP2 SUB PUSH1 0x80 DUP4 ADD MSTORE PUSH2 0x10BC DUP2 DUP6 PUSH2 0x1001 JUMP JUMPDEST SWAP1 POP PUSH2 0x10CB PUSH1 0xA0 DUP4 ADD DUP5 PUSH2 0x1053 JUMP JUMPDEST SWAP8 SWAP7 POP POP POP POP POP POP POP JUMP JUMPDEST PUSH0 DUP1 REVERT JUMPDEST PUSH0 DUP1 REVERT JUMPDEST PUSH32 0x4E487B7100000000000000000000000000000000000000000000000000000000 PUSH0 MSTORE PUSH1 0x41 PUSH1 0x4 MSTORE PUSH1 0x24 PUSH0 REVERT JUMPDEST PUSH2 0x1114 DUP3 PUSH2 0xFF1 JUMP JUMPDEST DUP2 ADD DUP2 DUP2 LT PUSH8 0xFFFFFFFFFFFFFFFF DUP3 GT OR ISZERO PUSH2 0x1133 JUMPI PUSH2 0x1132 PUSH2 0x10DE JUMP JUMPDEST JUMPDEST DUP1 PUSH1 0x40 MSTORE POP POP POP JUMP JUMPDEST PUSH0 PUSH2 0x1145 PUSH2 0xF5A JUMP JUMPDEST SWAP1 POP PUSH2 0x1151 DUP3 DUP3 PUSH2 0x110B JUMP JUMPDEST SWAP2 SWAP1 POP JUMP JUMPDEST PUSH0 PUSH8 0xFFFFFFFFFFFFFFFF DUP3 GT ISZERO PUSH2 0x1170 JUMPI PUSH2 0x116F PUSH2 0x10DE JUMP JUMPDEST JUMPDEST PUSH2 0x1179 DUP3 PUSH2 0xFF1 JUMP JUMPDEST SWAP1 POP PUSH1 0x20 DUP2 ADD SWAP1 POP SWAP2 SWAP1 POP JUMP JUMPDEST DUP3 DUP2 DUP4 CALLDATACOPY PUSH0 DUP4 DUP4 ADD MSTORE POP POP POP JUMP JUMPDEST PUSH0 PUSH2 0x11A6 PUSH2 0x11A1 DUP5 PUSH2 0x1156 JUMP JUMPDEST PUSH2 0x113C JUMP JUMPDEST SWAP1 POP DUP3 DUP2 MSTORE PUSH1 0x20 DUP2 ADD DUP5 DUP5 DUP5 ADD GT ISZERO PUSH2 0x11C2 JUMPI PUSH2 0x11C1 PUSH2 0x10DA JUMP JUMPDEST JUMPDEST PUSH2 0x11CD DUP5 DUP3 DUP6 PUSH2 0x1186 JUMP JUMPDEST POP SWAP4 SWAP3 POP POP POP JUMP JUMPDEST PUSH0 DUP3 PUSH1 0x1F DUP4 ADD SLT PUSH2 0x11E9 JUMPI PUSH2 0x11E8 PUSH2 0x10D6 JUMP JUMPDEST JUMPDEST DUP2 CALLDATALOAD PUSH2 0x11F9 DUP5 DUP3 PUSH1 0x20 DUP7 ADD PUSH2 0x1194 JUMP JUMPDEST SWAP2 POP POP SWAP3 SWAP2 POP POP JUMP JUMPDEST PUSH0 DUP1 PUSH0 DUP1 PUSH0 DUP1 PUSH0 DUP1 PUSH0 PUSH2 0x120 DUP11 DUP13 SUB SLT ISZERO PUSH2 0x1220 JUMPI PUSH2 0x121F PUSH2 0xF63 JUMP JUMPDEST JUMPDEST PUSH0 PUSH2 0x122D DUP13 DUP3 DUP14 ADD PUSH2 0xF8A JUMP JUMPDEST SWAP10 POP POP PUSH1 0x20 PUSH2 0x123E DUP13 DUP3 DUP14 ADD PUSH2 0xF8A JUMP JUMPDEST SWAP9 POP POP PUSH1 0x40 PUSH2 0x124F DUP13 DUP3 DUP14 ADD PUSH2 0xF8A JUMP JUMPDEST SWAP8 POP POP PUSH1 0x60 PUSH2 0x1260 DUP13 DUP3 DUP14 ADD PUSH2 0xF8A JUMP JUMPDEST SWAP7 POP POP PUSH1 0x80 DUP11 ADD CALLDATALOAD PUSH8 0xFFFFFFFFFFFFFFFF DUP2 GT ISZERO PUSH2 0x1281 JUMPI PUSH2 0x1280 PUSH2 0xF67 JUMP JUMPDEST JUMPDEST PUSH2 0x128D DUP13 DUP3 DUP14 ADD PUSH2 0x11D5 JUMP JUMPDEST SWAP6 POP POP PUSH1 0xA0 DUP11 ADD CALLDATALOAD PUSH8 0xFFFFFFFFFFFFFFFF DUP2 GT ISZERO PUSH2 0x12AE JUMPI PUSH2 0x12AD PUSH2 0xF67 JUMP JUMPDEST JUMPDEST PUSH2 0x12BA DUP13 DUP3 DUP14 ADD PUSH2 0x11D5 JUMP JUMPDEST SWAP5 POP POP PUSH1 0xC0 DUP11 ADD CALLDATALOAD PUSH8 0xFFFFFFFFFFFFFFFF DUP2 GT ISZERO PUSH2 0x12DB JUMPI PUSH2 0x12DA PUSH2 0xF67 JUMP JUMPDEST JUMPDEST PUSH2 0x12E7 DUP13 DUP3 DUP14 ADD PUSH2 0x11D5 JUMP JUMPDEST SWAP4 POP POP PUSH1 0xE0 DUP11 ADD CALLDATALOAD PUSH8 0xFFFFFFFFFFFFFFFF DUP2 GT ISZERO PUSH2 0x1308 JUMPI PUSH2 0x1307 PUSH2 0xF67 JUMP JUMPDEST JUMPDEST PUSH2 0x1314 DUP13 DUP3 DUP14 ADD PUSH2 0x11D5 JUMP JUMPDEST SWAP3 POP POP PUSH2 0x100 DUP11 ADD CALLDATALOAD PUSH8 0xFFFFFFFFFFFFFFFF DUP2 GT ISZERO PUSH2 0x1336 JUMPI PUSH2 0x1335 PUSH2 0xF67 JUMP JUMPDEST JUMPDEST PUSH2 0x1342 DUP13 DUP3 DUP14 ADD PUSH2 0x11D5 JUMP JUMPDEST SWAP2 POP POP SWAP3 SWAP6 SWAP9 POP SWAP3 SWAP6 SWAP9 POP SWAP3 SWAP6 SWAP9 JUMP JUMPDEST PUSH2 0x135B DUP2 PUSH2 0x1039 JUMP JUMPDEST DUP2 EQ PUSH2 0x1365 JUMPI PUSH0 DUP1 REVERT JUMPDEST POP JUMP JUMPDEST PUSH0 DUP2 CALLDATALOAD SWAP1 POP PUSH2 0x1376 DUP2 PUSH2 0x1352 JUMP JUMPDEST SWAP3 SWAP2 POP POP JUMP JUMPDEST PUSH0 DUP1 PUSH0 DUP1 PUSH0 DUP1 PUSH1 0xC0 DUP8 DUP10 SUB SLT ISZERO PUSH2 0x1396 JUMPI PUSH2 0x1395 PUSH2 0xF63 JUMP JUMPDEST JUMPDEST PUSH0 DUP8 ADD CALLDATALOAD PUSH8 0xFFFFFFFFFFFFFFFF DUP2 GT ISZERO PUSH2 0x13B3 JUMPI PUSH2 0x13B2 PUSH2 0xF67 JUMP JUMPDEST JUMPDEST PUSH2 0x13BF DUP10 DUP3 DUP11 ADD PUSH2 0x11D5 JUMP JUMPDEST SWAP7 POP POP PUSH1 0x20 PUSH2 0x13D0 DUP10 DUP3 DUP11 ADD PUSH2 0x1368 JUMP JUMPDEST SWAP6 POP POP PUSH1 0x40 PUSH2 0x13E1 DUP10 DUP3 DUP11 ADD PUSH2 0xF8A JUMP JUMPDEST SWAP5 POP POP PUSH1 0x60 DUP8 ADD CALLDATALOAD PUSH8 0xFFFFFFFFFFFFFFFF DUP2 GT ISZERO PUSH2 0x1402 JUMPI PUSH2 0x1401 PUSH2 0xF67 JUMP JUMPDEST JUMPDEST PUSH2 0x140E DUP10 DUP3 DUP11 ADD PUSH2 0x11D5 JUMP JUMPDEST SWAP4 POP POP PUSH1 0x80 DUP8 ADD CALLDATALOAD PUSH8 0xFFFFFFFFFFFFFFFF DUP2 GT ISZERO PUSH2 0x142F JUMPI PUSH2 0x142E PUSH2 0xF67 JUMP JUMPDEST JUMPDEST PUSH2 0x143B DUP10 DUP3 DUP11 ADD PUSH2 0x11D5 JUMP JUMPDEST SWAP3 POP POP PUSH1 0xA0 PUSH2 0x144C DUP10 DUP3 DUP11 ADD PUSH2 0xF8A JUMP JUMPDEST SWAP2 POP POP SWAP3 SWAP6 POP SWAP3 SWAP6 POP SWAP3 SWAP6 JUMP JUMPDEST PUSH0 PUSH1 0x20 DUP3 ADD SWAP1 POP PUSH2 0x146C PUSH0 DUP4 ADD DUP5 PUSH2 0x1053 JUMP JUMPDEST SWAP3 SWAP2 POP POP JUMP JUMPDEST PUSH2 0x147B DUP2 PUSH2 0xF6B JUMP JUMPDEST DUP3 MSTORE POP POP JUMP JUMPDEST PUSH0 DUP3 DUP3 MSTORE PUSH1 0x20 DUP3 ADD SWAP1 POP SWAP3 SWAP2 POP POP JUMP JUMPDEST PUSH0 PUSH2 0x149B DUP3 PUSH2 0xFC9 JUMP JUMPDEST PUSH2 0x14A5 DUP2 DUP6 PUSH2 0x1481 JUMP JUMPDEST SWAP4 POP PUSH2 0x14B5 DUP2 DUP6 PUSH1 0x20 DUP7 ADD PUSH2 0xFE3 JUMP JUMPDEST PUSH2 0x14BE DUP2 PUSH2 0xFF1 JUMP JUMPDEST DUP5 ADD SWAP2 POP POP SWAP3 SWAP2 POP POP JUMP JUMPDEST PUSH0 PUSH2 0x120 DUP4 ADD PUSH0 DUP4 ADD MLOAD PUSH2 0x14DF PUSH0 DUP7 ADD DUP3 PUSH2 0x1472 JUMP JUMPDEST POP PUSH1 0x20 DUP4 ADD MLOAD PUSH2 0x14F2 PUSH1 0x20 DUP7 ADD DUP3 PUSH2 0x1472 JUMP JUMPDEST POP PUSH1 0x40 DUP4 ADD MLOAD PUSH2 0x1505 PUSH1 0x40 DUP7 ADD DUP3 PUSH2 0x1472 JUMP JUMPDEST POP PUSH1 0x60 DUP4 ADD MLOAD PUSH2 0x1518 PUSH1 0x60 DUP7 ADD DUP3 PUSH2 0x1472 JUMP JUMPDEST POP PUSH1 0x80 DUP4 ADD MLOAD DUP5 DUP3 SUB PUSH1 0x80 DUP7 ADD MSTORE PUSH2 0x1530 DUP3 DUP3 PUSH2 0x1491 JUMP JUMPDEST SWAP2 POP POP PUSH1 0xA0 DUP4 ADD MLOAD DUP5 DUP3 SUB PUSH1 0xA0 DUP7 ADD MSTORE PUSH2 0x154A DUP3 DUP3 PUSH2 0x1491 JUMP JUMPDEST SWAP2 POP POP PUSH1 0xC0 DUP4 ADD MLOAD DUP5 DUP3 SUB PUSH1 0xC0 DUP7 ADD MSTORE PUSH2 0x1564 DUP3 DUP3 PUSH2 0x1491 JUMP JUMPDEST SWAP2 POP POP PUSH1 0xE0 DUP4 ADD MLOAD DUP5 DUP3 SUB PUSH1 0xE0 DUP7 ADD MSTORE PUSH2 0x157E DUP3 DUP3 PUSH2 0x1491 JUMP JUMPDEST SWAP2 POP POP PUSH2 0x100 DUP4 ADD MLOAD DUP5 DUP3 SUB PUSH2 0x100 DUP7 ADD MSTORE PUSH2 0x159A DUP3 DUP3 PUSH2 0x1491 JUMP JUMPDEST SWAP2 POP POP DUP1 SWAP2 POP POP SWAP3 SWAP2 POP POP JUMP JUMPDEST PUSH0 PUSH1 0x20 DUP3 ADD SWAP1 POP DUP2 DUP2 SUB PUSH0 DUP4 ADD MSTORE PUSH2 0x15BF DUP2 DUP5 PUSH2 0x14C9 JUMP JUMPDEST SWAP1 POP SWAP3 SWAP2 POP POP JUMP JUMPDEST PUSH2 0x15D0 DUP2 PUSH2 0x1039 JUMP JUMPDEST DUP3 MSTORE POP POP JUMP JUMPDEST PUSH0 PUSH1 0xC0 DUP4 ADD PUSH0 DUP4 ADD MLOAD DUP5 DUP3 SUB PUSH0 DUP7 ADD MSTORE PUSH2 0x15F0 DUP3 DUP3 PUSH2 0x1491 JUMP JUMPDEST SWAP2 POP POP PUSH1 0x20 DUP4 ADD MLOAD PUSH2 0x1605 PUSH1 0x20 DUP7 ADD DUP3 PUSH2 0x15C7 JUMP JUMPDEST POP PUSH1 0x40 DUP4 ADD MLOAD PUSH2 0x1618 PUSH1 0x40 DUP7 ADD DUP3 PUSH2 0x1472 JUMP JUMPDEST POP PUSH1 0x60 DUP4 ADD MLOAD DUP5 DUP3 SUB PUSH1 0x60 DUP7 ADD MSTORE PUSH2 0x1630 DUP3 DUP3 PUSH2 0x1491 JUMP JUMPDEST SWAP2 POP POP PUSH1 0x80 DUP4 ADD MLOAD DUP5 DUP3 SUB PUSH1 0x80 DUP7 ADD MSTORE PUSH2 0x164A DUP3 DUP3 PUSH2 0x1491 JUMP JUMPDEST SWAP2 POP POP PUSH1 0xA0 DUP4 ADD MLOAD PUSH2 0x165F PUSH1 0xA0 DUP7 ADD DUP3 PUSH2 0x1472 JUMP JUMPDEST POP DUP1 SWAP2 POP POP SWAP3 SWAP2 POP POP JUMP JUMPDEST PUSH0 PUSH1 0x20 DUP3 ADD SWAP1 POP DUP2 DUP2 SUB PUSH0 DUP4 ADD MSTORE PUSH2 0x1682 DUP2 DUP5 PUSH2 0x15D6 JUMP JUMPDEST SWAP1 POP SWAP3 SWAP2 POP POP JUMP JUMPDEST PUSH0 PUSH2 0x120 DUP3 ADD SWAP1 POP PUSH2 0x169E PUSH0 DUP4 ADD DUP13 PUSH2 0x1053 JUMP JUMPDEST PUSH2 0x16AB PUSH1 0x20 DUP4 ADD DUP12 PUSH2 0x1053 JUMP JUMPDEST PUSH2 0x16B8 PUSH1 0x40 DUP4 ADD DUP11 PUSH2 0x1053 JUMP JUMPDEST PUSH2 0x16C5 PUSH1 0x60 DUP4 ADD DUP10 PUSH2 0x1053 JUMP JUMPDEST DUP2 DUP2 SUB PUSH1 0x80 DUP4 ADD MSTORE PUSH2 0x16D7 DUP2 DUP9 PUSH2 0x1001 JUMP JUMPDEST SWAP1 POP DUP2 DUP2 SUB PUSH1 0xA0 DUP4 ADD MSTORE PUSH2 0x16EB DUP2 DUP8 PUSH2 0x1001 JUMP JUMPDEST SWAP1 POP DUP2 DUP2 SUB PUSH1 0xC0 DUP4 ADD MSTORE PUSH2 0x16FF DUP2 DUP7 PUSH2 0x1001 JUMP JUMPDEST SWAP1 POP DUP2 DUP2 SUB PUSH1 0xE0 DUP4 ADD MSTORE PUSH2 0x1713 DUP2 DUP6 PUSH2 0x1001 JUMP JUMPDEST SWAP1 POP DUP2 DUP2 SUB PUSH2 0x100 DUP4 ADD MSTORE PUSH2 0x1728 DUP2 DUP5 PUSH2 0x1001 JUMP JUMPDEST SWAP1 POP SWAP11 SWAP10 POP POP POP POP POP POP POP POP POP POP JUMP JUMPDEST PUSH32 0x4E487B7100000000000000000000000000000000000000000000000000000000 PUSH0 MSTORE PUSH1 0x22 PUSH1 0x4 MSTORE PUSH1 0x24 PUSH0 REVERT JUMPDEST PUSH0 PUSH1 0x2 DUP3 DIV SWAP1 POP PUSH1 0x1 DUP3 AND DUP1 PUSH2 0x177C JUMPI PUSH1 0x7F DUP3 AND SWAP2 POP JUMPDEST PUSH1 0x20 DUP3 LT DUP2 SUB PUSH2 0x178F JUMPI PUSH2 0x178E PUSH2 0x1738 JUMP JUMPDEST JUMPDEST POP SWAP2 SWAP1 POP JUMP JUMPDEST PUSH32 0x494420616C7265616479206578697374732E0000000000000000000000000000 PUSH0 DUP3 ADD MSTORE POP JUMP JUMPDEST PUSH0 PUSH2 0x17C9 PUSH1 0x12 DUP4 PUSH2 0xFD3 JUMP JUMPDEST SWAP2 POP PUSH2 0x17D4 DUP3 PUSH2 0x1795 JUMP JUMPDEST PUSH1 0x20 DUP3 ADD SWAP1 POP SWAP2 SWAP1 POP JUMP JUMPDEST PUSH0 PUSH1 0x20 DUP3 ADD SWAP1 POP DUP2 DUP2 SUB PUSH0 DUP4 ADD MSTORE PUSH2 0x17F6 DUP2 PUSH2 0x17BD JUMP JUMPDEST SWAP1 POP SWAP2 SWAP1 POP JUMP JUMPDEST PUSH0 DUP2 SWAP1 POP DUP2 PUSH0 MSTORE PUSH1 0x20 PUSH0 KECCAK256 SWAP1 POP SWAP2 SWAP1 POP JUMP JUMPDEST PUSH0 PUSH1 0x20 PUSH1 0x1F DUP4 ADD DIV SWAP1 POP SWAP2 SWAP1 POP JUMP JUMPDEST PUSH0 DUP3 DUP3 SHL SWAP1 POP SWAP3 SWAP2 POP POP JUMP JUMPDEST PUSH0 PUSH1 0x8 DUP4 MUL PUSH2 0x1859 PUSH32 0xFFFFFFFFFFFFFFFFFFFFFFFFFFFFFFFFFFFFFFFFFFFFFFFFFFFFFFFFFFFFFFFF DUP3 PUSH2 0x181E JUMP JUMPDEST PUSH2 0x1863 DUP7 DUP4 PUSH2 0x181E JUMP JUMPDEST SWAP6 POP DUP1 NOT DUP5 AND SWAP4 POP DUP1 DUP7 AND DUP5 OR SWAP3 POP POP POP SWAP4 SWAP3 POP POP POP JUMP JUMPDEST PUSH0 DUP2 SWAP1 POP SWAP2 SWAP1 POP JUMP JUMPDEST PUSH0 PUSH2 0x189E PUSH2 0x1899 PUSH2 0x1894 DUP5 PUSH2 0xF6B JUMP JUMPDEST PUSH2 0x187B JUMP JUMPDEST PUSH2 0xF6B JUMP JUMPDEST SWAP1 POP SWAP2 SWAP1 POP JUMP JUMPDEST PUSH0 DUP2 SWAP1 POP SWAP2 SWAP1 POP JUMP JUMPDEST PUSH2 0x18B7 DUP4 PUSH2 0x1884 JUMP JUMPDEST PUSH2 0x18CB PUSH2 0x18C3 DUP3 PUSH2 0x18A5 JUMP JUMPDEST DUP5 DUP5 SLOAD PUSH2 0x182A JUMP JUMPDEST DUP3 SSTORE POP POP POP POP JUMP JUMPDEST PUSH0 SWAP1 JUMP JUMPDEST PUSH2 0x18DF PUSH2 0x18D3 JUMP JUMPDEST PUSH2 0x18EA DUP2 DUP5 DUP5 PUSH2 0x18AE JUMP JUMPDEST POP POP POP JUMP JUMPDEST JUMPDEST DUP2 DUP2 LT ISZERO PUSH2 0x190D JUMPI PUSH2 0x1902 PUSH0 DUP3 PUSH2 0x18D7 JUMP JUMPDEST PUSH1 0x1 DUP2 ADD SWAP1 POP PUSH2 0x18F0 JUMP JUMPDEST POP POP JUMP JUMPDEST PUSH1 0x1F DUP3 GT ISZERO PUSH2 0x1952 JUMPI PUSH2 0x1923 DUP2 PUSH2 0x17FD JUMP JUMPDEST PUSH2 0x192C DUP5 PUSH2 0x180F JUMP JUMPDEST DUP2 ADD PUSH1 0x20 DUP6 LT ISZERO PUSH2 0x193B JUMPI DUP2 SWAP1 POP JUMPDEST PUSH2 0x194F PUSH2 0x1947 DUP6 PUSH2 0x180F JUMP JUMPDEST DUP4 ADD DUP3 PUSH2 0x18EF JUMP JUMPDEST POP POP JUMPDEST POP POP POP JUMP JUMPDEST PUSH0 DUP3 DUP3 SHR SWAP1 POP SWAP3 SWAP2 POP POP JUMP JUMPDEST PUSH0 PUSH2 0x1972 PUSH0 NOT DUP5 PUSH1 0x8 MUL PUSH2 0x1957 JUMP JUMPDEST NOT DUP1 DUP4 AND SWAP2 POP POP SWAP3 SWAP2 POP POP JUMP JUMPDEST PUSH0 PUSH2 0x198A DUP4 DUP4 PUSH2 0x1963 JUMP JUMPDEST SWAP2 POP DUP3 PUSH1 0x2 MUL DUP3 OR SWAP1 POP SWAP3 SWAP2 POP POP JUMP JUMPDEST PUSH2 0x19A3 DUP3 PUSH2 0xFC9 JUMP JUMPDEST PUSH8 0xFFFFFFFFFFFFFFFF DUP2 GT ISZERO PUSH2 0x19BC JUMPI PUSH2 0x19BB PUSH2 0x10DE JUMP JUMPDEST JUMPDEST PUSH2 0x19C6 DUP3 SLOAD PUSH2 0x1765 JUMP JUMPDEST PUSH2 0x19D1 DUP3 DUP3 DUP6 PUSH2 0x1911 JUMP JUMPDEST PUSH0 PUSH1 0x20 SWAP1 POP PUSH1 0x1F DUP4 GT PUSH1 0x1 DUP2 EQ PUSH2 0x1A02 JUMPI PUSH0 DUP5 ISZERO PUSH2 0x19F0 JUMPI DUP3 DUP8 ADD MLOAD SWAP1 POP JUMPDEST PUSH2 0x19FA DUP6 DUP3 PUSH2 0x197F JUMP JUMPDEST DUP7 SSTORE POP PUSH2 0x1A61 JUMP JUMPDEST PUSH1 0x1F NOT DUP5 AND PUSH2 0x1A10 DUP7 PUSH2 0x17FD JUMP JUMPDEST PUSH0 JUMPDEST DUP3 DUP2 LT ISZERO PUSH2 0x1A37 JUMPI DUP5 DUP10 ADD MLOAD DUP3 SSTORE PUSH1 0x1 DUP3 ADD SWAP2 POP PUSH1 0x20 DUP6 ADD SWAP5 POP PUSH1 0x20 DUP2 ADD SWAP1 POP PUSH2 0x1A12 JUMP JUMPDEST DUP7 DUP4 LT ISZERO PUSH2 0x1A54 JUMPI DUP5 DUP10 ADD MLOAD PUSH2 0x1A50 PUSH1 0x1F DUP10 AND DUP3 PUSH2 0x1963 JUMP JUMPDEST DUP4 SSTORE POP JUMPDEST PUSH1 0x1 PUSH1 0x2 DUP9 MUL ADD DUP9 SSTORE POP POP POP JUMPDEST POP POP POP POP POP POP JUMP JUMPDEST PUSH32 0x4E487B7100000000000000000000000000000000000000000000000000000000 PUSH0 MSTORE PUSH1 0x11 PUSH1 0x4 MSTORE PUSH1 0x24 PUSH0 REVERT JUMPDEST PUSH0 PUSH2 0x1AA0 DUP3 PUSH2 0xF6B JUMP JUMPDEST SWAP2 POP PUSH2 0x1AAB DUP4 PUSH2 0xF6B JUMP JUMPDEST SWAP3 POP DUP3 DUP3 SUB SWAP1 POP DUP2 DUP2 GT ISZERO PUSH2 0x1AC3 JUMPI PUSH2 0x1AC2 PUSH2 0x1A69 JUMP JUMPDEST JUMPDEST SWAP3 SWAP2 POP POP JUMP JUMPDEST PUSH0 PUSH1 0xE0 DUP3 ADD SWAP1 POP PUSH2 0x1ADC PUSH0 DUP4 ADD DUP11 PUSH2 0x1053 JUMP JUMPDEST DUP2 DUP2 SUB PUSH1 0x20 DUP4 ADD MSTORE PUSH2 0x1AEE DUP2 DUP10 PUSH2 0x1001 JUMP JUMPDEST SWAP1 POP PUSH2 0x1AFD PUSH1 0x40 DUP4 ADD DUP9 PUSH2 0x1044 JUMP JUMPDEST PUSH2 0x1B0A PUSH1 0x60 DUP4 ADD DUP8 PUSH2 0x1053 JUMP JUMPDEST DUP2 DUP2 SUB PUSH1 0x80 DUP4 ADD MSTORE PUSH2 0x1B1C DUP2 DUP7 PUSH2 0x1001 JUMP JUMPDEST SWAP1 POP DUP2 DUP2 SUB PUSH1 0xA0 DUP4 ADD MSTORE PUSH2 0x1B30 DUP2 DUP6 PUSH2 0x1001 JUMP JUMPDEST SWAP1 POP PUSH2 0x1B3F PUSH1 0xC0 DUP4 ADD DUP5 PUSH2 0x1053 JUMP JUMPDEST SWAP9 SWAP8 POP POP POP POP POP POP POP POP JUMP JUMPDEST PUSH32 0x45786572636973654461746120646F6573206E6F742065786973742E00000000 PUSH0 DUP3 ADD MSTORE POP JUMP JUMPDEST PUSH0 PUSH2 0x1B7F PUSH1 0x1C DUP4 PUSH2 0xFD3 JUMP JUMPDEST SWAP2 POP PUSH2 0x1B8A DUP3 PUSH2 0x1B4B JUMP JUMPDEST PUSH1 0x20 DUP3 ADD SWAP1 POP SWAP2 SWAP1 POP JUMP JUMPDEST PUSH0 PUSH1 0x20 DUP3 ADD SWAP1 POP DUP2 DUP2 SUB PUSH0 DUP4 ADD MSTORE PUSH2 0x1BAC DUP2 PUSH2 0x1B73 JUMP JUMPDEST SWAP1 POP SWAP2 SWAP1 POP JUMP JUMPDEST PUSH32 0x5265636569707420646F6573206E6F742065786973742E000000000000000000 PUSH0 DUP3 ADD MSTORE POP JUMP JUMPDEST PUSH0 PUSH2 0x1BE7 PUSH1 0x17 DUP4 PUSH2 0xFD3 JUMP JUMPDEST SWAP2 POP PUSH2 0x1BF2 DUP3 PUSH2 0x1BB3 JUMP JUMPDEST PUSH1 0x20 DUP3 ADD SWAP1 POP SWAP2 SWAP1 POP JUMP JUMPDEST PUSH0 PUSH1 0x20 DUP3 ADD SWAP1 POP DUP2 DUP2 SUB PUSH0 DUP4 ADD MSTORE PUSH2 0x1C14 DUP2 PUSH2 0x1BDB JUMP JUMPDEST SWAP1 POP SWAP2 SWAP1 POP JUMP JUMPDEST PUSH32 0x4E487B7100000000000000000000000000000000000000000000000000000000 PUSH0 MSTORE PUSH1 0x32 PUSH1 0x4 MSTORE PUSH1 0x24 PUSH0 REVERT INVALID LOG2 PUSH5 0x6970667358 0x22 SLT KECCAK256 0xB0 AND SWAP2 DELEGATECALL BLOCKHASH SMOD 0xD5 MOD EXTCODESIZE COINBASE MSTORE DUP12 ADDMOD LOG4 EXTCODESIZE POP 0x2C 0x2C CALLVALUE 0x24 SWAP8 SWAP10 BLOBHASH PUSH29 0xF4F556E930CD043364736F6C6343000819003300000000000000000000 "
	},
	"Assembly": ".code\n  PUSH 80\t\t\tcontract WalkWalk {\\r\\n    str...\n  PUSH 40\t\t\tcontract WalkWalk {\\r\\n    str...\n  MSTORE \t\t\tcontract WalkWalk {\\r\\n    str...\n  CALLVALUE \t\t\tcontract WalkWalk {\\r\\n    str...\n  DUP1 \t\t\tcontract WalkWalk {\\r\\n    str...\n  ISZERO \t\t\tcontract WalkWalk {\\r\\n    str...\n  PUSH [tag] 1\t\t\tcontract WalkWalk {\\r\\n    str...\n  JUMPI \t\t\tcontract WalkWalk {\\r\\n    str...\n  PUSH 0\t\t\tcontract WalkWalk {\\r\\n    str...\n  DUP1 \t\t\tcontract WalkWalk {\\r\\n    str...\n  REVERT \t\t\tcontract WalkWalk {\\r\\n    str...\ntag 1\t\t\tcontract WalkWalk {\\r\\n    str...\n  JUMPDEST \t\t\tcontract WalkWalk {\\r\\n    str...\n  POP \t\t\tcontract WalkWalk {\\r\\n    str...\n  PUSH #[$] 0000000000000000000000000000000000000000000000000000000000000000\t\t\tcontract WalkWalk {\\r\\n    str...\n  DUP1 \t\t\tcontract WalkWalk {\\r\\n    str...\n  PUSH [$] 0000000000000000000000000000000000000000000000000000000000000000\t\t\tcontract WalkWalk {\\r\\n    str...\n  PUSH 0\t\t\tcontract WalkWalk {\\r\\n    str...\n  CODECOPY \t\t\tcontract WalkWalk {\\r\\n    str...\n  PUSH 0\t\t\tcontract WalkWalk {\\r\\n    str...\n  RETURN \t\t\tcontract WalkWalk {\\r\\n    str...\n.data\n  0:\n    .code\n      PUSH 80\t\t\tcontract WalkWalk {\\r\\n    str...\n      PUSH 40\t\t\tcontract WalkWalk {\\r\\n    str...\n      MSTORE \t\t\tcontract WalkWalk {\\r\\n    str...\n      CALLVALUE \t\t\tcontract WalkWalk {\\r\\n    str...\n      DUP1 \t\t\tcontract WalkWalk {\\r\\n    str...\n      ISZERO \t\t\tcontract WalkWalk {\\r\\n    str...\n      PUSH [tag] 1\t\t\tcontract WalkWalk {\\r\\n    str...\n      JUMPI \t\t\tcontract WalkWalk {\\r\\n    str...\n      PUSH 0\t\t\tcontract WalkWalk {\\r\\n    str...\n      DUP1 \t\t\tcontract WalkWalk {\\r\\n    str...\n      REVERT \t\t\tcontract WalkWalk {\\r\\n    str...\n    tag 1\t\t\tcontract WalkWalk {\\r\\n    str...\n      JUMPDEST \t\t\tcontract WalkWalk {\\r\\n    str...\n      POP \t\t\tcontract WalkWalk {\\r\\n    str...\n      PUSH 4\t\t\tcontract WalkWalk {\\r\\n    str...\n      CALLDATASIZE \t\t\tcontract WalkWalk {\\r\\n    str...\n      LT \t\t\tcontract WalkWalk {\\r\\n    str...\n      PUSH [tag] 2\t\t\tcontract WalkWalk {\\r\\n    str...\n      JUMPI \t\t\tcontract WalkWalk {\\r\\n    str...\n      PUSH 0\t\t\tcontract WalkWalk {\\r\\n    str...\n      CALLDATALOAD \t\t\tcontract WalkWalk {\\r\\n    str...\n      PUSH E0\t\t\tcontract WalkWalk {\\r\\n    str...\n      SHR \t\t\tcontract WalkWalk {\\r\\n    str...\n      DUP1 \t\t\tcontract WalkWalk {\\r\\n    str...\n      PUSH F7EE1EC\t\t\tcontract WalkWalk {\\r\\n    str...\n      EQ \t\t\tcontract WalkWalk {\\r\\n    str...\n      PUSH [tag] 3\t\t\tcontract WalkWalk {\\r\\n    str...\n      JUMPI \t\t\tcontract WalkWalk {\\r\\n    str...\n      DUP1 \t\t\tcontract WalkWalk {\\r\\n    str...\n      PUSH 197D23B0\t\t\tcontract WalkWalk {\\r\\n    str...\n      EQ \t\t\tcontract WalkWalk {\\r\\n    str...\n      PUSH [tag] 4\t\t\tcontract WalkWalk {\\r\\n    str...\n      JUMPI \t\t\tcontract WalkWalk {\\r\\n    str...\n      DUP1 \t\t\tcontract WalkWalk {\\r\\n    str...\n      PUSH 32E7847B\t\t\tcontract WalkWalk {\\r\\n    str...\n      EQ \t\t\tcontract WalkWalk {\\r\\n    str...\n      PUSH [tag] 5\t\t\tcontract WalkWalk {\\r\\n    str...\n      JUMPI \t\t\tcontract WalkWalk {\\r\\n    str...\n      DUP1 \t\t\tcontract WalkWalk {\\r\\n    str...\n      PUSH 420ACFF3\t\t\tcontract WalkWalk {\\r\\n    str...\n      EQ \t\t\tcontract WalkWalk {\\r\\n    str...\n      PUSH [tag] 6\t\t\tcontract WalkWalk {\\r\\n    str...\n      JUMPI \t\t\tcontract WalkWalk {\\r\\n    str...\n      DUP1 \t\t\tcontract WalkWalk {\\r\\n    str...\n      PUSH B63E6AC3\t\t\tcontract WalkWalk {\\r\\n    str...\n      EQ \t\t\tcontract WalkWalk {\\r\\n    str...\n      PUSH [tag] 7\t\t\tcontract WalkWalk {\\r\\n    str...\n      JUMPI \t\t\tcontract WalkWalk {\\r\\n    str...\n      DUP1 \t\t\tcontract WalkWalk {\\r\\n    str...\n      PUSH C1800E81\t\t\tcontract WalkWalk {\\r\\n    str...\n      EQ \t\t\tcontract WalkWalk {\\r\\n    str...\n      PUSH [tag] 8\t\t\tcontract WalkWalk {\\r\\n    str...\n      JUMPI \t\t\tcontract WalkWalk {\\r\\n    str...\n    tag 2\t\t\tcontract WalkWalk {\\r\\n    str...\n      JUMPDEST \t\t\tcontract WalkWalk {\\r\\n    str...\n      PUSH 0\t\t\tcontract WalkWalk {\\r\\n    str...\n      DUP1 \t\t\tcontract WalkWalk {\\r\\n    str...\n      REVERT \t\t\tcontract WalkWalk {\\r\\n    str...\n    tag 3\t\t\t 이벤트 선언\\r\\n    event Exerci\n      JUMPDEST \t\t\t 이벤트 선언\\r\\n    event Exerci\n      PUSH [tag] 9\t\t\t 이벤트 선언\\r\\n    event Exerci\n      PUSH 4\t\t\t 이벤트 선언\\r\\n    event Exerci\n      DUP1 \t\t\t 이벤트 선언\\r\\n    event Exerci\n      CALLDATASIZE \t\t\t 이벤트 선언\\r\\n    event Exerci\n      SUB \t\t\t 이벤트 선언\\r\\n    event Exerci\n      DUP2 \t\t\t 이벤트 선언\\r\\n    event Exerci\n      ADD \t\t\t 이벤트 선언\\r\\n    event Exerci\n      SWAP1 \t\t\t 이벤트 선언\\r\\n    event Exerci\n      PUSH [tag] 10\t\t\t 이벤트 선언\\r\\n    event Exerci\n      SWAP2 \t\t\t 이벤트 선언\\r\\n    event Exerci\n      SWAP1 \t\t\t 이벤트 선언\\r\\n    event Exerci\n      PUSH [tag] 11\t\t\t 이벤트 선언\\r\\n    event Exerci\n      JUMP \t\t\t 이벤트 선언\\r\\n    event Exerci\n    tag 10\t\t\t 이벤트 선언\\r\\n    event Exerci\n      JUMPDEST \t\t\t 이벤트 선언\\r\\n    event Exerci\n      PUSH [tag] 12\t\t\t 이벤트 선언\\r\\n    event Exerci\n      JUMP \t\t\t 이벤트 선언\\r\\n    event Exerci\n    tag 9\t\t\t 이벤트 선언\\r\\n    event Exerci\n      JUMPDEST \t\t\t 이벤트 선언\\r\\n    event Exerci\n      PUSH 40\t\t\t 이벤트 선언\\r\\n    event Exerci\n      MLOAD \t\t\t 이벤트 선언\\r\\n    event Exerci\n      PUSH [tag] 13\t\t\t 이벤트 선언\\r\\n    event Exerci\n      SWAP7 \t\t\t 이벤트 선언\\r\\n    event Exerci\n      SWAP6 \t\t\t 이벤트 선언\\r\\n    event Exerci\n      SWAP5 \t\t\t 이벤트 선언\\r\\n    event Exerci\n      SWAP4 \t\t\t 이벤트 선언\\r\\n    event Exerci\n      SWAP3 \t\t\t 이벤트 선언\\r\\n    event Exerci\n      SWAP2 \t\t\t 이벤트 선언\\r\\n    event Exerci\n      SWAP1 \t\t\t 이벤트 선언\\r\\n    event Exerci\n      PUSH [tag] 14\t\t\t 이벤트 선언\\r\\n    event Exerci\n      JUMP \t\t\t 이벤트 선언\\r\\n    event Exerci\n    tag 13\t\t\t 이벤트 선언\\r\\n    event Exerci\n      JUMPDEST \t\t\t 이벤트 선언\\r\\n    event Exerci\n      PUSH 40\t\t\t 이벤트 선언\\r\\n    event Exerci\n      MLOAD \t\t\t 이벤트 선언\\r\\n    event Exerci\n      DUP1 \t\t\t 이벤트 선언\\r\\n    event Exerci\n      SWAP2 \t\t\t 이벤트 선언\\r\\n    event Exerci\n      SUB \t\t\t 이벤트 선언\\r\\n    event Exerci\n      SWAP1 \t\t\t 이벤트 선언\\r\\n    event Exerci\n      RETURN \t\t\t 이벤트 선언\\r\\n    event Exerci\n    tag 4\t\t\tt exerciseMinute, string memor...\n      JUMPDEST \t\t\tt exerciseMinute, string memor...\n      PUSH [tag] 15\t\t\tt exerciseMinute, string memor...\n      PUSH 4\t\t\tt exerciseMinute, string memor...\n      DUP1 \t\t\tt exerciseMinute, string memor...\n      CALLDATASIZE \t\t\tt exerciseMinute, string memor...\n      SUB \t\t\tt exerciseMinute, string memor...\n      DUP2 \t\t\tt exerciseMinute, string memor...\n      ADD \t\t\tt exerciseMinute, string memor...\n      SWAP1 \t\t\tt exerciseMinute, string memor...\n      PUSH [tag] 16\t\t\tt exerciseMinute, string memor...\n      SWAP2 \t\t\tt exerciseMinute, string memor...\n      SWAP1 \t\t\tt exerciseMinute, string memor...\n      PUSH [tag] 17\t\t\tt exerciseMinute, string memor...\n      JUMP \t\t\tt exerciseMinute, string memor...\n    tag 16\t\t\tt exerciseMinute, string memor...\n      JUMPDEST \t\t\tt exerciseMinute, string memor...\n      PUSH [tag] 18\t\t\tt exerciseMinute, string memor...\n      JUMP \t\t\tt exerciseMinute, string memor...\n    tag 15\t\t\tt exerciseMinute, string memor...\n      JUMPDEST \t\t\tt exerciseMinute, string memor...\n      STOP \t\t\tt exerciseMinute, string memor...\n    tag 5\t\t\ton, string memory createdAt, u...\n      JUMPDEST \t\t\ton, string memory createdAt, u...\n      PUSH [tag] 19\t\t\ton, string memory createdAt, u...\n      PUSH 4\t\t\ton, string memory createdAt, u...\n      DUP1 \t\t\ton, string memory createdAt, u...\n      CALLDATASIZE \t\t\ton, string memory createdAt, u...\n      SUB \t\t\ton, string memory createdAt, u...\n      DUP2 \t\t\ton, string memory createdAt, u...\n      ADD \t\t\ton, string memory createdAt, u...\n      SWAP1 \t\t\ton, string memory createdAt, u...\n      PUSH [tag] 20\t\t\ton, string memory createdAt, u...\n      SWAP2 \t\t\ton, string memory createdAt, u...\n      SWAP1 \t\t\ton, string memory createdAt, u...\n      PUSH [tag] 21\t\t\ton, string memory createdAt, u...\n      JUMP \t\t\ton, string memory createdAt, u...\n    tag 20\t\t\ton, string memory createdAt, u...\n      JUMPDEST \t\t\ton, string memory createdAt, u...\n      PUSH [tag] 22\t\t\ton, string memory createdAt, u...\n      JUMP \t\t\ton, string memory createdAt, u...\n    tag 19\t\t\ton, string memory createdAt, u...\n      JUMPDEST \t\t\ton, string memory createdAt, u...\n      PUSH 40\t\t\ton, string memory createdAt, u...\n      MLOAD \t\t\ton, string memory createdAt, u...\n      PUSH [tag] 23\t\t\ton, string memory createdAt, u...\n      SWAP2 \t\t\ton, string memory createdAt, u...\n      SWAP1 \t\t\ton, string memory createdAt, u...\n      PUSH [tag] 24\t\t\ton, string memory createdAt, u...\n      JUMP \t\t\ton, string memory createdAt, u...\n    tag 23\t\t\ton, string memory createdAt, u...\n      JUMPDEST \t\t\ton, string memory createdAt, u...\n      PUSH 40\t\t\ton, string memory createdAt, u...\n      MLOAD \t\t\ton, string memory createdAt, u...\n      DUP1 \t\t\ton, string memory createdAt, u...\n      SWAP2 \t\t\ton, string memory createdAt, u...\n      SUB \t\t\ton, string memory createdAt, u...\n      SWAP1 \t\t\ton, string memory createdAt, u...\n      RETURN \t\t\ton, string memory createdAt, u...\n    tag 6\t\t\t     require(exerciseDatas[id]...\n      JUMPDEST \t\t\t     require(exerciseDatas[id]...\n      PUSH [tag] 25\t\t\t     require(exerciseDatas[id]...\n      PUSH 4\t\t\t     require(exerciseDatas[id]...\n      DUP1 \t\t\t     require(exerciseDatas[id]...\n      CALLDATASIZE \t\t\t     require(exerciseDatas[id]...\n      SUB \t\t\t     require(exerciseDatas[id]...\n      DUP2 \t\t\t     require(exerciseDatas[id]...\n      ADD \t\t\t     require(exerciseDatas[id]...\n      SWAP1 \t\t\t     require(exerciseDatas[id]...\n      PUSH [tag] 26\t\t\t     require(exerciseDatas[id]...\n      SWAP2 \t\t\t     require(exerciseDatas[id]...\n      SWAP1 \t\t\t     require(exerciseDatas[id]...\n      PUSH [tag] 11\t\t\t     require(exerciseDatas[id]...\n      JUMP \t\t\t     require(exerciseDatas[id]...\n    tag 26\t\t\t     require(exerciseDatas[id]...\n      JUMPDEST \t\t\t     require(exerciseDatas[id]...\n      PUSH [tag] 27\t\t\t     require(exerciseDatas[id]...\n      JUMP \t\t\t     require(exerciseDatas[id]...\n    tag 25\t\t\t     require(exerciseDatas[id]...\n      JUMPDEST \t\t\t     require(exerciseDatas[id]...\n      PUSH 40\t\t\t     require(exerciseDatas[id]...\n      MLOAD \t\t\t     require(exerciseDatas[id]...\n      PUSH [tag] 28\t\t\t     require(exerciseDatas[id]...\n      SWAP2 \t\t\t     require(exerciseDatas[id]...\n      SWAP1 \t\t\t     require(exerciseDatas[id]...\n      PUSH [tag] 29\t\t\t     require(exerciseDatas[id]...\n      JUMP \t\t\t     require(exerciseDatas[id]...\n    tag 28\t\t\t     require(exerciseDatas[id]...\n      JUMPDEST \t\t\t     require(exerciseDatas[id]...\n      PUSH 40\t\t\t     require(exerciseDatas[id]...\n      MLOAD \t\t\t     require(exerciseDatas[id]...\n      DUP1 \t\t\t     require(exerciseDatas[id]...\n      SWAP2 \t\t\t     require(exerciseDatas[id]...\n      SUB \t\t\t     require(exerciseDatas[id]...\n      SWAP1 \t\t\t     require(exerciseDatas[id]...\n      RETURN \t\t\t     require(exerciseDatas[id]...\n    tag 7\t\t\t \"Receipt does not exist.\");\\r...\n      JUMPDEST \t\t\t \"Receipt does not exist.\");\\r...\n      PUSH [tag] 30\t\t\t \"Receipt does not exist.\");\\r...\n      PUSH 4\t\t\t \"Receipt does not exist.\");\\r...\n      DUP1 \t\t\t \"Receipt does not exist.\");\\r...\n      CALLDATASIZE \t\t\t \"Receipt does not exist.\");\\r...\n      SUB \t\t\t \"Receipt does not exist.\");\\r...\n      DUP2 \t\t\t \"Receipt does not exist.\");\\r...\n      ADD \t\t\t \"Receipt does not exist.\");\\r...\n      SWAP1 \t\t\t \"Receipt does not exist.\");\\r...\n      PUSH [tag] 31\t\t\t \"Receipt does not exist.\");\\r...\n      SWAP2 \t\t\t \"Receipt does not exist.\");\\r...\n      SWAP1 \t\t\t \"Receipt does not exist.\");\\r...\n      PUSH [tag] 11\t\t\t \"Receipt does not exist.\");\\r...\n      JUMP \t\t\t \"Receipt does not exist.\");\\r...\n    tag 31\t\t\t \"Receipt does not exist.\");\\r...\n      JUMPDEST \t\t\t \"Receipt does not exist.\");\\r...\n      PUSH [tag] 32\t\t\t \"Receipt does not exist.\");\\r...\n      JUMP \t\t\t \"Receipt does not exist.\");\\r...\n    tag 30\t\t\t \"Receipt does not exist.\");\\r...\n      JUMPDEST \t\t\t \"Receipt does not exist.\");\\r...\n      PUSH 40\t\t\t \"Receipt does not exist.\");\\r...\n      MLOAD \t\t\t \"Receipt does not exist.\");\\r...\n      PUSH [tag] 33\t\t\t \"Receipt does not exist.\");\\r...\n      SWAP2 \t\t\t \"Receipt does not exist.\");\\r...\n      SWAP1 \t\t\t \"Receipt does not exist.\");\\r...\n      PUSH [tag] 34\t\t\t \"Receipt does not exist.\");\\r...\n      JUMP \t\t\t \"Receipt does not exist.\");\\r...\n    tag 33\t\t\t \"Receipt does not exist.\");\\r...\n      JUMPDEST \t\t\t \"Receipt does not exist.\");\\r...\n      PUSH 40\t\t\t \"Receipt does not exist.\");\\r...\n      MLOAD \t\t\t \"Receipt does not exist.\");\\r...\n      DUP1 \t\t\t \"Receipt does not exist.\");\\r...\n      SWAP2 \t\t\t \"Receipt does not exist.\");\\r...\n      SUB \t\t\t \"Receipt does not exist.\");\\r...\n      SWAP1 \t\t\t \"Receipt does not exist.\");\\r...\n      RETURN \t\t\t \"Receipt does not exist.\");\\r...\n    tag 8\t\t\tExerciseData) public exerciseD...\n      JUMPDEST \t\t\tExerciseData) public exerciseD...\n      PUSH [tag] 35\t\t\tExerciseData) public exerciseD...\n      PUSH 4\t\t\tExerciseData) public exerciseD...\n      DUP1 \t\t\tExerciseData) public exerciseD...\n      CALLDATASIZE \t\t\tExerciseData) public exerciseD...\n      SUB \t\t\tExerciseData) public exerciseD...\n      DUP2 \t\t\tExerciseData) public exerciseD...\n      ADD \t\t\tExerciseData) public exerciseD...\n      SWAP1 \t\t\tExerciseData) public exerciseD...\n      PUSH [tag] 36\t\t\tExerciseData) public exerciseD...\n      SWAP2 \t\t\tExerciseData) public exerciseD...\n      SWAP1 \t\t\tExerciseData) public exerciseD...\n      PUSH [tag] 11\t\t\tExerciseData) public exerciseD...\n      JUMP \t\t\tExerciseData) public exerciseD...\n    tag 36\t\t\tExerciseData) public exerciseD...\n      JUMPDEST \t\t\tExerciseData) public exerciseD...\n      PUSH [tag] 37\t\t\tExerciseData) public exerciseD...\n      JUMP \t\t\tExerciseData) public exerciseD...\n    tag 35\t\t\tExerciseData) public exerciseD...\n      JUMPDEST \t\t\tExerciseData) public exerciseD...\n      PUSH 40\t\t\tExerciseData) public exerciseD...\n      MLOAD \t\t\tExerciseData) public exerciseD...\n      PUSH [tag] 38\t\t\tExerciseData) public exerciseD...\n      SWAP10 \t\t\tExerciseData) public exerciseD...\n      SWAP9 \t\t\tExerciseData) public exerciseD...\n      SWAP8 \t\t\tExerciseData) public exerciseD...\n      SWAP7 \t\t\tExerciseData) public exerciseD...\n      SWAP6 \t\t\tExerciseData) public exerciseD...\n      SWAP5 \t\t\tExerciseData) public exerciseD...\n      SWAP4 \t\t\tExerciseData) public exerciseD...\n      SWAP3 \t\t\tExerciseData) public exerciseD...\n      SWAP2 \t\t\tExerciseData) public exerciseD...\n      SWAP1 \t\t\tExerciseData) public exerciseD...\n      PUSH [tag] 39\t\t\tExerciseData) public exerciseD...\n      JUMP \t\t\tExerciseData) public exerciseD...\n    tag 38\t\t\tExerciseData) public exerciseD...\n      JUMPDEST \t\t\tExerciseData) public exerciseD...\n      PUSH 40\t\t\tExerciseData) public exerciseD...\n      MLOAD \t\t\tExerciseData) public exerciseD...\n      DUP1 \t\t\tExerciseData) public exerciseD...\n      SWAP2 \t\t\tExerciseData) public exerciseD...\n      SUB \t\t\tExerciseData) public exerciseD...\n      SWAP1 \t\t\tExerciseData) public exerciseD...\n      RETURN \t\t\tExerciseData) public exerciseD...\n    tag 12\t\t\t 이벤트 선언\\r\\n    event Exerci\n      JUMPDEST \t\t\t 이벤트 선언\\r\\n    event Exerci\n      PUSH 1\t\t\t 이벤트 선언\\r\\n    event Exerci\n      DUP2 \t\t\t 이벤트 선언\\r\\n    event Exerci\n      DUP2 \t\t\t 이벤트 선언\\r\\n    event Exerci\n      SLOAD \t\t\t 이벤트 선언\\r\\n    event Exerci\n      DUP2 \t\t\t 이벤트 선언\\r\\n    event Exerci\n      LT \t\t\t 이벤트 선언\\r\\n    event Exerci\n      PUSH [tag] 40\t\t\t 이벤트 선언\\r\\n    event Exerci\n      JUMPI \t\t\t 이벤트 선언\\r\\n    event Exerci\n      PUSH 0\t\t\t 이벤트 선언\\r\\n    event Exerci\n      DUP1 \t\t\t 이벤트 선언\\r\\n    event Exerci\n      REVERT \t\t\t 이벤트 선언\\r\\n    event Exerci\n    tag 40\t\t\t 이벤트 선언\\r\\n    event Exerci\n      JUMPDEST \t\t\t 이벤트 선언\\r\\n    event Exerci\n      SWAP1 \t\t\t 이벤트 선언\\r\\n    event Exerci\n      PUSH 0\t\t\t 이벤트 선언\\r\\n    event Exerci\n      MSTORE \t\t\t 이벤트 선언\\r\\n    event Exerci\n      PUSH 20\t\t\t 이벤트 선언\\r\\n    event Exerci\n      PUSH 0\t\t\t 이벤트 선언\\r\\n    event Exerci\n      KECCAK256 \t\t\t 이벤트 선언\\r\\n    event Exerci\n      SWAP1 \t\t\t 이벤트 선언\\r\\n    event Exerci\n      PUSH 6\t\t\t 이벤트 선언\\r\\n    event Exerci\n      MUL \t\t\t 이벤트 선언\\r\\n    event Exerci\n      ADD \t\t\t 이벤트 선언\\r\\n    event Exerci\n      PUSH 0\t\t\t 이벤트 선언\\r\\n    event Exerci\n      SWAP2 \t\t\t 이벤트 선언\\r\\n    event Exerci\n      POP \t\t\t 이벤트 선언\\r\\n    event Exerci\n      SWAP1 \t\t\t 이벤트 선언\\r\\n    event Exerci\n      POP \t\t\t 이벤트 선언\\r\\n    event Exerci\n      DUP1 \t\t\t 이벤트 선언\\r\\n    event Exerci\n      PUSH 0\t\t\t 이벤트 선언\\r\\n    event Exerci\n      ADD \t\t\t 이벤트 선언\\r\\n    event Exerci\n      DUP1 \t\t\t 이벤트 선언\\r\\n    event Exerci\n      SLOAD \t\t\t 이벤트 선언\\r\\n    event Exerci\n      PUSH [tag] 42\t\t\t 이벤트 선언\\r\\n    event Exerci\n      SWAP1 \t\t\t 이벤트 선언\\r\\n    event Exerci\n      PUSH [tag] 43\t\t\t 이벤트 선언\\r\\n    event Exerci\n      JUMP \t\t\t 이벤트 선언\\r\\n    event Exerci\n    tag 42\t\t\t 이벤트 선언\\r\\n    event Exerci\n      JUMPDEST \t\t\t 이벤트 선언\\r\\n    event Exerci\n      DUP1 \t\t\t 이벤트 선언\\r\\n    event Exerci\n      PUSH 1F\t\t\t 이벤트 선언\\r\\n    event Exerci\n      ADD \t\t\t 이벤트 선언\\r\\n    event Exerci\n      PUSH 20\t\t\t 이벤트 선언\\r\\n    event Exerci\n      DUP1 \t\t\t 이벤트 선언\\r\\n    event Exerci\n      SWAP2 \t\t\t 이벤트 선언\\r\\n    event Exerci\n      DIV \t\t\t 이벤트 선언\\r\\n    event Exerci\n      MUL \t\t\t 이벤트 선언\\r\\n    event Exerci\n      PUSH 20\t\t\t 이벤트 선언\\r\\n    event Exerci\n      ADD \t\t\t 이벤트 선언\\r\\n    event Exerci\n      PUSH 40\t\t\t 이벤트 선언\\r\\n    event Exerci\n      MLOAD \t\t\t 이벤트 선언\\r\\n    event Exerci\n      SWAP1 \t\t\t 이벤트 선언\\r\\n    event Exerci\n      DUP2 \t\t\t 이벤트 선언\\r\\n    event Exerci\n      ADD \t\t\t 이벤트 선언\\r\\n    event Exerci\n      PUSH 40\t\t\t 이벤트 선언\\r\\n    event Exerci\n      MSTORE \t\t\t 이벤트 선언\\r\\n    event Exerci\n      DUP1 \t\t\t 이벤트 선언\\r\\n    event Exerci\n      SWAP3 \t\t\t 이벤트 선언\\r\\n    event Exerci\n      SWAP2 \t\t\t 이벤트 선언\\r\\n    event Exerci\n      SWAP1 \t\t\t 이벤트 선언\\r\\n    event Exerci\n      DUP2 \t\t\t 이벤트 선언\\r\\n    event Exerci\n      DUP2 \t\t\t 이벤트 선언\\r\\n    event Exerci\n      MSTORE \t\t\t 이벤트 선언\\r\\n    event Exerci\n      PUSH 20\t\t\t 이벤트 선언\\r\\n    event Exerci\n      ADD \t\t\t 이벤트 선언\\r\\n    event Exerci\n      DUP3 \t\t\t 이벤트 선언\\r\\n    event Exerci\n      DUP1 \t\t\t 이벤트 선언\\r\\n    event Exerci\n      SLOAD \t\t\t 이벤트 선언\\r\\n    event Exerci\n      PUSH [tag] 44\t\t\t 이벤트 선언\\r\\n    event Exerci\n      SWAP1 \t\t\t 이벤트 선언\\r\\n    event Exerci\n      PUSH [tag] 43\t\t\t 이벤트 선언\\r\\n    event Exerci\n      JUMP \t\t\t 이벤트 선언\\r\\n    event Exerci\n    tag 44\t\t\t 이벤트 선언\\r\\n    event Exerci\n      JUMPDEST \t\t\t 이벤트 선언\\r\\n    event Exerci\n      DUP1 \t\t\t 이벤트 선언\\r\\n    event Exerci\n      ISZERO \t\t\t 이벤트 선언\\r\\n    event Exerci\n      PUSH [tag] 45\t\t\t 이벤트 선언\\r\\n    event Exerci\n      JUMPI \t\t\t 이벤트 선언\\r\\n    event Exerci\n      DUP1 \t\t\t 이벤트 선언\\r\\n    event Exerci\n      PUSH 1F\t\t\t 이벤트 선언\\r\\n    event Exerci\n      LT \t\t\t 이벤트 선언\\r\\n    event Exerci\n      PUSH [tag] 46\t\t\t 이벤트 선언\\r\\n    event Exerci\n      JUMPI \t\t\t 이벤트 선언\\r\\n    event Exerci\n      PUSH 100\t\t\t 이벤트 선언\\r\\n    event Exerci\n      DUP1 \t\t\t 이벤트 선언\\r\\n    event Exerci\n      DUP4 \t\t\t 이벤트 선언\\r\\n    event Exerci\n      SLOAD \t\t\t 이벤트 선언\\r\\n    event Exerci\n      DIV \t\t\t 이벤트 선언\\r\\n    event Exerci\n      MUL \t\t\t 이벤트 선언\\r\\n    event Exerci\n      DUP4 \t\t\t 이벤트 선언\\r\\n    event Exerci\n      MSTORE \t\t\t 이벤트 선언\\r\\n    event Exerci\n      SWAP2 \t\t\t 이벤트 선언\\r\\n    event Exerci\n      PUSH 20\t\t\t 이벤트 선언\\r\\n    event Exerci\n      ADD \t\t\t 이벤트 선언\\r\\n    event Exerci\n      SWAP2 \t\t\t 이벤트 선언\\r\\n    event Exerci\n      PUSH [tag] 45\t\t\t 이벤트 선언\\r\\n    event Exerci\n      JUMP \t\t\t 이벤트 선언\\r\\n    event Exerci\n    tag 46\t\t\t 이벤트 선언\\r\\n    event Exerci\n      JUMPDEST \t\t\t 이벤트 선언\\r\\n    event Exerci\n      DUP3 \t\t\t 이벤트 선언\\r\\n    event Exerci\n      ADD \t\t\t 이벤트 선언\\r\\n    event Exerci\n      SWAP2 \t\t\t 이벤트 선언\\r\\n    event Exerci\n      SWAP1 \t\t\t 이벤트 선언\\r\\n    event Exerci\n      PUSH 0\t\t\t 이벤트 선언\\r\\n    event Exerci\n      MSTORE \t\t\t 이벤트 선언\\r\\n    event Exerci\n      PUSH 20\t\t\t 이벤트 선언\\r\\n    event Exerci\n      PUSH 0\t\t\t 이벤트 선언\\r\\n    event Exerci\n      KECCAK256 \t\t\t 이벤트 선언\\r\\n    event Exerci\n      SWAP1 \t\t\t 이벤트 선언\\r\\n    event Exerci\n    tag 47\t\t\t 이벤트 선언\\r\\n    event Exerci\n      JUMPDEST \t\t\t 이벤트 선언\\r\\n    event Exerci\n      DUP2 \t\t\t 이벤트 선언\\r\\n    event Exerci\n      SLOAD \t\t\t 이벤트 선언\\r\\n    event Exerci\n      DUP2 \t\t\t 이벤트 선언\\r\\n    event Exerci\n      MSTORE \t\t\t 이벤트 선언\\r\\n    event Exerci\n      SWAP1 \t\t\t 이벤트 선언\\r\\n    event Exerci\n      PUSH 1\t\t\t 이벤트 선언\\r\\n    event Exerci\n      ADD \t\t\t 이벤트 선언\\r\\n    event Exerci\n      SWAP1 \t\t\t 이벤트 선언\\r\\n    event Exerci\n      PUSH 20\t\t\t 이벤트 선언\\r\\n    event Exerci\n      ADD \t\t\t 이벤트 선언\\r\\n    event Exerci\n      DUP1 \t\t\t 이벤트 선언\\r\\n    event Exerci\n      DUP4 \t\t\t 이벤트 선언\\r\\n    event Exerci\n      GT \t\t\t 이벤트 선언\\r\\n    event Exerci\n      PUSH [tag] 47\t\t\t 이벤트 선언\\r\\n    event Exerci\n      JUMPI \t\t\t 이벤트 선언\\r\\n    event Exerci\n      DUP3 \t\t\t 이벤트 선언\\r\\n    event Exerci\n      SWAP1 \t\t\t 이벤트 선언\\r\\n    event Exerci\n      SUB \t\t\t 이벤트 선언\\r\\n    event Exerci\n      PUSH 1F\t\t\t 이벤트 선언\\r\\n    event Exerci\n      AND \t\t\t 이벤트 선언\\r\\n    event Exerci\n      DUP3 \t\t\t 이벤트 선언\\r\\n    event Exerci\n      ADD \t\t\t 이벤트 선언\\r\\n    event Exerci\n      SWAP2 \t\t\t 이벤트 선언\\r\\n    event Exerci\n    tag 45\t\t\t 이벤트 선언\\r\\n    event Exerci\n      JUMPDEST \t\t\t 이벤트 선언\\r\\n    event Exerci\n      POP \t\t\t 이벤트 선언\\r\\n    event Exerci\n      POP \t\t\t 이벤트 선언\\r\\n    event Exerci\n      POP \t\t\t 이벤트 선언\\r\\n    event Exerci\n      POP \t\t\t 이벤트 선언\\r\\n    event Exerci\n      POP \t\t\t 이벤트 선언\\r\\n    event Exerci\n      SWAP1 \t\t\t 이벤트 선언\\r\\n    event Exerci\n      DUP1 \t\t\t 이벤트 선언\\r\\n    event Exerci\n      PUSH 1\t\t\t 이벤트 선언\\r\\n    event Exerci\n      ADD \t\t\t 이벤트 선언\\r\\n    event Exerci\n      PUSH 0\t\t\t 이벤트 선언\\r\\n    event Exerci\n      SWAP1 \t\t\t 이벤트 선언\\r\\n    event Exerci\n      SLOAD \t\t\t 이벤트 선언\\r\\n    event Exerci\n      SWAP1 \t\t\t 이벤트 선언\\r\\n    event Exerci\n      PUSH 100\t\t\t 이벤트 선언\\r\\n    event Exerci\n      EXP \t\t\t 이벤트 선언\\r\\n    event Exerci\n      SWAP1 \t\t\t 이벤트 선언\\r\\n    event Exerci\n      DIV \t\t\t 이벤트 선언\\r\\n    event Exerci\n      PUSH FF\t\t\t 이벤트 선언\\r\\n    event Exerci\n      AND \t\t\t 이벤트 선언\\r\\n    event Exerci\n      SWAP1 \t\t\t 이벤트 선언\\r\\n    event Exerci\n      DUP1 \t\t\t 이벤트 선언\\r\\n    event Exerci\n      PUSH 2\t\t\t 이벤트 선언\\r\\n    event Exerci\n      ADD \t\t\t 이벤트 선언\\r\\n    event Exerci\n      SLOAD \t\t\t 이벤트 선언\\r\\n    event Exerci\n      SWAP1 \t\t\t 이벤트 선언\\r\\n    event Exerci\n      DUP1 \t\t\t 이벤트 선언\\r\\n    event Exerci\n      PUSH 3\t\t\t 이벤트 선언\\r\\n    event Exerci\n      ADD \t\t\t 이벤트 선언\\r\\n    event Exerci\n      DUP1 \t\t\t 이벤트 선언\\r\\n    event Exerci\n      SLOAD \t\t\t 이벤트 선언\\r\\n    event Exerci\n      PUSH [tag] 48\t\t\t 이벤트 선언\\r\\n    event Exerci\n      SWAP1 \t\t\t 이벤트 선언\\r\\n    event Exerci\n      PUSH [tag] 43\t\t\t 이벤트 선언\\r\\n    event Exerci\n      JUMP \t\t\t 이벤트 선언\\r\\n    event Exerci\n    tag 48\t\t\t 이벤트 선언\\r\\n    event Exerci\n      JUMPDEST \t\t\t 이벤트 선언\\r\\n    event Exerci\n      DUP1 \t\t\t 이벤트 선언\\r\\n    event Exerci\n      PUSH 1F\t\t\t 이벤트 선언\\r\\n    event Exerci\n      ADD \t\t\t 이벤트 선언\\r\\n    event Exerci\n      PUSH 20\t\t\t 이벤트 선언\\r\\n    event Exerci\n      DUP1 \t\t\t 이벤트 선언\\r\\n    event Exerci\n      SWAP2 \t\t\t 이벤트 선언\\r\\n    event Exerci\n      DIV \t\t\t 이벤트 선언\\r\\n    event Exerci\n      MUL \t\t\t 이벤트 선언\\r\\n    event Exerci\n      PUSH 20\t\t\t 이벤트 선언\\r\\n    event Exerci\n      ADD \t\t\t 이벤트 선언\\r\\n    event Exerci\n      PUSH 40\t\t\t 이벤트 선언\\r\\n    event Exerci\n      MLOAD \t\t\t 이벤트 선언\\r\\n    event Exerci\n      SWAP1 \t\t\t 이벤트 선언\\r\\n    event Exerci\n      DUP2 \t\t\t 이벤트 선언\\r\\n    event Exerci\n      ADD \t\t\t 이벤트 선언\\r\\n    event Exerci\n      PUSH 40\t\t\t 이벤트 선언\\r\\n    event Exerci\n      MSTORE \t\t\t 이벤트 선언\\r\\n    event Exerci\n      DUP1 \t\t\t 이벤트 선언\\r\\n    event Exerci\n      SWAP3 \t\t\t 이벤트 선언\\r\\n    event Exerci\n      SWAP2 \t\t\t 이벤트 선언\\r\\n    event Exerci\n      SWAP1 \t\t\t 이벤트 선언\\r\\n    event Exerci\n      DUP2 \t\t\t 이벤트 선언\\r\\n    event Exerci\n      DUP2 \t\t\t 이벤트 선언\\r\\n    event Exerci\n      MSTORE \t\t\t 이벤트 선언\\r\\n    event Exerci\n      PUSH 20\t\t\t 이벤트 선언\\r\\n    event Exerci\n      ADD \t\t\t 이벤트 선언\\r\\n    event Exerci\n      DUP3 \t\t\t 이벤트 선언\\r\\n    event Exerci\n      DUP1 \t\t\t 이벤트 선언\\r\\n    event Exerci\n      SLOAD \t\t\t 이벤트 선언\\r\\n    event Exerci\n      PUSH [tag] 49\t\t\t 이벤트 선언\\r\\n    event Exerci\n      SWAP1 \t\t\t 이벤트 선언\\r\\n    event Exerci\n      PUSH [tag] 43\t\t\t 이벤트 선언\\r\\n    event Exerci\n      JUMP \t\t\t 이벤트 선언\\r\\n    event Exerci\n    tag 49\t\t\t 이벤트 선언\\r\\n    event Exerci\n      JUMPDEST \t\t\t 이벤트 선언\\r\\n    event Exerci\n      DUP1 \t\t\t 이벤트 선언\\r\\n    event Exerci\n      ISZERO \t\t\t 이벤트 선언\\r\\n    event Exerci\n      PUSH [tag] 50\t\t\t 이벤트 선언\\r\\n    event Exerci\n      JUMPI \t\t\t 이벤트 선언\\r\\n    event Exerci\n      DUP1 \t\t\t 이벤트 선언\\r\\n    event Exerci\n      PUSH 1F\t\t\t 이벤트 선언\\r\\n    event Exerci\n      LT \t\t\t 이벤트 선언\\r\\n    event Exerci\n      PUSH [tag] 51\t\t\t 이벤트 선언\\r\\n    event Exerci\n      JUMPI \t\t\t 이벤트 선언\\r\\n    event Exerci\n      PUSH 100\t\t\t 이벤트 선언\\r\\n    event Exerci\n      DUP1 \t\t\t 이벤트 선언\\r\\n    event Exerci\n      DUP4 \t\t\t 이벤트 선언\\r\\n    event Exerci\n      SLOAD \t\t\t 이벤트 선언\\r\\n    event Exerci\n      DIV \t\t\t 이벤트 선언\\r\\n    event Exerci\n      MUL \t\t\t 이벤트 선언\\r\\n    event Exerci\n      DUP4 \t\t\t 이벤트 선언\\r\\n    event Exerci\n      MSTORE \t\t\t 이벤트 선언\\r\\n    event Exerci\n      SWAP2 \t\t\t 이벤트 선언\\r\\n    event Exerci\n      PUSH 20\t\t\t 이벤트 선언\\r\\n    event Exerci\n      ADD \t\t\t 이벤트 선언\\r\\n    event Exerci\n      SWAP2 \t\t\t 이벤트 선언\\r\\n    event Exerci\n      PUSH [tag] 50\t\t\t 이벤트 선언\\r\\n    event Exerci\n      JUMP \t\t\t 이벤트 선언\\r\\n    event Exerci\n    tag 51\t\t\t 이벤트 선언\\r\\n    event Exerci\n      JUMPDEST \t\t\t 이벤트 선언\\r\\n    event Exerci\n      DUP3 \t\t\t 이벤트 선언\\r\\n    event Exerci\n      ADD \t\t\t 이벤트 선언\\r\\n    event Exerci\n      SWAP2 \t\t\t 이벤트 선언\\r\\n    event Exerci\n      SWAP1 \t\t\t 이벤트 선언\\r\\n    event Exerci\n      PUSH 0\t\t\t 이벤트 선언\\r\\n    event Exerci\n      MSTORE \t\t\t 이벤트 선언\\r\\n    event Exerci\n      PUSH 20\t\t\t 이벤트 선언\\r\\n    event Exerci\n      PUSH 0\t\t\t 이벤트 선언\\r\\n    event Exerci\n      KECCAK256 \t\t\t 이벤트 선언\\r\\n    event Exerci\n      SWAP1 \t\t\t 이벤트 선언\\r\\n    event Exerci\n    tag 52\t\t\t 이벤트 선언\\r\\n    event Exerci\n      JUMPDEST \t\t\t 이벤트 선언\\r\\n    event Exerci\n      DUP2 \t\t\t 이벤트 선언\\r\\n    event Exerci\n      SLOAD \t\t\t 이벤트 선언\\r\\n    event Exerci\n      DUP2 \t\t\t 이벤트 선언\\r\\n    event Exerci\n      MSTORE \t\t\t 이벤트 선언\\r\\n    event Exerci\n      SWAP1 \t\t\t 이벤트 선언\\r\\n    event Exerci\n      PUSH 1\t\t\t 이벤트 선언\\r\\n    event Exerci\n      ADD \t\t\t 이벤트 선언\\r\\n    event Exerci\n      SWAP1 \t\t\t 이벤트 선언\\r\\n    event Exerci\n      PUSH 20\t\t\t 이벤트 선언\\r\\n    event Exerci\n      ADD \t\t\t 이벤트 선언\\r\\n    event Exerci\n      DUP1 \t\t\t 이벤트 선언\\r\\n    event Exerci\n      DUP4 \t\t\t 이벤트 선언\\r\\n    event Exerci\n      GT \t\t\t 이벤트 선언\\r\\n    event Exerci\n      PUSH [tag] 52\t\t\t 이벤트 선언\\r\\n    event Exerci\n      JUMPI \t\t\t 이벤트 선언\\r\\n    event Exerci\n      DUP3 \t\t\t 이벤트 선언\\r\\n    event Exerci\n      SWAP1 \t\t\t 이벤트 선언\\r\\n    event Exerci\n      SUB \t\t\t 이벤트 선언\\r\\n    event Exerci\n      PUSH 1F\t\t\t 이벤트 선언\\r\\n    event Exerci\n      AND \t\t\t 이벤트 선언\\r\\n    event Exerci\n      DUP3 \t\t\t 이벤트 선언\\r\\n    event Exerci\n      ADD \t\t\t 이벤트 선언\\r\\n    event Exerci\n      SWAP2 \t\t\t 이벤트 선언\\r\\n    event Exerci\n    tag 50\t\t\t 이벤트 선언\\r\\n    event Exerci\n      JUMPDEST \t\t\t 이벤트 선언\\r\\n    event Exerci\n      POP \t\t\t 이벤트 선언\\r\\n    event Exerci\n      POP \t\t\t 이벤트 선언\\r\\n    event Exerci\n      POP \t\t\t 이벤트 선언\\r\\n    event Exerci\n      POP \t\t\t 이벤트 선언\\r\\n    event Exerci\n      POP \t\t\t 이벤트 선언\\r\\n    event Exerci\n      SWAP1 \t\t\t 이벤트 선언\\r\\n    event Exerci\n      DUP1 \t\t\t 이벤트 선언\\r\\n    event Exerci\n      PUSH 4\t\t\t 이벤트 선언\\r\\n    event Exerci\n      ADD \t\t\t 이벤트 선언\\r\\n    event Exerci\n      DUP1 \t\t\t 이벤트 선언\\r\\n    event Exerci\n      SLOAD \t\t\t 이벤트 선언\\r\\n    event Exerci\n      PUSH [tag] 53\t\t\t 이벤트 선언\\r\\n    event Exerci\n      SWAP1 \t\t\t 이벤트 선언\\r\\n    event Exerci\n      PUSH [tag] 43\t\t\t 이벤트 선언\\r\\n    event Exerci\n      JUMP \t\t\t 이벤트 선언\\r\\n    event Exerci\n    tag 53\t\t\t 이벤트 선언\\r\\n    event Exerci\n      JUMPDEST \t\t\t 이벤트 선언\\r\\n    event Exerci\n      DUP1 \t\t\t 이벤트 선언\\r\\n    event Exerci\n      PUSH 1F\t\t\t 이벤트 선언\\r\\n    event Exerci\n      ADD \t\t\t 이벤트 선언\\r\\n    event Exerci\n      PUSH 20\t\t\t 이벤트 선언\\r\\n    event Exerci\n      DUP1 \t\t\t 이벤트 선언\\r\\n    event Exerci\n      SWAP2 \t\t\t 이벤트 선언\\r\\n    event Exerci\n      DIV \t\t\t 이벤트 선언\\r\\n    event Exerci\n      MUL \t\t\t 이벤트 선언\\r\\n    event Exerci\n      PUSH 20\t\t\t 이벤트 선언\\r\\n    event Exerci\n      ADD \t\t\t 이벤트 선언\\r\\n    event Exerci\n      PUSH 40\t\t\t 이벤트 선언\\r\\n    event Exerci\n      MLOAD \t\t\t 이벤트 선언\\r\\n    event Exerci\n      SWAP1 \t\t\t 이벤트 선언\\r\\n    event Exerci\n      DUP2 \t\t\t 이벤트 선언\\r\\n    event Exerci\n      ADD \t\t\t 이벤트 선언\\r\\n    event Exerci\n      PUSH 40\t\t\t 이벤트 선언\\r\\n    event Exerci\n      MSTORE \t\t\t 이벤트 선언\\r\\n    event Exerci\n      DUP1 \t\t\t 이벤트 선언\\r\\n    event Exerci\n      SWAP3 \t\t\t 이벤트 선언\\r\\n    event Exerci\n      SWAP2 \t\t\t 이벤트 선언\\r\\n    event Exerci\n      SWAP1 \t\t\t 이벤트 선언\\r\\n    event Exerci\n      DUP2 \t\t\t 이벤트 선언\\r\\n    event Exerci\n      DUP2 \t\t\t 이벤트 선언\\r\\n    event Exerci\n      MSTORE \t\t\t 이벤트 선언\\r\\n    event Exerci\n      PUSH 20\t\t\t 이벤트 선언\\r\\n    event Exerci\n      ADD \t\t\t 이벤트 선언\\r\\n    event Exerci\n      DUP3 \t\t\t 이벤트 선언\\r\\n    event Exerci\n      DUP1 \t\t\t 이벤트 선언\\r\\n    event Exerci\n      SLOAD \t\t\t 이벤트 선언\\r\\n    event Exerci\n      PUSH [tag] 54\t\t\t 이벤트 선언\\r\\n    event Exerci\n      SWAP1 \t\t\t 이벤트 선언\\r\\n    event Exerci\n      PUSH [tag] 43\t\t\t 이벤트 선언\\r\\n    event Exerci\n      JUMP \t\t\t 이벤트 선언\\r\\n    event Exerci\n    tag 54\t\t\t 이벤트 선언\\r\\n    event Exerci\n      JUMPDEST \t\t\t 이벤트 선언\\r\\n    event Exerci\n      DUP1 \t\t\t 이벤트 선언\\r\\n    event Exerci\n      ISZERO \t\t\t 이벤트 선언\\r\\n    event Exerci\n      PUSH [tag] 55\t\t\t 이벤트 선언\\r\\n    event Exerci\n      JUMPI \t\t\t 이벤트 선언\\r\\n    event Exerci\n      DUP1 \t\t\t 이벤트 선언\\r\\n    event Exerci\n      PUSH 1F\t\t\t 이벤트 선언\\r\\n    event Exerci\n      LT \t\t\t 이벤트 선언\\r\\n    event Exerci\n      PUSH [tag] 56\t\t\t 이벤트 선언\\r\\n    event Exerci\n      JUMPI \t\t\t 이벤트 선언\\r\\n    event Exerci\n      PUSH 100\t\t\t 이벤트 선언\\r\\n    event Exerci\n      DUP1 \t\t\t 이벤트 선언\\r\\n    event Exerci\n      DUP4 \t\t\t 이벤트 선언\\r\\n    event Exerci\n      SLOAD \t\t\t 이벤트 선언\\r\\n    event Exerci\n      DIV \t\t\t 이벤트 선언\\r\\n    event Exerci\n      MUL \t\t\t 이벤트 선언\\r\\n    event Exerci\n      DUP4 \t\t\t 이벤트 선언\\r\\n    event Exerci\n      MSTORE \t\t\t 이벤트 선언\\r\\n    event Exerci\n      SWAP2 \t\t\t 이벤트 선언\\r\\n    event Exerci\n      PUSH 20\t\t\t 이벤트 선언\\r\\n    event Exerci\n      ADD \t\t\t 이벤트 선언\\r\\n    event Exerci\n      SWAP2 \t\t\t 이벤트 선언\\r\\n    event Exerci\n      PUSH [tag] 55\t\t\t 이벤트 선언\\r\\n    event Exerci\n      JUMP \t\t\t 이벤트 선언\\r\\n    event Exerci\n    tag 56\t\t\t 이벤트 선언\\r\\n    event Exerci\n      JUMPDEST \t\t\t 이벤트 선언\\r\\n    event Exerci\n      DUP3 \t\t\t 이벤트 선언\\r\\n    event Exerci\n      ADD \t\t\t 이벤트 선언\\r\\n    event Exerci\n      SWAP2 \t\t\t 이벤트 선언\\r\\n    event Exerci\n      SWAP1 \t\t\t 이벤트 선언\\r\\n    event Exerci\n      PUSH 0\t\t\t 이벤트 선언\\r\\n    event Exerci\n      MSTORE \t\t\t 이벤트 선언\\r\\n    event Exerci\n      PUSH 20\t\t\t 이벤트 선언\\r\\n    event Exerci\n      PUSH 0\t\t\t 이벤트 선언\\r\\n    event Exerci\n      KECCAK256 \t\t\t 이벤트 선언\\r\\n    event Exerci\n      SWAP1 \t\t\t 이벤트 선언\\r\\n    event Exerci\n    tag 57\t\t\t 이벤트 선언\\r\\n    event Exerci\n      JUMPDEST \t\t\t 이벤트 선언\\r\\n    event Exerci\n      DUP2 \t\t\t 이벤트 선언\\r\\n    event Exerci\n      SLOAD \t\t\t 이벤트 선언\\r\\n    event Exerci\n      DUP2 \t\t\t 이벤트 선언\\r\\n    event Exerci\n      MSTORE \t\t\t 이벤트 선언\\r\\n    event Exerci\n      SWAP1 \t\t\t 이벤트 선언\\r\\n    event Exerci\n      PUSH 1\t\t\t 이벤트 선언\\r\\n    event Exerci\n      ADD \t\t\t 이벤트 선언\\r\\n    event Exerci\n      SWAP1 \t\t\t 이벤트 선언\\r\\n    event Exerci\n      PUSH 20\t\t\t 이벤트 선언\\r\\n    event Exerci\n      ADD \t\t\t 이벤트 선언\\r\\n    event Exerci\n      DUP1 \t\t\t 이벤트 선언\\r\\n    event Exerci\n      DUP4 \t\t\t 이벤트 선언\\r\\n    event Exerci\n      GT \t\t\t 이벤트 선언\\r\\n    event Exerci\n      PUSH [tag] 57\t\t\t 이벤트 선언\\r\\n    event Exerci\n      JUMPI \t\t\t 이벤트 선언\\r\\n    event Exerci\n      DUP3 \t\t\t 이벤트 선언\\r\\n    event Exerci\n      SWAP1 \t\t\t 이벤트 선언\\r\\n    event Exerci\n      SUB \t\t\t 이벤트 선언\\r\\n    event Exerci\n      PUSH 1F\t\t\t 이벤트 선언\\r\\n    event Exerci\n      AND \t\t\t 이벤트 선언\\r\\n    event Exerci\n      DUP3 \t\t\t 이벤트 선언\\r\\n    event Exerci\n      ADD \t\t\t 이벤트 선언\\r\\n    event Exerci\n      SWAP2 \t\t\t 이벤트 선언\\r\\n    event Exerci\n    tag 55\t\t\t 이벤트 선언\\r\\n    event Exerci\n      JUMPDEST \t\t\t 이벤트 선언\\r\\n    event Exerci\n      POP \t\t\t 이벤트 선언\\r\\n    event Exerci\n      POP \t\t\t 이벤트 선언\\r\\n    event Exerci\n      POP \t\t\t 이벤트 선언\\r\\n    event Exerci\n      POP \t\t\t 이벤트 선언\\r\\n    event Exerci\n      POP \t\t\t 이벤트 선언\\r\\n    event Exerci\n      SWAP1 \t\t\t 이벤트 선언\\r\\n    event Exerci\n      DUP1 \t\t\t 이벤트 선언\\r\\n    event Exerci\n      PUSH 5\t\t\t 이벤트 선언\\r\\n    event Exerci\n      ADD \t\t\t 이벤트 선언\\r\\n    event Exerci\n      SLOAD \t\t\t 이벤트 선언\\r\\n    event Exerci\n      SWAP1 \t\t\t 이벤트 선언\\r\\n    event Exerci\n      POP \t\t\t 이벤트 선언\\r\\n    event Exerci\n      DUP7 \t\t\t 이벤트 선언\\r\\n    event Exerci\n      JUMP \t\t\t 이벤트 선언\\r\\n    event Exerci\n    tag 18\t\t\tt exerciseMinute, string memor...\n      JUMPDEST \t\t\tt exerciseMinute, string memor...\n      PUSH 0\t\t\ta\n      DUP1 \t\t\tiseDatas[id] \n      PUSH 0\t\t\tiseDatas[id] = Ex\n      DUP12 \t\t\t E\n      DUP2 \t\t\tiseDatas[id] = Ex\n      MSTORE \t\t\tiseDatas[id] = Ex\n      PUSH 20\t\t\tiseDatas[id] = Ex\n      ADD \t\t\tiseDatas[id] = Ex\n      SWAP1 \t\t\tiseDatas[id] = Ex\n      DUP2 \t\t\tiseDatas[id] = Ex\n      MSTORE \t\t\tiseDatas[id] = Ex\n      PUSH 20\t\t\tiseDatas[id] = Ex\n      ADD \t\t\tiseDatas[id] = Ex\n      PUSH 0\t\t\tiseDatas[id] = Ex\n      KECCAK256 \t\t\tiseDatas[id] = Ex\n      PUSH 0\t\t\tiseDatas[id] = Exerc\n      ADD \t\t\tiseDatas[id] = Exerc\n      SLOAD \t\t\tiseDatas[id] = Exerc\n      EQ \t\t\tiseDatas[id] = ExerciseDa\n      PUSH [tag] 59\t\t\t   exerciseDatas[id] = Exercis...\n      JUMPI \t\t\t   exerciseDatas[id] = Exercis...\n      PUSH 40\t\t\t   exerciseDatas[id] = Exercis...\n      MLOAD \t\t\t   exerciseDatas[id] = Exercis...\n      PUSH 8C379A000000000000000000000000000000000000000000000000000000000\t\t\t   exerciseDatas[id] = Exercis...\n      DUP2 \t\t\t   exerciseDatas[id] = Exercis...\n      MSTORE \t\t\t   exerciseDatas[id] = Exercis...\n      PUSH 4\t\t\t   exerciseDatas[id] = Exercis...\n      ADD \t\t\t   exerciseDatas[id] = Exercis...\n      PUSH [tag] 60\t\t\t   exerciseDatas[id] = Exercis...\n      SWAP1 \t\t\t   exerciseDatas[id] = Exercis...\n      PUSH [tag] 61\t\t\t   exerciseDatas[id] = Exercis...\n      JUMP \t\t\t   exerciseDatas[id] = Exercis...\n    tag 60\t\t\t   exerciseDatas[id] = Exercis...\n      JUMPDEST \t\t\t   exerciseDatas[id] = Exercis...\n      PUSH 40\t\t\t   exerciseDatas[id] = Exercis...\n      MLOAD \t\t\t   exerciseDatas[id] = Exercis...\n      DUP1 \t\t\t   exerciseDatas[id] = Exercis...\n      SWAP2 \t\t\t   exerciseDatas[id] = Exercis...\n      SUB \t\t\t   exerciseDatas[id] = Exercis...\n      SWAP1 \t\t\t   exerciseDatas[id] = Exercis...\n      REVERT \t\t\t   exerciseDatas[id] = Exercis...\n    tag 59\t\t\t   exerciseDatas[id] = Exercis...\n      JUMPDEST \t\t\t   exerciseDatas[id] = Exercis...\n      PUSH 40\t\t\tce, exerciseDay, exerciseStart...\n      MLOAD \t\t\tce, exerciseDay, exerciseStart...\n      DUP1 \t\t\tce, exerciseDay, exerciseStart...\n      PUSH 120\t\t\tce, exerciseDay, exerciseStart...\n      ADD \t\t\tce, exerciseDay, exerciseStart...\n      PUSH 40\t\t\tce, exerciseDay, exerciseStart...\n      MSTORE \t\t\tce, exerciseDay, exerciseStart...\n      DUP1 \t\t\tce, exerciseDay, exerciseStart...\n      DUP11 \t\t\tay\n      DUP2 \t\t\tce, exerciseDay, exerciseStart...\n      MSTORE \t\t\tce, exerciseDay, exerciseStart...\n      PUSH 20\t\t\tce, exerciseDay, exerciseStart...\n      ADD \t\t\tce, exerciseDay, exerciseStart...\n      DUP10 \t\t\texercise\n      DUP2 \t\t\tce, exerciseDay, exerciseStart...\n      MSTORE \t\t\tce, exerciseDay, exerciseStart...\n      PUSH 20\t\t\tce, exerciseDay, exerciseStart...\n      ADD \t\t\tce, exerciseDay, exerciseStart...\n      DUP9 \t\t\tart, \n      DUP2 \t\t\tce, exerciseDay, exerciseStart...\n      MSTORE \t\t\tce, exerciseDay, exerciseStart...\n      PUSH 20\t\t\tce, exerciseDay, exerciseStart...\n      ADD \t\t\tce, exerciseDay, exerciseStart...\n      DUP8 \t\t\terciseEnd, cal\n      DUP2 \t\t\tce, exerciseDay, exerciseStart...\n      MSTORE \t\t\tce, exerciseDay, exerciseStart...\n      PUSH 20\t\t\tce, exerciseDay, exerciseStart...\n      ADD \t\t\tce, exerciseDay, exerciseStart...\n      DUP7 \t\t\tie);\\r\\n        em\n      DUP2 \t\t\tce, exerciseDay, exerciseStart...\n      MSTORE \t\t\tce, exerciseDay, exerciseStart...\n      PUSH 20\t\t\tce, exerciseDay, exerciseStart...\n      ADD \t\t\tce, exerciseDay, exerciseStart...\n      DUP6 \t\t\t ExerciseDa\n      DUP2 \t\t\tce, exerciseDay, exerciseStart...\n      MSTORE \t\t\tce, exerciseDay, exerciseStart...\n      PUSH 20\t\t\tce, exerciseDay, exerciseStart...\n      ADD \t\t\tce, exerciseDay, exerciseStart...\n      DUP5 \t\t\tAdded(id, mem\n      DUP2 \t\t\tce, exerciseDay, exerciseStart...\n      MSTORE \t\t\tce, exerciseDay, exerciseStart...\n      PUSH 20\t\t\tce, exerciseDay, exerciseStart...\n      ADD \t\t\tce, exerciseDay, exerciseStart...\n      DUP4 \t\t\trId, steps,\n      DUP2 \t\t\tce, exerciseDay, exerciseStart...\n      MSTORE \t\t\tce, exerciseDay, exerciseStart...\n      PUSH 20\t\t\tce, exerciseDay, exerciseStart...\n      ADD \t\t\tce, exerciseDay, exerciseStart...\n      DUP3 \t\t\txercise\n      DUP2 \t\t\tce, exerciseDay, exerciseStart...\n      MSTORE \t\t\tce, exerciseDay, exerciseStart...\n      POP \t\t\tce, exerciseDay, exerciseStart...\n      PUSH 0\t\t\tnute, exercis\n      DUP1 \t\t\tnute, exerciseDis\n      DUP12 \t\t\tDi\n      DUP2 \t\t\tnute, exerciseDis\n      MSTORE \t\t\tnute, exerciseDis\n      PUSH 20\t\t\tnute, exerciseDis\n      ADD \t\t\tnute, exerciseDis\n      SWAP1 \t\t\tnute, exerciseDis\n      DUP2 \t\t\tnute, exerciseDis\n      MSTORE \t\t\tnute, exerciseDis\n      PUSH 20\t\t\tnute, exerciseDis\n      ADD \t\t\tnute, exerciseDis\n      PUSH 0\t\t\tnute, exerciseDis\n      KECCAK256 \t\t\tnute, exerciseDis\n      PUSH 0\t\t\tnute, exerciseDistance, exerci...\n      DUP3 \t\t\tnute, exerciseDistance, exerci...\n      ADD \t\t\tnute, exerciseDistance, exerci...\n      MLOAD \t\t\tnute, exerciseDistance, exerci...\n      DUP2 \t\t\tnute, exerciseDistance, exerci...\n      PUSH 0\t\t\tnute, exerciseDistance, exerci...\n      ADD \t\t\tnute, exerciseDistance, exerci...\n      SSTORE \t\t\tnute, exerciseDistance, exerci...\n      PUSH 20\t\t\tnute, exerciseDistance, exerci...\n      DUP3 \t\t\tnute, exerciseDistance, exerci...\n      ADD \t\t\tnute, exerciseDistance, exerci...\n      MLOAD \t\t\tnute, exerciseDistance, exerci...\n      DUP2 \t\t\tnute, exerciseDistance, exerci...\n      PUSH 1\t\t\tnute, exerciseDistance, exerci...\n      ADD \t\t\tnute, exerciseDistance, exerci...\n      SSTORE \t\t\tnute, exerciseDistance, exerci...\n      PUSH 40\t\t\tnute, exerciseDistance, exerci...\n      DUP3 \t\t\tnute, exerciseDistance, exerci...\n      ADD \t\t\tnute, exerciseDistance, exerci...\n      MLOAD \t\t\tnute, exerciseDistance, exerci...\n      DUP2 \t\t\tnute, exerciseDistance, exerci...\n      PUSH 2\t\t\tnute, exerciseDistance, exerci...\n      ADD \t\t\tnute, exerciseDistance, exerci...\n      SSTORE \t\t\tnute, exerciseDistance, exerci...\n      PUSH 60\t\t\tnute, exerciseDistance, exerci...\n      DUP3 \t\t\tnute, exerciseDistance, exerci...\n      ADD \t\t\tnute, exerciseDistance, exerci...\n      MLOAD \t\t\tnute, exerciseDistance, exerci...\n      DUP2 \t\t\tnute, exerciseDistance, exerci...\n      PUSH 3\t\t\tnute, exerciseDistance, exerci...\n      ADD \t\t\tnute, exerciseDistance, exerci...\n      SSTORE \t\t\tnute, exerciseDistance, exerci...\n      PUSH 80\t\t\tnute, exerciseDistance, exerci...\n      DUP3 \t\t\tnute, exerciseDistance, exerci...\n      ADD \t\t\tnute, exerciseDistance, exerci...\n      MLOAD \t\t\tnute, exerciseDistance, exerci...\n      DUP2 \t\t\tnute, exerciseDistance, exerci...\n      PUSH 4\t\t\tnute, exerciseDistance, exerci...\n      ADD \t\t\tnute, exerciseDistance, exerci...\n      SWAP1 \t\t\tnute, exerciseDistance, exerci...\n      DUP2 \t\t\tnute, exerciseDistance, exerci...\n      PUSH [tag] 62\t\t\tnute, exerciseDistance, exerci...\n      SWAP2 \t\t\tnute, exerciseDistance, exerci...\n      SWAP1 \t\t\tnute, exerciseDistance, exerci...\n      PUSH [tag] 63\t\t\tnute, exerciseDistance, exerci...\n      JUMP \t\t\tnute, exerciseDistance, exerci...\n    tag 62\t\t\tnute, exerciseDistance, exerci...\n      JUMPDEST \t\t\tnute, exerciseDistance, exerci...\n      POP \t\t\tnute, exerciseDistance, exerci...\n      PUSH A0\t\t\tnute, exerciseDistance, exerci...\n      DUP3 \t\t\tnute, exerciseDistance, exerci...\n      ADD \t\t\tnute, exerciseDistance, exerci...\n      MLOAD \t\t\tnute, exerciseDistance, exerci...\n      DUP2 \t\t\tnute, exerciseDistance, exerci...\n      PUSH 5\t\t\tnute, exerciseDistance, exerci...\n      ADD \t\t\tnute, exerciseDistance, exerci...\n      SWAP1 \t\t\tnute, exerciseDistance, exerci...\n      DUP2 \t\t\tnute, exerciseDistance, exerci...\n      PUSH [tag] 64\t\t\tnute, exerciseDistance, exerci...\n      SWAP2 \t\t\tnute, exerciseDistance, exerci...\n      SWAP1 \t\t\tnute, exerciseDistance, exerci...\n      PUSH [tag] 63\t\t\tnute, exerciseDistance, exerci...\n      JUMP \t\t\tnute, exerciseDistance, exerci...\n    tag 64\t\t\tnute, exerciseDistance, exerci...\n      JUMPDEST \t\t\tnute, exerciseDistance, exerci...\n      POP \t\t\tnute, exerciseDistance, exerci...\n      PUSH C0\t\t\tnute, exerciseDistance, exerci...\n      DUP3 \t\t\tnute, exerciseDistance, exerci...\n      ADD \t\t\tnute, exerciseDistance, exerci...\n      MLOAD \t\t\tnute, exerciseDistance, exerci...\n      DUP2 \t\t\tnute, exerciseDistance, exerci...\n      PUSH 6\t\t\tnute, exerciseDistance, exerci...\n      ADD \t\t\tnute, exerciseDistance, exerci...\n      SWAP1 \t\t\tnute, exerciseDistance, exerci...\n      DUP2 \t\t\tnute, exerciseDistance, exerci...\n      PUSH [tag] 65\t\t\tnute, exerciseDistance, exerci...\n      SWAP2 \t\t\tnute, exerciseDistance, exerci...\n      SWAP1 \t\t\tnute, exerciseDistance, exerci...\n      PUSH [tag] 63\t\t\tnute, exerciseDistance, exerci...\n      JUMP \t\t\tnute, exerciseDistance, exerci...\n    tag 65\t\t\tnute, exerciseDistance, exerci...\n      JUMPDEST \t\t\tnute, exerciseDistance, exerci...\n      POP \t\t\tnute, exerciseDistance, exerci...\n      PUSH E0\t\t\tnute, exerciseDistance, exerci...\n      DUP3 \t\t\tnute, exerciseDistance, exerci...\n      ADD \t\t\tnute, exerciseDistance, exerci...\n      MLOAD \t\t\tnute, exerciseDistance, exerci...\n      DUP2 \t\t\tnute, exerciseDistance, exerci...\n      PUSH 7\t\t\tnute, exerciseDistance, exerci...\n      ADD \t\t\tnute, exerciseDistance, exerci...\n      SWAP1 \t\t\tnute, exerciseDistance, exerci...\n      DUP2 \t\t\tnute, exerciseDistance, exerci...\n      PUSH [tag] 66\t\t\tnute, exerciseDistance, exerci...\n      SWAP2 \t\t\tnute, exerciseDistance, exerci...\n      SWAP1 \t\t\tnute, exerciseDistance, exerci...\n      PUSH [tag] 63\t\t\tnute, exerciseDistance, exerci...\n      JUMP \t\t\tnute, exerciseDistance, exerci...\n    tag 66\t\t\tnute, exerciseDistance, exerci...\n      JUMPDEST \t\t\tnute, exerciseDistance, exerci...\n      POP \t\t\tnute, exerciseDistance, exerci...\n      PUSH 100\t\t\tnute, exerciseDistance, exerci...\n      DUP3 \t\t\tnute, exerciseDistance, exerci...\n      ADD \t\t\tnute, exerciseDistance, exerci...\n      MLOAD \t\t\tnute, exerciseDistance, exerci...\n      DUP2 \t\t\tnute, exerciseDistance, exerci...\n      PUSH 8\t\t\tnute, exerciseDistance, exerci...\n      ADD \t\t\tnute, exerciseDistance, exerci...\n      SWAP1 \t\t\tnute, exerciseDistance, exerci...\n      DUP2 \t\t\tnute, exerciseDistance, exerci...\n      PUSH [tag] 67\t\t\tnute, exerciseDistance, exerci...\n      SWAP2 \t\t\tnute, exerciseDistance, exerci...\n      SWAP1 \t\t\tnute, exerciseDistance, exerci...\n      PUSH [tag] 63\t\t\tnute, exerciseDistance, exerci...\n      JUMP \t\t\tnute, exerciseDistance, exerci...\n    tag 67\t\t\tnute, exerciseDistance, exerci...\n      JUMPDEST \t\t\tnute, exerciseDistance, exerci...\n      POP \t\t\tnute, exerciseDistance, exerci...\n      SWAP1 \t\t\tnute, exerciseDistance, exerci...\n      POP \t\t\tnute, exerciseDistance, exerci...\n      POP \t\t\tnute, exerciseDistance, exerci...\n      PUSH 7AD54D69F4D007D56F6E74010350562E46F5CF4EE19E65482ACB78E4C219550\t\t\tistance, exerciseDay, exercise...\n      DUP10 \t\t\tay\n      DUP10 \t\t\texercise\n      DUP10 \t\t\tart, \n      DUP10 \t\t\terciseEnd, cal\n      DUP10 \t\t\tie);\\r\\n    }\\r\\n\\r\\n \n      DUP10 \t\t\t // 운동 데이터 \n      DUP10 \t\t\t 함수\\r\\n    func\n      DUP10 \t\t\ton getExerc\n      DUP10 \t\t\teData(u\n      PUSH 40\t\t\tistance, exerciseDay, exercise...\n      MLOAD \t\t\tistance, exerciseDay, exercise...\n      PUSH [tag] 68\t\t\tistance, exerciseDay, exercise...\n      SWAP10 \t\t\tistance, exerciseDay, exercise...\n      SWAP9 \t\t\tistance, exerciseDay, exercise...\n      SWAP8 \t\t\tistance, exerciseDay, exercise...\n      SWAP7 \t\t\tistance, exerciseDay, exercise...\n      SWAP6 \t\t\tistance, exerciseDay, exercise...\n      SWAP5 \t\t\tistance, exerciseDay, exercise...\n      SWAP4 \t\t\tistance, exerciseDay, exercise...\n      SWAP3 \t\t\tistance, exerciseDay, exercise...\n      SWAP2 \t\t\tistance, exerciseDay, exercise...\n      SWAP1 \t\t\tistance, exerciseDay, exercise...\n      PUSH [tag] 39\t\t\tistance, exerciseDay, exercise...\n      JUMP \t\t\tistance, exerciseDay, exercise...\n    tag 68\t\t\tistance, exerciseDay, exercise...\n      JUMPDEST \t\t\tistance, exerciseDay, exercise...\n      PUSH 40\t\t\tistance, exerciseDay, exercise...\n      MLOAD \t\t\tistance, exerciseDay, exercise...\n      DUP1 \t\t\tistance, exerciseDay, exercise...\n      SWAP2 \t\t\tistance, exerciseDay, exercise...\n      SUB \t\t\tistance, exerciseDay, exercise...\n      SWAP1 \t\t\tistance, exerciseDay, exercise...\n      LOG1 \t\t\tistance, exerciseDay, exercise...\n      POP \t\t\tt exerciseMinute, string memor...\n      POP \t\t\tt exerciseMinute, string memor...\n      POP \t\t\tt exerciseMinute, string memor...\n      POP \t\t\tt exerciseMinute, string memor...\n      POP \t\t\tt exerciseMinute, string memor...\n      POP \t\t\tt exerciseMinute, string memor...\n      POP \t\t\tt exerciseMinute, string memor...\n      POP \t\t\tt exerciseMinute, string memor...\n      POP \t\t\tt exerciseMinute, string memor...\n      JUMP \t\t\tt exerciseMinute, string memor...\n    tag 22\t\t\ton, string memory createdAt, u...\n      JUMPDEST \t\t\ton, string memory createdAt, u...\n      PUSH 0\t\t\terId\n      PUSH 1\t\t\tuint rec\n      PUSH 40\t\t\t = receipts.length - 1;\\r\\n   ...\n      MLOAD \t\t\t = receipts.length - 1;\\r\\n   ...\n      DUP1 \t\t\t = receipts.length - 1;\\r\\n   ...\n      PUSH C0\t\t\t = receipts.length - 1;\\r\\n   ...\n      ADD \t\t\t = receipts.length - 1;\\r\\n   ...\n      PUSH 40\t\t\t = receipts.length - 1;\\r\\n   ...\n      MSTORE \t\t\t = receipts.length - 1;\\r\\n   ...\n      DUP1 \t\t\t = receipts.length - 1;\\r\\n   ...\n      DUP10 \t\t\tpts.length\n      DUP2 \t\t\t = receipts.length - 1;\\r\\n   ...\n      MSTORE \t\t\t = receipts.length - 1;\\r\\n   ...\n      PUSH 20\t\t\t = receipts.length - 1;\\r\\n   ...\n      ADD \t\t\t = receipts.length - 1;\\r\\n   ...\n      DUP9 \t\t\t 1;\\r\\n   \n      ISZERO \t\t\t = receipts.length - 1;\\r\\n   ...\n      ISZERO \t\t\t = receipts.length - 1;\\r\\n   ...\n      DUP2 \t\t\t = receipts.length - 1;\\r\\n   ...\n      MSTORE \t\t\t = receipts.length - 1;\\r\\n   ...\n      PUSH 20\t\t\t = receipts.length - 1;\\r\\n   ...\n      ADD \t\t\t = receipts.length - 1;\\r\\n   ...\n      DUP8 \t\t\t   em\n      DUP2 \t\t\t = receipts.length - 1;\\r\\n   ...\n      MSTORE \t\t\t = receipts.length - 1;\\r\\n   ...\n      PUSH 20\t\t\t = receipts.length - 1;\\r\\n   ...\n      ADD \t\t\t = receipts.length - 1;\\r\\n   ...\n      DUP7 \t\t\t ReceiptAdd\n      DUP2 \t\t\t = receipts.length - 1;\\r\\n   ...\n      MSTORE \t\t\t = receipts.length - 1;\\r\\n   ...\n      PUSH 20\t\t\t = receipts.length - 1;\\r\\n   ...\n      ADD \t\t\t = receipts.length - 1;\\r\\n   ...\n      DUP6 \t\t\t(receiptI\n      DUP2 \t\t\t = receipts.length - 1;\\r\\n   ...\n      MSTORE \t\t\t = receipts.length - 1;\\r\\n   ...\n      PUSH 20\t\t\t = receipts.length - 1;\\r\\n   ...\n      ADD \t\t\t = receipts.length - 1;\\r\\n   ...\n      DUP5 \t\t\t walletT\n      DUP2 \t\t\t = receipts.length - 1;\\r\\n   ...\n      MSTORE \t\t\t = receipts.length - 1;\\r\\n   ...\n      POP \t\t\t = receipts.length - 1;\\r\\n   ...\n      SWAP1 \t\t\tuint receiptId = receipts.leng...\n      DUP1 \t\t\tuint receiptId = receipts.leng...\n      PUSH 1\t\t\tuint receiptId = receipts.leng...\n      DUP2 \t\t\tuint receiptId = receipts.leng...\n      SLOAD \t\t\tuint receiptId = receipts.leng...\n      ADD \t\t\tuint receiptId = receipts.leng...\n      DUP1 \t\t\tuint receiptId = receipts.leng...\n      DUP3 \t\t\tuint receiptId = receipts.leng...\n      SSTORE \t\t\tuint receiptId = receipts.leng...\n      DUP1 \t\t\tuint receiptId = receipts.leng...\n      SWAP2 \t\t\tuint receiptId = receipts.leng...\n      POP \t\t\tuint receiptId = receipts.leng...\n      POP \t\t\tuint receiptId = receipts.leng...\n      PUSH 1\t\t\tuint receiptId = receipts.leng...\n      SWAP1 \t\t\tuint receiptId = receipts.leng...\n      SUB \t\t\tuint receiptId = receipts.leng...\n      SWAP1 \t\t\tuint receiptId = receipts.leng...\n      PUSH 0\t\t\tuint receiptId = receipts.leng...\n      MSTORE \t\t\tuint receiptId = receipts.leng...\n      PUSH 20\t\t\tuint receiptId = receipts.leng...\n      PUSH 0\t\t\tuint receiptId = receipts.leng...\n      KECCAK256 \t\t\tuint receiptId = receipts.leng...\n      SWAP1 \t\t\tuint receiptId = receipts.leng...\n      PUSH 6\t\t\tuint receiptId = receipts.leng...\n      MUL \t\t\tuint receiptId = receipts.leng...\n      ADD \t\t\tuint receiptId = receipts.leng...\n      PUSH 0\t\t\tuint receiptId = receipts.leng...\n      SWAP1 \t\t\tuint receiptId = receipts.leng...\n      SWAP2 \t\t\tuint receiptId = receipts.leng...\n      SWAP1 \t\t\tuint receiptId = receipts.leng...\n      SWAP2 \t\t\tuint receiptId = receipts.leng...\n      SWAP1 \t\t\tuint receiptId = receipts.leng...\n      SWAP2 \t\t\tuint receiptId = receipts.leng...\n      POP \t\t\tuint receiptId = receipts.leng...\n      PUSH 0\t\t\tuint receiptId = receipts.leng...\n      DUP3 \t\t\tuint receiptId = receipts.leng...\n      ADD \t\t\tuint receiptId = receipts.leng...\n      MLOAD \t\t\tuint receiptId = receipts.leng...\n      DUP2 \t\t\tuint receiptId = receipts.leng...\n      PUSH 0\t\t\tuint receiptId = receipts.leng...\n      ADD \t\t\tuint receiptId = receipts.leng...\n      SWAP1 \t\t\tuint receiptId = receipts.leng...\n      DUP2 \t\t\tuint receiptId = receipts.leng...\n      PUSH [tag] 71\t\t\tuint receiptId = receipts.leng...\n      SWAP2 \t\t\tuint receiptId = receipts.leng...\n      SWAP1 \t\t\tuint receiptId = receipts.leng...\n      PUSH [tag] 63\t\t\tuint receiptId = receipts.leng...\n      JUMP \t\t\tuint receiptId = receipts.leng...\n    tag 71\t\t\tuint receiptId = receipts.leng...\n      JUMPDEST \t\t\tuint receiptId = receipts.leng...\n      POP \t\t\tuint receiptId = receipts.leng...\n      PUSH 20\t\t\tuint receiptId = receipts.leng...\n      DUP3 \t\t\tuint receiptId = receipts.leng...\n      ADD \t\t\tuint receiptId = receipts.leng...\n      MLOAD \t\t\tuint receiptId = receipts.leng...\n      DUP2 \t\t\tuint receiptId = receipts.leng...\n      PUSH 1\t\t\tuint receiptId = receipts.leng...\n      ADD \t\t\tuint receiptId = receipts.leng...\n      PUSH 0\t\t\tuint receiptId = receipts.leng...\n      PUSH 100\t\t\tuint receiptId = receipts.leng...\n      EXP \t\t\tuint receiptId = receipts.leng...\n      DUP2 \t\t\tuint receiptId = receipts.leng...\n      SLOAD \t\t\tuint receiptId = receipts.leng...\n      DUP2 \t\t\tuint receiptId = receipts.leng...\n      PUSH FF\t\t\tuint receiptId = receipts.leng...\n      MUL \t\t\tuint receiptId = receipts.leng...\n      NOT \t\t\tuint receiptId = receipts.leng...\n      AND \t\t\tuint receiptId = receipts.leng...\n      SWAP1 \t\t\tuint receiptId = receipts.leng...\n      DUP4 \t\t\tuint receiptId = receipts.leng...\n      ISZERO \t\t\tuint receiptId = receipts.leng...\n      ISZERO \t\t\tuint receiptId = receipts.leng...\n      MUL \t\t\tuint receiptId = receipts.leng...\n      OR \t\t\tuint receiptId = receipts.leng...\n      SWAP1 \t\t\tuint receiptId = receipts.leng...\n      SSTORE \t\t\tuint receiptId = receipts.leng...\n      POP \t\t\tuint receiptId = receipts.leng...\n      PUSH 40\t\t\tuint receiptId = receipts.leng...\n      DUP3 \t\t\tuint receiptId = receipts.leng...\n      ADD \t\t\tuint receiptId = receipts.leng...\n      MLOAD \t\t\tuint receiptId = receipts.leng...\n      DUP2 \t\t\tuint receiptId = receipts.leng...\n      PUSH 2\t\t\tuint receiptId = receipts.leng...\n      ADD \t\t\tuint receiptId = receipts.leng...\n      SSTORE \t\t\tuint receiptId = receipts.leng...\n      PUSH 60\t\t\tuint receiptId = receipts.leng...\n      DUP3 \t\t\tuint receiptId = receipts.leng...\n      ADD \t\t\tuint receiptId = receipts.leng...\n      MLOAD \t\t\tuint receiptId = receipts.leng...\n      DUP2 \t\t\tuint receiptId = receipts.leng...\n      PUSH 3\t\t\tuint receiptId = receipts.leng...\n      ADD \t\t\tuint receiptId = receipts.leng...\n      SWAP1 \t\t\tuint receiptId = receipts.leng...\n      DUP2 \t\t\tuint receiptId = receipts.leng...\n      PUSH [tag] 72\t\t\tuint receiptId = receipts.leng...\n      SWAP2 \t\t\tuint receiptId = receipts.leng...\n      SWAP1 \t\t\tuint receiptId = receipts.leng...\n      PUSH [tag] 63\t\t\tuint receiptId = receipts.leng...\n      JUMP \t\t\tuint receiptId = receipts.leng...\n    tag 72\t\t\tuint receiptId = receipts.leng...\n      JUMPDEST \t\t\tuint receiptId = receipts.leng...\n      POP \t\t\tuint receiptId = receipts.leng...\n      PUSH 80\t\t\tuint receiptId = receipts.leng...\n      DUP3 \t\t\tuint receiptId = receipts.leng...\n      ADD \t\t\tuint receiptId = receipts.leng...\n      MLOAD \t\t\tuint receiptId = receipts.leng...\n      DUP2 \t\t\tuint receiptId = receipts.leng...\n      PUSH 4\t\t\tuint receiptId = receipts.leng...\n      ADD \t\t\tuint receiptId = receipts.leng...\n      SWAP1 \t\t\tuint receiptId = receipts.leng...\n      DUP2 \t\t\tuint receiptId = receipts.leng...\n      PUSH [tag] 73\t\t\tuint receiptId = receipts.leng...\n      SWAP2 \t\t\tuint receiptId = receipts.leng...\n      SWAP1 \t\t\tuint receiptId = receipts.leng...\n      PUSH [tag] 63\t\t\tuint receiptId = receipts.leng...\n      JUMP \t\t\tuint receiptId = receipts.leng...\n    tag 73\t\t\tuint receiptId = receipts.leng...\n      JUMPDEST \t\t\tuint receiptId = receipts.leng...\n      POP \t\t\tuint receiptId = receipts.leng...\n      PUSH A0\t\t\tuint receiptId = receipts.leng...\n      DUP3 \t\t\tuint receiptId = receipts.leng...\n      ADD \t\t\tuint receiptId = receipts.leng...\n      MLOAD \t\t\tuint receiptId = receipts.leng...\n      DUP2 \t\t\tuint receiptId = receipts.leng...\n      PUSH 5\t\t\tuint receiptId = receipts.leng...\n      ADD \t\t\tuint receiptId = receipts.leng...\n      SSTORE \t\t\tuint receiptId = receipts.leng...\n      POP \t\t\tuint receiptId = receipts.leng...\n      POP \t\t\tuint receiptId = receipts.leng...\n      PUSH 0\t\t\t, price, descr\n      PUSH 1\t\t\tm\n      DUP1 \t\t\tion, cre\n      DUP1 \t\t\tion, createdAt,\n      SLOAD \t\t\tion, createdAt,\n      SWAP1 \t\t\tion, createdAt,\n      POP \t\t\tion, createdAt,\n      PUSH [tag] 74\t\t\tion, createdAt, mem\n      SWAP2 \t\t\tion, createdAt, mem\n      SWAP1 \t\t\tion, createdAt, mem\n      PUSH [tag] 75\t\t\tion, createdAt, mem\n      JUMP \t\t\tion, createdAt, mem\n    tag 74\t\t\tion, createdAt, mem\n      JUMPDEST \t\t\tion, createdAt, mem\n      SWAP1 \t\t\t, price, description, createdA...\n      POP \t\t\t, price, description, createdA...\n      PUSH 8B9F4D9E9C07FE50F790C2348976C935AD40E3E76FF7BB74EF1C6AE9EAEBD3FE\t\t\t return receiptId;\\r\\n    }\\r\\...\n      DUP2 \t\t\tptId;\\r\\n  \n      DUP10 \t\t\t}\\r\\n\\r\\n    /\n      DUP10 \t\t\t특정 ID를 가\n      DUP10 \t\t\tRecei\n      DUP10 \t\t\t 데이터 조회 함수\\r\n      DUP10 \t\t\t   functi\n      DUP10 \t\t\t getRece\n      PUSH 40\t\t\t return receiptId;\\r\\n    }\\r\\...\n      MLOAD \t\t\t return receiptId;\\r\\n    }\\r\\...\n      PUSH [tag] 76\t\t\t return receiptId;\\r\\n    }\\r\\...\n      SWAP8 \t\t\t return receiptId;\\r\\n    }\\r\\...\n      SWAP7 \t\t\t return receiptId;\\r\\n    }\\r\\...\n      SWAP6 \t\t\t return receiptId;\\r\\n    }\\r\\...\n      SWAP5 \t\t\t return receiptId;\\r\\n    }\\r\\...\n      SWAP4 \t\t\t return receiptId;\\r\\n    }\\r\\...\n      SWAP3 \t\t\t return receiptId;\\r\\n    }\\r\\...\n      SWAP2 \t\t\t return receiptId;\\r\\n    }\\r\\...\n      SWAP1 \t\t\t return receiptId;\\r\\n    }\\r\\...\n      PUSH [tag] 77\t\t\t return receiptId;\\r\\n    }\\r\\...\n      JUMP \t\t\t return receiptId;\\r\\n    }\\r\\...\n    tag 76\t\t\t return receiptId;\\r\\n    }\\r\\...\n      JUMPDEST \t\t\t return receiptId;\\r\\n    }\\r\\...\n      PUSH 40\t\t\t return receiptId;\\r\\n    }\\r\\...\n      MLOAD \t\t\t return receiptId;\\r\\n    }\\r\\...\n      DUP1 \t\t\t return receiptId;\\r\\n    }\\r\\...\n      SWAP2 \t\t\t return receiptId;\\r\\n    }\\r\\...\n      SUB \t\t\t return receiptId;\\r\\n    }\\r\\...\n      SWAP1 \t\t\t return receiptId;\\r\\n    }\\r\\...\n      LOG1 \t\t\t return receiptId;\\r\\n    }\\r\\...\n      DUP1 \t\t\t public v\n      SWAP2 \t\t\teiptId) public v\n      POP \t\t\teiptId) public v\n      POP \t\t\teiptId) public v\n      SWAP7 \t\t\ton, string memory createdAt, u...\n      SWAP6 \t\t\ton, string memory createdAt, u...\n      POP \t\t\ton, string memory createdAt, u...\n      POP \t\t\ton, string memory createdAt, u...\n      POP \t\t\ton, string memory createdAt, u...\n      POP \t\t\ton, string memory createdAt, u...\n      POP \t\t\ton, string memory createdAt, u...\n      POP \t\t\ton, string memory createdAt, u...\n      JUMP \t\t\ton, string memory createdAt, u...\n    tag 27\t\t\t     require(exerciseDatas[id]...\n      JUMPDEST \t\t\t     require(exerciseDatas[id]...\n      PUSH [tag] 78\t\t\toes not exist.\");\\r\\n\n      PUSH [tag] 79\t\t\toes not exist.\");\\r\\n\n      JUMP \t\t\toes not exist.\");\\r\\n\n    tag 78\t\t\toes not exist.\");\\r\\n\n      JUMPDEST \t\t\toes not exist.\");\\r\\n\n      PUSH 0\t\t\t \n      DUP1 \t\t\tseDatas[id];\\r\n      PUSH 0\t\t\tseDatas[id];\\r\\n   \n      DUP5 \t\t\t  \n      DUP2 \t\t\tseDatas[id];\\r\\n   \n      MSTORE \t\t\tseDatas[id];\\r\\n   \n      PUSH 20\t\t\tseDatas[id];\\r\\n   \n      ADD \t\t\tseDatas[id];\\r\\n   \n      SWAP1 \t\t\tseDatas[id];\\r\\n   \n      DUP2 \t\t\tseDatas[id];\\r\\n   \n      MSTORE \t\t\tseDatas[id];\\r\\n   \n      PUSH 20\t\t\tseDatas[id];\\r\\n   \n      ADD \t\t\tseDatas[id];\\r\\n   \n      PUSH 0\t\t\tseDatas[id];\\r\\n   \n      KECCAK256 \t\t\tseDatas[id];\\r\\n   \n      PUSH 0\t\t\tseDatas[id];\\r\\n    }\\r\n      ADD \t\t\tseDatas[id];\\r\\n    }\\r\n      SLOAD \t\t\tseDatas[id];\\r\\n    }\\r\n      SUB \t\t\tseDatas[id];\\r\\n    }\\r\\n\\r\\n ...\n      PUSH [tag] 81\t\t\tn exerciseDatas[id];\\r\\n    }\\...\n      JUMPI \t\t\tn exerciseDatas[id];\\r\\n    }\\...\n      PUSH 40\t\t\tn exerciseDatas[id];\\r\\n    }\\...\n      MLOAD \t\t\tn exerciseDatas[id];\\r\\n    }\\...\n      PUSH 8C379A000000000000000000000000000000000000000000000000000000000\t\t\tn exerciseDatas[id];\\r\\n    }\\...\n      DUP2 \t\t\tn exerciseDatas[id];\\r\\n    }\\...\n      MSTORE \t\t\tn exerciseDatas[id];\\r\\n    }\\...\n      PUSH 4\t\t\tn exerciseDatas[id];\\r\\n    }\\...\n      ADD \t\t\tn exerciseDatas[id];\\r\\n    }\\...\n      PUSH [tag] 82\t\t\tn exerciseDatas[id];\\r\\n    }\\...\n      SWAP1 \t\t\tn exerciseDatas[id];\\r\\n    }\\...\n      PUSH [tag] 83\t\t\tn exerciseDatas[id];\\r\\n    }\\...\n      JUMP \t\t\tn exerciseDatas[id];\\r\\n    }\\...\n    tag 82\t\t\tn exerciseDatas[id];\\r\\n    }\\...\n      JUMPDEST \t\t\tn exerciseDatas[id];\\r\\n    }\\...\n      PUSH 40\t\t\tn exerciseDatas[id];\\r\\n    }\\...\n      MLOAD \t\t\tn exerciseDatas[id];\\r\\n    }\\...\n      DUP1 \t\t\tn exerciseDatas[id];\\r\\n    }\\...\n      SWAP2 \t\t\tn exerciseDatas[id];\\r\\n    }\\...\n      SUB \t\t\tn exerciseDatas[id];\\r\\n    }\\...\n      SWAP1 \t\t\tn exerciseDatas[id];\\r\\n    }\\...\n      REVERT \t\t\tn exerciseDatas[id];\\r\\n    }\\...\n    tag 81\t\t\tn exerciseDatas[id];\\r\\n    }\\...\n      JUMPDEST \t\t\tn exerciseDatas[id];\\r\\n    }\\...\n      PUSH 0\t\t\ting memory wa\n      DUP1 \t\t\ting memory wallet\n      DUP4 \t\t\tle\n      DUP2 \t\t\ting memory wallet\n      MSTORE \t\t\ting memory wallet\n      PUSH 20\t\t\ting memory wallet\n      ADD \t\t\ting memory wallet\n      SWAP1 \t\t\ting memory wallet\n      DUP2 \t\t\ting memory wallet\n      MSTORE \t\t\ting memory wallet\n      PUSH 20\t\t\ting memory wallet\n      ADD \t\t\ting memory wallet\n      PUSH 0\t\t\ting memory wallet\n      KECCAK256 \t\t\ting memory wallet\n      PUSH 40\t\t\tipt(string memory wallet\n      MLOAD \t\t\tipt(string memory wallet\n      DUP1 \t\t\tipt(string memory wallet\n      PUSH 120\t\t\tipt(string memory wallet\n      ADD \t\t\tipt(string memory wallet\n      PUSH 40\t\t\tipt(string memory wallet\n      MSTORE \t\t\tipt(string memory wallet\n      SWAP1 \t\t\tipt(string memory wallet\n      DUP2 \t\t\tipt(string memory wallet\n      PUSH 0\t\t\tipt(string memory wallet\n      DUP3 \t\t\tipt(string memory wallet\n      ADD \t\t\tipt(string memory wallet\n      SLOAD \t\t\tipt(string memory wallet\n      DUP2 \t\t\tipt(string memory wallet\n      MSTORE \t\t\tipt(string memory wallet\n      PUSH 20\t\t\tipt(string memory wallet\n      ADD \t\t\tipt(string memory wallet\n      PUSH 1\t\t\tipt(string memory wallet\n      DUP3 \t\t\tipt(string memory wallet\n      ADD \t\t\tipt(string memory wallet\n      SLOAD \t\t\tipt(string memory wallet\n      DUP2 \t\t\tipt(string memory wallet\n      MSTORE \t\t\tipt(string memory wallet\n      PUSH 20\t\t\tipt(string memory wallet\n      ADD \t\t\tipt(string memory wallet\n      PUSH 2\t\t\tipt(string memory wallet\n      DUP3 \t\t\tipt(string memory wallet\n      ADD \t\t\tipt(string memory wallet\n      SLOAD \t\t\tipt(string memory wallet\n      DUP2 \t\t\tipt(string memory wallet\n      MSTORE \t\t\tipt(string memory wallet\n      PUSH 20\t\t\tipt(string memory wallet\n      ADD \t\t\tipt(string memory wallet\n      PUSH 3\t\t\tipt(string memory wallet\n      DUP3 \t\t\tipt(string memory wallet\n      ADD \t\t\tipt(string memory wallet\n      SLOAD \t\t\tipt(string memory wallet\n      DUP2 \t\t\tipt(string memory wallet\n      MSTORE \t\t\tipt(string memory wallet\n      PUSH 20\t\t\tipt(string memory wallet\n      ADD \t\t\tipt(string memory wallet\n      PUSH 4\t\t\tipt(string memory wallet\n      DUP3 \t\t\tipt(string memory wallet\n      ADD \t\t\tipt(string memory wallet\n      DUP1 \t\t\tipt(string memory wallet\n      SLOAD \t\t\tipt(string memory wallet\n      PUSH [tag] 84\t\t\tipt(string memory wallet\n      SWAP1 \t\t\tipt(string memory wallet\n      PUSH [tag] 43\t\t\tipt(string memory wallet\n      JUMP \t\t\tipt(string memory wallet\n    tag 84\t\t\tipt(string memory wallet\n      JUMPDEST \t\t\tipt(string memory wallet\n      DUP1 \t\t\tipt(string memory wallet\n      PUSH 1F\t\t\tipt(string memory wallet\n      ADD \t\t\tipt(string memory wallet\n      PUSH 20\t\t\tipt(string memory wallet\n      DUP1 \t\t\tipt(string memory wallet\n      SWAP2 \t\t\tipt(string memory wallet\n      DIV \t\t\tipt(string memory wallet\n      MUL \t\t\tipt(string memory wallet\n      PUSH 20\t\t\tipt(string memory wallet\n      ADD \t\t\tipt(string memory wallet\n      PUSH 40\t\t\tipt(string memory wallet\n      MLOAD \t\t\tipt(string memory wallet\n      SWAP1 \t\t\tipt(string memory wallet\n      DUP2 \t\t\tipt(string memory wallet\n      ADD \t\t\tipt(string memory wallet\n      PUSH 40\t\t\tipt(string memory wallet\n      MSTORE \t\t\tipt(string memory wallet\n      DUP1 \t\t\tipt(string memory wallet\n      SWAP3 \t\t\tipt(string memory wallet\n      SWAP2 \t\t\tipt(string memory wallet\n      SWAP1 \t\t\tipt(string memory wallet\n      DUP2 \t\t\tipt(string memory wallet\n      DUP2 \t\t\tipt(string memory wallet\n      MSTORE \t\t\tipt(string memory wallet\n      PUSH 20\t\t\tipt(string memory wallet\n      ADD \t\t\tipt(string memory wallet\n      DUP3 \t\t\tipt(string memory wallet\n      DUP1 \t\t\tipt(string memory wallet\n      SLOAD \t\t\tipt(string memory wallet\n      PUSH [tag] 85\t\t\tipt(string memory wallet\n      SWAP1 \t\t\tipt(string memory wallet\n      PUSH [tag] 43\t\t\tipt(string memory wallet\n      JUMP \t\t\tipt(string memory wallet\n    tag 85\t\t\tipt(string memory wallet\n      JUMPDEST \t\t\tipt(string memory wallet\n      DUP1 \t\t\tipt(string memory wallet\n      ISZERO \t\t\tipt(string memory wallet\n      PUSH [tag] 86\t\t\tipt(string memory wallet\n      JUMPI \t\t\tipt(string memory wallet\n      DUP1 \t\t\tipt(string memory wallet\n      PUSH 1F\t\t\tipt(string memory wallet\n      LT \t\t\tipt(string memory wallet\n      PUSH [tag] 87\t\t\tipt(string memory wallet\n      JUMPI \t\t\tipt(string memory wallet\n      PUSH 100\t\t\tipt(string memory wallet\n      DUP1 \t\t\tipt(string memory wallet\n      DUP4 \t\t\tipt(string memory wallet\n      SLOAD \t\t\tipt(string memory wallet\n      DIV \t\t\tipt(string memory wallet\n      MUL \t\t\tipt(string memory wallet\n      DUP4 \t\t\tipt(string memory wallet\n      MSTORE \t\t\tipt(string memory wallet\n      SWAP2 \t\t\tipt(string memory wallet\n      PUSH 20\t\t\tipt(string memory wallet\n      ADD \t\t\tipt(string memory wallet\n      SWAP2 \t\t\tipt(string memory wallet\n      PUSH [tag] 86\t\t\tipt(string memory wallet\n      JUMP \t\t\tipt(string memory wallet\n    tag 87\t\t\tipt(string memory wallet\n      JUMPDEST \t\t\tipt(string memory wallet\n      DUP3 \t\t\tipt(string memory wallet\n      ADD \t\t\tipt(string memory wallet\n      SWAP2 \t\t\tipt(string memory wallet\n      SWAP1 \t\t\tipt(string memory wallet\n      PUSH 0\t\t\tipt(string memory wallet\n      MSTORE \t\t\tipt(string memory wallet\n      PUSH 20\t\t\tipt(string memory wallet\n      PUSH 0\t\t\tipt(string memory wallet\n      KECCAK256 \t\t\tipt(string memory wallet\n      SWAP1 \t\t\tipt(string memory wallet\n    tag 88\t\t\tipt(string memory wallet\n      JUMPDEST \t\t\tipt(string memory wallet\n      DUP2 \t\t\tipt(string memory wallet\n      SLOAD \t\t\tipt(string memory wallet\n      DUP2 \t\t\tipt(string memory wallet\n      MSTORE \t\t\tipt(string memory wallet\n      SWAP1 \t\t\tipt(string memory wallet\n      PUSH 1\t\t\tipt(string memory wallet\n      ADD \t\t\tipt(string memory wallet\n      SWAP1 \t\t\tipt(string memory wallet\n      PUSH 20\t\t\tipt(string memory wallet\n      ADD \t\t\tipt(string memory wallet\n      DUP1 \t\t\tipt(string memory wallet\n      DUP4 \t\t\tipt(string memory wallet\n      GT \t\t\tipt(string memory wallet\n      PUSH [tag] 88\t\t\tipt(string memory wallet\n      JUMPI \t\t\tipt(string memory wallet\n      DUP3 \t\t\tipt(string memory wallet\n      SWAP1 \t\t\tipt(string memory wallet\n      SUB \t\t\tipt(string memory wallet\n      PUSH 1F\t\t\tipt(string memory wallet\n      AND \t\t\tipt(string memory wallet\n      DUP3 \t\t\tipt(string memory wallet\n      ADD \t\t\tipt(string memory wallet\n      SWAP2 \t\t\tipt(string memory wallet\n    tag 86\t\t\tipt(string memory wallet\n      JUMPDEST \t\t\tipt(string memory wallet\n      POP \t\t\tipt(string memory wallet\n      POP \t\t\tipt(string memory wallet\n      POP \t\t\tipt(string memory wallet\n      POP \t\t\tipt(string memory wallet\n      POP \t\t\tipt(string memory wallet\n      DUP2 \t\t\tipt(string memory wallet\n      MSTORE \t\t\tipt(string memory wallet\n      PUSH 20\t\t\tipt(string memory wallet\n      ADD \t\t\tipt(string memory wallet\n      PUSH 5\t\t\tipt(string memory wallet\n      DUP3 \t\t\tipt(string memory wallet\n      ADD \t\t\tipt(string memory wallet\n      DUP1 \t\t\tipt(string memory wallet\n      SLOAD \t\t\tipt(string memory wallet\n      PUSH [tag] 89\t\t\tipt(string memory wallet\n      SWAP1 \t\t\tipt(string memory wallet\n      PUSH [tag] 43\t\t\tipt(string memory wallet\n      JUMP \t\t\tipt(string memory wallet\n    tag 89\t\t\tipt(string memory wallet\n      JUMPDEST \t\t\tipt(string memory wallet\n      DUP1 \t\t\tipt(string memory wallet\n      PUSH 1F\t\t\tipt(string memory wallet\n      ADD \t\t\tipt(string memory wallet\n      PUSH 20\t\t\tipt(string memory wallet\n      DUP1 \t\t\tipt(string memory wallet\n      SWAP2 \t\t\tipt(string memory wallet\n      DIV \t\t\tipt(string memory wallet\n      MUL \t\t\tipt(string memory wallet\n      PUSH 20\t\t\tipt(string memory wallet\n      ADD \t\t\tipt(string memory wallet\n      PUSH 40\t\t\tipt(string memory wallet\n      MLOAD \t\t\tipt(string memory wallet\n      SWAP1 \t\t\tipt(string memory wallet\n      DUP2 \t\t\tipt(string memory wallet\n      ADD \t\t\tipt(string memory wallet\n      PUSH 40\t\t\tipt(string memory wallet\n      MSTORE \t\t\tipt(string memory wallet\n      DUP1 \t\t\tipt(string memory wallet\n      SWAP3 \t\t\tipt(string memory wallet\n      SWAP2 \t\t\tipt(string memory wallet\n      SWAP1 \t\t\tipt(string memory wallet\n      DUP2 \t\t\tipt(string memory wallet\n      DUP2 \t\t\tipt(string memory wallet\n      MSTORE \t\t\tipt(string memory wallet\n      PUSH 20\t\t\tipt(string memory wallet\n      ADD \t\t\tipt(string memory wallet\n      DUP3 \t\t\tipt(string memory wallet\n      DUP1 \t\t\tipt(string memory wallet\n      SLOAD \t\t\tipt(string memory wallet\n      PUSH [tag] 90\t\t\tipt(string memory wallet\n      SWAP1 \t\t\tipt(string memory wallet\n      PUSH [tag] 43\t\t\tipt(string memory wallet\n      JUMP \t\t\tipt(string memory wallet\n    tag 90\t\t\tipt(string memory wallet\n      JUMPDEST \t\t\tipt(string memory wallet\n      DUP1 \t\t\tipt(string memory wallet\n      ISZERO \t\t\tipt(string memory wallet\n      PUSH [tag] 91\t\t\tipt(string memory wallet\n      JUMPI \t\t\tipt(string memory wallet\n      DUP1 \t\t\tipt(string memory wallet\n      PUSH 1F\t\t\tipt(string memory wallet\n      LT \t\t\tipt(string memory wallet\n      PUSH [tag] 92\t\t\tipt(string memory wallet\n      JUMPI \t\t\tipt(string memory wallet\n      PUSH 100\t\t\tipt(string memory wallet\n      DUP1 \t\t\tipt(string memory wallet\n      DUP4 \t\t\tipt(string memory wallet\n      SLOAD \t\t\tipt(string memory wallet\n      DIV \t\t\tipt(string memory wallet\n      MUL \t\t\tipt(string memory wallet\n      DUP4 \t\t\tipt(string memory wallet\n      MSTORE \t\t\tipt(string memory wallet\n      SWAP2 \t\t\tipt(string memory wallet\n      PUSH 20\t\t\tipt(string memory wallet\n      ADD \t\t\tipt(string memory wallet\n      SWAP2 \t\t\tipt(string memory wallet\n      PUSH [tag] 91\t\t\tipt(string memory wallet\n      JUMP \t\t\tipt(string memory wallet\n    tag 92\t\t\tipt(string memory wallet\n      JUMPDEST \t\t\tipt(string memory wallet\n      DUP3 \t\t\tipt(string memory wallet\n      ADD \t\t\tipt(string memory wallet\n      SWAP2 \t\t\tipt(string memory wallet\n      SWAP1 \t\t\tipt(string memory wallet\n      PUSH 0\t\t\tipt(string memory wallet\n      MSTORE \t\t\tipt(string memory wallet\n      PUSH 20\t\t\tipt(string memory wallet\n      PUSH 0\t\t\tipt(string memory wallet\n      KECCAK256 \t\t\tipt(string memory wallet\n      SWAP1 \t\t\tipt(string memory wallet\n    tag 93\t\t\tipt(string memory wallet\n      JUMPDEST \t\t\tipt(string memory wallet\n      DUP2 \t\t\tipt(string memory wallet\n      SLOAD \t\t\tipt(string memory wallet\n      DUP2 \t\t\tipt(string memory wallet\n      MSTORE \t\t\tipt(string memory wallet\n      SWAP1 \t\t\tipt(string memory wallet\n      PUSH 1\t\t\tipt(string memory wallet\n      ADD \t\t\tipt(string memory wallet\n      SWAP1 \t\t\tipt(string memory wallet\n      PUSH 20\t\t\tipt(string memory wallet\n      ADD \t\t\tipt(string memory wallet\n      DUP1 \t\t\tipt(string memory wallet\n      DUP4 \t\t\tipt(string memory wallet\n      GT \t\t\tipt(string memory wallet\n      PUSH [tag] 93\t\t\tipt(string memory wallet\n      JUMPI \t\t\tipt(string memory wallet\n      DUP3 \t\t\tipt(string memory wallet\n      SWAP1 \t\t\tipt(string memory wallet\n      SUB \t\t\tipt(string memory wallet\n      PUSH 1F\t\t\tipt(string memory wallet\n      AND \t\t\tipt(string memory wallet\n      DUP3 \t\t\tipt(string memory wallet\n      ADD \t\t\tipt(string memory wallet\n      SWAP2 \t\t\tipt(string memory wallet\n    tag 91\t\t\tipt(string memory wallet\n      JUMPDEST \t\t\tipt(string memory wallet\n      POP \t\t\tipt(string memory wallet\n      POP \t\t\tipt(string memory wallet\n      POP \t\t\tipt(string memory wallet\n      POP \t\t\tipt(string memory wallet\n      POP \t\t\tipt(string memory wallet\n      DUP2 \t\t\tipt(string memory wallet\n      MSTORE \t\t\tipt(string memory wallet\n      PUSH 20\t\t\tipt(string memory wallet\n      ADD \t\t\tipt(string memory wallet\n      PUSH 6\t\t\tipt(string memory wallet\n      DUP3 \t\t\tipt(string memory wallet\n      ADD \t\t\tipt(string memory wallet\n      DUP1 \t\t\tipt(string memory wallet\n      SLOAD \t\t\tipt(string memory wallet\n      PUSH [tag] 94\t\t\tipt(string memory wallet\n      SWAP1 \t\t\tipt(string memory wallet\n      PUSH [tag] 43\t\t\tipt(string memory wallet\n      JUMP \t\t\tipt(string memory wallet\n    tag 94\t\t\tipt(string memory wallet\n      JUMPDEST \t\t\tipt(string memory wallet\n      DUP1 \t\t\tipt(string memory wallet\n      PUSH 1F\t\t\tipt(string memory wallet\n      ADD \t\t\tipt(string memory wallet\n      PUSH 20\t\t\tipt(string memory wallet\n      DUP1 \t\t\tipt(string memory wallet\n      SWAP2 \t\t\tipt(string memory wallet\n      DIV \t\t\tipt(string memory wallet\n      MUL \t\t\tipt(string memory wallet\n      PUSH 20\t\t\tipt(string memory wallet\n      ADD \t\t\tipt(string memory wallet\n      PUSH 40\t\t\tipt(string memory wallet\n      MLOAD \t\t\tipt(string memory wallet\n      SWAP1 \t\t\tipt(string memory wallet\n      DUP2 \t\t\tipt(string memory wallet\n      ADD \t\t\tipt(string memory wallet\n      PUSH 40\t\t\tipt(string memory wallet\n      MSTORE \t\t\tipt(string memory wallet\n      DUP1 \t\t\tipt(string memory wallet\n      SWAP3 \t\t\tipt(string memory wallet\n      SWAP2 \t\t\tipt(string memory wallet\n      SWAP1 \t\t\tipt(string memory wallet\n      DUP2 \t\t\tipt(string memory wallet\n      DUP2 \t\t\tipt(string memory wallet\n      MSTORE \t\t\tipt(string memory wallet\n      PUSH 20\t\t\tipt(string memory wallet\n      ADD \t\t\tipt(string memory wallet\n      DUP3 \t\t\tipt(string memory wallet\n      DUP1 \t\t\tipt(string memory wallet\n      SLOAD \t\t\tipt(string memory wallet\n      PUSH [tag] 95\t\t\tipt(string memory wallet\n      SWAP1 \t\t\tipt(string memory wallet\n      PUSH [tag] 43\t\t\tipt(string memory wallet\n      JUMP \t\t\tipt(string memory wallet\n    tag 95\t\t\tipt(string memory wallet\n      JUMPDEST \t\t\tipt(string memory wallet\n      DUP1 \t\t\tipt(string memory wallet\n      ISZERO \t\t\tipt(string memory wallet\n      PUSH [tag] 96\t\t\tipt(string memory wallet\n      JUMPI \t\t\tipt(string memory wallet\n      DUP1 \t\t\tipt(string memory wallet\n      PUSH 1F\t\t\tipt(string memory wallet\n      LT \t\t\tipt(string memory wallet\n      PUSH [tag] 97\t\t\tipt(string memory wallet\n      JUMPI \t\t\tipt(string memory wallet\n      PUSH 100\t\t\tipt(string memory wallet\n      DUP1 \t\t\tipt(string memory wallet\n      DUP4 \t\t\tipt(string memory wallet\n      SLOAD \t\t\tipt(string memory wallet\n      DIV \t\t\tipt(string memory wallet\n      MUL \t\t\tipt(string memory wallet\n      DUP4 \t\t\tipt(string memory wallet\n      MSTORE \t\t\tipt(string memory wallet\n      SWAP2 \t\t\tipt(string memory wallet\n      PUSH 20\t\t\tipt(string memory wallet\n      ADD \t\t\tipt(string memory wallet\n      SWAP2 \t\t\tipt(string memory wallet\n      PUSH [tag] 96\t\t\tipt(string memory wallet\n      JUMP \t\t\tipt(string memory wallet\n    tag 97\t\t\tipt(string memory wallet\n      JUMPDEST \t\t\tipt(string memory wallet\n      DUP3 \t\t\tipt(string memory wallet\n      ADD \t\t\tipt(string memory wallet\n      SWAP2 \t\t\tipt(string memory wallet\n      SWAP1 \t\t\tipt(string memory wallet\n      PUSH 0\t\t\tipt(string memory wallet\n      MSTORE \t\t\tipt(string memory wallet\n      PUSH 20\t\t\tipt(string memory wallet\n      PUSH 0\t\t\tipt(string memory wallet\n      KECCAK256 \t\t\tipt(string memory wallet\n      SWAP1 \t\t\tipt(string memory wallet\n    tag 98\t\t\tipt(string memory wallet\n      JUMPDEST \t\t\tipt(string memory wallet\n      DUP2 \t\t\tipt(string memory wallet\n      SLOAD \t\t\tipt(string memory wallet\n      DUP2 \t\t\tipt(string memory wallet\n      MSTORE \t\t\tipt(string memory wallet\n      SWAP1 \t\t\tipt(string memory wallet\n      PUSH 1\t\t\tipt(string memory wallet\n      ADD \t\t\tipt(string memory wallet\n      SWAP1 \t\t\tipt(string memory wallet\n      PUSH 20\t\t\tipt(string memory wallet\n      ADD \t\t\tipt(string memory wallet\n      DUP1 \t\t\tipt(string memory wallet\n      DUP4 \t\t\tipt(string memory wallet\n      GT \t\t\tipt(string memory wallet\n      PUSH [tag] 98\t\t\tipt(string memory wallet\n      JUMPI \t\t\tipt(string memory wallet\n      DUP3 \t\t\tipt(string memory wallet\n      SWAP1 \t\t\tipt(string memory wallet\n      SUB \t\t\tipt(string memory wallet\n      PUSH 1F\t\t\tipt(string memory wallet\n      AND \t\t\tipt(string memory wallet\n      DUP3 \t\t\tipt(string memory wallet\n      ADD \t\t\tipt(string memory wallet\n      SWAP2 \t\t\tipt(string memory wallet\n    tag 96\t\t\tipt(string memory wallet\n      JUMPDEST \t\t\tipt(string memory wallet\n      POP \t\t\tipt(string memory wallet\n      POP \t\t\tipt(string memory wallet\n      POP \t\t\tipt(string memory wallet\n      POP \t\t\tipt(string memory wallet\n      POP \t\t\tipt(string memory wallet\n      DUP2 \t\t\tipt(string memory wallet\n      MSTORE \t\t\tipt(string memory wallet\n      PUSH 20\t\t\tipt(string memory wallet\n      ADD \t\t\tipt(string memory wallet\n      PUSH 7\t\t\tipt(string memory wallet\n      DUP3 \t\t\tipt(string memory wallet\n      ADD \t\t\tipt(string memory wallet\n      DUP1 \t\t\tipt(string memory wallet\n      SLOAD \t\t\tipt(string memory wallet\n      PUSH [tag] 99\t\t\tipt(string memory wallet\n      SWAP1 \t\t\tipt(string memory wallet\n      PUSH [tag] 43\t\t\tipt(string memory wallet\n      JUMP \t\t\tipt(string memory wallet\n    tag 99\t\t\tipt(string memory wallet\n      JUMPDEST \t\t\tipt(string memory wallet\n      DUP1 \t\t\tipt(string memory wallet\n      PUSH 1F\t\t\tipt(string memory wallet\n      ADD \t\t\tipt(string memory wallet\n      PUSH 20\t\t\tipt(string memory wallet\n      DUP1 \t\t\tipt(string memory wallet\n      SWAP2 \t\t\tipt(string memory wallet\n      DIV \t\t\tipt(string memory wallet\n      MUL \t\t\tipt(string memory wallet\n      PUSH 20\t\t\tipt(string memory wallet\n      ADD \t\t\tipt(string memory wallet\n      PUSH 40\t\t\tipt(string memory wallet\n      MLOAD \t\t\tipt(string memory wallet\n      SWAP1 \t\t\tipt(string memory wallet\n      DUP2 \t\t\tipt(string memory wallet\n      ADD \t\t\tipt(string memory wallet\n      PUSH 40\t\t\tipt(string memory wallet\n      MSTORE \t\t\tipt(string memory wallet\n      DUP1 \t\t\tipt(string memory wallet\n      SWAP3 \t\t\tipt(string memory wallet\n      SWAP2 \t\t\tipt(string memory wallet\n      SWAP1 \t\t\tipt(string memory wallet\n      DUP2 \t\t\tipt(string memory wallet\n      DUP2 \t\t\tipt(string memory wallet\n      MSTORE \t\t\tipt(string memory wallet\n      PUSH 20\t\t\tipt(string memory wallet\n      ADD \t\t\tipt(string memory wallet\n      DUP3 \t\t\tipt(string memory wallet\n      DUP1 \t\t\tipt(string memory wallet\n      SLOAD \t\t\tipt(string memory wallet\n      PUSH [tag] 100\t\t\tipt(string memory wallet\n      SWAP1 \t\t\tipt(string memory wallet\n      PUSH [tag] 43\t\t\tipt(string memory wallet\n      JUMP \t\t\tipt(string memory wallet\n    tag 100\t\t\tipt(string memory wallet\n      JUMPDEST \t\t\tipt(string memory wallet\n      DUP1 \t\t\tipt(string memory wallet\n      ISZERO \t\t\tipt(string memory wallet\n      PUSH [tag] 101\t\t\tipt(string memory wallet\n      JUMPI \t\t\tipt(string memory wallet\n      DUP1 \t\t\tipt(string memory wallet\n      PUSH 1F\t\t\tipt(string memory wallet\n      LT \t\t\tipt(string memory wallet\n      PUSH [tag] 102\t\t\tipt(string memory wallet\n      JUMPI \t\t\tipt(string memory wallet\n      PUSH 100\t\t\tipt(string memory wallet\n      DUP1 \t\t\tipt(string memory wallet\n      DUP4 \t\t\tipt(string memory wallet\n      SLOAD \t\t\tipt(string memory wallet\n      DIV \t\t\tipt(string memory wallet\n      MUL \t\t\tipt(string memory wallet\n      DUP4 \t\t\tipt(string memory wallet\n      MSTORE \t\t\tipt(string memory wallet\n      SWAP2 \t\t\tipt(string memory wallet\n      PUSH 20\t\t\tipt(string memory wallet\n      ADD \t\t\tipt(string memory wallet\n      SWAP2 \t\t\tipt(string memory wallet\n      PUSH [tag] 101\t\t\tipt(string memory wallet\n      JUMP \t\t\tipt(string memory wallet\n    tag 102\t\t\tipt(string memory wallet\n      JUMPDEST \t\t\tipt(string memory wallet\n      DUP3 \t\t\tipt(string memory wallet\n      ADD \t\t\tipt(string memory wallet\n      SWAP2 \t\t\tipt(string memory wallet\n      SWAP1 \t\t\tipt(string memory wallet\n      PUSH 0\t\t\tipt(string memory wallet\n      MSTORE \t\t\tipt(string memory wallet\n      PUSH 20\t\t\tipt(string memory wallet\n      PUSH 0\t\t\tipt(string memory wallet\n      KECCAK256 \t\t\tipt(string memory wallet\n      SWAP1 \t\t\tipt(string memory wallet\n    tag 103\t\t\tipt(string memory wallet\n      JUMPDEST \t\t\tipt(string memory wallet\n      DUP2 \t\t\tipt(string memory wallet\n      SLOAD \t\t\tipt(string memory wallet\n      DUP2 \t\t\tipt(string memory wallet\n      MSTORE \t\t\tipt(string memory wallet\n      SWAP1 \t\t\tipt(string memory wallet\n      PUSH 1\t\t\tipt(string memory wallet\n      ADD \t\t\tipt(string memory wallet\n      SWAP1 \t\t\tipt(string memory wallet\n      PUSH 20\t\t\tipt(string memory wallet\n      ADD \t\t\tipt(string memory wallet\n      DUP1 \t\t\tipt(string memory wallet\n      DUP4 \t\t\tipt(string memory wallet\n      GT \t\t\tipt(string memory wallet\n      PUSH [tag] 103\t\t\tipt(string memory wallet\n      JUMPI \t\t\tipt(string memory wallet\n      DUP3 \t\t\tipt(string memory wallet\n      SWAP1 \t\t\tipt(string memory wallet\n      SUB \t\t\tipt(string memory wallet\n      PUSH 1F\t\t\tipt(string memory wallet\n      AND \t\t\tipt(string memory wallet\n      DUP3 \t\t\tipt(string memory wallet\n      ADD \t\t\tipt(string memory wallet\n      SWAP2 \t\t\tipt(string memory wallet\n    tag 101\t\t\tipt(string memory wallet\n      JUMPDEST \t\t\tipt(string memory wallet\n      POP \t\t\tipt(string memory wallet\n      POP \t\t\tipt(string memory wallet\n      POP \t\t\tipt(string memory wallet\n      POP \t\t\tipt(string memory wallet\n      POP \t\t\tipt(string memory wallet\n      DUP2 \t\t\tipt(string memory wallet\n      MSTORE \t\t\tipt(string memory wallet\n      PUSH 20\t\t\tipt(string memory wallet\n      ADD \t\t\tipt(string memory wallet\n      PUSH 8\t\t\tipt(string memory wallet\n      DUP3 \t\t\tipt(string memory wallet\n      ADD \t\t\tipt(string memory wallet\n      DUP1 \t\t\tipt(string memory wallet\n      SLOAD \t\t\tipt(string memory wallet\n      PUSH [tag] 104\t\t\tipt(string memory wallet\n      SWAP1 \t\t\tipt(string memory wallet\n      PUSH [tag] 43\t\t\tipt(string memory wallet\n      JUMP \t\t\tipt(string memory wallet\n    tag 104\t\t\tipt(string memory wallet\n      JUMPDEST \t\t\tipt(string memory wallet\n      DUP1 \t\t\tipt(string memory wallet\n      PUSH 1F\t\t\tipt(string memory wallet\n      ADD \t\t\tipt(string memory wallet\n      PUSH 20\t\t\tipt(string memory wallet\n      DUP1 \t\t\tipt(string memory wallet\n      SWAP2 \t\t\tipt(string memory wallet\n      DIV \t\t\tipt(string memory wallet\n      MUL \t\t\tipt(string memory wallet\n      PUSH 20\t\t\tipt(string memory wallet\n      ADD \t\t\tipt(string memory wallet\n      PUSH 40\t\t\tipt(string memory wallet\n      MLOAD \t\t\tipt(string memory wallet\n      SWAP1 \t\t\tipt(string memory wallet\n      DUP2 \t\t\tipt(string memory wallet\n      ADD \t\t\tipt(string memory wallet\n      PUSH 40\t\t\tipt(string memory wallet\n      MSTORE \t\t\tipt(string memory wallet\n      DUP1 \t\t\tipt(string memory wallet\n      SWAP3 \t\t\tipt(string memory wallet\n      SWAP2 \t\t\tipt(string memory wallet\n      SWAP1 \t\t\tipt(string memory wallet\n      DUP2 \t\t\tipt(string memory wallet\n      DUP2 \t\t\tipt(string memory wallet\n      MSTORE \t\t\tipt(string memory wallet\n      PUSH 20\t\t\tipt(string memory wallet\n      ADD \t\t\tipt(string memory wallet\n      DUP3 \t\t\tipt(string memory wallet\n      DUP1 \t\t\tipt(string memory wallet\n      SLOAD \t\t\tipt(string memory wallet\n      PUSH [tag] 105\t\t\tipt(string memory wallet\n      SWAP1 \t\t\tipt(string memory wallet\n      PUSH [tag] 43\t\t\tipt(string memory wallet\n      JUMP \t\t\tipt(string memory wallet\n    tag 105\t\t\tipt(string memory wallet\n      JUMPDEST \t\t\tipt(string memory wallet\n      DUP1 \t\t\tipt(string memory wallet\n      ISZERO \t\t\tipt(string memory wallet\n      PUSH [tag] 106\t\t\tipt(string memory wallet\n      JUMPI \t\t\tipt(string memory wallet\n      DUP1 \t\t\tipt(string memory wallet\n      PUSH 1F\t\t\tipt(string memory wallet\n      LT \t\t\tipt(string memory wallet\n      PUSH [tag] 107\t\t\tipt(string memory wallet\n      JUMPI \t\t\tipt(string memory wallet\n      PUSH 100\t\t\tipt(string memory wallet\n      DUP1 \t\t\tipt(string memory wallet\n      DUP4 \t\t\tipt(string memory wallet\n      SLOAD \t\t\tipt(string memory wallet\n      DIV \t\t\tipt(string memory wallet\n      MUL \t\t\tipt(string memory wallet\n      DUP4 \t\t\tipt(string memory wallet\n      MSTORE \t\t\tipt(string memory wallet\n      SWAP2 \t\t\tipt(string memory wallet\n      PUSH 20\t\t\tipt(string memory wallet\n      ADD \t\t\tipt(string memory wallet\n      SWAP2 \t\t\tipt(string memory wallet\n      PUSH [tag] 106\t\t\tipt(string memory wallet\n      JUMP \t\t\tipt(string memory wallet\n    tag 107\t\t\tipt(string memory wallet\n      JUMPDEST \t\t\tipt(string memory wallet\n      DUP3 \t\t\tipt(string memory wallet\n      ADD \t\t\tipt(string memory wallet\n      SWAP2 \t\t\tipt(string memory wallet\n      SWAP1 \t\t\tipt(string memory wallet\n      PUSH 0\t\t\tipt(string memory wallet\n      MSTORE \t\t\tipt(string memory wallet\n      PUSH 20\t\t\tipt(string memory wallet\n      PUSH 0\t\t\tipt(string memory wallet\n      KECCAK256 \t\t\tipt(string memory wallet\n      SWAP1 \t\t\tipt(string memory wallet\n    tag 108\t\t\tipt(string memory wallet\n      JUMPDEST \t\t\tipt(string memory wallet\n      DUP2 \t\t\tipt(string memory wallet\n      SLOAD \t\t\tipt(string memory wallet\n      DUP2 \t\t\tipt(string memory wallet\n      MSTORE \t\t\tipt(string memory wallet\n      SWAP1 \t\t\tipt(string memory wallet\n      PUSH 1\t\t\tipt(string memory wallet\n      ADD \t\t\tipt(string memory wallet\n      SWAP1 \t\t\tipt(string memory wallet\n      PUSH 20\t\t\tipt(string memory wallet\n      ADD \t\t\tipt(string memory wallet\n      DUP1 \t\t\tipt(string memory wallet\n      DUP4 \t\t\tipt(string memory wallet\n      GT \t\t\tipt(string memory wallet\n      PUSH [tag] 108\t\t\tipt(string memory wallet\n      JUMPI \t\t\tipt(string memory wallet\n      DUP3 \t\t\tipt(string memory wallet\n      SWAP1 \t\t\tipt(string memory wallet\n      SUB \t\t\tipt(string memory wallet\n      PUSH 1F\t\t\tipt(string memory wallet\n      AND \t\t\tipt(string memory wallet\n      DUP3 \t\t\tipt(string memory wallet\n      ADD \t\t\tipt(string memory wallet\n      SWAP2 \t\t\tipt(string memory wallet\n    tag 106\t\t\tipt(string memory wallet\n      JUMPDEST \t\t\tipt(string memory wallet\n      POP \t\t\tipt(string memory wallet\n      POP \t\t\tipt(string memory wallet\n      POP \t\t\tipt(string memory wallet\n      POP \t\t\tipt(string memory wallet\n      POP \t\t\tipt(string memory wallet\n      DUP2 \t\t\tipt(string memory wallet\n      MSTORE \t\t\tipt(string memory wallet\n      POP \t\t\tipt(string memory wallet\n      POP \t\t\tipt(string memory wallet\n      SWAP1 \t\t\tipt(string memory wallet\n      POP \t\t\tipt(string memory wallet\n      SWAP2 \t\t\t     require(exerciseDatas[id]...\n      SWAP1 \t\t\t     require(exerciseDatas[id]...\n      POP \t\t\t     require(exerciseDatas[id]...\n      JUMP \t\t\t     require(exerciseDatas[id]...\n    tag 32\t\t\t \"Receipt does not exist.\");\\r...\n      JUMPDEST \t\t\t \"Receipt does not exist.\");\\r...\n      PUSH [tag] 109\t\t\teiptId];\\r\\n    \n      PUSH [tag] 110\t\t\teiptId];\\r\\n    \n      JUMP \t\t\teiptId];\\r\\n    \n    tag 109\t\t\teiptId];\\r\\n    \n      JUMPDEST \t\t\teiptId];\\r\\n    \n      PUSH 1\t\t\t\n      DUP1 \t\t\t\n      SLOAD \t\t\t\n      SWAP1 \t\t\t\n      POP \t\t\t\n      DUP3 \t\t\t\n      LT \t\t\t\n      PUSH [tag] 112\t\t\t\n      JUMPI \t\t\t\n      PUSH 40\t\t\t\n      MLOAD \t\t\t\n      PUSH 8C379A000000000000000000000000000000000000000000000000000000000\t\t\t\n      DUP2 \t\t\t\n      MSTORE \t\t\t\n      PUSH 4\t\t\t\n      ADD \t\t\t\n      PUSH [tag] 113\t\t\t\n      SWAP1 \t\t\t\n      PUSH [tag] 114\t\t\t\n      JUMP \t\t\t\n    tag 113\t\t\t\n      JUMPDEST \t\t\t\n      PUSH 40\t\t\t\n      MLOAD \t\t\t\n      DUP1 \t\t\t\n      SWAP2 \t\t\t\n      SUB \t\t\t\n      SWAP1 \t\t\t\n      REVERT \t\t\t\n    tag 112\t\t\t\n      JUMPDEST \t\t\t\n      PUSH 1\t\t\t\n      DUP3 \t\t\t\n      DUP2 \t\t\t\n      SLOAD \t\t\t\n      DUP2 \t\t\t\n      LT \t\t\t\n      PUSH [tag] 115\t\t\t\n      JUMPI \t\t\t\n      PUSH [tag] 116\t\t\t\n      PUSH [tag] 117\t\t\t\n      JUMP \t\t\t\n    tag 116\t\t\t\n      JUMPDEST \t\t\t\n    tag 115\t\t\t\n      JUMPDEST \t\t\t\n      SWAP1 \t\t\t\n      PUSH 0\t\t\t\n      MSTORE \t\t\t\n      PUSH 20\t\t\t\n      PUSH 0\t\t\t\n      KECCAK256 \t\t\t\n      SWAP1 \t\t\t\n      PUSH 6\t\t\t\n      MUL \t\t\t\n      ADD \t\t\t\n      PUSH 40\t\t\t\n      MLOAD \t\t\t\n      DUP1 \t\t\t\n      PUSH C0\t\t\t\n      ADD \t\t\t\n      PUSH 40\t\t\t\n      MSTORE \t\t\t\n      SWAP1 \t\t\t\n      DUP2 \t\t\t\n      PUSH 0\t\t\t\n      DUP3 \t\t\t\n      ADD \t\t\t\n      DUP1 \t\t\t\n      SLOAD \t\t\t\n      PUSH [tag] 119\t\t\t\n      SWAP1 \t\t\t\n      PUSH [tag] 43\t\t\t\n      JUMP \t\t\t\n    tag 119\t\t\t\n      JUMPDEST \t\t\t\n      DUP1 \t\t\t\n      PUSH 1F\t\t\t\n      ADD \t\t\t\n      PUSH 20\t\t\t\n      DUP1 \t\t\t\n      SWAP2 \t\t\t\n      DIV \t\t\t\n      MUL \t\t\t\n      PUSH 20\t\t\t\n      ADD \t\t\t\n      PUSH 40\t\t\t\n      MLOAD \t\t\t\n      SWAP1 \t\t\t\n      DUP2 \t\t\t\n      ADD \t\t\t\n      PUSH 40\t\t\t\n      MSTORE \t\t\t\n      DUP1 \t\t\t\n      SWAP3 \t\t\t\n      SWAP2 \t\t\t\n      SWAP1 \t\t\t\n      DUP2 \t\t\t\n      DUP2 \t\t\t\n      MSTORE \t\t\t\n      PUSH 20\t\t\t\n      ADD \t\t\t\n      DUP3 \t\t\t\n      DUP1 \t\t\t\n      SLOAD \t\t\t\n      PUSH [tag] 120\t\t\t\n      SWAP1 \t\t\t\n      PUSH [tag] 43\t\t\t\n      JUMP \t\t\t\n    tag 120\t\t\t\n      JUMPDEST \t\t\t\n      DUP1 \t\t\t\n      ISZERO \t\t\t\n      PUSH [tag] 121\t\t\t\n      JUMPI \t\t\t\n      DUP1 \t\t\t\n      PUSH 1F\t\t\t\n      LT \t\t\t\n      PUSH [tag] 122\t\t\t\n      JUMPI \t\t\t\n      PUSH 100\t\t\t\n      DUP1 \t\t\t\n      DUP4 \t\t\t\n      SLOAD \t\t\t\n      DIV \t\t\t\n      MUL \t\t\t\n      DUP4 \t\t\t\n      MSTORE \t\t\t\n      SWAP2 \t\t\t\n      PUSH 20\t\t\t\n      ADD \t\t\t\n      SWAP2 \t\t\t\n      PUSH [tag] 121\t\t\t\n      JUMP \t\t\t\n    tag 122\t\t\t\n      JUMPDEST \t\t\t\n      DUP3 \t\t\t\n      ADD \t\t\t\n      SWAP2 \t\t\t\n      SWAP1 \t\t\t\n      PUSH 0\t\t\t\n      MSTORE \t\t\t\n      PUSH 20\t\t\t\n      PUSH 0\t\t\t\n      KECCAK256 \t\t\t\n      SWAP1 \t\t\t\n    tag 123\t\t\t\n      JUMPDEST \t\t\t\n      DUP2 \t\t\t\n      SLOAD \t\t\t\n      DUP2 \t\t\t\n      MSTORE \t\t\t\n      SWAP1 \t\t\t\n      PUSH 1\t\t\t\n      ADD \t\t\t\n      SWAP1 \t\t\t\n      PUSH 20\t\t\t\n      ADD \t\t\t\n      DUP1 \t\t\t\n      DUP4 \t\t\t\n      GT \t\t\t\n      PUSH [tag] 123\t\t\t\n      JUMPI \t\t\t\n      DUP3 \t\t\t\n      SWAP1 \t\t\t\n      SUB \t\t\t\n      PUSH 1F\t\t\t\n      AND \t\t\t\n      DUP3 \t\t\t\n      ADD \t\t\t\n      SWAP2 \t\t\t\n    tag 121\t\t\t\n      JUMPDEST \t\t\t\n      POP \t\t\t\n      POP \t\t\t\n      POP \t\t\t\n      POP \t\t\t\n      POP \t\t\t\n      DUP2 \t\t\t\n      MSTORE \t\t\t\n      PUSH 20\t\t\t\n      ADD \t\t\t\n      PUSH 1\t\t\t\n      DUP3 \t\t\t\n      ADD \t\t\t\n      PUSH 0\t\t\t\n      SWAP1 \t\t\t\n      SLOAD \t\t\t\n      SWAP1 \t\t\t\n      PUSH 100\t\t\t\n      EXP \t\t\t\n      SWAP1 \t\t\t\n      DIV \t\t\t\n      PUSH FF\t\t\t\n      AND \t\t\t\n      ISZERO \t\t\t\n      ISZERO \t\t\t\n      ISZERO \t\t\t\n      ISZERO \t\t\t\n      DUP2 \t\t\t\n      MSTORE \t\t\t\n      PUSH 20\t\t\t\n      ADD \t\t\t\n      PUSH 2\t\t\t\n      DUP3 \t\t\t\n      ADD \t\t\t\n      SLOAD \t\t\t\n      DUP2 \t\t\t\n      MSTORE \t\t\t\n      PUSH 20\t\t\t\n      ADD \t\t\t\n      PUSH 3\t\t\t\n      DUP3 \t\t\t\n      ADD \t\t\t\n      DUP1 \t\t\t\n      SLOAD \t\t\t\n      PUSH [tag] 124\t\t\t\n      SWAP1 \t\t\t\n      PUSH [tag] 43\t\t\t\n      JUMP \t\t\t\n    tag 124\t\t\t\n      JUMPDEST \t\t\t\n      DUP1 \t\t\t\n      PUSH 1F\t\t\t\n      ADD \t\t\t\n      PUSH 20\t\t\t\n      DUP1 \t\t\t\n      SWAP2 \t\t\t\n      DIV \t\t\t\n      MUL \t\t\t\n      PUSH 20\t\t\t\n      ADD \t\t\t\n      PUSH 40\t\t\t\n      MLOAD \t\t\t\n      SWAP1 \t\t\t\n      DUP2 \t\t\t\n      ADD \t\t\t\n      PUSH 40\t\t\t\n      MSTORE \t\t\t\n      DUP1 \t\t\t\n      SWAP3 \t\t\t\n      SWAP2 \t\t\t\n      SWAP1 \t\t\t\n      DUP2 \t\t\t\n      DUP2 \t\t\t\n      MSTORE \t\t\t\n      PUSH 20\t\t\t\n      ADD \t\t\t\n      DUP3 \t\t\t\n      DUP1 \t\t\t\n      SLOAD \t\t\t\n      PUSH [tag] 125\t\t\t\n      SWAP1 \t\t\t\n      PUSH [tag] 43\t\t\t\n      JUMP \t\t\t\n    tag 125\t\t\t\n      JUMPDEST \t\t\t\n      DUP1 \t\t\t\n      ISZERO \t\t\t\n      PUSH [tag] 126\t\t\t\n      JUMPI \t\t\t\n      DUP1 \t\t\t\n      PUSH 1F\t\t\t\n      LT \t\t\t\n      PUSH [tag] 127\t\t\t\n      JUMPI \t\t\t\n      PUSH 100\t\t\t\n      DUP1 \t\t\t\n      DUP4 \t\t\t\n      SLOAD \t\t\t\n      DIV \t\t\t\n      MUL \t\t\t\n      DUP4 \t\t\t\n      MSTORE \t\t\t\n      SWAP2 \t\t\t\n      PUSH 20\t\t\t\n      ADD \t\t\t\n      SWAP2 \t\t\t\n      PUSH [tag] 126\t\t\t\n      JUMP \t\t\t\n    tag 127\t\t\t\n      JUMPDEST \t\t\t\n      DUP3 \t\t\t\n      ADD \t\t\t\n      SWAP2 \t\t\t\n      SWAP1 \t\t\t\n      PUSH 0\t\t\t\n      MSTORE \t\t\t\n      PUSH 20\t\t\t\n      PUSH 0\t\t\t\n      KECCAK256 \t\t\t\n      SWAP1 \t\t\t\n    tag 128\t\t\t\n      JUMPDEST \t\t\t\n      DUP2 \t\t\t\n      SLOAD \t\t\t\n      DUP2 \t\t\t\n      MSTORE \t\t\t\n      SWAP1 \t\t\t\n      PUSH 1\t\t\t\n      ADD \t\t\t\n      SWAP1 \t\t\t\n      PUSH 20\t\t\t\n      ADD \t\t\t\n      DUP1 \t\t\t\n      DUP4 \t\t\t\n      GT \t\t\t\n      PUSH [tag] 128\t\t\t\n      JUMPI \t\t\t\n      DUP3 \t\t\t\n      SWAP1 \t\t\t\n      SUB \t\t\t\n      PUSH 1F\t\t\t\n      AND \t\t\t\n      DUP3 \t\t\t\n      ADD \t\t\t\n      SWAP2 \t\t\t\n    tag 126\t\t\t\n      JUMPDEST \t\t\t\n      POP \t\t\t\n      POP \t\t\t\n      POP \t\t\t\n      POP \t\t\t\n      POP \t\t\t\n      DUP2 \t\t\t\n      MSTORE \t\t\t\n      PUSH 20\t\t\t\n      ADD \t\t\t\n      PUSH 4\t\t\t\n      DUP3 \t\t\t\n      ADD \t\t\t\n      DUP1 \t\t\t\n      SLOAD \t\t\t\n      PUSH [tag] 129\t\t\t\n      SWAP1 \t\t\t\n      PUSH [tag] 43\t\t\t\n      JUMP \t\t\t\n    tag 129\t\t\t\n      JUMPDEST \t\t\t\n      DUP1 \t\t\t\n      PUSH 1F\t\t\t\n      ADD \t\t\t\n      PUSH 20\t\t\t\n      DUP1 \t\t\t\n      SWAP2 \t\t\t\n      DIV \t\t\t\n      MUL \t\t\t\n      PUSH 20\t\t\t\n      ADD \t\t\t\n      PUSH 40\t\t\t\n      MLOAD \t\t\t\n      SWAP1 \t\t\t\n      DUP2 \t\t\t\n      ADD \t\t\t\n      PUSH 40\t\t\t\n      MSTORE \t\t\t\n      DUP1 \t\t\t\n      SWAP3 \t\t\t\n      SWAP2 \t\t\t\n      SWAP1 \t\t\t\n      DUP2 \t\t\t\n      DUP2 \t\t\t\n      MSTORE \t\t\t\n      PUSH 20\t\t\t\n      ADD \t\t\t\n      DUP3 \t\t\t\n      DUP1 \t\t\t\n      SLOAD \t\t\t\n      PUSH [tag] 130\t\t\t\n      SWAP1 \t\t\t\n      PUSH [tag] 43\t\t\t\n      JUMP \t\t\t\n    tag 130\t\t\t\n      JUMPDEST \t\t\t\n      DUP1 \t\t\t\n      ISZERO \t\t\t\n      PUSH [tag] 131\t\t\t\n      JUMPI \t\t\t\n      DUP1 \t\t\t\n      PUSH 1F\t\t\t\n      LT \t\t\t\n      PUSH [tag] 132\t\t\t\n      JUMPI \t\t\t\n      PUSH 100\t\t\t\n      DUP1 \t\t\t\n      DUP4 \t\t\t\n      SLOAD \t\t\t\n      DIV \t\t\t\n      MUL \t\t\t\n      DUP4 \t\t\t\n      MSTORE \t\t\t\n      SWAP2 \t\t\t\n      PUSH 20\t\t\t\n      ADD \t\t\t\n      SWAP2 \t\t\t\n      PUSH [tag] 131\t\t\t\n      JUMP \t\t\t\n    tag 132\t\t\t\n      JUMPDEST \t\t\t\n      DUP3 \t\t\t\n      ADD \t\t\t\n      SWAP2 \t\t\t\n      SWAP1 \t\t\t\n      PUSH 0\t\t\t\n      MSTORE \t\t\t\n      PUSH 20\t\t\t\n      PUSH 0\t\t\t\n      KECCAK256 \t\t\t\n      SWAP1 \t\t\t\n    tag 133\t\t\t\n      JUMPDEST \t\t\t\n      DUP2 \t\t\t\n      SLOAD \t\t\t\n      DUP2 \t\t\t\n      MSTORE \t\t\t\n      SWAP1 \t\t\t\n      PUSH 1\t\t\t\n      ADD \t\t\t\n      SWAP1 \t\t\t\n      PUSH 20\t\t\t\n      ADD \t\t\t\n      DUP1 \t\t\t\n      DUP4 \t\t\t\n      GT \t\t\t\n      PUSH [tag] 133\t\t\t\n      JUMPI \t\t\t\n      DUP3 \t\t\t\n      SWAP1 \t\t\t\n      SUB \t\t\t\n      PUSH 1F\t\t\t\n      AND \t\t\t\n      DUP3 \t\t\t\n      ADD \t\t\t\n      SWAP2 \t\t\t\n    tag 131\t\t\t\n      JUMPDEST \t\t\t\n      POP \t\t\t\n      POP \t\t\t\n      POP \t\t\t\n      POP \t\t\t\n      POP \t\t\t\n      DUP2 \t\t\t\n      MSTORE \t\t\t\n      PUSH 20\t\t\t\n      ADD \t\t\t\n      PUSH 5\t\t\t\n      DUP3 \t\t\t\n      ADD \t\t\t\n      SLOAD \t\t\t\n      DUP2 \t\t\t\n      MSTORE \t\t\t\n      POP \t\t\t\n      POP \t\t\t\n      SWAP1 \t\t\t\n      POP \t\t\t\n      SWAP2 \t\t\t \"Receipt does not exist.\");\\r...\n      SWAP1 \t\t\t \"Receipt does not exist.\");\\r...\n      POP \t\t\t \"Receipt does not exist.\");\\r...\n      JUMP \t\t\t \"Receipt does not exist.\");\\r...\n    tag 37\t\t\tExerciseData) public exerciseD...\n      JUMPDEST \t\t\tExerciseData) public exerciseD...\n      PUSH 0\t\t\tExerciseData) public exerciseD...\n      PUSH 20\t\t\tExerciseData) public exerciseD...\n      MSTORE \t\t\tExerciseData) public exerciseD...\n      DUP1 \t\t\tExerciseData) public exerciseD...\n      PUSH 0\t\t\tExerciseData) public exerciseD...\n      MSTORE \t\t\tExerciseData) public exerciseD...\n      PUSH 40\t\t\tExerciseData) public exerciseD...\n      PUSH 0\t\t\tExerciseData) public exerciseD...\n      KECCAK256 \t\t\tExerciseData) public exerciseD...\n      PUSH 0\t\t\tExerciseData) public exerciseD...\n      SWAP2 \t\t\tExerciseData) public exerciseD...\n      POP \t\t\tExerciseData) public exerciseD...\n      SWAP1 \t\t\tExerciseData) public exerciseD...\n      POP \t\t\tExerciseData) public exerciseD...\n      DUP1 \t\t\tExerciseData) public exerciseD...\n      PUSH 0\t\t\tExerciseData) public exerciseD...\n      ADD \t\t\tExerciseData) public exerciseD...\n      SLOAD \t\t\tExerciseData) public exerciseD...\n      SWAP1 \t\t\tExerciseData) public exerciseD...\n      DUP1 \t\t\tExerciseData) public exerciseD...\n      PUSH 1\t\t\tExerciseData) public exerciseD...\n      ADD \t\t\tExerciseData) public exerciseD...\n      SLOAD \t\t\tExerciseData) public exerciseD...\n      SWAP1 \t\t\tExerciseData) public exerciseD...\n      DUP1 \t\t\tExerciseData) public exerciseD...\n      PUSH 2\t\t\tExerciseData) public exerciseD...\n      ADD \t\t\tExerciseData) public exerciseD...\n      SLOAD \t\t\tExerciseData) public exerciseD...\n      SWAP1 \t\t\tExerciseData) public exerciseD...\n      DUP1 \t\t\tExerciseData) public exerciseD...\n      PUSH 3\t\t\tExerciseData) public exerciseD...\n      ADD \t\t\tExerciseData) public exerciseD...\n      SLOAD \t\t\tExerciseData) public exerciseD...\n      SWAP1 \t\t\tExerciseData) public exerciseD...\n      DUP1 \t\t\tExerciseData) public exerciseD...\n      PUSH 4\t\t\tExerciseData) public exerciseD...\n      ADD \t\t\tExerciseData) public exerciseD...\n      DUP1 \t\t\tExerciseData) public exerciseD...\n      SLOAD \t\t\tExerciseData) public exerciseD...\n      PUSH [tag] 134\t\t\tExerciseData) public exerciseD...\n      SWAP1 \t\t\tExerciseData) public exerciseD...\n      PUSH [tag] 43\t\t\tExerciseData) public exerciseD...\n      JUMP \t\t\tExerciseData) public exerciseD...\n    tag 134\t\t\tExerciseData) public exerciseD...\n      JUMPDEST \t\t\tExerciseData) public exerciseD...\n      DUP1 \t\t\tExerciseData) public exerciseD...\n      PUSH 1F\t\t\tExerciseData) public exerciseD...\n      ADD \t\t\tExerciseData) public exerciseD...\n      PUSH 20\t\t\tExerciseData) public exerciseD...\n      DUP1 \t\t\tExerciseData) public exerciseD...\n      SWAP2 \t\t\tExerciseData) public exerciseD...\n      DIV \t\t\tExerciseData) public exerciseD...\n      MUL \t\t\tExerciseData) public exerciseD...\n      PUSH 20\t\t\tExerciseData) public exerciseD...\n      ADD \t\t\tExerciseData) public exerciseD...\n      PUSH 40\t\t\tExerciseData) public exerciseD...\n      MLOAD \t\t\tExerciseData) public exerciseD...\n      SWAP1 \t\t\tExerciseData) public exerciseD...\n      DUP2 \t\t\tExerciseData) public exerciseD...\n      ADD \t\t\tExerciseData) public exerciseD...\n      PUSH 40\t\t\tExerciseData) public exerciseD...\n      MSTORE \t\t\tExerciseData) public exerciseD...\n      DUP1 \t\t\tExerciseData) public exerciseD...\n      SWAP3 \t\t\tExerciseData) public exerciseD...\n      SWAP2 \t\t\tExerciseData) public exerciseD...\n      SWAP1 \t\t\tExerciseData) public exerciseD...\n      DUP2 \t\t\tExerciseData) public exerciseD...\n      DUP2 \t\t\tExerciseData) public exerciseD...\n      MSTORE \t\t\tExerciseData) public exerciseD...\n      PUSH 20\t\t\tExerciseData) public exerciseD...\n      ADD \t\t\tExerciseData) public exerciseD...\n      DUP3 \t\t\tExerciseData) public exerciseD...\n      DUP1 \t\t\tExerciseData) public exerciseD...\n      SLOAD \t\t\tExerciseData) public exerciseD...\n      PUSH [tag] 135\t\t\tExerciseData) public exerciseD...\n      SWAP1 \t\t\tExerciseData) public exerciseD...\n      PUSH [tag] 43\t\t\tExerciseData) public exerciseD...\n      JUMP \t\t\tExerciseData) public exerciseD...\n    tag 135\t\t\tExerciseData) public exerciseD...\n      JUMPDEST \t\t\tExerciseData) public exerciseD...\n      DUP1 \t\t\tExerciseData) public exerciseD...\n      ISZERO \t\t\tExerciseData) public exerciseD...\n      PUSH [tag] 136\t\t\tExerciseData) public exerciseD...\n      JUMPI \t\t\tExerciseData) public exerciseD...\n      DUP1 \t\t\tExerciseData) public exerciseD...\n      PUSH 1F\t\t\tExerciseData) public exerciseD...\n      LT \t\t\tExerciseData) public exerciseD...\n      PUSH [tag] 137\t\t\tExerciseData) public exerciseD...\n      JUMPI \t\t\tExerciseData) public exerciseD...\n      PUSH 100\t\t\tExerciseData) public exerciseD...\n      DUP1 \t\t\tExerciseData) public exerciseD...\n      DUP4 \t\t\tExerciseData) public exerciseD...\n      SLOAD \t\t\tExerciseData) public exerciseD...\n      DIV \t\t\tExerciseData) public exerciseD...\n      MUL \t\t\tExerciseData) public exerciseD...\n      DUP4 \t\t\tExerciseData) public exerciseD...\n      MSTORE \t\t\tExerciseData) public exerciseD...\n      SWAP2 \t\t\tExerciseData) public exerciseD...\n      PUSH 20\t\t\tExerciseData) public exerciseD...\n      ADD \t\t\tExerciseData) public exerciseD...\n      SWAP2 \t\t\tExerciseData) public exerciseD...\n      PUSH [tag] 136\t\t\tExerciseData) public exerciseD...\n      JUMP \t\t\tExerciseData) public exerciseD...\n    tag 137\t\t\tExerciseData) public exerciseD...\n      JUMPDEST \t\t\tExerciseData) public exerciseD...\n      DUP3 \t\t\tExerciseData) public exerciseD...\n      ADD \t\t\tExerciseData) public exerciseD...\n      SWAP2 \t\t\tExerciseData) public exerciseD...\n      SWAP1 \t\t\tExerciseData) public exerciseD...\n      PUSH 0\t\t\tExerciseData) public exerciseD...\n      MSTORE \t\t\tExerciseData) public exerciseD...\n      PUSH 20\t\t\tExerciseData) public exerciseD...\n      PUSH 0\t\t\tExerciseData) public exerciseD...\n      KECCAK256 \t\t\tExerciseData) public exerciseD...\n      SWAP1 \t\t\tExerciseData) public exerciseD...\n    tag 138\t\t\tExerciseData) public exerciseD...\n      JUMPDEST \t\t\tExerciseData) public exerciseD...\n      DUP2 \t\t\tExerciseData) public exerciseD...\n      SLOAD \t\t\tExerciseData) public exerciseD...\n      DUP2 \t\t\tExerciseData) public exerciseD...\n      MSTORE \t\t\tExerciseData) public exerciseD...\n      SWAP1 \t\t\tExerciseData) public exerciseD...\n      PUSH 1\t\t\tExerciseData) public exerciseD...\n      ADD \t\t\tExerciseData) public exerciseD...\n      SWAP1 \t\t\tExerciseData) public exerciseD...\n      PUSH 20\t\t\tExerciseData) public exerciseD...\n      ADD \t\t\tExerciseData) public exerciseD...\n      DUP1 \t\t\tExerciseData) public exerciseD...\n      DUP4 \t\t\tExerciseData) public exerciseD...\n      GT \t\t\tExerciseData) public exerciseD...\n      PUSH [tag] 138\t\t\tExerciseData) public exerciseD...\n      JUMPI \t\t\tExerciseData) public exerciseD...\n      DUP3 \t\t\tExerciseData) public exerciseD...\n      SWAP1 \t\t\tExerciseData) public exerciseD...\n      SUB \t\t\tExerciseData) public exerciseD...\n      PUSH 1F\t\t\tExerciseData) public exerciseD...\n      AND \t\t\tExerciseData) public exerciseD...\n      DUP3 \t\t\tExerciseData) public exerciseD...\n      ADD \t\t\tExerciseData) public exerciseD...\n      SWAP2 \t\t\tExerciseData) public exerciseD...\n    tag 136\t\t\tExerciseData) public exerciseD...\n      JUMPDEST \t\t\tExerciseData) public exerciseD...\n      POP \t\t\tExerciseData) public exerciseD...\n      POP \t\t\tExerciseData) public exerciseD...\n      POP \t\t\tExerciseData) public exerciseD...\n      POP \t\t\tExerciseData) public exerciseD...\n      POP \t\t\tExerciseData) public exerciseD...\n      SWAP1 \t\t\tExerciseData) public exerciseD...\n      DUP1 \t\t\tExerciseData) public exerciseD...\n      PUSH 5\t\t\tExerciseData) public exerciseD...\n      ADD \t\t\tExerciseData) public exerciseD...\n      DUP1 \t\t\tExerciseData) public exerciseD...\n      SLOAD \t\t\tExerciseData) public exerciseD...\n      PUSH [tag] 139\t\t\tExerciseData) public exerciseD...\n      SWAP1 \t\t\tExerciseData) public exerciseD...\n      PUSH [tag] 43\t\t\tExerciseData) public exerciseD...\n      JUMP \t\t\tExerciseData) public exerciseD...\n    tag 139\t\t\tExerciseData) public exerciseD...\n      JUMPDEST \t\t\tExerciseData) public exerciseD...\n      DUP1 \t\t\tExerciseData) public exerciseD...\n      PUSH 1F\t\t\tExerciseData) public exerciseD...\n      ADD \t\t\tExerciseData) public exerciseD...\n      PUSH 20\t\t\tExerciseData) public exerciseD...\n      DUP1 \t\t\tExerciseData) public exerciseD...\n      SWAP2 \t\t\tExerciseData) public exerciseD...\n      DIV \t\t\tExerciseData) public exerciseD...\n      MUL \t\t\tExerciseData) public exerciseD...\n      PUSH 20\t\t\tExerciseData) public exerciseD...\n      ADD \t\t\tExerciseData) public exerciseD...\n      PUSH 40\t\t\tExerciseData) public exerciseD...\n      MLOAD \t\t\tExerciseData) public exerciseD...\n      SWAP1 \t\t\tExerciseData) public exerciseD...\n      DUP2 \t\t\tExerciseData) public exerciseD...\n      ADD \t\t\tExerciseData) public exerciseD...\n      PUSH 40\t\t\tExerciseData) public exerciseD...\n      MSTORE \t\t\tExerciseData) public exerciseD...\n      DUP1 \t\t\tExerciseData) public exerciseD...\n      SWAP3 \t\t\tExerciseData) public exerciseD...\n      SWAP2 \t\t\tExerciseData) public exerciseD...\n      SWAP1 \t\t\tExerciseData) public exerciseD...\n      DUP2 \t\t\tExerciseData) public exerciseD...\n      DUP2 \t\t\tExerciseData) public exerciseD...\n      MSTORE \t\t\tExerciseData) public exerciseD...\n      PUSH 20\t\t\tExerciseData) public exerciseD...\n      ADD \t\t\tExerciseData) public exerciseD...\n      DUP3 \t\t\tExerciseData) public exerciseD...\n      DUP1 \t\t\tExerciseData) public exerciseD...\n      SLOAD \t\t\tExerciseData) public exerciseD...\n      PUSH [tag] 140\t\t\tExerciseData) public exerciseD...\n      SWAP1 \t\t\tExerciseData) public exerciseD...\n      PUSH [tag] 43\t\t\tExerciseData) public exerciseD...\n      JUMP \t\t\tExerciseData) public exerciseD...\n    tag 140\t\t\tExerciseData) public exerciseD...\n      JUMPDEST \t\t\tExerciseData) public exerciseD...\n      DUP1 \t\t\tExerciseData) public exerciseD...\n      ISZERO \t\t\tExerciseData) public exerciseD...\n      PUSH [tag] 141\t\t\tExerciseData) public exerciseD...\n      JUMPI \t\t\tExerciseData) public exerciseD...\n      DUP1 \t\t\tExerciseData) public exerciseD...\n      PUSH 1F\t\t\tExerciseData) public exerciseD...\n      LT \t\t\tExerciseData) public exerciseD...\n      PUSH [tag] 142\t\t\tExerciseData) public exerciseD...\n      JUMPI \t\t\tExerciseData) public exerciseD...\n      PUSH 100\t\t\tExerciseData) public exerciseD...\n      DUP1 \t\t\tExerciseData) public exerciseD...\n      DUP4 \t\t\tExerciseData) public exerciseD...\n      SLOAD \t\t\tExerciseData) public exerciseD...\n      DIV \t\t\tExerciseData) public exerciseD...\n      MUL \t\t\tExerciseData) public exerciseD...\n      DUP4 \t\t\tExerciseData) public exerciseD...\n      MSTORE \t\t\tExerciseData) public exerciseD...\n      SWAP2 \t\t\tExerciseData) public exerciseD...\n      PUSH 20\t\t\tExerciseData) public exerciseD...\n      ADD \t\t\tExerciseData) public exerciseD...\n      SWAP2 \t\t\tExerciseData) public exerciseD...\n      PUSH [tag] 141\t\t\tExerciseData) public exerciseD...\n      JUMP \t\t\tExerciseData) public exerciseD...\n    tag 142\t\t\tExerciseData) public exerciseD...\n      JUMPDEST \t\t\tExerciseData) public exerciseD...\n      DUP3 \t\t\tExerciseData) public exerciseD...\n      ADD \t\t\tExerciseData) public exerciseD...\n      SWAP2 \t\t\tExerciseData) public exerciseD...\n      SWAP1 \t\t\tExerciseData) public exerciseD...\n      PUSH 0\t\t\tExerciseData) public exerciseD...\n      MSTORE \t\t\tExerciseData) public exerciseD...\n      PUSH 20\t\t\tExerciseData) public exerciseD...\n      PUSH 0\t\t\tExerciseData) public exerciseD...\n      KECCAK256 \t\t\tExerciseData) public exerciseD...\n      SWAP1 \t\t\tExerciseData) public exerciseD...\n    tag 143\t\t\tExerciseData) public exerciseD...\n      JUMPDEST \t\t\tExerciseData) public exerciseD...\n      DUP2 \t\t\tExerciseData) public exerciseD...\n      SLOAD \t\t\tExerciseData) public exerciseD...\n      DUP2 \t\t\tExerciseData) public exerciseD...\n      MSTORE \t\t\tExerciseData) public exerciseD...\n      SWAP1 \t\t\tExerciseData) public exerciseD...\n      PUSH 1\t\t\tExerciseData) public exerciseD...\n      ADD \t\t\tExerciseData) public exerciseD...\n      SWAP1 \t\t\tExerciseData) public exerciseD...\n      PUSH 20\t\t\tExerciseData) public exerciseD...\n      ADD \t\t\tExerciseData) public exerciseD...\n      DUP1 \t\t\tExerciseData) public exerciseD...\n      DUP4 \t\t\tExerciseData) public exerciseD...\n      GT \t\t\tExerciseData) public exerciseD...\n      PUSH [tag] 143\t\t\tExerciseData) public exerciseD...\n      JUMPI \t\t\tExerciseData) public exerciseD...\n      DUP3 \t\t\tExerciseData) public exerciseD...\n      SWAP1 \t\t\tExerciseData) public exerciseD...\n      SUB \t\t\tExerciseData) public exerciseD...\n      PUSH 1F\t\t\tExerciseData) public exerciseD...\n      AND \t\t\tExerciseData) public exerciseD...\n      DUP3 \t\t\tExerciseData) public exerciseD...\n      ADD \t\t\tExerciseData) public exerciseD...\n      SWAP2 \t\t\tExerciseData) public exerciseD...\n    tag 141\t\t\tExerciseData) public exerciseD...\n      JUMPDEST \t\t\tExerciseData) public exerciseD...\n      POP \t\t\tExerciseData) public exerciseD...\n      POP \t\t\tExerciseData) public exerciseD...\n      POP \t\t\tExerciseData) public exerciseD...\n      POP \t\t\tExerciseData) public exerciseD...\n      POP \t\t\tExerciseData) public exerciseD...\n      SWAP1 \t\t\tExerciseData) public exerciseD...\n      DUP1 \t\t\tExerciseData) public exerciseD...\n      PUSH 6\t\t\tExerciseData) public exerciseD...\n      ADD \t\t\tExerciseData) public exerciseD...\n      DUP1 \t\t\tExerciseData) public exerciseD...\n      SLOAD \t\t\tExerciseData) public exerciseD...\n      PUSH [tag] 144\t\t\tExerciseData) public exerciseD...\n      SWAP1 \t\t\tExerciseData) public exerciseD...\n      PUSH [tag] 43\t\t\tExerciseData) public exerciseD...\n      JUMP \t\t\tExerciseData) public exerciseD...\n    tag 144\t\t\tExerciseData) public exerciseD...\n      JUMPDEST \t\t\tExerciseData) public exerciseD...\n      DUP1 \t\t\tExerciseData) public exerciseD...\n      PUSH 1F\t\t\tExerciseData) public exerciseD...\n      ADD \t\t\tExerciseData) public exerciseD...\n      PUSH 20\t\t\tExerciseData) public exerciseD...\n      DUP1 \t\t\tExerciseData) public exerciseD...\n      SWAP2 \t\t\tExerciseData) public exerciseD...\n      DIV \t\t\tExerciseData) public exerciseD...\n      MUL \t\t\tExerciseData) public exerciseD...\n      PUSH 20\t\t\tExerciseData) public exerciseD...\n      ADD \t\t\tExerciseData) public exerciseD...\n      PUSH 40\t\t\tExerciseData) public exerciseD...\n      MLOAD \t\t\tExerciseData) public exerciseD...\n      SWAP1 \t\t\tExerciseData) public exerciseD...\n      DUP2 \t\t\tExerciseData) public exerciseD...\n      ADD \t\t\tExerciseData) public exerciseD...\n      PUSH 40\t\t\tExerciseData) public exerciseD...\n      MSTORE \t\t\tExerciseData) public exerciseD...\n      DUP1 \t\t\tExerciseData) public exerciseD...\n      SWAP3 \t\t\tExerciseData) public exerciseD...\n      SWAP2 \t\t\tExerciseData) public exerciseD...\n      SWAP1 \t\t\tExerciseData) public exerciseD...\n      DUP2 \t\t\tExerciseData) public exerciseD...\n      DUP2 \t\t\tExerciseData) public exerciseD...\n      MSTORE \t\t\tExerciseData) public exerciseD...\n      PUSH 20\t\t\tExerciseData) public exerciseD...\n      ADD \t\t\tExerciseData) public exerciseD...\n      DUP3 \t\t\tExerciseData) public exerciseD...\n      DUP1 \t\t\tExerciseData) public exerciseD...\n      SLOAD \t\t\tExerciseData) public exerciseD...\n      PUSH [tag] 145\t\t\tExerciseData) public exerciseD...\n      SWAP1 \t\t\tExerciseData) public exerciseD...\n      PUSH [tag] 43\t\t\tExerciseData) public exerciseD...\n      JUMP \t\t\tExerciseData) public exerciseD...\n    tag 145\t\t\tExerciseData) public exerciseD...\n      JUMPDEST \t\t\tExerciseData) public exerciseD...\n      DUP1 \t\t\tExerciseData) public exerciseD...\n      ISZERO \t\t\tExerciseData) public exerciseD...\n      PUSH [tag] 146\t\t\tExerciseData) public exerciseD...\n      JUMPI \t\t\tExerciseData) public exerciseD...\n      DUP1 \t\t\tExerciseData) public exerciseD...\n      PUSH 1F\t\t\tExerciseData) public exerciseD...\n      LT \t\t\tExerciseData) public exerciseD...\n      PUSH [tag] 147\t\t\tExerciseData) public exerciseD...\n      JUMPI \t\t\tExerciseData) public exerciseD...\n      PUSH 100\t\t\tExerciseData) public exerciseD...\n      DUP1 \t\t\tExerciseData) public exerciseD...\n      DUP4 \t\t\tExerciseData) public exerciseD...\n      SLOAD \t\t\tExerciseData) public exerciseD...\n      DIV \t\t\tExerciseData) public exerciseD...\n      MUL \t\t\tExerciseData) public exerciseD...\n      DUP4 \t\t\tExerciseData) public exerciseD...\n      MSTORE \t\t\tExerciseData) public exerciseD...\n      SWAP2 \t\t\tExerciseData) public exerciseD...\n      PUSH 20\t\t\tExerciseData) public exerciseD...\n      ADD \t\t\tExerciseData) public exerciseD...\n      SWAP2 \t\t\tExerciseData) public exerciseD...\n      PUSH [tag] 146\t\t\tExerciseData) public exerciseD...\n      JUMP \t\t\tExerciseData) public exerciseD...\n    tag 147\t\t\tExerciseData) public exerciseD...\n      JUMPDEST \t\t\tExerciseData) public exerciseD...\n      DUP3 \t\t\tExerciseData) public exerciseD...\n      ADD \t\t\tExerciseData) public exerciseD...\n      SWAP2 \t\t\tExerciseData) public exerciseD...\n      SWAP1 \t\t\tExerciseData) public exerciseD...\n      PUSH 0\t\t\tExerciseData) public exerciseD...\n      MSTORE \t\t\tExerciseData) public exerciseD...\n      PUSH 20\t\t\tExerciseData) public exerciseD...\n      PUSH 0\t\t\tExerciseData) public exerciseD...\n      KECCAK256 \t\t\tExerciseData) public exerciseD...\n      SWAP1 \t\t\tExerciseData) public exerciseD...\n    tag 148\t\t\tExerciseData) public exerciseD...\n      JUMPDEST \t\t\tExerciseData) public exerciseD...\n      DUP2 \t\t\tExerciseData) public exerciseD...\n      SLOAD \t\t\tExerciseData) public exerciseD...\n      DUP2 \t\t\tExerciseData) public exerciseD...\n      MSTORE \t\t\tExerciseData) public exerciseD...\n      SWAP1 \t\t\tExerciseData) public exerciseD...\n      PUSH 1\t\t\tExerciseData) public exerciseD...\n      ADD \t\t\tExerciseData) public exerciseD...\n      SWAP1 \t\t\tExerciseData) public exerciseD...\n      PUSH 20\t\t\tExerciseData) public exerciseD...\n      ADD \t\t\tExerciseData) public exerciseD...\n      DUP1 \t\t\tExerciseData) public exerciseD...\n      DUP4 \t\t\tExerciseData) public exerciseD...\n      GT \t\t\tExerciseData) public exerciseD...\n      PUSH [tag] 148\t\t\tExerciseData) public exerciseD...\n      JUMPI \t\t\tExerciseData) public exerciseD...\n      DUP3 \t\t\tExerciseData) public exerciseD...\n      SWAP1 \t\t\tExerciseData) public exerciseD...\n      SUB \t\t\tExerciseData) public exerciseD...\n      PUSH 1F\t\t\tExerciseData) public exerciseD...\n      AND \t\t\tExerciseData) public exerciseD...\n      DUP3 \t\t\tExerciseData) public exerciseD...\n      ADD \t\t\tExerciseData) public exerciseD...\n      SWAP2 \t\t\tExerciseData) public exerciseD...\n    tag 146\t\t\tExerciseData) public exerciseD...\n      JUMPDEST \t\t\tExerciseData) public exerciseD...\n      POP \t\t\tExerciseData) public exerciseD...\n      POP \t\t\tExerciseData) public exerciseD...\n      POP \t\t\tExerciseData) public exerciseD...\n      POP \t\t\tExerciseData) public exerciseD...\n      POP \t\t\tExerciseData) public exerciseD...\n      SWAP1 \t\t\tExerciseData) public exerciseD...\n      DUP1 \t\t\tExerciseData) public exerciseD...\n      PUSH 7\t\t\tExerciseData) public exerciseD...\n      ADD \t\t\tExerciseData) public exerciseD...\n      DUP1 \t\t\tExerciseData) public exerciseD...\n      SLOAD \t\t\tExerciseData) public exerciseD...\n      PUSH [tag] 149\t\t\tExerciseData) public exerciseD...\n      SWAP1 \t\t\tExerciseData) public exerciseD...\n      PUSH [tag] 43\t\t\tExerciseData) public exerciseD...\n      JUMP \t\t\tExerciseData) public exerciseD...\n    tag 149\t\t\tExerciseData) public exerciseD...\n      JUMPDEST \t\t\tExerciseData) public exerciseD...\n      DUP1 \t\t\tExerciseData) public exerciseD...\n      PUSH 1F\t\t\tExerciseData) public exerciseD...\n      ADD \t\t\tExerciseData) public exerciseD...\n      PUSH 20\t\t\tExerciseData) public exerciseD...\n      DUP1 \t\t\tExerciseData) public exerciseD...\n      SWAP2 \t\t\tExerciseData) public exerciseD...\n      DIV \t\t\tExerciseData) public exerciseD...\n      MUL \t\t\tExerciseData) public exerciseD...\n      PUSH 20\t\t\tExerciseData) public exerciseD...\n      ADD \t\t\tExerciseData) public exerciseD...\n      PUSH 40\t\t\tExerciseData) public exerciseD...\n      MLOAD \t\t\tExerciseData) public exerciseD...\n      SWAP1 \t\t\tExerciseData) public exerciseD...\n      DUP2 \t\t\tExerciseData) public exerciseD...\n      ADD \t\t\tExerciseData) public exerciseD...\n      PUSH 40\t\t\tExerciseData) public exerciseD...\n      MSTORE \t\t\tExerciseData) public exerciseD...\n      DUP1 \t\t\tExerciseData) public exerciseD...\n      SWAP3 \t\t\tExerciseData) public exerciseD...\n      SWAP2 \t\t\tExerciseData) public exerciseD...\n      SWAP1 \t\t\tExerciseData) public exerciseD...\n      DUP2 \t\t\tExerciseData) public exerciseD...\n      DUP2 \t\t\tExerciseData) public exerciseD...\n      MSTORE \t\t\tExerciseData) public exerciseD...\n      PUSH 20\t\t\tExerciseData) public exerciseD...\n      ADD \t\t\tExerciseData) public exerciseD...\n      DUP3 \t\t\tExerciseData) public exerciseD...\n      DUP1 \t\t\tExerciseData) public exerciseD...\n      SLOAD \t\t\tExerciseData) public exerciseD...\n      PUSH [tag] 150\t\t\tExerciseData) public exerciseD...\n      SWAP1 \t\t\tExerciseData) public exerciseD...\n      PUSH [tag] 43\t\t\tExerciseData) public exerciseD...\n      JUMP \t\t\tExerciseData) public exerciseD...\n    tag 150\t\t\tExerciseData) public exerciseD...\n      JUMPDEST \t\t\tExerciseData) public exerciseD...\n      DUP1 \t\t\tExerciseData) public exerciseD...\n      ISZERO \t\t\tExerciseData) public exerciseD...\n      PUSH [tag] 151\t\t\tExerciseData) public exerciseD...\n      JUMPI \t\t\tExerciseData) public exerciseD...\n      DUP1 \t\t\tExerciseData) public exerciseD...\n      PUSH 1F\t\t\tExerciseData) public exerciseD...\n      LT \t\t\tExerciseData) public exerciseD...\n      PUSH [tag] 152\t\t\tExerciseData) public exerciseD...\n      JUMPI \t\t\tExerciseData) public exerciseD...\n      PUSH 100\t\t\tExerciseData) public exerciseD...\n      DUP1 \t\t\tExerciseData) public exerciseD...\n      DUP4 \t\t\tExerciseData) public exerciseD...\n      SLOAD \t\t\tExerciseData) public exerciseD...\n      DIV \t\t\tExerciseData) public exerciseD...\n      MUL \t\t\tExerciseData) public exerciseD...\n      DUP4 \t\t\tExerciseData) public exerciseD...\n      MSTORE \t\t\tExerciseData) public exerciseD...\n      SWAP2 \t\t\tExerciseData) public exerciseD...\n      PUSH 20\t\t\tExerciseData) public exerciseD...\n      ADD \t\t\tExerciseData) public exerciseD...\n      SWAP2 \t\t\tExerciseData) public exerciseD...\n      PUSH [tag] 151\t\t\tExerciseData) public exerciseD...\n      JUMP \t\t\tExerciseData) public exerciseD...\n    tag 152\t\t\tExerciseData) public exerciseD...\n      JUMPDEST \t\t\tExerciseData) public exerciseD...\n      DUP3 \t\t\tExerciseData) public exerciseD...\n      ADD \t\t\tExerciseData) public exerciseD...\n      SWAP2 \t\t\tExerciseData) public exerciseD...\n      SWAP1 \t\t\tExerciseData) public exerciseD...\n      PUSH 0\t\t\tExerciseData) public exerciseD...\n      MSTORE \t\t\tExerciseData) public exerciseD...\n      PUSH 20\t\t\tExerciseData) public exerciseD...\n      PUSH 0\t\t\tExerciseData) public exerciseD...\n      KECCAK256 \t\t\tExerciseData) public exerciseD...\n      SWAP1 \t\t\tExerciseData) public exerciseD...\n    tag 153\t\t\tExerciseData) public exerciseD...\n      JUMPDEST \t\t\tExerciseData) public exerciseD...\n      DUP2 \t\t\tExerciseData) public exerciseD...\n      SLOAD \t\t\tExerciseData) public exerciseD...\n      DUP2 \t\t\tExerciseData) public exerciseD...\n      MSTORE \t\t\tExerciseData) public exerciseD...\n      SWAP1 \t\t\tExerciseData) public exerciseD...\n      PUSH 1\t\t\tExerciseData) public exerciseD...\n      ADD \t\t\tExerciseData) public exerciseD...\n      SWAP1 \t\t\tExerciseData) public exerciseD...\n      PUSH 20\t\t\tExerciseData) public exerciseD...\n      ADD \t\t\tExerciseData) public exerciseD...\n      DUP1 \t\t\tExerciseData) public exerciseD...\n      DUP4 \t\t\tExerciseData) public exerciseD...\n      GT \t\t\tExerciseData) public exerciseD...\n      PUSH [tag] 153\t\t\tExerciseData) public exerciseD...\n      JUMPI \t\t\tExerciseData) public exerciseD...\n      DUP3 \t\t\tExerciseData) public exerciseD...\n      SWAP1 \t\t\tExerciseData) public exerciseD...\n      SUB \t\t\tExerciseData) public exerciseD...\n      PUSH 1F\t\t\tExerciseData) public exerciseD...\n      AND \t\t\tExerciseData) public exerciseD...\n      DUP3 \t\t\tExerciseData) public exerciseD...\n      ADD \t\t\tExerciseData) public exerciseD...\n      SWAP2 \t\t\tExerciseData) public exerciseD...\n    tag 151\t\t\tExerciseData) public exerciseD...\n      JUMPDEST \t\t\tExerciseData) public exerciseD...\n      POP \t\t\tExerciseData) public exerciseD...\n      POP \t\t\tExerciseData) public exerciseD...\n      POP \t\t\tExerciseData) public exerciseD...\n      POP \t\t\tExerciseData) public exerciseD...\n      POP \t\t\tExerciseData) public exerciseD...\n      SWAP1 \t\t\tExerciseData) public exerciseD...\n      DUP1 \t\t\tExerciseData) public exerciseD...\n      PUSH 8\t\t\tExerciseData) public exerciseD...\n      ADD \t\t\tExerciseData) public exerciseD...\n      DUP1 \t\t\tExerciseData) public exerciseD...\n      SLOAD \t\t\tExerciseData) public exerciseD...\n      PUSH [tag] 154\t\t\tExerciseData) public exerciseD...\n      SWAP1 \t\t\tExerciseData) public exerciseD...\n      PUSH [tag] 43\t\t\tExerciseData) public exerciseD...\n      JUMP \t\t\tExerciseData) public exerciseD...\n    tag 154\t\t\tExerciseData) public exerciseD...\n      JUMPDEST \t\t\tExerciseData) public exerciseD...\n      DUP1 \t\t\tExerciseData) public exerciseD...\n      PUSH 1F\t\t\tExerciseData) public exerciseD...\n      ADD \t\t\tExerciseData) public exerciseD...\n      PUSH 20\t\t\tExerciseData) public exerciseD...\n      DUP1 \t\t\tExerciseData) public exerciseD...\n      SWAP2 \t\t\tExerciseData) public exerciseD...\n      DIV \t\t\tExerciseData) public exerciseD...\n      MUL \t\t\tExerciseData) public exerciseD...\n      PUSH 20\t\t\tExerciseData) public exerciseD...\n      ADD \t\t\tExerciseData) public exerciseD...\n      PUSH 40\t\t\tExerciseData) public exerciseD...\n      MLOAD \t\t\tExerciseData) public exerciseD...\n      SWAP1 \t\t\tExerciseData) public exerciseD...\n      DUP2 \t\t\tExerciseData) public exerciseD...\n      ADD \t\t\tExerciseData) public exerciseD...\n      PUSH 40\t\t\tExerciseData) public exerciseD...\n      MSTORE \t\t\tExerciseData) public exerciseD...\n      DUP1 \t\t\tExerciseData) public exerciseD...\n      SWAP3 \t\t\tExerciseData) public exerciseD...\n      SWAP2 \t\t\tExerciseData) public exerciseD...\n      SWAP1 \t\t\tExerciseData) public exerciseD...\n      DUP2 \t\t\tExerciseData) public exerciseD...\n      DUP2 \t\t\tExerciseData) public exerciseD...\n      MSTORE \t\t\tExerciseData) public exerciseD...\n      PUSH 20\t\t\tExerciseData) public exerciseD...\n      ADD \t\t\tExerciseData) public exerciseD...\n      DUP3 \t\t\tExerciseData) public exerciseD...\n      DUP1 \t\t\tExerciseData) public exerciseD...\n      SLOAD \t\t\tExerciseData) public exerciseD...\n      PUSH [tag] 155\t\t\tExerciseData) public exerciseD...\n      SWAP1 \t\t\tExerciseData) public exerciseD...\n      PUSH [tag] 43\t\t\tExerciseData) public exerciseD...\n      JUMP \t\t\tExerciseData) public exerciseD...\n    tag 155\t\t\tExerciseData) public exerciseD...\n      JUMPDEST \t\t\tExerciseData) public exerciseD...\n      DUP1 \t\t\tExerciseData) public exerciseD...\n      ISZERO \t\t\tExerciseData) public exerciseD...\n      PUSH [tag] 156\t\t\tExerciseData) public exerciseD...\n      JUMPI \t\t\tExerciseData) public exerciseD...\n      DUP1 \t\t\tExerciseData) public exerciseD...\n      PUSH 1F\t\t\tExerciseData) public exerciseD...\n      LT \t\t\tExerciseData) public exerciseD...\n      PUSH [tag] 157\t\t\tExerciseData) public exerciseD...\n      JUMPI \t\t\tExerciseData) public exerciseD...\n      PUSH 100\t\t\tExerciseData) public exerciseD...\n      DUP1 \t\t\tExerciseData) public exerciseD...\n      DUP4 \t\t\tExerciseData) public exerciseD...\n      SLOAD \t\t\tExerciseData) public exerciseD...\n      DIV \t\t\tExerciseData) public exerciseD...\n      MUL \t\t\tExerciseData) public exerciseD...\n      DUP4 \t\t\tExerciseData) public exerciseD...\n      MSTORE \t\t\tExerciseData) public exerciseD...\n      SWAP2 \t\t\tExerciseData) public exerciseD...\n      PUSH 20\t\t\tExerciseData) public exerciseD...\n      ADD \t\t\tExerciseData) public exerciseD...\n      SWAP2 \t\t\tExerciseData) public exerciseD...\n      PUSH [tag] 156\t\t\tExerciseData) public exerciseD...\n      JUMP \t\t\tExerciseData) public exerciseD...\n    tag 157\t\t\tExerciseData) public exerciseD...\n      JUMPDEST \t\t\tExerciseData) public exerciseD...\n      DUP3 \t\t\tExerciseData) public exerciseD...\n      ADD \t\t\tExerciseData) public exerciseD...\n      SWAP2 \t\t\tExerciseData) public exerciseD...\n      SWAP1 \t\t\tExerciseData) public exerciseD...\n      PUSH 0\t\t\tExerciseData) public exerciseD...\n      MSTORE \t\t\tExerciseData) public exerciseD...\n      PUSH 20\t\t\tExerciseData) public exerciseD...\n      PUSH 0\t\t\tExerciseData) public exerciseD...\n      KECCAK256 \t\t\tExerciseData) public exerciseD...\n      SWAP1 \t\t\tExerciseData) public exerciseD...\n    tag 158\t\t\tExerciseData) public exerciseD...\n      JUMPDEST \t\t\tExerciseData) public exerciseD...\n      DUP2 \t\t\tExerciseData) public exerciseD...\n      SLOAD \t\t\tExerciseData) public exerciseD...\n      DUP2 \t\t\tExerciseData) public exerciseD...\n      MSTORE \t\t\tExerciseData) public exerciseD...\n      SWAP1 \t\t\tExerciseData) public exerciseD...\n      PUSH 1\t\t\tExerciseData) public exerciseD...\n      ADD \t\t\tExerciseData) public exerciseD...\n      SWAP1 \t\t\tExerciseData) public exerciseD...\n      PUSH 20\t\t\tExerciseData) public exerciseD...\n      ADD \t\t\tExerciseData) public exerciseD...\n      DUP1 \t\t\tExerciseData) public exerciseD...\n      DUP4 \t\t\tExerciseData) public exerciseD...\n      GT \t\t\tExerciseData) public exerciseD...\n      PUSH [tag] 158\t\t\tExerciseData) public exerciseD...\n      JUMPI \t\t\tExerciseData) public exerciseD...\n      DUP3 \t\t\tExerciseData) public exerciseD...\n      SWAP1 \t\t\tExerciseData) public exerciseD...\n      SUB \t\t\tExerciseData) public exerciseD...\n      PUSH 1F\t\t\tExerciseData) public exerciseD...\n      AND \t\t\tExerciseData) public exerciseD...\n      DUP3 \t\t\tExerciseData) public exerciseD...\n      ADD \t\t\tExerciseData) public exerciseD...\n      SWAP2 \t\t\tExerciseData) public exerciseD...\n    tag 156\t\t\tExerciseData) public exerciseD...\n      JUMPDEST \t\t\tExerciseData) public exerciseD...\n      POP \t\t\tExerciseData) public exerciseD...\n      POP \t\t\tExerciseData) public exerciseD...\n      POP \t\t\tExerciseData) public exerciseD...\n      POP \t\t\tExerciseData) public exerciseD...\n      POP \t\t\tExerciseData) public exerciseD...\n      SWAP1 \t\t\tExerciseData) public exerciseD...\n      POP \t\t\tExerciseData) public exerciseD...\n      DUP10 \t\t\tExerciseData) public exerciseD...\n      JUMP \t\t\tExerciseData) public exerciseD...\n    tag 79\t\t\t\n      JUMPDEST \t\t\t\n      PUSH 40\t\t\t\n      MLOAD \t\t\t\n      DUP1 \t\t\t\n      PUSH 120\t\t\t\n      ADD \t\t\t\n      PUSH 40\t\t\t\n      MSTORE \t\t\t\n      DUP1 \t\t\t\n      PUSH 0\t\t\t\n      DUP2 \t\t\t\n      MSTORE \t\t\t\n      PUSH 20\t\t\t\n      ADD \t\t\t\n      PUSH 0\t\t\t\n      DUP2 \t\t\t\n      MSTORE \t\t\t\n      PUSH 20\t\t\t\n      ADD \t\t\t\n      PUSH 0\t\t\t\n      DUP2 \t\t\t\n      MSTORE \t\t\t\n      PUSH 20\t\t\t\n      ADD \t\t\t\n      PUSH 0\t\t\t\n      DUP2 \t\t\t\n      MSTORE \t\t\t\n      PUSH 20\t\t\t\n      ADD \t\t\t\n      PUSH 60\t\t\t\n      DUP2 \t\t\t\n      MSTORE \t\t\t\n      PUSH 20\t\t\t\n      ADD \t\t\t\n      PUSH 60\t\t\t\n      DUP2 \t\t\t\n      MSTORE \t\t\t\n      PUSH 20\t\t\t\n      ADD \t\t\t\n      PUSH 60\t\t\t\n      DUP2 \t\t\t\n      MSTORE \t\t\t\n      PUSH 20\t\t\t\n      ADD \t\t\t\n      PUSH 60\t\t\t\n      DUP2 \t\t\t\n      MSTORE \t\t\t\n      PUSH 20\t\t\t\n      ADD \t\t\t\n      PUSH 60\t\t\t\n      DUP2 \t\t\t\n      MSTORE \t\t\t\n      POP \t\t\t\n      SWAP1 \t\t\t\n      JUMP \t\t\t\n    tag 110\t\t\t\n      JUMPDEST \t\t\t\n      PUSH 40\t\t\t\n      MLOAD \t\t\t\n      DUP1 \t\t\t\n      PUSH C0\t\t\t\n      ADD \t\t\t\n      PUSH 40\t\t\t\n      MSTORE \t\t\t\n      DUP1 \t\t\t\n      PUSH 60\t\t\t\n      DUP2 \t\t\t\n      MSTORE \t\t\t\n      PUSH 20\t\t\t\n      ADD \t\t\t\n      PUSH 0\t\t\t\n      ISZERO \t\t\t\n      ISZERO \t\t\t\n      DUP2 \t\t\t\n      MSTORE \t\t\t\n      PUSH 20\t\t\t\n      ADD \t\t\t\n      PUSH 0\t\t\t\n      DUP2 \t\t\t\n      MSTORE \t\t\t\n      PUSH 20\t\t\t\n      ADD \t\t\t\n      PUSH 60\t\t\t\n      DUP2 \t\t\t\n      MSTORE \t\t\t\n      PUSH 20\t\t\t\n      ADD \t\t\t\n      PUSH 60\t\t\t\n      DUP2 \t\t\t\n      MSTORE \t\t\t\n      PUSH 20\t\t\t\n      ADD \t\t\t\n      PUSH 0\t\t\t\n      DUP2 \t\t\t\n      MSTORE \t\t\t\n      POP \t\t\t\n      SWAP1 \t\t\t\n      JUMP \t\t\t\n    tag 159\t\t\t-License-Identifier: MIT\\r\\npr...\n      JUMPDEST \t\t\t-License-Identifier: MIT\\r\\npr...\n      PUSH 0\t\t\tsolidi\n      PUSH 40\t\t\tra\n      MLOAD \t\t\t\\r\\ncontrac\n      SWAP1 \t\t\t <0.9.0;\\r\\n\\r\\ncontrac\n      POP \t\t\t <0.9.0;\\r\\n\\r\\ncontrac\n      SWAP1 \t\t\t-License-Identifier: MIT\\r\\npr...\n      JUMP \t\t\t-License-Identifier: MIT\\r\\npr...\n    tag 160\t\t\t\\r\\n    struct ExerciseData {\\...\n      JUMPDEST \t\t\t\\r\\n    struct ExerciseData {\\...\n      PUSH 0\t\t\tc\n      DUP1 \t\t\tx\n      REVERT \t\t\t uint exerci\n    tag 161\t\t\t       string exerciseDistance...\n      JUMPDEST \t\t\t       string exerciseDistance...\n      PUSH 0\t\t\tx\n      DUP1 \t\t\tg\n      REVERT \t\t\t  string exe\n    tag 162\t\t\t       string calorie;\\r\\n    ...\n      JUMPDEST \t\t\t       string calorie;\\r\\n    ...\n      PUSH 0\t\t\tstruct \n      DUP2 \t\t\ting w\n      SWAP1 \t\t\t        string w\n      POP \t\t\t        string w\n      SWAP2 \t\t\t       string calorie;\\r\\n    ...\n      SWAP1 \t\t\t       string calorie;\\r\\n    ...\n      POP \t\t\t       string calorie;\\r\\n    ...\n      JUMP \t\t\t       string calorie;\\r\\n    ...\n    tag 163\t\t\t        bool operator;\\r\\n    ...\n      JUMPDEST \t\t\t        bool operator;\\r\\n    ...\n      PUSH [tag] 219\t\t\t\\n        string createdA\n      DUP2 \t\t\teated\n      PUSH [tag] 162\t\t\t\\n        string createdA\n      JUMP \t\t\t\\n        string createdA\n    tag 219\t\t\t\\n        string createdA\n      JUMPDEST \t\t\t\\n        string createdA\n      DUP2 \t\t\tption\n      EQ \t\t\tcription;\\r\\n        string cr...\n      PUSH [tag] 220\t\t\tstring description;\\r\\n       ...\n      JUMPI \t\t\tstring description;\\r\\n       ...\n      PUSH 0\t\t\tt\n      DUP1 \t\t\tu\n      REVERT \t\t\t       uint \n    tag 220\t\t\tstring description;\\r\\n       ...\n      JUMPDEST \t\t\tstring description;\\r\\n       ...\n      POP \t\t\t        bool operator;\\r\\n    ...\n      JUMP \t\t\t        bool operator;\\r\\n    ...\n    tag 164\t\t\t }\\r\\n\\r\\n    // ID를 기반으로 한 Ex...\n      JUMPDEST \t\t\t }\\r\\n\\r\\n    // ID를 기반으로 한 Ex...\n      PUSH 0\t\t\tappin\n      DUP2 \t\t\tercise\n      CALLDATALOAD \t\t\tta) public exerciseD\n      SWAP1 \t\t\txerciseData) public exerciseD\n      POP \t\t\txerciseData) public exerciseD\n      PUSH [tag] 222\t\t\t  // Receipt 데이터를 저장하는 배열\\r\\n ...\n      DUP2 \t\t\t    R\n      PUSH [tag] 163\t\t\t  // Receipt 데이터를 저장하는 배열\\r\\n ...\n      JUMP \t\t\t  // Receipt 데이터를 저장하는 배열\\r\\n ...\n    tag 222\t\t\t  // Receipt 데이터를 저장하는 배열\\r\\n ...\n      JUMPDEST \t\t\t  // Receipt 데이터를 저장하는 배열\\r\\n ...\n      SWAP3 \t\t\t }\\r\\n\\r\\n    // ID를 기반으로 한 Ex...\n      SWAP2 \t\t\t }\\r\\n\\r\\n    // ID를 기반으로 한 Ex...\n      POP \t\t\t }\\r\\n\\r\\n    // ID를 기반으로 한 Ex...\n      POP \t\t\t }\\r\\n\\r\\n    // ID를 기반으로 한 Ex...\n      JUMP \t\t\t }\\r\\n\\r\\n    // ID를 기반으로 한 Ex...\n    tag 11\t\t\tic receipts;\\r\\n\\r\\n    // 이벤트...\n      JUMPDEST \t\t\tic receipts;\\r\\n\\r\\n    // 이벤트...\n      PUSH 0\t\t\tuint i\n      PUSH 20\t\t\tMi\n      DUP3 \t\t\tint exerc\n      DUP5 \t\t\t steps,\n      SUB \t\t\tuint steps, uint exerci\n      SLT \t\t\tId, uint steps, uint exerciseM...\n      ISZERO \t\t\tberId, uint steps, uint exerci...\n      PUSH [tag] 224\t\t\tberId, uint steps, uint exerci...\n      JUMPI \t\t\tberId, uint steps, uint exerci...\n      PUSH [tag] 225\t\t\t, string exerciseDistance, str...\n      PUSH [tag] 160\t\t\t, string exerciseDistance, str...\n      JUMP \t\t\t, string exerciseDistance, str...\n    tag 225\t\t\t, string exerciseDistance, str...\n      JUMPDEST \t\t\t, string exerciseDistance, str...\n    tag 224\t\t\tberId, uint steps, uint exerci...\n      JUMPDEST \t\t\tberId, uint steps, uint exerci...\n      PUSH 0\t\t\te\n      PUSH [tag] 226\t\t\t string walletType, bool opera...\n      DUP5 \t\t\t, strin\n      DUP3 \t\t\tint pr\n      DUP6 \t\t\toperator,\n      ADD \t\t\tool operator, uint pri\n      PUSH [tag] 164\t\t\t string walletType, bool opera...\n      JUMP \t\t\t string walletType, bool opera...\n    tag 226\t\t\t string walletType, bool opera...\n      JUMPDEST \t\t\t string walletType, bool opera...\n      SWAP2 \t\t\treceiptId, string walletType, ...\n      POP \t\t\treceiptId, string walletType, ...\n      POP \t\t\tring calorie);\\r\\n    event Re...\n      SWAP3 \t\t\tic receipts;\\r\\n\\r\\n    // 이벤트...\n      SWAP2 \t\t\tic receipts;\\r\\n\\r\\n    // 이벤트...\n      POP \t\t\tic receipts;\\r\\n\\r\\n    // 이벤트...\n      POP \t\t\tic receipts;\\r\\n\\r\\n    // 이벤트...\n      JUMP \t\t\tic receipts;\\r\\n\\r\\n    // 이벤트...\n    tag 165\t\t\teatedAt, uint memberId);\\r\\n\\r...\n      JUMPDEST \t\t\teatedAt, uint memberId);\\r\\n\\r...\n      PUSH 0\t\t\t funct\n      DUP2 \t\t\t uint\n      MLOAD \t\t\tnt id, uint \n      SWAP1 \t\t\tiseData(uint id, uint \n      POP \t\t\tiseData(uint id, uint \n      SWAP2 \t\t\teatedAt, uint memberId);\\r\\n\\r...\n      SWAP1 \t\t\teatedAt, uint memberId);\\r\\n\\r...\n      POP \t\t\teatedAt, uint memberId);\\r\\n\\r...\n      JUMP \t\t\teatedAt, uint memberId);\\r\\n\\r...\n    tag 166\t\t\tt steps, uint exerciseMinute, ...\n      JUMPDEST \t\t\tt steps, uint exerciseMinute, ...\n      PUSH 0\t\t\tDay, string\n      DUP3 \t\t\tstring\n      DUP3 \t\t\tart\n      MSTORE \t\t\trciseStart, string \n      PUSH 20\t\t\t cal\n      DUP3 \t\t\temo\n      ADD \t\t\tng memory calo\n      SWAP1 \t\t\terciseEnd, string memory calo\n      POP \t\t\terciseEnd, string memory calo\n      SWAP3 \t\t\tt steps, uint exerciseMinute, ...\n      SWAP2 \t\t\tt steps, uint exerciseMinute, ...\n      POP \t\t\tt steps, uint exerciseMinute, ...\n      POP \t\t\tt steps, uint exerciseMinute, ...\n      JUMP \t\t\tt steps, uint exerciseMinute, ...\n    tag 167\t\t\t{\\r\\n        require(exerciseD...\n      JUMPDEST \t\t\t{\\r\\n        require(exerciseD...\n      DUP3 \t\t\tas[id]\n      DUP2 \t\t\tseD\n      DUP4 \t\t\txer\n      MCOPY \t\t\t     exerciseDatas[id] \n      PUSH 0\t\t\t,\n      DUP4 \t\t\tId, st\n      DUP4 \t\t\temb\n      ADD \t\t\td, memberId, ste\n      MSTORE \t\t\teData(id, memberId, steps, \n      POP \t\t\t{\\r\\n        require(exerciseD...\n      POP \t\t\t{\\r\\n        require(exerciseD...\n      POP \t\t\t{\\r\\n        require(exerciseD...\n      JUMP \t\t\t{\\r\\n        require(exerciseD...\n    tag 168\t\t\te, exerciseDistance, exerciseD...\n      JUMPDEST \t\t\te, exerciseDistance, exerciseD...\n      PUSH 0\t\t\teStart\n      PUSH 1F\t\t\tse\n      NOT \t\t\terciseD\n      PUSH 1F\t\t\tit\n      DUP4 \t\t\t     \n      ADD \t\t\t\\n        emit \n      AND \t\t\te);\\r\\n        emit ExerciseDa\n      SWAP1 \t\t\tnd, calorie);\\r\\n        emit ...\n      POP \t\t\tnd, calorie);\\r\\n        emit ...\n      SWAP2 \t\t\te, exerciseDistance, exerciseD...\n      SWAP1 \t\t\te, exerciseDistance, exerciseD...\n      POP \t\t\te, exerciseDistance, exerciseD...\n      JUMP \t\t\te, exerciseDistance, exerciseD...\n    tag 169\t\t\tmemberId, steps, exerciseMinut...\n      JUMPDEST \t\t\tmemberId, steps, exerciseMinut...\n      PUSH 0\t\t\tnd,\n      PUSH [tag] 232\t\t\t// 운동 데이터 조회 함수\\r\\n    functio...\n      DUP3 \t\t\tExerc\n      PUSH [tag] 165\t\t\t// 운동 데이터 조회 함수\\r\\n    functio...\n      JUMP \t\t\t// 운동 데이터 조회 함수\\r\\n    functio...\n    tag 232\t\t\t// 운동 데이터 조회 함수\\r\\n    functio...\n      JUMPDEST \t\t\t// 운동 데이터 조회 함수\\r\\n    functio...\n      PUSH [tag] 233\t\t\tpublic view returns (ExerciseD...\n      DUP2 \t\t\trciseD\n      DUP6 \t\t\te(e\n      PUSH [tag] 166\t\t\tpublic view returns (ExerciseD...\n      JUMP \t\t\tpublic view returns (ExerciseD...\n    tag 233\t\t\tpublic view returns (ExerciseD...\n      JUMPDEST \t\t\tpublic view returns (ExerciseD...\n      SWAP4 \t\t\tnt id) public view returns (Ex...\n      POP \t\t\tnt id) public view returns (Ex...\n      PUSH [tag] 234\t\t\td != 0, \"ExerciseData does not...\n      DUP2 \t\t\txercis\n      DUP6 \t\t\turn\n      PUSH 20\t\t\t    \n      DUP7 \t\t\t;\\r\\n  \n      ADD \t\t\tt.\");\\r\\n        r\n      PUSH [tag] 167\t\t\td != 0, \"ExerciseData does not...\n      JUMP \t\t\td != 0, \"ExerciseData does not...\n    tag 234\t\t\td != 0, \"ExerciseData does not...\n      JUMPDEST \t\t\td != 0, \"ExerciseData does not...\n      PUSH [tag] 235\t\t\t// Receipt 데이터 추가 함수\\r\\n    fu...\n      DUP2 \t\t\t    fu\n      PUSH [tag] 168\t\t\t// Receipt 데이터 추가 함수\\r\\n    fu...\n      JUMP \t\t\t// Receipt 데이터 추가 함수\\r\\n    fu...\n    tag 235\t\t\t// Receipt 데이터 추가 함수\\r\\n    fu...\n      JUMPDEST \t\t\t// Receipt 데이터 추가 함수\\r\\n    fu...\n      DUP5 \t\t\t\\n  \n      ADD \t\t\t}\\r\\n\\r\\n    // Receipt 데이터 추가...\n      SWAP2 \t\t\t;\\r\\n    }\\r\\n\\r\\n    // Recei...\n      POP \t\t\t;\\r\\n    }\\r\\n\\r\\n    // Recei...\n      POP \t\t\tcalorie);\\r\\n    }\\r\\n\\r\\n    ...\n      SWAP3 \t\t\tmemberId, steps, exerciseMinut...\n      SWAP2 \t\t\tmemberId, steps, exerciseMinut...\n      POP \t\t\tmemberId, steps, exerciseMinut...\n      POP \t\t\tmemberId, steps, exerciseMinut...\n      JUMP \t\t\tmemberId, steps, exerciseMinut...\n    tag 170\t\t\tipt(string memory walletType, ...\n      JUMPDEST \t\t\tipt(string memory walletType, ...\n      PUSH 0\t\t\t operat\n      DUP2 \t\t\tption\n      ISZERO \t\t\t description,\n      ISZERO \t\t\t memory description, \n      SWAP1 \t\t\tice, string memory description...\n      POP \t\t\tice, string memory description...\n      SWAP2 \t\t\tipt(string memory walletType, ...\n      SWAP1 \t\t\tipt(string memory walletType, ...\n      POP \t\t\tipt(string memory walletType, ...\n      JUMP \t\t\tipt(string memory walletType, ...\n    tag 171\t\t\ty createdAt, uint memberId) pu...\n      JUMPDEST \t\t\ty createdAt, uint memberId) pu...\n      PUSH [tag] 238\t\t\tt(walletType, operato\n      DUP2 \t\t\tperat\n      PUSH [tag] 170\t\t\tt(walletType, operato\n      JUMP \t\t\tt(walletType, operato\n    tag 238\t\t\tt(walletType, operato\n      JUMPDEST \t\t\tt(walletType, operato\n      DUP3 \t\t\tece\n      MSTORE \t\t\t.push(Receipt(walletType, oper...\n      POP \t\t\ty createdAt, uint memberId) pu...\n      POP \t\t\ty createdAt, uint memberId) pu...\n      JUMP \t\t\ty createdAt, uint memberId) pu...\n    tag 172\t\t\tcription, createdAt, memberId)...\n      JUMPDEST \t\t\tcription, createdAt, memberId)...\n      PUSH [tag] 240\t\t\t  emit ReceiptAdded(rece\n      DUP2 \t\t\td(rec\n      PUSH [tag] 162\t\t\t  emit ReceiptAdded(rece\n      JUMP \t\t\t  emit ReceiptAdded(rece\n    tag 240\t\t\t  emit ReceiptAdded(rece\n      JUMPDEST \t\t\t  emit ReceiptAdded(rece\n      DUP3 \t\t\t   \n      MSTORE \t\t\t- 1;\\r\\n        emit ReceiptAd...\n      POP \t\t\tcription, createdAt, memberId)...\n      POP \t\t\tcription, createdAt, memberId)...\n      JUMP \t\t\tcription, createdAt, memberId)...\n    tag 14\t\t\tType, operator, price, descrip...\n      JUMPDEST \t\t\tType, operator, price, descrip...\n      PUSH 0\t\t\t    \n      PUSH C0\t\t\t }\\r\n      DUP3 \t\t\tptId];\\r\\n \n      ADD \t\t\teceiptId];\\r\\n    }\\r\\n\n      SWAP1 \t\t\tceipts[receiptId];\\r\\n    }\\r\\...\n      POP \t\t\tceipts[receiptId];\\r\\n    }\\r\\...\n      DUP2 \t\t\t\n      DUP2 \t\t\t\n      SUB \t\t\t\n      PUSH 0\t\t\t\n      DUP4 \t\t\t\n      ADD \t\t\t\n      MSTORE \t\t\t\n      PUSH [tag] 242\t\t\t\n      DUP2 \t\t\t\n      DUP10 \t\t\t\n      PUSH [tag] 169\t\t\t\n      JUMP \t\t\t\n    tag 242\t\t\t\n      JUMPDEST \t\t\t\n      SWAP1 \t\t\t\n      POP \t\t\t\n      PUSH [tag] 243\t\t\t\n      PUSH 20\t\t\t\n      DUP4 \t\t\t\n      ADD \t\t\t\n      DUP9 \t\t\t\n      PUSH [tag] 171\t\t\t\n      JUMP \t\t\t\n    tag 243\t\t\t\n      JUMPDEST \t\t\t\n      PUSH [tag] 244\t\t\t\n      PUSH 40\t\t\t\n      DUP4 \t\t\t\n      ADD \t\t\t\n      DUP8 \t\t\t\n      PUSH [tag] 172\t\t\t\n      JUMP \t\t\t\n    tag 244\t\t\t\n      JUMPDEST \t\t\t\n      DUP2 \t\t\t\n      DUP2 \t\t\t\n      SUB \t\t\t\n      PUSH 60\t\t\t\n      DUP4 \t\t\t\n      ADD \t\t\t\n      MSTORE \t\t\t\n      PUSH [tag] 245\t\t\t\n      DUP2 \t\t\t\n      DUP7 \t\t\t\n      PUSH [tag] 169\t\t\t\n      JUMP \t\t\t\n    tag 245\t\t\t\n      JUMPDEST \t\t\t\n      SWAP1 \t\t\t\n      POP \t\t\t\n      DUP2 \t\t\t\n      DUP2 \t\t\t\n      SUB \t\t\t\n      PUSH 80\t\t\t\n      DUP4 \t\t\t\n      ADD \t\t\t\n      MSTORE \t\t\t\n      PUSH [tag] 246\t\t\t\n      DUP2 \t\t\t\n      DUP6 \t\t\t\n      PUSH [tag] 169\t\t\t\n      JUMP \t\t\t\n    tag 246\t\t\t\n      JUMPDEST \t\t\t\n      SWAP1 \t\t\t\n      POP \t\t\t\n      PUSH [tag] 247\t\t\t\n      PUSH A0\t\t\t\n      DUP4 \t\t\t\n      ADD \t\t\t\n      DUP5 \t\t\t\n      PUSH [tag] 172\t\t\t\n      JUMP \t\t\t\n    tag 247\t\t\t\n      JUMPDEST \t\t\t\n      SWAP8 \t\t\tType, operator, price, descrip...\n      SWAP7 \t\t\tType, operator, price, descrip...\n      POP \t\t\tType, operator, price, descrip...\n      POP \t\t\tType, operator, price, descrip...\n      POP \t\t\tType, operator, price, descrip...\n      POP \t\t\tType, operator, price, descrip...\n      POP \t\t\tType, operator, price, descrip...\n      POP \t\t\tType, operator, price, descrip...\n      POP \t\t\tType, operator, price, descrip...\n      JUMP \t\t\tType, operator, price, descrip...\n    tag 173\t\t\t\n      JUMPDEST \t\t\t\n      PUSH 0\t\t\t\n      DUP1 \t\t\t\n      REVERT \t\t\t\n    tag 174\t\t\t\n      JUMPDEST \t\t\t\n      PUSH 0\t\t\t\n      DUP1 \t\t\t\n      REVERT \t\t\t\n    tag 175\t\t\t\n      JUMPDEST \t\t\t\n      PUSH 4E487B7100000000000000000000000000000000000000000000000000000000\t\t\t\n      PUSH 0\t\t\t\n      MSTORE \t\t\t\n      PUSH 41\t\t\t\n      PUSH 4\t\t\t\n      MSTORE \t\t\t\n      PUSH 24\t\t\t\n      PUSH 0\t\t\t\n      REVERT \t\t\t\n    tag 176\t\t\t\n      JUMPDEST \t\t\t\n      PUSH [tag] 252\t\t\t\n      DUP3 \t\t\t\n      PUSH [tag] 168\t\t\t\n      JUMP \t\t\t\n    tag 252\t\t\t\n      JUMPDEST \t\t\t\n      DUP2 \t\t\t\n      ADD \t\t\t\n      DUP2 \t\t\t\n      DUP2 \t\t\t\n      LT \t\t\t\n      PUSH FFFFFFFFFFFFFFFF\t\t\t\n      DUP3 \t\t\t\n      GT \t\t\t\n      OR \t\t\t\n      ISZERO \t\t\t\n      PUSH [tag] 253\t\t\t\n      JUMPI \t\t\t\n      PUSH [tag] 254\t\t\t\n      PUSH [tag] 175\t\t\t\n      JUMP \t\t\t\n    tag 254\t\t\t\n      JUMPDEST \t\t\t\n    tag 253\t\t\t\n      JUMPDEST \t\t\t\n      DUP1 \t\t\t\n      PUSH 40\t\t\t\n      MSTORE \t\t\t\n      POP \t\t\t\n      POP \t\t\t\n      POP \t\t\t\n      JUMP \t\t\t\n    tag 177\t\t\t\n      JUMPDEST \t\t\t\n      PUSH 0\t\t\t\n      PUSH [tag] 256\t\t\t\n      PUSH [tag] 159\t\t\t\n      JUMP \t\t\t\n    tag 256\t\t\t\n      JUMPDEST \t\t\t\n      SWAP1 \t\t\t\n      POP \t\t\t\n      PUSH [tag] 257\t\t\t\n      DUP3 \t\t\t\n      DUP3 \t\t\t\n      PUSH [tag] 176\t\t\t\n      JUMP \t\t\t\n    tag 257\t\t\t\n      JUMPDEST \t\t\t\n      SWAP2 \t\t\t\n      SWAP1 \t\t\t\n      POP \t\t\t\n      JUMP \t\t\t\n    tag 178\t\t\t\n      JUMPDEST \t\t\t\n      PUSH 0\t\t\t\n      PUSH FFFFFFFFFFFFFFFF\t\t\t\n      DUP3 \t\t\t\n      GT \t\t\t\n      ISZERO \t\t\t\n      PUSH [tag] 259\t\t\t\n      JUMPI \t\t\t\n      PUSH [tag] 260\t\t\t\n      PUSH [tag] 175\t\t\t\n      JUMP \t\t\t\n    tag 260\t\t\t\n      JUMPDEST \t\t\t\n    tag 259\t\t\t\n      JUMPDEST \t\t\t\n      PUSH [tag] 261\t\t\t\n      DUP3 \t\t\t\n      PUSH [tag] 168\t\t\t\n      JUMP \t\t\t\n    tag 261\t\t\t\n      JUMPDEST \t\t\t\n      SWAP1 \t\t\t\n      POP \t\t\t\n      PUSH 20\t\t\t\n      DUP2 \t\t\t\n      ADD \t\t\t\n      SWAP1 \t\t\t\n      POP \t\t\t\n      SWAP2 \t\t\t\n      SWAP1 \t\t\t\n      POP \t\t\t\n      JUMP \t\t\t\n    tag 179\t\t\t\n      JUMPDEST \t\t\t\n      DUP3 \t\t\t\n      DUP2 \t\t\t\n      DUP4 \t\t\t\n      CALLDATACOPY \t\t\t\n      PUSH 0\t\t\t\n      DUP4 \t\t\t\n      DUP4 \t\t\t\n      ADD \t\t\t\n      MSTORE \t\t\t\n      POP \t\t\t\n      POP \t\t\t\n      POP \t\t\t\n      JUMP \t\t\t\n    tag 180\t\t\t\n      JUMPDEST \t\t\t\n      PUSH 0\t\t\t\n      PUSH [tag] 264\t\t\t\n      PUSH [tag] 265\t\t\t\n      DUP5 \t\t\t\n      PUSH [tag] 178\t\t\t\n      JUMP \t\t\t\n    tag 265\t\t\t\n      JUMPDEST \t\t\t\n      PUSH [tag] 177\t\t\t\n      JUMP \t\t\t\n    tag 264\t\t\t\n      JUMPDEST \t\t\t\n      SWAP1 \t\t\t\n      POP \t\t\t\n      DUP3 \t\t\t\n      DUP2 \t\t\t\n      MSTORE \t\t\t\n      PUSH 20\t\t\t\n      DUP2 \t\t\t\n      ADD \t\t\t\n      DUP5 \t\t\t\n      DUP5 \t\t\t\n      DUP5 \t\t\t\n      ADD \t\t\t\n      GT \t\t\t\n      ISZERO \t\t\t\n      PUSH [tag] 266\t\t\t\n      JUMPI \t\t\t\n      PUSH [tag] 267\t\t\t\n      PUSH [tag] 174\t\t\t\n      JUMP \t\t\t\n    tag 267\t\t\t\n      JUMPDEST \t\t\t\n    tag 266\t\t\t\n      JUMPDEST \t\t\t\n      PUSH [tag] 268\t\t\t\n      DUP5 \t\t\t\n      DUP3 \t\t\t\n      DUP6 \t\t\t\n      PUSH [tag] 179\t\t\t\n      JUMP \t\t\t\n    tag 268\t\t\t\n      JUMPDEST \t\t\t\n      POP \t\t\t\n      SWAP4 \t\t\t\n      SWAP3 \t\t\t\n      POP \t\t\t\n      POP \t\t\t\n      POP \t\t\t\n      JUMP \t\t\t\n    tag 181\t\t\t\n      JUMPDEST \t\t\t\n      PUSH 0\t\t\t\n      DUP3 \t\t\t\n      PUSH 1F\t\t\t\n      DUP4 \t\t\t\n      ADD \t\t\t\n      SLT \t\t\t\n      PUSH [tag] 270\t\t\t\n      JUMPI \t\t\t\n      PUSH [tag] 271\t\t\t\n      PUSH [tag] 173\t\t\t\n      JUMP \t\t\t\n    tag 271\t\t\t\n      JUMPDEST \t\t\t\n    tag 270\t\t\t\n      JUMPDEST \t\t\t\n      DUP2 \t\t\t\n      CALLDATALOAD \t\t\t\n      PUSH [tag] 272\t\t\t\n      DUP5 \t\t\t\n      DUP3 \t\t\t\n      PUSH 20\t\t\t\n      DUP7 \t\t\t\n      ADD \t\t\t\n      PUSH [tag] 180\t\t\t\n      JUMP \t\t\t\n    tag 272\t\t\t\n      JUMPDEST \t\t\t\n      SWAP2 \t\t\t\n      POP \t\t\t\n      POP \t\t\t\n      SWAP3 \t\t\t\n      SWAP2 \t\t\t\n      POP \t\t\t\n      POP \t\t\t\n      JUMP \t\t\t\n    tag 17\t\t\t\n      JUMPDEST \t\t\t\n      PUSH 0\t\t\t\n      DUP1 \t\t\t\n      PUSH 0\t\t\t\n      DUP1 \t\t\t\n      PUSH 0\t\t\t\n      DUP1 \t\t\t\n      PUSH 0\t\t\t\n      DUP1 \t\t\t\n      PUSH 0\t\t\t\n      PUSH 120\t\t\t\n      DUP11 \t\t\t\n      DUP13 \t\t\t\n      SUB \t\t\t\n      SLT \t\t\t\n      ISZERO \t\t\t\n      PUSH [tag] 274\t\t\t\n      JUMPI \t\t\t\n      PUSH [tag] 275\t\t\t\n      PUSH [tag] 160\t\t\t\n      JUMP \t\t\t\n    tag 275\t\t\t\n      JUMPDEST \t\t\t\n    tag 274\t\t\t\n      JUMPDEST \t\t\t\n      PUSH 0\t\t\t\n      PUSH [tag] 276\t\t\t\n      DUP13 \t\t\t\n      DUP3 \t\t\t\n      DUP14 \t\t\t\n      ADD \t\t\t\n      PUSH [tag] 164\t\t\t\n      JUMP \t\t\t\n    tag 276\t\t\t\n      JUMPDEST \t\t\t\n      SWAP10 \t\t\t\n      POP \t\t\t\n      POP \t\t\t\n      PUSH 20\t\t\t\n      PUSH [tag] 277\t\t\t\n      DUP13 \t\t\t\n      DUP3 \t\t\t\n      DUP14 \t\t\t\n      ADD \t\t\t\n      PUSH [tag] 164\t\t\t\n      JUMP \t\t\t\n    tag 277\t\t\t\n      JUMPDEST \t\t\t\n      SWAP9 \t\t\t\n      POP \t\t\t\n      POP \t\t\t\n      PUSH 40\t\t\t\n      PUSH [tag] 278\t\t\t\n      DUP13 \t\t\t\n      DUP3 \t\t\t\n      DUP14 \t\t\t\n      ADD \t\t\t\n      PUSH [tag] 164\t\t\t\n      JUMP \t\t\t\n    tag 278\t\t\t\n      JUMPDEST \t\t\t\n      SWAP8 \t\t\t\n      POP \t\t\t\n      POP \t\t\t\n      PUSH 60\t\t\t\n      PUSH [tag] 279\t\t\t\n      DUP13 \t\t\t\n      DUP3 \t\t\t\n      DUP14 \t\t\t\n      ADD \t\t\t\n      PUSH [tag] 164\t\t\t\n      JUMP \t\t\t\n    tag 279\t\t\t\n      JUMPDEST \t\t\t\n      SWAP7 \t\t\t\n      POP \t\t\t\n      POP \t\t\t\n      PUSH 80\t\t\t\n      DUP11 \t\t\t\n      ADD \t\t\t\n      CALLDATALOAD \t\t\t\n      PUSH FFFFFFFFFFFFFFFF\t\t\t\n      DUP2 \t\t\t\n      GT \t\t\t\n      ISZERO \t\t\t\n      PUSH [tag] 280\t\t\t\n      JUMPI \t\t\t\n      PUSH [tag] 281\t\t\t\n      PUSH [tag] 161\t\t\t\n      JUMP \t\t\t\n    tag 281\t\t\t\n      JUMPDEST \t\t\t\n    tag 280\t\t\t\n      JUMPDEST \t\t\t\n      PUSH [tag] 282\t\t\t\n      DUP13 \t\t\t\n      DUP3 \t\t\t\n      DUP14 \t\t\t\n      ADD \t\t\t\n      PUSH [tag] 181\t\t\t\n      JUMP \t\t\t\n    tag 282\t\t\t\n      JUMPDEST \t\t\t\n      SWAP6 \t\t\t\n      POP \t\t\t\n      POP \t\t\t\n      PUSH A0\t\t\t\n      DUP11 \t\t\t\n      ADD \t\t\t\n      CALLDATALOAD \t\t\t\n      PUSH FFFFFFFFFFFFFFFF\t\t\t\n      DUP2 \t\t\t\n      GT \t\t\t\n      ISZERO \t\t\t\n      PUSH [tag] 283\t\t\t\n      JUMPI \t\t\t\n      PUSH [tag] 284\t\t\t\n      PUSH [tag] 161\t\t\t\n      JUMP \t\t\t\n    tag 284\t\t\t\n      JUMPDEST \t\t\t\n    tag 283\t\t\t\n      JUMPDEST \t\t\t\n      PUSH [tag] 285\t\t\t\n      DUP13 \t\t\t\n      DUP3 \t\t\t\n      DUP14 \t\t\t\n      ADD \t\t\t\n      PUSH [tag] 181\t\t\t\n      JUMP \t\t\t\n    tag 285\t\t\t\n      JUMPDEST \t\t\t\n      SWAP5 \t\t\t\n      POP \t\t\t\n      POP \t\t\t\n      PUSH C0\t\t\t\n      DUP11 \t\t\t\n      ADD \t\t\t\n      CALLDATALOAD \t\t\t\n      PUSH FFFFFFFFFFFFFFFF\t\t\t\n      DUP2 \t\t\t\n      GT \t\t\t\n      ISZERO \t\t\t\n      PUSH [tag] 286\t\t\t\n      JUMPI \t\t\t\n      PUSH [tag] 287\t\t\t\n      PUSH [tag] 161\t\t\t\n      JUMP \t\t\t\n    tag 287\t\t\t\n      JUMPDEST \t\t\t\n    tag 286\t\t\t\n      JUMPDEST \t\t\t\n      PUSH [tag] 288\t\t\t\n      DUP13 \t\t\t\n      DUP3 \t\t\t\n      DUP14 \t\t\t\n      ADD \t\t\t\n      PUSH [tag] 181\t\t\t\n      JUMP \t\t\t\n    tag 288\t\t\t\n      JUMPDEST \t\t\t\n      SWAP4 \t\t\t\n      POP \t\t\t\n      POP \t\t\t\n      PUSH E0\t\t\t\n      DUP11 \t\t\t\n      ADD \t\t\t\n      CALLDATALOAD \t\t\t\n      PUSH FFFFFFFFFFFFFFFF\t\t\t\n      DUP2 \t\t\t\n      GT \t\t\t\n      ISZERO \t\t\t\n      PUSH [tag] 289\t\t\t\n      JUMPI \t\t\t\n      PUSH [tag] 290\t\t\t\n      PUSH [tag] 161\t\t\t\n      JUMP \t\t\t\n    tag 290\t\t\t\n      JUMPDEST \t\t\t\n    tag 289\t\t\t\n      JUMPDEST \t\t\t\n      PUSH [tag] 291\t\t\t\n      DUP13 \t\t\t\n      DUP3 \t\t\t\n      DUP14 \t\t\t\n      ADD \t\t\t\n      PUSH [tag] 181\t\t\t\n      JUMP \t\t\t\n    tag 291\t\t\t\n      JUMPDEST \t\t\t\n      SWAP3 \t\t\t\n      POP \t\t\t\n      POP \t\t\t\n      PUSH 100\t\t\t\n      DUP11 \t\t\t\n      ADD \t\t\t\n      CALLDATALOAD \t\t\t\n      PUSH FFFFFFFFFFFFFFFF\t\t\t\n      DUP2 \t\t\t\n      GT \t\t\t\n      ISZERO \t\t\t\n      PUSH [tag] 292\t\t\t\n      JUMPI \t\t\t\n      PUSH [tag] 293\t\t\t\n      PUSH [tag] 161\t\t\t\n      JUMP \t\t\t\n    tag 293\t\t\t\n      JUMPDEST \t\t\t\n    tag 292\t\t\t\n      JUMPDEST \t\t\t\n      PUSH [tag] 294\t\t\t\n      DUP13 \t\t\t\n      DUP3 \t\t\t\n      DUP14 \t\t\t\n      ADD \t\t\t\n      PUSH [tag] 181\t\t\t\n      JUMP \t\t\t\n    tag 294\t\t\t\n      JUMPDEST \t\t\t\n      SWAP2 \t\t\t\n      POP \t\t\t\n      POP \t\t\t\n      SWAP3 \t\t\t\n      SWAP6 \t\t\t\n      SWAP9 \t\t\t\n      POP \t\t\t\n      SWAP3 \t\t\t\n      SWAP6 \t\t\t\n      SWAP9 \t\t\t\n      POP \t\t\t\n      SWAP3 \t\t\t\n      SWAP6 \t\t\t\n      SWAP9 \t\t\t\n      JUMP \t\t\t\n    tag 182\t\t\t\n      JUMPDEST \t\t\t\n      PUSH [tag] 296\t\t\t\n      DUP2 \t\t\t\n      PUSH [tag] 170\t\t\t\n      JUMP \t\t\t\n    tag 296\t\t\t\n      JUMPDEST \t\t\t\n      DUP2 \t\t\t\n      EQ \t\t\t\n      PUSH [tag] 297\t\t\t\n      JUMPI \t\t\t\n      PUSH 0\t\t\t\n      DUP1 \t\t\t\n      REVERT \t\t\t\n    tag 297\t\t\t\n      JUMPDEST \t\t\t\n      POP \t\t\t\n      JUMP \t\t\t\n    tag 183\t\t\t\n      JUMPDEST \t\t\t\n      PUSH 0\t\t\t\n      DUP2 \t\t\t\n      CALLDATALOAD \t\t\t\n      SWAP1 \t\t\t\n      POP \t\t\t\n      PUSH [tag] 299\t\t\t\n      DUP2 \t\t\t\n      PUSH [tag] 182\t\t\t\n      JUMP \t\t\t\n    tag 299\t\t\t\n      JUMPDEST \t\t\t\n      SWAP3 \t\t\t\n      SWAP2 \t\t\t\n      POP \t\t\t\n      POP \t\t\t\n      JUMP \t\t\t\n    tag 21\t\t\t\n      JUMPDEST \t\t\t\n      PUSH 0\t\t\t\n      DUP1 \t\t\t\n      PUSH 0\t\t\t\n      DUP1 \t\t\t\n      PUSH 0\t\t\t\n      DUP1 \t\t\t\n      PUSH C0\t\t\t\n      DUP8 \t\t\t\n      DUP10 \t\t\t\n      SUB \t\t\t\n      SLT \t\t\t\n      ISZERO \t\t\t\n      PUSH [tag] 301\t\t\t\n      JUMPI \t\t\t\n      PUSH [tag] 302\t\t\t\n      PUSH [tag] 160\t\t\t\n      JUMP \t\t\t\n    tag 302\t\t\t\n      JUMPDEST \t\t\t\n    tag 301\t\t\t\n      JUMPDEST \t\t\t\n      PUSH 0\t\t\t\n      DUP8 \t\t\t\n      ADD \t\t\t\n      CALLDATALOAD \t\t\t\n      PUSH FFFFFFFFFFFFFFFF\t\t\t\n      DUP2 \t\t\t\n      GT \t\t\t\n      ISZERO \t\t\t\n      PUSH [tag] 303\t\t\t\n      JUMPI \t\t\t\n      PUSH [tag] 304\t\t\t\n      PUSH [tag] 161\t\t\t\n      JUMP \t\t\t\n    tag 304\t\t\t\n      JUMPDEST \t\t\t\n    tag 303\t\t\t\n      JUMPDEST \t\t\t\n      PUSH [tag] 305\t\t\t\n      DUP10 \t\t\t\n      DUP3 \t\t\t\n      DUP11 \t\t\t\n      ADD \t\t\t\n      PUSH [tag] 181\t\t\t\n      JUMP \t\t\t\n    tag 305\t\t\t\n      JUMPDEST \t\t\t\n      SWAP7 \t\t\t\n      POP \t\t\t\n      POP \t\t\t\n      PUSH 20\t\t\t\n      PUSH [tag] 306\t\t\t\n      DUP10 \t\t\t\n      DUP3 \t\t\t\n      DUP11 \t\t\t\n      ADD \t\t\t\n      PUSH [tag] 183\t\t\t\n      JUMP \t\t\t\n    tag 306\t\t\t\n      JUMPDEST \t\t\t\n      SWAP6 \t\t\t\n      POP \t\t\t\n      POP \t\t\t\n      PUSH 40\t\t\t\n      PUSH [tag] 307\t\t\t\n      DUP10 \t\t\t\n      DUP3 \t\t\t\n      DUP11 \t\t\t\n      ADD \t\t\t\n      PUSH [tag] 164\t\t\t\n      JUMP \t\t\t\n    tag 307\t\t\t\n      JUMPDEST \t\t\t\n      SWAP5 \t\t\t\n      POP \t\t\t\n      POP \t\t\t\n      PUSH 60\t\t\t\n      DUP8 \t\t\t\n      ADD \t\t\t\n      CALLDATALOAD \t\t\t\n      PUSH FFFFFFFFFFFFFFFF\t\t\t\n      DUP2 \t\t\t\n      GT \t\t\t\n      ISZERO \t\t\t\n      PUSH [tag] 308\t\t\t\n      JUMPI \t\t\t\n      PUSH [tag] 309\t\t\t\n      PUSH [tag] 161\t\t\t\n      JUMP \t\t\t\n    tag 309\t\t\t\n      JUMPDEST \t\t\t\n    tag 308\t\t\t\n      JUMPDEST \t\t\t\n      PUSH [tag] 310\t\t\t\n      DUP10 \t\t\t\n      DUP3 \t\t\t\n      DUP11 \t\t\t\n      ADD \t\t\t\n      PUSH [tag] 181\t\t\t\n      JUMP \t\t\t\n    tag 310\t\t\t\n      JUMPDEST \t\t\t\n      SWAP4 \t\t\t\n      POP \t\t\t\n      POP \t\t\t\n      PUSH 80\t\t\t\n      DUP8 \t\t\t\n      ADD \t\t\t\n      CALLDATALOAD \t\t\t\n      PUSH FFFFFFFFFFFFFFFF\t\t\t\n      DUP2 \t\t\t\n      GT \t\t\t\n      ISZERO \t\t\t\n      PUSH [tag] 311\t\t\t\n      JUMPI \t\t\t\n      PUSH [tag] 312\t\t\t\n      PUSH [tag] 161\t\t\t\n      JUMP \t\t\t\n    tag 312\t\t\t\n      JUMPDEST \t\t\t\n    tag 311\t\t\t\n      JUMPDEST \t\t\t\n      PUSH [tag] 313\t\t\t\n      DUP10 \t\t\t\n      DUP3 \t\t\t\n      DUP11 \t\t\t\n      ADD \t\t\t\n      PUSH [tag] 181\t\t\t\n      JUMP \t\t\t\n    tag 313\t\t\t\n      JUMPDEST \t\t\t\n      SWAP3 \t\t\t\n      POP \t\t\t\n      POP \t\t\t\n      PUSH A0\t\t\t\n      PUSH [tag] 314\t\t\t\n      DUP10 \t\t\t\n      DUP3 \t\t\t\n      DUP11 \t\t\t\n      ADD \t\t\t\n      PUSH [tag] 164\t\t\t\n      JUMP \t\t\t\n    tag 314\t\t\t\n      JUMPDEST \t\t\t\n      SWAP2 \t\t\t\n      POP \t\t\t\n      POP \t\t\t\n      SWAP3 \t\t\t\n      SWAP6 \t\t\t\n      POP \t\t\t\n      SWAP3 \t\t\t\n      SWAP6 \t\t\t\n      POP \t\t\t\n      SWAP3 \t\t\t\n      SWAP6 \t\t\t\n      JUMP \t\t\t\n    tag 24\t\t\t\n      JUMPDEST \t\t\t\n      PUSH 0\t\t\t\n      PUSH 20\t\t\t\n      DUP3 \t\t\t\n      ADD \t\t\t\n      SWAP1 \t\t\t\n      POP \t\t\t\n      PUSH [tag] 316\t\t\t\n      PUSH 0\t\t\t\n      DUP4 \t\t\t\n      ADD \t\t\t\n      DUP5 \t\t\t\n      PUSH [tag] 172\t\t\t\n      JUMP \t\t\t\n    tag 316\t\t\t\n      JUMPDEST \t\t\t\n      SWAP3 \t\t\t\n      SWAP2 \t\t\t\n      POP \t\t\t\n      POP \t\t\t\n      JUMP \t\t\t\n    tag 184\t\t\t\n      JUMPDEST \t\t\t\n      PUSH [tag] 318\t\t\t\n      DUP2 \t\t\t\n      PUSH [tag] 162\t\t\t\n      JUMP \t\t\t\n    tag 318\t\t\t\n      JUMPDEST \t\t\t\n      DUP3 \t\t\t\n      MSTORE \t\t\t\n      POP \t\t\t\n      POP \t\t\t\n      JUMP \t\t\t\n    tag 185\t\t\t\n      JUMPDEST \t\t\t\n      PUSH 0\t\t\t\n      DUP3 \t\t\t\n      DUP3 \t\t\t\n      MSTORE \t\t\t\n      PUSH 20\t\t\t\n      DUP3 \t\t\t\n      ADD \t\t\t\n      SWAP1 \t\t\t\n      POP \t\t\t\n      SWAP3 \t\t\t\n      SWAP2 \t\t\t\n      POP \t\t\t\n      POP \t\t\t\n      JUMP \t\t\t\n    tag 186\t\t\t\n      JUMPDEST \t\t\t\n      PUSH 0\t\t\t\n      PUSH [tag] 321\t\t\t\n      DUP3 \t\t\t\n      PUSH [tag] 165\t\t\t\n      JUMP \t\t\t\n    tag 321\t\t\t\n      JUMPDEST \t\t\t\n      PUSH [tag] 322\t\t\t\n      DUP2 \t\t\t\n      DUP6 \t\t\t\n      PUSH [tag] 185\t\t\t\n      JUMP \t\t\t\n    tag 322\t\t\t\n      JUMPDEST \t\t\t\n      SWAP4 \t\t\t\n      POP \t\t\t\n      PUSH [tag] 323\t\t\t\n      DUP2 \t\t\t\n      DUP6 \t\t\t\n      PUSH 20\t\t\t\n      DUP7 \t\t\t\n      ADD \t\t\t\n      PUSH [tag] 167\t\t\t\n      JUMP \t\t\t\n    tag 323\t\t\t\n      JUMPDEST \t\t\t\n      PUSH [tag] 324\t\t\t\n      DUP2 \t\t\t\n      PUSH [tag] 168\t\t\t\n      JUMP \t\t\t\n    tag 324\t\t\t\n      JUMPDEST \t\t\t\n      DUP5 \t\t\t\n      ADD \t\t\t\n      SWAP2 \t\t\t\n      POP \t\t\t\n      POP \t\t\t\n      SWAP3 \t\t\t\n      SWAP2 \t\t\t\n      POP \t\t\t\n      POP \t\t\t\n      JUMP \t\t\t\n    tag 187\t\t\t\n      JUMPDEST \t\t\t\n      PUSH 0\t\t\t\n      PUSH 120\t\t\t\n      DUP4 \t\t\t\n      ADD \t\t\t\n      PUSH 0\t\t\t\n      DUP4 \t\t\t\n      ADD \t\t\t\n      MLOAD \t\t\t\n      PUSH [tag] 326\t\t\t\n      PUSH 0\t\t\t\n      DUP7 \t\t\t\n      ADD \t\t\t\n      DUP3 \t\t\t\n      PUSH [tag] 184\t\t\t\n      JUMP \t\t\t\n    tag 326\t\t\t\n      JUMPDEST \t\t\t\n      POP \t\t\t\n      PUSH 20\t\t\t\n      DUP4 \t\t\t\n      ADD \t\t\t\n      MLOAD \t\t\t\n      PUSH [tag] 327\t\t\t\n      PUSH 20\t\t\t\n      DUP7 \t\t\t\n      ADD \t\t\t\n      DUP3 \t\t\t\n      PUSH [tag] 184\t\t\t\n      JUMP \t\t\t\n    tag 327\t\t\t\n      JUMPDEST \t\t\t\n      POP \t\t\t\n      PUSH 40\t\t\t\n      DUP4 \t\t\t\n      ADD \t\t\t\n      MLOAD \t\t\t\n      PUSH [tag] 328\t\t\t\n      PUSH 40\t\t\t\n      DUP7 \t\t\t\n      ADD \t\t\t\n      DUP3 \t\t\t\n      PUSH [tag] 184\t\t\t\n      JUMP \t\t\t\n    tag 328\t\t\t\n      JUMPDEST \t\t\t\n      POP \t\t\t\n      PUSH 60\t\t\t\n      DUP4 \t\t\t\n      ADD \t\t\t\n      MLOAD \t\t\t\n      PUSH [tag] 329\t\t\t\n      PUSH 60\t\t\t\n      DUP7 \t\t\t\n      ADD \t\t\t\n      DUP3 \t\t\t\n      PUSH [tag] 184\t\t\t\n      JUMP \t\t\t\n    tag 329\t\t\t\n      JUMPDEST \t\t\t\n      POP \t\t\t\n      PUSH 80\t\t\t\n      DUP4 \t\t\t\n      ADD \t\t\t\n      MLOAD \t\t\t\n      DUP5 \t\t\t\n      DUP3 \t\t\t\n      SUB \t\t\t\n      PUSH 80\t\t\t\n      DUP7 \t\t\t\n      ADD \t\t\t\n      MSTORE \t\t\t\n      PUSH [tag] 330\t\t\t\n      DUP3 \t\t\t\n      DUP3 \t\t\t\n      PUSH [tag] 186\t\t\t\n      JUMP \t\t\t\n    tag 330\t\t\t\n      JUMPDEST \t\t\t\n      SWAP2 \t\t\t\n      POP \t\t\t\n      POP \t\t\t\n      PUSH A0\t\t\t\n      DUP4 \t\t\t\n      ADD \t\t\t\n      MLOAD \t\t\t\n      DUP5 \t\t\t\n      DUP3 \t\t\t\n      SUB \t\t\t\n      PUSH A0\t\t\t\n      DUP7 \t\t\t\n      ADD \t\t\t\n      MSTORE \t\t\t\n      PUSH [tag] 331\t\t\t\n      DUP3 \t\t\t\n      DUP3 \t\t\t\n      PUSH [tag] 186\t\t\t\n      JUMP \t\t\t\n    tag 331\t\t\t\n      JUMPDEST \t\t\t\n      SWAP2 \t\t\t\n      POP \t\t\t\n      POP \t\t\t\n      PUSH C0\t\t\t\n      DUP4 \t\t\t\n      ADD \t\t\t\n      MLOAD \t\t\t\n      DUP5 \t\t\t\n      DUP3 \t\t\t\n      SUB \t\t\t\n      PUSH C0\t\t\t\n      DUP7 \t\t\t\n      ADD \t\t\t\n      MSTORE \t\t\t\n      PUSH [tag] 332\t\t\t\n      DUP3 \t\t\t\n      DUP3 \t\t\t\n      PUSH [tag] 186\t\t\t\n      JUMP \t\t\t\n    tag 332\t\t\t\n      JUMPDEST \t\t\t\n      SWAP2 \t\t\t\n      POP \t\t\t\n      POP \t\t\t\n      PUSH E0\t\t\t\n      DUP4 \t\t\t\n      ADD \t\t\t\n      MLOAD \t\t\t\n      DUP5 \t\t\t\n      DUP3 \t\t\t\n      SUB \t\t\t\n      PUSH E0\t\t\t\n      DUP7 \t\t\t\n      ADD \t\t\t\n      MSTORE \t\t\t\n      PUSH [tag] 333\t\t\t\n      DUP3 \t\t\t\n      DUP3 \t\t\t\n      PUSH [tag] 186\t\t\t\n      JUMP \t\t\t\n    tag 333\t\t\t\n      JUMPDEST \t\t\t\n      SWAP2 \t\t\t\n      POP \t\t\t\n      POP \t\t\t\n      PUSH 100\t\t\t\n      DUP4 \t\t\t\n      ADD \t\t\t\n      MLOAD \t\t\t\n      DUP5 \t\t\t\n      DUP3 \t\t\t\n      SUB \t\t\t\n      PUSH 100\t\t\t\n      DUP7 \t\t\t\n      ADD \t\t\t\n      MSTORE \t\t\t\n      PUSH [tag] 334\t\t\t\n      DUP3 \t\t\t\n      DUP3 \t\t\t\n      PUSH [tag] 186\t\t\t\n      JUMP \t\t\t\n    tag 334\t\t\t\n      JUMPDEST \t\t\t\n      SWAP2 \t\t\t\n      POP \t\t\t\n      POP \t\t\t\n      DUP1 \t\t\t\n      SWAP2 \t\t\t\n      POP \t\t\t\n      POP \t\t\t\n      SWAP3 \t\t\t\n      SWAP2 \t\t\t\n      POP \t\t\t\n      POP \t\t\t\n      JUMP \t\t\t\n    tag 29\t\t\t\n      JUMPDEST \t\t\t\n      PUSH 0\t\t\t\n      PUSH 20\t\t\t\n      DUP3 \t\t\t\n      ADD \t\t\t\n      SWAP1 \t\t\t\n      POP \t\t\t\n      DUP2 \t\t\t\n      DUP2 \t\t\t\n      SUB \t\t\t\n      PUSH 0\t\t\t\n      DUP4 \t\t\t\n      ADD \t\t\t\n      MSTORE \t\t\t\n      PUSH [tag] 336\t\t\t\n      DUP2 \t\t\t\n      DUP5 \t\t\t\n      PUSH [tag] 187\t\t\t\n      JUMP \t\t\t\n    tag 336\t\t\t\n      JUMPDEST \t\t\t\n      SWAP1 \t\t\t\n      POP \t\t\t\n      SWAP3 \t\t\t\n      SWAP2 \t\t\t\n      POP \t\t\t\n      POP \t\t\t\n      JUMP \t\t\t\n    tag 188\t\t\t\n      JUMPDEST \t\t\t\n      PUSH [tag] 338\t\t\t\n      DUP2 \t\t\t\n      PUSH [tag] 170\t\t\t\n      JUMP \t\t\t\n    tag 338\t\t\t\n      JUMPDEST \t\t\t\n      DUP3 \t\t\t\n      MSTORE \t\t\t\n      POP \t\t\t\n      POP \t\t\t\n      JUMP \t\t\t\n    tag 189\t\t\t\n      JUMPDEST \t\t\t\n      PUSH 0\t\t\t\n      PUSH C0\t\t\t\n      DUP4 \t\t\t\n      ADD \t\t\t\n      PUSH 0\t\t\t\n      DUP4 \t\t\t\n      ADD \t\t\t\n      MLOAD \t\t\t\n      DUP5 \t\t\t\n      DUP3 \t\t\t\n      SUB \t\t\t\n      PUSH 0\t\t\t\n      DUP7 \t\t\t\n      ADD \t\t\t\n      MSTORE \t\t\t\n      PUSH [tag] 340\t\t\t\n      DUP3 \t\t\t\n      DUP3 \t\t\t\n      PUSH [tag] 186\t\t\t\n      JUMP \t\t\t\n    tag 340\t\t\t\n      JUMPDEST \t\t\t\n      SWAP2 \t\t\t\n      POP \t\t\t\n      POP \t\t\t\n      PUSH 20\t\t\t\n      DUP4 \t\t\t\n      ADD \t\t\t\n      MLOAD \t\t\t\n      PUSH [tag] 341\t\t\t\n      PUSH 20\t\t\t\n      DUP7 \t\t\t\n      ADD \t\t\t\n      DUP3 \t\t\t\n      PUSH [tag] 188\t\t\t\n      JUMP \t\t\t\n    tag 341\t\t\t\n      JUMPDEST \t\t\t\n      POP \t\t\t\n      PUSH 40\t\t\t\n      DUP4 \t\t\t\n      ADD \t\t\t\n      MLOAD \t\t\t\n      PUSH [tag] 342\t\t\t\n      PUSH 40\t\t\t\n      DUP7 \t\t\t\n      ADD \t\t\t\n      DUP3 \t\t\t\n      PUSH [tag] 184\t\t\t\n      JUMP \t\t\t\n    tag 342\t\t\t\n      JUMPDEST \t\t\t\n      POP \t\t\t\n      PUSH 60\t\t\t\n      DUP4 \t\t\t\n      ADD \t\t\t\n      MLOAD \t\t\t\n      DUP5 \t\t\t\n      DUP3 \t\t\t\n      SUB \t\t\t\n      PUSH 60\t\t\t\n      DUP7 \t\t\t\n      ADD \t\t\t\n      MSTORE \t\t\t\n      PUSH [tag] 343\t\t\t\n      DUP3 \t\t\t\n      DUP3 \t\t\t\n      PUSH [tag] 186\t\t\t\n      JUMP \t\t\t\n    tag 343\t\t\t\n      JUMPDEST \t\t\t\n      SWAP2 \t\t\t\n      POP \t\t\t\n      POP \t\t\t\n      PUSH 80\t\t\t\n      DUP4 \t\t\t\n      ADD \t\t\t\n      MLOAD \t\t\t\n      DUP5 \t\t\t\n      DUP3 \t\t\t\n      SUB \t\t\t\n      PUSH 80\t\t\t\n      DUP7 \t\t\t\n      ADD \t\t\t\n      MSTORE \t\t\t\n      PUSH [tag] 344\t\t\t\n      DUP3 \t\t\t\n      DUP3 \t\t\t\n      PUSH [tag] 186\t\t\t\n      JUMP \t\t\t\n    tag 344\t\t\t\n      JUMPDEST \t\t\t\n      SWAP2 \t\t\t\n      POP \t\t\t\n      POP \t\t\t\n      PUSH A0\t\t\t\n      DUP4 \t\t\t\n      ADD \t\t\t\n      MLOAD \t\t\t\n      PUSH [tag] 345\t\t\t\n      PUSH A0\t\t\t\n      DUP7 \t\t\t\n      ADD \t\t\t\n      DUP3 \t\t\t\n      PUSH [tag] 184\t\t\t\n      JUMP \t\t\t\n    tag 345\t\t\t\n      JUMPDEST \t\t\t\n      POP \t\t\t\n      DUP1 \t\t\t\n      SWAP2 \t\t\t\n      POP \t\t\t\n      POP \t\t\t\n      SWAP3 \t\t\t\n      SWAP2 \t\t\t\n      POP \t\t\t\n      POP \t\t\t\n      JUMP \t\t\t\n    tag 34\t\t\t\n      JUMPDEST \t\t\t\n      PUSH 0\t\t\t\n      PUSH 20\t\t\t\n      DUP3 \t\t\t\n      ADD \t\t\t\n      SWAP1 \t\t\t\n      POP \t\t\t\n      DUP2 \t\t\t\n      DUP2 \t\t\t\n      SUB \t\t\t\n      PUSH 0\t\t\t\n      DUP4 \t\t\t\n      ADD \t\t\t\n      MSTORE \t\t\t\n      PUSH [tag] 347\t\t\t\n      DUP2 \t\t\t\n      DUP5 \t\t\t\n      PUSH [tag] 189\t\t\t\n      JUMP \t\t\t\n    tag 347\t\t\t\n      JUMPDEST \t\t\t\n      SWAP1 \t\t\t\n      POP \t\t\t\n      SWAP3 \t\t\t\n      SWAP2 \t\t\t\n      POP \t\t\t\n      POP \t\t\t\n      JUMP \t\t\t\n    tag 39\t\t\t\n      JUMPDEST \t\t\t\n      PUSH 0\t\t\t\n      PUSH 120\t\t\t\n      DUP3 \t\t\t\n      ADD \t\t\t\n      SWAP1 \t\t\t\n      POP \t\t\t\n      PUSH [tag] 349\t\t\t\n      PUSH 0\t\t\t\n      DUP4 \t\t\t\n      ADD \t\t\t\n      DUP13 \t\t\t\n      PUSH [tag] 172\t\t\t\n      JUMP \t\t\t\n    tag 349\t\t\t\n      JUMPDEST \t\t\t\n      PUSH [tag] 350\t\t\t\n      PUSH 20\t\t\t\n      DUP4 \t\t\t\n      ADD \t\t\t\n      DUP12 \t\t\t\n      PUSH [tag] 172\t\t\t\n      JUMP \t\t\t\n    tag 350\t\t\t\n      JUMPDEST \t\t\t\n      PUSH [tag] 351\t\t\t\n      PUSH 40\t\t\t\n      DUP4 \t\t\t\n      ADD \t\t\t\n      DUP11 \t\t\t\n      PUSH [tag] 172\t\t\t\n      JUMP \t\t\t\n    tag 351\t\t\t\n      JUMPDEST \t\t\t\n      PUSH [tag] 352\t\t\t\n      PUSH 60\t\t\t\n      DUP4 \t\t\t\n      ADD \t\t\t\n      DUP10 \t\t\t\n      PUSH [tag] 172\t\t\t\n      JUMP \t\t\t\n    tag 352\t\t\t\n      JUMPDEST \t\t\t\n      DUP2 \t\t\t\n      DUP2 \t\t\t\n      SUB \t\t\t\n      PUSH 80\t\t\t\n      DUP4 \t\t\t\n      ADD \t\t\t\n      MSTORE \t\t\t\n      PUSH [tag] 353\t\t\t\n      DUP2 \t\t\t\n      DUP9 \t\t\t\n      PUSH [tag] 169\t\t\t\n      JUMP \t\t\t\n    tag 353\t\t\t\n      JUMPDEST \t\t\t\n      SWAP1 \t\t\t\n      POP \t\t\t\n      DUP2 \t\t\t\n      DUP2 \t\t\t\n      SUB \t\t\t\n      PUSH A0\t\t\t\n      DUP4 \t\t\t\n      ADD \t\t\t\n      MSTORE \t\t\t\n      PUSH [tag] 354\t\t\t\n      DUP2 \t\t\t\n      DUP8 \t\t\t\n      PUSH [tag] 169\t\t\t\n      JUMP \t\t\t\n    tag 354\t\t\t\n      JUMPDEST \t\t\t\n      SWAP1 \t\t\t\n      POP \t\t\t\n      DUP2 \t\t\t\n      DUP2 \t\t\t\n      SUB \t\t\t\n      PUSH C0\t\t\t\n      DUP4 \t\t\t\n      ADD \t\t\t\n      MSTORE \t\t\t\n      PUSH [tag] 355\t\t\t\n      DUP2 \t\t\t\n      DUP7 \t\t\t\n      PUSH [tag] 169\t\t\t\n      JUMP \t\t\t\n    tag 355\t\t\t\n      JUMPDEST \t\t\t\n      SWAP1 \t\t\t\n      POP \t\t\t\n      DUP2 \t\t\t\n      DUP2 \t\t\t\n      SUB \t\t\t\n      PUSH E0\t\t\t\n      DUP4 \t\t\t\n      ADD \t\t\t\n      MSTORE \t\t\t\n      PUSH [tag] 356\t\t\t\n      DUP2 \t\t\t\n      DUP6 \t\t\t\n      PUSH [tag] 169\t\t\t\n      JUMP \t\t\t\n    tag 356\t\t\t\n      JUMPDEST \t\t\t\n      SWAP1 \t\t\t\n      POP \t\t\t\n      DUP2 \t\t\t\n      DUP2 \t\t\t\n      SUB \t\t\t\n      PUSH 100\t\t\t\n      DUP4 \t\t\t\n      ADD \t\t\t\n      MSTORE \t\t\t\n      PUSH [tag] 357\t\t\t\n      DUP2 \t\t\t\n      DUP5 \t\t\t\n      PUSH [tag] 169\t\t\t\n      JUMP \t\t\t\n    tag 357\t\t\t\n      JUMPDEST \t\t\t\n      SWAP1 \t\t\t\n      POP \t\t\t\n      SWAP11 \t\t\t\n      SWAP10 \t\t\t\n      POP \t\t\t\n      POP \t\t\t\n      POP \t\t\t\n      POP \t\t\t\n      POP \t\t\t\n      POP \t\t\t\n      POP \t\t\t\n      POP \t\t\t\n      POP \t\t\t\n      POP \t\t\t\n      JUMP \t\t\t\n    tag 190\t\t\t\n      JUMPDEST \t\t\t\n      PUSH 4E487B7100000000000000000000000000000000000000000000000000000000\t\t\t\n      PUSH 0\t\t\t\n      MSTORE \t\t\t\n      PUSH 22\t\t\t\n      PUSH 4\t\t\t\n      MSTORE \t\t\t\n      PUSH 24\t\t\t\n      PUSH 0\t\t\t\n      REVERT \t\t\t\n    tag 43\t\t\t\n      JUMPDEST \t\t\t\n      PUSH 0\t\t\t\n      PUSH 2\t\t\t\n      DUP3 \t\t\t\n      DIV \t\t\t\n      SWAP1 \t\t\t\n      POP \t\t\t\n      PUSH 1\t\t\t\n      DUP3 \t\t\t\n      AND \t\t\t\n      DUP1 \t\t\t\n      PUSH [tag] 360\t\t\t\n      JUMPI \t\t\t\n      PUSH 7F\t\t\t\n      DUP3 \t\t\t\n      AND \t\t\t\n      SWAP2 \t\t\t\n      POP \t\t\t\n    tag 360\t\t\t\n      JUMPDEST \t\t\t\n      PUSH 20\t\t\t\n      DUP3 \t\t\t\n      LT \t\t\t\n      DUP2 \t\t\t\n      SUB \t\t\t\n      PUSH [tag] 361\t\t\t\n      JUMPI \t\t\t\n      PUSH [tag] 362\t\t\t\n      PUSH [tag] 190\t\t\t\n      JUMP \t\t\t\n    tag 362\t\t\t\n      JUMPDEST \t\t\t\n    tag 361\t\t\t\n      JUMPDEST \t\t\t\n      POP \t\t\t\n      SWAP2 \t\t\t\n      SWAP1 \t\t\t\n      POP \t\t\t\n      JUMP \t\t\t\n    tag 191\t\t\t\n      JUMPDEST \t\t\t\n      PUSH 494420616C7265616479206578697374732E0000000000000000000000000000\t\t\t\n      PUSH 0\t\t\t\n      DUP3 \t\t\t\n      ADD \t\t\t\n      MSTORE \t\t\t\n      POP \t\t\t\n      JUMP \t\t\t\n    tag 192\t\t\t\n      JUMPDEST \t\t\t\n      PUSH 0\t\t\t\n      PUSH [tag] 365\t\t\t\n      PUSH 12\t\t\t\n      DUP4 \t\t\t\n      PUSH [tag] 166\t\t\t\n      JUMP \t\t\t\n    tag 365\t\t\t\n      JUMPDEST \t\t\t\n      SWAP2 \t\t\t\n      POP \t\t\t\n      PUSH [tag] 366\t\t\t\n      DUP3 \t\t\t\n      PUSH [tag] 191\t\t\t\n      JUMP \t\t\t\n    tag 366\t\t\t\n      JUMPDEST \t\t\t\n      PUSH 20\t\t\t\n      DUP3 \t\t\t\n      ADD \t\t\t\n      SWAP1 \t\t\t\n      POP \t\t\t\n      SWAP2 \t\t\t\n      SWAP1 \t\t\t\n      POP \t\t\t\n      JUMP \t\t\t\n    tag 61\t\t\t\n      JUMPDEST \t\t\t\n      PUSH 0\t\t\t\n      PUSH 20\t\t\t\n      DUP3 \t\t\t\n      ADD \t\t\t\n      SWAP1 \t\t\t\n      POP \t\t\t\n      DUP2 \t\t\t\n      DUP2 \t\t\t\n      SUB \t\t\t\n      PUSH 0\t\t\t\n      DUP4 \t\t\t\n      ADD \t\t\t\n      MSTORE \t\t\t\n      PUSH [tag] 368\t\t\t\n      DUP2 \t\t\t\n      PUSH [tag] 192\t\t\t\n      JUMP \t\t\t\n    tag 368\t\t\t\n      JUMPDEST \t\t\t\n      SWAP1 \t\t\t\n      POP \t\t\t\n      SWAP2 \t\t\t\n      SWAP1 \t\t\t\n      POP \t\t\t\n      JUMP \t\t\t\n    tag 193\t\t\t\n      JUMPDEST \t\t\t\n      PUSH 0\t\t\t\n      DUP2 \t\t\t\n      SWAP1 \t\t\t\n      POP \t\t\t\n      DUP2 \t\t\t\n      PUSH 0\t\t\t\n      MSTORE \t\t\t\n      PUSH 20\t\t\t\n      PUSH 0\t\t\t\n      KECCAK256 \t\t\t\n      SWAP1 \t\t\t\n      POP \t\t\t\n      SWAP2 \t\t\t\n      SWAP1 \t\t\t\n      POP \t\t\t\n      JUMP \t\t\t\n    tag 194\t\t\t\n      JUMPDEST \t\t\t\n      PUSH 0\t\t\t\n      PUSH 20\t\t\t\n      PUSH 1F\t\t\t\n      DUP4 \t\t\t\n      ADD \t\t\t\n      DIV \t\t\t\n      SWAP1 \t\t\t\n      POP \t\t\t\n      SWAP2 \t\t\t\n      SWAP1 \t\t\t\n      POP \t\t\t\n      JUMP \t\t\t\n    tag 195\t\t\t\n      JUMPDEST \t\t\t\n      PUSH 0\t\t\t\n      DUP3 \t\t\t\n      DUP3 \t\t\t\n      SHL \t\t\t\n      SWAP1 \t\t\t\n      POP \t\t\t\n      SWAP3 \t\t\t\n      SWAP2 \t\t\t\n      POP \t\t\t\n      POP \t\t\t\n      JUMP \t\t\t\n    tag 196\t\t\t\n      JUMPDEST \t\t\t\n      PUSH 0\t\t\t\n      PUSH 8\t\t\t\n      DUP4 \t\t\t\n      MUL \t\t\t\n      PUSH [tag] 373\t\t\t\n      PUSH FFFFFFFFFFFFFFFFFFFFFFFFFFFFFFFFFFFFFFFFFFFFFFFFFFFFFFFFFFFFFFFF\t\t\t\n      DUP3 \t\t\t\n      PUSH [tag] 195\t\t\t\n      JUMP \t\t\t\n    tag 373\t\t\t\n      JUMPDEST \t\t\t\n      PUSH [tag] 374\t\t\t\n      DUP7 \t\t\t\n      DUP4 \t\t\t\n      PUSH [tag] 195\t\t\t\n      JUMP \t\t\t\n    tag 374\t\t\t\n      JUMPDEST \t\t\t\n      SWAP6 \t\t\t\n      POP \t\t\t\n      DUP1 \t\t\t\n      NOT \t\t\t\n      DUP5 \t\t\t\n      AND \t\t\t\n      SWAP4 \t\t\t\n      POP \t\t\t\n      DUP1 \t\t\t\n      DUP7 \t\t\t\n      AND \t\t\t\n      DUP5 \t\t\t\n      OR \t\t\t\n      SWAP3 \t\t\t\n      POP \t\t\t\n      POP \t\t\t\n      POP \t\t\t\n      SWAP4 \t\t\t\n      SWAP3 \t\t\t\n      POP \t\t\t\n      POP \t\t\t\n      POP \t\t\t\n      JUMP \t\t\t\n    tag 197\t\t\t\n      JUMPDEST \t\t\t\n      PUSH 0\t\t\t\n      DUP2 \t\t\t\n      SWAP1 \t\t\t\n      POP \t\t\t\n      SWAP2 \t\t\t\n      SWAP1 \t\t\t\n      POP \t\t\t\n      JUMP \t\t\t\n    tag 198\t\t\t\n      JUMPDEST \t\t\t\n      PUSH 0\t\t\t\n      PUSH [tag] 377\t\t\t\n      PUSH [tag] 378\t\t\t\n      PUSH [tag] 379\t\t\t\n      DUP5 \t\t\t\n      PUSH [tag] 162\t\t\t\n      JUMP \t\t\t\n    tag 379\t\t\t\n      JUMPDEST \t\t\t\n      PUSH [tag] 197\t\t\t\n      JUMP \t\t\t\n    tag 378\t\t\t\n      JUMPDEST \t\t\t\n      PUSH [tag] 162\t\t\t\n      JUMP \t\t\t\n    tag 377\t\t\t\n      JUMPDEST \t\t\t\n      SWAP1 \t\t\t\n      POP \t\t\t\n      SWAP2 \t\t\t\n      SWAP1 \t\t\t\n      POP \t\t\t\n      JUMP \t\t\t\n    tag 199\t\t\t\n      JUMPDEST \t\t\t\n      PUSH 0\t\t\t\n      DUP2 \t\t\t\n      SWAP1 \t\t\t\n      POP \t\t\t\n      SWAP2 \t\t\t\n      SWAP1 \t\t\t\n      POP \t\t\t\n      JUMP \t\t\t\n    tag 200\t\t\t\n      JUMPDEST \t\t\t\n      PUSH [tag] 382\t\t\t\n      DUP4 \t\t\t\n      PUSH [tag] 198\t\t\t\n      JUMP \t\t\t\n    tag 382\t\t\t\n      JUMPDEST \t\t\t\n      PUSH [tag] 383\t\t\t\n      PUSH [tag] 384\t\t\t\n      DUP3 \t\t\t\n      PUSH [tag] 199\t\t\t\n      JUMP \t\t\t\n    tag 384\t\t\t\n      JUMPDEST \t\t\t\n      DUP5 \t\t\t\n      DUP5 \t\t\t\n      SLOAD \t\t\t\n      PUSH [tag] 196\t\t\t\n      JUMP \t\t\t\n    tag 383\t\t\t\n      JUMPDEST \t\t\t\n      DUP3 \t\t\t\n      SSTORE \t\t\t\n      POP \t\t\t\n      POP \t\t\t\n      POP \t\t\t\n      POP \t\t\t\n      JUMP \t\t\t\n    tag 201\t\t\t\n      JUMPDEST \t\t\t\n      PUSH 0\t\t\t\n      SWAP1 \t\t\t\n      JUMP \t\t\t\n    tag 202\t\t\t\n      JUMPDEST \t\t\t\n      PUSH [tag] 387\t\t\t\n      PUSH [tag] 201\t\t\t\n      JUMP \t\t\t\n    tag 387\t\t\t\n      JUMPDEST \t\t\t\n      PUSH [tag] 388\t\t\t\n      DUP2 \t\t\t\n      DUP5 \t\t\t\n      DUP5 \t\t\t\n      PUSH [tag] 200\t\t\t\n      JUMP \t\t\t\n    tag 388\t\t\t\n      JUMPDEST \t\t\t\n      POP \t\t\t\n      POP \t\t\t\n      POP \t\t\t\n      JUMP \t\t\t\n    tag 203\t\t\t\n      JUMPDEST \t\t\t\n    tag 390\t\t\t\n      JUMPDEST \t\t\t\n      DUP2 \t\t\t\n      DUP2 \t\t\t\n      LT \t\t\t\n      ISZERO \t\t\t\n      PUSH [tag] 392\t\t\t\n      JUMPI \t\t\t\n      PUSH [tag] 393\t\t\t\n      PUSH 0\t\t\t\n      DUP3 \t\t\t\n      PUSH [tag] 202\t\t\t\n      JUMP \t\t\t\n    tag 393\t\t\t\n      JUMPDEST \t\t\t\n      PUSH 1\t\t\t\n      DUP2 \t\t\t\n      ADD \t\t\t\n      SWAP1 \t\t\t\n      POP \t\t\t\n      PUSH [tag] 390\t\t\t\n      JUMP \t\t\t\n    tag 392\t\t\t\n      JUMPDEST \t\t\t\n      POP \t\t\t\n      POP \t\t\t\n      JUMP \t\t\t\n    tag 204\t\t\t\n      JUMPDEST \t\t\t\n      PUSH 1F\t\t\t\n      DUP3 \t\t\t\n      GT \t\t\t\n      ISZERO \t\t\t\n      PUSH [tag] 395\t\t\t\n      JUMPI \t\t\t\n      PUSH [tag] 396\t\t\t\n      DUP2 \t\t\t\n      PUSH [tag] 193\t\t\t\n      JUMP \t\t\t\n    tag 396\t\t\t\n      JUMPDEST \t\t\t\n      PUSH [tag] 397\t\t\t\n      DUP5 \t\t\t\n      PUSH [tag] 194\t\t\t\n      JUMP \t\t\t\n    tag 397\t\t\t\n      JUMPDEST \t\t\t\n      DUP2 \t\t\t\n      ADD \t\t\t\n      PUSH 20\t\t\t\n      DUP6 \t\t\t\n      LT \t\t\t\n      ISZERO \t\t\t\n      PUSH [tag] 398\t\t\t\n      JUMPI \t\t\t\n      DUP2 \t\t\t\n      SWAP1 \t\t\t\n      POP \t\t\t\n    tag 398\t\t\t\n      JUMPDEST \t\t\t\n      PUSH [tag] 399\t\t\t\n      PUSH [tag] 400\t\t\t\n      DUP6 \t\t\t\n      PUSH [tag] 194\t\t\t\n      JUMP \t\t\t\n    tag 400\t\t\t\n      JUMPDEST \t\t\t\n      DUP4 \t\t\t\n      ADD \t\t\t\n      DUP3 \t\t\t\n      PUSH [tag] 203\t\t\t\n      JUMP \t\t\t\n    tag 399\t\t\t\n      JUMPDEST \t\t\t\n      POP \t\t\t\n      POP \t\t\t\n    tag 395\t\t\t\n      JUMPDEST \t\t\t\n      POP \t\t\t\n      POP \t\t\t\n      POP \t\t\t\n      JUMP \t\t\t\n    tag 205\t\t\t\n      JUMPDEST \t\t\t\n      PUSH 0\t\t\t\n      DUP3 \t\t\t\n      DUP3 \t\t\t\n      SHR \t\t\t\n      SWAP1 \t\t\t\n      POP \t\t\t\n      SWAP3 \t\t\t\n      SWAP2 \t\t\t\n      POP \t\t\t\n      POP \t\t\t\n      JUMP \t\t\t\n    tag 206\t\t\t\n      JUMPDEST \t\t\t\n      PUSH 0\t\t\t\n      PUSH [tag] 403\t\t\t\n      PUSH 0\t\t\t\n      NOT \t\t\t\n      DUP5 \t\t\t\n      PUSH 8\t\t\t\n      MUL \t\t\t\n      PUSH [tag] 205\t\t\t\n      JUMP \t\t\t\n    tag 403\t\t\t\n      JUMPDEST \t\t\t\n      NOT \t\t\t\n      DUP1 \t\t\t\n      DUP4 \t\t\t\n      AND \t\t\t\n      SWAP2 \t\t\t\n      POP \t\t\t\n      POP \t\t\t\n      SWAP3 \t\t\t\n      SWAP2 \t\t\t\n      POP \t\t\t\n      POP \t\t\t\n      JUMP \t\t\t\n    tag 207\t\t\t\n      JUMPDEST \t\t\t\n      PUSH 0\t\t\t\n      PUSH [tag] 405\t\t\t\n      DUP4 \t\t\t\n      DUP4 \t\t\t\n      PUSH [tag] 206\t\t\t\n      JUMP \t\t\t\n    tag 405\t\t\t\n      JUMPDEST \t\t\t\n      SWAP2 \t\t\t\n      POP \t\t\t\n      DUP3 \t\t\t\n      PUSH 2\t\t\t\n      MUL \t\t\t\n      DUP3 \t\t\t\n      OR \t\t\t\n      SWAP1 \t\t\t\n      POP \t\t\t\n      SWAP3 \t\t\t\n      SWAP2 \t\t\t\n      POP \t\t\t\n      POP \t\t\t\n      JUMP \t\t\t\n    tag 63\t\t\t\n      JUMPDEST \t\t\t\n      PUSH [tag] 407\t\t\t\n      DUP3 \t\t\t\n      PUSH [tag] 165\t\t\t\n      JUMP \t\t\t\n    tag 407\t\t\t\n      JUMPDEST \t\t\t\n      PUSH FFFFFFFFFFFFFFFF\t\t\t\n      DUP2 \t\t\t\n      GT \t\t\t\n      ISZERO \t\t\t\n      PUSH [tag] 408\t\t\t\n      JUMPI \t\t\t\n      PUSH [tag] 409\t\t\t\n      PUSH [tag] 175\t\t\t\n      JUMP \t\t\t\n    tag 409\t\t\t\n      JUMPDEST \t\t\t\n    tag 408\t\t\t\n      JUMPDEST \t\t\t\n      PUSH [tag] 410\t\t\t\n      DUP3 \t\t\t\n      SLOAD \t\t\t\n      PUSH [tag] 43\t\t\t\n      JUMP \t\t\t\n    tag 410\t\t\t\n      JUMPDEST \t\t\t\n      PUSH [tag] 411\t\t\t\n      DUP3 \t\t\t\n      DUP3 \t\t\t\n      DUP6 \t\t\t\n      PUSH [tag] 204\t\t\t\n      JUMP \t\t\t\n    tag 411\t\t\t\n      JUMPDEST \t\t\t\n      PUSH 0\t\t\t\n      PUSH 20\t\t\t\n      SWAP1 \t\t\t\n      POP \t\t\t\n      PUSH 1F\t\t\t\n      DUP4 \t\t\t\n      GT \t\t\t\n      PUSH 1\t\t\t\n      DUP2 \t\t\t\n      EQ \t\t\t\n      PUSH [tag] 413\t\t\t\n      JUMPI \t\t\t\n      PUSH 0\t\t\t\n      DUP5 \t\t\t\n      ISZERO \t\t\t\n      PUSH [tag] 414\t\t\t\n      JUMPI \t\t\t\n      DUP3 \t\t\t\n      DUP8 \t\t\t\n      ADD \t\t\t\n      MLOAD \t\t\t\n      SWAP1 \t\t\t\n      POP \t\t\t\n    tag 414\t\t\t\n      JUMPDEST \t\t\t\n      PUSH [tag] 415\t\t\t\n      DUP6 \t\t\t\n      DUP3 \t\t\t\n      PUSH [tag] 207\t\t\t\n      JUMP \t\t\t\n    tag 415\t\t\t\n      JUMPDEST \t\t\t\n      DUP7 \t\t\t\n      SSTORE \t\t\t\n      POP \t\t\t\n      PUSH [tag] 412\t\t\t\n      JUMP \t\t\t\n    tag 413\t\t\t\n      JUMPDEST \t\t\t\n      PUSH 1F\t\t\t\n      NOT \t\t\t\n      DUP5 \t\t\t\n      AND \t\t\t\n      PUSH [tag] 416\t\t\t\n      DUP7 \t\t\t\n      PUSH [tag] 193\t\t\t\n      JUMP \t\t\t\n    tag 416\t\t\t\n      JUMPDEST \t\t\t\n      PUSH 0\t\t\t\n    tag 417\t\t\t\n      JUMPDEST \t\t\t\n      DUP3 \t\t\t\n      DUP2 \t\t\t\n      LT \t\t\t\n      ISZERO \t\t\t\n      PUSH [tag] 419\t\t\t\n      JUMPI \t\t\t\n      DUP5 \t\t\t\n      DUP10 \t\t\t\n      ADD \t\t\t\n      MLOAD \t\t\t\n      DUP3 \t\t\t\n      SSTORE \t\t\t\n      PUSH 1\t\t\t\n      DUP3 \t\t\t\n      ADD \t\t\t\n      SWAP2 \t\t\t\n      POP \t\t\t\n      PUSH 20\t\t\t\n      DUP6 \t\t\t\n      ADD \t\t\t\n      SWAP5 \t\t\t\n      POP \t\t\t\n      PUSH 20\t\t\t\n      DUP2 \t\t\t\n      ADD \t\t\t\n      SWAP1 \t\t\t\n      POP \t\t\t\n      PUSH [tag] 417\t\t\t\n      JUMP \t\t\t\n    tag 419\t\t\t\n      JUMPDEST \t\t\t\n      DUP7 \t\t\t\n      DUP4 \t\t\t\n      LT \t\t\t\n      ISZERO \t\t\t\n      PUSH [tag] 420\t\t\t\n      JUMPI \t\t\t\n      DUP5 \t\t\t\n      DUP10 \t\t\t\n      ADD \t\t\t\n      MLOAD \t\t\t\n      PUSH [tag] 421\t\t\t\n      PUSH 1F\t\t\t\n      DUP10 \t\t\t\n      AND \t\t\t\n      DUP3 \t\t\t\n      PUSH [tag] 206\t\t\t\n      JUMP \t\t\t\n    tag 421\t\t\t\n      JUMPDEST \t\t\t\n      DUP4 \t\t\t\n      SSTORE \t\t\t\n      POP \t\t\t\n    tag 420\t\t\t\n      JUMPDEST \t\t\t\n      PUSH 1\t\t\t\n      PUSH 2\t\t\t\n      DUP9 \t\t\t\n      MUL \t\t\t\n      ADD \t\t\t\n      DUP9 \t\t\t\n      SSTORE \t\t\t\n      POP \t\t\t\n      POP \t\t\t\n      POP \t\t\t\n    tag 412\t\t\t\n      JUMPDEST \t\t\t\n      POP \t\t\t\n      POP \t\t\t\n      POP \t\t\t\n      POP \t\t\t\n      POP \t\t\t\n      POP \t\t\t\n      JUMP \t\t\t\n    tag 208\t\t\t\n      JUMPDEST \t\t\t\n      PUSH 4E487B7100000000000000000000000000000000000000000000000000000000\t\t\t\n      PUSH 0\t\t\t\n      MSTORE \t\t\t\n      PUSH 11\t\t\t\n      PUSH 4\t\t\t\n      MSTORE \t\t\t\n      PUSH 24\t\t\t\n      PUSH 0\t\t\t\n      REVERT \t\t\t\n    tag 75\t\t\t\n      JUMPDEST \t\t\t\n      PUSH 0\t\t\t\n      PUSH [tag] 424\t\t\t\n      DUP3 \t\t\t\n      PUSH [tag] 162\t\t\t\n      JUMP \t\t\t\n    tag 424\t\t\t\n      JUMPDEST \t\t\t\n      SWAP2 \t\t\t\n      POP \t\t\t\n      PUSH [tag] 425\t\t\t\n      DUP4 \t\t\t\n      PUSH [tag] 162\t\t\t\n      JUMP \t\t\t\n    tag 425\t\t\t\n      JUMPDEST \t\t\t\n      SWAP3 \t\t\t\n      POP \t\t\t\n      DUP3 \t\t\t\n      DUP3 \t\t\t\n      SUB \t\t\t\n      SWAP1 \t\t\t\n      POP \t\t\t\n      DUP2 \t\t\t\n      DUP2 \t\t\t\n      GT \t\t\t\n      ISZERO \t\t\t\n      PUSH [tag] 426\t\t\t\n      JUMPI \t\t\t\n      PUSH [tag] 427\t\t\t\n      PUSH [tag] 208\t\t\t\n      JUMP \t\t\t\n    tag 427\t\t\t\n      JUMPDEST \t\t\t\n    tag 426\t\t\t\n      JUMPDEST \t\t\t\n      SWAP3 \t\t\t\n      SWAP2 \t\t\t\n      POP \t\t\t\n      POP \t\t\t\n      JUMP \t\t\t\n    tag 77\t\t\t\n      JUMPDEST \t\t\t\n      PUSH 0\t\t\t\n      PUSH E0\t\t\t\n      DUP3 \t\t\t\n      ADD \t\t\t\n      SWAP1 \t\t\t\n      POP \t\t\t\n      PUSH [tag] 429\t\t\t\n      PUSH 0\t\t\t\n      DUP4 \t\t\t\n      ADD \t\t\t\n      DUP11 \t\t\t\n      PUSH [tag] 172\t\t\t\n      JUMP \t\t\t\n    tag 429\t\t\t\n      JUMPDEST \t\t\t\n      DUP2 \t\t\t\n      DUP2 \t\t\t\n      SUB \t\t\t\n      PUSH 20\t\t\t\n      DUP4 \t\t\t\n      ADD \t\t\t\n      MSTORE \t\t\t\n      PUSH [tag] 430\t\t\t\n      DUP2 \t\t\t\n      DUP10 \t\t\t\n      PUSH [tag] 169\t\t\t\n      JUMP \t\t\t\n    tag 430\t\t\t\n      JUMPDEST \t\t\t\n      SWAP1 \t\t\t\n      POP \t\t\t\n      PUSH [tag] 431\t\t\t\n      PUSH 40\t\t\t\n      DUP4 \t\t\t\n      ADD \t\t\t\n      DUP9 \t\t\t\n      PUSH [tag] 171\t\t\t\n      JUMP \t\t\t\n    tag 431\t\t\t\n      JUMPDEST \t\t\t\n      PUSH [tag] 432\t\t\t\n      PUSH 60\t\t\t\n      DUP4 \t\t\t\n      ADD \t\t\t\n      DUP8 \t\t\t\n      PUSH [tag] 172\t\t\t\n      JUMP \t\t\t\n    tag 432\t\t\t\n      JUMPDEST \t\t\t\n      DUP2 \t\t\t\n      DUP2 \t\t\t\n      SUB \t\t\t\n      PUSH 80\t\t\t\n      DUP4 \t\t\t\n      ADD \t\t\t\n      MSTORE \t\t\t\n      PUSH [tag] 433\t\t\t\n      DUP2 \t\t\t\n      DUP7 \t\t\t\n      PUSH [tag] 169\t\t\t\n      JUMP \t\t\t\n    tag 433\t\t\t\n      JUMPDEST \t\t\t\n      SWAP1 \t\t\t\n      POP \t\t\t\n      DUP2 \t\t\t\n      DUP2 \t\t\t\n      SUB \t\t\t\n      PUSH A0\t\t\t\n      DUP4 \t\t\t\n      ADD \t\t\t\n      MSTORE \t\t\t\n      PUSH [tag] 434\t\t\t\n      DUP2 \t\t\t\n      DUP6 \t\t\t\n      PUSH [tag] 169\t\t\t\n      JUMP \t\t\t\n    tag 434\t\t\t\n      JUMPDEST \t\t\t\n      SWAP1 \t\t\t\n      POP \t\t\t\n      PUSH [tag] 435\t\t\t\n      PUSH C0\t\t\t\n      DUP4 \t\t\t\n      ADD \t\t\t\n      DUP5 \t\t\t\n      PUSH [tag] 172\t\t\t\n      JUMP \t\t\t\n    tag 435\t\t\t\n      JUMPDEST \t\t\t\n      SWAP9 \t\t\t\n      SWAP8 \t\t\t\n      POP \t\t\t\n      POP \t\t\t\n      POP \t\t\t\n      POP \t\t\t\n      POP \t\t\t\n      POP \t\t\t\n      POP \t\t\t\n      POP \t\t\t\n      JUMP \t\t\t\n    tag 209\t\t\t\n      JUMPDEST \t\t\t\n      PUSH 45786572636973654461746120646F6573206E6F742065786973742E00000000\t\t\t\n      PUSH 0\t\t\t\n      DUP3 \t\t\t\n      ADD \t\t\t\n      MSTORE \t\t\t\n      POP \t\t\t\n      JUMP \t\t\t\n    tag 210\t\t\t\n      JUMPDEST \t\t\t\n      PUSH 0\t\t\t\n      PUSH [tag] 438\t\t\t\n      PUSH 1C\t\t\t\n      DUP4 \t\t\t\n      PUSH [tag] 166\t\t\t\n      JUMP \t\t\t\n    tag 438\t\t\t\n      JUMPDEST \t\t\t\n      SWAP2 \t\t\t\n      POP \t\t\t\n      PUSH [tag] 439\t\t\t\n      DUP3 \t\t\t\n      PUSH [tag] 209\t\t\t\n      JUMP \t\t\t\n    tag 439\t\t\t\n      JUMPDEST \t\t\t\n      PUSH 20\t\t\t\n      DUP3 \t\t\t\n      ADD \t\t\t\n      SWAP1 \t\t\t\n      POP \t\t\t\n      SWAP2 \t\t\t\n      SWAP1 \t\t\t\n      POP \t\t\t\n      JUMP \t\t\t\n    tag 83\t\t\t\n      JUMPDEST \t\t\t\n      PUSH 0\t\t\t\n      PUSH 20\t\t\t\n      DUP3 \t\t\t\n      ADD \t\t\t\n      SWAP1 \t\t\t\n      POP \t\t\t\n      DUP2 \t\t\t\n      DUP2 \t\t\t\n      SUB \t\t\t\n      PUSH 0\t\t\t\n      DUP4 \t\t\t\n      ADD \t\t\t\n      MSTORE \t\t\t\n      PUSH [tag] 441\t\t\t\n      DUP2 \t\t\t\n      PUSH [tag] 210\t\t\t\n      JUMP \t\t\t\n    tag 441\t\t\t\n      JUMPDEST \t\t\t\n      SWAP1 \t\t\t\n      POP \t\t\t\n      SWAP2 \t\t\t\n      SWAP1 \t\t\t\n      POP \t\t\t\n      JUMP \t\t\t\n    tag 211\t\t\t\n      JUMPDEST \t\t\t\n      PUSH 5265636569707420646F6573206E6F742065786973742E000000000000000000\t\t\t\n      PUSH 0\t\t\t\n      DUP3 \t\t\t\n      ADD \t\t\t\n      MSTORE \t\t\t\n      POP \t\t\t\n      JUMP \t\t\t\n    tag 212\t\t\t\n      JUMPDEST \t\t\t\n      PUSH 0\t\t\t\n      PUSH [tag] 444\t\t\t\n      PUSH 17\t\t\t\n      DUP4 \t\t\t\n      PUSH [tag] 166\t\t\t\n      JUMP \t\t\t\n    tag 444\t\t\t\n      JUMPDEST \t\t\t\n      SWAP2 \t\t\t\n      POP \t\t\t\n      PUSH [tag] 445\t\t\t\n      DUP3 \t\t\t\n      PUSH [tag] 211\t\t\t\n      JUMP \t\t\t\n    tag 445\t\t\t\n      JUMPDEST \t\t\t\n      PUSH 20\t\t\t\n      DUP3 \t\t\t\n      ADD \t\t\t\n      SWAP1 \t\t\t\n      POP \t\t\t\n      SWAP2 \t\t\t\n      SWAP1 \t\t\t\n      POP \t\t\t\n      JUMP \t\t\t\n    tag 114\t\t\t\n      JUMPDEST \t\t\t\n      PUSH 0\t\t\t\n      PUSH 20\t\t\t\n      DUP3 \t\t\t\n      ADD \t\t\t\n      SWAP1 \t\t\t\n      POP \t\t\t\n      DUP2 \t\t\t\n      DUP2 \t\t\t\n      SUB \t\t\t\n      PUSH 0\t\t\t\n      DUP4 \t\t\t\n      ADD \t\t\t\n      MSTORE \t\t\t\n      PUSH [tag] 447\t\t\t\n      DUP2 \t\t\t\n      PUSH [tag] 212\t\t\t\n      JUMP \t\t\t\n    tag 447\t\t\t\n      JUMPDEST \t\t\t\n      SWAP1 \t\t\t\n      POP \t\t\t\n      SWAP2 \t\t\t\n      SWAP1 \t\t\t\n      POP \t\t\t\n      JUMP \t\t\t\n    tag 117\t\t\t\n      JUMPDEST \t\t\t\n      PUSH 4E487B7100000000000000000000000000000000000000000000000000000000\t\t\t\n      PUSH 0\t\t\t\n      MSTORE \t\t\t\n      PUSH 32\t\t\t\n      PUSH 4\t\t\t\n      MSTORE \t\t\t\n      PUSH 24\t\t\t\n      PUSH 0\t\t\t\n      REVERT \t\t\t\n    .data\n"
}