{
	"compilerInput": "{\"language\":\"Solidity\",\"sources\":{\"contracts/walkwalk.sol\":{\"content\":\"// SPDX-License-Identifier: MIT\\r\\npragma solidity >=0.8.19 <0.9.0;\\r\\n\\r\\ncontract WalkWalk {\\r\\n    struct ExerciseData {\\r\\n        uint timestamp;\\r\\n        uint steps;\\r\\n        uint duration;\\r\\n        uint distance;\\r\\n    }\\r\\n\\r\\n    struct Receipt {\\r\\n        string walletType;\\r\\n        bool operator;\\r\\n        uint price;\\r\\n        string description;\\r\\n        uint createdAt;\\r\\n    }\\r\\n\\r\\n    // 유저 ID와 타임스탬프별로 운동 정보 배열을 저장하는 매핑\\r\\n    mapping(uint => mapping(uint => ExerciseData[])) public exerciseRecordsByTimestamp;\\r\\n\\r\\n    // 운동 데이터가 추가될 때 발생하는 이벤트\\r\\n    event ExerciseDataAdded(uint memberId, uint timestamp, uint steps, uint duration, uint distance);\\r\\n\\r\\n    // Receipt 데이터를 저장하는 배열\\r\\n    Receipt[] public receipts;\\r\\n\\r\\n    // Receipt 데이터가 추가될 때마다 발생하는 이벤트\\r\\n    event ReceiptAdded(uint indexed receiptId, string walletType, bool operator, uint price, string description, uint createdAt);\\r\\n\\r\\n    // 운동 데이터를 추가하는 함수\\r\\n    function addExerciseData(uint _memberId, uint _timestamp, uint _steps, uint _duration, uint _distance) public {\\r\\n        // 지정된 타임스탬프의 운동 정보 배열에 새로운 데이터를 추가\\r\\n        exerciseRecordsByTimestamp[_memberId][_timestamp].push(ExerciseData(_timestamp, _steps, _duration, _distance));\\r\\n        \\r\\n        // 이벤트 발생\\r\\n        emit ExerciseDataAdded(_memberId, _timestamp, _steps, _duration, _distance);\\r\\n    }\\r\\n\\r\\n    // 특정 유저 ID와 타임스탬프로 운동 정보 배열을 조회하는 함수\\r\\n    function getExerciseDataByTimestamp(uint _memberId, uint _timestamp) public view returns (ExerciseData[] memory) {\\r\\n        return exerciseRecordsByTimestamp[_memberId][_timestamp];\\r\\n    }\\r\\n\\r\\n    // Receipt 데이터를 추가하는 함수\\r\\n    function addReceipt(string memory _walletType, bool _operator, uint _price, string memory _description, uint _createdAt) public returns (uint) {\\r\\n        receipts.push(Receipt(_walletType, _operator, _price, _description, _createdAt));\\r\\n        uint receiptId = receipts.length - 1;\\r\\n        \\r\\n        // 이벤트 발생\\r\\n        emit ReceiptAdded(receiptId, _walletType, _operator, _price, _description, _createdAt);\\r\\n        \\r\\n        // 추가된 Receipt의 ID 반환\\r\\n        return receiptId;\\r\\n    }\\r\\n\\r\\n    // 특정 ID를 가진 Receipt 데이터를 조회하는 함수\\r\\n    function getReceipt(uint _receiptId) public view returns (Receipt memory) {\\r\\n        require(_receiptId < receipts.length, \\\"Receipt does not exist.\\\");\\r\\n        return receipts[_receiptId];\\r\\n    }\\r\\n}\\r\\n\"}},\"settings\":{\"optimizer\":{\"enabled\":false,\"runs\":200},\"outputSelection\":{\"*\":{\"\":[\"ast\"],\"*\":[\"abi\",\"metadata\",\"devdoc\",\"userdoc\",\"storageLayout\",\"evm.legacyAssembly\",\"evm.bytecode\",\"evm.deployedBytecode\",\"evm.methodIdentifiers\",\"evm.gasEstimates\",\"evm.assembly\"]}},\"remappings\":[]}}",
	"name": "WalkWalk",
	"bytecode": {
		"linkReferences": {},
		"object": "6080604052348015600e575f80fd5b506112d28061001c5f395ff3fe608060405234801561000f575f80fd5b5060043610610060575f3560e01c8063069efa7c146100645780630f7ee1ec146100975780638cc5ed93146100cb578063b63e6ac3146100fb578063d3e377451461012b578063e8104c6a14610147575b5f80fd5b61007e600480360381019061007991906107e9565b610177565b60405161008e9493929190610848565b60405180910390f35b6100b160048036038101906100ac919061088b565b6101c7565b6040516100c2959493929190610940565b60405180910390f35b6100e560048036038101906100e0919061099f565b610320565b6040516100f29190610ae7565b60405180910390f35b6101156004803603810190610110919061088b565b6103c3565b6040516101229190610bd8565b60405180910390f35b61014560048036038101906101409190610bf8565b610591565b005b610161600480360381019061015c9190610dc5565b610665565b60405161016e9190610e74565b60405180910390f35b5f602052825f5260405f20602052815f5260405f208181548110610199575f80fd5b905f5260205f2090600402015f925092505050805f0154908060010154908060020154908060030154905084565b600181815481106101d6575f80fd5b905f5260205f2090600502015f91509050805f0180546101f590610eba565b80601f016020809104026020016040519081016040528092919081815260200182805461022190610eba565b801561026c5780601f106102435761010080835404028352916020019161026c565b820191905f5260205f20905b81548152906001019060200180831161024f57829003601f168201915b505050505090806001015f9054906101000a900460ff169080600201549080600301805461029990610eba565b80601f01602080910402602001604051908101604052809291908181526020018280546102c590610eba565b80156103105780601f106102e757610100808354040283529160200191610310565b820191905f5260205f20905b8154815290600101906020018083116102f357829003601f168201915b5050505050908060040154905085565b60605f808481526020019081526020015f205f8381526020019081526020015f20805480602002602001604051908101604052809291908181526020015f905b828210156103b7578382905f5260205f2090600402016040518060800160405290815f8201548152602001600182015481526020016002820154815260200160038201548152505081526020019060010190610360565b50505050905092915050565b6103cb610777565b6001805490508210610412576040517f08c379a000000000000000000000000000000000000000000000000000000000815260040161040990610f34565b60405180910390fd5b6001828154811061042657610425610f52565b5b905f5260205f2090600502016040518060a00160405290815f8201805461044c90610eba565b80601f016020809104026020016040519081016040528092919081815260200182805461047890610eba565b80156104c35780601f1061049a576101008083540402835291602001916104c3565b820191905f5260205f20905b8154815290600101906020018083116104a657829003601f168201915b50505050508152602001600182015f9054906101000a900460ff161515151581526020016002820154815260200160038201805461050090610eba565b80601f016020809104026020016040519081016040528092919081815260200182805461052c90610eba565b80156105775780601f1061054e57610100808354040283529160200191610577565b820191905f5260205f20905b81548152906001019060200180831161055a57829003601f168201915b505050505081526020016004820154815250509050919050565b5f808681526020019081526020015f205f8581526020019081526020015f20604051806080016040528086815260200185815260200184815260200183815250908060018154018082558091505060019003905f5260205f2090600402015f909190919091505f820151815f015560208201518160010155604082015181600201556060820151816003015550507fe920c436c1f1b04eec68b8cdeb48d96c4d5d95f3cc10d4fd0a21978585c23e098585858585604051610656959493929190610f7f565b60405180910390a15050505050565b5f60016040518060a00160405280888152602001871515815260200186815260200185815260200184815250908060018154018082558091505060019003905f5260205f2090600502015f909190919091505f820151815f0190816106ca919061116d565b506020820151816001015f6101000a81548160ff021916908315150217905550604082015181600201556060820151816003019081610709919061116d565b506080820151816004015550505f600180805490506107289190611269565b9050807f859b681cfa615fcbd11a979fbac8e3b028fb937241eb9f5ef62a31af86fad73c8888888888604051610762959493929190610940565b60405180910390a28091505095945050505050565b6040518060a00160405280606081526020015f151581526020015f8152602001606081526020015f81525090565b5f604051905090565b5f80fd5b5f80fd5b5f819050919050565b6107c8816107b6565b81146107d2575f80fd5b50565b5f813590506107e3816107bf565b92915050565b5f805f60608486031215610800576107ff6107ae565b5b5f61080d868287016107d5565b935050602061081e868287016107d5565b925050604061082f868287016107d5565b9150509250925092565b610842816107b6565b82525050565b5f60808201905061085b5f830187610839565b6108686020830186610839565b6108756040830185610839565b6108826060830184610839565b95945050505050565b5f602082840312156108a05761089f6107ae565b5b5f6108ad848285016107d5565b91505092915050565b5f81519050919050565b5f82825260208201905092915050565b8281835e5f83830152505050565b5f601f19601f8301169050919050565b5f6108f8826108b6565b61090281856108c0565b93506109128185602086016108d0565b61091b816108de565b840191505092915050565b5f8115159050919050565b61093a81610926565b82525050565b5f60a0820190508181035f83015261095881886108ee565b90506109676020830187610931565b6109746040830186610839565b818103606083015261098681856108ee565b90506109956080830184610839565b9695505050505050565b5f80604083850312156109b5576109b46107ae565b5b5f6109c2858286016107d5565b92505060206109d3858286016107d5565b9150509250929050565b5f81519050919050565b5f82825260208201905092915050565b5f819050602082019050919050565b610a0f816107b6565b82525050565b608082015f820151610a295f850182610a06565b506020820151610a3c6020850182610a06565b506040820151610a4f6040850182610a06565b506060820151610a626060850182610a06565b50505050565b5f610a738383610a15565b60808301905092915050565b5f602082019050919050565b5f610a95826109dd565b610a9f81856109e7565b9350610aaa836109f7565b805f5b83811015610ada578151610ac18882610a68565b9750610acc83610a7f565b925050600181019050610aad565b5085935050505092915050565b5f6020820190508181035f830152610aff8184610a8b565b905092915050565b5f82825260208201905092915050565b5f610b21826108b6565b610b2b8185610b07565b9350610b3b8185602086016108d0565b610b44816108de565b840191505092915050565b610b5881610926565b82525050565b5f60a083015f8301518482035f860152610b788282610b17565b9150506020830151610b8d6020860182610b4f565b506040830151610ba06040860182610a06565b5060608301518482036060860152610bb88282610b17565b9150506080830151610bcd6080860182610a06565b508091505092915050565b5f6020820190508181035f830152610bf08184610b5e565b905092915050565b5f805f805f60a08688031215610c1157610c106107ae565b5b5f610c1e888289016107d5565b9550506020610c2f888289016107d5565b9450506040610c40888289016107d5565b9350506060610c51888289016107d5565b9250506080610c62888289016107d5565b9150509295509295909350565b5f80fd5b5f80fd5b7f4e487b71000000000000000000000000000000000000000000000000000000005f52604160045260245ffd5b610cad826108de565b810181811067ffffffffffffffff82111715610ccc57610ccb610c77565b5b80604052505050565b5f610cde6107a5565b9050610cea8282610ca4565b919050565b5f67ffffffffffffffff821115610d0957610d08610c77565b5b610d12826108de565b9050602081019050919050565b828183375f83830152505050565b5f610d3f610d3a84610cef565b610cd5565b905082815260208101848484011115610d5b57610d5a610c73565b5b610d66848285610d1f565b509392505050565b5f82601f830112610d8257610d81610c6f565b5b8135610d92848260208601610d2d565b91505092915050565b610da481610926565b8114610dae575f80fd5b50565b5f81359050610dbf81610d9b565b92915050565b5f805f805f60a08688031215610dde57610ddd6107ae565b5b5f86013567ffffffffffffffff811115610dfb57610dfa6107b2565b5b610e0788828901610d6e565b9550506020610e1888828901610db1565b9450506040610e29888289016107d5565b935050606086013567ffffffffffffffff811115610e4a57610e496107b2565b5b610e5688828901610d6e565b9250506080610e67888289016107d5565b9150509295509295909350565b5f602082019050610e875f830184610839565b92915050565b7f4e487b71000000000000000000000000000000000000000000000000000000005f52602260045260245ffd5b5f6002820490506001821680610ed157607f821691505b602082108103610ee457610ee3610e8d565b5b50919050565b7f5265636569707420646f6573206e6f742065786973742e0000000000000000005f82015250565b5f610f1e6017836108c0565b9150610f2982610eea565b602082019050919050565b5f6020820190508181035f830152610f4b81610f12565b9050919050565b7f4e487b71000000000000000000000000000000000000000000000000000000005f52603260045260245ffd5b5f60a082019050610f925f830188610839565b610f9f6020830187610839565b610fac6040830186610839565b610fb96060830185610839565b610fc66080830184610839565b9695505050505050565b5f819050815f5260205f209050919050565b5f6020601f8301049050919050565b5f82821b905092915050565b5f6008830261102c7fffffffffffffffffffffffffffffffffffffffffffffffffffffffffffffffff82610ff1565b6110368683610ff1565b95508019841693508086168417925050509392505050565b5f819050919050565b5f61107161106c611067846107b6565b61104e565b6107b6565b9050919050565b5f819050919050565b61108a83611057565b61109e61109682611078565b848454610ffd565b825550505050565b5f90565b6110b26110a6565b6110bd818484611081565b505050565b5b818110156110e0576110d55f826110aa565b6001810190506110c3565b5050565b601f821115611125576110f681610fd0565b6110ff84610fe2565b8101602085101561110e578190505b61112261111a85610fe2565b8301826110c2565b50505b505050565b5f82821c905092915050565b5f6111455f198460080261112a565b1980831691505092915050565b5f61115d8383611136565b9150826002028217905092915050565b611176826108b6565b67ffffffffffffffff81111561118f5761118e610c77565b5b6111998254610eba565b6111a48282856110e4565b5f60209050601f8311600181146111d5575f84156111c3578287015190505b6111cd8582611152565b865550611234565b601f1984166111e386610fd0565b5f5b8281101561120a578489015182556001820191506020850194506020810190506111e5565b868310156112275784890151611223601f891682611136565b8355505b6001600288020188555050505b505050505050565b7f4e487b71000000000000000000000000000000000000000000000000000000005f52601160045260245ffd5b5f611273826107b6565b915061127e836107b6565b92508282039050818111156112965761129561123c565b5b9291505056fea26469706673582212205ad4c0c38b9a945af62ff74706352ca6e0d2b64438afa1fcc74ba0be5ce0ad8264736f6c63430008190033",
		"opcodes": "PUSH1 0x80 PUSH1 0x40 MSTORE CALLVALUE DUP1 ISZERO PUSH1 0xE JUMPI PUSH0 DUP1 REVERT JUMPDEST POP PUSH2 0x12D2 DUP1 PUSH2 0x1C PUSH0 CODECOPY PUSH0 RETURN INVALID PUSH1 0x80 PUSH1 0x40 MSTORE CALLVALUE DUP1 ISZERO PUSH2 0xF JUMPI PUSH0 DUP1 REVERT JUMPDEST POP PUSH1 0x4 CALLDATASIZE LT PUSH2 0x60 JUMPI PUSH0 CALLDATALOAD PUSH1 0xE0 SHR DUP1 PUSH4 0x69EFA7C EQ PUSH2 0x64 JUMPI DUP1 PUSH4 0xF7EE1EC EQ PUSH2 0x97 JUMPI DUP1 PUSH4 0x8CC5ED93 EQ PUSH2 0xCB JUMPI DUP1 PUSH4 0xB63E6AC3 EQ PUSH2 0xFB JUMPI DUP1 PUSH4 0xD3E37745 EQ PUSH2 0x12B JUMPI DUP1 PUSH4 0xE8104C6A EQ PUSH2 0x147 JUMPI JUMPDEST PUSH0 DUP1 REVERT JUMPDEST PUSH2 0x7E PUSH1 0x4 DUP1 CALLDATASIZE SUB DUP2 ADD SWAP1 PUSH2 0x79 SWAP2 SWAP1 PUSH2 0x7E9 JUMP JUMPDEST PUSH2 0x177 JUMP JUMPDEST PUSH1 0x40 MLOAD PUSH2 0x8E SWAP5 SWAP4 SWAP3 SWAP2 SWAP1 PUSH2 0x848 JUMP JUMPDEST PUSH1 0x40 MLOAD DUP1 SWAP2 SUB SWAP1 RETURN JUMPDEST PUSH2 0xB1 PUSH1 0x4 DUP1 CALLDATASIZE SUB DUP2 ADD SWAP1 PUSH2 0xAC SWAP2 SWAP1 PUSH2 0x88B JUMP JUMPDEST PUSH2 0x1C7 JUMP JUMPDEST PUSH1 0x40 MLOAD PUSH2 0xC2 SWAP6 SWAP5 SWAP4 SWAP3 SWAP2 SWAP1 PUSH2 0x940 JUMP JUMPDEST PUSH1 0x40 MLOAD DUP1 SWAP2 SUB SWAP1 RETURN JUMPDEST PUSH2 0xE5 PUSH1 0x4 DUP1 CALLDATASIZE SUB DUP2 ADD SWAP1 PUSH2 0xE0 SWAP2 SWAP1 PUSH2 0x99F JUMP JUMPDEST PUSH2 0x320 JUMP JUMPDEST PUSH1 0x40 MLOAD PUSH2 0xF2 SWAP2 SWAP1 PUSH2 0xAE7 JUMP JUMPDEST PUSH1 0x40 MLOAD DUP1 SWAP2 SUB SWAP1 RETURN JUMPDEST PUSH2 0x115 PUSH1 0x4 DUP1 CALLDATASIZE SUB DUP2 ADD SWAP1 PUSH2 0x110 SWAP2 SWAP1 PUSH2 0x88B JUMP JUMPDEST PUSH2 0x3C3 JUMP JUMPDEST PUSH1 0x40 MLOAD PUSH2 0x122 SWAP2 SWAP1 PUSH2 0xBD8 JUMP JUMPDEST PUSH1 0x40 MLOAD DUP1 SWAP2 SUB SWAP1 RETURN JUMPDEST PUSH2 0x145 PUSH1 0x4 DUP1 CALLDATASIZE SUB DUP2 ADD SWAP1 PUSH2 0x140 SWAP2 SWAP1 PUSH2 0xBF8 JUMP JUMPDEST PUSH2 0x591 JUMP JUMPDEST STOP JUMPDEST PUSH2 0x161 PUSH1 0x4 DUP1 CALLDATASIZE SUB DUP2 ADD SWAP1 PUSH2 0x15C SWAP2 SWAP1 PUSH2 0xDC5 JUMP JUMPDEST PUSH2 0x665 JUMP JUMPDEST PUSH1 0x40 MLOAD PUSH2 0x16E SWAP2 SWAP1 PUSH2 0xE74 JUMP JUMPDEST PUSH1 0x40 MLOAD DUP1 SWAP2 SUB SWAP1 RETURN JUMPDEST PUSH0 PUSH1 0x20 MSTORE DUP3 PUSH0 MSTORE PUSH1 0x40 PUSH0 KECCAK256 PUSH1 0x20 MSTORE DUP2 PUSH0 MSTORE PUSH1 0x40 PUSH0 KECCAK256 DUP2 DUP2 SLOAD DUP2 LT PUSH2 0x199 JUMPI PUSH0 DUP1 REVERT JUMPDEST SWAP1 PUSH0 MSTORE PUSH1 0x20 PUSH0 KECCAK256 SWAP1 PUSH1 0x4 MUL ADD PUSH0 SWAP3 POP SWAP3 POP POP POP DUP1 PUSH0 ADD SLOAD SWAP1 DUP1 PUSH1 0x1 ADD SLOAD SWAP1 DUP1 PUSH1 0x2 ADD SLOAD SWAP1 DUP1 PUSH1 0x3 ADD SLOAD SWAP1 POP DUP5 JUMP JUMPDEST PUSH1 0x1 DUP2 DUP2 SLOAD DUP2 LT PUSH2 0x1D6 JUMPI PUSH0 DUP1 REVERT JUMPDEST SWAP1 PUSH0 MSTORE PUSH1 0x20 PUSH0 KECCAK256 SWAP1 PUSH1 0x5 MUL ADD PUSH0 SWAP2 POP SWAP1 POP DUP1 PUSH0 ADD DUP1 SLOAD PUSH2 0x1F5 SWAP1 PUSH2 0xEBA JUMP JUMPDEST DUP1 PUSH1 0x1F ADD PUSH1 0x20 DUP1 SWAP2 DIV MUL PUSH1 0x20 ADD PUSH1 0x40 MLOAD SWAP1 DUP2 ADD PUSH1 0x40 MSTORE DUP1 SWAP3 SWAP2 SWAP1 DUP2 DUP2 MSTORE PUSH1 0x20 ADD DUP3 DUP1 SLOAD PUSH2 0x221 SWAP1 PUSH2 0xEBA JUMP JUMPDEST DUP1 ISZERO PUSH2 0x26C JUMPI DUP1 PUSH1 0x1F LT PUSH2 0x243 JUMPI PUSH2 0x100 DUP1 DUP4 SLOAD DIV MUL DUP4 MSTORE SWAP2 PUSH1 0x20 ADD SWAP2 PUSH2 0x26C JUMP JUMPDEST DUP3 ADD SWAP2 SWAP1 PUSH0 MSTORE PUSH1 0x20 PUSH0 KECCAK256 SWAP1 JUMPDEST DUP2 SLOAD DUP2 MSTORE SWAP1 PUSH1 0x1 ADD SWAP1 PUSH1 0x20 ADD DUP1 DUP4 GT PUSH2 0x24F JUMPI DUP3 SWAP1 SUB PUSH1 0x1F AND DUP3 ADD SWAP2 JUMPDEST POP POP POP POP POP SWAP1 DUP1 PUSH1 0x1 ADD PUSH0 SWAP1 SLOAD SWAP1 PUSH2 0x100 EXP SWAP1 DIV PUSH1 0xFF AND SWAP1 DUP1 PUSH1 0x2 ADD SLOAD SWAP1 DUP1 PUSH1 0x3 ADD DUP1 SLOAD PUSH2 0x299 SWAP1 PUSH2 0xEBA JUMP JUMPDEST DUP1 PUSH1 0x1F ADD PUSH1 0x20 DUP1 SWAP2 DIV MUL PUSH1 0x20 ADD PUSH1 0x40 MLOAD SWAP1 DUP2 ADD PUSH1 0x40 MSTORE DUP1 SWAP3 SWAP2 SWAP1 DUP2 DUP2 MSTORE PUSH1 0x20 ADD DUP3 DUP1 SLOAD PUSH2 0x2C5 SWAP1 PUSH2 0xEBA JUMP JUMPDEST DUP1 ISZERO PUSH2 0x310 JUMPI DUP1 PUSH1 0x1F LT PUSH2 0x2E7 JUMPI PUSH2 0x100 DUP1 DUP4 SLOAD DIV MUL DUP4 MSTORE SWAP2 PUSH1 0x20 ADD SWAP2 PUSH2 0x310 JUMP JUMPDEST DUP3 ADD SWAP2 SWAP1 PUSH0 MSTORE PUSH1 0x20 PUSH0 KECCAK256 SWAP1 JUMPDEST DUP2 SLOAD DUP2 MSTORE SWAP1 PUSH1 0x1 ADD SWAP1 PUSH1 0x20 ADD DUP1 DUP4 GT PUSH2 0x2F3 JUMPI DUP3 SWAP1 SUB PUSH1 0x1F AND DUP3 ADD SWAP2 JUMPDEST POP POP POP POP POP SWAP1 DUP1 PUSH1 0x4 ADD SLOAD SWAP1 POP DUP6 JUMP JUMPDEST PUSH1 0x60 PUSH0 DUP1 DUP5 DUP2 MSTORE PUSH1 0x20 ADD SWAP1 DUP2 MSTORE PUSH1 0x20 ADD PUSH0 KECCAK256 PUSH0 DUP4 DUP2 MSTORE PUSH1 0x20 ADD SWAP1 DUP2 MSTORE PUSH1 0x20 ADD PUSH0 KECCAK256 DUP1 SLOAD DUP1 PUSH1 0x20 MUL PUSH1 0x20 ADD PUSH1 0x40 MLOAD SWAP1 DUP2 ADD PUSH1 0x40 MSTORE DUP1 SWAP3 SWAP2 SWAP1 DUP2 DUP2 MSTORE PUSH1 0x20 ADD PUSH0 SWAP1 JUMPDEST DUP3 DUP3 LT ISZERO PUSH2 0x3B7 JUMPI DUP4 DUP3 SWAP1 PUSH0 MSTORE PUSH1 0x20 PUSH0 KECCAK256 SWAP1 PUSH1 0x4 MUL ADD PUSH1 0x40 MLOAD DUP1 PUSH1 0x80 ADD PUSH1 0x40 MSTORE SWAP1 DUP2 PUSH0 DUP3 ADD SLOAD DUP2 MSTORE PUSH1 0x20 ADD PUSH1 0x1 DUP3 ADD SLOAD DUP2 MSTORE PUSH1 0x20 ADD PUSH1 0x2 DUP3 ADD SLOAD DUP2 MSTORE PUSH1 0x20 ADD PUSH1 0x3 DUP3 ADD SLOAD DUP2 MSTORE POP POP DUP2 MSTORE PUSH1 0x20 ADD SWAP1 PUSH1 0x1 ADD SWAP1 PUSH2 0x360 JUMP JUMPDEST POP POP POP POP SWAP1 POP SWAP3 SWAP2 POP POP JUMP JUMPDEST PUSH2 0x3CB PUSH2 0x777 JUMP JUMPDEST PUSH1 0x1 DUP1 SLOAD SWAP1 POP DUP3 LT PUSH2 0x412 JUMPI PUSH1 0x40 MLOAD PUSH32 0x8C379A000000000000000000000000000000000000000000000000000000000 DUP2 MSTORE PUSH1 0x4 ADD PUSH2 0x409 SWAP1 PUSH2 0xF34 JUMP JUMPDEST PUSH1 0x40 MLOAD DUP1 SWAP2 SUB SWAP1 REVERT JUMPDEST PUSH1 0x1 DUP3 DUP2 SLOAD DUP2 LT PUSH2 0x426 JUMPI PUSH2 0x425 PUSH2 0xF52 JUMP JUMPDEST JUMPDEST SWAP1 PUSH0 MSTORE PUSH1 0x20 PUSH0 KECCAK256 SWAP1 PUSH1 0x5 MUL ADD PUSH1 0x40 MLOAD DUP1 PUSH1 0xA0 ADD PUSH1 0x40 MSTORE SWAP1 DUP2 PUSH0 DUP3 ADD DUP1 SLOAD PUSH2 0x44C SWAP1 PUSH2 0xEBA JUMP JUMPDEST DUP1 PUSH1 0x1F ADD PUSH1 0x20 DUP1 SWAP2 DIV MUL PUSH1 0x20 ADD PUSH1 0x40 MLOAD SWAP1 DUP2 ADD PUSH1 0x40 MSTORE DUP1 SWAP3 SWAP2 SWAP1 DUP2 DUP2 MSTORE PUSH1 0x20 ADD DUP3 DUP1 SLOAD PUSH2 0x478 SWAP1 PUSH2 0xEBA JUMP JUMPDEST DUP1 ISZERO PUSH2 0x4C3 JUMPI DUP1 PUSH1 0x1F LT PUSH2 0x49A JUMPI PUSH2 0x100 DUP1 DUP4 SLOAD DIV MUL DUP4 MSTORE SWAP2 PUSH1 0x20 ADD SWAP2 PUSH2 0x4C3 JUMP JUMPDEST DUP3 ADD SWAP2 SWAP1 PUSH0 MSTORE PUSH1 0x20 PUSH0 KECCAK256 SWAP1 JUMPDEST DUP2 SLOAD DUP2 MSTORE SWAP1 PUSH1 0x1 ADD SWAP1 PUSH1 0x20 ADD DUP1 DUP4 GT PUSH2 0x4A6 JUMPI DUP3 SWAP1 SUB PUSH1 0x1F AND DUP3 ADD SWAP2 JUMPDEST POP POP POP POP POP DUP2 MSTORE PUSH1 0x20 ADD PUSH1 0x1 DUP3 ADD PUSH0 SWAP1 SLOAD SWAP1 PUSH2 0x100 EXP SWAP1 DIV PUSH1 0xFF AND ISZERO ISZERO ISZERO ISZERO DUP2 MSTORE PUSH1 0x20 ADD PUSH1 0x2 DUP3 ADD SLOAD DUP2 MSTORE PUSH1 0x20 ADD PUSH1 0x3 DUP3 ADD DUP1 SLOAD PUSH2 0x500 SWAP1 PUSH2 0xEBA JUMP JUMPDEST DUP1 PUSH1 0x1F ADD PUSH1 0x20 DUP1 SWAP2 DIV MUL PUSH1 0x20 ADD PUSH1 0x40 MLOAD SWAP1 DUP2 ADD PUSH1 0x40 MSTORE DUP1 SWAP3 SWAP2 SWAP1 DUP2 DUP2 MSTORE PUSH1 0x20 ADD DUP3 DUP1 SLOAD PUSH2 0x52C SWAP1 PUSH2 0xEBA JUMP JUMPDEST DUP1 ISZERO PUSH2 0x577 JUMPI DUP1 PUSH1 0x1F LT PUSH2 0x54E JUMPI PUSH2 0x100 DUP1 DUP4 SLOAD DIV MUL DUP4 MSTORE SWAP2 PUSH1 0x20 ADD SWAP2 PUSH2 0x577 JUMP JUMPDEST DUP3 ADD SWAP2 SWAP1 PUSH0 MSTORE PUSH1 0x20 PUSH0 KECCAK256 SWAP1 JUMPDEST DUP2 SLOAD DUP2 MSTORE SWAP1 PUSH1 0x1 ADD SWAP1 PUSH1 0x20 ADD DUP1 DUP4 GT PUSH2 0x55A JUMPI DUP3 SWAP1 SUB PUSH1 0x1F AND DUP3 ADD SWAP2 JUMPDEST POP POP POP POP POP DUP2 MSTORE PUSH1 0x20 ADD PUSH1 0x4 DUP3 ADD SLOAD DUP2 MSTORE POP POP SWAP1 POP SWAP2 SWAP1 POP JUMP JUMPDEST PUSH0 DUP1 DUP7 DUP2 MSTORE PUSH1 0x20 ADD SWAP1 DUP2 MSTORE PUSH1 0x20 ADD PUSH0 KECCAK256 PUSH0 DUP6 DUP2 MSTORE PUSH1 0x20 ADD SWAP1 DUP2 MSTORE PUSH1 0x20 ADD PUSH0 KECCAK256 PUSH1 0x40 MLOAD DUP1 PUSH1 0x80 ADD PUSH1 0x40 MSTORE DUP1 DUP7 DUP2 MSTORE PUSH1 0x20 ADD DUP6 DUP2 MSTORE PUSH1 0x20 ADD DUP5 DUP2 MSTORE PUSH1 0x20 ADD DUP4 DUP2 MSTORE POP SWAP1 DUP1 PUSH1 0x1 DUP2 SLOAD ADD DUP1 DUP3 SSTORE DUP1 SWAP2 POP POP PUSH1 0x1 SWAP1 SUB SWAP1 PUSH0 MSTORE PUSH1 0x20 PUSH0 KECCAK256 SWAP1 PUSH1 0x4 MUL ADD PUSH0 SWAP1 SWAP2 SWAP1 SWAP2 SWAP1 SWAP2 POP PUSH0 DUP3 ADD MLOAD DUP2 PUSH0 ADD SSTORE PUSH1 0x20 DUP3 ADD MLOAD DUP2 PUSH1 0x1 ADD SSTORE PUSH1 0x40 DUP3 ADD MLOAD DUP2 PUSH1 0x2 ADD SSTORE PUSH1 0x60 DUP3 ADD MLOAD DUP2 PUSH1 0x3 ADD SSTORE POP POP PUSH32 0xE920C436C1F1B04EEC68B8CDEB48D96C4D5D95F3CC10D4FD0A21978585C23E09 DUP6 DUP6 DUP6 DUP6 DUP6 PUSH1 0x40 MLOAD PUSH2 0x656 SWAP6 SWAP5 SWAP4 SWAP3 SWAP2 SWAP1 PUSH2 0xF7F JUMP JUMPDEST PUSH1 0x40 MLOAD DUP1 SWAP2 SUB SWAP1 LOG1 POP POP POP POP POP JUMP JUMPDEST PUSH0 PUSH1 0x1 PUSH1 0x40 MLOAD DUP1 PUSH1 0xA0 ADD PUSH1 0x40 MSTORE DUP1 DUP9 DUP2 MSTORE PUSH1 0x20 ADD DUP8 ISZERO ISZERO DUP2 MSTORE PUSH1 0x20 ADD DUP7 DUP2 MSTORE PUSH1 0x20 ADD DUP6 DUP2 MSTORE PUSH1 0x20 ADD DUP5 DUP2 MSTORE POP SWAP1 DUP1 PUSH1 0x1 DUP2 SLOAD ADD DUP1 DUP3 SSTORE DUP1 SWAP2 POP POP PUSH1 0x1 SWAP1 SUB SWAP1 PUSH0 MSTORE PUSH1 0x20 PUSH0 KECCAK256 SWAP1 PUSH1 0x5 MUL ADD PUSH0 SWAP1 SWAP2 SWAP1 SWAP2 SWAP1 SWAP2 POP PUSH0 DUP3 ADD MLOAD DUP2 PUSH0 ADD SWAP1 DUP2 PUSH2 0x6CA SWAP2 SWAP1 PUSH2 0x116D JUMP JUMPDEST POP PUSH1 0x20 DUP3 ADD MLOAD DUP2 PUSH1 0x1 ADD PUSH0 PUSH2 0x100 EXP DUP2 SLOAD DUP2 PUSH1 0xFF MUL NOT AND SWAP1 DUP4 ISZERO ISZERO MUL OR SWAP1 SSTORE POP PUSH1 0x40 DUP3 ADD MLOAD DUP2 PUSH1 0x2 ADD SSTORE PUSH1 0x60 DUP3 ADD MLOAD DUP2 PUSH1 0x3 ADD SWAP1 DUP2 PUSH2 0x709 SWAP2 SWAP1 PUSH2 0x116D JUMP JUMPDEST POP PUSH1 0x80 DUP3 ADD MLOAD DUP2 PUSH1 0x4 ADD SSTORE POP POP PUSH0 PUSH1 0x1 DUP1 DUP1 SLOAD SWAP1 POP PUSH2 0x728 SWAP2 SWAP1 PUSH2 0x1269 JUMP JUMPDEST SWAP1 POP DUP1 PUSH32 0x859B681CFA615FCBD11A979FBAC8E3B028FB937241EB9F5EF62A31AF86FAD73C DUP9 DUP9 DUP9 DUP9 DUP9 PUSH1 0x40 MLOAD PUSH2 0x762 SWAP6 SWAP5 SWAP4 SWAP3 SWAP2 SWAP1 PUSH2 0x940 JUMP JUMPDEST PUSH1 0x40 MLOAD DUP1 SWAP2 SUB SWAP1 LOG2 DUP1 SWAP2 POP POP SWAP6 SWAP5 POP POP POP POP POP JUMP JUMPDEST PUSH1 0x40 MLOAD DUP1 PUSH1 0xA0 ADD PUSH1 0x40 MSTORE DUP1 PUSH1 0x60 DUP2 MSTORE PUSH1 0x20 ADD PUSH0 ISZERO ISZERO DUP2 MSTORE PUSH1 0x20 ADD PUSH0 DUP2 MSTORE PUSH1 0x20 ADD PUSH1 0x60 DUP2 MSTORE PUSH1 0x20 ADD PUSH0 DUP2 MSTORE POP SWAP1 JUMP JUMPDEST PUSH0 PUSH1 0x40 MLOAD SWAP1 POP SWAP1 JUMP JUMPDEST PUSH0 DUP1 REVERT JUMPDEST PUSH0 DUP1 REVERT JUMPDEST PUSH0 DUP2 SWAP1 POP SWAP2 SWAP1 POP JUMP JUMPDEST PUSH2 0x7C8 DUP2 PUSH2 0x7B6 JUMP JUMPDEST DUP2 EQ PUSH2 0x7D2 JUMPI PUSH0 DUP1 REVERT JUMPDEST POP JUMP JUMPDEST PUSH0 DUP2 CALLDATALOAD SWAP1 POP PUSH2 0x7E3 DUP2 PUSH2 0x7BF JUMP JUMPDEST SWAP3 SWAP2 POP POP JUMP JUMPDEST PUSH0 DUP1 PUSH0 PUSH1 0x60 DUP5 DUP7 SUB SLT ISZERO PUSH2 0x800 JUMPI PUSH2 0x7FF PUSH2 0x7AE JUMP JUMPDEST JUMPDEST PUSH0 PUSH2 0x80D DUP7 DUP3 DUP8 ADD PUSH2 0x7D5 JUMP JUMPDEST SWAP4 POP POP PUSH1 0x20 PUSH2 0x81E DUP7 DUP3 DUP8 ADD PUSH2 0x7D5 JUMP JUMPDEST SWAP3 POP POP PUSH1 0x40 PUSH2 0x82F DUP7 DUP3 DUP8 ADD PUSH2 0x7D5 JUMP JUMPDEST SWAP2 POP POP SWAP3 POP SWAP3 POP SWAP3 JUMP JUMPDEST PUSH2 0x842 DUP2 PUSH2 0x7B6 JUMP JUMPDEST DUP3 MSTORE POP POP JUMP JUMPDEST PUSH0 PUSH1 0x80 DUP3 ADD SWAP1 POP PUSH2 0x85B PUSH0 DUP4 ADD DUP8 PUSH2 0x839 JUMP JUMPDEST PUSH2 0x868 PUSH1 0x20 DUP4 ADD DUP7 PUSH2 0x839 JUMP JUMPDEST PUSH2 0x875 PUSH1 0x40 DUP4 ADD DUP6 PUSH2 0x839 JUMP JUMPDEST PUSH2 0x882 PUSH1 0x60 DUP4 ADD DUP5 PUSH2 0x839 JUMP JUMPDEST SWAP6 SWAP5 POP POP POP POP POP JUMP JUMPDEST PUSH0 PUSH1 0x20 DUP3 DUP5 SUB SLT ISZERO PUSH2 0x8A0 JUMPI PUSH2 0x89F PUSH2 0x7AE JUMP JUMPDEST JUMPDEST PUSH0 PUSH2 0x8AD DUP5 DUP3 DUP6 ADD PUSH2 0x7D5 JUMP JUMPDEST SWAP2 POP POP SWAP3 SWAP2 POP POP JUMP JUMPDEST PUSH0 DUP2 MLOAD SWAP1 POP SWAP2 SWAP1 POP JUMP JUMPDEST PUSH0 DUP3 DUP3 MSTORE PUSH1 0x20 DUP3 ADD SWAP1 POP SWAP3 SWAP2 POP POP JUMP JUMPDEST DUP3 DUP2 DUP4 MCOPY PUSH0 DUP4 DUP4 ADD MSTORE POP POP POP JUMP JUMPDEST PUSH0 PUSH1 0x1F NOT PUSH1 0x1F DUP4 ADD AND SWAP1 POP SWAP2 SWAP1 POP JUMP JUMPDEST PUSH0 PUSH2 0x8F8 DUP3 PUSH2 0x8B6 JUMP JUMPDEST PUSH2 0x902 DUP2 DUP6 PUSH2 0x8C0 JUMP JUMPDEST SWAP4 POP PUSH2 0x912 DUP2 DUP6 PUSH1 0x20 DUP7 ADD PUSH2 0x8D0 JUMP JUMPDEST PUSH2 0x91B DUP2 PUSH2 0x8DE JUMP JUMPDEST DUP5 ADD SWAP2 POP POP SWAP3 SWAP2 POP POP JUMP JUMPDEST PUSH0 DUP2 ISZERO ISZERO SWAP1 POP SWAP2 SWAP1 POP JUMP JUMPDEST PUSH2 0x93A DUP2 PUSH2 0x926 JUMP JUMPDEST DUP3 MSTORE POP POP JUMP JUMPDEST PUSH0 PUSH1 0xA0 DUP3 ADD SWAP1 POP DUP2 DUP2 SUB PUSH0 DUP4 ADD MSTORE PUSH2 0x958 DUP2 DUP9 PUSH2 0x8EE JUMP JUMPDEST SWAP1 POP PUSH2 0x967 PUSH1 0x20 DUP4 ADD DUP8 PUSH2 0x931 JUMP JUMPDEST PUSH2 0x974 PUSH1 0x40 DUP4 ADD DUP7 PUSH2 0x839 JUMP JUMPDEST DUP2 DUP2 SUB PUSH1 0x60 DUP4 ADD MSTORE PUSH2 0x986 DUP2 DUP6 PUSH2 0x8EE JUMP JUMPDEST SWAP1 POP PUSH2 0x995 PUSH1 0x80 DUP4 ADD DUP5 PUSH2 0x839 JUMP JUMPDEST SWAP7 SWAP6 POP POP POP POP POP POP JUMP JUMPDEST PUSH0 DUP1 PUSH1 0x40 DUP4 DUP6 SUB SLT ISZERO PUSH2 0x9B5 JUMPI PUSH2 0x9B4 PUSH2 0x7AE JUMP JUMPDEST JUMPDEST PUSH0 PUSH2 0x9C2 DUP6 DUP3 DUP7 ADD PUSH2 0x7D5 JUMP JUMPDEST SWAP3 POP POP PUSH1 0x20 PUSH2 0x9D3 DUP6 DUP3 DUP7 ADD PUSH2 0x7D5 JUMP JUMPDEST SWAP2 POP POP SWAP3 POP SWAP3 SWAP1 POP JUMP JUMPDEST PUSH0 DUP2 MLOAD SWAP1 POP SWAP2 SWAP1 POP JUMP JUMPDEST PUSH0 DUP3 DUP3 MSTORE PUSH1 0x20 DUP3 ADD SWAP1 POP SWAP3 SWAP2 POP POP JUMP JUMPDEST PUSH0 DUP2 SWAP1 POP PUSH1 0x20 DUP3 ADD SWAP1 POP SWAP2 SWAP1 POP JUMP JUMPDEST PUSH2 0xA0F DUP2 PUSH2 0x7B6 JUMP JUMPDEST DUP3 MSTORE POP POP JUMP JUMPDEST PUSH1 0x80 DUP3 ADD PUSH0 DUP3 ADD MLOAD PUSH2 0xA29 PUSH0 DUP6 ADD DUP3 PUSH2 0xA06 JUMP JUMPDEST POP PUSH1 0x20 DUP3 ADD MLOAD PUSH2 0xA3C PUSH1 0x20 DUP6 ADD DUP3 PUSH2 0xA06 JUMP JUMPDEST POP PUSH1 0x40 DUP3 ADD MLOAD PUSH2 0xA4F PUSH1 0x40 DUP6 ADD DUP3 PUSH2 0xA06 JUMP JUMPDEST POP PUSH1 0x60 DUP3 ADD MLOAD PUSH2 0xA62 PUSH1 0x60 DUP6 ADD DUP3 PUSH2 0xA06 JUMP JUMPDEST POP POP POP POP JUMP JUMPDEST PUSH0 PUSH2 0xA73 DUP4 DUP4 PUSH2 0xA15 JUMP JUMPDEST PUSH1 0x80 DUP4 ADD SWAP1 POP SWAP3 SWAP2 POP POP JUMP JUMPDEST PUSH0 PUSH1 0x20 DUP3 ADD SWAP1 POP SWAP2 SWAP1 POP JUMP JUMPDEST PUSH0 PUSH2 0xA95 DUP3 PUSH2 0x9DD JUMP JUMPDEST PUSH2 0xA9F DUP2 DUP6 PUSH2 0x9E7 JUMP JUMPDEST SWAP4 POP PUSH2 0xAAA DUP4 PUSH2 0x9F7 JUMP JUMPDEST DUP1 PUSH0 JUMPDEST DUP4 DUP2 LT ISZERO PUSH2 0xADA JUMPI DUP2 MLOAD PUSH2 0xAC1 DUP9 DUP3 PUSH2 0xA68 JUMP JUMPDEST SWAP8 POP PUSH2 0xACC DUP4 PUSH2 0xA7F JUMP JUMPDEST SWAP3 POP POP PUSH1 0x1 DUP2 ADD SWAP1 POP PUSH2 0xAAD JUMP JUMPDEST POP DUP6 SWAP4 POP POP POP POP SWAP3 SWAP2 POP POP JUMP JUMPDEST PUSH0 PUSH1 0x20 DUP3 ADD SWAP1 POP DUP2 DUP2 SUB PUSH0 DUP4 ADD MSTORE PUSH2 0xAFF DUP2 DUP5 PUSH2 0xA8B JUMP JUMPDEST SWAP1 POP SWAP3 SWAP2 POP POP JUMP JUMPDEST PUSH0 DUP3 DUP3 MSTORE PUSH1 0x20 DUP3 ADD SWAP1 POP SWAP3 SWAP2 POP POP JUMP JUMPDEST PUSH0 PUSH2 0xB21 DUP3 PUSH2 0x8B6 JUMP JUMPDEST PUSH2 0xB2B DUP2 DUP6 PUSH2 0xB07 JUMP JUMPDEST SWAP4 POP PUSH2 0xB3B DUP2 DUP6 PUSH1 0x20 DUP7 ADD PUSH2 0x8D0 JUMP JUMPDEST PUSH2 0xB44 DUP2 PUSH2 0x8DE JUMP JUMPDEST DUP5 ADD SWAP2 POP POP SWAP3 SWAP2 POP POP JUMP JUMPDEST PUSH2 0xB58 DUP2 PUSH2 0x926 JUMP JUMPDEST DUP3 MSTORE POP POP JUMP JUMPDEST PUSH0 PUSH1 0xA0 DUP4 ADD PUSH0 DUP4 ADD MLOAD DUP5 DUP3 SUB PUSH0 DUP7 ADD MSTORE PUSH2 0xB78 DUP3 DUP3 PUSH2 0xB17 JUMP JUMPDEST SWAP2 POP POP PUSH1 0x20 DUP4 ADD MLOAD PUSH2 0xB8D PUSH1 0x20 DUP7 ADD DUP3 PUSH2 0xB4F JUMP JUMPDEST POP PUSH1 0x40 DUP4 ADD MLOAD PUSH2 0xBA0 PUSH1 0x40 DUP7 ADD DUP3 PUSH2 0xA06 JUMP JUMPDEST POP PUSH1 0x60 DUP4 ADD MLOAD DUP5 DUP3 SUB PUSH1 0x60 DUP7 ADD MSTORE PUSH2 0xBB8 DUP3 DUP3 PUSH2 0xB17 JUMP JUMPDEST SWAP2 POP POP PUSH1 0x80 DUP4 ADD MLOAD PUSH2 0xBCD PUSH1 0x80 DUP7 ADD DUP3 PUSH2 0xA06 JUMP JUMPDEST POP DUP1 SWAP2 POP POP SWAP3 SWAP2 POP POP JUMP JUMPDEST PUSH0 PUSH1 0x20 DUP3 ADD SWAP1 POP DUP2 DUP2 SUB PUSH0 DUP4 ADD MSTORE PUSH2 0xBF0 DUP2 DUP5 PUSH2 0xB5E JUMP JUMPDEST SWAP1 POP SWAP3 SWAP2 POP POP JUMP JUMPDEST PUSH0 DUP1 PUSH0 DUP1 PUSH0 PUSH1 0xA0 DUP7 DUP9 SUB SLT ISZERO PUSH2 0xC11 JUMPI PUSH2 0xC10 PUSH2 0x7AE JUMP JUMPDEST JUMPDEST PUSH0 PUSH2 0xC1E DUP9 DUP3 DUP10 ADD PUSH2 0x7D5 JUMP JUMPDEST SWAP6 POP POP PUSH1 0x20 PUSH2 0xC2F DUP9 DUP3 DUP10 ADD PUSH2 0x7D5 JUMP JUMPDEST SWAP5 POP POP PUSH1 0x40 PUSH2 0xC40 DUP9 DUP3 DUP10 ADD PUSH2 0x7D5 JUMP JUMPDEST SWAP4 POP POP PUSH1 0x60 PUSH2 0xC51 DUP9 DUP3 DUP10 ADD PUSH2 0x7D5 JUMP JUMPDEST SWAP3 POP POP PUSH1 0x80 PUSH2 0xC62 DUP9 DUP3 DUP10 ADD PUSH2 0x7D5 JUMP JUMPDEST SWAP2 POP POP SWAP3 SWAP6 POP SWAP3 SWAP6 SWAP1 SWAP4 POP JUMP JUMPDEST PUSH0 DUP1 REVERT JUMPDEST PUSH0 DUP1 REVERT JUMPDEST PUSH32 0x4E487B7100000000000000000000000000000000000000000000000000000000 PUSH0 MSTORE PUSH1 0x41 PUSH1 0x4 MSTORE PUSH1 0x24 PUSH0 REVERT JUMPDEST PUSH2 0xCAD DUP3 PUSH2 0x8DE JUMP JUMPDEST DUP2 ADD DUP2 DUP2 LT PUSH8 0xFFFFFFFFFFFFFFFF DUP3 GT OR ISZERO PUSH2 0xCCC JUMPI PUSH2 0xCCB PUSH2 0xC77 JUMP JUMPDEST JUMPDEST DUP1 PUSH1 0x40 MSTORE POP POP POP JUMP JUMPDEST PUSH0 PUSH2 0xCDE PUSH2 0x7A5 JUMP JUMPDEST SWAP1 POP PUSH2 0xCEA DUP3 DUP3 PUSH2 0xCA4 JUMP JUMPDEST SWAP2 SWAP1 POP JUMP JUMPDEST PUSH0 PUSH8 0xFFFFFFFFFFFFFFFF DUP3 GT ISZERO PUSH2 0xD09 JUMPI PUSH2 0xD08 PUSH2 0xC77 JUMP JUMPDEST JUMPDEST PUSH2 0xD12 DUP3 PUSH2 0x8DE JUMP JUMPDEST SWAP1 POP PUSH1 0x20 DUP2 ADD SWAP1 POP SWAP2 SWAP1 POP JUMP JUMPDEST DUP3 DUP2 DUP4 CALLDATACOPY PUSH0 DUP4 DUP4 ADD MSTORE POP POP POP JUMP JUMPDEST PUSH0 PUSH2 0xD3F PUSH2 0xD3A DUP5 PUSH2 0xCEF JUMP JUMPDEST PUSH2 0xCD5 JUMP JUMPDEST SWAP1 POP DUP3 DUP2 MSTORE PUSH1 0x20 DUP2 ADD DUP5 DUP5 DUP5 ADD GT ISZERO PUSH2 0xD5B JUMPI PUSH2 0xD5A PUSH2 0xC73 JUMP JUMPDEST JUMPDEST PUSH2 0xD66 DUP5 DUP3 DUP6 PUSH2 0xD1F JUMP JUMPDEST POP SWAP4 SWAP3 POP POP POP JUMP JUMPDEST PUSH0 DUP3 PUSH1 0x1F DUP4 ADD SLT PUSH2 0xD82 JUMPI PUSH2 0xD81 PUSH2 0xC6F JUMP JUMPDEST JUMPDEST DUP2 CALLDATALOAD PUSH2 0xD92 DUP5 DUP3 PUSH1 0x20 DUP7 ADD PUSH2 0xD2D JUMP JUMPDEST SWAP2 POP POP SWAP3 SWAP2 POP POP JUMP JUMPDEST PUSH2 0xDA4 DUP2 PUSH2 0x926 JUMP JUMPDEST DUP2 EQ PUSH2 0xDAE JUMPI PUSH0 DUP1 REVERT JUMPDEST POP JUMP JUMPDEST PUSH0 DUP2 CALLDATALOAD SWAP1 POP PUSH2 0xDBF DUP2 PUSH2 0xD9B JUMP JUMPDEST SWAP3 SWAP2 POP POP JUMP JUMPDEST PUSH0 DUP1 PUSH0 DUP1 PUSH0 PUSH1 0xA0 DUP7 DUP9 SUB SLT ISZERO PUSH2 0xDDE JUMPI PUSH2 0xDDD PUSH2 0x7AE JUMP JUMPDEST JUMPDEST PUSH0 DUP7 ADD CALLDATALOAD PUSH8 0xFFFFFFFFFFFFFFFF DUP2 GT ISZERO PUSH2 0xDFB JUMPI PUSH2 0xDFA PUSH2 0x7B2 JUMP JUMPDEST JUMPDEST PUSH2 0xE07 DUP9 DUP3 DUP10 ADD PUSH2 0xD6E JUMP JUMPDEST SWAP6 POP POP PUSH1 0x20 PUSH2 0xE18 DUP9 DUP3 DUP10 ADD PUSH2 0xDB1 JUMP JUMPDEST SWAP5 POP POP PUSH1 0x40 PUSH2 0xE29 DUP9 DUP3 DUP10 ADD PUSH2 0x7D5 JUMP JUMPDEST SWAP4 POP POP PUSH1 0x60 DUP7 ADD CALLDATALOAD PUSH8 0xFFFFFFFFFFFFFFFF DUP2 GT ISZERO PUSH2 0xE4A JUMPI PUSH2 0xE49 PUSH2 0x7B2 JUMP JUMPDEST JUMPDEST PUSH2 0xE56 DUP9 DUP3 DUP10 ADD PUSH2 0xD6E JUMP JUMPDEST SWAP3 POP POP PUSH1 0x80 PUSH2 0xE67 DUP9 DUP3 DUP10 ADD PUSH2 0x7D5 JUMP JUMPDEST SWAP2 POP POP SWAP3 SWAP6 POP SWAP3 SWAP6 SWAP1 SWAP4 POP JUMP JUMPDEST PUSH0 PUSH1 0x20 DUP3 ADD SWAP1 POP PUSH2 0xE87 PUSH0 DUP4 ADD DUP5 PUSH2 0x839 JUMP JUMPDEST SWAP3 SWAP2 POP POP JUMP JUMPDEST PUSH32 0x4E487B7100000000000000000000000000000000000000000000000000000000 PUSH0 MSTORE PUSH1 0x22 PUSH1 0x4 MSTORE PUSH1 0x24 PUSH0 REVERT JUMPDEST PUSH0 PUSH1 0x2 DUP3 DIV SWAP1 POP PUSH1 0x1 DUP3 AND DUP1 PUSH2 0xED1 JUMPI PUSH1 0x7F DUP3 AND SWAP2 POP JUMPDEST PUSH1 0x20 DUP3 LT DUP2 SUB PUSH2 0xEE4 JUMPI PUSH2 0xEE3 PUSH2 0xE8D JUMP JUMPDEST JUMPDEST POP SWAP2 SWAP1 POP JUMP JUMPDEST PUSH32 0x5265636569707420646F6573206E6F742065786973742E000000000000000000 PUSH0 DUP3 ADD MSTORE POP JUMP JUMPDEST PUSH0 PUSH2 0xF1E PUSH1 0x17 DUP4 PUSH2 0x8C0 JUMP JUMPDEST SWAP2 POP PUSH2 0xF29 DUP3 PUSH2 0xEEA JUMP JUMPDEST PUSH1 0x20 DUP3 ADD SWAP1 POP SWAP2 SWAP1 POP JUMP JUMPDEST PUSH0 PUSH1 0x20 DUP3 ADD SWAP1 POP DUP2 DUP2 SUB PUSH0 DUP4 ADD MSTORE PUSH2 0xF4B DUP2 PUSH2 0xF12 JUMP JUMPDEST SWAP1 POP SWAP2 SWAP1 POP JUMP JUMPDEST PUSH32 0x4E487B7100000000000000000000000000000000000000000000000000000000 PUSH0 MSTORE PUSH1 0x32 PUSH1 0x4 MSTORE PUSH1 0x24 PUSH0 REVERT JUMPDEST PUSH0 PUSH1 0xA0 DUP3 ADD SWAP1 POP PUSH2 0xF92 PUSH0 DUP4 ADD DUP9 PUSH2 0x839 JUMP JUMPDEST PUSH2 0xF9F PUSH1 0x20 DUP4 ADD DUP8 PUSH2 0x839 JUMP JUMPDEST PUSH2 0xFAC PUSH1 0x40 DUP4 ADD DUP7 PUSH2 0x839 JUMP JUMPDEST PUSH2 0xFB9 PUSH1 0x60 DUP4 ADD DUP6 PUSH2 0x839 JUMP JUMPDEST PUSH2 0xFC6 PUSH1 0x80 DUP4 ADD DUP5 PUSH2 0x839 JUMP JUMPDEST SWAP7 SWAP6 POP POP POP POP POP POP JUMP JUMPDEST PUSH0 DUP2 SWAP1 POP DUP2 PUSH0 MSTORE PUSH1 0x20 PUSH0 KECCAK256 SWAP1 POP SWAP2 SWAP1 POP JUMP JUMPDEST PUSH0 PUSH1 0x20 PUSH1 0x1F DUP4 ADD DIV SWAP1 POP SWAP2 SWAP1 POP JUMP JUMPDEST PUSH0 DUP3 DUP3 SHL SWAP1 POP SWAP3 SWAP2 POP POP JUMP JUMPDEST PUSH0 PUSH1 0x8 DUP4 MUL PUSH2 0x102C PUSH32 0xFFFFFFFFFFFFFFFFFFFFFFFFFFFFFFFFFFFFFFFFFFFFFFFFFFFFFFFFFFFFFFFF DUP3 PUSH2 0xFF1 JUMP JUMPDEST PUSH2 0x1036 DUP7 DUP4 PUSH2 0xFF1 JUMP JUMPDEST SWAP6 POP DUP1 NOT DUP5 AND SWAP4 POP DUP1 DUP7 AND DUP5 OR SWAP3 POP POP POP SWAP4 SWAP3 POP POP POP JUMP JUMPDEST PUSH0 DUP2 SWAP1 POP SWAP2 SWAP1 POP JUMP JUMPDEST PUSH0 PUSH2 0x1071 PUSH2 0x106C PUSH2 0x1067 DUP5 PUSH2 0x7B6 JUMP JUMPDEST PUSH2 0x104E JUMP JUMPDEST PUSH2 0x7B6 JUMP JUMPDEST SWAP1 POP SWAP2 SWAP1 POP JUMP JUMPDEST PUSH0 DUP2 SWAP1 POP SWAP2 SWAP1 POP JUMP JUMPDEST PUSH2 0x108A DUP4 PUSH2 0x1057 JUMP JUMPDEST PUSH2 0x109E PUSH2 0x1096 DUP3 PUSH2 0x1078 JUMP JUMPDEST DUP5 DUP5 SLOAD PUSH2 0xFFD JUMP JUMPDEST DUP3 SSTORE POP POP POP POP JUMP JUMPDEST PUSH0 SWAP1 JUMP JUMPDEST PUSH2 0x10B2 PUSH2 0x10A6 JUMP JUMPDEST PUSH2 0x10BD DUP2 DUP5 DUP5 PUSH2 0x1081 JUMP JUMPDEST POP POP POP JUMP JUMPDEST JUMPDEST DUP2 DUP2 LT ISZERO PUSH2 0x10E0 JUMPI PUSH2 0x10D5 PUSH0 DUP3 PUSH2 0x10AA JUMP JUMPDEST PUSH1 0x1 DUP2 ADD SWAP1 POP PUSH2 0x10C3 JUMP JUMPDEST POP POP JUMP JUMPDEST PUSH1 0x1F DUP3 GT ISZERO PUSH2 0x1125 JUMPI PUSH2 0x10F6 DUP2 PUSH2 0xFD0 JUMP JUMPDEST PUSH2 0x10FF DUP5 PUSH2 0xFE2 JUMP JUMPDEST DUP2 ADD PUSH1 0x20 DUP6 LT ISZERO PUSH2 0x110E JUMPI DUP2 SWAP1 POP JUMPDEST PUSH2 0x1122 PUSH2 0x111A DUP6 PUSH2 0xFE2 JUMP JUMPDEST DUP4 ADD DUP3 PUSH2 0x10C2 JUMP JUMPDEST POP POP JUMPDEST POP POP POP JUMP JUMPDEST PUSH0 DUP3 DUP3 SHR SWAP1 POP SWAP3 SWAP2 POP POP JUMP JUMPDEST PUSH0 PUSH2 0x1145 PUSH0 NOT DUP5 PUSH1 0x8 MUL PUSH2 0x112A JUMP JUMPDEST NOT DUP1 DUP4 AND SWAP2 POP POP SWAP3 SWAP2 POP POP JUMP JUMPDEST PUSH0 PUSH2 0x115D DUP4 DUP4 PUSH2 0x1136 JUMP JUMPDEST SWAP2 POP DUP3 PUSH1 0x2 MUL DUP3 OR SWAP1 POP SWAP3 SWAP2 POP POP JUMP JUMPDEST PUSH2 0x1176 DUP3 PUSH2 0x8B6 JUMP JUMPDEST PUSH8 0xFFFFFFFFFFFFFFFF DUP2 GT ISZERO PUSH2 0x118F JUMPI PUSH2 0x118E PUSH2 0xC77 JUMP JUMPDEST JUMPDEST PUSH2 0x1199 DUP3 SLOAD PUSH2 0xEBA JUMP JUMPDEST PUSH2 0x11A4 DUP3 DUP3 DUP6 PUSH2 0x10E4 JUMP JUMPDEST PUSH0 PUSH1 0x20 SWAP1 POP PUSH1 0x1F DUP4 GT PUSH1 0x1 DUP2 EQ PUSH2 0x11D5 JUMPI PUSH0 DUP5 ISZERO PUSH2 0x11C3 JUMPI DUP3 DUP8 ADD MLOAD SWAP1 POP JUMPDEST PUSH2 0x11CD DUP6 DUP3 PUSH2 0x1152 JUMP JUMPDEST DUP7 SSTORE POP PUSH2 0x1234 JUMP JUMPDEST PUSH1 0x1F NOT DUP5 AND PUSH2 0x11E3 DUP7 PUSH2 0xFD0 JUMP JUMPDEST PUSH0 JUMPDEST DUP3 DUP2 LT ISZERO PUSH2 0x120A JUMPI DUP5 DUP10 ADD MLOAD DUP3 SSTORE PUSH1 0x1 DUP3 ADD SWAP2 POP PUSH1 0x20 DUP6 ADD SWAP5 POP PUSH1 0x20 DUP2 ADD SWAP1 POP PUSH2 0x11E5 JUMP JUMPDEST DUP7 DUP4 LT ISZERO PUSH2 0x1227 JUMPI DUP5 DUP10 ADD MLOAD PUSH2 0x1223 PUSH1 0x1F DUP10 AND DUP3 PUSH2 0x1136 JUMP JUMPDEST DUP4 SSTORE POP JUMPDEST PUSH1 0x1 PUSH1 0x2 DUP9 MUL ADD DUP9 SSTORE POP POP POP JUMPDEST POP POP POP POP POP POP JUMP JUMPDEST PUSH32 0x4E487B7100000000000000000000000000000000000000000000000000000000 PUSH0 MSTORE PUSH1 0x11 PUSH1 0x4 MSTORE PUSH1 0x24 PUSH0 REVERT JUMPDEST PUSH0 PUSH2 0x1273 DUP3 PUSH2 0x7B6 JUMP JUMPDEST SWAP2 POP PUSH2 0x127E DUP4 PUSH2 0x7B6 JUMP JUMPDEST SWAP3 POP DUP3 DUP3 SUB SWAP1 POP DUP2 DUP2 GT ISZERO PUSH2 0x1296 JUMPI PUSH2 0x1295 PUSH2 0x123C JUMP JUMPDEST JUMPDEST SWAP3 SWAP2 POP POP JUMP INVALID LOG2 PUSH5 0x6970667358 0x22 SLT KECCAK256 GAS 0xD4 0xC0 0xC3 DUP12 SWAP11 SWAP5 GAS 0xF6 0x2F 0xF7 SELFBALANCE MOD CALLDATALOAD 0x2C 0xA6 0xE0 0xD2 0xB6 PREVRANDAO CODESIZE 0xAF LOG1 0xFC 0xC7 0x4B LOG0 0xBE TLOAD 0xE0 0xAD DUP3 PUSH5 0x736F6C6343 STOP ADDMOD NOT STOP CALLER "
	},
	"abi": [
		{
			"anonymous": false,
			"inputs": [
				{
					"indexed": false,
					"internalType": "uint256",
					"name": "memberId",
					"type": "uint256"
				},
				{
					"indexed": false,
					"internalType": "uint256",
					"name": "timestamp",
					"type": "uint256"
				},
				{
					"indexed": false,
					"internalType": "uint256",
					"name": "steps",
					"type": "uint256"
				},
				{
					"indexed": false,
					"internalType": "uint256",
					"name": "duration",
					"type": "uint256"
				},
				{
					"indexed": false,
					"internalType": "uint256",
					"name": "distance",
					"type": "uint256"
				}
			],
			"name": "ExerciseDataAdded",
			"type": "event"
		},
		{
			"anonymous": false,
			"inputs": [
				{
					"indexed": true,
					"internalType": "uint256",
					"name": "receiptId",
					"type": "uint256"
				},
				{
					"indexed": false,
					"internalType": "string",
					"name": "walletType",
					"type": "string"
				},
				{
					"indexed": false,
					"internalType": "bool",
					"name": "operator",
					"type": "bool"
				},
				{
					"indexed": false,
					"internalType": "uint256",
					"name": "price",
					"type": "uint256"
				},
				{
					"indexed": false,
					"internalType": "string",
					"name": "description",
					"type": "string"
				},
				{
					"indexed": false,
					"internalType": "uint256",
					"name": "createdAt",
					"type": "uint256"
				}
			],
			"name": "ReceiptAdded",
			"type": "event"
		},
		{
			"inputs": [
				{
					"internalType": "uint256",
					"name": "_memberId",
					"type": "uint256"
				},
				{
					"internalType": "uint256",
					"name": "_timestamp",
					"type": "uint256"
				},
				{
					"internalType": "uint256",
					"name": "_steps",
					"type": "uint256"
				},
				{
					"internalType": "uint256",
					"name": "_duration",
					"type": "uint256"
				},
				{
					"internalType": "uint256",
					"name": "_distance",
					"type": "uint256"
				}
			],
			"name": "addExerciseData",
			"outputs": [],
			"stateMutability": "nonpayable",
			"type": "function"
		},
		{
			"inputs": [
				{
					"internalType": "string",
					"name": "_walletType",
					"type": "string"
				},
				{
					"internalType": "bool",
					"name": "_operator",
					"type": "bool"
				},
				{
					"internalType": "uint256",
					"name": "_price",
					"type": "uint256"
				},
				{
					"internalType": "string",
					"name": "_description",
					"type": "string"
				},
				{
					"internalType": "uint256",
					"name": "_createdAt",
					"type": "uint256"
				}
			],
			"name": "addReceipt",
			"outputs": [
				{
					"internalType": "uint256",
					"name": "",
					"type": "uint256"
				}
			],
			"stateMutability": "nonpayable",
			"type": "function"
		},
		{
			"inputs": [
				{
					"internalType": "uint256",
					"name": "",
					"type": "uint256"
				},
				{
					"internalType": "uint256",
					"name": "",
					"type": "uint256"
				},
				{
					"internalType": "uint256",
					"name": "",
					"type": "uint256"
				}
			],
			"name": "exerciseRecordsByTimestamp",
			"outputs": [
				{
					"internalType": "uint256",
					"name": "timestamp",
					"type": "uint256"
				},
				{
					"internalType": "uint256",
					"name": "steps",
					"type": "uint256"
				},
				{
					"internalType": "uint256",
					"name": "duration",
					"type": "uint256"
				},
				{
					"internalType": "uint256",
					"name": "distance",
					"type": "uint256"
				}
			],
			"stateMutability": "view",
			"type": "function"
		},
		{
			"inputs": [
				{
					"internalType": "uint256",
					"name": "_memberId",
					"type": "uint256"
				},
				{
					"internalType": "uint256",
					"name": "_timestamp",
					"type": "uint256"
				}
			],
			"name": "getExerciseDataByTimestamp",
			"outputs": [
				{
					"components": [
						{
							"internalType": "uint256",
							"name": "timestamp",
							"type": "uint256"
						},
						{
							"internalType": "uint256",
							"name": "steps",
							"type": "uint256"
						},
						{
							"internalType": "uint256",
							"name": "duration",
							"type": "uint256"
						},
						{
							"internalType": "uint256",
							"name": "distance",
							"type": "uint256"
						}
					],
					"internalType": "struct WalkWalk.ExerciseData[]",
					"name": "",
					"type": "tuple[]"
				}
			],
			"stateMutability": "view",
			"type": "function"
		},
		{
			"inputs": [
				{
					"internalType": "uint256",
					"name": "_receiptId",
					"type": "uint256"
				}
			],
			"name": "getReceipt",
			"outputs": [
				{
					"components": [
						{
							"internalType": "string",
							"name": "walletType",
							"type": "string"
						},
						{
							"internalType": "bool",
							"name": "operator",
							"type": "bool"
						},
						{
							"internalType": "uint256",
							"name": "price",
							"type": "uint256"
						},
						{
							"internalType": "string",
							"name": "description",
							"type": "string"
						},
						{
							"internalType": "uint256",
							"name": "createdAt",
							"type": "uint256"
						}
					],
					"internalType": "struct WalkWalk.Receipt",
					"name": "",
					"type": "tuple"
				}
			],
			"stateMutability": "view",
			"type": "function"
		},
		{
			"inputs": [
				{
					"internalType": "uint256",
					"name": "",
					"type": "uint256"
				}
			],
			"name": "receipts",
			"outputs": [
				{
					"internalType": "string",
					"name": "walletType",
					"type": "string"
				},
				{
					"internalType": "bool",
					"name": "operator",
					"type": "bool"
				},
				{
					"internalType": "uint256",
					"name": "price",
					"type": "uint256"
				},
				{
					"internalType": "string",
					"name": "description",
					"type": "string"
				},
				{
					"internalType": "uint256",
					"name": "createdAt",
					"type": "uint256"
				}
			],
			"stateMutability": "view",
			"type": "function"
		}
	],
	"storageLayout": {
		"storage": [
			{
				"astId": 29,
				"contract": "contracts/walkwalk.sol:WalkWalk",
				"label": "exerciseRecordsByTimestamp",
				"offset": 0,
				"slot": "0",
				"type": "t_mapping(t_uint256,t_mapping(t_uint256,t_array(t_struct(ExerciseData)10_storage)dyn_storage))"
			},
			{
				"astId": 45,
				"contract": "contracts/walkwalk.sol:WalkWalk",
				"label": "receipts",
				"offset": 0,
				"slot": "1",
				"type": "t_array(t_struct(Receipt)21_storage)dyn_storage"
			}
		],
		"types": {
			"t_array(t_struct(ExerciseData)10_storage)dyn_storage": {
				"base": "t_struct(ExerciseData)10_storage",
				"encoding": "dynamic_array",
				"label": "struct WalkWalk.ExerciseData[]",
				"numberOfBytes": "32"
			},
			"t_array(t_struct(Receipt)21_storage)dyn_storage": {
				"base": "t_struct(Receipt)21_storage",
				"encoding": "dynamic_array",
				"label": "struct WalkWalk.Receipt[]",
				"numberOfBytes": "32"
			},
			"t_bool": {
				"encoding": "inplace",
				"label": "bool",
				"numberOfBytes": "1"
			},
			"t_mapping(t_uint256,t_array(t_struct(ExerciseData)10_storage)dyn_storage)": {
				"encoding": "mapping",
				"key": "t_uint256",
				"label": "mapping(uint256 => struct WalkWalk.ExerciseData[])",
				"numberOfBytes": "32",
				"value": "t_array(t_struct(ExerciseData)10_storage)dyn_storage"
			},
			"t_mapping(t_uint256,t_mapping(t_uint256,t_array(t_struct(ExerciseData)10_storage)dyn_storage))": {
				"encoding": "mapping",
				"key": "t_uint256",
				"label": "mapping(uint256 => mapping(uint256 => struct WalkWalk.ExerciseData[]))",
				"numberOfBytes": "32",
				"value": "t_mapping(t_uint256,t_array(t_struct(ExerciseData)10_storage)dyn_storage)"
			},
			"t_string_storage": {
				"encoding": "bytes",
				"label": "string",
				"numberOfBytes": "32"
			},
			"t_struct(ExerciseData)10_storage": {
				"encoding": "inplace",
				"label": "struct WalkWalk.ExerciseData",
				"members": [
					{
						"astId": 3,
						"contract": "contracts/walkwalk.sol:WalkWalk",
						"label": "timestamp",
						"offset": 0,
						"slot": "0",
						"type": "t_uint256"
					},
					{
						"astId": 5,
						"contract": "contracts/walkwalk.sol:WalkWalk",
						"label": "steps",
						"offset": 0,
						"slot": "1",
						"type": "t_uint256"
					},
					{
						"astId": 7,
						"contract": "contracts/walkwalk.sol:WalkWalk",
						"label": "duration",
						"offset": 0,
						"slot": "2",
						"type": "t_uint256"
					},
					{
						"astId": 9,
						"contract": "contracts/walkwalk.sol:WalkWalk",
						"label": "distance",
						"offset": 0,
						"slot": "3",
						"type": "t_uint256"
					}
				],
				"numberOfBytes": "128"
			},
			"t_struct(Receipt)21_storage": {
				"encoding": "inplace",
				"label": "struct WalkWalk.Receipt",
				"members": [
					{
						"astId": 12,
						"contract": "contracts/walkwalk.sol:WalkWalk",
						"label": "walletType",
						"offset": 0,
						"slot": "0",
						"type": "t_string_storage"
					},
					{
						"astId": 14,
						"contract": "contracts/walkwalk.sol:WalkWalk",
						"label": "operator",
						"offset": 0,
						"slot": "1",
						"type": "t_bool"
					},
					{
						"astId": 16,
						"contract": "contracts/walkwalk.sol:WalkWalk",
						"label": "price",
						"offset": 0,
						"slot": "2",
						"type": "t_uint256"
					},
					{
						"astId": 18,
						"contract": "contracts/walkwalk.sol:WalkWalk",
						"label": "description",
						"offset": 0,
						"slot": "3",
						"type": "t_string_storage"
					},
					{
						"astId": 20,
						"contract": "contracts/walkwalk.sol:WalkWalk",
						"label": "createdAt",
						"offset": 0,
						"slot": "4",
						"type": "t_uint256"
					}
				],
				"numberOfBytes": "160"
			},
			"t_uint256": {
				"encoding": "inplace",
				"label": "uint256",
				"numberOfBytes": "32"
			}
		}
	},
	"web3Deploy": "var walkwalkContract = new web3.eth.Contract([{\"anonymous\":false,\"inputs\":[{\"indexed\":false,\"internalType\":\"uint256\",\"name\":\"memberId\",\"type\":\"uint256\"},{\"indexed\":false,\"internalType\":\"uint256\",\"name\":\"timestamp\",\"type\":\"uint256\"},{\"indexed\":false,\"internalType\":\"uint256\",\"name\":\"steps\",\"type\":\"uint256\"},{\"indexed\":false,\"internalType\":\"uint256\",\"name\":\"duration\",\"type\":\"uint256\"},{\"indexed\":false,\"internalType\":\"uint256\",\"name\":\"distance\",\"type\":\"uint256\"}],\"name\":\"ExerciseDataAdded\",\"type\":\"event\"},{\"anonymous\":false,\"inputs\":[{\"indexed\":true,\"internalType\":\"uint256\",\"name\":\"receiptId\",\"type\":\"uint256\"},{\"indexed\":false,\"internalType\":\"string\",\"name\":\"walletType\",\"type\":\"string\"},{\"indexed\":false,\"internalType\":\"bool\",\"name\":\"operator\",\"type\":\"bool\"},{\"indexed\":false,\"internalType\":\"uint256\",\"name\":\"price\",\"type\":\"uint256\"},{\"indexed\":false,\"internalType\":\"string\",\"name\":\"description\",\"type\":\"string\"},{\"indexed\":false,\"internalType\":\"uint256\",\"name\":\"createdAt\",\"type\":\"uint256\"}],\"name\":\"ReceiptAdded\",\"type\":\"event\"},{\"inputs\":[{\"internalType\":\"uint256\",\"name\":\"_memberId\",\"type\":\"uint256\"},{\"internalType\":\"uint256\",\"name\":\"_timestamp\",\"type\":\"uint256\"},{\"internalType\":\"uint256\",\"name\":\"_steps\",\"type\":\"uint256\"},{\"internalType\":\"uint256\",\"name\":\"_duration\",\"type\":\"uint256\"},{\"internalType\":\"uint256\",\"name\":\"_distance\",\"type\":\"uint256\"}],\"name\":\"addExerciseData\",\"outputs\":[],\"stateMutability\":\"nonpayable\",\"type\":\"function\"},{\"inputs\":[{\"internalType\":\"string\",\"name\":\"_walletType\",\"type\":\"string\"},{\"internalType\":\"bool\",\"name\":\"_operator\",\"type\":\"bool\"},{\"internalType\":\"uint256\",\"name\":\"_price\",\"type\":\"uint256\"},{\"internalType\":\"string\",\"name\":\"_description\",\"type\":\"string\"},{\"internalType\":\"uint256\",\"name\":\"_createdAt\",\"type\":\"uint256\"}],\"name\":\"addReceipt\",\"outputs\":[{\"internalType\":\"uint256\",\"name\":\"\",\"type\":\"uint256\"}],\"stateMutability\":\"nonpayable\",\"type\":\"function\"},{\"inputs\":[{\"internalType\":\"uint256\",\"name\":\"\",\"type\":\"uint256\"},{\"internalType\":\"uint256\",\"name\":\"\",\"type\":\"uint256\"},{\"internalType\":\"uint256\",\"name\":\"\",\"type\":\"uint256\"}],\"name\":\"exerciseRecordsByTimestamp\",\"outputs\":[{\"internalType\":\"uint256\",\"name\":\"timestamp\",\"type\":\"uint256\"},{\"internalType\":\"uint256\",\"name\":\"steps\",\"type\":\"uint256\"},{\"internalType\":\"uint256\",\"name\":\"duration\",\"type\":\"uint256\"},{\"internalType\":\"uint256\",\"name\":\"distance\",\"type\":\"uint256\"}],\"stateMutability\":\"view\",\"type\":\"function\"},{\"inputs\":[{\"internalType\":\"uint256\",\"name\":\"_memberId\",\"type\":\"uint256\"},{\"internalType\":\"uint256\",\"name\":\"_timestamp\",\"type\":\"uint256\"}],\"name\":\"getExerciseDataByTimestamp\",\"outputs\":[{\"components\":[{\"internalType\":\"uint256\",\"name\":\"timestamp\",\"type\":\"uint256\"},{\"internalType\":\"uint256\",\"name\":\"steps\",\"type\":\"uint256\"},{\"internalType\":\"uint256\",\"name\":\"duration\",\"type\":\"uint256\"},{\"internalType\":\"uint256\",\"name\":\"distance\",\"type\":\"uint256\"}],\"internalType\":\"struct WalkWalk.ExerciseData[]\",\"name\":\"\",\"type\":\"tuple[]\"}],\"stateMutability\":\"view\",\"type\":\"function\"},{\"inputs\":[{\"internalType\":\"uint256\",\"name\":\"_receiptId\",\"type\":\"uint256\"}],\"name\":\"getReceipt\",\"outputs\":[{\"components\":[{\"internalType\":\"string\",\"name\":\"walletType\",\"type\":\"string\"},{\"internalType\":\"bool\",\"name\":\"operator\",\"type\":\"bool\"},{\"internalType\":\"uint256\",\"name\":\"price\",\"type\":\"uint256\"},{\"internalType\":\"string\",\"name\":\"description\",\"type\":\"string\"},{\"internalType\":\"uint256\",\"name\":\"createdAt\",\"type\":\"uint256\"}],\"internalType\":\"struct WalkWalk.Receipt\",\"name\":\"\",\"type\":\"tuple\"}],\"stateMutability\":\"view\",\"type\":\"function\"},{\"inputs\":[{\"internalType\":\"uint256\",\"name\":\"\",\"type\":\"uint256\"}],\"name\":\"receipts\",\"outputs\":[{\"internalType\":\"string\",\"name\":\"walletType\",\"type\":\"string\"},{\"internalType\":\"bool\",\"name\":\"operator\",\"type\":\"bool\"},{\"internalType\":\"uint256\",\"name\":\"price\",\"type\":\"uint256\"},{\"internalType\":\"string\",\"name\":\"description\",\"type\":\"string\"},{\"internalType\":\"uint256\",\"name\":\"createdAt\",\"type\":\"uint256\"}],\"stateMutability\":\"view\",\"type\":\"function\"}]);\nvar walkwalk = walkwalkContract.deploy({\n     data: '0x6080604052348015600e575f80fd5b506112d28061001c5f395ff3fe608060405234801561000f575f80fd5b5060043610610060575f3560e01c8063069efa7c146100645780630f7ee1ec146100975780638cc5ed93146100cb578063b63e6ac3146100fb578063d3e377451461012b578063e8104c6a14610147575b5f80fd5b61007e600480360381019061007991906107e9565b610177565b60405161008e9493929190610848565b60405180910390f35b6100b160048036038101906100ac919061088b565b6101c7565b6040516100c2959493929190610940565b60405180910390f35b6100e560048036038101906100e0919061099f565b610320565b6040516100f29190610ae7565b60405180910390f35b6101156004803603810190610110919061088b565b6103c3565b6040516101229190610bd8565b60405180910390f35b61014560048036038101906101409190610bf8565b610591565b005b610161600480360381019061015c9190610dc5565b610665565b60405161016e9190610e74565b60405180910390f35b5f602052825f5260405f20602052815f5260405f208181548110610199575f80fd5b905f5260205f2090600402015f925092505050805f0154908060010154908060020154908060030154905084565b600181815481106101d6575f80fd5b905f5260205f2090600502015f91509050805f0180546101f590610eba565b80601f016020809104026020016040519081016040528092919081815260200182805461022190610eba565b801561026c5780601f106102435761010080835404028352916020019161026c565b820191905f5260205f20905b81548152906001019060200180831161024f57829003601f168201915b505050505090806001015f9054906101000a900460ff169080600201549080600301805461029990610eba565b80601f01602080910402602001604051908101604052809291908181526020018280546102c590610eba565b80156103105780601f106102e757610100808354040283529160200191610310565b820191905f5260205f20905b8154815290600101906020018083116102f357829003601f168201915b5050505050908060040154905085565b60605f808481526020019081526020015f205f8381526020019081526020015f20805480602002602001604051908101604052809291908181526020015f905b828210156103b7578382905f5260205f2090600402016040518060800160405290815f8201548152602001600182015481526020016002820154815260200160038201548152505081526020019060010190610360565b50505050905092915050565b6103cb610777565b6001805490508210610412576040517f08c379a000000000000000000000000000000000000000000000000000000000815260040161040990610f34565b60405180910390fd5b6001828154811061042657610425610f52565b5b905f5260205f2090600502016040518060a00160405290815f8201805461044c90610eba565b80601f016020809104026020016040519081016040528092919081815260200182805461047890610eba565b80156104c35780601f1061049a576101008083540402835291602001916104c3565b820191905f5260205f20905b8154815290600101906020018083116104a657829003601f168201915b50505050508152602001600182015f9054906101000a900460ff161515151581526020016002820154815260200160038201805461050090610eba565b80601f016020809104026020016040519081016040528092919081815260200182805461052c90610eba565b80156105775780601f1061054e57610100808354040283529160200191610577565b820191905f5260205f20905b81548152906001019060200180831161055a57829003601f168201915b505050505081526020016004820154815250509050919050565b5f808681526020019081526020015f205f8581526020019081526020015f20604051806080016040528086815260200185815260200184815260200183815250908060018154018082558091505060019003905f5260205f2090600402015f909190919091505f820151815f015560208201518160010155604082015181600201556060820151816003015550507fe920c436c1f1b04eec68b8cdeb48d96c4d5d95f3cc10d4fd0a21978585c23e098585858585604051610656959493929190610f7f565b60405180910390a15050505050565b5f60016040518060a00160405280888152602001871515815260200186815260200185815260200184815250908060018154018082558091505060019003905f5260205f2090600502015f909190919091505f820151815f0190816106ca919061116d565b506020820151816001015f6101000a81548160ff021916908315150217905550604082015181600201556060820151816003019081610709919061116d565b506080820151816004015550505f600180805490506107289190611269565b9050807f859b681cfa615fcbd11a979fbac8e3b028fb937241eb9f5ef62a31af86fad73c8888888888604051610762959493929190610940565b60405180910390a28091505095945050505050565b6040518060a00160405280606081526020015f151581526020015f8152602001606081526020015f81525090565b5f604051905090565b5f80fd5b5f80fd5b5f819050919050565b6107c8816107b6565b81146107d2575f80fd5b50565b5f813590506107e3816107bf565b92915050565b5f805f60608486031215610800576107ff6107ae565b5b5f61080d868287016107d5565b935050602061081e868287016107d5565b925050604061082f868287016107d5565b9150509250925092565b610842816107b6565b82525050565b5f60808201905061085b5f830187610839565b6108686020830186610839565b6108756040830185610839565b6108826060830184610839565b95945050505050565b5f602082840312156108a05761089f6107ae565b5b5f6108ad848285016107d5565b91505092915050565b5f81519050919050565b5f82825260208201905092915050565b8281835e5f83830152505050565b5f601f19601f8301169050919050565b5f6108f8826108b6565b61090281856108c0565b93506109128185602086016108d0565b61091b816108de565b840191505092915050565b5f8115159050919050565b61093a81610926565b82525050565b5f60a0820190508181035f83015261095881886108ee565b90506109676020830187610931565b6109746040830186610839565b818103606083015261098681856108ee565b90506109956080830184610839565b9695505050505050565b5f80604083850312156109b5576109b46107ae565b5b5f6109c2858286016107d5565b92505060206109d3858286016107d5565b9150509250929050565b5f81519050919050565b5f82825260208201905092915050565b5f819050602082019050919050565b610a0f816107b6565b82525050565b608082015f820151610a295f850182610a06565b506020820151610a3c6020850182610a06565b506040820151610a4f6040850182610a06565b506060820151610a626060850182610a06565b50505050565b5f610a738383610a15565b60808301905092915050565b5f602082019050919050565b5f610a95826109dd565b610a9f81856109e7565b9350610aaa836109f7565b805f5b83811015610ada578151610ac18882610a68565b9750610acc83610a7f565b925050600181019050610aad565b5085935050505092915050565b5f6020820190508181035f830152610aff8184610a8b565b905092915050565b5f82825260208201905092915050565b5f610b21826108b6565b610b2b8185610b07565b9350610b3b8185602086016108d0565b610b44816108de565b840191505092915050565b610b5881610926565b82525050565b5f60a083015f8301518482035f860152610b788282610b17565b9150506020830151610b8d6020860182610b4f565b506040830151610ba06040860182610a06565b5060608301518482036060860152610bb88282610b17565b9150506080830151610bcd6080860182610a06565b508091505092915050565b5f6020820190508181035f830152610bf08184610b5e565b905092915050565b5f805f805f60a08688031215610c1157610c106107ae565b5b5f610c1e888289016107d5565b9550506020610c2f888289016107d5565b9450506040610c40888289016107d5565b9350506060610c51888289016107d5565b9250506080610c62888289016107d5565b9150509295509295909350565b5f80fd5b5f80fd5b7f4e487b71000000000000000000000000000000000000000000000000000000005f52604160045260245ffd5b610cad826108de565b810181811067ffffffffffffffff82111715610ccc57610ccb610c77565b5b80604052505050565b5f610cde6107a5565b9050610cea8282610ca4565b919050565b5f67ffffffffffffffff821115610d0957610d08610c77565b5b610d12826108de565b9050602081019050919050565b828183375f83830152505050565b5f610d3f610d3a84610cef565b610cd5565b905082815260208101848484011115610d5b57610d5a610c73565b5b610d66848285610d1f565b509392505050565b5f82601f830112610d8257610d81610c6f565b5b8135610d92848260208601610d2d565b91505092915050565b610da481610926565b8114610dae575f80fd5b50565b5f81359050610dbf81610d9b565b92915050565b5f805f805f60a08688031215610dde57610ddd6107ae565b5b5f86013567ffffffffffffffff811115610dfb57610dfa6107b2565b5b610e0788828901610d6e565b9550506020610e1888828901610db1565b9450506040610e29888289016107d5565b935050606086013567ffffffffffffffff811115610e4a57610e496107b2565b5b610e5688828901610d6e565b9250506080610e67888289016107d5565b9150509295509295909350565b5f602082019050610e875f830184610839565b92915050565b7f4e487b71000000000000000000000000000000000000000000000000000000005f52602260045260245ffd5b5f6002820490506001821680610ed157607f821691505b602082108103610ee457610ee3610e8d565b5b50919050565b7f5265636569707420646f6573206e6f742065786973742e0000000000000000005f82015250565b5f610f1e6017836108c0565b9150610f2982610eea565b602082019050919050565b5f6020820190508181035f830152610f4b81610f12565b9050919050565b7f4e487b71000000000000000000000000000000000000000000000000000000005f52603260045260245ffd5b5f60a082019050610f925f830188610839565b610f9f6020830187610839565b610fac6040830186610839565b610fb96060830185610839565b610fc66080830184610839565b9695505050505050565b5f819050815f5260205f209050919050565b5f6020601f8301049050919050565b5f82821b905092915050565b5f6008830261102c7fffffffffffffffffffffffffffffffffffffffffffffffffffffffffffffffff82610ff1565b6110368683610ff1565b95508019841693508086168417925050509392505050565b5f819050919050565b5f61107161106c611067846107b6565b61104e565b6107b6565b9050919050565b5f819050919050565b61108a83611057565b61109e61109682611078565b848454610ffd565b825550505050565b5f90565b6110b26110a6565b6110bd818484611081565b505050565b5b818110156110e0576110d55f826110aa565b6001810190506110c3565b5050565b601f821115611125576110f681610fd0565b6110ff84610fe2565b8101602085101561110e578190505b61112261111a85610fe2565b8301826110c2565b50505b505050565b5f82821c905092915050565b5f6111455f198460080261112a565b1980831691505092915050565b5f61115d8383611136565b9150826002028217905092915050565b611176826108b6565b67ffffffffffffffff81111561118f5761118e610c77565b5b6111998254610eba565b6111a48282856110e4565b5f60209050601f8311600181146111d5575f84156111c3578287015190505b6111cd8582611152565b865550611234565b601f1984166111e386610fd0565b5f5b8281101561120a578489015182556001820191506020850194506020810190506111e5565b868310156112275784890151611223601f891682611136565b8355505b6001600288020188555050505b505050505050565b7f4e487b71000000000000000000000000000000000000000000000000000000005f52601160045260245ffd5b5f611273826107b6565b915061127e836107b6565b92508282039050818111156112965761129561123c565b5b9291505056fea26469706673582212205ad4c0c38b9a945af62ff74706352ca6e0d2b64438afa1fcc74ba0be5ce0ad8264736f6c63430008190033', \n     arguments: [\n     ]\n}).send({\n     from: web3.eth.accounts[0], \n     gas: '4700000'\n   }, function (e, contract){\n    console.log(e, contract);\n    if (typeof contract.address !== 'undefined') {\n         console.log('Contract mined! address: ' + contract.address + ' transactionHash: ' + contract.transactionHash);\n    }\n })",
	"functionHashes": {
		"d3e37745": "addExerciseData(uint256,uint256,uint256,uint256,uint256)",
		"e8104c6a": "addReceipt(string,bool,uint256,string,uint256)",
		"069efa7c": "exerciseRecordsByTimestamp(uint256,uint256,uint256)",
		"8cc5ed93": "getExerciseDataByTimestamp(uint256,uint256)",
		"b63e6ac3": "getReceipt(uint256)",
		"0f7ee1ec": "receipts(uint256)"
	},
	"gasEstimates": {
		"Creation": {
			"codeDepositCost": "963600",
			"executionCost": "999",
			"totalCost": "964599"
		},
		"External": {
			"addExerciseData(uint256,uint256,uint256,uint256,uint256)": "infinite",
			"addReceipt(string,bool,uint256,string,uint256)": "infinite",
			"exerciseRecordsByTimestamp(uint256,uint256,uint256)": "infinite",
			"getExerciseDataByTimestamp(uint256,uint256)": "infinite",
			"getReceipt(uint256)": "infinite",
			"receipts(uint256)": "infinite"
		}
	},
	"devdoc": {
		"kind": "dev",
		"methods": {},
		"version": 1
	},
	"userdoc": {
		"kind": "user",
		"methods": {},
		"version": 1
	},
	"Runtime Bytecode": {
		"immutableReferences": {},
		"linkReferences": {},
		"object": "608060405234801561000f575f80fd5b5060043610610060575f3560e01c8063069efa7c146100645780630f7ee1ec146100975780638cc5ed93146100cb578063b63e6ac3146100fb578063d3e377451461012b578063e8104c6a14610147575b5f80fd5b61007e600480360381019061007991906107e9565b610177565b60405161008e9493929190610848565b60405180910390f35b6100b160048036038101906100ac919061088b565b6101c7565b6040516100c2959493929190610940565b60405180910390f35b6100e560048036038101906100e0919061099f565b610320565b6040516100f29190610ae7565b60405180910390f35b6101156004803603810190610110919061088b565b6103c3565b6040516101229190610bd8565b60405180910390f35b61014560048036038101906101409190610bf8565b610591565b005b610161600480360381019061015c9190610dc5565b610665565b60405161016e9190610e74565b60405180910390f35b5f602052825f5260405f20602052815f5260405f208181548110610199575f80fd5b905f5260205f2090600402015f925092505050805f0154908060010154908060020154908060030154905084565b600181815481106101d6575f80fd5b905f5260205f2090600502015f91509050805f0180546101f590610eba565b80601f016020809104026020016040519081016040528092919081815260200182805461022190610eba565b801561026c5780601f106102435761010080835404028352916020019161026c565b820191905f5260205f20905b81548152906001019060200180831161024f57829003601f168201915b505050505090806001015f9054906101000a900460ff169080600201549080600301805461029990610eba565b80601f01602080910402602001604051908101604052809291908181526020018280546102c590610eba565b80156103105780601f106102e757610100808354040283529160200191610310565b820191905f5260205f20905b8154815290600101906020018083116102f357829003601f168201915b5050505050908060040154905085565b60605f808481526020019081526020015f205f8381526020019081526020015f20805480602002602001604051908101604052809291908181526020015f905b828210156103b7578382905f5260205f2090600402016040518060800160405290815f8201548152602001600182015481526020016002820154815260200160038201548152505081526020019060010190610360565b50505050905092915050565b6103cb610777565b6001805490508210610412576040517f08c379a000000000000000000000000000000000000000000000000000000000815260040161040990610f34565b60405180910390fd5b6001828154811061042657610425610f52565b5b905f5260205f2090600502016040518060a00160405290815f8201805461044c90610eba565b80601f016020809104026020016040519081016040528092919081815260200182805461047890610eba565b80156104c35780601f1061049a576101008083540402835291602001916104c3565b820191905f5260205f20905b8154815290600101906020018083116104a657829003601f168201915b50505050508152602001600182015f9054906101000a900460ff161515151581526020016002820154815260200160038201805461050090610eba565b80601f016020809104026020016040519081016040528092919081815260200182805461052c90610eba565b80156105775780601f1061054e57610100808354040283529160200191610577565b820191905f5260205f20905b81548152906001019060200180831161055a57829003601f168201915b505050505081526020016004820154815250509050919050565b5f808681526020019081526020015f205f8581526020019081526020015f20604051806080016040528086815260200185815260200184815260200183815250908060018154018082558091505060019003905f5260205f2090600402015f909190919091505f820151815f015560208201518160010155604082015181600201556060820151816003015550507fe920c436c1f1b04eec68b8cdeb48d96c4d5d95f3cc10d4fd0a21978585c23e098585858585604051610656959493929190610f7f565b60405180910390a15050505050565b5f60016040518060a00160405280888152602001871515815260200186815260200185815260200184815250908060018154018082558091505060019003905f5260205f2090600502015f909190919091505f820151815f0190816106ca919061116d565b506020820151816001015f6101000a81548160ff021916908315150217905550604082015181600201556060820151816003019081610709919061116d565b506080820151816004015550505f600180805490506107289190611269565b9050807f859b681cfa615fcbd11a979fbac8e3b028fb937241eb9f5ef62a31af86fad73c8888888888604051610762959493929190610940565b60405180910390a28091505095945050505050565b6040518060a00160405280606081526020015f151581526020015f8152602001606081526020015f81525090565b5f604051905090565b5f80fd5b5f80fd5b5f819050919050565b6107c8816107b6565b81146107d2575f80fd5b50565b5f813590506107e3816107bf565b92915050565b5f805f60608486031215610800576107ff6107ae565b5b5f61080d868287016107d5565b935050602061081e868287016107d5565b925050604061082f868287016107d5565b9150509250925092565b610842816107b6565b82525050565b5f60808201905061085b5f830187610839565b6108686020830186610839565b6108756040830185610839565b6108826060830184610839565b95945050505050565b5f602082840312156108a05761089f6107ae565b5b5f6108ad848285016107d5565b91505092915050565b5f81519050919050565b5f82825260208201905092915050565b8281835e5f83830152505050565b5f601f19601f8301169050919050565b5f6108f8826108b6565b61090281856108c0565b93506109128185602086016108d0565b61091b816108de565b840191505092915050565b5f8115159050919050565b61093a81610926565b82525050565b5f60a0820190508181035f83015261095881886108ee565b90506109676020830187610931565b6109746040830186610839565b818103606083015261098681856108ee565b90506109956080830184610839565b9695505050505050565b5f80604083850312156109b5576109b46107ae565b5b5f6109c2858286016107d5565b92505060206109d3858286016107d5565b9150509250929050565b5f81519050919050565b5f82825260208201905092915050565b5f819050602082019050919050565b610a0f816107b6565b82525050565b608082015f820151610a295f850182610a06565b506020820151610a3c6020850182610a06565b506040820151610a4f6040850182610a06565b506060820151610a626060850182610a06565b50505050565b5f610a738383610a15565b60808301905092915050565b5f602082019050919050565b5f610a95826109dd565b610a9f81856109e7565b9350610aaa836109f7565b805f5b83811015610ada578151610ac18882610a68565b9750610acc83610a7f565b925050600181019050610aad565b5085935050505092915050565b5f6020820190508181035f830152610aff8184610a8b565b905092915050565b5f82825260208201905092915050565b5f610b21826108b6565b610b2b8185610b07565b9350610b3b8185602086016108d0565b610b44816108de565b840191505092915050565b610b5881610926565b82525050565b5f60a083015f8301518482035f860152610b788282610b17565b9150506020830151610b8d6020860182610b4f565b506040830151610ba06040860182610a06565b5060608301518482036060860152610bb88282610b17565b9150506080830151610bcd6080860182610a06565b508091505092915050565b5f6020820190508181035f830152610bf08184610b5e565b905092915050565b5f805f805f60a08688031215610c1157610c106107ae565b5b5f610c1e888289016107d5565b9550506020610c2f888289016107d5565b9450506040610c40888289016107d5565b9350506060610c51888289016107d5565b9250506080610c62888289016107d5565b9150509295509295909350565b5f80fd5b5f80fd5b7f4e487b71000000000000000000000000000000000000000000000000000000005f52604160045260245ffd5b610cad826108de565b810181811067ffffffffffffffff82111715610ccc57610ccb610c77565b5b80604052505050565b5f610cde6107a5565b9050610cea8282610ca4565b919050565b5f67ffffffffffffffff821115610d0957610d08610c77565b5b610d12826108de565b9050602081019050919050565b828183375f83830152505050565b5f610d3f610d3a84610cef565b610cd5565b905082815260208101848484011115610d5b57610d5a610c73565b5b610d66848285610d1f565b509392505050565b5f82601f830112610d8257610d81610c6f565b5b8135610d92848260208601610d2d565b91505092915050565b610da481610926565b8114610dae575f80fd5b50565b5f81359050610dbf81610d9b565b92915050565b5f805f805f60a08688031215610dde57610ddd6107ae565b5b5f86013567ffffffffffffffff811115610dfb57610dfa6107b2565b5b610e0788828901610d6e565b9550506020610e1888828901610db1565b9450506040610e29888289016107d5565b935050606086013567ffffffffffffffff811115610e4a57610e496107b2565b5b610e5688828901610d6e565b9250506080610e67888289016107d5565b9150509295509295909350565b5f602082019050610e875f830184610839565b92915050565b7f4e487b71000000000000000000000000000000000000000000000000000000005f52602260045260245ffd5b5f6002820490506001821680610ed157607f821691505b602082108103610ee457610ee3610e8d565b5b50919050565b7f5265636569707420646f6573206e6f742065786973742e0000000000000000005f82015250565b5f610f1e6017836108c0565b9150610f2982610eea565b602082019050919050565b5f6020820190508181035f830152610f4b81610f12565b9050919050565b7f4e487b71000000000000000000000000000000000000000000000000000000005f52603260045260245ffd5b5f60a082019050610f925f830188610839565b610f9f6020830187610839565b610fac6040830186610839565b610fb96060830185610839565b610fc66080830184610839565b9695505050505050565b5f819050815f5260205f209050919050565b5f6020601f8301049050919050565b5f82821b905092915050565b5f6008830261102c7fffffffffffffffffffffffffffffffffffffffffffffffffffffffffffffffff82610ff1565b6110368683610ff1565b95508019841693508086168417925050509392505050565b5f819050919050565b5f61107161106c611067846107b6565b61104e565b6107b6565b9050919050565b5f819050919050565b61108a83611057565b61109e61109682611078565b848454610ffd565b825550505050565b5f90565b6110b26110a6565b6110bd818484611081565b505050565b5b818110156110e0576110d55f826110aa565b6001810190506110c3565b5050565b601f821115611125576110f681610fd0565b6110ff84610fe2565b8101602085101561110e578190505b61112261111a85610fe2565b8301826110c2565b50505b505050565b5f82821c905092915050565b5f6111455f198460080261112a565b1980831691505092915050565b5f61115d8383611136565b9150826002028217905092915050565b611176826108b6565b67ffffffffffffffff81111561118f5761118e610c77565b5b6111998254610eba565b6111a48282856110e4565b5f60209050601f8311600181146111d5575f84156111c3578287015190505b6111cd8582611152565b865550611234565b601f1984166111e386610fd0565b5f5b8281101561120a578489015182556001820191506020850194506020810190506111e5565b868310156112275784890151611223601f891682611136565b8355505b6001600288020188555050505b505050505050565b7f4e487b71000000000000000000000000000000000000000000000000000000005f52601160045260245ffd5b5f611273826107b6565b915061127e836107b6565b92508282039050818111156112965761129561123c565b5b9291505056fea26469706673582212205ad4c0c38b9a945af62ff74706352ca6e0d2b64438afa1fcc74ba0be5ce0ad8264736f6c63430008190033",
		"opcodes": "PUSH1 0x80 PUSH1 0x40 MSTORE CALLVALUE DUP1 ISZERO PUSH2 0xF JUMPI PUSH0 DUP1 REVERT JUMPDEST POP PUSH1 0x4 CALLDATASIZE LT PUSH2 0x60 JUMPI PUSH0 CALLDATALOAD PUSH1 0xE0 SHR DUP1 PUSH4 0x69EFA7C EQ PUSH2 0x64 JUMPI DUP1 PUSH4 0xF7EE1EC EQ PUSH2 0x97 JUMPI DUP1 PUSH4 0x8CC5ED93 EQ PUSH2 0xCB JUMPI DUP1 PUSH4 0xB63E6AC3 EQ PUSH2 0xFB JUMPI DUP1 PUSH4 0xD3E37745 EQ PUSH2 0x12B JUMPI DUP1 PUSH4 0xE8104C6A EQ PUSH2 0x147 JUMPI JUMPDEST PUSH0 DUP1 REVERT JUMPDEST PUSH2 0x7E PUSH1 0x4 DUP1 CALLDATASIZE SUB DUP2 ADD SWAP1 PUSH2 0x79 SWAP2 SWAP1 PUSH2 0x7E9 JUMP JUMPDEST PUSH2 0x177 JUMP JUMPDEST PUSH1 0x40 MLOAD PUSH2 0x8E SWAP5 SWAP4 SWAP3 SWAP2 SWAP1 PUSH2 0x848 JUMP JUMPDEST PUSH1 0x40 MLOAD DUP1 SWAP2 SUB SWAP1 RETURN JUMPDEST PUSH2 0xB1 PUSH1 0x4 DUP1 CALLDATASIZE SUB DUP2 ADD SWAP1 PUSH2 0xAC SWAP2 SWAP1 PUSH2 0x88B JUMP JUMPDEST PUSH2 0x1C7 JUMP JUMPDEST PUSH1 0x40 MLOAD PUSH2 0xC2 SWAP6 SWAP5 SWAP4 SWAP3 SWAP2 SWAP1 PUSH2 0x940 JUMP JUMPDEST PUSH1 0x40 MLOAD DUP1 SWAP2 SUB SWAP1 RETURN JUMPDEST PUSH2 0xE5 PUSH1 0x4 DUP1 CALLDATASIZE SUB DUP2 ADD SWAP1 PUSH2 0xE0 SWAP2 SWAP1 PUSH2 0x99F JUMP JUMPDEST PUSH2 0x320 JUMP JUMPDEST PUSH1 0x40 MLOAD PUSH2 0xF2 SWAP2 SWAP1 PUSH2 0xAE7 JUMP JUMPDEST PUSH1 0x40 MLOAD DUP1 SWAP2 SUB SWAP1 RETURN JUMPDEST PUSH2 0x115 PUSH1 0x4 DUP1 CALLDATASIZE SUB DUP2 ADD SWAP1 PUSH2 0x110 SWAP2 SWAP1 PUSH2 0x88B JUMP JUMPDEST PUSH2 0x3C3 JUMP JUMPDEST PUSH1 0x40 MLOAD PUSH2 0x122 SWAP2 SWAP1 PUSH2 0xBD8 JUMP JUMPDEST PUSH1 0x40 MLOAD DUP1 SWAP2 SUB SWAP1 RETURN JUMPDEST PUSH2 0x145 PUSH1 0x4 DUP1 CALLDATASIZE SUB DUP2 ADD SWAP1 PUSH2 0x140 SWAP2 SWAP1 PUSH2 0xBF8 JUMP JUMPDEST PUSH2 0x591 JUMP JUMPDEST STOP JUMPDEST PUSH2 0x161 PUSH1 0x4 DUP1 CALLDATASIZE SUB DUP2 ADD SWAP1 PUSH2 0x15C SWAP2 SWAP1 PUSH2 0xDC5 JUMP JUMPDEST PUSH2 0x665 JUMP JUMPDEST PUSH1 0x40 MLOAD PUSH2 0x16E SWAP2 SWAP1 PUSH2 0xE74 JUMP JUMPDEST PUSH1 0x40 MLOAD DUP1 SWAP2 SUB SWAP1 RETURN JUMPDEST PUSH0 PUSH1 0x20 MSTORE DUP3 PUSH0 MSTORE PUSH1 0x40 PUSH0 KECCAK256 PUSH1 0x20 MSTORE DUP2 PUSH0 MSTORE PUSH1 0x40 PUSH0 KECCAK256 DUP2 DUP2 SLOAD DUP2 LT PUSH2 0x199 JUMPI PUSH0 DUP1 REVERT JUMPDEST SWAP1 PUSH0 MSTORE PUSH1 0x20 PUSH0 KECCAK256 SWAP1 PUSH1 0x4 MUL ADD PUSH0 SWAP3 POP SWAP3 POP POP POP DUP1 PUSH0 ADD SLOAD SWAP1 DUP1 PUSH1 0x1 ADD SLOAD SWAP1 DUP1 PUSH1 0x2 ADD SLOAD SWAP1 DUP1 PUSH1 0x3 ADD SLOAD SWAP1 POP DUP5 JUMP JUMPDEST PUSH1 0x1 DUP2 DUP2 SLOAD DUP2 LT PUSH2 0x1D6 JUMPI PUSH0 DUP1 REVERT JUMPDEST SWAP1 PUSH0 MSTORE PUSH1 0x20 PUSH0 KECCAK256 SWAP1 PUSH1 0x5 MUL ADD PUSH0 SWAP2 POP SWAP1 POP DUP1 PUSH0 ADD DUP1 SLOAD PUSH2 0x1F5 SWAP1 PUSH2 0xEBA JUMP JUMPDEST DUP1 PUSH1 0x1F ADD PUSH1 0x20 DUP1 SWAP2 DIV MUL PUSH1 0x20 ADD PUSH1 0x40 MLOAD SWAP1 DUP2 ADD PUSH1 0x40 MSTORE DUP1 SWAP3 SWAP2 SWAP1 DUP2 DUP2 MSTORE PUSH1 0x20 ADD DUP3 DUP1 SLOAD PUSH2 0x221 SWAP1 PUSH2 0xEBA JUMP JUMPDEST DUP1 ISZERO PUSH2 0x26C JUMPI DUP1 PUSH1 0x1F LT PUSH2 0x243 JUMPI PUSH2 0x100 DUP1 DUP4 SLOAD DIV MUL DUP4 MSTORE SWAP2 PUSH1 0x20 ADD SWAP2 PUSH2 0x26C JUMP JUMPDEST DUP3 ADD SWAP2 SWAP1 PUSH0 MSTORE PUSH1 0x20 PUSH0 KECCAK256 SWAP1 JUMPDEST DUP2 SLOAD DUP2 MSTORE SWAP1 PUSH1 0x1 ADD SWAP1 PUSH1 0x20 ADD DUP1 DUP4 GT PUSH2 0x24F JUMPI DUP3 SWAP1 SUB PUSH1 0x1F AND DUP3 ADD SWAP2 JUMPDEST POP POP POP POP POP SWAP1 DUP1 PUSH1 0x1 ADD PUSH0 SWAP1 SLOAD SWAP1 PUSH2 0x100 EXP SWAP1 DIV PUSH1 0xFF AND SWAP1 DUP1 PUSH1 0x2 ADD SLOAD SWAP1 DUP1 PUSH1 0x3 ADD DUP1 SLOAD PUSH2 0x299 SWAP1 PUSH2 0xEBA JUMP JUMPDEST DUP1 PUSH1 0x1F ADD PUSH1 0x20 DUP1 SWAP2 DIV MUL PUSH1 0x20 ADD PUSH1 0x40 MLOAD SWAP1 DUP2 ADD PUSH1 0x40 MSTORE DUP1 SWAP3 SWAP2 SWAP1 DUP2 DUP2 MSTORE PUSH1 0x20 ADD DUP3 DUP1 SLOAD PUSH2 0x2C5 SWAP1 PUSH2 0xEBA JUMP JUMPDEST DUP1 ISZERO PUSH2 0x310 JUMPI DUP1 PUSH1 0x1F LT PUSH2 0x2E7 JUMPI PUSH2 0x100 DUP1 DUP4 SLOAD DIV MUL DUP4 MSTORE SWAP2 PUSH1 0x20 ADD SWAP2 PUSH2 0x310 JUMP JUMPDEST DUP3 ADD SWAP2 SWAP1 PUSH0 MSTORE PUSH1 0x20 PUSH0 KECCAK256 SWAP1 JUMPDEST DUP2 SLOAD DUP2 MSTORE SWAP1 PUSH1 0x1 ADD SWAP1 PUSH1 0x20 ADD DUP1 DUP4 GT PUSH2 0x2F3 JUMPI DUP3 SWAP1 SUB PUSH1 0x1F AND DUP3 ADD SWAP2 JUMPDEST POP POP POP POP POP SWAP1 DUP1 PUSH1 0x4 ADD SLOAD SWAP1 POP DUP6 JUMP JUMPDEST PUSH1 0x60 PUSH0 DUP1 DUP5 DUP2 MSTORE PUSH1 0x20 ADD SWAP1 DUP2 MSTORE PUSH1 0x20 ADD PUSH0 KECCAK256 PUSH0 DUP4 DUP2 MSTORE PUSH1 0x20 ADD SWAP1 DUP2 MSTORE PUSH1 0x20 ADD PUSH0 KECCAK256 DUP1 SLOAD DUP1 PUSH1 0x20 MUL PUSH1 0x20 ADD PUSH1 0x40 MLOAD SWAP1 DUP2 ADD PUSH1 0x40 MSTORE DUP1 SWAP3 SWAP2 SWAP1 DUP2 DUP2 MSTORE PUSH1 0x20 ADD PUSH0 SWAP1 JUMPDEST DUP3 DUP3 LT ISZERO PUSH2 0x3B7 JUMPI DUP4 DUP3 SWAP1 PUSH0 MSTORE PUSH1 0x20 PUSH0 KECCAK256 SWAP1 PUSH1 0x4 MUL ADD PUSH1 0x40 MLOAD DUP1 PUSH1 0x80 ADD PUSH1 0x40 MSTORE SWAP1 DUP2 PUSH0 DUP3 ADD SLOAD DUP2 MSTORE PUSH1 0x20 ADD PUSH1 0x1 DUP3 ADD SLOAD DUP2 MSTORE PUSH1 0x20 ADD PUSH1 0x2 DUP3 ADD SLOAD DUP2 MSTORE PUSH1 0x20 ADD PUSH1 0x3 DUP3 ADD SLOAD DUP2 MSTORE POP POP DUP2 MSTORE PUSH1 0x20 ADD SWAP1 PUSH1 0x1 ADD SWAP1 PUSH2 0x360 JUMP JUMPDEST POP POP POP POP SWAP1 POP SWAP3 SWAP2 POP POP JUMP JUMPDEST PUSH2 0x3CB PUSH2 0x777 JUMP JUMPDEST PUSH1 0x1 DUP1 SLOAD SWAP1 POP DUP3 LT PUSH2 0x412 JUMPI PUSH1 0x40 MLOAD PUSH32 0x8C379A000000000000000000000000000000000000000000000000000000000 DUP2 MSTORE PUSH1 0x4 ADD PUSH2 0x409 SWAP1 PUSH2 0xF34 JUMP JUMPDEST PUSH1 0x40 MLOAD DUP1 SWAP2 SUB SWAP1 REVERT JUMPDEST PUSH1 0x1 DUP3 DUP2 SLOAD DUP2 LT PUSH2 0x426 JUMPI PUSH2 0x425 PUSH2 0xF52 JUMP JUMPDEST JUMPDEST SWAP1 PUSH0 MSTORE PUSH1 0x20 PUSH0 KECCAK256 SWAP1 PUSH1 0x5 MUL ADD PUSH1 0x40 MLOAD DUP1 PUSH1 0xA0 ADD PUSH1 0x40 MSTORE SWAP1 DUP2 PUSH0 DUP3 ADD DUP1 SLOAD PUSH2 0x44C SWAP1 PUSH2 0xEBA JUMP JUMPDEST DUP1 PUSH1 0x1F ADD PUSH1 0x20 DUP1 SWAP2 DIV MUL PUSH1 0x20 ADD PUSH1 0x40 MLOAD SWAP1 DUP2 ADD PUSH1 0x40 MSTORE DUP1 SWAP3 SWAP2 SWAP1 DUP2 DUP2 MSTORE PUSH1 0x20 ADD DUP3 DUP1 SLOAD PUSH2 0x478 SWAP1 PUSH2 0xEBA JUMP JUMPDEST DUP1 ISZERO PUSH2 0x4C3 JUMPI DUP1 PUSH1 0x1F LT PUSH2 0x49A JUMPI PUSH2 0x100 DUP1 DUP4 SLOAD DIV MUL DUP4 MSTORE SWAP2 PUSH1 0x20 ADD SWAP2 PUSH2 0x4C3 JUMP JUMPDEST DUP3 ADD SWAP2 SWAP1 PUSH0 MSTORE PUSH1 0x20 PUSH0 KECCAK256 SWAP1 JUMPDEST DUP2 SLOAD DUP2 MSTORE SWAP1 PUSH1 0x1 ADD SWAP1 PUSH1 0x20 ADD DUP1 DUP4 GT PUSH2 0x4A6 JUMPI DUP3 SWAP1 SUB PUSH1 0x1F AND DUP3 ADD SWAP2 JUMPDEST POP POP POP POP POP DUP2 MSTORE PUSH1 0x20 ADD PUSH1 0x1 DUP3 ADD PUSH0 SWAP1 SLOAD SWAP1 PUSH2 0x100 EXP SWAP1 DIV PUSH1 0xFF AND ISZERO ISZERO ISZERO ISZERO DUP2 MSTORE PUSH1 0x20 ADD PUSH1 0x2 DUP3 ADD SLOAD DUP2 MSTORE PUSH1 0x20 ADD PUSH1 0x3 DUP3 ADD DUP1 SLOAD PUSH2 0x500 SWAP1 PUSH2 0xEBA JUMP JUMPDEST DUP1 PUSH1 0x1F ADD PUSH1 0x20 DUP1 SWAP2 DIV MUL PUSH1 0x20 ADD PUSH1 0x40 MLOAD SWAP1 DUP2 ADD PUSH1 0x40 MSTORE DUP1 SWAP3 SWAP2 SWAP1 DUP2 DUP2 MSTORE PUSH1 0x20 ADD DUP3 DUP1 SLOAD PUSH2 0x52C SWAP1 PUSH2 0xEBA JUMP JUMPDEST DUP1 ISZERO PUSH2 0x577 JUMPI DUP1 PUSH1 0x1F LT PUSH2 0x54E JUMPI PUSH2 0x100 DUP1 DUP4 SLOAD DIV MUL DUP4 MSTORE SWAP2 PUSH1 0x20 ADD SWAP2 PUSH2 0x577 JUMP JUMPDEST DUP3 ADD SWAP2 SWAP1 PUSH0 MSTORE PUSH1 0x20 PUSH0 KECCAK256 SWAP1 JUMPDEST DUP2 SLOAD DUP2 MSTORE SWAP1 PUSH1 0x1 ADD SWAP1 PUSH1 0x20 ADD DUP1 DUP4 GT PUSH2 0x55A JUMPI DUP3 SWAP1 SUB PUSH1 0x1F AND DUP3 ADD SWAP2 JUMPDEST POP POP POP POP POP DUP2 MSTORE PUSH1 0x20 ADD PUSH1 0x4 DUP3 ADD SLOAD DUP2 MSTORE POP POP SWAP1 POP SWAP2 SWAP1 POP JUMP JUMPDEST PUSH0 DUP1 DUP7 DUP2 MSTORE PUSH1 0x20 ADD SWAP1 DUP2 MSTORE PUSH1 0x20 ADD PUSH0 KECCAK256 PUSH0 DUP6 DUP2 MSTORE PUSH1 0x20 ADD SWAP1 DUP2 MSTORE PUSH1 0x20 ADD PUSH0 KECCAK256 PUSH1 0x40 MLOAD DUP1 PUSH1 0x80 ADD PUSH1 0x40 MSTORE DUP1 DUP7 DUP2 MSTORE PUSH1 0x20 ADD DUP6 DUP2 MSTORE PUSH1 0x20 ADD DUP5 DUP2 MSTORE PUSH1 0x20 ADD DUP4 DUP2 MSTORE POP SWAP1 DUP1 PUSH1 0x1 DUP2 SLOAD ADD DUP1 DUP3 SSTORE DUP1 SWAP2 POP POP PUSH1 0x1 SWAP1 SUB SWAP1 PUSH0 MSTORE PUSH1 0x20 PUSH0 KECCAK256 SWAP1 PUSH1 0x4 MUL ADD PUSH0 SWAP1 SWAP2 SWAP1 SWAP2 SWAP1 SWAP2 POP PUSH0 DUP3 ADD MLOAD DUP2 PUSH0 ADD SSTORE PUSH1 0x20 DUP3 ADD MLOAD DUP2 PUSH1 0x1 ADD SSTORE PUSH1 0x40 DUP3 ADD MLOAD DUP2 PUSH1 0x2 ADD SSTORE PUSH1 0x60 DUP3 ADD MLOAD DUP2 PUSH1 0x3 ADD SSTORE POP POP PUSH32 0xE920C436C1F1B04EEC68B8CDEB48D96C4D5D95F3CC10D4FD0A21978585C23E09 DUP6 DUP6 DUP6 DUP6 DUP6 PUSH1 0x40 MLOAD PUSH2 0x656 SWAP6 SWAP5 SWAP4 SWAP3 SWAP2 SWAP1 PUSH2 0xF7F JUMP JUMPDEST PUSH1 0x40 MLOAD DUP1 SWAP2 SUB SWAP1 LOG1 POP POP POP POP POP JUMP JUMPDEST PUSH0 PUSH1 0x1 PUSH1 0x40 MLOAD DUP1 PUSH1 0xA0 ADD PUSH1 0x40 MSTORE DUP1 DUP9 DUP2 MSTORE PUSH1 0x20 ADD DUP8 ISZERO ISZERO DUP2 MSTORE PUSH1 0x20 ADD DUP7 DUP2 MSTORE PUSH1 0x20 ADD DUP6 DUP2 MSTORE PUSH1 0x20 ADD DUP5 DUP2 MSTORE POP SWAP1 DUP1 PUSH1 0x1 DUP2 SLOAD ADD DUP1 DUP3 SSTORE DUP1 SWAP2 POP POP PUSH1 0x1 SWAP1 SUB SWAP1 PUSH0 MSTORE PUSH1 0x20 PUSH0 KECCAK256 SWAP1 PUSH1 0x5 MUL ADD PUSH0 SWAP1 SWAP2 SWAP1 SWAP2 SWAP1 SWAP2 POP PUSH0 DUP3 ADD MLOAD DUP2 PUSH0 ADD SWAP1 DUP2 PUSH2 0x6CA SWAP2 SWAP1 PUSH2 0x116D JUMP JUMPDEST POP PUSH1 0x20 DUP3 ADD MLOAD DUP2 PUSH1 0x1 ADD PUSH0 PUSH2 0x100 EXP DUP2 SLOAD DUP2 PUSH1 0xFF MUL NOT AND SWAP1 DUP4 ISZERO ISZERO MUL OR SWAP1 SSTORE POP PUSH1 0x40 DUP3 ADD MLOAD DUP2 PUSH1 0x2 ADD SSTORE PUSH1 0x60 DUP3 ADD MLOAD DUP2 PUSH1 0x3 ADD SWAP1 DUP2 PUSH2 0x709 SWAP2 SWAP1 PUSH2 0x116D JUMP JUMPDEST POP PUSH1 0x80 DUP3 ADD MLOAD DUP2 PUSH1 0x4 ADD SSTORE POP POP PUSH0 PUSH1 0x1 DUP1 DUP1 SLOAD SWAP1 POP PUSH2 0x728 SWAP2 SWAP1 PUSH2 0x1269 JUMP JUMPDEST SWAP1 POP DUP1 PUSH32 0x859B681CFA615FCBD11A979FBAC8E3B028FB937241EB9F5EF62A31AF86FAD73C DUP9 DUP9 DUP9 DUP9 DUP9 PUSH1 0x40 MLOAD PUSH2 0x762 SWAP6 SWAP5 SWAP4 SWAP3 SWAP2 SWAP1 PUSH2 0x940 JUMP JUMPDEST PUSH1 0x40 MLOAD DUP1 SWAP2 SUB SWAP1 LOG2 DUP1 SWAP2 POP POP SWAP6 SWAP5 POP POP POP POP POP JUMP JUMPDEST PUSH1 0x40 MLOAD DUP1 PUSH1 0xA0 ADD PUSH1 0x40 MSTORE DUP1 PUSH1 0x60 DUP2 MSTORE PUSH1 0x20 ADD PUSH0 ISZERO ISZERO DUP2 MSTORE PUSH1 0x20 ADD PUSH0 DUP2 MSTORE PUSH1 0x20 ADD PUSH1 0x60 DUP2 MSTORE PUSH1 0x20 ADD PUSH0 DUP2 MSTORE POP SWAP1 JUMP JUMPDEST PUSH0 PUSH1 0x40 MLOAD SWAP1 POP SWAP1 JUMP JUMPDEST PUSH0 DUP1 REVERT JUMPDEST PUSH0 DUP1 REVERT JUMPDEST PUSH0 DUP2 SWAP1 POP SWAP2 SWAP1 POP JUMP JUMPDEST PUSH2 0x7C8 DUP2 PUSH2 0x7B6 JUMP JUMPDEST DUP2 EQ PUSH2 0x7D2 JUMPI PUSH0 DUP1 REVERT JUMPDEST POP JUMP JUMPDEST PUSH0 DUP2 CALLDATALOAD SWAP1 POP PUSH2 0x7E3 DUP2 PUSH2 0x7BF JUMP JUMPDEST SWAP3 SWAP2 POP POP JUMP JUMPDEST PUSH0 DUP1 PUSH0 PUSH1 0x60 DUP5 DUP7 SUB SLT ISZERO PUSH2 0x800 JUMPI PUSH2 0x7FF PUSH2 0x7AE JUMP JUMPDEST JUMPDEST PUSH0 PUSH2 0x80D DUP7 DUP3 DUP8 ADD PUSH2 0x7D5 JUMP JUMPDEST SWAP4 POP POP PUSH1 0x20 PUSH2 0x81E DUP7 DUP3 DUP8 ADD PUSH2 0x7D5 JUMP JUMPDEST SWAP3 POP POP PUSH1 0x40 PUSH2 0x82F DUP7 DUP3 DUP8 ADD PUSH2 0x7D5 JUMP JUMPDEST SWAP2 POP POP SWAP3 POP SWAP3 POP SWAP3 JUMP JUMPDEST PUSH2 0x842 DUP2 PUSH2 0x7B6 JUMP JUMPDEST DUP3 MSTORE POP POP JUMP JUMPDEST PUSH0 PUSH1 0x80 DUP3 ADD SWAP1 POP PUSH2 0x85B PUSH0 DUP4 ADD DUP8 PUSH2 0x839 JUMP JUMPDEST PUSH2 0x868 PUSH1 0x20 DUP4 ADD DUP7 PUSH2 0x839 JUMP JUMPDEST PUSH2 0x875 PUSH1 0x40 DUP4 ADD DUP6 PUSH2 0x839 JUMP JUMPDEST PUSH2 0x882 PUSH1 0x60 DUP4 ADD DUP5 PUSH2 0x839 JUMP JUMPDEST SWAP6 SWAP5 POP POP POP POP POP JUMP JUMPDEST PUSH0 PUSH1 0x20 DUP3 DUP5 SUB SLT ISZERO PUSH2 0x8A0 JUMPI PUSH2 0x89F PUSH2 0x7AE JUMP JUMPDEST JUMPDEST PUSH0 PUSH2 0x8AD DUP5 DUP3 DUP6 ADD PUSH2 0x7D5 JUMP JUMPDEST SWAP2 POP POP SWAP3 SWAP2 POP POP JUMP JUMPDEST PUSH0 DUP2 MLOAD SWAP1 POP SWAP2 SWAP1 POP JUMP JUMPDEST PUSH0 DUP3 DUP3 MSTORE PUSH1 0x20 DUP3 ADD SWAP1 POP SWAP3 SWAP2 POP POP JUMP JUMPDEST DUP3 DUP2 DUP4 MCOPY PUSH0 DUP4 DUP4 ADD MSTORE POP POP POP JUMP JUMPDEST PUSH0 PUSH1 0x1F NOT PUSH1 0x1F DUP4 ADD AND SWAP1 POP SWAP2 SWAP1 POP JUMP JUMPDEST PUSH0 PUSH2 0x8F8 DUP3 PUSH2 0x8B6 JUMP JUMPDEST PUSH2 0x902 DUP2 DUP6 PUSH2 0x8C0 JUMP JUMPDEST SWAP4 POP PUSH2 0x912 DUP2 DUP6 PUSH1 0x20 DUP7 ADD PUSH2 0x8D0 JUMP JUMPDEST PUSH2 0x91B DUP2 PUSH2 0x8DE JUMP JUMPDEST DUP5 ADD SWAP2 POP POP SWAP3 SWAP2 POP POP JUMP JUMPDEST PUSH0 DUP2 ISZERO ISZERO SWAP1 POP SWAP2 SWAP1 POP JUMP JUMPDEST PUSH2 0x93A DUP2 PUSH2 0x926 JUMP JUMPDEST DUP3 MSTORE POP POP JUMP JUMPDEST PUSH0 PUSH1 0xA0 DUP3 ADD SWAP1 POP DUP2 DUP2 SUB PUSH0 DUP4 ADD MSTORE PUSH2 0x958 DUP2 DUP9 PUSH2 0x8EE JUMP JUMPDEST SWAP1 POP PUSH2 0x967 PUSH1 0x20 DUP4 ADD DUP8 PUSH2 0x931 JUMP JUMPDEST PUSH2 0x974 PUSH1 0x40 DUP4 ADD DUP7 PUSH2 0x839 JUMP JUMPDEST DUP2 DUP2 SUB PUSH1 0x60 DUP4 ADD MSTORE PUSH2 0x986 DUP2 DUP6 PUSH2 0x8EE JUMP JUMPDEST SWAP1 POP PUSH2 0x995 PUSH1 0x80 DUP4 ADD DUP5 PUSH2 0x839 JUMP JUMPDEST SWAP7 SWAP6 POP POP POP POP POP POP JUMP JUMPDEST PUSH0 DUP1 PUSH1 0x40 DUP4 DUP6 SUB SLT ISZERO PUSH2 0x9B5 JUMPI PUSH2 0x9B4 PUSH2 0x7AE JUMP JUMPDEST JUMPDEST PUSH0 PUSH2 0x9C2 DUP6 DUP3 DUP7 ADD PUSH2 0x7D5 JUMP JUMPDEST SWAP3 POP POP PUSH1 0x20 PUSH2 0x9D3 DUP6 DUP3 DUP7 ADD PUSH2 0x7D5 JUMP JUMPDEST SWAP2 POP POP SWAP3 POP SWAP3 SWAP1 POP JUMP JUMPDEST PUSH0 DUP2 MLOAD SWAP1 POP SWAP2 SWAP1 POP JUMP JUMPDEST PUSH0 DUP3 DUP3 MSTORE PUSH1 0x20 DUP3 ADD SWAP1 POP SWAP3 SWAP2 POP POP JUMP JUMPDEST PUSH0 DUP2 SWAP1 POP PUSH1 0x20 DUP3 ADD SWAP1 POP SWAP2 SWAP1 POP JUMP JUMPDEST PUSH2 0xA0F DUP2 PUSH2 0x7B6 JUMP JUMPDEST DUP3 MSTORE POP POP JUMP JUMPDEST PUSH1 0x80 DUP3 ADD PUSH0 DUP3 ADD MLOAD PUSH2 0xA29 PUSH0 DUP6 ADD DUP3 PUSH2 0xA06 JUMP JUMPDEST POP PUSH1 0x20 DUP3 ADD MLOAD PUSH2 0xA3C PUSH1 0x20 DUP6 ADD DUP3 PUSH2 0xA06 JUMP JUMPDEST POP PUSH1 0x40 DUP3 ADD MLOAD PUSH2 0xA4F PUSH1 0x40 DUP6 ADD DUP3 PUSH2 0xA06 JUMP JUMPDEST POP PUSH1 0x60 DUP3 ADD MLOAD PUSH2 0xA62 PUSH1 0x60 DUP6 ADD DUP3 PUSH2 0xA06 JUMP JUMPDEST POP POP POP POP JUMP JUMPDEST PUSH0 PUSH2 0xA73 DUP4 DUP4 PUSH2 0xA15 JUMP JUMPDEST PUSH1 0x80 DUP4 ADD SWAP1 POP SWAP3 SWAP2 POP POP JUMP JUMPDEST PUSH0 PUSH1 0x20 DUP3 ADD SWAP1 POP SWAP2 SWAP1 POP JUMP JUMPDEST PUSH0 PUSH2 0xA95 DUP3 PUSH2 0x9DD JUMP JUMPDEST PUSH2 0xA9F DUP2 DUP6 PUSH2 0x9E7 JUMP JUMPDEST SWAP4 POP PUSH2 0xAAA DUP4 PUSH2 0x9F7 JUMP JUMPDEST DUP1 PUSH0 JUMPDEST DUP4 DUP2 LT ISZERO PUSH2 0xADA JUMPI DUP2 MLOAD PUSH2 0xAC1 DUP9 DUP3 PUSH2 0xA68 JUMP JUMPDEST SWAP8 POP PUSH2 0xACC DUP4 PUSH2 0xA7F JUMP JUMPDEST SWAP3 POP POP PUSH1 0x1 DUP2 ADD SWAP1 POP PUSH2 0xAAD JUMP JUMPDEST POP DUP6 SWAP4 POP POP POP POP SWAP3 SWAP2 POP POP JUMP JUMPDEST PUSH0 PUSH1 0x20 DUP3 ADD SWAP1 POP DUP2 DUP2 SUB PUSH0 DUP4 ADD MSTORE PUSH2 0xAFF DUP2 DUP5 PUSH2 0xA8B JUMP JUMPDEST SWAP1 POP SWAP3 SWAP2 POP POP JUMP JUMPDEST PUSH0 DUP3 DUP3 MSTORE PUSH1 0x20 DUP3 ADD SWAP1 POP SWAP3 SWAP2 POP POP JUMP JUMPDEST PUSH0 PUSH2 0xB21 DUP3 PUSH2 0x8B6 JUMP JUMPDEST PUSH2 0xB2B DUP2 DUP6 PUSH2 0xB07 JUMP JUMPDEST SWAP4 POP PUSH2 0xB3B DUP2 DUP6 PUSH1 0x20 DUP7 ADD PUSH2 0x8D0 JUMP JUMPDEST PUSH2 0xB44 DUP2 PUSH2 0x8DE JUMP JUMPDEST DUP5 ADD SWAP2 POP POP SWAP3 SWAP2 POP POP JUMP JUMPDEST PUSH2 0xB58 DUP2 PUSH2 0x926 JUMP JUMPDEST DUP3 MSTORE POP POP JUMP JUMPDEST PUSH0 PUSH1 0xA0 DUP4 ADD PUSH0 DUP4 ADD MLOAD DUP5 DUP3 SUB PUSH0 DUP7 ADD MSTORE PUSH2 0xB78 DUP3 DUP3 PUSH2 0xB17 JUMP JUMPDEST SWAP2 POP POP PUSH1 0x20 DUP4 ADD MLOAD PUSH2 0xB8D PUSH1 0x20 DUP7 ADD DUP3 PUSH2 0xB4F JUMP JUMPDEST POP PUSH1 0x40 DUP4 ADD MLOAD PUSH2 0xBA0 PUSH1 0x40 DUP7 ADD DUP3 PUSH2 0xA06 JUMP JUMPDEST POP PUSH1 0x60 DUP4 ADD MLOAD DUP5 DUP3 SUB PUSH1 0x60 DUP7 ADD MSTORE PUSH2 0xBB8 DUP3 DUP3 PUSH2 0xB17 JUMP JUMPDEST SWAP2 POP POP PUSH1 0x80 DUP4 ADD MLOAD PUSH2 0xBCD PUSH1 0x80 DUP7 ADD DUP3 PUSH2 0xA06 JUMP JUMPDEST POP DUP1 SWAP2 POP POP SWAP3 SWAP2 POP POP JUMP JUMPDEST PUSH0 PUSH1 0x20 DUP3 ADD SWAP1 POP DUP2 DUP2 SUB PUSH0 DUP4 ADD MSTORE PUSH2 0xBF0 DUP2 DUP5 PUSH2 0xB5E JUMP JUMPDEST SWAP1 POP SWAP3 SWAP2 POP POP JUMP JUMPDEST PUSH0 DUP1 PUSH0 DUP1 PUSH0 PUSH1 0xA0 DUP7 DUP9 SUB SLT ISZERO PUSH2 0xC11 JUMPI PUSH2 0xC10 PUSH2 0x7AE JUMP JUMPDEST JUMPDEST PUSH0 PUSH2 0xC1E DUP9 DUP3 DUP10 ADD PUSH2 0x7D5 JUMP JUMPDEST SWAP6 POP POP PUSH1 0x20 PUSH2 0xC2F DUP9 DUP3 DUP10 ADD PUSH2 0x7D5 JUMP JUMPDEST SWAP5 POP POP PUSH1 0x40 PUSH2 0xC40 DUP9 DUP3 DUP10 ADD PUSH2 0x7D5 JUMP JUMPDEST SWAP4 POP POP PUSH1 0x60 PUSH2 0xC51 DUP9 DUP3 DUP10 ADD PUSH2 0x7D5 JUMP JUMPDEST SWAP3 POP POP PUSH1 0x80 PUSH2 0xC62 DUP9 DUP3 DUP10 ADD PUSH2 0x7D5 JUMP JUMPDEST SWAP2 POP POP SWAP3 SWAP6 POP SWAP3 SWAP6 SWAP1 SWAP4 POP JUMP JUMPDEST PUSH0 DUP1 REVERT JUMPDEST PUSH0 DUP1 REVERT JUMPDEST PUSH32 0x4E487B7100000000000000000000000000000000000000000000000000000000 PUSH0 MSTORE PUSH1 0x41 PUSH1 0x4 MSTORE PUSH1 0x24 PUSH0 REVERT JUMPDEST PUSH2 0xCAD DUP3 PUSH2 0x8DE JUMP JUMPDEST DUP2 ADD DUP2 DUP2 LT PUSH8 0xFFFFFFFFFFFFFFFF DUP3 GT OR ISZERO PUSH2 0xCCC JUMPI PUSH2 0xCCB PUSH2 0xC77 JUMP JUMPDEST JUMPDEST DUP1 PUSH1 0x40 MSTORE POP POP POP JUMP JUMPDEST PUSH0 PUSH2 0xCDE PUSH2 0x7A5 JUMP JUMPDEST SWAP1 POP PUSH2 0xCEA DUP3 DUP3 PUSH2 0xCA4 JUMP JUMPDEST SWAP2 SWAP1 POP JUMP JUMPDEST PUSH0 PUSH8 0xFFFFFFFFFFFFFFFF DUP3 GT ISZERO PUSH2 0xD09 JUMPI PUSH2 0xD08 PUSH2 0xC77 JUMP JUMPDEST JUMPDEST PUSH2 0xD12 DUP3 PUSH2 0x8DE JUMP JUMPDEST SWAP1 POP PUSH1 0x20 DUP2 ADD SWAP1 POP SWAP2 SWAP1 POP JUMP JUMPDEST DUP3 DUP2 DUP4 CALLDATACOPY PUSH0 DUP4 DUP4 ADD MSTORE POP POP POP JUMP JUMPDEST PUSH0 PUSH2 0xD3F PUSH2 0xD3A DUP5 PUSH2 0xCEF JUMP JUMPDEST PUSH2 0xCD5 JUMP JUMPDEST SWAP1 POP DUP3 DUP2 MSTORE PUSH1 0x20 DUP2 ADD DUP5 DUP5 DUP5 ADD GT ISZERO PUSH2 0xD5B JUMPI PUSH2 0xD5A PUSH2 0xC73 JUMP JUMPDEST JUMPDEST PUSH2 0xD66 DUP5 DUP3 DUP6 PUSH2 0xD1F JUMP JUMPDEST POP SWAP4 SWAP3 POP POP POP JUMP JUMPDEST PUSH0 DUP3 PUSH1 0x1F DUP4 ADD SLT PUSH2 0xD82 JUMPI PUSH2 0xD81 PUSH2 0xC6F JUMP JUMPDEST JUMPDEST DUP2 CALLDATALOAD PUSH2 0xD92 DUP5 DUP3 PUSH1 0x20 DUP7 ADD PUSH2 0xD2D JUMP JUMPDEST SWAP2 POP POP SWAP3 SWAP2 POP POP JUMP JUMPDEST PUSH2 0xDA4 DUP2 PUSH2 0x926 JUMP JUMPDEST DUP2 EQ PUSH2 0xDAE JUMPI PUSH0 DUP1 REVERT JUMPDEST POP JUMP JUMPDEST PUSH0 DUP2 CALLDATALOAD SWAP1 POP PUSH2 0xDBF DUP2 PUSH2 0xD9B JUMP JUMPDEST SWAP3 SWAP2 POP POP JUMP JUMPDEST PUSH0 DUP1 PUSH0 DUP1 PUSH0 PUSH1 0xA0 DUP7 DUP9 SUB SLT ISZERO PUSH2 0xDDE JUMPI PUSH2 0xDDD PUSH2 0x7AE JUMP JUMPDEST JUMPDEST PUSH0 DUP7 ADD CALLDATALOAD PUSH8 0xFFFFFFFFFFFFFFFF DUP2 GT ISZERO PUSH2 0xDFB JUMPI PUSH2 0xDFA PUSH2 0x7B2 JUMP JUMPDEST JUMPDEST PUSH2 0xE07 DUP9 DUP3 DUP10 ADD PUSH2 0xD6E JUMP JUMPDEST SWAP6 POP POP PUSH1 0x20 PUSH2 0xE18 DUP9 DUP3 DUP10 ADD PUSH2 0xDB1 JUMP JUMPDEST SWAP5 POP POP PUSH1 0x40 PUSH2 0xE29 DUP9 DUP3 DUP10 ADD PUSH2 0x7D5 JUMP JUMPDEST SWAP4 POP POP PUSH1 0x60 DUP7 ADD CALLDATALOAD PUSH8 0xFFFFFFFFFFFFFFFF DUP2 GT ISZERO PUSH2 0xE4A JUMPI PUSH2 0xE49 PUSH2 0x7B2 JUMP JUMPDEST JUMPDEST PUSH2 0xE56 DUP9 DUP3 DUP10 ADD PUSH2 0xD6E JUMP JUMPDEST SWAP3 POP POP PUSH1 0x80 PUSH2 0xE67 DUP9 DUP3 DUP10 ADD PUSH2 0x7D5 JUMP JUMPDEST SWAP2 POP POP SWAP3 SWAP6 POP SWAP3 SWAP6 SWAP1 SWAP4 POP JUMP JUMPDEST PUSH0 PUSH1 0x20 DUP3 ADD SWAP1 POP PUSH2 0xE87 PUSH0 DUP4 ADD DUP5 PUSH2 0x839 JUMP JUMPDEST SWAP3 SWAP2 POP POP JUMP JUMPDEST PUSH32 0x4E487B7100000000000000000000000000000000000000000000000000000000 PUSH0 MSTORE PUSH1 0x22 PUSH1 0x4 MSTORE PUSH1 0x24 PUSH0 REVERT JUMPDEST PUSH0 PUSH1 0x2 DUP3 DIV SWAP1 POP PUSH1 0x1 DUP3 AND DUP1 PUSH2 0xED1 JUMPI PUSH1 0x7F DUP3 AND SWAP2 POP JUMPDEST PUSH1 0x20 DUP3 LT DUP2 SUB PUSH2 0xEE4 JUMPI PUSH2 0xEE3 PUSH2 0xE8D JUMP JUMPDEST JUMPDEST POP SWAP2 SWAP1 POP JUMP JUMPDEST PUSH32 0x5265636569707420646F6573206E6F742065786973742E000000000000000000 PUSH0 DUP3 ADD MSTORE POP JUMP JUMPDEST PUSH0 PUSH2 0xF1E PUSH1 0x17 DUP4 PUSH2 0x8C0 JUMP JUMPDEST SWAP2 POP PUSH2 0xF29 DUP3 PUSH2 0xEEA JUMP JUMPDEST PUSH1 0x20 DUP3 ADD SWAP1 POP SWAP2 SWAP1 POP JUMP JUMPDEST PUSH0 PUSH1 0x20 DUP3 ADD SWAP1 POP DUP2 DUP2 SUB PUSH0 DUP4 ADD MSTORE PUSH2 0xF4B DUP2 PUSH2 0xF12 JUMP JUMPDEST SWAP1 POP SWAP2 SWAP1 POP JUMP JUMPDEST PUSH32 0x4E487B7100000000000000000000000000000000000000000000000000000000 PUSH0 MSTORE PUSH1 0x32 PUSH1 0x4 MSTORE PUSH1 0x24 PUSH0 REVERT JUMPDEST PUSH0 PUSH1 0xA0 DUP3 ADD SWAP1 POP PUSH2 0xF92 PUSH0 DUP4 ADD DUP9 PUSH2 0x839 JUMP JUMPDEST PUSH2 0xF9F PUSH1 0x20 DUP4 ADD DUP8 PUSH2 0x839 JUMP JUMPDEST PUSH2 0xFAC PUSH1 0x40 DUP4 ADD DUP7 PUSH2 0x839 JUMP JUMPDEST PUSH2 0xFB9 PUSH1 0x60 DUP4 ADD DUP6 PUSH2 0x839 JUMP JUMPDEST PUSH2 0xFC6 PUSH1 0x80 DUP4 ADD DUP5 PUSH2 0x839 JUMP JUMPDEST SWAP7 SWAP6 POP POP POP POP POP POP JUMP JUMPDEST PUSH0 DUP2 SWAP1 POP DUP2 PUSH0 MSTORE PUSH1 0x20 PUSH0 KECCAK256 SWAP1 POP SWAP2 SWAP1 POP JUMP JUMPDEST PUSH0 PUSH1 0x20 PUSH1 0x1F DUP4 ADD DIV SWAP1 POP SWAP2 SWAP1 POP JUMP JUMPDEST PUSH0 DUP3 DUP3 SHL SWAP1 POP SWAP3 SWAP2 POP POP JUMP JUMPDEST PUSH0 PUSH1 0x8 DUP4 MUL PUSH2 0x102C PUSH32 0xFFFFFFFFFFFFFFFFFFFFFFFFFFFFFFFFFFFFFFFFFFFFFFFFFFFFFFFFFFFFFFFF DUP3 PUSH2 0xFF1 JUMP JUMPDEST PUSH2 0x1036 DUP7 DUP4 PUSH2 0xFF1 JUMP JUMPDEST SWAP6 POP DUP1 NOT DUP5 AND SWAP4 POP DUP1 DUP7 AND DUP5 OR SWAP3 POP POP POP SWAP4 SWAP3 POP POP POP JUMP JUMPDEST PUSH0 DUP2 SWAP1 POP SWAP2 SWAP1 POP JUMP JUMPDEST PUSH0 PUSH2 0x1071 PUSH2 0x106C PUSH2 0x1067 DUP5 PUSH2 0x7B6 JUMP JUMPDEST PUSH2 0x104E JUMP JUMPDEST PUSH2 0x7B6 JUMP JUMPDEST SWAP1 POP SWAP2 SWAP1 POP JUMP JUMPDEST PUSH0 DUP2 SWAP1 POP SWAP2 SWAP1 POP JUMP JUMPDEST PUSH2 0x108A DUP4 PUSH2 0x1057 JUMP JUMPDEST PUSH2 0x109E PUSH2 0x1096 DUP3 PUSH2 0x1078 JUMP JUMPDEST DUP5 DUP5 SLOAD PUSH2 0xFFD JUMP JUMPDEST DUP3 SSTORE POP POP POP POP JUMP JUMPDEST PUSH0 SWAP1 JUMP JUMPDEST PUSH2 0x10B2 PUSH2 0x10A6 JUMP JUMPDEST PUSH2 0x10BD DUP2 DUP5 DUP5 PUSH2 0x1081 JUMP JUMPDEST POP POP POP JUMP JUMPDEST JUMPDEST DUP2 DUP2 LT ISZERO PUSH2 0x10E0 JUMPI PUSH2 0x10D5 PUSH0 DUP3 PUSH2 0x10AA JUMP JUMPDEST PUSH1 0x1 DUP2 ADD SWAP1 POP PUSH2 0x10C3 JUMP JUMPDEST POP POP JUMP JUMPDEST PUSH1 0x1F DUP3 GT ISZERO PUSH2 0x1125 JUMPI PUSH2 0x10F6 DUP2 PUSH2 0xFD0 JUMP JUMPDEST PUSH2 0x10FF DUP5 PUSH2 0xFE2 JUMP JUMPDEST DUP2 ADD PUSH1 0x20 DUP6 LT ISZERO PUSH2 0x110E JUMPI DUP2 SWAP1 POP JUMPDEST PUSH2 0x1122 PUSH2 0x111A DUP6 PUSH2 0xFE2 JUMP JUMPDEST DUP4 ADD DUP3 PUSH2 0x10C2 JUMP JUMPDEST POP POP JUMPDEST POP POP POP JUMP JUMPDEST PUSH0 DUP3 DUP3 SHR SWAP1 POP SWAP3 SWAP2 POP POP JUMP JUMPDEST PUSH0 PUSH2 0x1145 PUSH0 NOT DUP5 PUSH1 0x8 MUL PUSH2 0x112A JUMP JUMPDEST NOT DUP1 DUP4 AND SWAP2 POP POP SWAP3 SWAP2 POP POP JUMP JUMPDEST PUSH0 PUSH2 0x115D DUP4 DUP4 PUSH2 0x1136 JUMP JUMPDEST SWAP2 POP DUP3 PUSH1 0x2 MUL DUP3 OR SWAP1 POP SWAP3 SWAP2 POP POP JUMP JUMPDEST PUSH2 0x1176 DUP3 PUSH2 0x8B6 JUMP JUMPDEST PUSH8 0xFFFFFFFFFFFFFFFF DUP2 GT ISZERO PUSH2 0x118F JUMPI PUSH2 0x118E PUSH2 0xC77 JUMP JUMPDEST JUMPDEST PUSH2 0x1199 DUP3 SLOAD PUSH2 0xEBA JUMP JUMPDEST PUSH2 0x11A4 DUP3 DUP3 DUP6 PUSH2 0x10E4 JUMP JUMPDEST PUSH0 PUSH1 0x20 SWAP1 POP PUSH1 0x1F DUP4 GT PUSH1 0x1 DUP2 EQ PUSH2 0x11D5 JUMPI PUSH0 DUP5 ISZERO PUSH2 0x11C3 JUMPI DUP3 DUP8 ADD MLOAD SWAP1 POP JUMPDEST PUSH2 0x11CD DUP6 DUP3 PUSH2 0x1152 JUMP JUMPDEST DUP7 SSTORE POP PUSH2 0x1234 JUMP JUMPDEST PUSH1 0x1F NOT DUP5 AND PUSH2 0x11E3 DUP7 PUSH2 0xFD0 JUMP JUMPDEST PUSH0 JUMPDEST DUP3 DUP2 LT ISZERO PUSH2 0x120A JUMPI DUP5 DUP10 ADD MLOAD DUP3 SSTORE PUSH1 0x1 DUP3 ADD SWAP2 POP PUSH1 0x20 DUP6 ADD SWAP5 POP PUSH1 0x20 DUP2 ADD SWAP1 POP PUSH2 0x11E5 JUMP JUMPDEST DUP7 DUP4 LT ISZERO PUSH2 0x1227 JUMPI DUP5 DUP10 ADD MLOAD PUSH2 0x1223 PUSH1 0x1F DUP10 AND DUP3 PUSH2 0x1136 JUMP JUMPDEST DUP4 SSTORE POP JUMPDEST PUSH1 0x1 PUSH1 0x2 DUP9 MUL ADD DUP9 SSTORE POP POP POP JUMPDEST POP POP POP POP POP POP JUMP JUMPDEST PUSH32 0x4E487B7100000000000000000000000000000000000000000000000000000000 PUSH0 MSTORE PUSH1 0x11 PUSH1 0x4 MSTORE PUSH1 0x24 PUSH0 REVERT JUMPDEST PUSH0 PUSH2 0x1273 DUP3 PUSH2 0x7B6 JUMP JUMPDEST SWAP2 POP PUSH2 0x127E DUP4 PUSH2 0x7B6 JUMP JUMPDEST SWAP3 POP DUP3 DUP3 SUB SWAP1 POP DUP2 DUP2 GT ISZERO PUSH2 0x1296 JUMPI PUSH2 0x1295 PUSH2 0x123C JUMP JUMPDEST JUMPDEST SWAP3 SWAP2 POP POP JUMP INVALID LOG2 PUSH5 0x6970667358 0x22 SLT KECCAK256 GAS 0xD4 0xC0 0xC3 DUP12 SWAP11 SWAP5 GAS 0xF6 0x2F 0xF7 SELFBALANCE MOD CALLDATALOAD 0x2C 0xA6 0xE0 0xD2 0xB6 PREVRANDAO CODESIZE 0xAF LOG1 0xFC 0xC7 0x4B LOG0 0xBE TLOAD 0xE0 0xAD DUP3 PUSH5 0x736F6C6343 STOP ADDMOD NOT STOP CALLER "
	},
	"Assembly": ".code\n  PUSH 80\t\t\tcontract WalkWalk {\\r\\n    str...\n  PUSH 40\t\t\tcontract WalkWalk {\\r\\n    str...\n  MSTORE \t\t\tcontract WalkWalk {\\r\\n    str...\n  CALLVALUE \t\t\tcontract WalkWalk {\\r\\n    str...\n  DUP1 \t\t\tcontract WalkWalk {\\r\\n    str...\n  ISZERO \t\t\tcontract WalkWalk {\\r\\n    str...\n  PUSH [tag] 1\t\t\tcontract WalkWalk {\\r\\n    str...\n  JUMPI \t\t\tcontract WalkWalk {\\r\\n    str...\n  PUSH 0\t\t\tcontract WalkWalk {\\r\\n    str...\n  DUP1 \t\t\tcontract WalkWalk {\\r\\n    str...\n  REVERT \t\t\tcontract WalkWalk {\\r\\n    str...\ntag 1\t\t\tcontract WalkWalk {\\r\\n    str...\n  JUMPDEST \t\t\tcontract WalkWalk {\\r\\n    str...\n  POP \t\t\tcontract WalkWalk {\\r\\n    str...\n  PUSH #[$] 0000000000000000000000000000000000000000000000000000000000000000\t\t\tcontract WalkWalk {\\r\\n    str...\n  DUP1 \t\t\tcontract WalkWalk {\\r\\n    str...\n  PUSH [$] 0000000000000000000000000000000000000000000000000000000000000000\t\t\tcontract WalkWalk {\\r\\n    str...\n  PUSH 0\t\t\tcontract WalkWalk {\\r\\n    str...\n  CODECOPY \t\t\tcontract WalkWalk {\\r\\n    str...\n  PUSH 0\t\t\tcontract WalkWalk {\\r\\n    str...\n  RETURN \t\t\tcontract WalkWalk {\\r\\n    str...\n.data\n  0:\n    .code\n      PUSH 80\t\t\tcontract WalkWalk {\\r\\n    str...\n      PUSH 40\t\t\tcontract WalkWalk {\\r\\n    str...\n      MSTORE \t\t\tcontract WalkWalk {\\r\\n    str...\n      CALLVALUE \t\t\tcontract WalkWalk {\\r\\n    str...\n      DUP1 \t\t\tcontract WalkWalk {\\r\\n    str...\n      ISZERO \t\t\tcontract WalkWalk {\\r\\n    str...\n      PUSH [tag] 1\t\t\tcontract WalkWalk {\\r\\n    str...\n      JUMPI \t\t\tcontract WalkWalk {\\r\\n    str...\n      PUSH 0\t\t\tcontract WalkWalk {\\r\\n    str...\n      DUP1 \t\t\tcontract WalkWalk {\\r\\n    str...\n      REVERT \t\t\tcontract WalkWalk {\\r\\n    str...\n    tag 1\t\t\tcontract WalkWalk {\\r\\n    str...\n      JUMPDEST \t\t\tcontract WalkWalk {\\r\\n    str...\n      POP \t\t\tcontract WalkWalk {\\r\\n    str...\n      PUSH 4\t\t\tcontract WalkWalk {\\r\\n    str...\n      CALLDATASIZE \t\t\tcontract WalkWalk {\\r\\n    str...\n      LT \t\t\tcontract WalkWalk {\\r\\n    str...\n      PUSH [tag] 2\t\t\tcontract WalkWalk {\\r\\n    str...\n      JUMPI \t\t\tcontract WalkWalk {\\r\\n    str...\n      PUSH 0\t\t\tcontract WalkWalk {\\r\\n    str...\n      CALLDATALOAD \t\t\tcontract WalkWalk {\\r\\n    str...\n      PUSH E0\t\t\tcontract WalkWalk {\\r\\n    str...\n      SHR \t\t\tcontract WalkWalk {\\r\\n    str...\n      DUP1 \t\t\tcontract WalkWalk {\\r\\n    str...\n      PUSH 69EFA7C\t\t\tcontract WalkWalk {\\r\\n    str...\n      EQ \t\t\tcontract WalkWalk {\\r\\n    str...\n      PUSH [tag] 3\t\t\tcontract WalkWalk {\\r\\n    str...\n      JUMPI \t\t\tcontract WalkWalk {\\r\\n    str...\n      DUP1 \t\t\tcontract WalkWalk {\\r\\n    str...\n      PUSH F7EE1EC\t\t\tcontract WalkWalk {\\r\\n    str...\n      EQ \t\t\tcontract WalkWalk {\\r\\n    str...\n      PUSH [tag] 4\t\t\tcontract WalkWalk {\\r\\n    str...\n      JUMPI \t\t\tcontract WalkWalk {\\r\\n    str...\n      DUP1 \t\t\tcontract WalkWalk {\\r\\n    str...\n      PUSH 8CC5ED93\t\t\tcontract WalkWalk {\\r\\n    str...\n      EQ \t\t\tcontract WalkWalk {\\r\\n    str...\n      PUSH [tag] 5\t\t\tcontract WalkWalk {\\r\\n    str...\n      JUMPI \t\t\tcontract WalkWalk {\\r\\n    str...\n      DUP1 \t\t\tcontract WalkWalk {\\r\\n    str...\n      PUSH B63E6AC3\t\t\tcontract WalkWalk {\\r\\n    str...\n      EQ \t\t\tcontract WalkWalk {\\r\\n    str...\n      PUSH [tag] 6\t\t\tcontract WalkWalk {\\r\\n    str...\n      JUMPI \t\t\tcontract WalkWalk {\\r\\n    str...\n      DUP1 \t\t\tcontract WalkWalk {\\r\\n    str...\n      PUSH D3E37745\t\t\tcontract WalkWalk {\\r\\n    str...\n      EQ \t\t\tcontract WalkWalk {\\r\\n    str...\n      PUSH [tag] 7\t\t\tcontract WalkWalk {\\r\\n    str...\n      JUMPI \t\t\tcontract WalkWalk {\\r\\n    str...\n      DUP1 \t\t\tcontract WalkWalk {\\r\\n    str...\n      PUSH E8104C6A\t\t\tcontract WalkWalk {\\r\\n    str...\n      EQ \t\t\tcontract WalkWalk {\\r\\n    str...\n      PUSH [tag] 8\t\t\tcontract WalkWalk {\\r\\n    str...\n      JUMPI \t\t\tcontract WalkWalk {\\r\\n    str...\n    tag 2\t\t\tcontract WalkWalk {\\r\\n    str...\n      JUMPDEST \t\t\tcontract WalkWalk {\\r\\n    str...\n      PUSH 0\t\t\tcontract WalkWalk {\\r\\n    str...\n      DUP1 \t\t\tcontract WalkWalk {\\r\\n    str...\n      REVERT \t\t\tcontract WalkWalk {\\r\\n    str...\n    tag 3\t\t\t)) public exerciseRecordsByTim...\n      JUMPDEST \t\t\t)) public exerciseRecordsByTim...\n      PUSH [tag] 9\t\t\t)) public exerciseRecordsByTim...\n      PUSH 4\t\t\t)) public exerciseRecordsByTim...\n      DUP1 \t\t\t)) public exerciseRecordsByTim...\n      CALLDATASIZE \t\t\t)) public exerciseRecordsByTim...\n      SUB \t\t\t)) public exerciseRecordsByTim...\n      DUP2 \t\t\t)) public exerciseRecordsByTim...\n      ADD \t\t\t)) public exerciseRecordsByTim...\n      SWAP1 \t\t\t)) public exerciseRecordsByTim...\n      PUSH [tag] 10\t\t\t)) public exerciseRecordsByTim...\n      SWAP2 \t\t\t)) public exerciseRecordsByTim...\n      SWAP1 \t\t\t)) public exerciseRecordsByTim...\n      PUSH [tag] 11\t\t\t)) public exerciseRecordsByTim...\n      JUMP \t\t\t)) public exerciseRecordsByTim...\n    tag 10\t\t\t)) public exerciseRecordsByTim...\n      JUMPDEST \t\t\t)) public exerciseRecordsByTim...\n      PUSH [tag] 12\t\t\t)) public exerciseRecordsByTim...\n      JUMP \t\t\t)) public exerciseRecordsByTim...\n    tag 9\t\t\t)) public exerciseRecordsByTim...\n      JUMPDEST \t\t\t)) public exerciseRecordsByTim...\n      PUSH 40\t\t\t)) public exerciseRecordsByTim...\n      MLOAD \t\t\t)) public exerciseRecordsByTim...\n      PUSH [tag] 13\t\t\t)) public exerciseRecordsByTim...\n      SWAP5 \t\t\t)) public exerciseRecordsByTim...\n      SWAP4 \t\t\t)) public exerciseRecordsByTim...\n      SWAP3 \t\t\t)) public exerciseRecordsByTim...\n      SWAP2 \t\t\t)) public exerciseRecordsByTim...\n      SWAP1 \t\t\t)) public exerciseRecordsByTim...\n      PUSH [tag] 14\t\t\t)) public exerciseRecordsByTim...\n      JUMP \t\t\t)) public exerciseRecordsByTim...\n    tag 13\t\t\t)) public exerciseRecordsByTim...\n      JUMPDEST \t\t\t)) public exerciseRecordsByTim...\n      PUSH 40\t\t\t)) public exerciseRecordsByTim...\n      MLOAD \t\t\t)) public exerciseRecordsByTim...\n      DUP1 \t\t\t)) public exerciseRecordsByTim...\n      SWAP2 \t\t\t)) public exerciseRecordsByTim...\n      SUB \t\t\t)) public exerciseRecordsByTim...\n      SWAP1 \t\t\t)) public exerciseRecordsByTim...\n      RETURN \t\t\t)) public exerciseRecordsByTim...\n    tag 4\t\t\txed receiptId, string wal\n      JUMPDEST \t\t\txed receiptId, string wal\n      PUSH [tag] 15\t\t\txed receiptId, string wal\n      PUSH 4\t\t\txed receiptId, string wal\n      DUP1 \t\t\txed receiptId, string wal\n      CALLDATASIZE \t\t\txed receiptId, string wal\n      SUB \t\t\txed receiptId, string wal\n      DUP2 \t\t\txed receiptId, string wal\n      ADD \t\t\txed receiptId, string wal\n      SWAP1 \t\t\txed receiptId, string wal\n      PUSH [tag] 16\t\t\txed receiptId, string wal\n      SWAP2 \t\t\txed receiptId, string wal\n      SWAP1 \t\t\txed receiptId, string wal\n      PUSH [tag] 17\t\t\txed receiptId, string wal\n      JUMP \t\t\txed receiptId, string wal\n    tag 16\t\t\txed receiptId, string wal\n      JUMPDEST \t\t\txed receiptId, string wal\n      PUSH [tag] 18\t\t\txed receiptId, string wal\n      JUMP \t\t\txed receiptId, string wal\n    tag 15\t\t\txed receiptId, string wal\n      JUMPDEST \t\t\txed receiptId, string wal\n      PUSH 40\t\t\txed receiptId, string wal\n      MLOAD \t\t\txed receiptId, string wal\n      PUSH [tag] 19\t\t\txed receiptId, string wal\n      SWAP6 \t\t\txed receiptId, string wal\n      SWAP5 \t\t\txed receiptId, string wal\n      SWAP4 \t\t\txed receiptId, string wal\n      SWAP3 \t\t\txed receiptId, string wal\n      SWAP2 \t\t\txed receiptId, string wal\n      SWAP1 \t\t\txed receiptId, string wal\n      PUSH [tag] 20\t\t\txed receiptId, string wal\n      JUMP \t\t\txed receiptId, string wal\n    tag 19\t\t\txed receiptId, string wal\n      JUMPDEST \t\t\txed receiptId, string wal\n      PUSH 40\t\t\txed receiptId, string wal\n      MLOAD \t\t\txed receiptId, string wal\n      DUP1 \t\t\txed receiptId, string wal\n      SWAP2 \t\t\txed receiptId, string wal\n      SUB \t\t\txed receiptId, string wal\n      SWAP1 \t\t\txed receiptId, string wal\n      RETURN \t\t\txed receiptId, string wal\n    tag 5\t\t\tType, bool _operator, uint _pr...\n      JUMPDEST \t\t\tType, bool _operator, uint _pr...\n      PUSH [tag] 21\t\t\tType, bool _operator, uint _pr...\n      PUSH 4\t\t\tType, bool _operator, uint _pr...\n      DUP1 \t\t\tType, bool _operator, uint _pr...\n      CALLDATASIZE \t\t\tType, bool _operator, uint _pr...\n      SUB \t\t\tType, bool _operator, uint _pr...\n      DUP2 \t\t\tType, bool _operator, uint _pr...\n      ADD \t\t\tType, bool _operator, uint _pr...\n      SWAP1 \t\t\tType, bool _operator, uint _pr...\n      PUSH [tag] 22\t\t\tType, bool _operator, uint _pr...\n      SWAP2 \t\t\tType, bool _operator, uint _pr...\n      SWAP1 \t\t\tType, bool _operator, uint _pr...\n      PUSH [tag] 23\t\t\tType, bool _operator, uint _pr...\n      JUMP \t\t\tType, bool _operator, uint _pr...\n    tag 22\t\t\tType, bool _operator, uint _pr...\n      JUMPDEST \t\t\tType, bool _operator, uint _pr...\n      PUSH [tag] 24\t\t\tType, bool _operator, uint _pr...\n      JUMP \t\t\tType, bool _operator, uint _pr...\n    tag 21\t\t\tType, bool _operator, uint _pr...\n      JUMPDEST \t\t\tType, bool _operator, uint _pr...\n      PUSH 40\t\t\tType, bool _operator, uint _pr...\n      MLOAD \t\t\tType, bool _operator, uint _pr...\n      PUSH [tag] 25\t\t\tType, bool _operator, uint _pr...\n      SWAP2 \t\t\tType, bool _operator, uint _pr...\n      SWAP1 \t\t\tType, bool _operator, uint _pr...\n      PUSH [tag] 26\t\t\tType, bool _operator, uint _pr...\n      JUMP \t\t\tType, bool _operator, uint _pr...\n    tag 25\t\t\tType, bool _operator, uint _pr...\n      JUMPDEST \t\t\tType, bool _operator, uint _pr...\n      PUSH 40\t\t\tType, bool _operator, uint _pr...\n      MLOAD \t\t\tType, bool _operator, uint _pr...\n      DUP1 \t\t\tType, bool _operator, uint _pr...\n      SWAP2 \t\t\tType, bool _operator, uint _pr...\n      SUB \t\t\tType, bool _operator, uint _pr...\n      SWAP1 \t\t\tType, bool _operator, uint _pr...\n      RETURN \t\t\tType, bool _operator, uint _pr...\n    tag 6\t\t\t\n      JUMPDEST \t\t\t\n      PUSH [tag] 27\t\t\t\n      PUSH 4\t\t\t\n      DUP1 \t\t\t\n      CALLDATASIZE \t\t\t\n      SUB \t\t\t\n      DUP2 \t\t\t\n      ADD \t\t\t\n      SWAP1 \t\t\t\n      PUSH [tag] 28\t\t\t\n      SWAP2 \t\t\t\n      SWAP1 \t\t\t\n      PUSH [tag] 17\t\t\t\n      JUMP \t\t\t\n    tag 28\t\t\t\n      JUMPDEST \t\t\t\n      PUSH [tag] 29\t\t\t\n      JUMP \t\t\t\n    tag 27\t\t\t\n      JUMPDEST \t\t\t\n      PUSH 40\t\t\t\n      MLOAD \t\t\t\n      PUSH [tag] 30\t\t\t\n      SWAP2 \t\t\t\n      SWAP1 \t\t\t\n      PUSH [tag] 31\t\t\t\n      JUMP \t\t\t\n    tag 30\t\t\t\n      JUMPDEST \t\t\t\n      PUSH 40\t\t\t\n      MLOAD \t\t\t\n      DUP1 \t\t\t\n      SWAP2 \t\t\t\n      SUB \t\t\t\n      SWAP1 \t\t\t\n      RETURN \t\t\t\n    tag 7\t\t\t        exerciseRecordsByTimes...\n      JUMPDEST \t\t\t        exerciseRecordsByTimes...\n      PUSH [tag] 32\t\t\t        exerciseRecordsByTimes...\n      PUSH 4\t\t\t        exerciseRecordsByTimes...\n      DUP1 \t\t\t        exerciseRecordsByTimes...\n      CALLDATASIZE \t\t\t        exerciseRecordsByTimes...\n      SUB \t\t\t        exerciseRecordsByTimes...\n      DUP2 \t\t\t        exerciseRecordsByTimes...\n      ADD \t\t\t        exerciseRecordsByTimes...\n      SWAP1 \t\t\t        exerciseRecordsByTimes...\n      PUSH [tag] 33\t\t\t        exerciseRecordsByTimes...\n      SWAP2 \t\t\t        exerciseRecordsByTimes...\n      SWAP1 \t\t\t        exerciseRecordsByTimes...\n      PUSH [tag] 34\t\t\t        exerciseRecordsByTimes...\n      JUMP \t\t\t        exerciseRecordsByTimes...\n    tag 33\t\t\t        exerciseRecordsByTimes...\n      JUMPDEST \t\t\t        exerciseRecordsByTimes...\n      PUSH [tag] 35\t\t\t        exerciseRecordsByTimes...\n      JUMP \t\t\t        exerciseRecordsByTimes...\n    tag 32\t\t\t        exerciseRecordsByTimes...\n      JUMPDEST \t\t\t        exerciseRecordsByTimes...\n      STOP \t\t\t        exerciseRecordsByTimes...\n    tag 8\t\t\t      \\r\\n        // 이벤트 발생\\r\\...\n      JUMPDEST \t\t\t      \\r\\n        // 이벤트 발생\\r\\...\n      PUSH [tag] 36\t\t\t      \\r\\n        // 이벤트 발생\\r\\...\n      PUSH 4\t\t\t      \\r\\n        // 이벤트 발생\\r\\...\n      DUP1 \t\t\t      \\r\\n        // 이벤트 발생\\r\\...\n      CALLDATASIZE \t\t\t      \\r\\n        // 이벤트 발생\\r\\...\n      SUB \t\t\t      \\r\\n        // 이벤트 발생\\r\\...\n      DUP2 \t\t\t      \\r\\n        // 이벤트 발생\\r\\...\n      ADD \t\t\t      \\r\\n        // 이벤트 발생\\r\\...\n      SWAP1 \t\t\t      \\r\\n        // 이벤트 발생\\r\\...\n      PUSH [tag] 37\t\t\t      \\r\\n        // 이벤트 발생\\r\\...\n      SWAP2 \t\t\t      \\r\\n        // 이벤트 발생\\r\\...\n      SWAP1 \t\t\t      \\r\\n        // 이벤트 발생\\r\\...\n      PUSH [tag] 38\t\t\t      \\r\\n        // 이벤트 발생\\r\\...\n      JUMP \t\t\t      \\r\\n        // 이벤트 발생\\r\\...\n    tag 37\t\t\t      \\r\\n        // 이벤트 발생\\r\\...\n      JUMPDEST \t\t\t      \\r\\n        // 이벤트 발생\\r\\...\n      PUSH [tag] 39\t\t\t      \\r\\n        // 이벤트 발생\\r\\...\n      JUMP \t\t\t      \\r\\n        // 이벤트 발생\\r\\...\n    tag 36\t\t\t      \\r\\n        // 이벤트 발생\\r\\...\n      JUMPDEST \t\t\t      \\r\\n        // 이벤트 발생\\r\\...\n      PUSH 40\t\t\t      \\r\\n        // 이벤트 발생\\r\\...\n      MLOAD \t\t\t      \\r\\n        // 이벤트 발생\\r\\...\n      PUSH [tag] 40\t\t\t      \\r\\n        // 이벤트 발생\\r\\...\n      SWAP2 \t\t\t      \\r\\n        // 이벤트 발생\\r\\...\n      SWAP1 \t\t\t      \\r\\n        // 이벤트 발생\\r\\...\n      PUSH [tag] 41\t\t\t      \\r\\n        // 이벤트 발생\\r\\...\n      JUMP \t\t\t      \\r\\n        // 이벤트 발생\\r\\...\n    tag 40\t\t\t      \\r\\n        // 이벤트 발생\\r\\...\n      JUMPDEST \t\t\t      \\r\\n        // 이벤트 발생\\r\\...\n      PUSH 40\t\t\t      \\r\\n        // 이벤트 발생\\r\\...\n      MLOAD \t\t\t      \\r\\n        // 이벤트 발생\\r\\...\n      DUP1 \t\t\t      \\r\\n        // 이벤트 발생\\r\\...\n      SWAP2 \t\t\t      \\r\\n        // 이벤트 발생\\r\\...\n      SUB \t\t\t      \\r\\n        // 이벤트 발생\\r\\...\n      SWAP1 \t\t\t      \\r\\n        // 이벤트 발생\\r\\...\n      RETURN \t\t\t      \\r\\n        // 이벤트 발생\\r\\...\n    tag 12\t\t\t)) public exerciseRecordsByTim...\n      JUMPDEST \t\t\t)) public exerciseRecordsByTim...\n      PUSH 0\t\t\t)) public exerciseRecordsByTim...\n      PUSH 20\t\t\t)) public exerciseRecordsByTim...\n      MSTORE \t\t\t)) public exerciseRecordsByTim...\n      DUP3 \t\t\t)) public exerciseRecordsByTim...\n      PUSH 0\t\t\t)) public exerciseRecordsByTim...\n      MSTORE \t\t\t)) public exerciseRecordsByTim...\n      PUSH 40\t\t\t)) public exerciseRecordsByTim...\n      PUSH 0\t\t\t)) public exerciseRecordsByTim...\n      KECCAK256 \t\t\t)) public exerciseRecordsByTim...\n      PUSH 20\t\t\t)) public exerciseRecordsByTim...\n      MSTORE \t\t\t)) public exerciseRecordsByTim...\n      DUP2 \t\t\t)) public exerciseRecordsByTim...\n      PUSH 0\t\t\t)) public exerciseRecordsByTim...\n      MSTORE \t\t\t)) public exerciseRecordsByTim...\n      PUSH 40\t\t\t)) public exerciseRecordsByTim...\n      PUSH 0\t\t\t)) public exerciseRecordsByTim...\n      KECCAK256 \t\t\t)) public exerciseRecordsByTim...\n      DUP2 \t\t\t)) public exerciseRecordsByTim...\n      DUP2 \t\t\t)) public exerciseRecordsByTim...\n      SLOAD \t\t\t)) public exerciseRecordsByTim...\n      DUP2 \t\t\t)) public exerciseRecordsByTim...\n      LT \t\t\t)) public exerciseRecordsByTim...\n      PUSH [tag] 42\t\t\t)) public exerciseRecordsByTim...\n      JUMPI \t\t\t)) public exerciseRecordsByTim...\n      PUSH 0\t\t\t)) public exerciseRecordsByTim...\n      DUP1 \t\t\t)) public exerciseRecordsByTim...\n      REVERT \t\t\t)) public exerciseRecordsByTim...\n    tag 42\t\t\t)) public exerciseRecordsByTim...\n      JUMPDEST \t\t\t)) public exerciseRecordsByTim...\n      SWAP1 \t\t\t)) public exerciseRecordsByTim...\n      PUSH 0\t\t\t)) public exerciseRecordsByTim...\n      MSTORE \t\t\t)) public exerciseRecordsByTim...\n      PUSH 20\t\t\t)) public exerciseRecordsByTim...\n      PUSH 0\t\t\t)) public exerciseRecordsByTim...\n      KECCAK256 \t\t\t)) public exerciseRecordsByTim...\n      SWAP1 \t\t\t)) public exerciseRecordsByTim...\n      PUSH 4\t\t\t)) public exerciseRecordsByTim...\n      MUL \t\t\t)) public exerciseRecordsByTim...\n      ADD \t\t\t)) public exerciseRecordsByTim...\n      PUSH 0\t\t\t)) public exerciseRecordsByTim...\n      SWAP3 \t\t\t)) public exerciseRecordsByTim...\n      POP \t\t\t)) public exerciseRecordsByTim...\n      SWAP3 \t\t\t)) public exerciseRecordsByTim...\n      POP \t\t\t)) public exerciseRecordsByTim...\n      POP \t\t\t)) public exerciseRecordsByTim...\n      POP \t\t\t)) public exerciseRecordsByTim...\n      DUP1 \t\t\t)) public exerciseRecordsByTim...\n      PUSH 0\t\t\t)) public exerciseRecordsByTim...\n      ADD \t\t\t)) public exerciseRecordsByTim...\n      SLOAD \t\t\t)) public exerciseRecordsByTim...\n      SWAP1 \t\t\t)) public exerciseRecordsByTim...\n      DUP1 \t\t\t)) public exerciseRecordsByTim...\n      PUSH 1\t\t\t)) public exerciseRecordsByTim...\n      ADD \t\t\t)) public exerciseRecordsByTim...\n      SLOAD \t\t\t)) public exerciseRecordsByTim...\n      SWAP1 \t\t\t)) public exerciseRecordsByTim...\n      DUP1 \t\t\t)) public exerciseRecordsByTim...\n      PUSH 2\t\t\t)) public exerciseRecordsByTim...\n      ADD \t\t\t)) public exerciseRecordsByTim...\n      SLOAD \t\t\t)) public exerciseRecordsByTim...\n      SWAP1 \t\t\t)) public exerciseRecordsByTim...\n      DUP1 \t\t\t)) public exerciseRecordsByTim...\n      PUSH 3\t\t\t)) public exerciseRecordsByTim...\n      ADD \t\t\t)) public exerciseRecordsByTim...\n      SLOAD \t\t\t)) public exerciseRecordsByTim...\n      SWAP1 \t\t\t)) public exerciseRecordsByTim...\n      POP \t\t\t)) public exerciseRecordsByTim...\n      DUP5 \t\t\t)) public exerciseRecordsByTim...\n      JUMP \t\t\t)) public exerciseRecordsByTim...\n    tag 18\t\t\txed receiptId, string wal\n      JUMPDEST \t\t\txed receiptId, string wal\n      PUSH 1\t\t\txed receiptId, string wal\n      DUP2 \t\t\txed receiptId, string wal\n      DUP2 \t\t\txed receiptId, string wal\n      SLOAD \t\t\txed receiptId, string wal\n      DUP2 \t\t\txed receiptId, string wal\n      LT \t\t\txed receiptId, string wal\n      PUSH [tag] 44\t\t\txed receiptId, string wal\n      JUMPI \t\t\txed receiptId, string wal\n      PUSH 0\t\t\txed receiptId, string wal\n      DUP1 \t\t\txed receiptId, string wal\n      REVERT \t\t\txed receiptId, string wal\n    tag 44\t\t\txed receiptId, string wal\n      JUMPDEST \t\t\txed receiptId, string wal\n      SWAP1 \t\t\txed receiptId, string wal\n      PUSH 0\t\t\txed receiptId, string wal\n      MSTORE \t\t\txed receiptId, string wal\n      PUSH 20\t\t\txed receiptId, string wal\n      PUSH 0\t\t\txed receiptId, string wal\n      KECCAK256 \t\t\txed receiptId, string wal\n      SWAP1 \t\t\txed receiptId, string wal\n      PUSH 5\t\t\txed receiptId, string wal\n      MUL \t\t\txed receiptId, string wal\n      ADD \t\t\txed receiptId, string wal\n      PUSH 0\t\t\txed receiptId, string wal\n      SWAP2 \t\t\txed receiptId, string wal\n      POP \t\t\txed receiptId, string wal\n      SWAP1 \t\t\txed receiptId, string wal\n      POP \t\t\txed receiptId, string wal\n      DUP1 \t\t\txed receiptId, string wal\n      PUSH 0\t\t\txed receiptId, string wal\n      ADD \t\t\txed receiptId, string wal\n      DUP1 \t\t\txed receiptId, string wal\n      SLOAD \t\t\txed receiptId, string wal\n      PUSH [tag] 46\t\t\txed receiptId, string wal\n      SWAP1 \t\t\txed receiptId, string wal\n      PUSH [tag] 47\t\t\txed receiptId, string wal\n      JUMP \t\t\txed receiptId, string wal\n    tag 46\t\t\txed receiptId, string wal\n      JUMPDEST \t\t\txed receiptId, string wal\n      DUP1 \t\t\txed receiptId, string wal\n      PUSH 1F\t\t\txed receiptId, string wal\n      ADD \t\t\txed receiptId, string wal\n      PUSH 20\t\t\txed receiptId, string wal\n      DUP1 \t\t\txed receiptId, string wal\n      SWAP2 \t\t\txed receiptId, string wal\n      DIV \t\t\txed receiptId, string wal\n      MUL \t\t\txed receiptId, string wal\n      PUSH 20\t\t\txed receiptId, string wal\n      ADD \t\t\txed receiptId, string wal\n      PUSH 40\t\t\txed receiptId, string wal\n      MLOAD \t\t\txed receiptId, string wal\n      SWAP1 \t\t\txed receiptId, string wal\n      DUP2 \t\t\txed receiptId, string wal\n      ADD \t\t\txed receiptId, string wal\n      PUSH 40\t\t\txed receiptId, string wal\n      MSTORE \t\t\txed receiptId, string wal\n      DUP1 \t\t\txed receiptId, string wal\n      SWAP3 \t\t\txed receiptId, string wal\n      SWAP2 \t\t\txed receiptId, string wal\n      SWAP1 \t\t\txed receiptId, string wal\n      DUP2 \t\t\txed receiptId, string wal\n      DUP2 \t\t\txed receiptId, string wal\n      MSTORE \t\t\txed receiptId, string wal\n      PUSH 20\t\t\txed receiptId, string wal\n      ADD \t\t\txed receiptId, string wal\n      DUP3 \t\t\txed receiptId, string wal\n      DUP1 \t\t\txed receiptId, string wal\n      SLOAD \t\t\txed receiptId, string wal\n      PUSH [tag] 48\t\t\txed receiptId, string wal\n      SWAP1 \t\t\txed receiptId, string wal\n      PUSH [tag] 47\t\t\txed receiptId, string wal\n      JUMP \t\t\txed receiptId, string wal\n    tag 48\t\t\txed receiptId, string wal\n      JUMPDEST \t\t\txed receiptId, string wal\n      DUP1 \t\t\txed receiptId, string wal\n      ISZERO \t\t\txed receiptId, string wal\n      PUSH [tag] 49\t\t\txed receiptId, string wal\n      JUMPI \t\t\txed receiptId, string wal\n      DUP1 \t\t\txed receiptId, string wal\n      PUSH 1F\t\t\txed receiptId, string wal\n      LT \t\t\txed receiptId, string wal\n      PUSH [tag] 50\t\t\txed receiptId, string wal\n      JUMPI \t\t\txed receiptId, string wal\n      PUSH 100\t\t\txed receiptId, string wal\n      DUP1 \t\t\txed receiptId, string wal\n      DUP4 \t\t\txed receiptId, string wal\n      SLOAD \t\t\txed receiptId, string wal\n      DIV \t\t\txed receiptId, string wal\n      MUL \t\t\txed receiptId, string wal\n      DUP4 \t\t\txed receiptId, string wal\n      MSTORE \t\t\txed receiptId, string wal\n      SWAP2 \t\t\txed receiptId, string wal\n      PUSH 20\t\t\txed receiptId, string wal\n      ADD \t\t\txed receiptId, string wal\n      SWAP2 \t\t\txed receiptId, string wal\n      PUSH [tag] 49\t\t\txed receiptId, string wal\n      JUMP \t\t\txed receiptId, string wal\n    tag 50\t\t\txed receiptId, string wal\n      JUMPDEST \t\t\txed receiptId, string wal\n      DUP3 \t\t\txed receiptId, string wal\n      ADD \t\t\txed receiptId, string wal\n      SWAP2 \t\t\txed receiptId, string wal\n      SWAP1 \t\t\txed receiptId, string wal\n      PUSH 0\t\t\txed receiptId, string wal\n      MSTORE \t\t\txed receiptId, string wal\n      PUSH 20\t\t\txed receiptId, string wal\n      PUSH 0\t\t\txed receiptId, string wal\n      KECCAK256 \t\t\txed receiptId, string wal\n      SWAP1 \t\t\txed receiptId, string wal\n    tag 51\t\t\txed receiptId, string wal\n      JUMPDEST \t\t\txed receiptId, string wal\n      DUP2 \t\t\txed receiptId, string wal\n      SLOAD \t\t\txed receiptId, string wal\n      DUP2 \t\t\txed receiptId, string wal\n      MSTORE \t\t\txed receiptId, string wal\n      SWAP1 \t\t\txed receiptId, string wal\n      PUSH 1\t\t\txed receiptId, string wal\n      ADD \t\t\txed receiptId, string wal\n      SWAP1 \t\t\txed receiptId, string wal\n      PUSH 20\t\t\txed receiptId, string wal\n      ADD \t\t\txed receiptId, string wal\n      DUP1 \t\t\txed receiptId, string wal\n      DUP4 \t\t\txed receiptId, string wal\n      GT \t\t\txed receiptId, string wal\n      PUSH [tag] 51\t\t\txed receiptId, string wal\n      JUMPI \t\t\txed receiptId, string wal\n      DUP3 \t\t\txed receiptId, string wal\n      SWAP1 \t\t\txed receiptId, string wal\n      SUB \t\t\txed receiptId, string wal\n      PUSH 1F\t\t\txed receiptId, string wal\n      AND \t\t\txed receiptId, string wal\n      DUP3 \t\t\txed receiptId, string wal\n      ADD \t\t\txed receiptId, string wal\n      SWAP2 \t\t\txed receiptId, string wal\n    tag 49\t\t\txed receiptId, string wal\n      JUMPDEST \t\t\txed receiptId, string wal\n      POP \t\t\txed receiptId, string wal\n      POP \t\t\txed receiptId, string wal\n      POP \t\t\txed receiptId, string wal\n      POP \t\t\txed receiptId, string wal\n      POP \t\t\txed receiptId, string wal\n      SWAP1 \t\t\txed receiptId, string wal\n      DUP1 \t\t\txed receiptId, string wal\n      PUSH 1\t\t\txed receiptId, string wal\n      ADD \t\t\txed receiptId, string wal\n      PUSH 0\t\t\txed receiptId, string wal\n      SWAP1 \t\t\txed receiptId, string wal\n      SLOAD \t\t\txed receiptId, string wal\n      SWAP1 \t\t\txed receiptId, string wal\n      PUSH 100\t\t\txed receiptId, string wal\n      EXP \t\t\txed receiptId, string wal\n      SWAP1 \t\t\txed receiptId, string wal\n      DIV \t\t\txed receiptId, string wal\n      PUSH FF\t\t\txed receiptId, string wal\n      AND \t\t\txed receiptId, string wal\n      SWAP1 \t\t\txed receiptId, string wal\n      DUP1 \t\t\txed receiptId, string wal\n      PUSH 2\t\t\txed receiptId, string wal\n      ADD \t\t\txed receiptId, string wal\n      SLOAD \t\t\txed receiptId, string wal\n      SWAP1 \t\t\txed receiptId, string wal\n      DUP1 \t\t\txed receiptId, string wal\n      PUSH 3\t\t\txed receiptId, string wal\n      ADD \t\t\txed receiptId, string wal\n      DUP1 \t\t\txed receiptId, string wal\n      SLOAD \t\t\txed receiptId, string wal\n      PUSH [tag] 52\t\t\txed receiptId, string wal\n      SWAP1 \t\t\txed receiptId, string wal\n      PUSH [tag] 47\t\t\txed receiptId, string wal\n      JUMP \t\t\txed receiptId, string wal\n    tag 52\t\t\txed receiptId, string wal\n      JUMPDEST \t\t\txed receiptId, string wal\n      DUP1 \t\t\txed receiptId, string wal\n      PUSH 1F\t\t\txed receiptId, string wal\n      ADD \t\t\txed receiptId, string wal\n      PUSH 20\t\t\txed receiptId, string wal\n      DUP1 \t\t\txed receiptId, string wal\n      SWAP2 \t\t\txed receiptId, string wal\n      DIV \t\t\txed receiptId, string wal\n      MUL \t\t\txed receiptId, string wal\n      PUSH 20\t\t\txed receiptId, string wal\n      ADD \t\t\txed receiptId, string wal\n      PUSH 40\t\t\txed receiptId, string wal\n      MLOAD \t\t\txed receiptId, string wal\n      SWAP1 \t\t\txed receiptId, string wal\n      DUP2 \t\t\txed receiptId, string wal\n      ADD \t\t\txed receiptId, string wal\n      PUSH 40\t\t\txed receiptId, string wal\n      MSTORE \t\t\txed receiptId, string wal\n      DUP1 \t\t\txed receiptId, string wal\n      SWAP3 \t\t\txed receiptId, string wal\n      SWAP2 \t\t\txed receiptId, string wal\n      SWAP1 \t\t\txed receiptId, string wal\n      DUP2 \t\t\txed receiptId, string wal\n      DUP2 \t\t\txed receiptId, string wal\n      MSTORE \t\t\txed receiptId, string wal\n      PUSH 20\t\t\txed receiptId, string wal\n      ADD \t\t\txed receiptId, string wal\n      DUP3 \t\t\txed receiptId, string wal\n      DUP1 \t\t\txed receiptId, string wal\n      SLOAD \t\t\txed receiptId, string wal\n      PUSH [tag] 53\t\t\txed receiptId, string wal\n      SWAP1 \t\t\txed receiptId, string wal\n      PUSH [tag] 47\t\t\txed receiptId, string wal\n      JUMP \t\t\txed receiptId, string wal\n    tag 53\t\t\txed receiptId, string wal\n      JUMPDEST \t\t\txed receiptId, string wal\n      DUP1 \t\t\txed receiptId, string wal\n      ISZERO \t\t\txed receiptId, string wal\n      PUSH [tag] 54\t\t\txed receiptId, string wal\n      JUMPI \t\t\txed receiptId, string wal\n      DUP1 \t\t\txed receiptId, string wal\n      PUSH 1F\t\t\txed receiptId, string wal\n      LT \t\t\txed receiptId, string wal\n      PUSH [tag] 55\t\t\txed receiptId, string wal\n      JUMPI \t\t\txed receiptId, string wal\n      PUSH 100\t\t\txed receiptId, string wal\n      DUP1 \t\t\txed receiptId, string wal\n      DUP4 \t\t\txed receiptId, string wal\n      SLOAD \t\t\txed receiptId, string wal\n      DIV \t\t\txed receiptId, string wal\n      MUL \t\t\txed receiptId, string wal\n      DUP4 \t\t\txed receiptId, string wal\n      MSTORE \t\t\txed receiptId, string wal\n      SWAP2 \t\t\txed receiptId, string wal\n      PUSH 20\t\t\txed receiptId, string wal\n      ADD \t\t\txed receiptId, string wal\n      SWAP2 \t\t\txed receiptId, string wal\n      PUSH [tag] 54\t\t\txed receiptId, string wal\n      JUMP \t\t\txed receiptId, string wal\n    tag 55\t\t\txed receiptId, string wal\n      JUMPDEST \t\t\txed receiptId, string wal\n      DUP3 \t\t\txed receiptId, string wal\n      ADD \t\t\txed receiptId, string wal\n      SWAP2 \t\t\txed receiptId, string wal\n      SWAP1 \t\t\txed receiptId, string wal\n      PUSH 0\t\t\txed receiptId, string wal\n      MSTORE \t\t\txed receiptId, string wal\n      PUSH 20\t\t\txed receiptId, string wal\n      PUSH 0\t\t\txed receiptId, string wal\n      KECCAK256 \t\t\txed receiptId, string wal\n      SWAP1 \t\t\txed receiptId, string wal\n    tag 56\t\t\txed receiptId, string wal\n      JUMPDEST \t\t\txed receiptId, string wal\n      DUP2 \t\t\txed receiptId, string wal\n      SLOAD \t\t\txed receiptId, string wal\n      DUP2 \t\t\txed receiptId, string wal\n      MSTORE \t\t\txed receiptId, string wal\n      SWAP1 \t\t\txed receiptId, string wal\n      PUSH 1\t\t\txed receiptId, string wal\n      ADD \t\t\txed receiptId, string wal\n      SWAP1 \t\t\txed receiptId, string wal\n      PUSH 20\t\t\txed receiptId, string wal\n      ADD \t\t\txed receiptId, string wal\n      DUP1 \t\t\txed receiptId, string wal\n      DUP4 \t\t\txed receiptId, string wal\n      GT \t\t\txed receiptId, string wal\n      PUSH [tag] 56\t\t\txed receiptId, string wal\n      JUMPI \t\t\txed receiptId, string wal\n      DUP3 \t\t\txed receiptId, string wal\n      SWAP1 \t\t\txed receiptId, string wal\n      SUB \t\t\txed receiptId, string wal\n      PUSH 1F\t\t\txed receiptId, string wal\n      AND \t\t\txed receiptId, string wal\n      DUP3 \t\t\txed receiptId, string wal\n      ADD \t\t\txed receiptId, string wal\n      SWAP2 \t\t\txed receiptId, string wal\n    tag 54\t\t\txed receiptId, string wal\n      JUMPDEST \t\t\txed receiptId, string wal\n      POP \t\t\txed receiptId, string wal\n      POP \t\t\txed receiptId, string wal\n      POP \t\t\txed receiptId, string wal\n      POP \t\t\txed receiptId, string wal\n      POP \t\t\txed receiptId, string wal\n      SWAP1 \t\t\txed receiptId, string wal\n      DUP1 \t\t\txed receiptId, string wal\n      PUSH 4\t\t\txed receiptId, string wal\n      ADD \t\t\txed receiptId, string wal\n      SLOAD \t\t\txed receiptId, string wal\n      SWAP1 \t\t\txed receiptId, string wal\n      POP \t\t\txed receiptId, string wal\n      DUP6 \t\t\txed receiptId, string wal\n      JUMP \t\t\txed receiptId, string wal\n    tag 24\t\t\tType, bool _operator, uint _pr...\n      JUMPDEST \t\t\tType, bool _operator, uint _pr...\n      PUSH 60\t\t\turns (uint) {\\r\\n      \n      PUSH 0\t\t\tipt(_walletType, _operator\n      DUP1 \t\t\tipt(_walletType, _operator, _p...\n      DUP5 \t\t\t _price, \n      DUP2 \t\t\tipt(_walletType, _operator, _p...\n      MSTORE \t\t\tipt(_walletType, _operator, _p...\n      PUSH 20\t\t\tipt(_walletType, _operator, _p...\n      ADD \t\t\tipt(_walletType, _operator, _p...\n      SWAP1 \t\t\tipt(_walletType, _operator, _p...\n      DUP2 \t\t\tipt(_walletType, _operator, _p...\n      MSTORE \t\t\tipt(_walletType, _operator, _p...\n      PUSH 20\t\t\tipt(_walletType, _operator, _p...\n      ADD \t\t\tipt(_walletType, _operator, _p...\n      PUSH 0\t\t\tipt(_walletType, _operator, _p...\n      KECCAK256 \t\t\tipt(_walletType, _operator, _p...\n      PUSH 0\t\t\tipt(_walletType, _operator, _p...\n      DUP4 \t\t\tescription\n      DUP2 \t\t\tipt(_walletType, _operator, _p...\n      MSTORE \t\t\tipt(_walletType, _operator, _p...\n      PUSH 20\t\t\tipt(_walletType, _operator, _p...\n      ADD \t\t\tipt(_walletType, _operator, _p...\n      SWAP1 \t\t\tipt(_walletType, _operator, _p...\n      DUP2 \t\t\tipt(_walletType, _operator, _p...\n      MSTORE \t\t\tipt(_walletType, _operator, _p...\n      PUSH 20\t\t\tipt(_walletType, _operator, _p...\n      ADD \t\t\tipt(_walletType, _operator, _p...\n      PUSH 0\t\t\tipt(_walletType, _operator, _p...\n      KECCAK256 \t\t\tipt(_walletType, _operator, _p...\n      DUP1 \t\t\tsh(Receipt(_walletType, _opera...\n      SLOAD \t\t\tsh(Receipt(_walletType, _opera...\n      DUP1 \t\t\tsh(Receipt(_walletType, _opera...\n      PUSH 20\t\t\tsh(Receipt(_walletType, _opera...\n      MUL \t\t\tsh(Receipt(_walletType, _opera...\n      PUSH 20\t\t\tsh(Receipt(_walletType, _opera...\n      ADD \t\t\tsh(Receipt(_walletType, _opera...\n      PUSH 40\t\t\tsh(Receipt(_walletType, _opera...\n      MLOAD \t\t\tsh(Receipt(_walletType, _opera...\n      SWAP1 \t\t\tsh(Receipt(_walletType, _opera...\n      DUP2 \t\t\tsh(Receipt(_walletType, _opera...\n      ADD \t\t\tsh(Receipt(_walletType, _opera...\n      PUSH 40\t\t\tsh(Receipt(_walletType, _opera...\n      MSTORE \t\t\tsh(Receipt(_walletType, _opera...\n      DUP1 \t\t\tsh(Receipt(_walletType, _opera...\n      SWAP3 \t\t\tsh(Receipt(_walletType, _opera...\n      SWAP2 \t\t\tsh(Receipt(_walletType, _opera...\n      SWAP1 \t\t\tsh(Receipt(_walletType, _opera...\n      DUP2 \t\t\tsh(Receipt(_walletType, _opera...\n      DUP2 \t\t\tsh(Receipt(_walletType, _opera...\n      MSTORE \t\t\tsh(Receipt(_walletType, _opera...\n      PUSH 20\t\t\tsh(Receipt(_walletType, _opera...\n      ADD \t\t\tsh(Receipt(_walletType, _opera...\n      PUSH 0\t\t\tsh(Receipt(_walletType, _opera...\n      SWAP1 \t\t\tsh(Receipt(_walletType, _opera...\n    tag 58\t\t\tsh(Receipt(_walletType, _opera...\n      JUMPDEST \t\t\tsh(Receipt(_walletType, _opera...\n      DUP3 \t\t\tsh(Receipt(_walletType, _opera...\n      DUP3 \t\t\tsh(Receipt(_walletType, _opera...\n      LT \t\t\tsh(Receipt(_walletType, _opera...\n      ISZERO \t\t\tsh(Receipt(_walletType, _opera...\n      PUSH [tag] 59\t\t\tsh(Receipt(_walletType, _opera...\n      JUMPI \t\t\tsh(Receipt(_walletType, _opera...\n      DUP4 \t\t\tsh(Receipt(_walletType, _opera...\n      DUP3 \t\t\tsh(Receipt(_walletType, _opera...\n      SWAP1 \t\t\tsh(Receipt(_walletType, _opera...\n      PUSH 0\t\t\tsh(Receipt(_walletType, _opera...\n      MSTORE \t\t\tsh(Receipt(_walletType, _opera...\n      PUSH 20\t\t\tsh(Receipt(_walletType, _opera...\n      PUSH 0\t\t\tsh(Receipt(_walletType, _opera...\n      KECCAK256 \t\t\tsh(Receipt(_walletType, _opera...\n      SWAP1 \t\t\tsh(Receipt(_walletType, _opera...\n      PUSH 4\t\t\tsh(Receipt(_walletType, _opera...\n      MUL \t\t\tsh(Receipt(_walletType, _opera...\n      ADD \t\t\tsh(Receipt(_walletType, _opera...\n      PUSH 40\t\t\tsh(Receipt(_walletType, _opera...\n      MLOAD \t\t\tsh(Receipt(_walletType, _opera...\n      DUP1 \t\t\tsh(Receipt(_walletType, _opera...\n      PUSH 80\t\t\tsh(Receipt(_walletType, _opera...\n      ADD \t\t\tsh(Receipt(_walletType, _opera...\n      PUSH 40\t\t\tsh(Receipt(_walletType, _opera...\n      MSTORE \t\t\tsh(Receipt(_walletType, _opera...\n      SWAP1 \t\t\tsh(Receipt(_walletType, _opera...\n      DUP2 \t\t\tsh(Receipt(_walletType, _opera...\n      PUSH 0\t\t\tsh(Receipt(_walletType, _opera...\n      DUP3 \t\t\tsh(Receipt(_walletType, _opera...\n      ADD \t\t\tsh(Receipt(_walletType, _opera...\n      SLOAD \t\t\tsh(Receipt(_walletType, _opera...\n      DUP2 \t\t\tsh(Receipt(_walletType, _opera...\n      MSTORE \t\t\tsh(Receipt(_walletType, _opera...\n      PUSH 20\t\t\tsh(Receipt(_walletType, _opera...\n      ADD \t\t\tsh(Receipt(_walletType, _opera...\n      PUSH 1\t\t\tsh(Receipt(_walletType, _opera...\n      DUP3 \t\t\tsh(Receipt(_walletType, _opera...\n      ADD \t\t\tsh(Receipt(_walletType, _opera...\n      SLOAD \t\t\tsh(Receipt(_walletType, _opera...\n      DUP2 \t\t\tsh(Receipt(_walletType, _opera...\n      MSTORE \t\t\tsh(Receipt(_walletType, _opera...\n      PUSH 20\t\t\tsh(Receipt(_walletType, _opera...\n      ADD \t\t\tsh(Receipt(_walletType, _opera...\n      PUSH 2\t\t\tsh(Receipt(_walletType, _opera...\n      DUP3 \t\t\tsh(Receipt(_walletType, _opera...\n      ADD \t\t\tsh(Receipt(_walletType, _opera...\n      SLOAD \t\t\tsh(Receipt(_walletType, _opera...\n      DUP2 \t\t\tsh(Receipt(_walletType, _opera...\n      MSTORE \t\t\tsh(Receipt(_walletType, _opera...\n      PUSH 20\t\t\tsh(Receipt(_walletType, _opera...\n      ADD \t\t\tsh(Receipt(_walletType, _opera...\n      PUSH 3\t\t\tsh(Receipt(_walletType, _opera...\n      DUP3 \t\t\tsh(Receipt(_walletType, _opera...\n      ADD \t\t\tsh(Receipt(_walletType, _opera...\n      SLOAD \t\t\tsh(Receipt(_walletType, _opera...\n      DUP2 \t\t\tsh(Receipt(_walletType, _opera...\n      MSTORE \t\t\tsh(Receipt(_walletType, _opera...\n      POP \t\t\tsh(Receipt(_walletType, _opera...\n      POP \t\t\tsh(Receipt(_walletType, _opera...\n      DUP2 \t\t\tsh(Receipt(_walletType, _opera...\n      MSTORE \t\t\tsh(Receipt(_walletType, _opera...\n      PUSH 20\t\t\tsh(Receipt(_walletType, _opera...\n      ADD \t\t\tsh(Receipt(_walletType, _opera...\n      SWAP1 \t\t\tsh(Receipt(_walletType, _opera...\n      PUSH 1\t\t\tsh(Receipt(_walletType, _opera...\n      ADD \t\t\tsh(Receipt(_walletType, _opera...\n      SWAP1 \t\t\tsh(Receipt(_walletType, _opera...\n      PUSH [tag] 58\t\t\tsh(Receipt(_walletType, _opera...\n      JUMP \t\t\tsh(Receipt(_walletType, _opera...\n    tag 59\t\t\tsh(Receipt(_walletType, _opera...\n      JUMPDEST \t\t\tsh(Receipt(_walletType, _opera...\n      POP \t\t\tsh(Receipt(_walletType, _opera...\n      POP \t\t\tsh(Receipt(_walletType, _opera...\n      POP \t\t\tsh(Receipt(_walletType, _opera...\n      POP \t\t\tsh(Receipt(_walletType, _opera...\n      SWAP1 \t\t\tsh(Receipt(_walletType, _opera...\n      POP \t\t\tsh(Receipt(_walletType, _opera...\n      SWAP3 \t\t\tType, bool _operator, uint _pr...\n      SWAP2 \t\t\tType, bool _operator, uint _pr...\n      POP \t\t\tType, bool _operator, uint _pr...\n      POP \t\t\tType, bool _operator, uint _pr...\n      JUMP \t\t\tType, bool _operator, uint _pr...\n    tag 29\t\t\t\n      JUMPDEST \t\t\t\n      PUSH [tag] 61\t\t\t\n      PUSH [tag] 62\t\t\t\n      JUMP \t\t\t\n    tag 61\t\t\t\n      JUMPDEST \t\t\t\n      PUSH 1\t\t\t\n      DUP1 \t\t\t\n      SLOAD \t\t\t\n      SWAP1 \t\t\t\n      POP \t\t\t\n      DUP3 \t\t\t\n      LT \t\t\t\n      PUSH [tag] 64\t\t\t\n      JUMPI \t\t\t\n      PUSH 40\t\t\t\n      MLOAD \t\t\t\n      PUSH 8C379A000000000000000000000000000000000000000000000000000000000\t\t\t\n      DUP2 \t\t\t\n      MSTORE \t\t\t\n      PUSH 4\t\t\t\n      ADD \t\t\t\n      PUSH [tag] 65\t\t\t\n      SWAP1 \t\t\t\n      PUSH [tag] 66\t\t\t\n      JUMP \t\t\t\n    tag 65\t\t\t\n      JUMPDEST \t\t\t\n      PUSH 40\t\t\t\n      MLOAD \t\t\t\n      DUP1 \t\t\t\n      SWAP2 \t\t\t\n      SUB \t\t\t\n      SWAP1 \t\t\t\n      REVERT \t\t\t\n    tag 64\t\t\t\n      JUMPDEST \t\t\t\n      PUSH 1\t\t\t\n      DUP3 \t\t\t\n      DUP2 \t\t\t\n      SLOAD \t\t\t\n      DUP2 \t\t\t\n      LT \t\t\t\n      PUSH [tag] 67\t\t\t\n      JUMPI \t\t\t\n      PUSH [tag] 68\t\t\t\n      PUSH [tag] 69\t\t\t\n      JUMP \t\t\t\n    tag 68\t\t\t\n      JUMPDEST \t\t\t\n    tag 67\t\t\t\n      JUMPDEST \t\t\t\n      SWAP1 \t\t\t\n      PUSH 0\t\t\t\n      MSTORE \t\t\t\n      PUSH 20\t\t\t\n      PUSH 0\t\t\t\n      KECCAK256 \t\t\t\n      SWAP1 \t\t\t\n      PUSH 5\t\t\t\n      MUL \t\t\t\n      ADD \t\t\t\n      PUSH 40\t\t\t\n      MLOAD \t\t\t\n      DUP1 \t\t\t\n      PUSH A0\t\t\t\n      ADD \t\t\t\n      PUSH 40\t\t\t\n      MSTORE \t\t\t\n      SWAP1 \t\t\t\n      DUP2 \t\t\t\n      PUSH 0\t\t\t\n      DUP3 \t\t\t\n      ADD \t\t\t\n      DUP1 \t\t\t\n      SLOAD \t\t\t\n      PUSH [tag] 71\t\t\t\n      SWAP1 \t\t\t\n      PUSH [tag] 47\t\t\t\n      JUMP \t\t\t\n    tag 71\t\t\t\n      JUMPDEST \t\t\t\n      DUP1 \t\t\t\n      PUSH 1F\t\t\t\n      ADD \t\t\t\n      PUSH 20\t\t\t\n      DUP1 \t\t\t\n      SWAP2 \t\t\t\n      DIV \t\t\t\n      MUL \t\t\t\n      PUSH 20\t\t\t\n      ADD \t\t\t\n      PUSH 40\t\t\t\n      MLOAD \t\t\t\n      SWAP1 \t\t\t\n      DUP2 \t\t\t\n      ADD \t\t\t\n      PUSH 40\t\t\t\n      MSTORE \t\t\t\n      DUP1 \t\t\t\n      SWAP3 \t\t\t\n      SWAP2 \t\t\t\n      SWAP1 \t\t\t\n      DUP2 \t\t\t\n      DUP2 \t\t\t\n      MSTORE \t\t\t\n      PUSH 20\t\t\t\n      ADD \t\t\t\n      DUP3 \t\t\t\n      DUP1 \t\t\t\n      SLOAD \t\t\t\n      PUSH [tag] 72\t\t\t\n      SWAP1 \t\t\t\n      PUSH [tag] 47\t\t\t\n      JUMP \t\t\t\n    tag 72\t\t\t\n      JUMPDEST \t\t\t\n      DUP1 \t\t\t\n      ISZERO \t\t\t\n      PUSH [tag] 73\t\t\t\n      JUMPI \t\t\t\n      DUP1 \t\t\t\n      PUSH 1F\t\t\t\n      LT \t\t\t\n      PUSH [tag] 74\t\t\t\n      JUMPI \t\t\t\n      PUSH 100\t\t\t\n      DUP1 \t\t\t\n      DUP4 \t\t\t\n      SLOAD \t\t\t\n      DIV \t\t\t\n      MUL \t\t\t\n      DUP4 \t\t\t\n      MSTORE \t\t\t\n      SWAP2 \t\t\t\n      PUSH 20\t\t\t\n      ADD \t\t\t\n      SWAP2 \t\t\t\n      PUSH [tag] 73\t\t\t\n      JUMP \t\t\t\n    tag 74\t\t\t\n      JUMPDEST \t\t\t\n      DUP3 \t\t\t\n      ADD \t\t\t\n      SWAP2 \t\t\t\n      SWAP1 \t\t\t\n      PUSH 0\t\t\t\n      MSTORE \t\t\t\n      PUSH 20\t\t\t\n      PUSH 0\t\t\t\n      KECCAK256 \t\t\t\n      SWAP1 \t\t\t\n    tag 75\t\t\t\n      JUMPDEST \t\t\t\n      DUP2 \t\t\t\n      SLOAD \t\t\t\n      DUP2 \t\t\t\n      MSTORE \t\t\t\n      SWAP1 \t\t\t\n      PUSH 1\t\t\t\n      ADD \t\t\t\n      SWAP1 \t\t\t\n      PUSH 20\t\t\t\n      ADD \t\t\t\n      DUP1 \t\t\t\n      DUP4 \t\t\t\n      GT \t\t\t\n      PUSH [tag] 75\t\t\t\n      JUMPI \t\t\t\n      DUP3 \t\t\t\n      SWAP1 \t\t\t\n      SUB \t\t\t\n      PUSH 1F\t\t\t\n      AND \t\t\t\n      DUP3 \t\t\t\n      ADD \t\t\t\n      SWAP2 \t\t\t\n    tag 73\t\t\t\n      JUMPDEST \t\t\t\n      POP \t\t\t\n      POP \t\t\t\n      POP \t\t\t\n      POP \t\t\t\n      POP \t\t\t\n      DUP2 \t\t\t\n      MSTORE \t\t\t\n      PUSH 20\t\t\t\n      ADD \t\t\t\n      PUSH 1\t\t\t\n      DUP3 \t\t\t\n      ADD \t\t\t\n      PUSH 0\t\t\t\n      SWAP1 \t\t\t\n      SLOAD \t\t\t\n      SWAP1 \t\t\t\n      PUSH 100\t\t\t\n      EXP \t\t\t\n      SWAP1 \t\t\t\n      DIV \t\t\t\n      PUSH FF\t\t\t\n      AND \t\t\t\n      ISZERO \t\t\t\n      ISZERO \t\t\t\n      ISZERO \t\t\t\n      ISZERO \t\t\t\n      DUP2 \t\t\t\n      MSTORE \t\t\t\n      PUSH 20\t\t\t\n      ADD \t\t\t\n      PUSH 2\t\t\t\n      DUP3 \t\t\t\n      ADD \t\t\t\n      SLOAD \t\t\t\n      DUP2 \t\t\t\n      MSTORE \t\t\t\n      PUSH 20\t\t\t\n      ADD \t\t\t\n      PUSH 3\t\t\t\n      DUP3 \t\t\t\n      ADD \t\t\t\n      DUP1 \t\t\t\n      SLOAD \t\t\t\n      PUSH [tag] 76\t\t\t\n      SWAP1 \t\t\t\n      PUSH [tag] 47\t\t\t\n      JUMP \t\t\t\n    tag 76\t\t\t\n      JUMPDEST \t\t\t\n      DUP1 \t\t\t\n      PUSH 1F\t\t\t\n      ADD \t\t\t\n      PUSH 20\t\t\t\n      DUP1 \t\t\t\n      SWAP2 \t\t\t\n      DIV \t\t\t\n      MUL \t\t\t\n      PUSH 20\t\t\t\n      ADD \t\t\t\n      PUSH 40\t\t\t\n      MLOAD \t\t\t\n      SWAP1 \t\t\t\n      DUP2 \t\t\t\n      ADD \t\t\t\n      PUSH 40\t\t\t\n      MSTORE \t\t\t\n      DUP1 \t\t\t\n      SWAP3 \t\t\t\n      SWAP2 \t\t\t\n      SWAP1 \t\t\t\n      DUP2 \t\t\t\n      DUP2 \t\t\t\n      MSTORE \t\t\t\n      PUSH 20\t\t\t\n      ADD \t\t\t\n      DUP3 \t\t\t\n      DUP1 \t\t\t\n      SLOAD \t\t\t\n      PUSH [tag] 77\t\t\t\n      SWAP1 \t\t\t\n      PUSH [tag] 47\t\t\t\n      JUMP \t\t\t\n    tag 77\t\t\t\n      JUMPDEST \t\t\t\n      DUP1 \t\t\t\n      ISZERO \t\t\t\n      PUSH [tag] 78\t\t\t\n      JUMPI \t\t\t\n      DUP1 \t\t\t\n      PUSH 1F\t\t\t\n      LT \t\t\t\n      PUSH [tag] 79\t\t\t\n      JUMPI \t\t\t\n      PUSH 100\t\t\t\n      DUP1 \t\t\t\n      DUP4 \t\t\t\n      SLOAD \t\t\t\n      DIV \t\t\t\n      MUL \t\t\t\n      DUP4 \t\t\t\n      MSTORE \t\t\t\n      SWAP2 \t\t\t\n      PUSH 20\t\t\t\n      ADD \t\t\t\n      SWAP2 \t\t\t\n      PUSH [tag] 78\t\t\t\n      JUMP \t\t\t\n    tag 79\t\t\t\n      JUMPDEST \t\t\t\n      DUP3 \t\t\t\n      ADD \t\t\t\n      SWAP2 \t\t\t\n      SWAP1 \t\t\t\n      PUSH 0\t\t\t\n      MSTORE \t\t\t\n      PUSH 20\t\t\t\n      PUSH 0\t\t\t\n      KECCAK256 \t\t\t\n      SWAP1 \t\t\t\n    tag 80\t\t\t\n      JUMPDEST \t\t\t\n      DUP2 \t\t\t\n      SLOAD \t\t\t\n      DUP2 \t\t\t\n      MSTORE \t\t\t\n      SWAP1 \t\t\t\n      PUSH 1\t\t\t\n      ADD \t\t\t\n      SWAP1 \t\t\t\n      PUSH 20\t\t\t\n      ADD \t\t\t\n      DUP1 \t\t\t\n      DUP4 \t\t\t\n      GT \t\t\t\n      PUSH [tag] 80\t\t\t\n      JUMPI \t\t\t\n      DUP3 \t\t\t\n      SWAP1 \t\t\t\n      SUB \t\t\t\n      PUSH 1F\t\t\t\n      AND \t\t\t\n      DUP3 \t\t\t\n      ADD \t\t\t\n      SWAP2 \t\t\t\n    tag 78\t\t\t\n      JUMPDEST \t\t\t\n      POP \t\t\t\n      POP \t\t\t\n      POP \t\t\t\n      POP \t\t\t\n      POP \t\t\t\n      DUP2 \t\t\t\n      MSTORE \t\t\t\n      PUSH 20\t\t\t\n      ADD \t\t\t\n      PUSH 4\t\t\t\n      DUP3 \t\t\t\n      ADD \t\t\t\n      SLOAD \t\t\t\n      DUP2 \t\t\t\n      MSTORE \t\t\t\n      POP \t\t\t\n      POP \t\t\t\n      SWAP1 \t\t\t\n      POP \t\t\t\n      SWAP2 \t\t\t\n      SWAP1 \t\t\t\n      POP \t\t\t\n      JUMP \t\t\t\n    tag 35\t\t\t        exerciseRecordsByTimes...\n      JUMPDEST \t\t\t        exerciseRecordsByTimes...\n      PUSH 0\t\t\tation, _distance);\\r\\n    }\\r\n      DUP1 \t\t\tation, _distance);\\r\\n    }\\r\\...\n      DUP7 \t\t\t\\r\\n    // \n      DUP2 \t\t\tation, _distance);\\r\\n    }\\r\\...\n      MSTORE \t\t\tation, _distance);\\r\\n    }\\r\\...\n      PUSH 20\t\t\tation, _distance);\\r\\n    }\\r\\...\n      ADD \t\t\tation, _distance);\\r\\n    }\\r\\...\n      SWAP1 \t\t\tation, _distance);\\r\\n    }\\r\\...\n      DUP2 \t\t\tation, _distance);\\r\\n    }\\r\\...\n      MSTORE \t\t\tation, _distance);\\r\\n    }\\r\\...\n      PUSH 20\t\t\tation, _distance);\\r\\n    }\\r\\...\n      ADD \t\t\tation, _distance);\\r\\n    }\\r\\...\n      PUSH 0\t\t\tation, _distance);\\r\\n    }\\r\\...\n      KECCAK256 \t\t\tation, _distance);\\r\\n    }\\r\\...\n      PUSH 0\t\t\tation, _distance);\\r\\n    }\\r\\...\n      DUP6 \t\t\t 유저 ID와 타임\n      DUP2 \t\t\tation, _distance);\\r\\n    }\\r\\...\n      MSTORE \t\t\tation, _distance);\\r\\n    }\\r\\...\n      PUSH 20\t\t\tation, _distance);\\r\\n    }\\r\\...\n      ADD \t\t\tation, _distance);\\r\\n    }\\r\\...\n      SWAP1 \t\t\tation, _distance);\\r\\n    }\\r\\...\n      DUP2 \t\t\tation, _distance);\\r\\n    }\\r\\...\n      MSTORE \t\t\tation, _distance);\\r\\n    }\\r\\...\n      PUSH 20\t\t\tation, _distance);\\r\\n    }\\r\\...\n      ADD \t\t\tation, _distance);\\r\\n    }\\r\\...\n      PUSH 0\t\t\tation, _distance);\\r\\n    }\\r\\...\n      KECCAK256 \t\t\tation, _distance);\\r\\n    }\\r\\...\n      PUSH 40\t\t\t 정보 배열을 조회하는 함수\\r\\n    functio...\n      MLOAD \t\t\t 정보 배열을 조회하는 함수\\r\\n    functio...\n      DUP1 \t\t\t 정보 배열을 조회하는 함수\\r\\n    functio...\n      PUSH 80\t\t\t 정보 배열을 조회하는 함수\\r\\n    functio...\n      ADD \t\t\t 정보 배열을 조회하는 함수\\r\\n    functio...\n      PUSH 40\t\t\t 정보 배열을 조회하는 함수\\r\\n    functio...\n      MSTORE \t\t\t 정보 배열을 조회하는 함수\\r\\n    functio...\n      DUP1 \t\t\t 정보 배열을 조회하는 함수\\r\\n    functio...\n      DUP7 \t\t\t함수\\r\\n    fu\n      DUP2 \t\t\t 정보 배열을 조회하는 함수\\r\\n    functio...\n      MSTORE \t\t\t 정보 배열을 조회하는 함수\\r\\n    functio...\n      PUSH 20\t\t\t 정보 배열을 조회하는 함수\\r\\n    functio...\n      ADD \t\t\t 정보 배열을 조회하는 함수\\r\\n    functio...\n      DUP6 \t\t\ttion g\n      DUP2 \t\t\t 정보 배열을 조회하는 함수\\r\\n    functio...\n      MSTORE \t\t\t 정보 배열을 조회하는 함수\\r\\n    functio...\n      PUSH 20\t\t\t 정보 배열을 조회하는 함수\\r\\n    functio...\n      ADD \t\t\t 정보 배열을 조회하는 함수\\r\\n    functio...\n      DUP5 \t\t\tExerciseD\n      DUP2 \t\t\t 정보 배열을 조회하는 함수\\r\\n    functio...\n      MSTORE \t\t\t 정보 배열을 조회하는 함수\\r\\n    functio...\n      PUSH 20\t\t\t 정보 배열을 조회하는 함수\\r\\n    functio...\n      ADD \t\t\t 정보 배열을 조회하는 함수\\r\\n    functio...\n      DUP4 \t\t\taByTimest\n      DUP2 \t\t\t 정보 배열을 조회하는 함수\\r\\n    functio...\n      MSTORE \t\t\t 정보 배열을 조회하는 함수\\r\\n    functio...\n      POP \t\t\t 정보 배열을 조회하는 함수\\r\\n    functio...\n      SWAP1 \t\t\tation, _distance);\\r\\n    }\\r\\...\n      DUP1 \t\t\tation, _distance);\\r\\n    }\\r\\...\n      PUSH 1\t\t\tation, _distance);\\r\\n    }\\r\\...\n      DUP2 \t\t\tation, _distance);\\r\\n    }\\r\\...\n      SLOAD \t\t\tation, _distance);\\r\\n    }\\r\\...\n      ADD \t\t\tation, _distance);\\r\\n    }\\r\\...\n      DUP1 \t\t\tation, _distance);\\r\\n    }\\r\\...\n      DUP3 \t\t\tation, _distance);\\r\\n    }\\r\\...\n      SSTORE \t\t\tation, _distance);\\r\\n    }\\r\\...\n      DUP1 \t\t\tation, _distance);\\r\\n    }\\r\\...\n      SWAP2 \t\t\tation, _distance);\\r\\n    }\\r\\...\n      POP \t\t\tation, _distance);\\r\\n    }\\r\\...\n      POP \t\t\tation, _distance);\\r\\n    }\\r\\...\n      PUSH 1\t\t\tation, _distance);\\r\\n    }\\r\\...\n      SWAP1 \t\t\tation, _distance);\\r\\n    }\\r\\...\n      SUB \t\t\tation, _distance);\\r\\n    }\\r\\...\n      SWAP1 \t\t\tation, _distance);\\r\\n    }\\r\\...\n      PUSH 0\t\t\tation, _distance);\\r\\n    }\\r\\...\n      MSTORE \t\t\tation, _distance);\\r\\n    }\\r\\...\n      PUSH 20\t\t\tation, _distance);\\r\\n    }\\r\\...\n      PUSH 0\t\t\tation, _distance);\\r\\n    }\\r\\...\n      KECCAK256 \t\t\tation, _distance);\\r\\n    }\\r\\...\n      SWAP1 \t\t\tation, _distance);\\r\\n    }\\r\\...\n      PUSH 4\t\t\tation, _distance);\\r\\n    }\\r\\...\n      MUL \t\t\tation, _distance);\\r\\n    }\\r\\...\n      ADD \t\t\tation, _distance);\\r\\n    }\\r\\...\n      PUSH 0\t\t\tation, _distance);\\r\\n    }\\r\\...\n      SWAP1 \t\t\tation, _distance);\\r\\n    }\\r\\...\n      SWAP2 \t\t\tation, _distance);\\r\\n    }\\r\\...\n      SWAP1 \t\t\tation, _distance);\\r\\n    }\\r\\...\n      SWAP2 \t\t\tation, _distance);\\r\\n    }\\r\\...\n      SWAP1 \t\t\tation, _distance);\\r\\n    }\\r\\...\n      SWAP2 \t\t\tation, _distance);\\r\\n    }\\r\\...\n      POP \t\t\tation, _distance);\\r\\n    }\\r\\...\n      PUSH 0\t\t\tation, _distance);\\r\\n    }\\r\\...\n      DUP3 \t\t\tation, _distance);\\r\\n    }\\r\\...\n      ADD \t\t\tation, _distance);\\r\\n    }\\r\\...\n      MLOAD \t\t\tation, _distance);\\r\\n    }\\r\\...\n      DUP2 \t\t\tation, _distance);\\r\\n    }\\r\\...\n      PUSH 0\t\t\tation, _distance);\\r\\n    }\\r\\...\n      ADD \t\t\tation, _distance);\\r\\n    }\\r\\...\n      SSTORE \t\t\tation, _distance);\\r\\n    }\\r\\...\n      PUSH 20\t\t\tation, _distance);\\r\\n    }\\r\\...\n      DUP3 \t\t\tation, _distance);\\r\\n    }\\r\\...\n      ADD \t\t\tation, _distance);\\r\\n    }\\r\\...\n      MLOAD \t\t\tation, _distance);\\r\\n    }\\r\\...\n      DUP2 \t\t\tation, _distance);\\r\\n    }\\r\\...\n      PUSH 1\t\t\tation, _distance);\\r\\n    }\\r\\...\n      ADD \t\t\tation, _distance);\\r\\n    }\\r\\...\n      SSTORE \t\t\tation, _distance);\\r\\n    }\\r\\...\n      PUSH 40\t\t\tation, _distance);\\r\\n    }\\r\\...\n      DUP3 \t\t\tation, _distance);\\r\\n    }\\r\\...\n      ADD \t\t\tation, _distance);\\r\\n    }\\r\\...\n      MLOAD \t\t\tation, _distance);\\r\\n    }\\r\\...\n      DUP2 \t\t\tation, _distance);\\r\\n    }\\r\\...\n      PUSH 2\t\t\tation, _distance);\\r\\n    }\\r\\...\n      ADD \t\t\tation, _distance);\\r\\n    }\\r\\...\n      SSTORE \t\t\tation, _distance);\\r\\n    }\\r\\...\n      PUSH 60\t\t\tation, _distance);\\r\\n    }\\r\\...\n      DUP3 \t\t\tation, _distance);\\r\\n    }\\r\\...\n      ADD \t\t\tation, _distance);\\r\\n    }\\r\\...\n      MLOAD \t\t\tation, _distance);\\r\\n    }\\r\\...\n      DUP2 \t\t\tation, _distance);\\r\\n    }\\r\\...\n      PUSH 3\t\t\tation, _distance);\\r\\n    }\\r\\...\n      ADD \t\t\tation, _distance);\\r\\n    }\\r\\...\n      SSTORE \t\t\tation, _distance);\\r\\n    }\\r\\...\n      POP \t\t\tation, _distance);\\r\\n    }\\r\\...\n      POP \t\t\tation, _distance);\\r\\n    }\\r\\...\n      PUSH E920C436C1F1B04EEC68B8CDEB48D96C4D5D95F3CC10D4FD0A21978585C23E09\t\t\t(ExerciseData[] memory) {\\r\\n ...\n      DUP6 \t\t\tmory) {\\r\\n\n      DUP6 \t\t\t      retu\n      DUP6 \t\t\t exerc\n      DUP6 \t\t\teRecordsB\n      DUP6 \t\t\timestamp[\n      PUSH 40\t\t\t(ExerciseData[] memory) {\\r\\n ...\n      MLOAD \t\t\t(ExerciseData[] memory) {\\r\\n ...\n      PUSH [tag] 83\t\t\t(ExerciseData[] memory) {\\r\\n ...\n      SWAP6 \t\t\t(ExerciseData[] memory) {\\r\\n ...\n      SWAP5 \t\t\t(ExerciseData[] memory) {\\r\\n ...\n      SWAP4 \t\t\t(ExerciseData[] memory) {\\r\\n ...\n      SWAP3 \t\t\t(ExerciseData[] memory) {\\r\\n ...\n      SWAP2 \t\t\t(ExerciseData[] memory) {\\r\\n ...\n      SWAP1 \t\t\t(ExerciseData[] memory) {\\r\\n ...\n      PUSH [tag] 84\t\t\t(ExerciseData[] memory) {\\r\\n ...\n      JUMP \t\t\t(ExerciseData[] memory) {\\r\\n ...\n    tag 83\t\t\t(ExerciseData[] memory) {\\r\\n ...\n      JUMPDEST \t\t\t(ExerciseData[] memory) {\\r\\n ...\n      PUSH 40\t\t\t(ExerciseData[] memory) {\\r\\n ...\n      MLOAD \t\t\t(ExerciseData[] memory) {\\r\\n ...\n      DUP1 \t\t\t(ExerciseData[] memory) {\\r\\n ...\n      SWAP2 \t\t\t(ExerciseData[] memory) {\\r\\n ...\n      SUB \t\t\t(ExerciseData[] memory) {\\r\\n ...\n      SWAP1 \t\t\t(ExerciseData[] memory) {\\r\\n ...\n      LOG1 \t\t\t(ExerciseData[] memory) {\\r\\n ...\n      POP \t\t\t        exerciseRecordsByTimes...\n      POP \t\t\t        exerciseRecordsByTimes...\n      POP \t\t\t        exerciseRecordsByTimes...\n      POP \t\t\t        exerciseRecordsByTimes...\n      POP \t\t\t        exerciseRecordsByTimes...\n      JUMP \t\t\t        exerciseRecordsByTimes...\n    tag 39\t\t\t      \\r\\n        // 이벤트 발생\\r\\...\n      JUMPDEST \t\t\t      \\r\\n        // 이벤트 발생\\r\\...\n      PUSH 0\t\t\t    \n      PUSH 1\t\t\tpt의 ID 반\n      PUSH 40\t\t\t     return receiptId;\\r\\n    ...\n      MLOAD \t\t\t     return receiptId;\\r\\n    ...\n      DUP1 \t\t\t     return receiptId;\\r\\n    ...\n      PUSH A0\t\t\t     return receiptId;\\r\\n    ...\n      ADD \t\t\t     return receiptId;\\r\\n    ...\n      PUSH 40\t\t\t     return receiptId;\\r\\n    ...\n      MSTORE \t\t\t     return receiptId;\\r\\n    ...\n      DUP1 \t\t\t     return receiptId;\\r\\n    ...\n      DUP9 \t\t\turn receipt\n      DUP2 \t\t\t     return receiptId;\\r\\n    ...\n      MSTORE \t\t\t     return receiptId;\\r\\n    ...\n      PUSH 20\t\t\t     return receiptId;\\r\\n    ...\n      ADD \t\t\t     return receiptId;\\r\\n    ...\n      DUP8 \t\t\t;\\r\\n    }\\r\n      ISZERO \t\t\t     return receiptId;\\r\\n    ...\n      ISZERO \t\t\t     return receiptId;\\r\\n    ...\n      DUP2 \t\t\t     return receiptId;\\r\\n    ...\n      MSTORE \t\t\t     return receiptId;\\r\\n    ...\n      PUSH 20\t\t\t     return receiptId;\\r\\n    ...\n      ADD \t\t\t     return receiptId;\\r\\n    ...\n      DUP7 \t\t\t\\n    /\n      DUP2 \t\t\t     return receiptId;\\r\\n    ...\n      MSTORE \t\t\t     return receiptId;\\r\\n    ...\n      PUSH 20\t\t\t     return receiptId;\\r\\n    ...\n      ADD \t\t\t     return receiptId;\\r\\n    ...\n      DUP6 \t\t\t특정 ID를 가진 Re\n      DUP2 \t\t\t     return receiptId;\\r\\n    ...\n      MSTORE \t\t\t     return receiptId;\\r\\n    ...\n      PUSH 20\t\t\t     return receiptId;\\r\\n    ...\n      ADD \t\t\t     return receiptId;\\r\\n    ...\n      DUP5 \t\t\tipt 데이터를 조\n      DUP2 \t\t\t     return receiptId;\\r\\n    ...\n      MSTORE \t\t\t     return receiptId;\\r\\n    ...\n      POP \t\t\t     return receiptId;\\r\\n    ...\n      SWAP1 \t\t\tpt의 ID 반환\\r\\n        return re...\n      DUP1 \t\t\tpt의 ID 반환\\r\\n        return re...\n      PUSH 1\t\t\tpt의 ID 반환\\r\\n        return re...\n      DUP2 \t\t\tpt의 ID 반환\\r\\n        return re...\n      SLOAD \t\t\tpt의 ID 반환\\r\\n        return re...\n      ADD \t\t\tpt의 ID 반환\\r\\n        return re...\n      DUP1 \t\t\tpt의 ID 반환\\r\\n        return re...\n      DUP3 \t\t\tpt의 ID 반환\\r\\n        return re...\n      SSTORE \t\t\tpt의 ID 반환\\r\\n        return re...\n      DUP1 \t\t\tpt의 ID 반환\\r\\n        return re...\n      SWAP2 \t\t\tpt의 ID 반환\\r\\n        return re...\n      POP \t\t\tpt의 ID 반환\\r\\n        return re...\n      POP \t\t\tpt의 ID 반환\\r\\n        return re...\n      PUSH 1\t\t\tpt의 ID 반환\\r\\n        return re...\n      SWAP1 \t\t\tpt의 ID 반환\\r\\n        return re...\n      SUB \t\t\tpt의 ID 반환\\r\\n        return re...\n      SWAP1 \t\t\tpt의 ID 반환\\r\\n        return re...\n      PUSH 0\t\t\tpt의 ID 반환\\r\\n        return re...\n      MSTORE \t\t\tpt의 ID 반환\\r\\n        return re...\n      PUSH 20\t\t\tpt의 ID 반환\\r\\n        return re...\n      PUSH 0\t\t\tpt의 ID 반환\\r\\n        return re...\n      KECCAK256 \t\t\tpt의 ID 반환\\r\\n        return re...\n      SWAP1 \t\t\tpt의 ID 반환\\r\\n        return re...\n      PUSH 5\t\t\tpt의 ID 반환\\r\\n        return re...\n      MUL \t\t\tpt의 ID 반환\\r\\n        return re...\n      ADD \t\t\tpt의 ID 반환\\r\\n        return re...\n      PUSH 0\t\t\tpt의 ID 반환\\r\\n        return re...\n      SWAP1 \t\t\tpt의 ID 반환\\r\\n        return re...\n      SWAP2 \t\t\tpt의 ID 반환\\r\\n        return re...\n      SWAP1 \t\t\tpt의 ID 반환\\r\\n        return re...\n      SWAP2 \t\t\tpt의 ID 반환\\r\\n        return re...\n      SWAP1 \t\t\tpt의 ID 반환\\r\\n        return re...\n      SWAP2 \t\t\tpt의 ID 반환\\r\\n        return re...\n      POP \t\t\tpt의 ID 반환\\r\\n        return re...\n      PUSH 0\t\t\tpt의 ID 반환\\r\\n        return re...\n      DUP3 \t\t\tpt의 ID 반환\\r\\n        return re...\n      ADD \t\t\tpt의 ID 반환\\r\\n        return re...\n      MLOAD \t\t\tpt의 ID 반환\\r\\n        return re...\n      DUP2 \t\t\tpt의 ID 반환\\r\\n        return re...\n      PUSH 0\t\t\tpt의 ID 반환\\r\\n        return re...\n      ADD \t\t\tpt의 ID 반환\\r\\n        return re...\n      SWAP1 \t\t\tpt의 ID 반환\\r\\n        return re...\n      DUP2 \t\t\tpt의 ID 반환\\r\\n        return re...\n      PUSH [tag] 87\t\t\tpt의 ID 반환\\r\\n        return re...\n      SWAP2 \t\t\tpt의 ID 반환\\r\\n        return re...\n      SWAP1 \t\t\tpt의 ID 반환\\r\\n        return re...\n      PUSH [tag] 88\t\t\tpt의 ID 반환\\r\\n        return re...\n      JUMP \t\t\tpt의 ID 반환\\r\\n        return re...\n    tag 87\t\t\tpt의 ID 반환\\r\\n        return re...\n      JUMPDEST \t\t\tpt의 ID 반환\\r\\n        return re...\n      POP \t\t\tpt의 ID 반환\\r\\n        return re...\n      PUSH 20\t\t\tpt의 ID 반환\\r\\n        return re...\n      DUP3 \t\t\tpt의 ID 반환\\r\\n        return re...\n      ADD \t\t\tpt의 ID 반환\\r\\n        return re...\n      MLOAD \t\t\tpt의 ID 반환\\r\\n        return re...\n      DUP2 \t\t\tpt의 ID 반환\\r\\n        return re...\n      PUSH 1\t\t\tpt의 ID 반환\\r\\n        return re...\n      ADD \t\t\tpt의 ID 반환\\r\\n        return re...\n      PUSH 0\t\t\tpt의 ID 반환\\r\\n        return re...\n      PUSH 100\t\t\tpt의 ID 반환\\r\\n        return re...\n      EXP \t\t\tpt의 ID 반환\\r\\n        return re...\n      DUP2 \t\t\tpt의 ID 반환\\r\\n        return re...\n      SLOAD \t\t\tpt의 ID 반환\\r\\n        return re...\n      DUP2 \t\t\tpt의 ID 반환\\r\\n        return re...\n      PUSH FF\t\t\tpt의 ID 반환\\r\\n        return re...\n      MUL \t\t\tpt의 ID 반환\\r\\n        return re...\n      NOT \t\t\tpt의 ID 반환\\r\\n        return re...\n      AND \t\t\tpt의 ID 반환\\r\\n        return re...\n      SWAP1 \t\t\tpt의 ID 반환\\r\\n        return re...\n      DUP4 \t\t\tpt의 ID 반환\\r\\n        return re...\n      ISZERO \t\t\tpt의 ID 반환\\r\\n        return re...\n      ISZERO \t\t\tpt의 ID 반환\\r\\n        return re...\n      MUL \t\t\tpt의 ID 반환\\r\\n        return re...\n      OR \t\t\tpt의 ID 반환\\r\\n        return re...\n      SWAP1 \t\t\tpt의 ID 반환\\r\\n        return re...\n      SSTORE \t\t\tpt의 ID 반환\\r\\n        return re...\n      POP \t\t\tpt의 ID 반환\\r\\n        return re...\n      PUSH 40\t\t\tpt의 ID 반환\\r\\n        return re...\n      DUP3 \t\t\tpt의 ID 반환\\r\\n        return re...\n      ADD \t\t\tpt의 ID 반환\\r\\n        return re...\n      MLOAD \t\t\tpt의 ID 반환\\r\\n        return re...\n      DUP2 \t\t\tpt의 ID 반환\\r\\n        return re...\n      PUSH 2\t\t\tpt의 ID 반환\\r\\n        return re...\n      ADD \t\t\tpt의 ID 반환\\r\\n        return re...\n      SSTORE \t\t\tpt의 ID 반환\\r\\n        return re...\n      PUSH 60\t\t\tpt의 ID 반환\\r\\n        return re...\n      DUP3 \t\t\tpt의 ID 반환\\r\\n        return re...\n      ADD \t\t\tpt의 ID 반환\\r\\n        return re...\n      MLOAD \t\t\tpt의 ID 반환\\r\\n        return re...\n      DUP2 \t\t\tpt의 ID 반환\\r\\n        return re...\n      PUSH 3\t\t\tpt의 ID 반환\\r\\n        return re...\n      ADD \t\t\tpt의 ID 반환\\r\\n        return re...\n      SWAP1 \t\t\tpt의 ID 반환\\r\\n        return re...\n      DUP2 \t\t\tpt의 ID 반환\\r\\n        return re...\n      PUSH [tag] 89\t\t\tpt의 ID 반환\\r\\n        return re...\n      SWAP2 \t\t\tpt의 ID 반환\\r\\n        return re...\n      SWAP1 \t\t\tpt의 ID 반환\\r\\n        return re...\n      PUSH [tag] 88\t\t\tpt의 ID 반환\\r\\n        return re...\n      JUMP \t\t\tpt의 ID 반환\\r\\n        return re...\n    tag 89\t\t\tpt의 ID 반환\\r\\n        return re...\n      JUMPDEST \t\t\tpt의 ID 반환\\r\\n        return re...\n      POP \t\t\tpt의 ID 반환\\r\\n        return re...\n      PUSH 80\t\t\tpt의 ID 반환\\r\\n        return re...\n      DUP3 \t\t\tpt의 ID 반환\\r\\n        return re...\n      ADD \t\t\tpt의 ID 반환\\r\\n        return re...\n      MLOAD \t\t\tpt의 ID 반환\\r\\n        return re...\n      DUP2 \t\t\tpt의 ID 반환\\r\\n        return re...\n      PUSH 4\t\t\tpt의 ID 반환\\r\\n        return re...\n      ADD \t\t\tpt의 ID 반환\\r\\n        return re...\n      SSTORE \t\t\tpt의 ID 반환\\r\\n        return re...\n      POP \t\t\tpt의 ID 반환\\r\\n        return re...\n      POP \t\t\tpt의 ID 반환\\r\\n        return re...\n      PUSH 0\t\t\tunction getRec\n      PUSH 1\t\t\t \n      DUP1 \t\t\tt(uint _\n      DUP1 \t\t\tt(uint _receipt\n      SLOAD \t\t\tt(uint _receipt\n      SWAP1 \t\t\tt(uint _receipt\n      POP \t\t\tt(uint _receipt\n      PUSH [tag] 90\t\t\tt(uint _receiptId) \n      SWAP2 \t\t\tt(uint _receiptId) \n      SWAP1 \t\t\tt(uint _receiptId) \n      PUSH [tag] 91\t\t\tt(uint _receiptId) \n      JUMP \t\t\tt(uint _receiptId) \n    tag 90\t\t\tt(uint _receiptId) \n      JUMPDEST \t\t\tt(uint _receiptId) \n      SWAP1 \t\t\tunction getReceipt(uint _recei...\n      POP \t\t\tunction getReceipt(uint _recei...\n      DUP1 \t\t\t receipts\n      PUSH 859B681CFA615FCBD11A979FBAC8E3B028FB937241EB9F5EF62A31AF86FAD73C\t\t\t(_receiptId < receipts.length,...\n      DUP9 \t\t\tength, \"Rec\n      DUP9 \t\t\tpt does n\n      DUP9 \t\t\t exist\n      DUP9 \t\t\t);\\r\\n        \n      DUP9 \t\t\tturn recei\n      PUSH 40\t\t\t(_receiptId < receipts.length,...\n      MLOAD \t\t\t(_receiptId < receipts.length,...\n      PUSH [tag] 92\t\t\t(_receiptId < receipts.length,...\n      SWAP6 \t\t\t(_receiptId < receipts.length,...\n      SWAP5 \t\t\t(_receiptId < receipts.length,...\n      SWAP4 \t\t\t(_receiptId < receipts.length,...\n      SWAP3 \t\t\t(_receiptId < receipts.length,...\n      SWAP2 \t\t\t(_receiptId < receipts.length,...\n      SWAP1 \t\t\t(_receiptId < receipts.length,...\n      PUSH [tag] 20\t\t\t(_receiptId < receipts.length,...\n      JUMP \t\t\t(_receiptId < receipts.length,...\n    tag 92\t\t\t(_receiptId < receipts.length,...\n      JUMPDEST \t\t\t(_receiptId < receipts.length,...\n      PUSH 40\t\t\t(_receiptId < receipts.length,...\n      MLOAD \t\t\t(_receiptId < receipts.length,...\n      DUP1 \t\t\t(_receiptId < receipts.length,...\n      SWAP2 \t\t\t(_receiptId < receipts.length,...\n      SUB \t\t\t(_receiptId < receipts.length,...\n      SWAP1 \t\t\t(_receiptId < receipts.length,...\n      LOG2 \t\t\t(_receiptId < receipts.length,...\n      DUP1 \t\t\t\n      SWAP2 \t\t\t\n      POP \t\t\t\n      POP \t\t\t\n      SWAP6 \t\t\t      \\r\\n        // 이벤트 발생\\r\\...\n      SWAP5 \t\t\t      \\r\\n        // 이벤트 발생\\r\\...\n      POP \t\t\t      \\r\\n        // 이벤트 발생\\r\\...\n      POP \t\t\t      \\r\\n        // 이벤트 발생\\r\\...\n      POP \t\t\t      \\r\\n        // 이벤트 발생\\r\\...\n      POP \t\t\t      \\r\\n        // 이벤트 발생\\r\\...\n      POP \t\t\t      \\r\\n        // 이벤트 발생\\r\\...\n      JUMP \t\t\t      \\r\\n        // 이벤트 발생\\r\\...\n    tag 62\t\t\t\n      JUMPDEST \t\t\t\n      PUSH 40\t\t\t\n      MLOAD \t\t\t\n      DUP1 \t\t\t\n      PUSH A0\t\t\t\n      ADD \t\t\t\n      PUSH 40\t\t\t\n      MSTORE \t\t\t\n      DUP1 \t\t\t\n      PUSH 60\t\t\t\n      DUP2 \t\t\t\n      MSTORE \t\t\t\n      PUSH 20\t\t\t\n      ADD \t\t\t\n      PUSH 0\t\t\t\n      ISZERO \t\t\t\n      ISZERO \t\t\t\n      DUP2 \t\t\t\n      MSTORE \t\t\t\n      PUSH 20\t\t\t\n      ADD \t\t\t\n      PUSH 0\t\t\t\n      DUP2 \t\t\t\n      MSTORE \t\t\t\n      PUSH 20\t\t\t\n      ADD \t\t\t\n      PUSH 60\t\t\t\n      DUP2 \t\t\t\n      MSTORE \t\t\t\n      PUSH 20\t\t\t\n      ADD \t\t\t\n      PUSH 0\t\t\t\n      DUP2 \t\t\t\n      MSTORE \t\t\t\n      POP \t\t\t\n      SWAP1 \t\t\t\n      JUMP \t\t\t\n    tag 93\t\t\t-License-Identifier: MIT\\r\\npr...\n      JUMPDEST \t\t\t-License-Identifier: MIT\\r\\npr...\n      PUSH 0\t\t\tsolidi\n      PUSH 40\t\t\tra\n      MLOAD \t\t\t\\r\\ncontrac\n      SWAP1 \t\t\t <0.9.0;\\r\\n\\r\\ncontrac\n      POP \t\t\t <0.9.0;\\r\\n\\r\\ncontrac\n      SWAP1 \t\t\t-License-Identifier: MIT\\r\\npr...\n      JUMP \t\t\t-License-Identifier: MIT\\r\\npr...\n    tag 94\t\t\t\\r\\n    struct ExerciseData {\\...\n      JUMPDEST \t\t\t\\r\\n    struct ExerciseData {\\...\n      PUSH 0\t\t\tn\n      DUP1 \t\t\t \n      REVERT \t\t\t        uint\n    tag 95\t\t\t    }\\r\\n\\r\\n    struct Receip...\n      JUMPDEST \t\t\t    }\\r\\n\\r\\n    struct Receip...\n      PUSH 0\t\t\t \n      DUP1 \t\t\t \n      REVERT \t\t\tce;\\r\\n       \n    tag 96\t\t\tription;\\r\\n        uint creat...\n      JUMPDEST \t\t\tription;\\r\\n        uint creat...\n      PUSH 0\t\t\t  }\\r\\n\\r\\n\n      DUP2 \t\t\t운동 정보\n      SWAP1 \t\t\tD와 타임스탬프별로 운동 정보\n      POP \t\t\tD와 타임스탬프별로 운동 정보\n      SWAP2 \t\t\tription;\\r\\n        uint creat...\n      SWAP1 \t\t\tription;\\r\\n        uint creat...\n      POP \t\t\tription;\\r\\n        uint creat...\n      JUMP \t\t\tription;\\r\\n        uint creat...\n    tag 97\t\t\t\\r\\n    mapping(uint => mappin...\n      JUMPDEST \t\t\t\\r\\n    mapping(uint => mappin...\n      PUSH [tag] 155\t\t\tordsByTimestamp;\\r\\n\\r\\n    \n      DUP2 \t\t\t\\r\\n   \n      PUSH [tag] 96\t\t\tordsByTimestamp;\\r\\n\\r\\n    \n      JUMP \t\t\tordsByTimestamp;\\r\\n\\r\\n    \n    tag 155\t\t\tordsByTimestamp;\\r\\n\\r\\n    \n      JUMPDEST \t\t\tordsByTimestamp;\\r\\n\\r\\n    \n      DUP2 \t\t\tciseR\n      EQ \t\t\txerciseRecordsByTimestamp;\\r\\n...\n      PUSH [tag] 156\t\t\t) public exerciseRecordsByTime...\n      JUMPI \t\t\t) public exerciseRecordsByTime...\n      PUSH 0\t\t\t때\n      DUP1 \t\t\t가\n      REVERT \t\t\t 데이터가 추가될 때 \n    tag 156\t\t\t) public exerciseRecordsByTime...\n      JUMPDEST \t\t\t) public exerciseRecordsByTime...\n      POP \t\t\t\\r\\n    mapping(uint => mappin...\n      JUMP \t\t\t\\r\\n    mapping(uint => mappin...\n    tag 98\t\t\tevent ExerciseDataAdded(uint m...\n      JUMPDEST \t\t\tevent ExerciseDataAdded(uint m...\n      PUSH 0\t\t\tmesta\n      DUP2 \t\t\tnt dis\n      CALLDATALOAD \t\t\t duration, uint dist\n      SWAP1 \t\t\teps, uint duration, uint dist\n      POP \t\t\teps, uint duration, uint dist\n      PUSH [tag] 158\t\t\t\\n    // Receipt 데이터를 저장하는 배열\\...\n      DUP2 \t\t\t열\\r\\n  \n      PUSH [tag] 97\t\t\t\\n    // Receipt 데이터를 저장하는 배열\\...\n      JUMP \t\t\t\\n    // Receipt 데이터를 저장하는 배열\\...\n    tag 158\t\t\t\\n    // Receipt 데이터를 저장하는 배열\\...\n      JUMPDEST \t\t\t\\n    // Receipt 데이터를 저장하는 배열\\...\n      SWAP3 \t\t\tevent ExerciseDataAdded(uint m...\n      SWAP2 \t\t\tevent ExerciseDataAdded(uint m...\n      POP \t\t\tevent ExerciseDataAdded(uint m...\n      POP \t\t\tevent ExerciseDataAdded(uint m...\n      JUMP \t\t\tevent ExerciseDataAdded(uint m...\n    tag 11\t\t\tublic receipts;\\r\\n\\r\\n    // ...\n      JUMPDEST \t\t\tublic receipts;\\r\\n\\r\\n    // ...\n      PUSH 0\t\t\ted(uin\n      DUP1 \t\t\tindexe\n      PUSH 0\t\t\treceip\n      PUSH 60\t\t\t p\n      DUP5 \t\t\terator, u\n      DUP7 \t\t\t, bool \n      SUB \t\t\tType, bool operator, ui\n      SLT \t\t\tlletType, bool operator, uint ...\n      ISZERO \t\t\t walletType, bool operator, ui...\n      PUSH [tag] 160\t\t\t walletType, bool operator, ui...\n      JUMPI \t\t\t walletType, bool operator, ui...\n      PUSH [tag] 161\t\t\t, string description, uint cre...\n      PUSH [tag] 94\t\t\t, string description, uint cre...\n      JUMP \t\t\t, string description, uint cre...\n    tag 161\t\t\t, string description, uint cre...\n      JUMPDEST \t\t\t, string description, uint cre...\n    tag 160\t\t\t walletType, bool operator, ui...\n      JUMPDEST \t\t\t walletType, bool operator, ui...\n      PUSH 0\t\t\te\n      PUSH [tag] 162\t\t\t _duration, uint _distance) pu...\n      DUP7 \t\t\t // 지정된\n      DUP3 \t\t\t\\r\\n    \n      DUP8 \t\t\te) public\n      ADD \t\t\ttance) public {\\r\\n     \n      PUSH [tag] 98\t\t\t _duration, uint _distance) pu...\n      JUMP \t\t\t _duration, uint _distance) pu...\n    tag 162\t\t\t _duration, uint _distance) pu...\n      JUMPDEST \t\t\t _duration, uint _distance) pu...\n      SWAP4 \t\t\tteps, uint _duration, uint _di...\n      POP \t\t\tteps, uint _duration, uint _di...\n      POP \t\t\tata(uint _memberId, uint _time...\n      PUSH 20\t\t\tor\n      PUSH [tag] 163\t\t\t[_timestamp].push(ExerciseData...\n      DUP7 \t\t\tteps, _\n      DUP3 \t\t\tstamp,\n      DUP8 \t\t\teData(_ti\n      ADD \t\t\trciseData(_timestamp, \n      PUSH [tag] 98\t\t\t[_timestamp].push(ExerciseData...\n      JUMP \t\t\t[_timestamp].push(ExerciseData...\n    tag 163\t\t\t[_timestamp].push(ExerciseData...\n      JUMPDEST \t\t\t[_timestamp].push(ExerciseData...\n      SWAP3 \t\t\t_memberId][_timestamp].push(Ex...\n      POP \t\t\t_memberId][_timestamp].push(Ex...\n      POP \t\t\t 데이터를 추가\\r\\n        exerciseRe...\n      PUSH 40\t\t\t생\\r\n      PUSH [tag] 164\t\t\ttaAdded(_memberId, _timestamp,...\n      DUP7 \t\t\tion, _d\n      DUP3 \t\t\ts, _du\n      DUP8 \t\t\ttamp, _st\n      ADD \t\t\timestamp, _steps, _dur\n      PUSH [tag] 98\t\t\ttaAdded(_memberId, _timestamp,...\n      JUMP \t\t\ttaAdded(_memberId, _timestamp,...\n    tag 164\t\t\ttaAdded(_memberId, _timestamp,...\n      JUMPDEST \t\t\ttaAdded(_memberId, _timestamp,...\n      SWAP2 \t\t\tExerciseDataAdded(_memberId, _...\n      POP \t\t\tExerciseDataAdded(_memberId, _...\n      POP \t\t\t;\\r\\n        \\r\\n        // 이벤...\n      SWAP3 \t\t\tublic receipts;\\r\\n\\r\\n    // ...\n      POP \t\t\tublic receipts;\\r\\n\\r\\n    // ...\n      SWAP3 \t\t\tublic receipts;\\r\\n\\r\\n    // ...\n      POP \t\t\tublic receipts;\\r\\n\\r\\n    // ...\n      SWAP3 \t\t\tublic receipts;\\r\\n\\r\\n    // ...\n      JUMP \t\t\tublic receipts;\\r\\n\\r\\n    // ...\n    tag 99\t\t\t// 특정 유저 ID와 타임스탬프로 운동 정보 배열을 ...\n      JUMPDEST \t\t\t// 특정 유저 ID와 타임스탬프로 운동 정보 배열을 ...\n      PUSH [tag] 166\t\t\tmberId, uint _timestamp)\n      DUP2 \t\t\tstamp\n      PUSH [tag] 96\t\t\tmberId, uint _timestamp)\n      JUMP \t\t\tmberId, uint _timestamp)\n    tag 166\t\t\tmberId, uint _timestamp)\n      JUMPDEST \t\t\tmberId, uint _timestamp)\n      DUP3 \t\t\tt _\n      MSTORE \t\t\tamp(uint _memberId, uint _time...\n      POP \t\t\t// 특정 유저 ID와 타임스탬프로 운동 정보 배열을 ...\n      POP \t\t\t// 특정 유저 ID와 타임스탬프로 운동 정보 배열을 ...\n      JUMP \t\t\t// 특정 유저 ID와 타임스탬프로 운동 정보 배열을 ...\n    tag 14\t\t\treturns (ExerciseData[] memory...\n      JUMPDEST \t\t\treturns (ExerciseData[] memory...\n      PUSH 0\t\t\t _wa\n      PUSH 80\t\t\tice\n      DUP3 \t\t\tr, uint _\n      ADD \t\t\trator, uint _price,\n      SWAP1 \t\t\tool _operator, uint _price,\n      POP \t\t\tool _operator, uint _price,\n      PUSH [tag] 168\t\t\tmory _description, uint _creat...\n      PUSH 0\t\t\t \n      DUP4 \t\t\t {\\r\\n     \n      ADD \t\t\tint) {\\r\\n        r\n      DUP8 \t\t\teturns\n      PUSH [tag] 99\t\t\tmory _description, uint _creat...\n      JUMP \t\t\tmory _description, uint _creat...\n    tag 168\t\t\tmory _description, uint _creat...\n      JUMPDEST \t\t\tmory _description, uint _creat...\n      PUSH [tag] 169\t\t\th(Receipt(_walletType, _operat...\n      PUSH 20\t\t\t;\\r\n      DUP4 \t\t\tcreatedAt\n      ADD \t\t\tn, _createdAt));\\r\\n\n      DUP7 \t\t\tescrip\n      PUSH [tag] 99\t\t\th(Receipt(_walletType, _operat...\n      JUMP \t\t\th(Receipt(_walletType, _operat...\n    tag 169\t\t\th(Receipt(_walletType, _operat...\n      JUMPDEST \t\t\th(Receipt(_walletType, _operat...\n      PUSH [tag] 170\t\t\tt receiptId = receipts.length ...\n      PUSH 40\t\t\t  \n      DUP4 \t\t\t이벤트 발생\\r\\n \n      ADD \t\t\t // 이벤트 발생\\r\\n      \n      DUP6 \t\t\t\\r\\n    \n      PUSH [tag] 99\t\t\tt receiptId = receipts.length ...\n      JUMP \t\t\tt receiptId = receipts.length ...\n    tag 170\t\t\tt receiptId = receipts.length ...\n      JUMPDEST \t\t\tt receiptId = receipts.length ...\n      PUSH [tag] 171\t\t\tiptAdded(receiptId, _walletTyp...\n      PUSH 60\t\t\tre\n      DUP4 \t\t\tription, \n      ADD \t\t\tdescription, _crea\n      DUP5 \t\t\t_price\n      PUSH [tag] 99\t\t\tiptAdded(receiptId, _walletTyp...\n      JUMP \t\t\tiptAdded(receiptId, _walletTyp...\n    tag 171\t\t\tiptAdded(receiptId, _walletTyp...\n      JUMPDEST \t\t\tiptAdded(receiptId, _walletTyp...\n      SWAP6 \t\t\treturns (ExerciseData[] memory...\n      SWAP5 \t\t\treturns (ExerciseData[] memory...\n      POP \t\t\treturns (ExerciseData[] memory...\n      POP \t\t\treturns (ExerciseData[] memory...\n      POP \t\t\treturns (ExerciseData[] memory...\n      POP \t\t\treturns (ExerciseData[] memory...\n      POP \t\t\treturns (ExerciseData[] memory...\n      JUMP \t\t\treturns (ExerciseData[] memory...\n    tag 17\t\t\t   \\r\\n        // 추가된 Receipt의...\n      JUMPDEST \t\t\t   \\r\\n        // 추가된 Receipt의...\n      PUSH 0\t\t\td;\\r\\n  \n      PUSH 20\t\t\t수\\r\n      DUP3 \t\t\t 데이터를 조회하\n      DUP5 \t\t\t진 Recei\n      SUB \t\t\tD를 가진 Receipt 데이터를 조회하는\n      SLT \t\t\t특정 ID를 가진 Receipt 데이터를 조회하는 함수...\n      ISZERO \t\t\t// 특정 ID를 가진 Receipt 데이터를 조회하는...\n      PUSH [tag] 173\t\t\t// 특정 ID를 가진 Receipt 데이터를 조회하는...\n      JUMPI \t\t\t// 특정 ID를 가진 Receipt 데이터를 조회하는...\n      PUSH [tag] 174\t\t\t function getReceipt(uint _rec...\n      PUSH [tag] 94\t\t\t function getReceipt(uint _rec...\n      JUMP \t\t\t function getReceipt(uint _rec...\n    tag 174\t\t\t function getReceipt(uint _rec...\n      JUMPDEST \t\t\t function getReceipt(uint _rec...\n    tag 173\t\t\t// 특정 ID를 가진 Receipt 데이터를 조회하는...\n      JUMPDEST \t\t\t// 특정 ID를 가진 Receipt 데이터를 조회하는...\n      PUSH 0\t\t\tt\n      PUSH [tag] 175\t\t\tst.\");\\r\\n        return recei...\n      DUP5 \t\t\t\\n    }\\r\n      DUP3 \t\t\teiptId\n      DUP6 \t\t\tceipts[_r\n      ADD \t\t\tn receipts[_receiptId]\n      PUSH [tag] 98\t\t\tst.\");\\r\\n        return recei...\n      JUMP \t\t\tst.\");\\r\\n        return recei...\n    tag 175\t\t\tst.\");\\r\\n        return recei...\n      JUMPDEST \t\t\tst.\");\\r\\n        return recei...\n      SWAP2 \t\t\tes not exist.\");\\r\\n        re...\n      POP \t\t\tes not exist.\");\\r\\n        re...\n      POP \t\t\tre(_receiptId < receipts.lengt...\n      SWAP3 \t\t\t   \\r\\n        // 추가된 Receipt의...\n      SWAP2 \t\t\t   \\r\\n        // 추가된 Receipt의...\n      POP \t\t\t   \\r\\n        // 추가된 Receipt의...\n      POP \t\t\t   \\r\\n        // 추가된 Receipt의...\n      JUMP \t\t\t   \\r\\n        // 추가된 Receipt의...\n    tag 100\t\t\t\n      JUMPDEST \t\t\t\n      PUSH 0\t\t\t\n      DUP2 \t\t\t\n      MLOAD \t\t\t\n      SWAP1 \t\t\t\n      POP \t\t\t\n      SWAP2 \t\t\t\n      SWAP1 \t\t\t\n      POP \t\t\t\n      JUMP \t\t\t\n    tag 101\t\t\t\n      JUMPDEST \t\t\t\n      PUSH 0\t\t\t\n      DUP3 \t\t\t\n      DUP3 \t\t\t\n      MSTORE \t\t\t\n      PUSH 20\t\t\t\n      DUP3 \t\t\t\n      ADD \t\t\t\n      SWAP1 \t\t\t\n      POP \t\t\t\n      SWAP3 \t\t\t\n      SWAP2 \t\t\t\n      POP \t\t\t\n      POP \t\t\t\n      JUMP \t\t\t\n    tag 102\t\t\t\n      JUMPDEST \t\t\t\n      DUP3 \t\t\t\n      DUP2 \t\t\t\n      DUP4 \t\t\t\n      MCOPY \t\t\t\n      PUSH 0\t\t\t\n      DUP4 \t\t\t\n      DUP4 \t\t\t\n      ADD \t\t\t\n      MSTORE \t\t\t\n      POP \t\t\t\n      POP \t\t\t\n      POP \t\t\t\n      JUMP \t\t\t\n    tag 103\t\t\t\n      JUMPDEST \t\t\t\n      PUSH 0\t\t\t\n      PUSH 1F\t\t\t\n      NOT \t\t\t\n      PUSH 1F\t\t\t\n      DUP4 \t\t\t\n      ADD \t\t\t\n      AND \t\t\t\n      SWAP1 \t\t\t\n      POP \t\t\t\n      SWAP2 \t\t\t\n      SWAP1 \t\t\t\n      POP \t\t\t\n      JUMP \t\t\t\n    tag 104\t\t\t\n      JUMPDEST \t\t\t\n      PUSH 0\t\t\t\n      PUSH [tag] 181\t\t\t\n      DUP3 \t\t\t\n      PUSH [tag] 100\t\t\t\n      JUMP \t\t\t\n    tag 181\t\t\t\n      JUMPDEST \t\t\t\n      PUSH [tag] 182\t\t\t\n      DUP2 \t\t\t\n      DUP6 \t\t\t\n      PUSH [tag] 101\t\t\t\n      JUMP \t\t\t\n    tag 182\t\t\t\n      JUMPDEST \t\t\t\n      SWAP4 \t\t\t\n      POP \t\t\t\n      PUSH [tag] 183\t\t\t\n      DUP2 \t\t\t\n      DUP6 \t\t\t\n      PUSH 20\t\t\t\n      DUP7 \t\t\t\n      ADD \t\t\t\n      PUSH [tag] 102\t\t\t\n      JUMP \t\t\t\n    tag 183\t\t\t\n      JUMPDEST \t\t\t\n      PUSH [tag] 184\t\t\t\n      DUP2 \t\t\t\n      PUSH [tag] 103\t\t\t\n      JUMP \t\t\t\n    tag 184\t\t\t\n      JUMPDEST \t\t\t\n      DUP5 \t\t\t\n      ADD \t\t\t\n      SWAP2 \t\t\t\n      POP \t\t\t\n      POP \t\t\t\n      SWAP3 \t\t\t\n      SWAP2 \t\t\t\n      POP \t\t\t\n      POP \t\t\t\n      JUMP \t\t\t\n    tag 105\t\t\t\n      JUMPDEST \t\t\t\n      PUSH 0\t\t\t\n      DUP2 \t\t\t\n      ISZERO \t\t\t\n      ISZERO \t\t\t\n      SWAP1 \t\t\t\n      POP \t\t\t\n      SWAP2 \t\t\t\n      SWAP1 \t\t\t\n      POP \t\t\t\n      JUMP \t\t\t\n    tag 106\t\t\t\n      JUMPDEST \t\t\t\n      PUSH [tag] 187\t\t\t\n      DUP2 \t\t\t\n      PUSH [tag] 105\t\t\t\n      JUMP \t\t\t\n    tag 187\t\t\t\n      JUMPDEST \t\t\t\n      DUP3 \t\t\t\n      MSTORE \t\t\t\n      POP \t\t\t\n      POP \t\t\t\n      JUMP \t\t\t\n    tag 20\t\t\t\n      JUMPDEST \t\t\t\n      PUSH 0\t\t\t\n      PUSH A0\t\t\t\n      DUP3 \t\t\t\n      ADD \t\t\t\n      SWAP1 \t\t\t\n      POP \t\t\t\n      DUP2 \t\t\t\n      DUP2 \t\t\t\n      SUB \t\t\t\n      PUSH 0\t\t\t\n      DUP4 \t\t\t\n      ADD \t\t\t\n      MSTORE \t\t\t\n      PUSH [tag] 189\t\t\t\n      DUP2 \t\t\t\n      DUP9 \t\t\t\n      PUSH [tag] 104\t\t\t\n      JUMP \t\t\t\n    tag 189\t\t\t\n      JUMPDEST \t\t\t\n      SWAP1 \t\t\t\n      POP \t\t\t\n      PUSH [tag] 190\t\t\t\n      PUSH 20\t\t\t\n      DUP4 \t\t\t\n      ADD \t\t\t\n      DUP8 \t\t\t\n      PUSH [tag] 106\t\t\t\n      JUMP \t\t\t\n    tag 190\t\t\t\n      JUMPDEST \t\t\t\n      PUSH [tag] 191\t\t\t\n      PUSH 40\t\t\t\n      DUP4 \t\t\t\n      ADD \t\t\t\n      DUP7 \t\t\t\n      PUSH [tag] 99\t\t\t\n      JUMP \t\t\t\n    tag 191\t\t\t\n      JUMPDEST \t\t\t\n      DUP2 \t\t\t\n      DUP2 \t\t\t\n      SUB \t\t\t\n      PUSH 60\t\t\t\n      DUP4 \t\t\t\n      ADD \t\t\t\n      MSTORE \t\t\t\n      PUSH [tag] 192\t\t\t\n      DUP2 \t\t\t\n      DUP6 \t\t\t\n      PUSH [tag] 104\t\t\t\n      JUMP \t\t\t\n    tag 192\t\t\t\n      JUMPDEST \t\t\t\n      SWAP1 \t\t\t\n      POP \t\t\t\n      PUSH [tag] 193\t\t\t\n      PUSH 80\t\t\t\n      DUP4 \t\t\t\n      ADD \t\t\t\n      DUP5 \t\t\t\n      PUSH [tag] 99\t\t\t\n      JUMP \t\t\t\n    tag 193\t\t\t\n      JUMPDEST \t\t\t\n      SWAP7 \t\t\t\n      SWAP6 \t\t\t\n      POP \t\t\t\n      POP \t\t\t\n      POP \t\t\t\n      POP \t\t\t\n      POP \t\t\t\n      POP \t\t\t\n      JUMP \t\t\t\n    tag 23\t\t\t\n      JUMPDEST \t\t\t\n      PUSH 0\t\t\t\n      DUP1 \t\t\t\n      PUSH 40\t\t\t\n      DUP4 \t\t\t\n      DUP6 \t\t\t\n      SUB \t\t\t\n      SLT \t\t\t\n      ISZERO \t\t\t\n      PUSH [tag] 195\t\t\t\n      JUMPI \t\t\t\n      PUSH [tag] 196\t\t\t\n      PUSH [tag] 94\t\t\t\n      JUMP \t\t\t\n    tag 196\t\t\t\n      JUMPDEST \t\t\t\n    tag 195\t\t\t\n      JUMPDEST \t\t\t\n      PUSH 0\t\t\t\n      PUSH [tag] 197\t\t\t\n      DUP6 \t\t\t\n      DUP3 \t\t\t\n      DUP7 \t\t\t\n      ADD \t\t\t\n      PUSH [tag] 98\t\t\t\n      JUMP \t\t\t\n    tag 197\t\t\t\n      JUMPDEST \t\t\t\n      SWAP3 \t\t\t\n      POP \t\t\t\n      POP \t\t\t\n      PUSH 20\t\t\t\n      PUSH [tag] 198\t\t\t\n      DUP6 \t\t\t\n      DUP3 \t\t\t\n      DUP7 \t\t\t\n      ADD \t\t\t\n      PUSH [tag] 98\t\t\t\n      JUMP \t\t\t\n    tag 198\t\t\t\n      JUMPDEST \t\t\t\n      SWAP2 \t\t\t\n      POP \t\t\t\n      POP \t\t\t\n      SWAP3 \t\t\t\n      POP \t\t\t\n      SWAP3 \t\t\t\n      SWAP1 \t\t\t\n      POP \t\t\t\n      JUMP \t\t\t\n    tag 107\t\t\t\n      JUMPDEST \t\t\t\n      PUSH 0\t\t\t\n      DUP2 \t\t\t\n      MLOAD \t\t\t\n      SWAP1 \t\t\t\n      POP \t\t\t\n      SWAP2 \t\t\t\n      SWAP1 \t\t\t\n      POP \t\t\t\n      JUMP \t\t\t\n    tag 108\t\t\t\n      JUMPDEST \t\t\t\n      PUSH 0\t\t\t\n      DUP3 \t\t\t\n      DUP3 \t\t\t\n      MSTORE \t\t\t\n      PUSH 20\t\t\t\n      DUP3 \t\t\t\n      ADD \t\t\t\n      SWAP1 \t\t\t\n      POP \t\t\t\n      SWAP3 \t\t\t\n      SWAP2 \t\t\t\n      POP \t\t\t\n      POP \t\t\t\n      JUMP \t\t\t\n    tag 109\t\t\t\n      JUMPDEST \t\t\t\n      PUSH 0\t\t\t\n      DUP2 \t\t\t\n      SWAP1 \t\t\t\n      POP \t\t\t\n      PUSH 20\t\t\t\n      DUP3 \t\t\t\n      ADD \t\t\t\n      SWAP1 \t\t\t\n      POP \t\t\t\n      SWAP2 \t\t\t\n      SWAP1 \t\t\t\n      POP \t\t\t\n      JUMP \t\t\t\n    tag 110\t\t\t\n      JUMPDEST \t\t\t\n      PUSH [tag] 203\t\t\t\n      DUP2 \t\t\t\n      PUSH [tag] 96\t\t\t\n      JUMP \t\t\t\n    tag 203\t\t\t\n      JUMPDEST \t\t\t\n      DUP3 \t\t\t\n      MSTORE \t\t\t\n      POP \t\t\t\n      POP \t\t\t\n      JUMP \t\t\t\n    tag 111\t\t\t\n      JUMPDEST \t\t\t\n      PUSH 80\t\t\t\n      DUP3 \t\t\t\n      ADD \t\t\t\n      PUSH 0\t\t\t\n      DUP3 \t\t\t\n      ADD \t\t\t\n      MLOAD \t\t\t\n      PUSH [tag] 205\t\t\t\n      PUSH 0\t\t\t\n      DUP6 \t\t\t\n      ADD \t\t\t\n      DUP3 \t\t\t\n      PUSH [tag] 110\t\t\t\n      JUMP \t\t\t\n    tag 205\t\t\t\n      JUMPDEST \t\t\t\n      POP \t\t\t\n      PUSH 20\t\t\t\n      DUP3 \t\t\t\n      ADD \t\t\t\n      MLOAD \t\t\t\n      PUSH [tag] 206\t\t\t\n      PUSH 20\t\t\t\n      DUP6 \t\t\t\n      ADD \t\t\t\n      DUP3 \t\t\t\n      PUSH [tag] 110\t\t\t\n      JUMP \t\t\t\n    tag 206\t\t\t\n      JUMPDEST \t\t\t\n      POP \t\t\t\n      PUSH 40\t\t\t\n      DUP3 \t\t\t\n      ADD \t\t\t\n      MLOAD \t\t\t\n      PUSH [tag] 207\t\t\t\n      PUSH 40\t\t\t\n      DUP6 \t\t\t\n      ADD \t\t\t\n      DUP3 \t\t\t\n      PUSH [tag] 110\t\t\t\n      JUMP \t\t\t\n    tag 207\t\t\t\n      JUMPDEST \t\t\t\n      POP \t\t\t\n      PUSH 60\t\t\t\n      DUP3 \t\t\t\n      ADD \t\t\t\n      MLOAD \t\t\t\n      PUSH [tag] 208\t\t\t\n      PUSH 60\t\t\t\n      DUP6 \t\t\t\n      ADD \t\t\t\n      DUP3 \t\t\t\n      PUSH [tag] 110\t\t\t\n      JUMP \t\t\t\n    tag 208\t\t\t\n      JUMPDEST \t\t\t\n      POP \t\t\t\n      POP \t\t\t\n      POP \t\t\t\n      POP \t\t\t\n      JUMP \t\t\t\n    tag 112\t\t\t\n      JUMPDEST \t\t\t\n      PUSH 0\t\t\t\n      PUSH [tag] 210\t\t\t\n      DUP4 \t\t\t\n      DUP4 \t\t\t\n      PUSH [tag] 111\t\t\t\n      JUMP \t\t\t\n    tag 210\t\t\t\n      JUMPDEST \t\t\t\n      PUSH 80\t\t\t\n      DUP4 \t\t\t\n      ADD \t\t\t\n      SWAP1 \t\t\t\n      POP \t\t\t\n      SWAP3 \t\t\t\n      SWAP2 \t\t\t\n      POP \t\t\t\n      POP \t\t\t\n      JUMP \t\t\t\n    tag 113\t\t\t\n      JUMPDEST \t\t\t\n      PUSH 0\t\t\t\n      PUSH 20\t\t\t\n      DUP3 \t\t\t\n      ADD \t\t\t\n      SWAP1 \t\t\t\n      POP \t\t\t\n      SWAP2 \t\t\t\n      SWAP1 \t\t\t\n      POP \t\t\t\n      JUMP \t\t\t\n    tag 114\t\t\t\n      JUMPDEST \t\t\t\n      PUSH 0\t\t\t\n      PUSH [tag] 213\t\t\t\n      DUP3 \t\t\t\n      PUSH [tag] 107\t\t\t\n      JUMP \t\t\t\n    tag 213\t\t\t\n      JUMPDEST \t\t\t\n      PUSH [tag] 214\t\t\t\n      DUP2 \t\t\t\n      DUP6 \t\t\t\n      PUSH [tag] 108\t\t\t\n      JUMP \t\t\t\n    tag 214\t\t\t\n      JUMPDEST \t\t\t\n      SWAP4 \t\t\t\n      POP \t\t\t\n      PUSH [tag] 215\t\t\t\n      DUP4 \t\t\t\n      PUSH [tag] 109\t\t\t\n      JUMP \t\t\t\n    tag 215\t\t\t\n      JUMPDEST \t\t\t\n      DUP1 \t\t\t\n      PUSH 0\t\t\t\n    tag 216\t\t\t\n      JUMPDEST \t\t\t\n      DUP4 \t\t\t\n      DUP2 \t\t\t\n      LT \t\t\t\n      ISZERO \t\t\t\n      PUSH [tag] 218\t\t\t\n      JUMPI \t\t\t\n      DUP2 \t\t\t\n      MLOAD \t\t\t\n      PUSH [tag] 219\t\t\t\n      DUP9 \t\t\t\n      DUP3 \t\t\t\n      PUSH [tag] 112\t\t\t\n      JUMP \t\t\t\n    tag 219\t\t\t\n      JUMPDEST \t\t\t\n      SWAP8 \t\t\t\n      POP \t\t\t\n      PUSH [tag] 220\t\t\t\n      DUP4 \t\t\t\n      PUSH [tag] 113\t\t\t\n      JUMP \t\t\t\n    tag 220\t\t\t\n      JUMPDEST \t\t\t\n      SWAP3 \t\t\t\n      POP \t\t\t\n      POP \t\t\t\n      PUSH 1\t\t\t\n      DUP2 \t\t\t\n      ADD \t\t\t\n      SWAP1 \t\t\t\n      POP \t\t\t\n      PUSH [tag] 216\t\t\t\n      JUMP \t\t\t\n    tag 218\t\t\t\n      JUMPDEST \t\t\t\n      POP \t\t\t\n      DUP6 \t\t\t\n      SWAP4 \t\t\t\n      POP \t\t\t\n      POP \t\t\t\n      POP \t\t\t\n      POP \t\t\t\n      SWAP3 \t\t\t\n      SWAP2 \t\t\t\n      POP \t\t\t\n      POP \t\t\t\n      JUMP \t\t\t\n    tag 26\t\t\t\n      JUMPDEST \t\t\t\n      PUSH 0\t\t\t\n      PUSH 20\t\t\t\n      DUP3 \t\t\t\n      ADD \t\t\t\n      SWAP1 \t\t\t\n      POP \t\t\t\n      DUP2 \t\t\t\n      DUP2 \t\t\t\n      SUB \t\t\t\n      PUSH 0\t\t\t\n      DUP4 \t\t\t\n      ADD \t\t\t\n      MSTORE \t\t\t\n      PUSH [tag] 222\t\t\t\n      DUP2 \t\t\t\n      DUP5 \t\t\t\n      PUSH [tag] 114\t\t\t\n      JUMP \t\t\t\n    tag 222\t\t\t\n      JUMPDEST \t\t\t\n      SWAP1 \t\t\t\n      POP \t\t\t\n      SWAP3 \t\t\t\n      SWAP2 \t\t\t\n      POP \t\t\t\n      POP \t\t\t\n      JUMP \t\t\t\n    tag 115\t\t\t\n      JUMPDEST \t\t\t\n      PUSH 0\t\t\t\n      DUP3 \t\t\t\n      DUP3 \t\t\t\n      MSTORE \t\t\t\n      PUSH 20\t\t\t\n      DUP3 \t\t\t\n      ADD \t\t\t\n      SWAP1 \t\t\t\n      POP \t\t\t\n      SWAP3 \t\t\t\n      SWAP2 \t\t\t\n      POP \t\t\t\n      POP \t\t\t\n      JUMP \t\t\t\n    tag 116\t\t\t\n      JUMPDEST \t\t\t\n      PUSH 0\t\t\t\n      PUSH [tag] 225\t\t\t\n      DUP3 \t\t\t\n      PUSH [tag] 100\t\t\t\n      JUMP \t\t\t\n    tag 225\t\t\t\n      JUMPDEST \t\t\t\n      PUSH [tag] 226\t\t\t\n      DUP2 \t\t\t\n      DUP6 \t\t\t\n      PUSH [tag] 115\t\t\t\n      JUMP \t\t\t\n    tag 226\t\t\t\n      JUMPDEST \t\t\t\n      SWAP4 \t\t\t\n      POP \t\t\t\n      PUSH [tag] 227\t\t\t\n      DUP2 \t\t\t\n      DUP6 \t\t\t\n      PUSH 20\t\t\t\n      DUP7 \t\t\t\n      ADD \t\t\t\n      PUSH [tag] 102\t\t\t\n      JUMP \t\t\t\n    tag 227\t\t\t\n      JUMPDEST \t\t\t\n      PUSH [tag] 228\t\t\t\n      DUP2 \t\t\t\n      PUSH [tag] 103\t\t\t\n      JUMP \t\t\t\n    tag 228\t\t\t\n      JUMPDEST \t\t\t\n      DUP5 \t\t\t\n      ADD \t\t\t\n      SWAP2 \t\t\t\n      POP \t\t\t\n      POP \t\t\t\n      SWAP3 \t\t\t\n      SWAP2 \t\t\t\n      POP \t\t\t\n      POP \t\t\t\n      JUMP \t\t\t\n    tag 117\t\t\t\n      JUMPDEST \t\t\t\n      PUSH [tag] 230\t\t\t\n      DUP2 \t\t\t\n      PUSH [tag] 105\t\t\t\n      JUMP \t\t\t\n    tag 230\t\t\t\n      JUMPDEST \t\t\t\n      DUP3 \t\t\t\n      MSTORE \t\t\t\n      POP \t\t\t\n      POP \t\t\t\n      JUMP \t\t\t\n    tag 118\t\t\t\n      JUMPDEST \t\t\t\n      PUSH 0\t\t\t\n      PUSH A0\t\t\t\n      DUP4 \t\t\t\n      ADD \t\t\t\n      PUSH 0\t\t\t\n      DUP4 \t\t\t\n      ADD \t\t\t\n      MLOAD \t\t\t\n      DUP5 \t\t\t\n      DUP3 \t\t\t\n      SUB \t\t\t\n      PUSH 0\t\t\t\n      DUP7 \t\t\t\n      ADD \t\t\t\n      MSTORE \t\t\t\n      PUSH [tag] 232\t\t\t\n      DUP3 \t\t\t\n      DUP3 \t\t\t\n      PUSH [tag] 116\t\t\t\n      JUMP \t\t\t\n    tag 232\t\t\t\n      JUMPDEST \t\t\t\n      SWAP2 \t\t\t\n      POP \t\t\t\n      POP \t\t\t\n      PUSH 20\t\t\t\n      DUP4 \t\t\t\n      ADD \t\t\t\n      MLOAD \t\t\t\n      PUSH [tag] 233\t\t\t\n      PUSH 20\t\t\t\n      DUP7 \t\t\t\n      ADD \t\t\t\n      DUP3 \t\t\t\n      PUSH [tag] 117\t\t\t\n      JUMP \t\t\t\n    tag 233\t\t\t\n      JUMPDEST \t\t\t\n      POP \t\t\t\n      PUSH 40\t\t\t\n      DUP4 \t\t\t\n      ADD \t\t\t\n      MLOAD \t\t\t\n      PUSH [tag] 234\t\t\t\n      PUSH 40\t\t\t\n      DUP7 \t\t\t\n      ADD \t\t\t\n      DUP3 \t\t\t\n      PUSH [tag] 110\t\t\t\n      JUMP \t\t\t\n    tag 234\t\t\t\n      JUMPDEST \t\t\t\n      POP \t\t\t\n      PUSH 60\t\t\t\n      DUP4 \t\t\t\n      ADD \t\t\t\n      MLOAD \t\t\t\n      DUP5 \t\t\t\n      DUP3 \t\t\t\n      SUB \t\t\t\n      PUSH 60\t\t\t\n      DUP7 \t\t\t\n      ADD \t\t\t\n      MSTORE \t\t\t\n      PUSH [tag] 235\t\t\t\n      DUP3 \t\t\t\n      DUP3 \t\t\t\n      PUSH [tag] 116\t\t\t\n      JUMP \t\t\t\n    tag 235\t\t\t\n      JUMPDEST \t\t\t\n      SWAP2 \t\t\t\n      POP \t\t\t\n      POP \t\t\t\n      PUSH 80\t\t\t\n      DUP4 \t\t\t\n      ADD \t\t\t\n      MLOAD \t\t\t\n      PUSH [tag] 236\t\t\t\n      PUSH 80\t\t\t\n      DUP7 \t\t\t\n      ADD \t\t\t\n      DUP3 \t\t\t\n      PUSH [tag] 110\t\t\t\n      JUMP \t\t\t\n    tag 236\t\t\t\n      JUMPDEST \t\t\t\n      POP \t\t\t\n      DUP1 \t\t\t\n      SWAP2 \t\t\t\n      POP \t\t\t\n      POP \t\t\t\n      SWAP3 \t\t\t\n      SWAP2 \t\t\t\n      POP \t\t\t\n      POP \t\t\t\n      JUMP \t\t\t\n    tag 31\t\t\t\n      JUMPDEST \t\t\t\n      PUSH 0\t\t\t\n      PUSH 20\t\t\t\n      DUP3 \t\t\t\n      ADD \t\t\t\n      SWAP1 \t\t\t\n      POP \t\t\t\n      DUP2 \t\t\t\n      DUP2 \t\t\t\n      SUB \t\t\t\n      PUSH 0\t\t\t\n      DUP4 \t\t\t\n      ADD \t\t\t\n      MSTORE \t\t\t\n      PUSH [tag] 238\t\t\t\n      DUP2 \t\t\t\n      DUP5 \t\t\t\n      PUSH [tag] 118\t\t\t\n      JUMP \t\t\t\n    tag 238\t\t\t\n      JUMPDEST \t\t\t\n      SWAP1 \t\t\t\n      POP \t\t\t\n      SWAP3 \t\t\t\n      SWAP2 \t\t\t\n      POP \t\t\t\n      POP \t\t\t\n      JUMP \t\t\t\n    tag 34\t\t\t\n      JUMPDEST \t\t\t\n      PUSH 0\t\t\t\n      DUP1 \t\t\t\n      PUSH 0\t\t\t\n      DUP1 \t\t\t\n      PUSH 0\t\t\t\n      PUSH A0\t\t\t\n      DUP7 \t\t\t\n      DUP9 \t\t\t\n      SUB \t\t\t\n      SLT \t\t\t\n      ISZERO \t\t\t\n      PUSH [tag] 240\t\t\t\n      JUMPI \t\t\t\n      PUSH [tag] 241\t\t\t\n      PUSH [tag] 94\t\t\t\n      JUMP \t\t\t\n    tag 241\t\t\t\n      JUMPDEST \t\t\t\n    tag 240\t\t\t\n      JUMPDEST \t\t\t\n      PUSH 0\t\t\t\n      PUSH [tag] 242\t\t\t\n      DUP9 \t\t\t\n      DUP3 \t\t\t\n      DUP10 \t\t\t\n      ADD \t\t\t\n      PUSH [tag] 98\t\t\t\n      JUMP \t\t\t\n    tag 242\t\t\t\n      JUMPDEST \t\t\t\n      SWAP6 \t\t\t\n      POP \t\t\t\n      POP \t\t\t\n      PUSH 20\t\t\t\n      PUSH [tag] 243\t\t\t\n      DUP9 \t\t\t\n      DUP3 \t\t\t\n      DUP10 \t\t\t\n      ADD \t\t\t\n      PUSH [tag] 98\t\t\t\n      JUMP \t\t\t\n    tag 243\t\t\t\n      JUMPDEST \t\t\t\n      SWAP5 \t\t\t\n      POP \t\t\t\n      POP \t\t\t\n      PUSH 40\t\t\t\n      PUSH [tag] 244\t\t\t\n      DUP9 \t\t\t\n      DUP3 \t\t\t\n      DUP10 \t\t\t\n      ADD \t\t\t\n      PUSH [tag] 98\t\t\t\n      JUMP \t\t\t\n    tag 244\t\t\t\n      JUMPDEST \t\t\t\n      SWAP4 \t\t\t\n      POP \t\t\t\n      POP \t\t\t\n      PUSH 60\t\t\t\n      PUSH [tag] 245\t\t\t\n      DUP9 \t\t\t\n      DUP3 \t\t\t\n      DUP10 \t\t\t\n      ADD \t\t\t\n      PUSH [tag] 98\t\t\t\n      JUMP \t\t\t\n    tag 245\t\t\t\n      JUMPDEST \t\t\t\n      SWAP3 \t\t\t\n      POP \t\t\t\n      POP \t\t\t\n      PUSH 80\t\t\t\n      PUSH [tag] 246\t\t\t\n      DUP9 \t\t\t\n      DUP3 \t\t\t\n      DUP10 \t\t\t\n      ADD \t\t\t\n      PUSH [tag] 98\t\t\t\n      JUMP \t\t\t\n    tag 246\t\t\t\n      JUMPDEST \t\t\t\n      SWAP2 \t\t\t\n      POP \t\t\t\n      POP \t\t\t\n      SWAP3 \t\t\t\n      SWAP6 \t\t\t\n      POP \t\t\t\n      SWAP3 \t\t\t\n      SWAP6 \t\t\t\n      SWAP1 \t\t\t\n      SWAP4 \t\t\t\n      POP \t\t\t\n      JUMP \t\t\t\n    tag 119\t\t\t\n      JUMPDEST \t\t\t\n      PUSH 0\t\t\t\n      DUP1 \t\t\t\n      REVERT \t\t\t\n    tag 120\t\t\t\n      JUMPDEST \t\t\t\n      PUSH 0\t\t\t\n      DUP1 \t\t\t\n      REVERT \t\t\t\n    tag 121\t\t\t\n      JUMPDEST \t\t\t\n      PUSH 4E487B7100000000000000000000000000000000000000000000000000000000\t\t\t\n      PUSH 0\t\t\t\n      MSTORE \t\t\t\n      PUSH 41\t\t\t\n      PUSH 4\t\t\t\n      MSTORE \t\t\t\n      PUSH 24\t\t\t\n      PUSH 0\t\t\t\n      REVERT \t\t\t\n    tag 122\t\t\t\n      JUMPDEST \t\t\t\n      PUSH [tag] 251\t\t\t\n      DUP3 \t\t\t\n      PUSH [tag] 103\t\t\t\n      JUMP \t\t\t\n    tag 251\t\t\t\n      JUMPDEST \t\t\t\n      DUP2 \t\t\t\n      ADD \t\t\t\n      DUP2 \t\t\t\n      DUP2 \t\t\t\n      LT \t\t\t\n      PUSH FFFFFFFFFFFFFFFF\t\t\t\n      DUP3 \t\t\t\n      GT \t\t\t\n      OR \t\t\t\n      ISZERO \t\t\t\n      PUSH [tag] 252\t\t\t\n      JUMPI \t\t\t\n      PUSH [tag] 253\t\t\t\n      PUSH [tag] 121\t\t\t\n      JUMP \t\t\t\n    tag 253\t\t\t\n      JUMPDEST \t\t\t\n    tag 252\t\t\t\n      JUMPDEST \t\t\t\n      DUP1 \t\t\t\n      PUSH 40\t\t\t\n      MSTORE \t\t\t\n      POP \t\t\t\n      POP \t\t\t\n      POP \t\t\t\n      JUMP \t\t\t\n    tag 123\t\t\t\n      JUMPDEST \t\t\t\n      PUSH 0\t\t\t\n      PUSH [tag] 255\t\t\t\n      PUSH [tag] 93\t\t\t\n      JUMP \t\t\t\n    tag 255\t\t\t\n      JUMPDEST \t\t\t\n      SWAP1 \t\t\t\n      POP \t\t\t\n      PUSH [tag] 256\t\t\t\n      DUP3 \t\t\t\n      DUP3 \t\t\t\n      PUSH [tag] 122\t\t\t\n      JUMP \t\t\t\n    tag 256\t\t\t\n      JUMPDEST \t\t\t\n      SWAP2 \t\t\t\n      SWAP1 \t\t\t\n      POP \t\t\t\n      JUMP \t\t\t\n    tag 124\t\t\t\n      JUMPDEST \t\t\t\n      PUSH 0\t\t\t\n      PUSH FFFFFFFFFFFFFFFF\t\t\t\n      DUP3 \t\t\t\n      GT \t\t\t\n      ISZERO \t\t\t\n      PUSH [tag] 258\t\t\t\n      JUMPI \t\t\t\n      PUSH [tag] 259\t\t\t\n      PUSH [tag] 121\t\t\t\n      JUMP \t\t\t\n    tag 259\t\t\t\n      JUMPDEST \t\t\t\n    tag 258\t\t\t\n      JUMPDEST \t\t\t\n      PUSH [tag] 260\t\t\t\n      DUP3 \t\t\t\n      PUSH [tag] 103\t\t\t\n      JUMP \t\t\t\n    tag 260\t\t\t\n      JUMPDEST \t\t\t\n      SWAP1 \t\t\t\n      POP \t\t\t\n      PUSH 20\t\t\t\n      DUP2 \t\t\t\n      ADD \t\t\t\n      SWAP1 \t\t\t\n      POP \t\t\t\n      SWAP2 \t\t\t\n      SWAP1 \t\t\t\n      POP \t\t\t\n      JUMP \t\t\t\n    tag 125\t\t\t\n      JUMPDEST \t\t\t\n      DUP3 \t\t\t\n      DUP2 \t\t\t\n      DUP4 \t\t\t\n      CALLDATACOPY \t\t\t\n      PUSH 0\t\t\t\n      DUP4 \t\t\t\n      DUP4 \t\t\t\n      ADD \t\t\t\n      MSTORE \t\t\t\n      POP \t\t\t\n      POP \t\t\t\n      POP \t\t\t\n      JUMP \t\t\t\n    tag 126\t\t\t\n      JUMPDEST \t\t\t\n      PUSH 0\t\t\t\n      PUSH [tag] 263\t\t\t\n      PUSH [tag] 264\t\t\t\n      DUP5 \t\t\t\n      PUSH [tag] 124\t\t\t\n      JUMP \t\t\t\n    tag 264\t\t\t\n      JUMPDEST \t\t\t\n      PUSH [tag] 123\t\t\t\n      JUMP \t\t\t\n    tag 263\t\t\t\n      JUMPDEST \t\t\t\n      SWAP1 \t\t\t\n      POP \t\t\t\n      DUP3 \t\t\t\n      DUP2 \t\t\t\n      MSTORE \t\t\t\n      PUSH 20\t\t\t\n      DUP2 \t\t\t\n      ADD \t\t\t\n      DUP5 \t\t\t\n      DUP5 \t\t\t\n      DUP5 \t\t\t\n      ADD \t\t\t\n      GT \t\t\t\n      ISZERO \t\t\t\n      PUSH [tag] 265\t\t\t\n      JUMPI \t\t\t\n      PUSH [tag] 266\t\t\t\n      PUSH [tag] 120\t\t\t\n      JUMP \t\t\t\n    tag 266\t\t\t\n      JUMPDEST \t\t\t\n    tag 265\t\t\t\n      JUMPDEST \t\t\t\n      PUSH [tag] 267\t\t\t\n      DUP5 \t\t\t\n      DUP3 \t\t\t\n      DUP6 \t\t\t\n      PUSH [tag] 125\t\t\t\n      JUMP \t\t\t\n    tag 267\t\t\t\n      JUMPDEST \t\t\t\n      POP \t\t\t\n      SWAP4 \t\t\t\n      SWAP3 \t\t\t\n      POP \t\t\t\n      POP \t\t\t\n      POP \t\t\t\n      JUMP \t\t\t\n    tag 127\t\t\t\n      JUMPDEST \t\t\t\n      PUSH 0\t\t\t\n      DUP3 \t\t\t\n      PUSH 1F\t\t\t\n      DUP4 \t\t\t\n      ADD \t\t\t\n      SLT \t\t\t\n      PUSH [tag] 269\t\t\t\n      JUMPI \t\t\t\n      PUSH [tag] 270\t\t\t\n      PUSH [tag] 119\t\t\t\n      JUMP \t\t\t\n    tag 270\t\t\t\n      JUMPDEST \t\t\t\n    tag 269\t\t\t\n      JUMPDEST \t\t\t\n      DUP2 \t\t\t\n      CALLDATALOAD \t\t\t\n      PUSH [tag] 271\t\t\t\n      DUP5 \t\t\t\n      DUP3 \t\t\t\n      PUSH 20\t\t\t\n      DUP7 \t\t\t\n      ADD \t\t\t\n      PUSH [tag] 126\t\t\t\n      JUMP \t\t\t\n    tag 271\t\t\t\n      JUMPDEST \t\t\t\n      SWAP2 \t\t\t\n      POP \t\t\t\n      POP \t\t\t\n      SWAP3 \t\t\t\n      SWAP2 \t\t\t\n      POP \t\t\t\n      POP \t\t\t\n      JUMP \t\t\t\n    tag 128\t\t\t\n      JUMPDEST \t\t\t\n      PUSH [tag] 273\t\t\t\n      DUP2 \t\t\t\n      PUSH [tag] 105\t\t\t\n      JUMP \t\t\t\n    tag 273\t\t\t\n      JUMPDEST \t\t\t\n      DUP2 \t\t\t\n      EQ \t\t\t\n      PUSH [tag] 274\t\t\t\n      JUMPI \t\t\t\n      PUSH 0\t\t\t\n      DUP1 \t\t\t\n      REVERT \t\t\t\n    tag 274\t\t\t\n      JUMPDEST \t\t\t\n      POP \t\t\t\n      JUMP \t\t\t\n    tag 129\t\t\t\n      JUMPDEST \t\t\t\n      PUSH 0\t\t\t\n      DUP2 \t\t\t\n      CALLDATALOAD \t\t\t\n      SWAP1 \t\t\t\n      POP \t\t\t\n      PUSH [tag] 276\t\t\t\n      DUP2 \t\t\t\n      PUSH [tag] 128\t\t\t\n      JUMP \t\t\t\n    tag 276\t\t\t\n      JUMPDEST \t\t\t\n      SWAP3 \t\t\t\n      SWAP2 \t\t\t\n      POP \t\t\t\n      POP \t\t\t\n      JUMP \t\t\t\n    tag 38\t\t\t\n      JUMPDEST \t\t\t\n      PUSH 0\t\t\t\n      DUP1 \t\t\t\n      PUSH 0\t\t\t\n      DUP1 \t\t\t\n      PUSH 0\t\t\t\n      PUSH A0\t\t\t\n      DUP7 \t\t\t\n      DUP9 \t\t\t\n      SUB \t\t\t\n      SLT \t\t\t\n      ISZERO \t\t\t\n      PUSH [tag] 278\t\t\t\n      JUMPI \t\t\t\n      PUSH [tag] 279\t\t\t\n      PUSH [tag] 94\t\t\t\n      JUMP \t\t\t\n    tag 279\t\t\t\n      JUMPDEST \t\t\t\n    tag 278\t\t\t\n      JUMPDEST \t\t\t\n      PUSH 0\t\t\t\n      DUP7 \t\t\t\n      ADD \t\t\t\n      CALLDATALOAD \t\t\t\n      PUSH FFFFFFFFFFFFFFFF\t\t\t\n      DUP2 \t\t\t\n      GT \t\t\t\n      ISZERO \t\t\t\n      PUSH [tag] 280\t\t\t\n      JUMPI \t\t\t\n      PUSH [tag] 281\t\t\t\n      PUSH [tag] 95\t\t\t\n      JUMP \t\t\t\n    tag 281\t\t\t\n      JUMPDEST \t\t\t\n    tag 280\t\t\t\n      JUMPDEST \t\t\t\n      PUSH [tag] 282\t\t\t\n      DUP9 \t\t\t\n      DUP3 \t\t\t\n      DUP10 \t\t\t\n      ADD \t\t\t\n      PUSH [tag] 127\t\t\t\n      JUMP \t\t\t\n    tag 282\t\t\t\n      JUMPDEST \t\t\t\n      SWAP6 \t\t\t\n      POP \t\t\t\n      POP \t\t\t\n      PUSH 20\t\t\t\n      PUSH [tag] 283\t\t\t\n      DUP9 \t\t\t\n      DUP3 \t\t\t\n      DUP10 \t\t\t\n      ADD \t\t\t\n      PUSH [tag] 129\t\t\t\n      JUMP \t\t\t\n    tag 283\t\t\t\n      JUMPDEST \t\t\t\n      SWAP5 \t\t\t\n      POP \t\t\t\n      POP \t\t\t\n      PUSH 40\t\t\t\n      PUSH [tag] 284\t\t\t\n      DUP9 \t\t\t\n      DUP3 \t\t\t\n      DUP10 \t\t\t\n      ADD \t\t\t\n      PUSH [tag] 98\t\t\t\n      JUMP \t\t\t\n    tag 284\t\t\t\n      JUMPDEST \t\t\t\n      SWAP4 \t\t\t\n      POP \t\t\t\n      POP \t\t\t\n      PUSH 60\t\t\t\n      DUP7 \t\t\t\n      ADD \t\t\t\n      CALLDATALOAD \t\t\t\n      PUSH FFFFFFFFFFFFFFFF\t\t\t\n      DUP2 \t\t\t\n      GT \t\t\t\n      ISZERO \t\t\t\n      PUSH [tag] 285\t\t\t\n      JUMPI \t\t\t\n      PUSH [tag] 286\t\t\t\n      PUSH [tag] 95\t\t\t\n      JUMP \t\t\t\n    tag 286\t\t\t\n      JUMPDEST \t\t\t\n    tag 285\t\t\t\n      JUMPDEST \t\t\t\n      PUSH [tag] 287\t\t\t\n      DUP9 \t\t\t\n      DUP3 \t\t\t\n      DUP10 \t\t\t\n      ADD \t\t\t\n      PUSH [tag] 127\t\t\t\n      JUMP \t\t\t\n    tag 287\t\t\t\n      JUMPDEST \t\t\t\n      SWAP3 \t\t\t\n      POP \t\t\t\n      POP \t\t\t\n      PUSH 80\t\t\t\n      PUSH [tag] 288\t\t\t\n      DUP9 \t\t\t\n      DUP3 \t\t\t\n      DUP10 \t\t\t\n      ADD \t\t\t\n      PUSH [tag] 98\t\t\t\n      JUMP \t\t\t\n    tag 288\t\t\t\n      JUMPDEST \t\t\t\n      SWAP2 \t\t\t\n      POP \t\t\t\n      POP \t\t\t\n      SWAP3 \t\t\t\n      SWAP6 \t\t\t\n      POP \t\t\t\n      SWAP3 \t\t\t\n      SWAP6 \t\t\t\n      SWAP1 \t\t\t\n      SWAP4 \t\t\t\n      POP \t\t\t\n      JUMP \t\t\t\n    tag 41\t\t\t\n      JUMPDEST \t\t\t\n      PUSH 0\t\t\t\n      PUSH 20\t\t\t\n      DUP3 \t\t\t\n      ADD \t\t\t\n      SWAP1 \t\t\t\n      POP \t\t\t\n      PUSH [tag] 290\t\t\t\n      PUSH 0\t\t\t\n      DUP4 \t\t\t\n      ADD \t\t\t\n      DUP5 \t\t\t\n      PUSH [tag] 99\t\t\t\n      JUMP \t\t\t\n    tag 290\t\t\t\n      JUMPDEST \t\t\t\n      SWAP3 \t\t\t\n      SWAP2 \t\t\t\n      POP \t\t\t\n      POP \t\t\t\n      JUMP \t\t\t\n    tag 130\t\t\t\n      JUMPDEST \t\t\t\n      PUSH 4E487B7100000000000000000000000000000000000000000000000000000000\t\t\t\n      PUSH 0\t\t\t\n      MSTORE \t\t\t\n      PUSH 22\t\t\t\n      PUSH 4\t\t\t\n      MSTORE \t\t\t\n      PUSH 24\t\t\t\n      PUSH 0\t\t\t\n      REVERT \t\t\t\n    tag 47\t\t\t\n      JUMPDEST \t\t\t\n      PUSH 0\t\t\t\n      PUSH 2\t\t\t\n      DUP3 \t\t\t\n      DIV \t\t\t\n      SWAP1 \t\t\t\n      POP \t\t\t\n      PUSH 1\t\t\t\n      DUP3 \t\t\t\n      AND \t\t\t\n      DUP1 \t\t\t\n      PUSH [tag] 293\t\t\t\n      JUMPI \t\t\t\n      PUSH 7F\t\t\t\n      DUP3 \t\t\t\n      AND \t\t\t\n      SWAP2 \t\t\t\n      POP \t\t\t\n    tag 293\t\t\t\n      JUMPDEST \t\t\t\n      PUSH 20\t\t\t\n      DUP3 \t\t\t\n      LT \t\t\t\n      DUP2 \t\t\t\n      SUB \t\t\t\n      PUSH [tag] 294\t\t\t\n      JUMPI \t\t\t\n      PUSH [tag] 295\t\t\t\n      PUSH [tag] 130\t\t\t\n      JUMP \t\t\t\n    tag 295\t\t\t\n      JUMPDEST \t\t\t\n    tag 294\t\t\t\n      JUMPDEST \t\t\t\n      POP \t\t\t\n      SWAP2 \t\t\t\n      SWAP1 \t\t\t\n      POP \t\t\t\n      JUMP \t\t\t\n    tag 131\t\t\t\n      JUMPDEST \t\t\t\n      PUSH 5265636569707420646F6573206E6F742065786973742E000000000000000000\t\t\t\n      PUSH 0\t\t\t\n      DUP3 \t\t\t\n      ADD \t\t\t\n      MSTORE \t\t\t\n      POP \t\t\t\n      JUMP \t\t\t\n    tag 132\t\t\t\n      JUMPDEST \t\t\t\n      PUSH 0\t\t\t\n      PUSH [tag] 298\t\t\t\n      PUSH 17\t\t\t\n      DUP4 \t\t\t\n      PUSH [tag] 101\t\t\t\n      JUMP \t\t\t\n    tag 298\t\t\t\n      JUMPDEST \t\t\t\n      SWAP2 \t\t\t\n      POP \t\t\t\n      PUSH [tag] 299\t\t\t\n      DUP3 \t\t\t\n      PUSH [tag] 131\t\t\t\n      JUMP \t\t\t\n    tag 299\t\t\t\n      JUMPDEST \t\t\t\n      PUSH 20\t\t\t\n      DUP3 \t\t\t\n      ADD \t\t\t\n      SWAP1 \t\t\t\n      POP \t\t\t\n      SWAP2 \t\t\t\n      SWAP1 \t\t\t\n      POP \t\t\t\n      JUMP \t\t\t\n    tag 66\t\t\t\n      JUMPDEST \t\t\t\n      PUSH 0\t\t\t\n      PUSH 20\t\t\t\n      DUP3 \t\t\t\n      ADD \t\t\t\n      SWAP1 \t\t\t\n      POP \t\t\t\n      DUP2 \t\t\t\n      DUP2 \t\t\t\n      SUB \t\t\t\n      PUSH 0\t\t\t\n      DUP4 \t\t\t\n      ADD \t\t\t\n      MSTORE \t\t\t\n      PUSH [tag] 301\t\t\t\n      DUP2 \t\t\t\n      PUSH [tag] 132\t\t\t\n      JUMP \t\t\t\n    tag 301\t\t\t\n      JUMPDEST \t\t\t\n      SWAP1 \t\t\t\n      POP \t\t\t\n      SWAP2 \t\t\t\n      SWAP1 \t\t\t\n      POP \t\t\t\n      JUMP \t\t\t\n    tag 69\t\t\t\n      JUMPDEST \t\t\t\n      PUSH 4E487B7100000000000000000000000000000000000000000000000000000000\t\t\t\n      PUSH 0\t\t\t\n      MSTORE \t\t\t\n      PUSH 32\t\t\t\n      PUSH 4\t\t\t\n      MSTORE \t\t\t\n      PUSH 24\t\t\t\n      PUSH 0\t\t\t\n      REVERT \t\t\t\n    tag 84\t\t\t\n      JUMPDEST \t\t\t\n      PUSH 0\t\t\t\n      PUSH A0\t\t\t\n      DUP3 \t\t\t\n      ADD \t\t\t\n      SWAP1 \t\t\t\n      POP \t\t\t\n      PUSH [tag] 304\t\t\t\n      PUSH 0\t\t\t\n      DUP4 \t\t\t\n      ADD \t\t\t\n      DUP9 \t\t\t\n      PUSH [tag] 99\t\t\t\n      JUMP \t\t\t\n    tag 304\t\t\t\n      JUMPDEST \t\t\t\n      PUSH [tag] 305\t\t\t\n      PUSH 20\t\t\t\n      DUP4 \t\t\t\n      ADD \t\t\t\n      DUP8 \t\t\t\n      PUSH [tag] 99\t\t\t\n      JUMP \t\t\t\n    tag 305\t\t\t\n      JUMPDEST \t\t\t\n      PUSH [tag] 306\t\t\t\n      PUSH 40\t\t\t\n      DUP4 \t\t\t\n      ADD \t\t\t\n      DUP7 \t\t\t\n      PUSH [tag] 99\t\t\t\n      JUMP \t\t\t\n    tag 306\t\t\t\n      JUMPDEST \t\t\t\n      PUSH [tag] 307\t\t\t\n      PUSH 60\t\t\t\n      DUP4 \t\t\t\n      ADD \t\t\t\n      DUP6 \t\t\t\n      PUSH [tag] 99\t\t\t\n      JUMP \t\t\t\n    tag 307\t\t\t\n      JUMPDEST \t\t\t\n      PUSH [tag] 308\t\t\t\n      PUSH 80\t\t\t\n      DUP4 \t\t\t\n      ADD \t\t\t\n      DUP5 \t\t\t\n      PUSH [tag] 99\t\t\t\n      JUMP \t\t\t\n    tag 308\t\t\t\n      JUMPDEST \t\t\t\n      SWAP7 \t\t\t\n      SWAP6 \t\t\t\n      POP \t\t\t\n      POP \t\t\t\n      POP \t\t\t\n      POP \t\t\t\n      POP \t\t\t\n      POP \t\t\t\n      JUMP \t\t\t\n    tag 133\t\t\t\n      JUMPDEST \t\t\t\n      PUSH 0\t\t\t\n      DUP2 \t\t\t\n      SWAP1 \t\t\t\n      POP \t\t\t\n      DUP2 \t\t\t\n      PUSH 0\t\t\t\n      MSTORE \t\t\t\n      PUSH 20\t\t\t\n      PUSH 0\t\t\t\n      KECCAK256 \t\t\t\n      SWAP1 \t\t\t\n      POP \t\t\t\n      SWAP2 \t\t\t\n      SWAP1 \t\t\t\n      POP \t\t\t\n      JUMP \t\t\t\n    tag 134\t\t\t\n      JUMPDEST \t\t\t\n      PUSH 0\t\t\t\n      PUSH 20\t\t\t\n      PUSH 1F\t\t\t\n      DUP4 \t\t\t\n      ADD \t\t\t\n      DIV \t\t\t\n      SWAP1 \t\t\t\n      POP \t\t\t\n      SWAP2 \t\t\t\n      SWAP1 \t\t\t\n      POP \t\t\t\n      JUMP \t\t\t\n    tag 135\t\t\t\n      JUMPDEST \t\t\t\n      PUSH 0\t\t\t\n      DUP3 \t\t\t\n      DUP3 \t\t\t\n      SHL \t\t\t\n      SWAP1 \t\t\t\n      POP \t\t\t\n      SWAP3 \t\t\t\n      SWAP2 \t\t\t\n      POP \t\t\t\n      POP \t\t\t\n      JUMP \t\t\t\n    tag 136\t\t\t\n      JUMPDEST \t\t\t\n      PUSH 0\t\t\t\n      PUSH 8\t\t\t\n      DUP4 \t\t\t\n      MUL \t\t\t\n      PUSH [tag] 313\t\t\t\n      PUSH FFFFFFFFFFFFFFFFFFFFFFFFFFFFFFFFFFFFFFFFFFFFFFFFFFFFFFFFFFFFFFFF\t\t\t\n      DUP3 \t\t\t\n      PUSH [tag] 135\t\t\t\n      JUMP \t\t\t\n    tag 313\t\t\t\n      JUMPDEST \t\t\t\n      PUSH [tag] 314\t\t\t\n      DUP7 \t\t\t\n      DUP4 \t\t\t\n      PUSH [tag] 135\t\t\t\n      JUMP \t\t\t\n    tag 314\t\t\t\n      JUMPDEST \t\t\t\n      SWAP6 \t\t\t\n      POP \t\t\t\n      DUP1 \t\t\t\n      NOT \t\t\t\n      DUP5 \t\t\t\n      AND \t\t\t\n      SWAP4 \t\t\t\n      POP \t\t\t\n      DUP1 \t\t\t\n      DUP7 \t\t\t\n      AND \t\t\t\n      DUP5 \t\t\t\n      OR \t\t\t\n      SWAP3 \t\t\t\n      POP \t\t\t\n      POP \t\t\t\n      POP \t\t\t\n      SWAP4 \t\t\t\n      SWAP3 \t\t\t\n      POP \t\t\t\n      POP \t\t\t\n      POP \t\t\t\n      JUMP \t\t\t\n    tag 137\t\t\t\n      JUMPDEST \t\t\t\n      PUSH 0\t\t\t\n      DUP2 \t\t\t\n      SWAP1 \t\t\t\n      POP \t\t\t\n      SWAP2 \t\t\t\n      SWAP1 \t\t\t\n      POP \t\t\t\n      JUMP \t\t\t\n    tag 138\t\t\t\n      JUMPDEST \t\t\t\n      PUSH 0\t\t\t\n      PUSH [tag] 317\t\t\t\n      PUSH [tag] 318\t\t\t\n      PUSH [tag] 319\t\t\t\n      DUP5 \t\t\t\n      PUSH [tag] 96\t\t\t\n      JUMP \t\t\t\n    tag 319\t\t\t\n      JUMPDEST \t\t\t\n      PUSH [tag] 137\t\t\t\n      JUMP \t\t\t\n    tag 318\t\t\t\n      JUMPDEST \t\t\t\n      PUSH [tag] 96\t\t\t\n      JUMP \t\t\t\n    tag 317\t\t\t\n      JUMPDEST \t\t\t\n      SWAP1 \t\t\t\n      POP \t\t\t\n      SWAP2 \t\t\t\n      SWAP1 \t\t\t\n      POP \t\t\t\n      JUMP \t\t\t\n    tag 139\t\t\t\n      JUMPDEST \t\t\t\n      PUSH 0\t\t\t\n      DUP2 \t\t\t\n      SWAP1 \t\t\t\n      POP \t\t\t\n      SWAP2 \t\t\t\n      SWAP1 \t\t\t\n      POP \t\t\t\n      JUMP \t\t\t\n    tag 140\t\t\t\n      JUMPDEST \t\t\t\n      PUSH [tag] 322\t\t\t\n      DUP4 \t\t\t\n      PUSH [tag] 138\t\t\t\n      JUMP \t\t\t\n    tag 322\t\t\t\n      JUMPDEST \t\t\t\n      PUSH [tag] 323\t\t\t\n      PUSH [tag] 324\t\t\t\n      DUP3 \t\t\t\n      PUSH [tag] 139\t\t\t\n      JUMP \t\t\t\n    tag 324\t\t\t\n      JUMPDEST \t\t\t\n      DUP5 \t\t\t\n      DUP5 \t\t\t\n      SLOAD \t\t\t\n      PUSH [tag] 136\t\t\t\n      JUMP \t\t\t\n    tag 323\t\t\t\n      JUMPDEST \t\t\t\n      DUP3 \t\t\t\n      SSTORE \t\t\t\n      POP \t\t\t\n      POP \t\t\t\n      POP \t\t\t\n      POP \t\t\t\n      JUMP \t\t\t\n    tag 141\t\t\t\n      JUMPDEST \t\t\t\n      PUSH 0\t\t\t\n      SWAP1 \t\t\t\n      JUMP \t\t\t\n    tag 142\t\t\t\n      JUMPDEST \t\t\t\n      PUSH [tag] 327\t\t\t\n      PUSH [tag] 141\t\t\t\n      JUMP \t\t\t\n    tag 327\t\t\t\n      JUMPDEST \t\t\t\n      PUSH [tag] 328\t\t\t\n      DUP2 \t\t\t\n      DUP5 \t\t\t\n      DUP5 \t\t\t\n      PUSH [tag] 140\t\t\t\n      JUMP \t\t\t\n    tag 328\t\t\t\n      JUMPDEST \t\t\t\n      POP \t\t\t\n      POP \t\t\t\n      POP \t\t\t\n      JUMP \t\t\t\n    tag 143\t\t\t\n      JUMPDEST \t\t\t\n    tag 330\t\t\t\n      JUMPDEST \t\t\t\n      DUP2 \t\t\t\n      DUP2 \t\t\t\n      LT \t\t\t\n      ISZERO \t\t\t\n      PUSH [tag] 332\t\t\t\n      JUMPI \t\t\t\n      PUSH [tag] 333\t\t\t\n      PUSH 0\t\t\t\n      DUP3 \t\t\t\n      PUSH [tag] 142\t\t\t\n      JUMP \t\t\t\n    tag 333\t\t\t\n      JUMPDEST \t\t\t\n      PUSH 1\t\t\t\n      DUP2 \t\t\t\n      ADD \t\t\t\n      SWAP1 \t\t\t\n      POP \t\t\t\n      PUSH [tag] 330\t\t\t\n      JUMP \t\t\t\n    tag 332\t\t\t\n      JUMPDEST \t\t\t\n      POP \t\t\t\n      POP \t\t\t\n      JUMP \t\t\t\n    tag 144\t\t\t\n      JUMPDEST \t\t\t\n      PUSH 1F\t\t\t\n      DUP3 \t\t\t\n      GT \t\t\t\n      ISZERO \t\t\t\n      PUSH [tag] 335\t\t\t\n      JUMPI \t\t\t\n      PUSH [tag] 336\t\t\t\n      DUP2 \t\t\t\n      PUSH [tag] 133\t\t\t\n      JUMP \t\t\t\n    tag 336\t\t\t\n      JUMPDEST \t\t\t\n      PUSH [tag] 337\t\t\t\n      DUP5 \t\t\t\n      PUSH [tag] 134\t\t\t\n      JUMP \t\t\t\n    tag 337\t\t\t\n      JUMPDEST \t\t\t\n      DUP2 \t\t\t\n      ADD \t\t\t\n      PUSH 20\t\t\t\n      DUP6 \t\t\t\n      LT \t\t\t\n      ISZERO \t\t\t\n      PUSH [tag] 338\t\t\t\n      JUMPI \t\t\t\n      DUP2 \t\t\t\n      SWAP1 \t\t\t\n      POP \t\t\t\n    tag 338\t\t\t\n      JUMPDEST \t\t\t\n      PUSH [tag] 339\t\t\t\n      PUSH [tag] 340\t\t\t\n      DUP6 \t\t\t\n      PUSH [tag] 134\t\t\t\n      JUMP \t\t\t\n    tag 340\t\t\t\n      JUMPDEST \t\t\t\n      DUP4 \t\t\t\n      ADD \t\t\t\n      DUP3 \t\t\t\n      PUSH [tag] 143\t\t\t\n      JUMP \t\t\t\n    tag 339\t\t\t\n      JUMPDEST \t\t\t\n      POP \t\t\t\n      POP \t\t\t\n    tag 335\t\t\t\n      JUMPDEST \t\t\t\n      POP \t\t\t\n      POP \t\t\t\n      POP \t\t\t\n      JUMP \t\t\t\n    tag 145\t\t\t\n      JUMPDEST \t\t\t\n      PUSH 0\t\t\t\n      DUP3 \t\t\t\n      DUP3 \t\t\t\n      SHR \t\t\t\n      SWAP1 \t\t\t\n      POP \t\t\t\n      SWAP3 \t\t\t\n      SWAP2 \t\t\t\n      POP \t\t\t\n      POP \t\t\t\n      JUMP \t\t\t\n    tag 146\t\t\t\n      JUMPDEST \t\t\t\n      PUSH 0\t\t\t\n      PUSH [tag] 343\t\t\t\n      PUSH 0\t\t\t\n      NOT \t\t\t\n      DUP5 \t\t\t\n      PUSH 8\t\t\t\n      MUL \t\t\t\n      PUSH [tag] 145\t\t\t\n      JUMP \t\t\t\n    tag 343\t\t\t\n      JUMPDEST \t\t\t\n      NOT \t\t\t\n      DUP1 \t\t\t\n      DUP4 \t\t\t\n      AND \t\t\t\n      SWAP2 \t\t\t\n      POP \t\t\t\n      POP \t\t\t\n      SWAP3 \t\t\t\n      SWAP2 \t\t\t\n      POP \t\t\t\n      POP \t\t\t\n      JUMP \t\t\t\n    tag 147\t\t\t\n      JUMPDEST \t\t\t\n      PUSH 0\t\t\t\n      PUSH [tag] 345\t\t\t\n      DUP4 \t\t\t\n      DUP4 \t\t\t\n      PUSH [tag] 146\t\t\t\n      JUMP \t\t\t\n    tag 345\t\t\t\n      JUMPDEST \t\t\t\n      SWAP2 \t\t\t\n      POP \t\t\t\n      DUP3 \t\t\t\n      PUSH 2\t\t\t\n      MUL \t\t\t\n      DUP3 \t\t\t\n      OR \t\t\t\n      SWAP1 \t\t\t\n      POP \t\t\t\n      SWAP3 \t\t\t\n      SWAP2 \t\t\t\n      POP \t\t\t\n      POP \t\t\t\n      JUMP \t\t\t\n    tag 88\t\t\t\n      JUMPDEST \t\t\t\n      PUSH [tag] 347\t\t\t\n      DUP3 \t\t\t\n      PUSH [tag] 100\t\t\t\n      JUMP \t\t\t\n    tag 347\t\t\t\n      JUMPDEST \t\t\t\n      PUSH FFFFFFFFFFFFFFFF\t\t\t\n      DUP2 \t\t\t\n      GT \t\t\t\n      ISZERO \t\t\t\n      PUSH [tag] 348\t\t\t\n      JUMPI \t\t\t\n      PUSH [tag] 349\t\t\t\n      PUSH [tag] 121\t\t\t\n      JUMP \t\t\t\n    tag 349\t\t\t\n      JUMPDEST \t\t\t\n    tag 348\t\t\t\n      JUMPDEST \t\t\t\n      PUSH [tag] 350\t\t\t\n      DUP3 \t\t\t\n      SLOAD \t\t\t\n      PUSH [tag] 47\t\t\t\n      JUMP \t\t\t\n    tag 350\t\t\t\n      JUMPDEST \t\t\t\n      PUSH [tag] 351\t\t\t\n      DUP3 \t\t\t\n      DUP3 \t\t\t\n      DUP6 \t\t\t\n      PUSH [tag] 144\t\t\t\n      JUMP \t\t\t\n    tag 351\t\t\t\n      JUMPDEST \t\t\t\n      PUSH 0\t\t\t\n      PUSH 20\t\t\t\n      SWAP1 \t\t\t\n      POP \t\t\t\n      PUSH 1F\t\t\t\n      DUP4 \t\t\t\n      GT \t\t\t\n      PUSH 1\t\t\t\n      DUP2 \t\t\t\n      EQ \t\t\t\n      PUSH [tag] 353\t\t\t\n      JUMPI \t\t\t\n      PUSH 0\t\t\t\n      DUP5 \t\t\t\n      ISZERO \t\t\t\n      PUSH [tag] 354\t\t\t\n      JUMPI \t\t\t\n      DUP3 \t\t\t\n      DUP8 \t\t\t\n      ADD \t\t\t\n      MLOAD \t\t\t\n      SWAP1 \t\t\t\n      POP \t\t\t\n    tag 354\t\t\t\n      JUMPDEST \t\t\t\n      PUSH [tag] 355\t\t\t\n      DUP6 \t\t\t\n      DUP3 \t\t\t\n      PUSH [tag] 147\t\t\t\n      JUMP \t\t\t\n    tag 355\t\t\t\n      JUMPDEST \t\t\t\n      DUP7 \t\t\t\n      SSTORE \t\t\t\n      POP \t\t\t\n      PUSH [tag] 352\t\t\t\n      JUMP \t\t\t\n    tag 353\t\t\t\n      JUMPDEST \t\t\t\n      PUSH 1F\t\t\t\n      NOT \t\t\t\n      DUP5 \t\t\t\n      AND \t\t\t\n      PUSH [tag] 356\t\t\t\n      DUP7 \t\t\t\n      PUSH [tag] 133\t\t\t\n      JUMP \t\t\t\n    tag 356\t\t\t\n      JUMPDEST \t\t\t\n      PUSH 0\t\t\t\n    tag 357\t\t\t\n      JUMPDEST \t\t\t\n      DUP3 \t\t\t\n      DUP2 \t\t\t\n      LT \t\t\t\n      ISZERO \t\t\t\n      PUSH [tag] 359\t\t\t\n      JUMPI \t\t\t\n      DUP5 \t\t\t\n      DUP10 \t\t\t\n      ADD \t\t\t\n      MLOAD \t\t\t\n      DUP3 \t\t\t\n      SSTORE \t\t\t\n      PUSH 1\t\t\t\n      DUP3 \t\t\t\n      ADD \t\t\t\n      SWAP2 \t\t\t\n      POP \t\t\t\n      PUSH 20\t\t\t\n      DUP6 \t\t\t\n      ADD \t\t\t\n      SWAP5 \t\t\t\n      POP \t\t\t\n      PUSH 20\t\t\t\n      DUP2 \t\t\t\n      ADD \t\t\t\n      SWAP1 \t\t\t\n      POP \t\t\t\n      PUSH [tag] 357\t\t\t\n      JUMP \t\t\t\n    tag 359\t\t\t\n      JUMPDEST \t\t\t\n      DUP7 \t\t\t\n      DUP4 \t\t\t\n      LT \t\t\t\n      ISZERO \t\t\t\n      PUSH [tag] 360\t\t\t\n      JUMPI \t\t\t\n      DUP5 \t\t\t\n      DUP10 \t\t\t\n      ADD \t\t\t\n      MLOAD \t\t\t\n      PUSH [tag] 361\t\t\t\n      PUSH 1F\t\t\t\n      DUP10 \t\t\t\n      AND \t\t\t\n      DUP3 \t\t\t\n      PUSH [tag] 146\t\t\t\n      JUMP \t\t\t\n    tag 361\t\t\t\n      JUMPDEST \t\t\t\n      DUP4 \t\t\t\n      SSTORE \t\t\t\n      POP \t\t\t\n    tag 360\t\t\t\n      JUMPDEST \t\t\t\n      PUSH 1\t\t\t\n      PUSH 2\t\t\t\n      DUP9 \t\t\t\n      MUL \t\t\t\n      ADD \t\t\t\n      DUP9 \t\t\t\n      SSTORE \t\t\t\n      POP \t\t\t\n      POP \t\t\t\n      POP \t\t\t\n    tag 352\t\t\t\n      JUMPDEST \t\t\t\n      POP \t\t\t\n      POP \t\t\t\n      POP \t\t\t\n      POP \t\t\t\n      POP \t\t\t\n      POP \t\t\t\n      JUMP \t\t\t\n    tag 148\t\t\t\n      JUMPDEST \t\t\t\n      PUSH 4E487B7100000000000000000000000000000000000000000000000000000000\t\t\t\n      PUSH 0\t\t\t\n      MSTORE \t\t\t\n      PUSH 11\t\t\t\n      PUSH 4\t\t\t\n      MSTORE \t\t\t\n      PUSH 24\t\t\t\n      PUSH 0\t\t\t\n      REVERT \t\t\t\n    tag 91\t\t\t\n      JUMPDEST \t\t\t\n      PUSH 0\t\t\t\n      PUSH [tag] 364\t\t\t\n      DUP3 \t\t\t\n      PUSH [tag] 96\t\t\t\n      JUMP \t\t\t\n    tag 364\t\t\t\n      JUMPDEST \t\t\t\n      SWAP2 \t\t\t\n      POP \t\t\t\n      PUSH [tag] 365\t\t\t\n      DUP4 \t\t\t\n      PUSH [tag] 96\t\t\t\n      JUMP \t\t\t\n    tag 365\t\t\t\n      JUMPDEST \t\t\t\n      SWAP3 \t\t\t\n      POP \t\t\t\n      DUP3 \t\t\t\n      DUP3 \t\t\t\n      SUB \t\t\t\n      SWAP1 \t\t\t\n      POP \t\t\t\n      DUP2 \t\t\t\n      DUP2 \t\t\t\n      GT \t\t\t\n      ISZERO \t\t\t\n      PUSH [tag] 366\t\t\t\n      JUMPI \t\t\t\n      PUSH [tag] 367\t\t\t\n      PUSH [tag] 148\t\t\t\n      JUMP \t\t\t\n    tag 367\t\t\t\n      JUMPDEST \t\t\t\n    tag 366\t\t\t\n      JUMPDEST \t\t\t\n      SWAP3 \t\t\t\n      SWAP2 \t\t\t\n      POP \t\t\t\n      POP \t\t\t\n      JUMP \t\t\t\n    .data\n"
}